{
  "contractName": "BeaconContract",
  "abi": [
    {
      "inputs": [
        {
          "internalType": "address",
          "name": "_initLogic",
          "type": "address"
        }
      ],
      "stateMutability": "nonpayable",
      "type": "constructor"
    },
    {
      "anonymous": false,
      "inputs": [
        {
          "indexed": true,
          "internalType": "address",
          "name": "previousOwner",
          "type": "address"
        },
        {
          "indexed": true,
          "internalType": "address",
          "name": "newOwner",
          "type": "address"
        }
      ],
      "name": "OwnershipTransferred",
      "type": "event"
    },
    {
      "inputs": [],
      "name": "owner",
      "outputs": [
        {
          "internalType": "address",
          "name": "",
          "type": "address"
        }
      ],
      "stateMutability": "view",
      "type": "function",
      "constant": true
    },
    {
      "inputs": [],
      "name": "renounceOwnership",
      "outputs": [],
      "stateMutability": "nonpayable",
      "type": "function"
    },
    {
      "inputs": [
        {
          "internalType": "address",
          "name": "newOwner",
          "type": "address"
        }
      ],
      "name": "transferOwnership",
      "outputs": [],
      "stateMutability": "nonpayable",
      "type": "function"
    },
    {
      "inputs": [
        {
          "internalType": "address",
          "name": "_newLogic",
          "type": "address"
        }
      ],
      "name": "update",
      "outputs": [],
      "stateMutability": "nonpayable",
      "type": "function"
    },
    {
      "inputs": [],
      "name": "implementation",
      "outputs": [
        {
          "internalType": "address",
          "name": "",
          "type": "address"
        }
      ],
      "stateMutability": "view",
      "type": "function",
      "constant": true
    }
  ],
  "bytecode": "0x60a060405234801561001057600080fd5b50604051610abf380380610abf83398101604081905261002f916101dd565b610038336100a6565b80604051610045906101d0565b6001600160a01b039091168152602001604051809103906000f080158015610071573d6000803e3d6000fd5b506001600160a01b03908116608052600180546001600160a01b0319169183169190911790556100a0326100f6565b5061020d565b600080546001600160a01b038381166001600160a01b0319831681178455604051919092169283917f8be0079c531659141344cd1fd0a4f28419497f9722a3daafe3b4186f6b6457e09190a35050565b6100fe610174565b6001600160a01b0381166101685760405162461bcd60e51b815260206004820152602660248201527f4f776e61626c653a206e6577206f776e657220697320746865207a65726f206160448201526564647265737360d01b60648201526084015b60405180910390fd5b610171816100a6565b50565b6000546001600160a01b031633146101ce5760405162461bcd60e51b815260206004820181905260248201527f4f776e61626c653a2063616c6c6572206973206e6f7420746865206f776e6572604482015260640161015f565b565b61052f8061059083390190565b6000602082840312156101ef57600080fd5b81516001600160a01b038116811461020657600080fd5b9392505050565b608051610368610228600039600061011601526103686000f3fe608060405234801561001057600080fd5b50600436106100675760003560e01c8063715018a611610050578063715018a6146100aa5780638da5cb5b146100b2578063f2fde38b146100c357600080fd5b80631c1b87721461006c5780635c60da1b14610081575b600080fd5b61007f61007a366004610302565b6100d6565b005b6001546001600160a01b03165b6040516001600160a01b03909116815260200160405180910390f35b61007f6101a2565b6000546001600160a01b031661008e565b61007f6100d1366004610302565b6101b6565b6100de61024b565b6040517f3659cfe60000000000000000000000000000000000000000000000000000000081526001600160a01b0382811660048301527f00000000000000000000000000000000000000000000000000000000000000001690633659cfe690602401600060405180830381600087803b15801561015a57600080fd5b505af115801561016e573d6000803e3d6000fd5b50506001805473ffffffffffffffffffffffffffffffffffffffff19166001600160a01b0394909416939093179092555050565b6101aa61024b565b6101b460006102a5565b565b6101be61024b565b6001600160a01b03811661023f5760405162461bcd60e51b815260206004820152602660248201527f4f776e61626c653a206e6577206f776e657220697320746865207a65726f206160448201527f646472657373000000000000000000000000000000000000000000000000000060648201526084015b60405180910390fd5b610248816102a5565b50565b6000546001600160a01b031633146101b45760405162461bcd60e51b815260206004820181905260248201527f4f776e61626c653a2063616c6c6572206973206e6f7420746865206f776e65726044820152606401610236565b600080546001600160a01b0383811673ffffffffffffffffffffffffffffffffffffffff19831681178455604051919092169283917f8be0079c531659141344cd1fd0a4f28419497f9722a3daafe3b4186f6b6457e09190a35050565b60006020828403121561031457600080fd5b81356001600160a01b038116811461032b57600080fd5b939250505056fea26469706673582212202ed277866b256ba36be90e371f001d17fa1483ce4a95aa011e6d1e4d992661b664736f6c634300080e0033608060405234801561001057600080fd5b5060405161052f38038061052f83398101604081905261002f91610151565b61003833610047565b61004181610097565b50610181565b600080546001600160a01b038381166001600160a01b0319831681178455604051919092169283917f8be0079c531659141344cd1fd0a4f28419497f9722a3daafe3b4186f6b6457e09190a35050565b6100aa8161014260201b6101c71760201c565b6101205760405162461bcd60e51b815260206004820152603360248201527f5570677261646561626c65426561636f6e3a20696d706c656d656e746174696f60448201527f6e206973206e6f74206120636f6e747261637400000000000000000000000000606482015260840160405180910390fd5b600180546001600160a01b0319166001600160a01b0392909216919091179055565b6001600160a01b03163b151590565b60006020828403121561016357600080fd5b81516001600160a01b038116811461017a57600080fd5b9392505050565b61039f806101906000396000f3fe608060405234801561001057600080fd5b50600436106100675760003560e01c8063715018a611610050578063715018a6146100aa5780638da5cb5b146100b2578063f2fde38b146100c357600080fd5b80633659cfe61461006c5780635c60da1b14610081575b600080fd5b61007f61007a366004610339565b6100d6565b005b6001546001600160a01b03165b6040516001600160a01b03909116815260200160405180910390f35b61007f61011e565b6000546001600160a01b031661008e565b61007f6100d1366004610339565b610132565b6100de6101d6565b6100e781610230565b6040516001600160a01b038216907fbc7cd75a20ee27fd9adebab32041f755214dbc6bffa90cc0225b39da2e5c2d3b90600090a250565b6101266101d6565b61013060006102dc565b565b61013a6101d6565b6001600160a01b0381166101bb5760405162461bcd60e51b815260206004820152602660248201527f4f776e61626c653a206e6577206f776e657220697320746865207a65726f206160448201527f646472657373000000000000000000000000000000000000000000000000000060648201526084015b60405180910390fd5b6101c4816102dc565b50565b6001600160a01b03163b151590565b6000546001600160a01b031633146101305760405162461bcd60e51b815260206004820181905260248201527f4f776e61626c653a2063616c6c6572206973206e6f7420746865206f776e657260448201526064016101b2565b6001600160a01b0381163b6102ad5760405162461bcd60e51b815260206004820152603360248201527f5570677261646561626c65426561636f6e3a20696d706c656d656e746174696f60448201527f6e206973206e6f74206120636f6e74726163740000000000000000000000000060648201526084016101b2565b6001805473ffffffffffffffffffffffffffffffffffffffff19166001600160a01b0392909216919091179055565b600080546001600160a01b0383811673ffffffffffffffffffffffffffffffffffffffff19831681178455604051919092169283917f8be0079c531659141344cd1fd0a4f28419497f9722a3daafe3b4186f6b6457e09190a35050565b60006020828403121561034b57600080fd5b81356001600160a01b038116811461036257600080fd5b939250505056fea2646970667358221220eb0ac63eda0ee8f9c62d6f092ca2c8e1d89b1b12a8d7084dcffe139246e94ec364736f6c634300080e0033",
  "immutableReferences": {
    "12228": [
      {
        "length": 32,
        "start": 278
      }
    ]
  },
  "source": "// SPDX-License-Identifier: UNLICENSED\npragma solidity 0.8.14;\n\nimport \"@openzeppelin/contracts/proxy/beacon/UpgradeableBeacon.sol\";\nimport \"@openzeppelin/contracts/proxy/beacon/IBeacon.sol\";\nimport \"@openzeppelin/contracts/access/Ownable.sol\";\n\ncontract BeaconContract is Ownable, IBeacon {\n\n    UpgradeableBeacon immutable beacon;\n\n    address private logic;\n\n    constructor(address _initLogic) {\n        beacon=new UpgradeableBeacon(_initLogic);\n        logic=_initLogic;\n        transferOwnership(tx.origin);\n    }\n\n    function update(address _newLogic)\n        public\n        onlyOwner\n    {\n        beacon.upgradeTo(_newLogic);\n        logic=_newLogic;\n    }\n\n    function implementation() public view returns(address){\n        return logic;\n    }\n}\n",
  "sourcePath": "/Users/mujtabasiddiqui/Desktop/Mujtaba/lootmogul/marketplace/src/contracts/BeaconContract.sol",
  "compiler": {
    "name": "solc",
    "version": "0.8.14+commit.80d49f37.Emscripten.clang"
  },
  "schemaVersion": "3.4.16",
  "updatedAt": "2025-03-28T18:14:56.919Z",
  "networkType": "ethereum",
  "devdoc": {
    "kind": "dev",
    "methods": {
      "implementation()": {
        "details": "Must return an address that can be used as a delegate call target. {BeaconProxy} will check that this address is a contract."
      },
      "owner()": {
        "details": "Returns the address of the current owner."
      },
      "renounceOwnership()": {
        "details": "Leaves the contract without owner. It will not be possible to call `onlyOwner` functions. Can only be called by the current owner. NOTE: Renouncing ownership will leave the contract without an owner, thereby disabling any functionality that is only available to the owner."
      },
      "transferOwnership(address)": {
        "details": "Transfers ownership of the contract to a new account (`newOwner`). Can only be called by the current owner."
      }
    },
    "version": 1
  },
  "userdoc": {
    "kind": "user",
    "methods": {},
    "version": 1
  }
}