{
  "contractName": "Factory721",
  "abi": [
    {
      "inputs": [
        {
          "internalType": "address",
          "name": "_beacon",
          "type": "address"
        }
      ],
      "stateMutability": "nonpayable",
      "type": "constructor"
    },
    {
      "anonymous": false,
      "inputs": [
        {
          "indexed": false,
          "internalType": "address",
          "name": "owner",
          "type": "address"
        },
        {
          "indexed": false,
          "internalType": "address",
          "name": "contractAddress",
          "type": "address"
        }
      ],
      "name": "Deployed",
      "type": "event"
    },
    {
      "anonymous": false,
      "inputs": [
        {
          "indexed": true,
          "internalType": "bytes32",
          "name": "role",
          "type": "bytes32"
        },
        {
          "indexed": true,
          "internalType": "bytes32",
          "name": "previousAdminRole",
          "type": "bytes32"
        },
        {
          "indexed": true,
          "internalType": "bytes32",
          "name": "newAdminRole",
          "type": "bytes32"
        }
      ],
      "name": "RoleAdminChanged",
      "type": "event"
    },
    {
      "anonymous": false,
      "inputs": [
        {
          "indexed": true,
          "internalType": "bytes32",
          "name": "role",
          "type": "bytes32"
        },
        {
          "indexed": true,
          "internalType": "address",
          "name": "account",
          "type": "address"
        },
        {
          "indexed": true,
          "internalType": "address",
          "name": "sender",
          "type": "address"
        }
      ],
      "name": "RoleGranted",
      "type": "event"
    },
    {
      "anonymous": false,
      "inputs": [
        {
          "indexed": true,
          "internalType": "bytes32",
          "name": "role",
          "type": "bytes32"
        },
        {
          "indexed": true,
          "internalType": "address",
          "name": "account",
          "type": "address"
        },
        {
          "indexed": true,
          "internalType": "address",
          "name": "sender",
          "type": "address"
        }
      ],
      "name": "RoleRevoked",
      "type": "event"
    },
    {
      "inputs": [],
      "name": "ADMIN_ROLE",
      "outputs": [
        {
          "internalType": "bytes32",
          "name": "",
          "type": "bytes32"
        }
      ],
      "stateMutability": "view",
      "type": "function"
    },
    {
      "inputs": [],
      "name": "DEFAULT_ADMIN_ROLE",
      "outputs": [
        {
          "internalType": "bytes32",
          "name": "",
          "type": "bytes32"
        }
      ],
      "stateMutability": "view",
      "type": "function"
    },
    {
      "inputs": [],
      "name": "beacon",
      "outputs": [
        {
          "internalType": "address",
          "name": "",
          "type": "address"
        }
      ],
      "stateMutability": "view",
      "type": "function"
    },
    {
      "inputs": [
        {
          "internalType": "bytes32",
          "name": "role",
          "type": "bytes32"
        }
      ],
      "name": "getRoleAdmin",
      "outputs": [
        {
          "internalType": "bytes32",
          "name": "",
          "type": "bytes32"
        }
      ],
      "stateMutability": "view",
      "type": "function"
    },
    {
      "inputs": [
        {
          "internalType": "bytes32",
          "name": "role",
          "type": "bytes32"
        },
        {
          "internalType": "address",
          "name": "account",
          "type": "address"
        }
      ],
      "name": "grantRole",
      "outputs": [],
      "stateMutability": "nonpayable",
      "type": "function"
    },
    {
      "inputs": [
        {
          "internalType": "bytes32",
          "name": "role",
          "type": "bytes32"
        },
        {
          "internalType": "address",
          "name": "account",
          "type": "address"
        }
      ],
      "name": "hasRole",
      "outputs": [
        {
          "internalType": "bool",
          "name": "",
          "type": "bool"
        }
      ],
      "stateMutability": "view",
      "type": "function"
    },
    {
      "inputs": [
        {
          "internalType": "bytes32",
          "name": "role",
          "type": "bytes32"
        },
        {
          "internalType": "address",
          "name": "account",
          "type": "address"
        }
      ],
      "name": "renounceRole",
      "outputs": [],
      "stateMutability": "nonpayable",
      "type": "function"
    },
    {
      "inputs": [
        {
          "internalType": "bytes32",
          "name": "role",
          "type": "bytes32"
        },
        {
          "internalType": "address",
          "name": "account",
          "type": "address"
        }
      ],
      "name": "revokeRole",
      "outputs": [],
      "stateMutability": "nonpayable",
      "type": "function"
    },
    {
      "inputs": [
        {
          "internalType": "bytes4",
          "name": "interfaceId",
          "type": "bytes4"
        }
      ],
      "name": "supportsInterface",
      "outputs": [
        {
          "internalType": "bool",
          "name": "",
          "type": "bool"
        }
      ],
      "stateMutability": "view",
      "type": "function"
    },
    {
      "inputs": [
        {
          "internalType": "bytes32",
          "name": "_salt",
          "type": "bytes32"
        },
        {
          "internalType": "string",
          "name": "name",
          "type": "string"
        },
        {
          "internalType": "string",
          "name": "symbol",
          "type": "string"
        },
        {
          "internalType": "string",
          "name": "tokenURIPrefix",
          "type": "string"
        }
      ],
      "name": "deploy",
      "outputs": [
        {
          "internalType": "address",
          "name": "addr",
          "type": "address"
        }
      ],
      "stateMutability": "nonpayable",
      "type": "function"
    }
  ],
  "bytecode": "0x608060405234801561001057600080fd5b5060405161163438038061163483398101604081905261002f91610131565b600180546001600160a01b0319166001600160a01b038316179055610055600033610085565b61007f7fa49807205ce4d355092ef5a8a18f56e8913cf4a201fbe287825b095693c2177533610085565b50610161565b61008f8282610093565b5050565b6000828152602081815260408083206001600160a01b038516845290915290205460ff1661008f576000828152602081815260408083206001600160a01b03851684529091529020805460ff191660011790556100ed3390565b6001600160a01b0316816001600160a01b0316837f2f8788117e7eff1d82e926ec794901d17c78024a50270940304540a733656f0d60405160405180910390a45050565b60006020828403121561014357600080fd5b81516001600160a01b038116811461015a57600080fd5b9392505050565b6114c4806101706000396000f3fe60806040523480156200001157600080fd5b5060043610620000ab5760003560e01c806375b238fc116200006e57806375b238fc146200016e57806391d148541462000196578063a217fddf14620001ad578063bf3c7c9514620001b6578063d547741f14620001cd57600080fd5b806301ffc9a714620000b0578063248a9ca314620000dc5780632f2ff15d146200011157806336568abe146200012a57806359659e901462000141575b600080fd5b620000c7620000c1366004620007dd565b620001e4565b60405190151581526020015b60405180910390f35b62000102620000ed36600462000809565b60009081526020819052604090206001015490565b604051908152602001620000d3565b620001286200012236600462000823565b6200021c565b005b620001286200013b36600462000823565b6200024a565b60015462000155906001600160a01b031681565b6040516001600160a01b039091168152602001620000d3565b620001027fa49807205ce4d355092ef5a8a18f56e8913cf4a201fbe287825b095693c2177581565b620000c7620001a736600462000823565b620002d0565b62000102600081565b62000155620001c73660046200090c565b620002f9565b62000128620001de36600462000823565b6200046f565b60006001600160e01b03198216637965db0b60e01b14806200021657506301ffc9a760e01b6001600160e01b03198316145b92915050565b600082815260208190526040902060010154620002398162000498565b620002458383620004a7565b505050565b6001600160a01b0381163314620002c05760405162461bcd60e51b815260206004820152602f60248201527f416363657373436f6e74726f6c3a2063616e206f6e6c792072656e6f756e636560448201526e103937b632b9903337b91039b2b63360891b60648201526084015b60405180910390fd5b620002cc82826200052f565b5050565b6000918252602082815260408084206001600160a01b0393909316845291905290205460ff1690565b60007fa49807205ce4d355092ef5a8a18f56e8913cf4a201fbe287825b095693c21775620003278162000498565b6001546040516000916001600160a01b03169063266c45bb60e11b9062000355908990899060240162000a09565b60408051601f198184030181529181526020820180516001600160e01b03166001600160e01b03199094169390931790925290516200039490620007cf565b620003a192919062000a3b565b604051809103906000f080158015620003be573d6000803e3d6000fd5b5060405163f2fde38b60e01b815233600482015290935083915081906001600160a01b0382169063f2fde38b90602401600060405180830381600087803b1580156200040957600080fd5b505af11580156200041e573d6000803e3d6000fd5b5050604080513381526001600160a01b03881660208201527f09e48df7857bd0c1e0d31bb8a85d42cf1874817895f171c917f6ee2cea73ec20935001905060405180910390a1505050949350505050565b6000828152602081905260409020600101546200048c8162000498565b6200024583836200052f565b620004a4813362000597565b50565b620004b38282620002d0565b620002cc576000828152602081815260408083206001600160a01b03851684529091529020805460ff19166001179055620004eb3390565b6001600160a01b0316816001600160a01b0316837f2f8788117e7eff1d82e926ec794901d17c78024a50270940304540a733656f0d60405160405180910390a45050565b6200053b8282620002d0565b15620002cc576000828152602081815260408083206001600160a01b0385168085529252808320805460ff1916905551339285917ff6391f5c32d9c69d2a47ea670b442974b53935d1edc7fd64eb21e047a839171b9190a45050565b620005a38282620002d0565b620002cc57620005b381620005fb565b620005c08360206200060e565b604051602001620005d392919062000a69565b60408051601f198184030181529082905262461bcd60e51b8252620002b79160040162000ae2565b6060620002166001600160a01b03831660145b606060006200061f83600262000b0d565b6200062c90600262000b2f565b67ffffffffffffffff81111562000647576200064762000861565b6040519080825280601f01601f19166020018201604052801562000672576020820181803683370190505b509050600360fc1b8160008151811062000690576200069062000b4a565b60200101906001600160f81b031916908160001a905350600f60fb1b81600181518110620006c257620006c262000b4a565b60200101906001600160f81b031916908160001a9053506000620006e884600262000b0d565b620006f590600162000b2f565b90505b600181111562000777576f181899199a1a9b1b9c1cb0b131b232b360811b85600f16601081106200072d576200072d62000b4a565b1a60f81b82828151811062000746576200074662000b4a565b60200101906001600160f81b031916908160001a90535060049490941c936200076f8162000b60565b9050620006f8565b508315620007c85760405162461bcd60e51b815260206004820181905260248201527f537472696e67733a20686578206c656e67746820696e73756666696369656e746044820152606401620002b7565b9392505050565b6109148062000b7b83390190565b600060208284031215620007f057600080fd5b81356001600160e01b031981168114620007c857600080fd5b6000602082840312156200081c57600080fd5b5035919050565b600080604083850312156200083757600080fd5b8235915060208301356001600160a01b03811681146200085657600080fd5b809150509250929050565b634e487b7160e01b600052604160045260246000fd5b600082601f8301126200088957600080fd5b813567ffffffffffffffff80821115620008a757620008a762000861565b604051601f8301601f19908116603f01168101908282118183101715620008d257620008d262000861565b81604052838152866020858801011115620008ec57600080fd5b836020870160208301376000602085830101528094505050505092915050565b600080600080608085870312156200092357600080fd5b84359350602085013567ffffffffffffffff808211156200094357600080fd5b620009518883890162000877565b945060408701359150808211156200096857600080fd5b620009768883890162000877565b935060608701359150808211156200098d57600080fd5b506200099c8782880162000877565b91505092959194509250565b60005b83811015620009c5578181015183820152602001620009ab565b83811115620009d5576000848401525b50505050565b60008151808452620009f5816020860160208601620009a8565b601f01601f19169290920160200192915050565b60408152600062000a1e6040830185620009db565b828103602084015262000a328185620009db565b95945050505050565b6001600160a01b038316815260406020820181905260009062000a6190830184620009db565b949350505050565b7f416363657373436f6e74726f6c3a206163636f756e742000000000000000000081526000835162000aa3816017850160208801620009a8565b7001034b99036b4b9b9b4b733903937b6329607d1b601791840191820152835162000ad6816028840160208801620009a8565b01602801949350505050565b602081526000620007c86020830184620009db565b634e487b7160e01b600052601160045260246000fd5b600081600019048311821515161562000b2a5762000b2a62000af7565b500290565b6000821982111562000b455762000b4562000af7565b500190565b634e487b7160e01b600052603260045260246000fd5b60008162000b725762000b7262000af7565b50600019019056fe608060405260405161091438038061091483398101604081905261002291610463565b61002e82826000610035565b505061058d565b61003e83610100565b6040516001600160a01b038416907f1cf3b03a6cf19fa2baba4df148e9dcabedea7f8a5c07840e207e5c089be95d3e90600090a260008251118061007f5750805b156100fb576100f9836001600160a01b0316635c60da1b6040518163ffffffff1660e01b8152600401602060405180830381865afa1580156100c5573d6000803e3d6000fd5b505050506040513d601f19601f820116820180604052508101906100e99190610523565b836102a360201b6100291760201c565b505b505050565b610113816102cf60201b6100551760201c565b6101725760405162461bcd60e51b815260206004820152602560248201527f455243313936373a206e657720626561636f6e206973206e6f74206120636f6e6044820152641d1c9858dd60da1b60648201526084015b60405180910390fd5b6101e6816001600160a01b0316635c60da1b6040518163ffffffff1660e01b8152600401602060405180830381865afa1580156101b3573d6000803e3d6000fd5b505050506040513d601f19601f820116820180604052508101906101d79190610523565b6102cf60201b6100551760201c565b61024b5760405162461bcd60e51b815260206004820152603060248201527f455243313936373a20626561636f6e20696d706c656d656e746174696f6e206960448201526f1cc81b9bdd08184818dbdb9d1c9858dd60821b6064820152608401610169565b806102827fa3f0ad74e5423aebfd80d3ef4346578335a9a72aeaee59ff6cb3582b35133d5060001b6102de60201b6100641760201c565b80546001600160a01b0319166001600160a01b039290921691909117905550565b60606102c883836040518060600160405280602781526020016108ed602791396102e1565b9392505050565b6001600160a01b03163b151590565b90565b6060600080856001600160a01b0316856040516102fe919061053e565b600060405180830381855af49150503d8060008114610339576040519150601f19603f3d011682016040523d82523d6000602084013e61033e565b606091505b5090925090506103508683838761035a565b9695505050505050565b606083156103c95782516000036103c2576001600160a01b0385163b6103c25760405162461bcd60e51b815260206004820152601d60248201527f416464726573733a2063616c6c20746f206e6f6e2d636f6e74726163740000006044820152606401610169565b50816103d3565b6103d383836103db565b949350505050565b8151156103eb5781518083602001fd5b8060405162461bcd60e51b8152600401610169919061055a565b80516001600160a01b038116811461041c57600080fd5b919050565b634e487b7160e01b600052604160045260246000fd5b60005b8381101561045257818101518382015260200161043a565b838111156100f95750506000910152565b6000806040838503121561047657600080fd5b61047f83610405565b60208401519092506001600160401b038082111561049c57600080fd5b818501915085601f8301126104b057600080fd5b8151818111156104c2576104c2610421565b604051601f8201601f19908116603f011681019083821181831017156104ea576104ea610421565b8160405282815288602084870101111561050357600080fd5b610514836020830160208801610437565b80955050505050509250929050565b60006020828403121561053557600080fd5b6102c882610405565b60008251610550818460208701610437565b9190910192915050565b6020815260008251806020840152610579816040850160208701610437565b601f01601f19169190910160400192915050565b6103518061059c6000396000f3fe60806040523661001357610011610017565b005b6100115b610027610022610067565b610100565b565b606061004e83836040518060600160405280602781526020016102f560279139610124565b9392505050565b6001600160a01b03163b151590565b90565b600061009a7fa3f0ad74e5423aebfd80d3ef4346578335a9a72aeaee59ff6cb3582b35133d50546001600160a01b031690565b6001600160a01b0316635c60da1b6040518163ffffffff1660e01b8152600401602060405180830381865afa1580156100d7573d6000803e3d6000fd5b505050506040513d601f19601f820116820180604052508101906100fb919061024c565b905090565b3660008037600080366000845af43d6000803e80801561011f573d6000f35b3d6000fd5b6060600080856001600160a01b03168560405161014191906102a5565b600060405180830381855af49150503d806000811461017c576040519150601f19603f3d011682016040523d82523d6000602084013e610181565b606091505b50915091506101928683838761019c565b9695505050505050565b60608315610210578251600003610209576001600160a01b0385163b6102095760405162461bcd60e51b815260206004820152601d60248201527f416464726573733a2063616c6c20746f206e6f6e2d636f6e747261637400000060448201526064015b60405180910390fd5b508161021a565b61021a8383610222565b949350505050565b8151156102325781518083602001fd5b8060405162461bcd60e51b815260040161020091906102c1565b60006020828403121561025e57600080fd5b81516001600160a01b038116811461004e57600080fd5b60005b83811015610290578181015183820152602001610278565b8381111561029f576000848401525b50505050565b600082516102b7818460208701610275565b9190910192915050565b60208152600082518060208401526102e0816040850160208701610275565b601f01601f1916919091016040019291505056fe416464726573733a206c6f772d6c6576656c2064656c65676174652063616c6c206661696c6564a264697066735822122019de7c6e19cf313e776de717a5f91964e34853b5fe320c0098f53534f25ef9d364736f6c634300080e0033416464726573733a206c6f772d6c6576656c2064656c65676174652063616c6c206661696c6564a26469706673582212208a66d519f103fe9b2f072187730adbe32e3038d68c06ae3e970c91a17253c15e64736f6c634300080e0033",
  "immutableReferences": {},
  "source": "// SPDX-License-Identifier: UNLICENSED\r\npragma solidity ^0.8.0;\r\n\r\nimport \"./OwnCollection721.sol\";\r\nimport \"@openzeppelin/contracts/access/AccessControl.sol\";\r\nimport \"@openzeppelin/contracts/proxy/beacon/BeaconProxy.sol\";\r\n\r\ncontract Factory721 is AccessControl {\r\n    address public beacon;\r\n\r\n    // Create a new role identifier for the minter role\r\n    bytes32 public constant ADMIN_ROLE = keccak256(\"ADMIN_ROLE\");\r\n\r\n    event Deployed(address owner, address contractAddress);\r\n\r\n    constructor(address _beacon) {\r\n        beacon = _beacon;\r\n        _setupRole(DEFAULT_ADMIN_ROLE, msg.sender);\r\n        _setupRole(ADMIN_ROLE, msg.sender);\r\n    }\r\n\r\n    function deploy(\r\n        bytes32 _salt,\r\n        string memory name,\r\n        string memory symbol,\r\n        string memory tokenURIPrefix\r\n    ) external onlyRole(ADMIN_ROLE) returns (address addr) {\r\n        BeaconProxy beaconProxy = new BeaconProxy(\r\n                    beacon,\r\n                    abi.encodeWithSelector(\r\n                        NFTMarketplace(address(0)).initialize.selector,\r\n                        name,\r\n                        symbol\r\n                    )\r\n                );\r\n        addr = address(beaconProxy);\r\n        NFTMarketplace token = NFTMarketplace(addr);\r\n        token.transferOwnership(msg.sender);\r\n        emit Deployed(msg.sender, addr);\r\n    }\r\n\r\n}\r\n",
  "sourcePath": "C:\\Users\\Yash\\Desktop\\Temporary\\Github\\marketplace\\src\\contracts\\Factory721.sol",
  "compiler": {
    "name": "solc",
    "version": "0.8.14+commit.80d49f37.Emscripten.clang"
  },
  "schemaVersion": "3.4.13",
  "updatedAt": "2023-08-10T13:39:04.881Z",
  "devdoc": {
    "kind": "dev",
    "methods": {
      "getRoleAdmin(bytes32)": {
        "details": "Returns the admin role that controls `role`. See {grantRole} and {revokeRole}. To change a role's admin, use {_setRoleAdmin}."
      },
      "grantRole(bytes32,address)": {
        "details": "Grants `role` to `account`. If `account` had not been already granted `role`, emits a {RoleGranted} event. Requirements: - the caller must have ``role``'s admin role. May emit a {RoleGranted} event."
      },
      "hasRole(bytes32,address)": {
        "details": "Returns `true` if `account` has been granted `role`."
      },
      "renounceRole(bytes32,address)": {
        "details": "Revokes `role` from the calling account. Roles are often managed via {grantRole} and {revokeRole}: this function's purpose is to provide a mechanism for accounts to lose their privileges if they are compromised (such as when a trusted device is misplaced). If the calling account had been revoked `role`, emits a {RoleRevoked} event. Requirements: - the caller must be `account`. May emit a {RoleRevoked} event."
      },
      "revokeRole(bytes32,address)": {
        "details": "Revokes `role` from `account`. If `account` had been granted `role`, emits a {RoleRevoked} event. Requirements: - the caller must have ``role``'s admin role. May emit a {RoleRevoked} event."
      },
      "supportsInterface(bytes4)": {
        "details": "See {IERC165-supportsInterface}."
      }
    },
    "version": 1
  },
  "userdoc": {
    "kind": "user",
    "methods": {},
    "version": 1
  }
}