{
  "contractName": "Factory721",
  "abi": [
    {
      "inputs": [],
      "stateMutability": "nonpayable",
      "type": "constructor"
    },
    {
      "anonymous": false,
      "inputs": [
        {
          "indexed": false,
          "internalType": "address",
          "name": "owner",
          "type": "address"
        },
        {
          "indexed": false,
          "internalType": "address",
          "name": "contractAddress",
          "type": "address"
        }
      ],
      "name": "Deployed",
      "type": "event"
    },
    {
      "anonymous": false,
      "inputs": [
        {
          "indexed": true,
          "internalType": "bytes32",
          "name": "role",
          "type": "bytes32"
        },
        {
          "indexed": true,
          "internalType": "bytes32",
          "name": "previousAdminRole",
          "type": "bytes32"
        },
        {
          "indexed": true,
          "internalType": "bytes32",
          "name": "newAdminRole",
          "type": "bytes32"
        }
      ],
      "name": "RoleAdminChanged",
      "type": "event"
    },
    {
      "anonymous": false,
      "inputs": [
        {
          "indexed": true,
          "internalType": "bytes32",
          "name": "role",
          "type": "bytes32"
        },
        {
          "indexed": true,
          "internalType": "address",
          "name": "account",
          "type": "address"
        },
        {
          "indexed": true,
          "internalType": "address",
          "name": "sender",
          "type": "address"
        }
      ],
      "name": "RoleGranted",
      "type": "event"
    },
    {
      "anonymous": false,
      "inputs": [
        {
          "indexed": true,
          "internalType": "bytes32",
          "name": "role",
          "type": "bytes32"
        },
        {
          "indexed": true,
          "internalType": "address",
          "name": "account",
          "type": "address"
        },
        {
          "indexed": true,
          "internalType": "address",
          "name": "sender",
          "type": "address"
        }
      ],
      "name": "RoleRevoked",
      "type": "event"
    },
    {
      "inputs": [],
      "name": "ADMIN_ROLE",
      "outputs": [
        {
          "internalType": "bytes32",
          "name": "",
          "type": "bytes32"
        }
      ],
      "stateMutability": "view",
      "type": "function"
    },
    {
      "inputs": [],
      "name": "DEFAULT_ADMIN_ROLE",
      "outputs": [
        {
          "internalType": "bytes32",
          "name": "",
          "type": "bytes32"
        }
      ],
      "stateMutability": "view",
      "type": "function"
    },
    {
      "inputs": [
        {
          "internalType": "bytes32",
          "name": "role",
          "type": "bytes32"
        }
      ],
      "name": "getRoleAdmin",
      "outputs": [
        {
          "internalType": "bytes32",
          "name": "",
          "type": "bytes32"
        }
      ],
      "stateMutability": "view",
      "type": "function"
    },
    {
      "inputs": [
        {
          "internalType": "bytes32",
          "name": "role",
          "type": "bytes32"
        },
        {
          "internalType": "address",
          "name": "account",
          "type": "address"
        }
      ],
      "name": "grantRole",
      "outputs": [],
      "stateMutability": "nonpayable",
      "type": "function"
    },
    {
      "inputs": [
        {
          "internalType": "bytes32",
          "name": "role",
          "type": "bytes32"
        },
        {
          "internalType": "address",
          "name": "account",
          "type": "address"
        }
      ],
      "name": "hasRole",
      "outputs": [
        {
          "internalType": "bool",
          "name": "",
          "type": "bool"
        }
      ],
      "stateMutability": "view",
      "type": "function"
    },
    {
      "inputs": [
        {
          "internalType": "bytes32",
          "name": "role",
          "type": "bytes32"
        },
        {
          "internalType": "address",
          "name": "account",
          "type": "address"
        }
      ],
      "name": "renounceRole",
      "outputs": [],
      "stateMutability": "nonpayable",
      "type": "function"
    },
    {
      "inputs": [
        {
          "internalType": "bytes32",
          "name": "role",
          "type": "bytes32"
        },
        {
          "internalType": "address",
          "name": "account",
          "type": "address"
        }
      ],
      "name": "revokeRole",
      "outputs": [],
      "stateMutability": "nonpayable",
      "type": "function"
    },
    {
      "inputs": [
        {
          "internalType": "bytes4",
          "name": "interfaceId",
          "type": "bytes4"
        }
      ],
      "name": "supportsInterface",
      "outputs": [
        {
          "internalType": "bool",
          "name": "",
          "type": "bool"
        }
      ],
      "stateMutability": "view",
      "type": "function"
    },
    {
      "inputs": [
        {
          "internalType": "bytes32",
          "name": "_salt",
          "type": "bytes32"
        },
        {
          "internalType": "string",
          "name": "name",
          "type": "string"
        },
        {
          "internalType": "string",
          "name": "symbol",
          "type": "string"
        },
        {
          "internalType": "string",
          "name": "tokenURIPrefix",
          "type": "string"
        }
      ],
      "name": "deploy",
      "outputs": [
        {
          "internalType": "address",
          "name": "addr",
          "type": "address"
        }
      ],
      "stateMutability": "nonpayable",
      "type": "function"
    }
  ],
  "bytecode": "0x608060405234801561001057600080fd5b5061001c60003361004b565b6100467fa49807205ce4d355092ef5a8a18f56e8913cf4a201fbe287825b095693c217753361004b565b6100f7565b6100558282610059565b5050565b6000828152602081815260408083206001600160a01b038516845290915290205460ff16610055576000828152602081815260408083206001600160a01b03851684529091529020805460ff191660011790556100b33390565b6001600160a01b0316816001600160a01b0316837f2f8788117e7eff1d82e926ec794901d17c78024a50270940304540a733656f0d60405160405180910390a45050565b612946806101066000396000f3fe60806040523480156200001157600080fd5b50600436106200009f5760003560e01c806375b238fc116200006e57806375b238fc146200013557806391d14854146200015d578063a217fddf1462000174578063bf3c7c95146200017d578063d547741f14620001ad57600080fd5b806301ffc9a714620000a4578063248a9ca314620000d05780632f2ff15d146200010557806336568abe146200011e575b600080fd5b620000bb620000b536600462000761565b620001c4565b60405190151581526020015b60405180910390f35b620000f6620000e13660046200078d565b60009081526020819052604090206001015490565b604051908152602001620000c7565b6200011c62000116366004620007a7565b620001fc565b005b6200011c6200012f366004620007a7565b6200022a565b620000f67fa49807205ce4d355092ef5a8a18f56e8913cf4a201fbe287825b095693c2177581565b620000bb6200016e366004620007a7565b620002b0565b620000f6600081565b620001946200018e36600462000890565b620002d9565b6040516001600160a01b039091168152602001620000c7565b6200011c620001be366004620007a7565b620003f3565b60006001600160e01b03198216637965db0b60e01b1480620001f657506301ffc9a760e01b6001600160e01b03198316145b92915050565b60008281526020819052604090206001015462000219816200041c565b6200022583836200042b565b505050565b6001600160a01b0381163314620002a05760405162461bcd60e51b815260206004820152602f60248201527f416363657373436f6e74726f6c3a2063616e206f6e6c792072656e6f756e636560448201526e103937b632b9903337b91039b2b63360891b60648201526084015b60405180910390fd5b620002ac8282620004b3565b5050565b6000918252602082815260408084206001600160a01b0393909316845291905290205460ff1690565b60007fa49807205ce4d355092ef5a8a18f56e8913cf4a201fbe287825b095693c2177562000307816200041c565b858585604051620003189062000753565b620003259291906200098d565b8190604051809103906000f590508015801562000346573d6000803e3d6000fd5b5060405163f2fde38b60e01b815233600482015290925082906001600160a01b0382169063f2fde38b90602401600060405180830381600087803b1580156200038e57600080fd5b505af1158015620003a3573d6000803e3d6000fd5b5050604080513381526001600160a01b03871660208201527f09e48df7857bd0c1e0d31bb8a85d42cf1874817895f171c917f6ee2cea73ec20935001905060405180910390a15050949350505050565b60008281526020819052604090206001015462000410816200041c565b620002258383620004b3565b6200042881336200051b565b50565b620004378282620002b0565b620002ac576000828152602081815260408083206001600160a01b03851684529091529020805460ff191660011790556200046f3390565b6001600160a01b0316816001600160a01b0316837f2f8788117e7eff1d82e926ec794901d17c78024a50270940304540a733656f0d60405160405180910390a45050565b620004bf8282620002b0565b15620002ac576000828152602081815260408083206001600160a01b0385168085529252808320805460ff1916905551339285917ff6391f5c32d9c69d2a47ea670b442974b53935d1edc7fd64eb21e047a839171b9190a45050565b620005278282620002b0565b620002ac5762000537816200057f565b6200054483602062000592565b60405160200162000557929190620009bf565b60408051601f198184030181529082905262461bcd60e51b8252620002979160040162000a38565b6060620001f66001600160a01b03831660145b60606000620005a383600262000a63565b620005b090600262000a85565b67ffffffffffffffff811115620005cb57620005cb620007e5565b6040519080825280601f01601f191660200182016040528015620005f6576020820181803683370190505b509050600360fc1b8160008151811062000614576200061462000aa0565b60200101906001600160f81b031916908160001a905350600f60fb1b8160018151811062000646576200064662000aa0565b60200101906001600160f81b031916908160001a90535060006200066c84600262000a63565b6200067990600162000a85565b90505b6001811115620006fb576f181899199a1a9b1b9c1cb0b131b232b360811b85600f1660108110620006b157620006b162000aa0565b1a60f81b828281518110620006ca57620006ca62000aa0565b60200101906001600160f81b031916908160001a90535060049490941c93620006f38162000ab6565b90506200067c565b5083156200074c5760405162461bcd60e51b815260206004820181905260248201527f537472696e67733a20686578206c656e67746820696e73756666696369656e74604482015260640162000297565b9392505050565b611e408062000ad183390190565b6000602082840312156200077457600080fd5b81356001600160e01b0319811681146200074c57600080fd5b600060208284031215620007a057600080fd5b5035919050565b60008060408385031215620007bb57600080fd5b8235915060208301356001600160a01b0381168114620007da57600080fd5b809150509250929050565b634e487b7160e01b600052604160045260246000fd5b600082601f8301126200080d57600080fd5b813567ffffffffffffffff808211156200082b576200082b620007e5565b604051601f8301601f19908116603f01168101908282118183101715620008565762000856620007e5565b816040528381528660208588010111156200087057600080fd5b836020870160208301376000602085830101528094505050505092915050565b60008060008060808587031215620008a757600080fd5b84359350602085013567ffffffffffffffff80821115620008c757600080fd5b620008d588838901620007fb565b94506040870135915080821115620008ec57600080fd5b620008fa88838901620007fb565b935060608701359150808211156200091157600080fd5b506200092087828801620007fb565b91505092959194509250565b60005b83811015620009495781810151838201526020016200092f565b8381111562000959576000848401525b50505050565b60008151808452620009798160208601602086016200092c565b601f01601f19169290920160200192915050565b604081526000620009a260408301856200095f565b8281036020840152620009b681856200095f565b95945050505050565b7f416363657373436f6e74726f6c3a206163636f756e7420000000000000000000815260008351620009f98160178501602088016200092c565b7001034b99036b4b9b9b4b733903937b6329607d1b601791840191820152835162000a2c8160288401602088016200092c565b01602801949350505050565b6020815260006200074c60208301846200095f565b634e487b7160e01b600052601160045260246000fd5b600081600019048311821515161562000a805762000a8062000a4d565b500290565b6000821982111562000a9b5762000a9b62000a4d565b500190565b634e487b7160e01b600052603260045260246000fd5b60008162000ac85762000ac862000a4d565b50600019019056fe6080604052662386f26fc10000600a553480156200001c57600080fd5b5060405162001e4038038062001e408339810160408190526200003f91620001ff565b815182908290620000589060009060208501906200008c565b5080516200006e9060019060208401906200008c565b5050600980546001600160a01b0319163317905550620002a5915050565b8280546200009a9062000269565b90600052602060002090601f016020900481019282620000be576000855562000109565b82601f10620000d957805160ff191683800117855562000109565b8280016001018555821562000109579182015b8281111562000109578251825591602001919060010190620000ec565b50620001179291506200011b565b5090565b5b808211156200011757600081556001016200011c565b634e487b7160e01b600052604160045260246000fd5b600082601f8301126200015a57600080fd5b81516001600160401b038082111562000177576200017762000132565b604051601f8301601f19908116603f01168101908282118183101715620001a257620001a262000132565b81604052838152602092508683858801011115620001bf57600080fd5b600091505b83821015620001e35785820183015181830184015290820190620001c4565b83821115620001f55760008385830101525b9695505050505050565b600080604083850312156200021357600080fd5b82516001600160401b03808211156200022b57600080fd5b620002398683870162000148565b935060208501519150808211156200025057600080fd5b506200025f8582860162000148565b9150509250929050565b600181811c908216806200027e57607f821691505b6020821081036200029f57634e487b7160e01b600052602260045260246000fd5b50919050565b611b8b80620002b56000396000f3fe6080604052600436106101355760003560e01c806372b3b620116100ab578063c322579c1161006f578063c322579c1461042a578063c87b56dd1461043d578063d1a88ae51461045d578063e985e9c514610472578063ef2d1746146104bb578063f2fde38b146104d057600080fd5b806372b3b620146102c05780638e264590146102e057806395d89b41146103d5578063a22cb465146103ea578063b88d4fde1461040a57600080fd5b806342842e0e116100fd57806342842e0e1461020b57806342966c681461022b5780636352211e1461024b57806368f1945f1461026b5780636eb588d91461028a57806370a08231146102a057600080fd5b806301ffc9a71461013a57806306fdde031461016f578063081812fc14610191578063095ea7b3146101c957806323b872dd146101eb575b600080fd5b34801561014657600080fd5b5061015a610155366004611669565b6104f0565b60405190151581526020015b60405180910390f35b34801561017b57600080fd5b50610184610542565b60405161016691906116de565b34801561019d57600080fd5b506101b16101ac3660046116f1565b6105d4565b6040516001600160a01b039091168152602001610166565b3480156101d557600080fd5b506101e96101e4366004611726565b6105fb565b005b3480156101f757600080fd5b506101e9610206366004611750565b610715565b34801561021757600080fd5b506101e9610226366004611750565b610747565b34801561023757600080fd5b506101e96102463660046116f1565b610762565b34801561025757600080fd5b506101b16102663660046116f1565b610793565b34801561027757600080fd5b50600a545b604051908152602001610166565b34801561029657600080fd5b5061027c600a5481565b3480156102ac57600080fd5b5061027c6102bb36600461178c565b6107f3565b3480156102cc57600080fd5b5061027c6102db366004611833565b610879565b3480156102ec57600080fd5b506103886102fb3660046116f1565b6040805160a081018252600080825260208201819052918101829052606081018290526080810191909152506000908152600b6020908152604091829020825160a0810184528154815260018201546001600160a01b03908116938201939093526002820154909216928201929092526003820154606082015260049091015460ff161515608082015290565b60408051825181526020808401516001600160a01b03908116918301919091528383015116918101919091526060808301519082015260809182015115159181019190915260a001610166565b3480156103e157600080fd5b506101846108dc565b3480156103f657600080fd5b506101e961040536600461188c565b6108eb565b34801561041657600080fd5b506101e96104253660046118c8565b6108fa565b6101e96104383660046116f1565b610932565b34801561044957600080fd5b506101846104583660046116f1565b610961565b34801561046957600080fd5b5061038861096c565b34801561047e57600080fd5b5061015a61048d366004611944565b6001600160a01b03918216600090815260056020908152604080832093909416825291909152205460ff1690565b3480156104c757600080fd5b5061027c610a06565b3480156104dc57600080fd5b506101e96104eb36600461178c565b610a16565b60006001600160e01b031982166380ac58cd60e01b148061052157506001600160e01b03198216635b5e139f60e01b145b8061053c57506301ffc9a760e01b6001600160e01b03198316145b92915050565b60606000805461055190611977565b80601f016020809104026020016040519081016040528092919081815260200182805461057d90611977565b80156105ca5780601f1061059f576101008083540402835291602001916105ca565b820191906000526020600020905b8154815290600101906020018083116105ad57829003601f168201915b5050505050905090565b60006105df82610a9c565b506000908152600460205260409020546001600160a01b031690565b600061060682610793565b9050806001600160a01b0316836001600160a01b0316036106785760405162461bcd60e51b815260206004820152602160248201527f4552433732313a20617070726f76616c20746f2063757272656e74206f776e656044820152603960f91b60648201526084015b60405180910390fd5b336001600160a01b03821614806106945750610694813361048d565b6107065760405162461bcd60e51b815260206004820152603d60248201527f4552433732313a20617070726f76652063616c6c6572206973206e6f7420746f60448201527f6b656e206f776e6572206f7220617070726f76656420666f7220616c6c000000606482015260840161066f565b6107108383610afb565b505050565b610720335b82610b69565b61073c5760405162461bcd60e51b815260040161066f906119b1565b610710838383610be8565b610710838383604051806020016040528060008152506108fa565b61076b3361071a565b6107875760405162461bcd60e51b815260040161066f906119b1565b61079081610d4c565b50565b6000818152600260205260408120546001600160a01b03168061053c5760405162461bcd60e51b8152602060048201526018602482015277115490cdcc8c4e881a5b9d985b1a59081d1bdad95b88125160421b604482015260640161066f565b60006001600160a01b03821661085d5760405162461bcd60e51b815260206004820152602960248201527f4552433732313a2061646472657373207a65726f206973206e6f7420612076616044820152683634b21037bbb732b960b91b606482015260840161066f565b506001600160a01b031660009081526003602052604090205490565b6009546000906001600160a01b031633146108a65760405162461bcd60e51b815260040161066f906119fe565b6108b4600780546001019055565b60006108bf60075490565b90506108cb3382610d55565b6108d58185610d6f565b9392505050565b60606001805461055190611977565b6108f6338383610e09565b5050565b6109043383610b69565b6109205760405162461bcd60e51b815260040161066f906119b1565b61092c84848484610ed7565b50505050565b6009546001600160a01b0316331461095c5760405162461bcd60e51b815260040161066f906119fe565b600a55565b606061053c82610f0a565b6040805160a08101825260008082526020820181905291810182905260608101829052608081019190915260006109a260075490565b6000908152600b6020908152604091829020825160a0810184528154815260018201546001600160a01b03908116938201939093526002820154909216928201929092526003820154606082015260049091015460ff161515608082015292915050565b6000610a1160075490565b905090565b6009546001600160a01b03163314610a405760405162461bcd60e51b815260040161066f906119fe565b6009546040516001600160a01b038084169216907f8be0079c531659141344cd1fd0a4f28419497f9722a3daafe3b4186f6b6457e090600090a3600980546001600160a01b0319166001600160a01b0392909216919091179055565b6000818152600260205260409020546001600160a01b03166107905760405162461bcd60e51b8152602060048201526018602482015277115490cdcc8c4e881a5b9d985b1a59081d1bdad95b88125160421b604482015260640161066f565b600081815260046020526040902080546001600160a01b0319166001600160a01b0384169081179091558190610b3082610793565b6001600160a01b03167f8c5be1e5ebec7d5bd14f71427d1e84f3dd0314c0f7b2291e5b200ac8c7c3b92560405160405180910390a45050565b600080610b7583610793565b9050806001600160a01b0316846001600160a01b03161480610bbc57506001600160a01b0380821660009081526005602090815260408083209388168352929052205460ff165b80610be05750836001600160a01b0316610bd5846105d4565b6001600160a01b0316145b949350505050565b826001600160a01b0316610bfb82610793565b6001600160a01b031614610c215760405162461bcd60e51b815260040161066f90611a35565b6001600160a01b038216610c835760405162461bcd60e51b8152602060048201526024808201527f4552433732313a207472616e7366657220746f20746865207a65726f206164646044820152637265737360e01b606482015260840161066f565b826001600160a01b0316610c9682610793565b6001600160a01b031614610cbc5760405162461bcd60e51b815260040161066f90611a35565b600081815260046020908152604080832080546001600160a01b03199081169091556001600160a01b0387811680865260038552838620805460001901905590871680865283862080546001019055868652600290945282852080549092168417909155905184937fddf252ad1be2c89b69c2b068fc378daa952ba7f163c4a11628f55a4df523b3ef91a4505050565b61079081611012565b6108f6828260405180602001604052806000815250611052565b6000828152600260205260409020546001600160a01b0316610dea5760405162461bcd60e51b815260206004820152602e60248201527f45524337323155524953746f726167653a2055524920736574206f66206e6f6e60448201526d32bc34b9ba32b73a103a37b5b2b760911b606482015260840161066f565b6000828152600660209081526040909120825161071092840190611584565b816001600160a01b0316836001600160a01b031603610e6a5760405162461bcd60e51b815260206004820152601960248201527f4552433732313a20617070726f766520746f2063616c6c657200000000000000604482015260640161066f565b6001600160a01b03838116600081815260056020908152604080832094871680845294825291829020805460ff191686151590811790915591519182527f17307eab39ab6107e8899845ad3d59bd9653f200f220920489ca2b5937696c31910160405180910390a3505050565b610ee2848484610be8565b610eee84848484611085565b61092c5760405162461bcd60e51b815260040161066f90611a7a565b6060610f1582610a9c565b60008281526006602052604081208054610f2e90611977565b80601f0160208091040260200160405190810160405280929190818152602001828054610f5a90611977565b8015610fa75780601f10610f7c57610100808354040283529160200191610fa7565b820191906000526020600020905b815481529060010190602001808311610f8a57829003601f168201915b505050505090506000610fc560408051602081019091526000815290565b90508051600003610fd7575092915050565b815115611009578082604051602001610ff1929190611acc565b60405160208183030381529060405292505050919050565b610be084611186565b61101b816111f9565b6000818152600660205260409020805461103490611977565b15905061079057600081815260066020526040812061079091611608565b61105c838361128e565b6110696000848484611085565b6107105760405162461bcd60e51b815260040161066f90611a7a565b60006001600160a01b0384163b1561117b57604051630a85bd0160e11b81526001600160a01b0385169063150b7a02906110c9903390899088908890600401611afb565b6020604051808303816000875af1925050508015611104575060408051601f3d908101601f1916820190925261110191810190611b38565b60015b611161573d808015611132576040519150601f19603f3d011682016040523d82523d6000602084013e611137565b606091505b5080516000036111595760405162461bcd60e51b815260040161066f90611a7a565b805181602001fd5b6001600160e01b031916630a85bd0160e11b149050610be0565b506001949350505050565b606061119182610a9c565b60006111a860408051602081019091526000815290565b905060008151116111c857604051806020016040528060008152506108d5565b806111d284611419565b6040516020016111e3929190611acc565b6040516020818303038152906040529392505050565b600061120482610793565b905061120f82610793565b600083815260046020908152604080832080546001600160a01b03199081169091556001600160a01b0385168085526003845282852080546000190190558785526002909352818420805490911690555192935084927fddf252ad1be2c89b69c2b068fc378daa952ba7f163c4a11628f55a4df523b3ef908390a45050565b6001600160a01b0382166112e45760405162461bcd60e51b815260206004820181905260248201527f4552433732313a206d696e7420746f20746865207a65726f2061646472657373604482015260640161066f565b6000818152600260205260409020546001600160a01b0316156113495760405162461bcd60e51b815260206004820152601c60248201527f4552433732313a20746f6b656e20616c7265616479206d696e74656400000000604482015260640161066f565b6000818152600260205260409020546001600160a01b0316156113ae5760405162461bcd60e51b815260206004820152601c60248201527f4552433732313a20746f6b656e20616c7265616479206d696e74656400000000604482015260640161066f565b6001600160a01b038216600081815260036020908152604080832080546001019055848352600290915280822080546001600160a01b0319168417905551839291907fddf252ad1be2c89b69c2b068fc378daa952ba7f163c4a11628f55a4df523b3ef908290a45050565b60606000611426836114ac565b600101905060008167ffffffffffffffff811115611446576114466117a7565b6040519080825280601f01601f191660200182016040528015611470576020820181803683370190505b5090508181016020015b600019016f181899199a1a9b1b9c1cb0b131b232b360811b600a86061a8153600a850494508461147a57509392505050565b60008072184f03e93ff9f4daa797ed6e38ed64bf6a1f0160401b83106114eb5772184f03e93ff9f4daa797ed6e38ed64bf6a1f0160401b830492506040015b6d04ee2d6d415b85acef81000000008310611517576d04ee2d6d415b85acef8100000000830492506020015b662386f26fc10000831061153557662386f26fc10000830492506010015b6305f5e100831061154d576305f5e100830492506008015b612710831061156157612710830492506004015b60648310611573576064830492506002015b600a831061053c5760010192915050565b82805461159090611977565b90600052602060002090601f0160209004810192826115b257600085556115f8565b82601f106115cb57805160ff19168380011785556115f8565b828001600101855582156115f8579182015b828111156115f85782518255916020019190600101906115dd565b5061160492915061163e565b5090565b50805461161490611977565b6000825580601f10611624575050565b601f01602090049060005260206000209081019061079091905b5b80821115611604576000815560010161163f565b6001600160e01b03198116811461079057600080fd5b60006020828403121561167b57600080fd5b81356108d581611653565b60005b838110156116a1578181015183820152602001611689565b8381111561092c5750506000910152565b600081518084526116ca816020860160208601611686565b601f01601f19169290920160200192915050565b6020815260006108d560208301846116b2565b60006020828403121561170357600080fd5b5035919050565b80356001600160a01b038116811461172157600080fd5b919050565b6000806040838503121561173957600080fd5b6117428361170a565b946020939093013593505050565b60008060006060848603121561176557600080fd5b61176e8461170a565b925061177c6020850161170a565b9150604084013590509250925092565b60006020828403121561179e57600080fd5b6108d58261170a565b634e487b7160e01b600052604160045260246000fd5b600067ffffffffffffffff808411156117d8576117d86117a7565b604051601f8501601f19908116603f01168101908282118183101715611800576118006117a7565b8160405280935085815286868601111561181957600080fd5b858560208301376000602087830101525050509392505050565b6000806040838503121561184657600080fd5b823567ffffffffffffffff81111561185d57600080fd5b8301601f8101851361186e57600080fd5b61187d858235602084016117bd565b95602094909401359450505050565b6000806040838503121561189f57600080fd5b6118a88361170a565b9150602083013580151581146118bd57600080fd5b809150509250929050565b600080600080608085870312156118de57600080fd5b6118e78561170a565b93506118f56020860161170a565b925060408501359150606085013567ffffffffffffffff81111561191857600080fd5b8501601f8101871361192957600080fd5b611938878235602084016117bd565b91505092959194509250565b6000806040838503121561195757600080fd5b6119608361170a565b915061196e6020840161170a565b90509250929050565b600181811c9082168061198b57607f821691505b6020821081036119ab57634e487b7160e01b600052602260045260246000fd5b50919050565b6020808252602d908201527f4552433732313a2063616c6c6572206973206e6f7420746f6b656e206f776e6560408201526c1c881bdc88185c1c1c9bdd9959609a1b606082015260800190565b6020808252601f908201527f4f6e6c79206f776e65722063616e2063616c6c2074686973206d6574686f6400604082015260600190565b60208082526025908201527f4552433732313a207472616e736665722066726f6d20696e636f72726563742060408201526437bbb732b960d91b606082015260800190565b60208082526032908201527f4552433732313a207472616e7366657220746f206e6f6e20455243373231526560408201527131b2b4bb32b91034b6b83632b6b2b73a32b960711b606082015260800190565b60008351611ade818460208801611686565b835190830190611af2818360208801611686565b01949350505050565b6001600160a01b0385811682528416602082015260408101839052608060608201819052600090611b2e908301846116b2565b9695505050505050565b600060208284031215611b4a57600080fd5b81516108d58161165356fea264697066735822122069b9d292eeb1bd7cd88b4d4bc8dc8d26b81eab12317db9f62b0813cf0fda252064736f6c634300080e0033a2646970667358221220621bb803d9ad22bd375218dce8182c2f2d16067b806f00a792154e5b9b5e586464736f6c634300080e0033",
  "immutableReferences": {},
  "source": "// SPDX-License-Identifier: UNLICENSED\r\npragma solidity 0.8.14;\r\n\r\nimport \"./OwnCollection721.sol\";\r\nimport \"@openzeppelin/contracts/access/AccessControl.sol\";\r\n\r\ncontract Factory721 is AccessControl {\r\n  event Deployed(address owner, address contractAddress);\r\n\r\n  // Create a new role identifier for the minter role\r\n  bytes32 public constant ADMIN_ROLE = keccak256(\"ADMIN_ROLE\");\r\n\r\n  constructor() {\r\n    _setupRole(DEFAULT_ADMIN_ROLE, msg.sender);\r\n    _setupRole(ADMIN_ROLE, msg.sender);\r\n  }\r\n\r\n  function deploy(\r\n    bytes32 _salt,\r\n    string memory name,\r\n    string memory symbol,\r\n    string memory tokenURIPrefix\r\n  ) external onlyRole(ADMIN_ROLE) returns (address addr) {\r\n    addr = address(new NFTMarketplace{ salt: _salt }(name, symbol));\r\n    NFTMarketplace token = NFTMarketplace(address(addr));\r\n    token.transferOwnership(msg.sender);\r\n    emit Deployed(msg.sender, addr);\r\n  }\r\n}\r\n",
  "sourcePath": "C:\\Users\\Yash\\Desktop\\Temporary\\Github\\marketplace\\src\\contracts\\Factory721.sol",
  "compiler": {
    "name": "solc",
    "version": "0.8.14+commit.80d49f37.Emscripten.clang"
  },
  "schemaVersion": "3.4.13",
  "updatedAt": "2023-05-17T11:08:45.472Z",
  "devdoc": {
    "kind": "dev",
    "methods": {
      "getRoleAdmin(bytes32)": {
        "details": "Returns the admin role that controls `role`. See {grantRole} and {revokeRole}. To change a role's admin, use {_setRoleAdmin}."
      },
      "grantRole(bytes32,address)": {
        "details": "Grants `role` to `account`. If `account` had not been already granted `role`, emits a {RoleGranted} event. Requirements: - the caller must have ``role``'s admin role. May emit a {RoleGranted} event."
      },
      "hasRole(bytes32,address)": {
        "details": "Returns `true` if `account` has been granted `role`."
      },
      "renounceRole(bytes32,address)": {
        "details": "Revokes `role` from the calling account. Roles are often managed via {grantRole} and {revokeRole}: this function's purpose is to provide a mechanism for accounts to lose their privileges if they are compromised (such as when a trusted device is misplaced). If the calling account had been revoked `role`, emits a {RoleRevoked} event. Requirements: - the caller must be `account`. May emit a {RoleRevoked} event."
      },
      "revokeRole(bytes32,address)": {
        "details": "Revokes `role` from `account`. If `account` had been granted `role`, emits a {RoleRevoked} event. Requirements: - the caller must have ``role``'s admin role. May emit a {RoleRevoked} event."
      },
      "supportsInterface(bytes4)": {
        "details": "See {IERC165-supportsInterface}."
      }
    },
    "version": 1
  },
  "userdoc": {
    "kind": "user",
    "methods": {},
    "version": 1
  }
}