{
  "contractName": "Factory721",
  "abi": [
    {
      "inputs": [
        {
          "internalType": "address",
          "name": "_beacon",
          "type": "address"
        }
      ],
      "stateMutability": "nonpayable",
      "type": "constructor"
    },
    {
      "anonymous": false,
      "inputs": [
        {
          "indexed": false,
          "internalType": "address",
          "name": "owner",
          "type": "address"
        },
        {
          "indexed": false,
          "internalType": "address",
          "name": "contractAddress",
          "type": "address"
        }
      ],
      "name": "Deployed",
      "type": "event"
    },
    {
      "anonymous": false,
      "inputs": [
        {
          "indexed": true,
          "internalType": "bytes32",
          "name": "role",
          "type": "bytes32"
        },
        {
          "indexed": true,
          "internalType": "bytes32",
          "name": "previousAdminRole",
          "type": "bytes32"
        },
        {
          "indexed": true,
          "internalType": "bytes32",
          "name": "newAdminRole",
          "type": "bytes32"
        }
      ],
      "name": "RoleAdminChanged",
      "type": "event"
    },
    {
      "anonymous": false,
      "inputs": [
        {
          "indexed": true,
          "internalType": "bytes32",
          "name": "role",
          "type": "bytes32"
        },
        {
          "indexed": true,
          "internalType": "address",
          "name": "account",
          "type": "address"
        },
        {
          "indexed": true,
          "internalType": "address",
          "name": "sender",
          "type": "address"
        }
      ],
      "name": "RoleGranted",
      "type": "event"
    },
    {
      "anonymous": false,
      "inputs": [
        {
          "indexed": true,
          "internalType": "bytes32",
          "name": "role",
          "type": "bytes32"
        },
        {
          "indexed": true,
          "internalType": "address",
          "name": "account",
          "type": "address"
        },
        {
          "indexed": true,
          "internalType": "address",
          "name": "sender",
          "type": "address"
        }
      ],
      "name": "RoleRevoked",
      "type": "event"
    },
    {
      "inputs": [],
      "name": "ADMIN_ROLE",
      "outputs": [
        {
          "internalType": "bytes32",
          "name": "",
          "type": "bytes32"
        }
      ],
      "stateMutability": "view",
      "type": "function"
    },
    {
      "inputs": [],
      "name": "DEFAULT_ADMIN_ROLE",
      "outputs": [
        {
          "internalType": "bytes32",
          "name": "",
          "type": "bytes32"
        }
      ],
      "stateMutability": "view",
      "type": "function"
    },
    {
      "inputs": [],
      "name": "beacon",
      "outputs": [
        {
          "internalType": "address",
          "name": "",
          "type": "address"
        }
      ],
      "stateMutability": "view",
      "type": "function"
    },
    {
      "inputs": [
        {
          "internalType": "bytes32",
          "name": "role",
          "type": "bytes32"
        }
      ],
      "name": "getRoleAdmin",
      "outputs": [
        {
          "internalType": "bytes32",
          "name": "",
          "type": "bytes32"
        }
      ],
      "stateMutability": "view",
      "type": "function"
    },
    {
      "inputs": [
        {
          "internalType": "bytes32",
          "name": "role",
          "type": "bytes32"
        },
        {
          "internalType": "address",
          "name": "account",
          "type": "address"
        }
      ],
      "name": "grantRole",
      "outputs": [],
      "stateMutability": "nonpayable",
      "type": "function"
    },
    {
      "inputs": [
        {
          "internalType": "bytes32",
          "name": "role",
          "type": "bytes32"
        },
        {
          "internalType": "address",
          "name": "account",
          "type": "address"
        }
      ],
      "name": "hasRole",
      "outputs": [
        {
          "internalType": "bool",
          "name": "",
          "type": "bool"
        }
      ],
      "stateMutability": "view",
      "type": "function"
    },
    {
      "inputs": [
        {
          "internalType": "bytes32",
          "name": "role",
          "type": "bytes32"
        },
        {
          "internalType": "address",
          "name": "account",
          "type": "address"
        }
      ],
      "name": "renounceRole",
      "outputs": [],
      "stateMutability": "nonpayable",
      "type": "function"
    },
    {
      "inputs": [
        {
          "internalType": "bytes32",
          "name": "role",
          "type": "bytes32"
        },
        {
          "internalType": "address",
          "name": "account",
          "type": "address"
        }
      ],
      "name": "revokeRole",
      "outputs": [],
      "stateMutability": "nonpayable",
      "type": "function"
    },
    {
      "inputs": [
        {
          "internalType": "bytes4",
          "name": "interfaceId",
          "type": "bytes4"
        }
      ],
      "name": "supportsInterface",
      "outputs": [
        {
          "internalType": "bool",
          "name": "",
          "type": "bool"
        }
      ],
      "stateMutability": "view",
      "type": "function"
    },
    {
      "inputs": [
        {
          "internalType": "bytes32",
          "name": "_salt",
          "type": "bytes32"
        },
        {
          "internalType": "string",
          "name": "name",
          "type": "string"
        },
        {
          "internalType": "string",
          "name": "symbol",
          "type": "string"
        },
        {
          "internalType": "string",
          "name": "tokenURIPrefix",
          "type": "string"
        }
      ],
      "name": "deploy",
      "outputs": [
        {
          "internalType": "address",
          "name": "addr",
          "type": "address"
        }
      ],
      "stateMutability": "nonpayable",
      "type": "function"
    }
  ],
  "bytecode": "0x608060405234801561001057600080fd5b5060405161176e38038061176e83398101604081905261002f91610131565b600180546001600160a01b0319166001600160a01b038316179055610055600033610085565b61007f7fa49807205ce4d355092ef5a8a18f56e8913cf4a201fbe287825b095693c2177533610085565b50610161565b61008f8282610093565b5050565b6000828152602081815260408083206001600160a01b038516845290915290205460ff1661008f576000828152602081815260408083206001600160a01b03851684529091529020805460ff191660011790556100ed3390565b6001600160a01b0316816001600160a01b0316837f2f8788117e7eff1d82e926ec794901d17c78024a50270940304540a733656f0d60405160405180910390a45050565b60006020828403121561014357600080fd5b81516001600160a01b038116811461015a57600080fd5b9392505050565b6115fe806101706000396000f3fe60806040523480156200001157600080fd5b5060043610620000cd5760003560e01c806375b238fc116200007f578063a217fddf1162000062578063a217fddf14620001f2578063bf3c7c9514620001fb578063d547741f146200021257600080fd5b806375b238fc146200019057806391d1485414620001b857600080fd5b80632f2ff15d11620000b45780632f2ff15d146200013357806336568abe146200014c57806359659e90146200016357600080fd5b806301ffc9a714620000d2578063248a9ca314620000fe575b600080fd5b620000e9620000e33660046200090d565b62000229565b60405190151581526020015b60405180910390f35b620001246200010f36600462000939565b60009081526020819052604090206001015490565b604051908152602001620000f5565b6200014a6200014436600462000953565b62000293565b005b6200014a6200015d36600462000953565b620002c1565b60015462000177906001600160a01b031681565b6040516001600160a01b039091168152602001620000f5565b620001247fa49807205ce4d355092ef5a8a18f56e8913cf4a201fbe287825b095693c2177581565b620000e9620001c936600462000953565b6000918252602082815260408084206001600160a01b0393909316845291905290205460ff1690565b62000124600081565b620001776200020c36600462000a3c565b62000355565b6200014a6200022336600462000953565b62000512565b60006001600160e01b031982167f7965db0b0000000000000000000000000000000000000000000000000000000014806200028d57507f01ffc9a7000000000000000000000000000000000000000000000000000000006001600160e01b03198316145b92915050565b600082815260208190526040902060010154620002b0816200053b565b620002bc83836200054a565b505050565b6001600160a01b0381163314620003455760405162461bcd60e51b815260206004820152602f60248201527f416363657373436f6e74726f6c3a2063616e206f6e6c792072656e6f756e636560448201527f20726f6c657320666f722073656c66000000000000000000000000000000000060648201526084015b60405180910390fd5b620003518282620005ea565b5050565b60007fa49807205ce4d355092ef5a8a18f56e8913cf4a201fbe287825b095693c2177562000383816200053b565b6001546040516000916001600160a01b0316907f4cd88b760000000000000000000000000000000000000000000000000000000090620003ca908990899060240162000b39565b60408051601f198184030181529181526020820180517bffffffffffffffffffffffffffffffffffffffffffffffffffffffff166001600160e01b03199094169390931790925290516200041e90620008ff565b6200042b92919062000b6b565b604051809103906000f08015801562000448573d6000803e3d6000fd5b506040517ff2fde38b00000000000000000000000000000000000000000000000000000000815233600482015290935083915081906001600160a01b0382169063f2fde38b90602401600060405180830381600087803b158015620004ac57600080fd5b505af1158015620004c1573d6000803e3d6000fd5b5050604080513381526001600160a01b03881660208201527f09e48df7857bd0c1e0d31bb8a85d42cf1874817895f171c917f6ee2cea73ec20935001905060405180910390a1505050949350505050565b6000828152602081905260409020600101546200052f816200053b565b620002bc8383620005ea565b6200054781336200066a565b50565b6000828152602081815260408083206001600160a01b038516845290915290205460ff1662000351576000828152602081815260408083206001600160a01b03851684529091529020805460ff19166001179055620005a63390565b6001600160a01b0316816001600160a01b0316837f2f8788117e7eff1d82e926ec794901d17c78024a50270940304540a733656f0d60405160405180910390a45050565b6000828152602081815260408083206001600160a01b038516845290915290205460ff161562000351576000828152602081815260408083206001600160a01b0385168085529252808320805460ff1916905551339285917ff6391f5c32d9c69d2a47ea670b442974b53935d1edc7fd64eb21e047a839171b9190a45050565b6000828152602081815260408083206001600160a01b038516845290915290205460ff1662000351576200069e81620006e6565b620006ab836020620006f9565b604051602001620006be92919062000b97565b60408051601f198184030181529082905262461bcd60e51b82526200033c9160040162000c1c565b60606200028d6001600160a01b03831660145b606060006200070a83600262000c47565b6200071790600262000c69565b67ffffffffffffffff81111562000732576200073262000991565b6040519080825280601f01601f1916602001820160405280156200075d576020820181803683370190505b5090507f30000000000000000000000000000000000000000000000000000000000000008160008151811062000797576200079762000c84565b60200101906001600160f81b031916908160001a9053507f780000000000000000000000000000000000000000000000000000000000000081600181518110620007e557620007e562000c84565b60200101906001600160f81b031916908160001a90535060006200080b84600262000c47565b6200081890600162000c69565b90505b6001811115620008a7577f303132333435363738396162636465660000000000000000000000000000000085600f16601081106200085d576200085d62000c84565b1a60f81b82828151811062000876576200087662000c84565b60200101906001600160f81b031916908160001a90535060049490941c936200089f8162000c9a565b90506200081b565b508315620008f85760405162461bcd60e51b815260206004820181905260248201527f537472696e67733a20686578206c656e67746820696e73756666696369656e7460448201526064016200033c565b9392505050565b6109148062000cb583390190565b6000602082840312156200092057600080fd5b81356001600160e01b031981168114620008f857600080fd5b6000602082840312156200094c57600080fd5b5035919050565b600080604083850312156200096757600080fd5b8235915060208301356001600160a01b03811681146200098657600080fd5b809150509250929050565b634e487b7160e01b600052604160045260246000fd5b600082601f830112620009b957600080fd5b813567ffffffffffffffff80821115620009d757620009d762000991565b604051601f8301601f19908116603f0116810190828211818310171562000a025762000a0262000991565b8160405283815286602085880101111562000a1c57600080fd5b836020870160208301376000602085830101528094505050505092915050565b6000806000806080858703121562000a5357600080fd5b84359350602085013567ffffffffffffffff8082111562000a7357600080fd5b62000a8188838901620009a7565b9450604087013591508082111562000a9857600080fd5b62000aa688838901620009a7565b9350606087013591508082111562000abd57600080fd5b5062000acc87828801620009a7565b91505092959194509250565b60005b8381101562000af557818101518382015260200162000adb565b8381111562000b05576000848401525b50505050565b6000815180845262000b2581602086016020860162000ad8565b601f01601f19169290920160200192915050565b60408152600062000b4e604083018562000b0b565b828103602084015262000b62818562000b0b565b95945050505050565b6001600160a01b038316815260406020820152600062000b8f604083018462000b0b565b949350505050565b7f416363657373436f6e74726f6c3a206163636f756e742000000000000000000081526000835162000bd181601785016020880162000ad8565b7f206973206d697373696e6720726f6c6520000000000000000000000000000000601791840191820152835162000c1081602884016020880162000ad8565b01602801949350505050565b602081526000620008f8602083018462000b0b565b634e487b7160e01b600052601160045260246000fd5b600081600019048311821515161562000c645762000c6462000c31565b500290565b6000821982111562000c7f5762000c7f62000c31565b500190565b634e487b7160e01b600052603260045260246000fd5b60008162000cac5762000cac62000c31565b50600019019056fe608060405260405161091438038061091483398101604081905261002291610463565b61002e82826000610035565b505061058d565b61003e83610100565b6040516001600160a01b038416907f1cf3b03a6cf19fa2baba4df148e9dcabedea7f8a5c07840e207e5c089be95d3e90600090a260008251118061007f5750805b156100fb576100f9836001600160a01b0316635c60da1b6040518163ffffffff1660e01b8152600401602060405180830381865afa1580156100c5573d6000803e3d6000fd5b505050506040513d601f19601f820116820180604052508101906100e99190610523565b836102a360201b6100291760201c565b505b505050565b610113816102cf60201b6100551760201c565b6101725760405162461bcd60e51b815260206004820152602560248201527f455243313936373a206e657720626561636f6e206973206e6f74206120636f6e6044820152641d1c9858dd60da1b60648201526084015b60405180910390fd5b6101e6816001600160a01b0316635c60da1b6040518163ffffffff1660e01b8152600401602060405180830381865afa1580156101b3573d6000803e3d6000fd5b505050506040513d601f19601f820116820180604052508101906101d79190610523565b6102cf60201b6100551760201c565b61024b5760405162461bcd60e51b815260206004820152603060248201527f455243313936373a20626561636f6e20696d706c656d656e746174696f6e206960448201526f1cc81b9bdd08184818dbdb9d1c9858dd60821b6064820152608401610169565b806102827fa3f0ad74e5423aebfd80d3ef4346578335a9a72aeaee59ff6cb3582b35133d5060001b6102de60201b6100641760201c565b80546001600160a01b0319166001600160a01b039290921691909117905550565b60606102c883836040518060600160405280602781526020016108ed602791396102e1565b9392505050565b6001600160a01b03163b151590565b90565b6060600080856001600160a01b0316856040516102fe919061053e565b600060405180830381855af49150503d8060008114610339576040519150601f19603f3d011682016040523d82523d6000602084013e61033e565b606091505b5090925090506103508683838761035a565b9695505050505050565b606083156103c95782516000036103c2576001600160a01b0385163b6103c25760405162461bcd60e51b815260206004820152601d60248201527f416464726573733a2063616c6c20746f206e6f6e2d636f6e74726163740000006044820152606401610169565b50816103d3565b6103d383836103db565b949350505050565b8151156103eb5781518083602001fd5b8060405162461bcd60e51b8152600401610169919061055a565b80516001600160a01b038116811461041c57600080fd5b919050565b634e487b7160e01b600052604160045260246000fd5b60005b8381101561045257818101518382015260200161043a565b838111156100f95750506000910152565b6000806040838503121561047657600080fd5b61047f83610405565b60208401519092506001600160401b038082111561049c57600080fd5b818501915085601f8301126104b057600080fd5b8151818111156104c2576104c2610421565b604051601f8201601f19908116603f011681019083821181831017156104ea576104ea610421565b8160405282815288602084870101111561050357600080fd5b610514836020830160208801610437565b80955050505050509250929050565b60006020828403121561053557600080fd5b6102c882610405565b60008251610550818460208701610437565b9190910192915050565b6020815260008251806020840152610579816040850160208701610437565b601f01601f19169190910160400192915050565b6103518061059c6000396000f3fe60806040523661001357610011610017565b005b6100115b610027610022610067565b610100565b565b606061004e83836040518060600160405280602781526020016102f560279139610124565b9392505050565b6001600160a01b03163b151590565b90565b600061009a7fa3f0ad74e5423aebfd80d3ef4346578335a9a72aeaee59ff6cb3582b35133d50546001600160a01b031690565b6001600160a01b0316635c60da1b6040518163ffffffff1660e01b8152600401602060405180830381865afa1580156100d7573d6000803e3d6000fd5b505050506040513d601f19601f820116820180604052508101906100fb919061024c565b905090565b3660008037600080366000845af43d6000803e80801561011f573d6000f35b3d6000fd5b6060600080856001600160a01b03168560405161014191906102a5565b600060405180830381855af49150503d806000811461017c576040519150601f19603f3d011682016040523d82523d6000602084013e610181565b606091505b50915091506101928683838761019c565b9695505050505050565b60608315610210578251600003610209576001600160a01b0385163b6102095760405162461bcd60e51b815260206004820152601d60248201527f416464726573733a2063616c6c20746f206e6f6e2d636f6e747261637400000060448201526064015b60405180910390fd5b508161021a565b61021a8383610222565b949350505050565b8151156102325781518083602001fd5b8060405162461bcd60e51b815260040161020091906102c1565b60006020828403121561025e57600080fd5b81516001600160a01b038116811461004e57600080fd5b60005b83811015610290578181015183820152602001610278565b8381111561029f576000848401525b50505050565b600082516102b7818460208701610275565b9190910192915050565b60208152600082518060208401526102e0816040850160208701610275565b601f01601f1916919091016040019291505056fe416464726573733a206c6f772d6c6576656c2064656c65676174652063616c6c206661696c6564a26469706673582212200e03366ad6dcf4f033b8d7d0cad078c4aeeeb716add847a3fec075f25f18fee264736f6c634300080e0033416464726573733a206c6f772d6c6576656c2064656c65676174652063616c6c206661696c6564a26469706673582212205e55e14d757f8abb18bdf15fd50ca00e0df089ba5802ebc7d8a3eadb347060fb64736f6c634300080e0033",
  "immutableReferences": {},
  "source": "// SPDX-License-Identifier: UNLICENSED\r\npragma solidity ^0.8.0;\r\n\r\nimport \"./OwnCollection721.sol\";\r\nimport \"@openzeppelin/contracts/access/AccessControl.sol\";\r\nimport \"@openzeppelin/contracts/proxy/beacon/BeaconProxy.sol\";\r\n\r\ncontract Factory721 is AccessControl {\r\n    address public beacon;\r\n\r\n    // Create a new role identifier for the minter role\r\n    bytes32 public constant ADMIN_ROLE = keccak256(\"ADMIN_ROLE\");\r\n\r\n    event Deployed(address owner, address contractAddress);\r\n\r\n    constructor(address _beacon) {\r\n        beacon = _beacon;\r\n        _setupRole(DEFAULT_ADMIN_ROLE, msg.sender);\r\n        _setupRole(ADMIN_ROLE, msg.sender);\r\n    }\r\n\r\n    function deploy(\r\n        bytes32 _salt,\r\n        string memory name,\r\n        string memory symbol,\r\n        string memory tokenURIPrefix\r\n    ) external onlyRole(ADMIN_ROLE) returns (address addr) {\r\n        BeaconProxy beaconProxy = new BeaconProxy(\r\n                    beacon,\r\n                    abi.encodeWithSelector(\r\n                        NFTMarketplace(address(0)).initialize.selector,\r\n                        name,\r\n                        symbol\r\n                    )\r\n                );\r\n        addr = address(beaconProxy);\r\n        NFTMarketplace token = NFTMarketplace(addr);\r\n        token.transferOwnership(msg.sender);\r\n        emit Deployed(msg.sender, addr);\r\n    }\r\n\r\n}\r\n",
  "sourcePath": "Z:\\Github\\marketplace\\src\\contracts\\Factory721.sol",
  "compiler": {
    "name": "solc",
    "version": "0.8.14+commit.80d49f37.Emscripten.clang"
  },
  "schemaVersion": "3.4.16",
  "updatedAt": "2024-08-14T08:45:34.627Z",
  "devdoc": {
    "kind": "dev",
    "methods": {
      "getRoleAdmin(bytes32)": {
        "details": "Returns the admin role that controls `role`. See {grantRole} and {revokeRole}. To change a role's admin, use {_setRoleAdmin}."
      },
      "grantRole(bytes32,address)": {
        "details": "Grants `role` to `account`. If `account` had not been already granted `role`, emits a {RoleGranted} event. Requirements: - the caller must have ``role``'s admin role. May emit a {RoleGranted} event."
      },
      "hasRole(bytes32,address)": {
        "details": "Returns `true` if `account` has been granted `role`."
      },
      "renounceRole(bytes32,address)": {
        "details": "Revokes `role` from the calling account. Roles are often managed via {grantRole} and {revokeRole}: this function's purpose is to provide a mechanism for accounts to lose their privileges if they are compromised (such as when a trusted device is misplaced). If the calling account had been revoked `role`, emits a {RoleRevoked} event. Requirements: - the caller must be `account`. May emit a {RoleRevoked} event."
      },
      "revokeRole(bytes32,address)": {
        "details": "Revokes `role` from `account`. If `account` had been granted `role`, emits a {RoleRevoked} event. Requirements: - the caller must have ``role``'s admin role. May emit a {RoleRevoked} event."
      },
      "supportsInterface(bytes4)": {
        "details": "See {IERC165-supportsInterface}."
      }
    },
    "version": 1
  },
  "userdoc": {
    "kind": "user",
    "methods": {},
    "version": 1
  }
}