{
  "contractName": "LootmogulUser1155Token",
  "abi": [
    {
      "inputs": [],
      "stateMutability": "nonpayable",
      "type": "constructor"
    },
    {
      "anonymous": false,
      "inputs": [
        {
          "indexed": true,
          "internalType": "address",
          "name": "account",
          "type": "address"
        },
        {
          "indexed": true,
          "internalType": "address",
          "name": "operator",
          "type": "address"
        },
        {
          "indexed": false,
          "internalType": "bool",
          "name": "approved",
          "type": "bool"
        }
      ],
      "name": "ApprovalForAll",
      "type": "event"
    },
    {
      "anonymous": false,
      "inputs": [
        {
          "indexed": true,
          "internalType": "string",
          "name": "uri",
          "type": "string"
        },
        {
          "indexed": true,
          "internalType": "string",
          "name": "newuri",
          "type": "string"
        }
      ],
      "name": "BaseURIChanged",
      "type": "event"
    },
    {
      "anonymous": false,
      "inputs": [
        {
          "indexed": false,
          "internalType": "uint8",
          "name": "version",
          "type": "uint8"
        }
      ],
      "name": "Initialized",
      "type": "event"
    },
    {
      "anonymous": false,
      "inputs": [
        {
          "indexed": true,
          "internalType": "address",
          "name": "previousOwner",
          "type": "address"
        },
        {
          "indexed": true,
          "internalType": "address",
          "name": "newOwner",
          "type": "address"
        }
      ],
      "name": "OwnershipTransferred",
      "type": "event"
    },
    {
      "anonymous": false,
      "inputs": [
        {
          "indexed": true,
          "internalType": "bytes32",
          "name": "role",
          "type": "bytes32"
        },
        {
          "indexed": true,
          "internalType": "bytes32",
          "name": "previousAdminRole",
          "type": "bytes32"
        },
        {
          "indexed": true,
          "internalType": "bytes32",
          "name": "newAdminRole",
          "type": "bytes32"
        }
      ],
      "name": "RoleAdminChanged",
      "type": "event"
    },
    {
      "anonymous": false,
      "inputs": [
        {
          "indexed": true,
          "internalType": "bytes32",
          "name": "role",
          "type": "bytes32"
        },
        {
          "indexed": true,
          "internalType": "address",
          "name": "account",
          "type": "address"
        },
        {
          "indexed": true,
          "internalType": "address",
          "name": "sender",
          "type": "address"
        }
      ],
      "name": "RoleGranted",
      "type": "event"
    },
    {
      "anonymous": false,
      "inputs": [
        {
          "indexed": true,
          "internalType": "bytes32",
          "name": "role",
          "type": "bytes32"
        },
        {
          "indexed": true,
          "internalType": "address",
          "name": "account",
          "type": "address"
        },
        {
          "indexed": true,
          "internalType": "address",
          "name": "sender",
          "type": "address"
        }
      ],
      "name": "RoleRevoked",
      "type": "event"
    },
    {
      "anonymous": false,
      "inputs": [
        {
          "indexed": true,
          "internalType": "address",
          "name": "operator",
          "type": "address"
        },
        {
          "indexed": true,
          "internalType": "address",
          "name": "from",
          "type": "address"
        },
        {
          "indexed": true,
          "internalType": "address",
          "name": "to",
          "type": "address"
        },
        {
          "indexed": false,
          "internalType": "uint256[]",
          "name": "ids",
          "type": "uint256[]"
        },
        {
          "indexed": false,
          "internalType": "uint256[]",
          "name": "values",
          "type": "uint256[]"
        }
      ],
      "name": "TransferBatch",
      "type": "event"
    },
    {
      "anonymous": false,
      "inputs": [
        {
          "indexed": true,
          "internalType": "address",
          "name": "operator",
          "type": "address"
        },
        {
          "indexed": true,
          "internalType": "address",
          "name": "from",
          "type": "address"
        },
        {
          "indexed": true,
          "internalType": "address",
          "name": "to",
          "type": "address"
        },
        {
          "indexed": false,
          "internalType": "uint256",
          "name": "id",
          "type": "uint256"
        },
        {
          "indexed": false,
          "internalType": "uint256",
          "name": "value",
          "type": "uint256"
        }
      ],
      "name": "TransferSingle",
      "type": "event"
    },
    {
      "anonymous": false,
      "inputs": [
        {
          "indexed": false,
          "internalType": "string",
          "name": "value",
          "type": "string"
        },
        {
          "indexed": true,
          "internalType": "uint256",
          "name": "id",
          "type": "uint256"
        }
      ],
      "name": "URI",
      "type": "event"
    },
    {
      "inputs": [],
      "name": "ADMIN_ROLE",
      "outputs": [
        {
          "internalType": "bytes32",
          "name": "",
          "type": "bytes32"
        }
      ],
      "stateMutability": "view",
      "type": "function"
    },
    {
      "inputs": [],
      "name": "DEFAULT_ADMIN_ROLE",
      "outputs": [
        {
          "internalType": "bytes32",
          "name": "",
          "type": "bytes32"
        }
      ],
      "stateMutability": "view",
      "type": "function"
    },
    {
      "inputs": [
        {
          "internalType": "address",
          "name": "account",
          "type": "address"
        },
        {
          "internalType": "uint256",
          "name": "id",
          "type": "uint256"
        }
      ],
      "name": "balanceOf",
      "outputs": [
        {
          "internalType": "uint256",
          "name": "",
          "type": "uint256"
        }
      ],
      "stateMutability": "view",
      "type": "function"
    },
    {
      "inputs": [
        {
          "internalType": "address[]",
          "name": "accounts",
          "type": "address[]"
        },
        {
          "internalType": "uint256[]",
          "name": "ids",
          "type": "uint256[]"
        }
      ],
      "name": "balanceOfBatch",
      "outputs": [
        {
          "internalType": "uint256[]",
          "name": "",
          "type": "uint256[]"
        }
      ],
      "stateMutability": "view",
      "type": "function"
    },
    {
      "inputs": [
        {
          "internalType": "address",
          "name": "account",
          "type": "address"
        },
        {
          "internalType": "uint256",
          "name": "id",
          "type": "uint256"
        },
        {
          "internalType": "uint256",
          "name": "value",
          "type": "uint256"
        }
      ],
      "name": "burn",
      "outputs": [],
      "stateMutability": "nonpayable",
      "type": "function"
    },
    {
      "inputs": [
        {
          "internalType": "address",
          "name": "account",
          "type": "address"
        },
        {
          "internalType": "uint256[]",
          "name": "ids",
          "type": "uint256[]"
        },
        {
          "internalType": "uint256[]",
          "name": "values",
          "type": "uint256[]"
        }
      ],
      "name": "burnBatch",
      "outputs": [],
      "stateMutability": "nonpayable",
      "type": "function"
    },
    {
      "inputs": [
        {
          "internalType": "uint256",
          "name": "id",
          "type": "uint256"
        }
      ],
      "name": "exists",
      "outputs": [
        {
          "internalType": "bool",
          "name": "",
          "type": "bool"
        }
      ],
      "stateMutability": "view",
      "type": "function"
    },
    {
      "inputs": [
        {
          "internalType": "bytes32",
          "name": "role",
          "type": "bytes32"
        }
      ],
      "name": "getRoleAdmin",
      "outputs": [
        {
          "internalType": "bytes32",
          "name": "",
          "type": "bytes32"
        }
      ],
      "stateMutability": "view",
      "type": "function"
    },
    {
      "inputs": [
        {
          "internalType": "bytes32",
          "name": "role",
          "type": "bytes32"
        },
        {
          "internalType": "address",
          "name": "account",
          "type": "address"
        }
      ],
      "name": "grantRole",
      "outputs": [],
      "stateMutability": "nonpayable",
      "type": "function"
    },
    {
      "inputs": [
        {
          "internalType": "bytes32",
          "name": "role",
          "type": "bytes32"
        },
        {
          "internalType": "address",
          "name": "account",
          "type": "address"
        }
      ],
      "name": "hasRole",
      "outputs": [
        {
          "internalType": "bool",
          "name": "",
          "type": "bool"
        }
      ],
      "stateMutability": "view",
      "type": "function"
    },
    {
      "inputs": [
        {
          "internalType": "address",
          "name": "account",
          "type": "address"
        },
        {
          "internalType": "address",
          "name": "operator",
          "type": "address"
        }
      ],
      "name": "isApprovedForAll",
      "outputs": [
        {
          "internalType": "bool",
          "name": "",
          "type": "bool"
        }
      ],
      "stateMutability": "view",
      "type": "function"
    },
    {
      "inputs": [],
      "name": "owner",
      "outputs": [
        {
          "internalType": "address",
          "name": "",
          "type": "address"
        }
      ],
      "stateMutability": "view",
      "type": "function"
    },
    {
      "inputs": [
        {
          "internalType": "bytes32",
          "name": "role",
          "type": "bytes32"
        },
        {
          "internalType": "address",
          "name": "account",
          "type": "address"
        }
      ],
      "name": "renounceRole",
      "outputs": [],
      "stateMutability": "nonpayable",
      "type": "function"
    },
    {
      "inputs": [
        {
          "internalType": "bytes32",
          "name": "role",
          "type": "bytes32"
        },
        {
          "internalType": "address",
          "name": "account",
          "type": "address"
        }
      ],
      "name": "revokeRole",
      "outputs": [],
      "stateMutability": "nonpayable",
      "type": "function"
    },
    {
      "inputs": [
        {
          "internalType": "uint256",
          "name": "_tokenId",
          "type": "uint256"
        },
        {
          "internalType": "uint256",
          "name": "_salePrice",
          "type": "uint256"
        }
      ],
      "name": "royaltyInfo",
      "outputs": [
        {
          "internalType": "address",
          "name": "",
          "type": "address"
        },
        {
          "internalType": "uint256",
          "name": "",
          "type": "uint256"
        }
      ],
      "stateMutability": "view",
      "type": "function"
    },
    {
      "inputs": [
        {
          "internalType": "address",
          "name": "from",
          "type": "address"
        },
        {
          "internalType": "address",
          "name": "to",
          "type": "address"
        },
        {
          "internalType": "uint256[]",
          "name": "ids",
          "type": "uint256[]"
        },
        {
          "internalType": "uint256[]",
          "name": "amounts",
          "type": "uint256[]"
        },
        {
          "internalType": "bytes",
          "name": "data",
          "type": "bytes"
        }
      ],
      "name": "safeBatchTransferFrom",
      "outputs": [],
      "stateMutability": "nonpayable",
      "type": "function"
    },
    {
      "inputs": [
        {
          "internalType": "address",
          "name": "from",
          "type": "address"
        },
        {
          "internalType": "address",
          "name": "to",
          "type": "address"
        },
        {
          "internalType": "uint256",
          "name": "id",
          "type": "uint256"
        },
        {
          "internalType": "uint256",
          "name": "amount",
          "type": "uint256"
        },
        {
          "internalType": "bytes",
          "name": "data",
          "type": "bytes"
        }
      ],
      "name": "safeTransferFrom",
      "outputs": [],
      "stateMutability": "nonpayable",
      "type": "function"
    },
    {
      "inputs": [
        {
          "internalType": "address",
          "name": "operator",
          "type": "address"
        },
        {
          "internalType": "bool",
          "name": "approved",
          "type": "bool"
        }
      ],
      "name": "setApprovalForAll",
      "outputs": [],
      "stateMutability": "nonpayable",
      "type": "function"
    },
    {
      "inputs": [
        {
          "internalType": "uint256",
          "name": "id",
          "type": "uint256"
        }
      ],
      "name": "totalSupply",
      "outputs": [
        {
          "internalType": "uint256",
          "name": "",
          "type": "uint256"
        }
      ],
      "stateMutability": "view",
      "type": "function"
    },
    {
      "inputs": [
        {
          "internalType": "string",
          "name": "_tokenName",
          "type": "string"
        },
        {
          "internalType": "string",
          "name": "_tokenSymbol",
          "type": "string"
        },
        {
          "internalType": "string",
          "name": "_baseTokenURI",
          "type": "string"
        }
      ],
      "name": "initialize",
      "outputs": [],
      "stateMutability": "nonpayable",
      "type": "function"
    },
    {
      "inputs": [],
      "name": "name",
      "outputs": [
        {
          "internalType": "string",
          "name": "",
          "type": "string"
        }
      ],
      "stateMutability": "view",
      "type": "function"
    },
    {
      "inputs": [],
      "name": "symbol",
      "outputs": [
        {
          "internalType": "string",
          "name": "",
          "type": "string"
        }
      ],
      "stateMutability": "view",
      "type": "function"
    },
    {
      "inputs": [
        {
          "internalType": "address",
          "name": "newOwner",
          "type": "address"
        }
      ],
      "name": "transferOwnership",
      "outputs": [
        {
          "internalType": "bool",
          "name": "",
          "type": "bool"
        }
      ],
      "stateMutability": "nonpayable",
      "type": "function"
    },
    {
      "inputs": [
        {
          "internalType": "string",
          "name": "uri_",
          "type": "string"
        }
      ],
      "name": "setBaseURI",
      "outputs": [
        {
          "internalType": "bool",
          "name": "",
          "type": "bool"
        }
      ],
      "stateMutability": "nonpayable",
      "type": "function"
    },
    {
      "inputs": [
        {
          "internalType": "string",
          "name": "_tokenURI",
          "type": "string"
        },
        {
          "internalType": "uint96",
          "name": "_royaltyFee",
          "type": "uint96"
        },
        {
          "internalType": "uint256",
          "name": "supply",
          "type": "uint256"
        }
      ],
      "name": "mint",
      "outputs": [
        {
          "internalType": "uint256",
          "name": "_tokenId",
          "type": "uint256"
        }
      ],
      "stateMutability": "nonpayable",
      "type": "function"
    },
    {
      "inputs": [
        {
          "internalType": "uint256",
          "name": "tokenId",
          "type": "uint256"
        }
      ],
      "name": "uri",
      "outputs": [
        {
          "internalType": "string",
          "name": "",
          "type": "string"
        }
      ],
      "stateMutability": "view",
      "type": "function"
    },
    {
      "inputs": [
        {
          "internalType": "bytes4",
          "name": "interfaceId",
          "type": "bytes4"
        }
      ],
      "name": "supportsInterface",
      "outputs": [
        {
          "internalType": "bool",
          "name": "",
          "type": "bool"
        }
      ],
      "stateMutability": "view",
      "type": "function"
    }
  ],
  "bytecode": "0x60806040523480156200001157600080fd5b506200001c62000022565b620000e4565b600054610100900460ff16156200008f5760405162461bcd60e51b815260206004820152602760248201527f496e697469616c697a61626c653a20636f6e747261637420697320696e697469604482015266616c697a696e6760c81b606482015260840160405180910390fd5b60005460ff9081161015620000e2576000805460ff191660ff9081179091556040519081527f7f26b83ff96e1f2b6a682f133852f6798a09c465da95921460cefb38474024989060200160405180910390a15b565b612ed880620000f46000396000f3fe608060405234801561001057600080fd5b50600436106101a85760003560e01c806375b238fc116100f9578063bd85b03911610097578063eca7b68111610071578063eca7b6811461040f578063f242432a14610422578063f2fde38b14610435578063f5298aca1461044857600080fd5b8063bd85b039146103a0578063d547741f146103c0578063e985e9c5146103d357600080fd5b806395d89b41116100d357806395d89b411461036a578063a217fddf14610372578063a22cb4651461037a578063a6487c531461038d57600080fd5b806375b238fc146103165780638da5cb5b1461032b57806391d148541461035757600080fd5b80632eb2c2d6116101665780634e1273f4116101405780634e1273f4146102ae5780634f558e79146102ce57806355f804b3146102f05780636b20c4541461030357600080fd5b80632eb2c2d6146102735780632f2ff15d1461028857806336568abe1461029b57600080fd5b8062fdd58e146101ad57806301ffc9a7146101d357806306fdde03146101f65780630e89341c1461020b578063248a9ca31461021e5780632a55205a14610241575b600080fd5b6101c06101bb36600461218a565b61045b565b6040519081526020015b60405180910390f35b6101e66101e13660046121ca565b6104f3565b60405190151581526020016101ca565b6101fe610504565b6040516101ca919061223f565b6101fe610219366004612252565b610597565b6101c061022c366004612252565b600090815260fc602052604090206001015490565b61025461024f36600461226b565b61074a565b604080516001600160a01b0390931683526020830191909152016101ca565b6102866102813660046123d6565b6107b0565b005b61028661029636600461247f565b6107fc565b6102866102a936600461247f565b610826565b6102c16102bc3660046124ab565b6108a4565b6040516101ca91906125b0565b6101e66102dc366004612252565b600090815260c96020526040902054151590565b6101e66102fe3660046125c3565b6109cd565b6102866103113660046125ff565b610a5d565b6101c0600080516020612e8383398151915281565b6101335461033f906001600160a01b031681565b6040516001600160a01b0390911681526020016101ca565b6101e661036536600461247f565b610aa0565b6101fe610acb565b6101c0600081565b610286610388366004612672565b610adb565b61028661039b3660046126ae565b610ae6565b6101c06103ae366004612252565b600090815260c9602052604090205490565b6102866103ce36600461247f565b610c90565b6101e66103e136600461272b565b6001600160a01b03918216600090815260666020908152604080832093909416825291909152205460ff1690565b6101c061041d366004612755565b610cb5565b6102866104303660046127ba565b610d2b565b6101e661044336600461281e565b610d70565b610286610456366004612839565b610e8d565b60006001600160a01b0383166104cb5760405162461bcd60e51b815260206004820152602a60248201527f455243313135353a2061646472657373207a65726f206973206e6f742061207660448201526930b634b21037bbb732b960b11b60648201526084015b60405180910390fd5b5060009081526065602090815260408083206001600160a01b03949094168352929052205490565b60006104fe82610ed0565b92915050565b606061013180546105149061286c565b80601f01602080910402602001604051908101604052809291908181526020018280546105409061286c565b801561058d5780601f106105625761010080835404028352916020019161058d565b820191906000526020600020905b81548152906001019060200180831161057057829003601f168201915b5050505050905090565b600081815260c960205260409020546060906106105760405162461bcd60e51b815260206004820152603260248201527f4552433131353555524953746f726167653a2055524920717565727920666f72604482015271103737b732bc34b9ba32b73a103a37b5b2b760711b60648201526084016104c2565b600082815261012f60205260408120805461062a9061286c565b80601f01602080910402602001604051908101604052809291908181526020018280546106569061286c565b80156106a35780601f10610678576101008083540402835291602001916106a3565b820191906000526020600020905b81548152906001019060200180831161068657829003601f168201915b5050505050905061013080546106b89061286c565b90506000036106c75792915050565b8051156106fa57610130816040516020016106e3929190612939565b604051602081830303815290604052915050919050565b6000610130805461070a9061286c565b9050116107265760405180602001604052806000815250610743565b61013061073284610ef5565b6040516020016106e3929190612939565b9392505050565b600082815260fb602090815260408083208151808301909252546001600160a01b0381168252600160a01b90046001600160601b0316918101829052829182906103e8906107989087612974565b6107a29190612993565b915196919550909350505050565b6001600160a01b0385163314806107cc57506107cc85336103e1565b6107e85760405162461bcd60e51b81526004016104c2906129b5565b6107f58585858585610f87565b5050505050565b600082815260fc602052604090206001015461081781611134565b6108218383611141565b505050565b6001600160a01b03811633146108965760405162461bcd60e51b815260206004820152602f60248201527f416363657373436f6e74726f6c3a2063616e206f6e6c792072656e6f756e636560448201526e103937b632b9903337b91039b2b63360891b60648201526084016104c2565b6108a082826111c7565b5050565b606081518351146109095760405162461bcd60e51b815260206004820152602960248201527f455243313135353a206163636f756e747320616e6420696473206c656e677468604482015268040dad2e6dac2e8c6d60bb1b60648201526084016104c2565b600083516001600160401b038111156109245761092461228d565b60405190808252806020026020018201604052801561094d578160200160208202803683370190505b50905060005b84518110156109c55761099885828151811061097157610971612a03565b602002602001015185838151811061098b5761098b612a03565b602002602001015161045b565b8282815181106109aa576109aa612a03565b60209081029190910101526109be81612a19565b9050610953565b509392505050565b6000600080516020612e838339815191526109e781611134565b826040516109f59190612a32565b6040518091039020610130604051610a0d9190612a4e565b604051908190038120907fc41b7cb64e5be01af4afc2641afc861432136270f4206b7773f229b658b9669990600090a38251610a51906101309060208601906120d5565b50600191505b50919050565b6001600160a01b038316331480610a795750610a7983336103e1565b610a955760405162461bcd60e51b81526004016104c2906129b5565b61082183838361122e565b600091825260fc602090815260408084206001600160a01b0393909316845291905290205460ff1690565b606061013280546105149061286c565b6108a03383836113cd565b600054610100900460ff1615808015610b065750600054600160ff909116105b80610b205750303b158015610b20575060005460ff166001145b610b835760405162461bcd60e51b815260206004820152602e60248201527f496e697469616c697a61626c653a20636f6e747261637420697320616c72656160448201526d191e481a5b9a5d1a585b1a5e995960921b60648201526084016104c2565b6000805460ff191660011790558015610ba6576000805461ff0019166101001790555b610baf826114ad565b610bb76114dd565b610bbf6114dd565b610bc76114dd565b8151610bdb906101309060208501906120d5565b5061013380546001600160a01b03191633908117909155610c0b90600080516020612e8383398151915290611506565b8351610c1f906101319060208701906120d5565b508251610c34906101329060208601906120d5565b50610c4461012e80546001019055565b8015610c8a576000805461ff0019169055604051600181527f7f26b83ff96e1f2b6a682f133852f6798a09c465da95921460cefb38474024989060200160405180910390a15b50505050565b600082815260fc6020526040902060010154610cab81611134565b61082183836111c7565b6000600080516020612e83833981519152610ccf81611134565b61012e549150610cf033838560405180602001604052806000815250611510565b600082815261012f602090815260409091208651610d10928801906120d5565b50610d1c823386611635565b6109c561012e80546001019055565b6001600160a01b038516331480610d475750610d4785336103e1565b610d635760405162461bcd60e51b81526004016104c2906129b5565b6107f58585858585611743565b6000600080516020612e83833981519152610d8a81611134565b6001600160a01b038316610def5760405162461bcd60e51b815260206004820152602660248201527f4f776e61626c653a206e6577206f776e657220697320746865207a65726f206160448201526564647265737360d01b60648201526084016104c2565b61013354610e1590600080516020612e83833981519152906001600160a01b03166111c7565b610133546040516001600160a01b038086169216907f8be0079c531659141344cd1fd0a4f28419497f9722a3daafe3b4186f6b6457e090600090a361013380546001600160a01b0319166001600160a01b038516179055610e84600080516020612e8383398151915284611506565b50600192915050565b6001600160a01b038316331480610ea95750610ea983336103e1565b610ec55760405162461bcd60e51b81526004016104c2906129b5565b61082183838361187f565b60006001600160e01b03198216637965db0b60e01b14806104fe57506104fe8261199b565b60606000610f02836119d0565b60010190506000816001600160401b03811115610f2157610f2161228d565b6040519080825280601f01601f191660200182016040528015610f4b576020820181803683370190505b5090508181016020015b600019016f181899199a1a9b1b9c1cb0b131b232b360811b600a86061a8153600a8504945084610f5557509392505050565b8151835114610fa85760405162461bcd60e51b81526004016104c290612a5a565b6001600160a01b038416610fce5760405162461bcd60e51b81526004016104c290612aa2565b33610fdd818787878787611aa8565b60005b84518110156110c6576000858281518110610ffd57610ffd612a03565b60200260200101519050600085838151811061101b5761101b612a03565b60209081029190910181015160008481526065835260408082206001600160a01b038e16835290935291909120549091508181101561106c5760405162461bcd60e51b81526004016104c290612ae7565b60008381526065602090815260408083206001600160a01b038e8116855292528083208585039055908b168252812080548492906110ab908490612b31565b92505081905550505050806110bf90612a19565b9050610fe0565b50846001600160a01b0316866001600160a01b0316826001600160a01b03167f4a39dc06d4c0dbc64b70af90fd698a233a518aa5d07e595d983b8c0526c8f7fb8787604051611116929190612b49565b60405180910390a461112c818787878787611ab6565b505050505050565b61113e8133611c11565b50565b61114b8282610aa0565b6108a057600082815260fc602090815260408083206001600160a01b03851684529091529020805460ff191660011790556111833390565b6001600160a01b0316816001600160a01b0316837f2f8788117e7eff1d82e926ec794901d17c78024a50270940304540a733656f0d60405160405180910390a45050565b6111d18282610aa0565b156108a057600082815260fc602090815260408083206001600160a01b0385168085529252808320805460ff1916905551339285917ff6391f5c32d9c69d2a47ea670b442974b53935d1edc7fd64eb21e047a839171b9190a45050565b6001600160a01b0383166112545760405162461bcd60e51b81526004016104c290612b77565b80518251146112755760405162461bcd60e51b81526004016104c290612a5a565b600033905061129881856000868660405180602001604052806000815250611aa8565b60005b83518110156113605760008482815181106112b8576112b8612a03565b6020026020010151905060008483815181106112d6576112d6612a03565b60209081029190910181015160008481526065835260408082206001600160a01b038c1683529093529190912054909150818110156113275760405162461bcd60e51b81526004016104c290612bba565b60009283526065602090815260408085206001600160a01b038b168652909152909220910390558061135881612a19565b91505061129b565b5060006001600160a01b0316846001600160a01b0316826001600160a01b03167f4a39dc06d4c0dbc64b70af90fd698a233a518aa5d07e595d983b8c0526c8f7fb86866040516113b1929190612b49565b60405180910390a4604080516020810190915260009052610c8a565b816001600160a01b0316836001600160a01b0316036114405760405162461bcd60e51b815260206004820152602960248201527f455243313135353a2073657474696e6720617070726f76616c20737461747573604482015268103337b91039b2b63360b91b60648201526084016104c2565b6001600160a01b03838116600081815260666020908152604080832094871680845294825291829020805460ff191686151590811790915591519182527f17307eab39ab6107e8899845ad3d59bd9653f200f220920489ca2b5937696c31910160405180910390a3505050565b600054610100900460ff166114d45760405162461bcd60e51b81526004016104c290612bfe565b61113e81611c6a565b600054610100900460ff166115045760405162461bcd60e51b81526004016104c290612bfe565b565b6108a08282611141565b6001600160a01b0384166115705760405162461bcd60e51b815260206004820152602160248201527f455243313135353a206d696e7420746f20746865207a65726f206164647265736044820152607360f81b60648201526084016104c2565b33600061157c85611c9a565b9050600061158985611c9a565b905061159a83600089858589611aa8565b60008681526065602090815260408083206001600160a01b038b168452909152812080548792906115cc908490612b31565b909155505060408051878152602081018790526001600160a01b03808a1692600092918716917fc3d58168c5ae7397731d063d5bbf3d657854427343f4c083240f7aacaa2d0f62910160405180910390a461162c83600089898989611ce5565b50505050505050565b6103e86001600160601b03821611156116a35760405162461bcd60e51b815260206004820152602a60248201527f455243323938313a20726f79616c7479206665652077696c6c206578636565646044820152692073616c65507269636560b01b60648201526084016104c2565b6001600160a01b0382166116f95760405162461bcd60e51b815260206004820152601b60248201527f455243323938313a20496e76616c696420706172616d6574657273000000000060448201526064016104c2565b6040805180820182526001600160a01b0393841681526001600160601b039283166020808301918252600096875260fb90529190942093519051909116600160a01b029116179055565b6001600160a01b0384166117695760405162461bcd60e51b81526004016104c290612aa2565b33600061177585611c9a565b9050600061178285611c9a565b9050611792838989858589611aa8565b60008681526065602090815260408083206001600160a01b038c168452909152902054858110156117d55760405162461bcd60e51b81526004016104c290612ae7565b60008781526065602090815260408083206001600160a01b038d8116855292528083208985039055908a16825281208054889290611814908490612b31565b909155505060408051888152602081018890526001600160a01b03808b16928c821692918816917fc3d58168c5ae7397731d063d5bbf3d657854427343f4c083240f7aacaa2d0f62910160405180910390a4611874848a8a8a8a8a611ce5565b505050505050505050565b6001600160a01b0383166118a55760405162461bcd60e51b81526004016104c290612b77565b3360006118b184611c9a565b905060006118be84611c9a565b90506118de83876000858560405180602001604052806000815250611aa8565b60008581526065602090815260408083206001600160a01b038a168452909152902054848110156119215760405162461bcd60e51b81526004016104c290612bba565b60008681526065602090815260408083206001600160a01b038b81168086529184528285208a8703905582518b81529384018a90529092908816917fc3d58168c5ae7397731d063d5bbf3d657854427343f4c083240f7aacaa2d0f62910160405180910390a460408051602081019091526000905261162c565b60006001600160e01b0319821663152a902d60e11b14806104fe57506301ffc9a760e01b6001600160e01b03198316146104fe565b60008072184f03e93ff9f4daa797ed6e38ed64bf6a1f0160401b8310611a0f5772184f03e93ff9f4daa797ed6e38ed64bf6a1f0160401b830492506040015b6d04ee2d6d415b85acef81000000008310611a3b576d04ee2d6d415b85acef8100000000830492506020015b662386f26fc100008310611a5957662386f26fc10000830492506010015b6305f5e1008310611a71576305f5e100830492506008015b6127108310611a8557612710830492506004015b60648310611a97576064830492506002015b600a83106104fe5760010192915050565b61112c868686868686611da0565b6001600160a01b0384163b1561112c5760405163bc197c8160e01b81526001600160a01b0385169063bc197c8190611afa9089908990889088908890600401612c49565b6020604051808303816000875af1925050508015611b35575060408051601f3d908101601f19168201909252611b3291810190612ca7565b60015b611be157611b41612cc4565b806308c379a003611b7a5750611b55612ce0565b80611b605750611b7c565b8060405162461bcd60e51b81526004016104c2919061223f565b505b60405162461bcd60e51b815260206004820152603460248201527f455243313135353a207472616e7366657220746f206e6f6e2d455243313135356044820152732932b1b2b4bb32b91034b6b83632b6b2b73a32b960611b60648201526084016104c2565b6001600160e01b0319811663bc197c8160e01b1461162c5760405162461bcd60e51b81526004016104c290612d69565b611c1b8282610aa0565b6108a057611c2881611f19565b611c33836020611f2b565b604051602001611c44929190612db1565b60408051601f198184030181529082905262461bcd60e51b82526104c29160040161223f565b600054610100900460ff16611c915760405162461bcd60e51b81526004016104c290612bfe565b61113e816120c6565b60408051600180825281830190925260609160009190602080830190803683370190505090508281600081518110611cd457611cd4612a03565b602090810291909101015292915050565b6001600160a01b0384163b1561112c5760405163f23a6e6160e01b81526001600160a01b0385169063f23a6e6190611d299089908990889088908890600401612e26565b6020604051808303816000875af1925050508015611d64575060408051601f3d908101601f19168201909252611d6191810190612ca7565b60015b611d7057611b41612cc4565b6001600160e01b0319811663f23a6e6160e01b1461162c5760405162461bcd60e51b81526004016104c290612d69565b6001600160a01b038516611e275760005b8351811015611e2557828181518110611dcc57611dcc612a03565b602002602001015160c96000868481518110611dea57611dea612a03565b602002602001015181526020019081526020016000206000828254611e0f9190612b31565b90915550611e1e905081612a19565b9050611db1565b505b6001600160a01b03841661112c5760005b835181101561162c576000848281518110611e5557611e55612a03565b602002602001015190506000848381518110611e7357611e73612a03565b60200260200101519050600060c9600084815260200190815260200160002054905081811015611ef65760405162461bcd60e51b815260206004820152602860248201527f455243313135353a206275726e20616d6f756e74206578636565647320746f74604482015267616c537570706c7960c01b60648201526084016104c2565b600092835260c9602052604090922091039055611f1281612a19565b9050611e38565b60606104fe6001600160a01b03831660145b60606000611f3a836002612974565b611f45906002612b31565b6001600160401b03811115611f5c57611f5c61228d565b6040519080825280601f01601f191660200182016040528015611f86576020820181803683370190505b509050600360fc1b81600081518110611fa157611fa1612a03565b60200101906001600160f81b031916908160001a905350600f60fb1b81600181518110611fd057611fd0612a03565b60200101906001600160f81b031916908160001a9053506000611ff4846002612974565b611fff906001612b31565b90505b6001811115612077576f181899199a1a9b1b9c1cb0b131b232b360811b85600f166010811061203357612033612a03565b1a60f81b82828151811061204957612049612a03565b60200101906001600160f81b031916908160001a90535060049490941c9361207081612e6b565b9050612002565b5083156107435760405162461bcd60e51b815260206004820181905260248201527f537472696e67733a20686578206c656e67746820696e73756666696369656e7460448201526064016104c2565b80516108a09060679060208401905b8280546120e19061286c565b90600052602060002090601f0160209004810192826121035760008555612149565b82601f1061211c57805160ff1916838001178555612149565b82800160010185558215612149579182015b8281111561214957825182559160200191906001019061212e565b50612155929150612159565b5090565b5b80821115612155576000815560010161215a565b80356001600160a01b038116811461218557600080fd5b919050565b6000806040838503121561219d57600080fd5b6121a68361216e565b946020939093013593505050565b6001600160e01b03198116811461113e57600080fd5b6000602082840312156121dc57600080fd5b8135610743816121b4565b60005b838110156122025781810151838201526020016121ea565b83811115610c8a5750506000910152565b6000815180845261222b8160208601602086016121e7565b601f01601f19169290920160200192915050565b6020815260006107436020830184612213565b60006020828403121561226457600080fd5b5035919050565b6000806040838503121561227e57600080fd5b50508035926020909101359150565b634e487b7160e01b600052604160045260246000fd5b601f8201601f191681016001600160401b03811182821017156122c8576122c861228d565b6040525050565b60006001600160401b038211156122e8576122e861228d565b5060051b60200190565b600082601f83011261230357600080fd5b81356020612310826122cf565b60405161231d82826122a3565b83815260059390931b850182019282810191508684111561233d57600080fd5b8286015b848110156123585780358352918301918301612341565b509695505050505050565b600082601f83011261237457600080fd5b81356001600160401b0381111561238d5761238d61228d565b6040516123a4601f8301601f1916602001826122a3565b8181528460208386010111156123b957600080fd5b816020850160208301376000918101602001919091529392505050565b600080600080600060a086880312156123ee57600080fd5b6123f78661216e565b94506124056020870161216e565b935060408601356001600160401b038082111561242157600080fd5b61242d89838a016122f2565b9450606088013591508082111561244357600080fd5b61244f89838a016122f2565b9350608088013591508082111561246557600080fd5b5061247288828901612363565b9150509295509295909350565b6000806040838503121561249257600080fd5b823591506124a26020840161216e565b90509250929050565b600080604083850312156124be57600080fd5b82356001600160401b03808211156124d557600080fd5b818501915085601f8301126124e957600080fd5b813560206124f6826122cf565b60405161250382826122a3565b83815260059390931b850182019282810191508984111561252357600080fd5b948201945b83861015612548576125398661216e565b82529482019490820190612528565b9650508601359250508082111561255e57600080fd5b5061256b858286016122f2565b9150509250929050565b600081518084526020808501945080840160005b838110156125a557815187529582019590820190600101612589565b509495945050505050565b6020815260006107436020830184612575565b6000602082840312156125d557600080fd5b81356001600160401b038111156125eb57600080fd5b6125f784828501612363565b949350505050565b60008060006060848603121561261457600080fd5b61261d8461216e565b925060208401356001600160401b038082111561263957600080fd5b612645878388016122f2565b9350604086013591508082111561265b57600080fd5b50612668868287016122f2565b9150509250925092565b6000806040838503121561268557600080fd5b61268e8361216e565b9150602083013580151581146126a357600080fd5b809150509250929050565b6000806000606084860312156126c357600080fd5b83356001600160401b03808211156126da57600080fd5b6126e687838801612363565b945060208601359150808211156126fc57600080fd5b61270887838801612363565b9350604086013591508082111561271e57600080fd5b5061266886828701612363565b6000806040838503121561273e57600080fd5b6127478361216e565b91506124a26020840161216e565b60008060006060848603121561276a57600080fd5b83356001600160401b0381111561278057600080fd5b61278c86828701612363565b93505060208401356001600160601b03811681146127a957600080fd5b929592945050506040919091013590565b600080600080600060a086880312156127d257600080fd5b6127db8661216e565b94506127e96020870161216e565b9350604086013592506060860135915060808601356001600160401b0381111561281257600080fd5b61247288828901612363565b60006020828403121561283057600080fd5b6107438261216e565b60008060006060848603121561284e57600080fd5b6128578461216e565b95602085013595506040909401359392505050565b600181811c9082168061288057607f821691505b602082108103610a5757634e487b7160e01b600052602260045260246000fd5b8054600090600181811c90808316806128ba57607f831692505b602080841082036128db57634e487b7160e01b600052602260045260246000fd5b8180156128ef57600181146129005761292d565b60ff1986168952848901965061292d565b60008881526020902060005b868110156129255781548b82015290850190830161290c565b505084890196505b50505050505092915050565b600061294582856128a0565b83516129558183602088016121e7565b01949350505050565b634e487b7160e01b600052601160045260246000fd5b600081600019048311821515161561298e5761298e61295e565b500290565b6000826129b057634e487b7160e01b600052601260045260246000fd5b500490565b6020808252602e908201527f455243313135353a2063616c6c6572206973206e6f7420746f6b656e206f776e60408201526d195c881bdc88185c1c1c9bdd995960921b606082015260800190565b634e487b7160e01b600052603260045260246000fd5b600060018201612a2b57612a2b61295e565b5060010190565b60008251612a448184602087016121e7565b9190910192915050565b600061074382846128a0565b60208082526028908201527f455243313135353a2069647320616e6420616d6f756e7473206c656e677468206040820152670dad2e6dac2e8c6d60c31b606082015260800190565b60208082526025908201527f455243313135353a207472616e7366657220746f20746865207a65726f206164604082015264647265737360d81b606082015260800190565b6020808252602a908201527f455243313135353a20696e73756666696369656e742062616c616e636520666f60408201526939103a3930b739b332b960b11b606082015260800190565b60008219821115612b4457612b4461295e565b500190565b604081526000612b5c6040830185612575565b8281036020840152612b6e8185612575565b95945050505050565b60208082526023908201527f455243313135353a206275726e2066726f6d20746865207a65726f206164647260408201526265737360e81b606082015260800190565b60208082526024908201527f455243313135353a206275726e20616d6f756e7420657863656564732062616c604082015263616e636560e01b606082015260800190565b6020808252602b908201527f496e697469616c697a61626c653a20636f6e7472616374206973206e6f74206960408201526a6e697469616c697a696e6760a81b606082015260800190565b6001600160a01b0386811682528516602082015260a060408201819052600090612c7590830186612575565b8281036060840152612c878186612575565b90508281036080840152612c9b8185612213565b98975050505050505050565b600060208284031215612cb957600080fd5b8151610743816121b4565b600060033d1115612cdd5760046000803e5060005160e01c5b90565b600060443d1015612cee5790565b6040516003193d81016004833e81513d6001600160401b038160248401118184111715612d1d57505050505090565b8285019150815181811115612d355750505050505090565b843d8701016020828501011115612d4f5750505050505090565b612d5e602082860101876122a3565b509095945050505050565b60208082526028908201527f455243313135353a204552433131353552656365697665722072656a656374656040820152676420746f6b656e7360c01b606082015260800190565b7f416363657373436f6e74726f6c3a206163636f756e7420000000000000000000815260008351612de98160178501602088016121e7565b7001034b99036b4b9b9b4b733903937b6329607d1b6017918401918201528351612e1a8160288401602088016121e7565b01602801949350505050565b6001600160a01b03868116825285166020820152604081018490526060810183905260a060808201819052600090612e6090830184612213565b979650505050505050565b600081612e7a57612e7a61295e565b50600019019056fea49807205ce4d355092ef5a8a18f56e8913cf4a201fbe287825b095693c21775a264697066735822122080edb0c47439dac8649ecf3955141e89e34c64f259dd3f0f66ebbcdf3a593a1564736f6c634300080e0033",
  "immutableReferences": {},
  "source": "// SPDX-License-Identifier: UNLICENSED\r\npragma solidity 0.8.14;\r\n\r\nimport \"@openzeppelin/contracts-upgradeable/utils/CountersUpgradeable.sol\";\r\nimport \"@openzeppelin/contracts/utils/Strings.sol\";\r\nimport \"@openzeppelin/contracts-upgradeable/access/AccessControlUpgradeable.sol\";\r\nimport \"@openzeppelin/contracts-upgradeable/proxy/utils/Initializable.sol\";\r\nimport \"@openzeppelin/contracts-upgradeable/token/ERC1155/extensions/ERC1155BurnableUpgradeable.sol\";\r\nimport \"@openzeppelin/contracts-upgradeable/token/ERC1155/extensions/ERC1155SupplyUpgradeable.sol\";\r\nimport \"@openzeppelin/contracts-upgradeable/token/ERC1155/ERC1155Upgradeable.sol\";\r\nimport \"./common/ERC2981.sol\";\r\n\r\ncontract LootmogulUser1155Token is\r\n  Initializable,\r\n  ERC1155BurnableUpgradeable,\r\n  ERC1155SupplyUpgradeable,\r\n  ERC2981,\r\n  AccessControlUpgradeable\r\n{\r\n  using CountersUpgradeable for CountersUpgradeable.Counter;\r\n  using Strings for uint256;\r\n  CountersUpgradeable.Counter private _tokenIdTracker;\r\n  mapping(uint256 => string) private _tokenURIs;\r\n\r\n  // Create a new role identifier for the minter role\r\n  bytes32 public constant ADMIN_ROLE = keccak256(\"ADMIN_ROLE\");\r\n\r\n  string private baseTokenURI;\r\n  string private _name;\r\n  string private _symbol;\r\n  address public owner;\r\n\r\n  event OwnershipTransferred(address indexed previousOwner, address indexed newOwner);\r\n\r\n  event BaseURIChanged(string indexed uri, string indexed newuri);\r\n\r\n  /// @custom:oz-upgrades-unsafe-allow constructor\r\n  constructor() {\r\n    _disableInitializers();\r\n  }\r\n\r\n  function initialize(\r\n    string memory _tokenName,\r\n    string memory _tokenSymbol,\r\n    string memory _baseTokenURI\r\n  ) public initializer {\r\n    __ERC1155_init(_baseTokenURI);\r\n    __ERC1155Supply_init();\r\n    __ERC1155Burnable_init();\r\n    __AccessControl_init();\r\n\r\n    baseTokenURI = _baseTokenURI;\r\n    owner = _msgSender();\r\n    _setupRole(ADMIN_ROLE, msg.sender);\r\n    _name = _tokenName;\r\n    _symbol = _tokenSymbol;\r\n    _tokenIdTracker.increment();\r\n  }\r\n\r\n  function name() external view returns (string memory) {\r\n    return _name;\r\n  }\r\n\r\n  function symbol() external view returns (string memory) {\r\n    return _symbol;\r\n  }\r\n\r\n  /** @dev change the Ownership from current owner to newOwner address\r\n        @param newOwner : newOwner address \r\n    */\r\n\r\n  function transferOwnership(address newOwner) external onlyRole(ADMIN_ROLE) returns (bool) {\r\n    require(newOwner != address(0), \"Ownable: new owner is the zero address\");\r\n    _revokeRole(ADMIN_ROLE, owner);\r\n    emit OwnershipTransferred(owner, newOwner);\r\n    owner = newOwner;\r\n    _setupRole(ADMIN_ROLE, newOwner);\r\n    return true;\r\n  }\r\n\r\n  function setBaseURI(string memory uri_) external onlyRole(ADMIN_ROLE) returns (bool) {\r\n    emit BaseURIChanged(baseTokenURI, uri_);\r\n    baseTokenURI = uri_;\r\n    return true;\r\n  }\r\n\r\n  function mint(\r\n    string memory _tokenURI,\r\n    uint96 _royaltyFee,\r\n    uint256 supply\r\n  ) external virtual onlyRole(ADMIN_ROLE) returns (uint256 _tokenId) {\r\n    // We cannot just use balanceOf to create the new tokenId because tokens\r\n    // can be burned (destroyed), so we need a separate counter.\r\n    _tokenId = _tokenIdTracker.current();\r\n    _mint(_msgSender(), _tokenId, supply, \"\");\r\n    _tokenURIs[_tokenId] = _tokenURI;\r\n    _setTokenRoyalty(_tokenId, _msgSender(), _royaltyFee);\r\n    _tokenIdTracker.increment();\r\n    return _tokenId;\r\n  }\r\n\r\n  function uri(uint256 tokenId) public view virtual override returns (string memory) {\r\n    require(exists(tokenId), \"ERC1155URIStorage: URI query for nonexistent token\");\r\n\r\n    string memory _tokenURI = _tokenURIs[tokenId];\r\n    // If there is no base URI, return the token URI.\r\n    if (bytes(baseTokenURI).length == 0) {\r\n      return _tokenURI;\r\n    }\r\n    // If both are set, concatenate the baseURI and tokenURI (via abi.encodePacked).\r\n    if (bytes(_tokenURI).length > 0) {\r\n      return string(abi.encodePacked(baseTokenURI, _tokenURI));\r\n    }\r\n    return bytes(baseTokenURI).length > 0 ? string(abi.encodePacked(baseTokenURI, tokenId.toString())) : \"\";\r\n  }\r\n\r\n  /**\r\n   * @dev See {IERC165-supportsInterface}.\r\n   */\r\n  function supportsInterface(\r\n    bytes4 interfaceId\r\n  ) public view virtual override(ERC2981, ERC1155Upgradeable, AccessControlUpgradeable) returns (bool) {\r\n    return super.supportsInterface(interfaceId);\r\n  }\r\n\r\n  function _beforeTokenTransfer(\r\n    address _operator,\r\n    address from,\r\n    address to,\r\n    uint256[] memory ids,\r\n    uint256[] memory amounts,\r\n    bytes memory data\r\n  ) internal virtual override(ERC1155Upgradeable, ERC1155SupplyUpgradeable) {\r\n    super._beforeTokenTransfer(_operator, from, to, ids, amounts, data);\r\n  }\r\n}\r\n",
  "sourcePath": "C:\\Users\\Yash\\Desktop\\Temporary\\Github\\marketplace\\src\\contracts\\OwnCollection1155.sol",
  "compiler": {
    "name": "solc",
    "version": "0.8.14+commit.80d49f37.Emscripten.clang"
  },
  "schemaVersion": "3.4.13",
  "updatedAt": "2023-08-10T13:39:04.900Z",
  "devdoc": {
    "kind": "dev",
    "methods": {
      "balanceOf(address,uint256)": {
        "details": "See {IERC1155-balanceOf}. Requirements: - `account` cannot be the zero address."
      },
      "balanceOfBatch(address[],uint256[])": {
        "details": "See {IERC1155-balanceOfBatch}. Requirements: - `accounts` and `ids` must have the same length."
      },
      "constructor": {
        "custom:oz-upgrades-unsafe-allow": "constructor"
      },
      "exists(uint256)": {
        "details": "Indicates whether any token exist with a given id, or not."
      },
      "getRoleAdmin(bytes32)": {
        "details": "Returns the admin role that controls `role`. See {grantRole} and {revokeRole}. To change a role's admin, use {_setRoleAdmin}."
      },
      "grantRole(bytes32,address)": {
        "details": "Grants `role` to `account`. If `account` had not been already granted `role`, emits a {RoleGranted} event. Requirements: - the caller must have ``role``'s admin role. May emit a {RoleGranted} event."
      },
      "hasRole(bytes32,address)": {
        "details": "Returns `true` if `account` has been granted `role`."
      },
      "isApprovedForAll(address,address)": {
        "details": "See {IERC1155-isApprovedForAll}."
      },
      "renounceRole(bytes32,address)": {
        "details": "Revokes `role` from the calling account. Roles are often managed via {grantRole} and {revokeRole}: this function's purpose is to provide a mechanism for accounts to lose their privileges if they are compromised (such as when a trusted device is misplaced). If the calling account had been revoked `role`, emits a {RoleRevoked} event. Requirements: - the caller must be `account`. May emit a {RoleRevoked} event."
      },
      "revokeRole(bytes32,address)": {
        "details": "Revokes `role` from `account`. If `account` had been granted `role`, emits a {RoleRevoked} event. Requirements: - the caller must have ``role``'s admin role. May emit a {RoleRevoked} event."
      },
      "royaltyInfo(uint256,uint256)": {
        "details": "Returns how much royalty is owed and to whom, based on a sale price that may be denominated in any unit of exchange. The royalty amount is denominated and should be paid in that same unit of exchange."
      },
      "safeBatchTransferFrom(address,address,uint256[],uint256[],bytes)": {
        "details": "See {IERC1155-safeBatchTransferFrom}."
      },
      "safeTransferFrom(address,address,uint256,uint256,bytes)": {
        "details": "See {IERC1155-safeTransferFrom}."
      },
      "setApprovalForAll(address,bool)": {
        "details": "See {IERC1155-setApprovalForAll}."
      },
      "supportsInterface(bytes4)": {
        "details": "See {IERC165-supportsInterface}."
      },
      "totalSupply(uint256)": {
        "details": "Total amount of tokens in with a given id."
      },
      "transferOwnership(address)": {
        "details": "change the Ownership from current owner to newOwner address",
        "params": {
          "newOwner": ": newOwner address "
        }
      }
    },
    "version": 1
  },
  "userdoc": {
    "kind": "user",
    "methods": {},
    "version": 1
  }
}