{
  "contractName": "LootmogulUser1155Token",
  "abi": [
    {
      "inputs": [
        {
          "internalType": "string",
          "name": "_tokenName",
          "type": "string"
        },
        {
          "internalType": "string",
          "name": "_tokenSymbol",
          "type": "string"
        },
        {
          "internalType": "string",
          "name": "_baseTokenURI",
          "type": "string"
        }
      ],
      "stateMutability": "nonpayable",
      "type": "constructor"
    },
    {
      "anonymous": false,
      "inputs": [
        {
          "indexed": true,
          "internalType": "address",
          "name": "account",
          "type": "address"
        },
        {
          "indexed": true,
          "internalType": "address",
          "name": "operator",
          "type": "address"
        },
        {
          "indexed": false,
          "internalType": "bool",
          "name": "approved",
          "type": "bool"
        }
      ],
      "name": "ApprovalForAll",
      "type": "event"
    },
    {
      "anonymous": false,
      "inputs": [
        {
          "indexed": true,
          "internalType": "string",
          "name": "uri",
          "type": "string"
        },
        {
          "indexed": true,
          "internalType": "string",
          "name": "newuri",
          "type": "string"
        }
      ],
      "name": "BaseURIChanged",
      "type": "event"
    },
    {
      "anonymous": false,
      "inputs": [
        {
          "indexed": true,
          "internalType": "address",
          "name": "previousOwner",
          "type": "address"
        },
        {
          "indexed": true,
          "internalType": "address",
          "name": "newOwner",
          "type": "address"
        }
      ],
      "name": "OwnershipTransferred",
      "type": "event"
    },
    {
      "anonymous": false,
      "inputs": [
        {
          "indexed": true,
          "internalType": "bytes32",
          "name": "role",
          "type": "bytes32"
        },
        {
          "indexed": true,
          "internalType": "bytes32",
          "name": "previousAdminRole",
          "type": "bytes32"
        },
        {
          "indexed": true,
          "internalType": "bytes32",
          "name": "newAdminRole",
          "type": "bytes32"
        }
      ],
      "name": "RoleAdminChanged",
      "type": "event"
    },
    {
      "anonymous": false,
      "inputs": [
        {
          "indexed": true,
          "internalType": "bytes32",
          "name": "role",
          "type": "bytes32"
        },
        {
          "indexed": true,
          "internalType": "address",
          "name": "account",
          "type": "address"
        },
        {
          "indexed": true,
          "internalType": "address",
          "name": "sender",
          "type": "address"
        }
      ],
      "name": "RoleGranted",
      "type": "event"
    },
    {
      "anonymous": false,
      "inputs": [
        {
          "indexed": true,
          "internalType": "bytes32",
          "name": "role",
          "type": "bytes32"
        },
        {
          "indexed": true,
          "internalType": "address",
          "name": "account",
          "type": "address"
        },
        {
          "indexed": true,
          "internalType": "address",
          "name": "sender",
          "type": "address"
        }
      ],
      "name": "RoleRevoked",
      "type": "event"
    },
    {
      "anonymous": false,
      "inputs": [
        {
          "indexed": true,
          "internalType": "address",
          "name": "operator",
          "type": "address"
        },
        {
          "indexed": true,
          "internalType": "address",
          "name": "from",
          "type": "address"
        },
        {
          "indexed": true,
          "internalType": "address",
          "name": "to",
          "type": "address"
        },
        {
          "indexed": false,
          "internalType": "uint256[]",
          "name": "ids",
          "type": "uint256[]"
        },
        {
          "indexed": false,
          "internalType": "uint256[]",
          "name": "values",
          "type": "uint256[]"
        }
      ],
      "name": "TransferBatch",
      "type": "event"
    },
    {
      "anonymous": false,
      "inputs": [
        {
          "indexed": true,
          "internalType": "address",
          "name": "operator",
          "type": "address"
        },
        {
          "indexed": true,
          "internalType": "address",
          "name": "from",
          "type": "address"
        },
        {
          "indexed": true,
          "internalType": "address",
          "name": "to",
          "type": "address"
        },
        {
          "indexed": false,
          "internalType": "uint256",
          "name": "id",
          "type": "uint256"
        },
        {
          "indexed": false,
          "internalType": "uint256",
          "name": "value",
          "type": "uint256"
        }
      ],
      "name": "TransferSingle",
      "type": "event"
    },
    {
      "anonymous": false,
      "inputs": [
        {
          "indexed": false,
          "internalType": "string",
          "name": "value",
          "type": "string"
        },
        {
          "indexed": true,
          "internalType": "uint256",
          "name": "id",
          "type": "uint256"
        }
      ],
      "name": "URI",
      "type": "event"
    },
    {
      "inputs": [],
      "name": "ADMIN_ROLE",
      "outputs": [
        {
          "internalType": "bytes32",
          "name": "",
          "type": "bytes32"
        }
      ],
      "stateMutability": "view",
      "type": "function"
    },
    {
      "inputs": [],
      "name": "DEFAULT_ADMIN_ROLE",
      "outputs": [
        {
          "internalType": "bytes32",
          "name": "",
          "type": "bytes32"
        }
      ],
      "stateMutability": "view",
      "type": "function"
    },
    {
      "inputs": [
        {
          "internalType": "address",
          "name": "account",
          "type": "address"
        },
        {
          "internalType": "uint256",
          "name": "id",
          "type": "uint256"
        }
      ],
      "name": "balanceOf",
      "outputs": [
        {
          "internalType": "uint256",
          "name": "",
          "type": "uint256"
        }
      ],
      "stateMutability": "view",
      "type": "function"
    },
    {
      "inputs": [
        {
          "internalType": "address[]",
          "name": "accounts",
          "type": "address[]"
        },
        {
          "internalType": "uint256[]",
          "name": "ids",
          "type": "uint256[]"
        }
      ],
      "name": "balanceOfBatch",
      "outputs": [
        {
          "internalType": "uint256[]",
          "name": "",
          "type": "uint256[]"
        }
      ],
      "stateMutability": "view",
      "type": "function"
    },
    {
      "inputs": [
        {
          "internalType": "address",
          "name": "account",
          "type": "address"
        },
        {
          "internalType": "uint256",
          "name": "id",
          "type": "uint256"
        },
        {
          "internalType": "uint256",
          "name": "value",
          "type": "uint256"
        }
      ],
      "name": "burn",
      "outputs": [],
      "stateMutability": "nonpayable",
      "type": "function"
    },
    {
      "inputs": [
        {
          "internalType": "address",
          "name": "account",
          "type": "address"
        },
        {
          "internalType": "uint256[]",
          "name": "ids",
          "type": "uint256[]"
        },
        {
          "internalType": "uint256[]",
          "name": "values",
          "type": "uint256[]"
        }
      ],
      "name": "burnBatch",
      "outputs": [],
      "stateMutability": "nonpayable",
      "type": "function"
    },
    {
      "inputs": [
        {
          "internalType": "uint256",
          "name": "id",
          "type": "uint256"
        }
      ],
      "name": "exists",
      "outputs": [
        {
          "internalType": "bool",
          "name": "",
          "type": "bool"
        }
      ],
      "stateMutability": "view",
      "type": "function"
    },
    {
      "inputs": [
        {
          "internalType": "bytes32",
          "name": "role",
          "type": "bytes32"
        }
      ],
      "name": "getRoleAdmin",
      "outputs": [
        {
          "internalType": "bytes32",
          "name": "",
          "type": "bytes32"
        }
      ],
      "stateMutability": "view",
      "type": "function"
    },
    {
      "inputs": [
        {
          "internalType": "bytes32",
          "name": "role",
          "type": "bytes32"
        },
        {
          "internalType": "address",
          "name": "account",
          "type": "address"
        }
      ],
      "name": "grantRole",
      "outputs": [],
      "stateMutability": "nonpayable",
      "type": "function"
    },
    {
      "inputs": [
        {
          "internalType": "bytes32",
          "name": "role",
          "type": "bytes32"
        },
        {
          "internalType": "address",
          "name": "account",
          "type": "address"
        }
      ],
      "name": "hasRole",
      "outputs": [
        {
          "internalType": "bool",
          "name": "",
          "type": "bool"
        }
      ],
      "stateMutability": "view",
      "type": "function"
    },
    {
      "inputs": [
        {
          "internalType": "address",
          "name": "account",
          "type": "address"
        },
        {
          "internalType": "address",
          "name": "operator",
          "type": "address"
        }
      ],
      "name": "isApprovedForAll",
      "outputs": [
        {
          "internalType": "bool",
          "name": "",
          "type": "bool"
        }
      ],
      "stateMutability": "view",
      "type": "function"
    },
    {
      "inputs": [],
      "name": "owner",
      "outputs": [
        {
          "internalType": "address",
          "name": "",
          "type": "address"
        }
      ],
      "stateMutability": "view",
      "type": "function"
    },
    {
      "inputs": [
        {
          "internalType": "bytes32",
          "name": "role",
          "type": "bytes32"
        },
        {
          "internalType": "address",
          "name": "account",
          "type": "address"
        }
      ],
      "name": "renounceRole",
      "outputs": [],
      "stateMutability": "nonpayable",
      "type": "function"
    },
    {
      "inputs": [
        {
          "internalType": "bytes32",
          "name": "role",
          "type": "bytes32"
        },
        {
          "internalType": "address",
          "name": "account",
          "type": "address"
        }
      ],
      "name": "revokeRole",
      "outputs": [],
      "stateMutability": "nonpayable",
      "type": "function"
    },
    {
      "inputs": [
        {
          "internalType": "uint256",
          "name": "_tokenId",
          "type": "uint256"
        },
        {
          "internalType": "uint256",
          "name": "_salePrice",
          "type": "uint256"
        }
      ],
      "name": "royaltyInfo",
      "outputs": [
        {
          "internalType": "address",
          "name": "",
          "type": "address"
        },
        {
          "internalType": "uint256",
          "name": "",
          "type": "uint256"
        }
      ],
      "stateMutability": "view",
      "type": "function"
    },
    {
      "inputs": [
        {
          "internalType": "address",
          "name": "from",
          "type": "address"
        },
        {
          "internalType": "address",
          "name": "to",
          "type": "address"
        },
        {
          "internalType": "uint256[]",
          "name": "ids",
          "type": "uint256[]"
        },
        {
          "internalType": "uint256[]",
          "name": "amounts",
          "type": "uint256[]"
        },
        {
          "internalType": "bytes",
          "name": "data",
          "type": "bytes"
        }
      ],
      "name": "safeBatchTransferFrom",
      "outputs": [],
      "stateMutability": "nonpayable",
      "type": "function"
    },
    {
      "inputs": [
        {
          "internalType": "address",
          "name": "from",
          "type": "address"
        },
        {
          "internalType": "address",
          "name": "to",
          "type": "address"
        },
        {
          "internalType": "uint256",
          "name": "id",
          "type": "uint256"
        },
        {
          "internalType": "uint256",
          "name": "amount",
          "type": "uint256"
        },
        {
          "internalType": "bytes",
          "name": "data",
          "type": "bytes"
        }
      ],
      "name": "safeTransferFrom",
      "outputs": [],
      "stateMutability": "nonpayable",
      "type": "function"
    },
    {
      "inputs": [
        {
          "internalType": "address",
          "name": "operator",
          "type": "address"
        },
        {
          "internalType": "bool",
          "name": "approved",
          "type": "bool"
        }
      ],
      "name": "setApprovalForAll",
      "outputs": [],
      "stateMutability": "nonpayable",
      "type": "function"
    },
    {
      "inputs": [
        {
          "internalType": "uint256",
          "name": "id",
          "type": "uint256"
        }
      ],
      "name": "totalSupply",
      "outputs": [
        {
          "internalType": "uint256",
          "name": "",
          "type": "uint256"
        }
      ],
      "stateMutability": "view",
      "type": "function"
    },
    {
      "inputs": [],
      "name": "name",
      "outputs": [
        {
          "internalType": "string",
          "name": "",
          "type": "string"
        }
      ],
      "stateMutability": "view",
      "type": "function"
    },
    {
      "inputs": [],
      "name": "symbol",
      "outputs": [
        {
          "internalType": "string",
          "name": "",
          "type": "string"
        }
      ],
      "stateMutability": "view",
      "type": "function"
    },
    {
      "inputs": [
        {
          "internalType": "address",
          "name": "newOwner",
          "type": "address"
        }
      ],
      "name": "transferOwnership",
      "outputs": [
        {
          "internalType": "bool",
          "name": "",
          "type": "bool"
        }
      ],
      "stateMutability": "nonpayable",
      "type": "function"
    },
    {
      "inputs": [
        {
          "internalType": "string",
          "name": "uri_",
          "type": "string"
        }
      ],
      "name": "setBaseURI",
      "outputs": [
        {
          "internalType": "bool",
          "name": "",
          "type": "bool"
        }
      ],
      "stateMutability": "nonpayable",
      "type": "function"
    },
    {
      "inputs": [
        {
          "internalType": "string",
          "name": "_tokenURI",
          "type": "string"
        },
        {
          "internalType": "uint96",
          "name": "_royaltyFee",
          "type": "uint96"
        },
        {
          "internalType": "uint256",
          "name": "supply",
          "type": "uint256"
        }
      ],
      "name": "mint",
      "outputs": [
        {
          "internalType": "uint256",
          "name": "_tokenId",
          "type": "uint256"
        }
      ],
      "stateMutability": "nonpayable",
      "type": "function"
    },
    {
      "inputs": [
        {
          "internalType": "uint256",
          "name": "tokenId",
          "type": "uint256"
        }
      ],
      "name": "uri",
      "outputs": [
        {
          "internalType": "string",
          "name": "",
          "type": "string"
        }
      ],
      "stateMutability": "view",
      "type": "function"
    },
    {
      "inputs": [
        {
          "internalType": "bytes4",
          "name": "interfaceId",
          "type": "bytes4"
        }
      ],
      "name": "supportsInterface",
      "outputs": [
        {
          "internalType": "bool",
          "name": "",
          "type": "bool"
        }
      ],
      "stateMutability": "view",
      "type": "function"
    }
  ],
  "bytecode": "0x60806040523480156200001157600080fd5b5060405162002fd038038062002fd083398101604081905262000034916200032a565b806200004081620000e5565b50805162000056906008906020840190620001b7565b50600b80546001600160a01b0319163390811790915562000099907fa49807205ce4d355092ef5a8a18f56e8913cf4a201fbe287825b095693c2177590620000fe565b8251620000ae906009906020860190620001b7565b508151620000c490600a906020850190620001b7565b50620000dc60066200010a60201b62000ce61760201c565b505050620003f7565b8051620000fa906002906020840190620001b7565b5050565b620000fa828262000113565b80546001019055565b60008281526005602090815260408083206001600160a01b038516845290915290205460ff16620000fa5760008281526005602090815260408083206001600160a01b03851684529091529020805460ff19166001179055620001733390565b6001600160a01b0316816001600160a01b0316837f2f8788117e7eff1d82e926ec794901d17c78024a50270940304540a733656f0d60405160405180910390a45050565b828054620001c590620003bb565b90600052602060002090601f016020900481019282620001e9576000855562000234565b82601f106200020457805160ff191683800117855562000234565b8280016001018555821562000234579182015b828111156200023457825182559160200191906001019062000217565b506200024292915062000246565b5090565b5b8082111562000242576000815560010162000247565b634e487b7160e01b600052604160045260246000fd5b600082601f8301126200028557600080fd5b81516001600160401b0380821115620002a257620002a26200025d565b604051601f8301601f19908116603f01168101908282118183101715620002cd57620002cd6200025d565b81604052838152602092508683858801011115620002ea57600080fd5b600091505b838210156200030e5785820183015181830184015290820190620002ef565b83821115620003205760008385830101525b9695505050505050565b6000806000606084860312156200034057600080fd5b83516001600160401b03808211156200035857600080fd5b620003668783880162000273565b945060208601519150808211156200037d57600080fd5b6200038b8783880162000273565b93506040860151915080821115620003a257600080fd5b50620003b18682870162000273565b9150509250925092565b600181811c90821680620003d057607f821691505b602082108103620003f157634e487b7160e01b600052602260045260246000fd5b50919050565b612bc980620004076000396000f3fe608060405234801561001057600080fd5b506004361061018d5760003560e01c806375b238fc116100de578063bd85b03911610097578063eca7b68111610071578063eca7b681146103e0578063f242432a146103f3578063f2fde38b14610406578063f5298aca1461041957600080fd5b8063bd85b03914610371578063d547741f14610391578063e985e9c5146103a457600080fd5b806375b238fc146102fb5780638da5cb5b1461031057806391d148541461033b57806395d89b411461034e578063a217fddf14610356578063a22cb4651461035e57600080fd5b80632eb2c2d61161014b5780634e1273f4116101255780634e1273f4146102935780634f558e79146102b357806355f804b3146102d55780636b20c454146102e857600080fd5b80632eb2c2d6146102585780632f2ff15d1461026d57806336568abe1461028057600080fd5b8062fdd58e1461019257806301ffc9a7146101b857806306fdde03146101db5780630e89341c146101f0578063248a9ca3146102035780632a55205a14610226575b600080fd5b6101a56101a0366004611f43565b61042c565b6040519081526020015b60405180910390f35b6101cb6101c6366004611f83565b6104c2565b60405190151581526020016101af565b6101e36104d3565b6040516101af9190611ff8565b6101e36101fe36600461200b565b610565565b6101a561021136600461200b565b60009081526005602052604090206001015490565b610239610234366004612024565b610713565b604080516001600160a01b0390931683526020830191909152016101af565b61026b61026636600461218f565b610779565b005b61026b61027b366004612238565b6107c5565b61026b61028e366004612238565b6107ef565b6102a66102a1366004612264565b61086d565b6040516101af9190612369565b6101cb6102c136600461200b565b600090815260036020526040902054151590565b6101cb6102e336600461237c565b610996565b61026b6102f63660046123b8565b610a24565b6101a5600080516020612b7483398151915281565b600b54610323906001600160a01b031681565b6040516001600160a01b0390911681526020016101af565b6101cb610349366004612238565b610a67565b6101e3610a92565b6101a5600081565b61026b61036c36600461242b565b610aa1565b6101a561037f36600461200b565b60009081526003602052604090205490565b61026b61039f366004612238565b610aac565b6101cb6103b2366004612467565b6001600160a01b03918216600090815260016020908152604080832093909416825291909152205460ff1690565b6101a56103ee366004612491565b610ad1565b61026b6104013660046124f6565b610b44565b6101cb61041436600461255a565b610b89565b61026b610427366004612575565b610ca3565b60006001600160a01b03831661049c5760405162461bcd60e51b815260206004820152602a60248201527f455243313135353a2061646472657373207a65726f206973206e6f742061207660448201526930b634b21037bbb732b960b11b60648201526084015b60405180910390fd5b506000908152602081815260408083206001600160a01b03949094168352929052205490565b60006104cd82610cef565b92915050565b6060600980546104e2906125a8565b80601f016020809104026020016040519081016040528092919081815260200182805461050e906125a8565b801561055b5780601f106105305761010080835404028352916020019161055b565b820191906000526020600020905b81548152906001019060200180831161053e57829003601f168201915b5050505050905090565b6000818152600360205260409020546060906105de5760405162461bcd60e51b815260206004820152603260248201527f4552433131353555524953746f726167653a2055524920717565727920666f72604482015271103737b732bc34b9ba32b73a103a37b5b2b760711b6064820152608401610493565b600082815260076020526040812080546105f7906125a8565b80601f0160208091040260200160405190810160405280929190818152602001828054610623906125a8565b80156106705780601f1061064557610100808354040283529160200191610670565b820191906000526020600020905b81548152906001019060200180831161065357829003601f168201915b5050505050905060088054610684906125a8565b90506000036106935792915050565b8051156106c5576008816040516020016106ae929190612675565b604051602081830303815290604052915050919050565b6000600880546106d4906125a8565b9050116106f0576040518060200160405280600081525061070c565b60086106fb84610d14565b6040516020016106ae929190612675565b9392505050565b60008281526004602090815260408083208151808301909252546001600160a01b0381168252600160a01b90046001600160601b0316918101829052829182906103e89061076190876126b0565b61076b91906126cf565b915196919550909350505050565b6001600160a01b038516331480610795575061079585336103b2565b6107b15760405162461bcd60e51b8152600401610493906126f1565b6107be8585858585610da6565b5050505050565b6000828152600560205260409020600101546107e081610f50565b6107ea8383610f5d565b505050565b6001600160a01b038116331461085f5760405162461bcd60e51b815260206004820152602f60248201527f416363657373436f6e74726f6c3a2063616e206f6e6c792072656e6f756e636560448201526e103937b632b9903337b91039b2b63360891b6064820152608401610493565b6108698282610fe3565b5050565b606081518351146108d25760405162461bcd60e51b815260206004820152602960248201527f455243313135353a206163636f756e747320616e6420696473206c656e677468604482015268040dad2e6dac2e8c6d60bb1b6064820152608401610493565b600083516001600160401b038111156108ed576108ed612046565b604051908082528060200260200182016040528015610916578160200160208202803683370190505b50905060005b845181101561098e5761096185828151811061093a5761093a61273f565b60200260200101518583815181106109545761095461273f565b602002602001015161042c565b8282815181106109735761097361273f565b602090810291909101015261098781612755565b905061091c565b509392505050565b6000600080516020612b748339815191526109b081610f50565b826040516109be919061276e565b604051809103902060086040516109d5919061278a565b604051908190038120907fc41b7cb64e5be01af4afc2641afc861432136270f4206b7773f229b658b9669990600090a38251610a18906008906020860190611e8e565b50600191505b50919050565b6001600160a01b038316331480610a405750610a4083336103b2565b610a5c5760405162461bcd60e51b8152600401610493906126f1565b6107ea83838361104a565b60009182526005602090815260408084206001600160a01b0393909316845291905290205460ff1690565b6060600a80546104e2906125a8565b6108693383836111e8565b600082815260056020526040902060010154610ac781610f50565b6107ea8383610fe3565b6000600080516020612b74833981519152610aeb81610f50565b6006549150610b0b338385604051806020016040528060008152506112c8565b60008281526007602090815260409091208651610b2a92880190611e8e565b50610b368233866113eb565b61098e600680546001019055565b6001600160a01b038516331480610b605750610b6085336103b2565b610b7c5760405162461bcd60e51b8152600401610493906126f1565b6107be85858585856114f9565b6000600080516020612b74833981519152610ba381610f50565b6001600160a01b038316610c085760405162461bcd60e51b815260206004820152602660248201527f4f776e61626c653a206e6577206f776e657220697320746865207a65726f206160448201526564647265737360d01b6064820152608401610493565b600b54610c2d90600080516020612b74833981519152906001600160a01b0316610fe3565b600b546040516001600160a01b038086169216907f8be0079c531659141344cd1fd0a4f28419497f9722a3daafe3b4186f6b6457e090600090a3600b80546001600160a01b0319166001600160a01b038516179055610c9a600080516020612b7483398151915284611631565b50600192915050565b6001600160a01b038316331480610cbf5750610cbf83336103b2565b610cdb5760405162461bcd60e51b8152600401610493906126f1565b6107ea83838361163b565b80546001019055565b60006001600160e01b03198216637965db0b60e01b14806104cd57506104cd82611753565b60606000610d2183611778565b60010190506000816001600160401b03811115610d4057610d40612046565b6040519080825280601f01601f191660200182016040528015610d6a576020820181803683370190505b5090508181016020015b600019016f181899199a1a9b1b9c1cb0b131b232b360811b600a86061a8153600a8504945084610d7457509392505050565b8151835114610dc75760405162461bcd60e51b815260040161049390612796565b6001600160a01b038416610ded5760405162461bcd60e51b8152600401610493906127de565b33610dfc818787878787611850565b60005b8451811015610ee2576000858281518110610e1c57610e1c61273f565b602002602001015190506000858381518110610e3a57610e3a61273f565b602090810291909101810151600084815280835260408082206001600160a01b038e168352909352919091205490915081811015610e8a5760405162461bcd60e51b815260040161049390612823565b6000838152602081815260408083206001600160a01b038e8116855292528083208585039055908b16825281208054849290610ec790849061286d565b9250508190555050505080610edb90612755565b9050610dff565b50846001600160a01b0316866001600160a01b0316826001600160a01b03167f4a39dc06d4c0dbc64b70af90fd698a233a518aa5d07e595d983b8c0526c8f7fb8787604051610f32929190612885565b60405180910390a4610f4881878787878761185e565b505050505050565b610f5a81336119b9565b50565b610f678282610a67565b6108695760008281526005602090815260408083206001600160a01b03851684529091529020805460ff19166001179055610f9f3390565b6001600160a01b0316816001600160a01b0316837f2f8788117e7eff1d82e926ec794901d17c78024a50270940304540a733656f0d60405160405180910390a45050565b610fed8282610a67565b156108695760008281526005602090815260408083206001600160a01b0385168085529252808320805460ff1916905551339285917ff6391f5c32d9c69d2a47ea670b442974b53935d1edc7fd64eb21e047a839171b9190a45050565b6001600160a01b0383166110705760405162461bcd60e51b8152600401610493906128b3565b80518251146110915760405162461bcd60e51b815260040161049390612796565b60003390506110b481856000868660405180602001604052806000815250611850565b60005b83518110156111795760008482815181106110d4576110d461273f565b6020026020010151905060008483815181106110f2576110f261273f565b602090810291909101810151600084815280835260408082206001600160a01b038c1683529093529190912054909150818110156111425760405162461bcd60e51b8152600401610493906128f6565b6000928352602083815260408085206001600160a01b038b168652909152909220910390558061117181612755565b9150506110b7565b5060006001600160a01b0316846001600160a01b0316826001600160a01b03167f4a39dc06d4c0dbc64b70af90fd698a233a518aa5d07e595d983b8c0526c8f7fb86866040516111ca929190612885565b60405180910390a46040805160208101909152600090525b50505050565b816001600160a01b0316836001600160a01b03160361125b5760405162461bcd60e51b815260206004820152602960248201527f455243313135353a2073657474696e6720617070726f76616c20737461747573604482015268103337b91039b2b63360b91b6064820152608401610493565b6001600160a01b03838116600081815260016020908152604080832094871680845294825291829020805460ff191686151590811790915591519182527f17307eab39ab6107e8899845ad3d59bd9653f200f220920489ca2b5937696c31910160405180910390a3505050565b6001600160a01b0384166113285760405162461bcd60e51b815260206004820152602160248201527f455243313135353a206d696e7420746f20746865207a65726f206164647265736044820152607360f81b6064820152608401610493565b33600061133485611a12565b9050600061134185611a12565b905061135283600089858589611850565b6000868152602081815260408083206001600160a01b038b1684529091528120805487929061138290849061286d565b909155505060408051878152602081018790526001600160a01b03808a1692600092918716917fc3d58168c5ae7397731d063d5bbf3d657854427343f4c083240f7aacaa2d0f62910160405180910390a46113e283600089898989611a5d565b50505050505050565b6103e86001600160601b03821611156114595760405162461bcd60e51b815260206004820152602a60248201527f455243323938313a20726f79616c7479206665652077696c6c206578636565646044820152692073616c65507269636560b01b6064820152608401610493565b6001600160a01b0382166114af5760405162461bcd60e51b815260206004820152601b60248201527f455243323938313a20496e76616c696420706172616d657465727300000000006044820152606401610493565b6040805180820182526001600160a01b0393841681526001600160601b0392831660208083019182526000968752600490529190942093519051909116600160a01b029116179055565b6001600160a01b03841661151f5760405162461bcd60e51b8152600401610493906127de565b33600061152b85611a12565b9050600061153885611a12565b9050611548838989858589611850565b6000868152602081815260408083206001600160a01b038c168452909152902054858110156115895760405162461bcd60e51b815260040161049390612823565b6000878152602081815260408083206001600160a01b038d8116855292528083208985039055908a168252812080548892906115c690849061286d565b909155505060408051888152602081018890526001600160a01b03808b16928c821692918816917fc3d58168c5ae7397731d063d5bbf3d657854427343f4c083240f7aacaa2d0f62910160405180910390a4611626848a8a8a8a8a611a5d565b505050505050505050565b6108698282610f5d565b6001600160a01b0383166116615760405162461bcd60e51b8152600401610493906128b3565b33600061166d84611a12565b9050600061167a84611a12565b905061169a83876000858560405180602001604052806000815250611850565b6000858152602081815260408083206001600160a01b038a168452909152902054848110156116db5760405162461bcd60e51b8152600401610493906128f6565b6000868152602081815260408083206001600160a01b038b81168086529184528285208a8703905582518b81529384018a90529092908816917fc3d58168c5ae7397731d063d5bbf3d657854427343f4c083240f7aacaa2d0f62910160405180910390a46040805160208101909152600090526113e2565b60006001600160e01b0319821663152a902d60e11b14806104cd57506104cd82611b18565b60008072184f03e93ff9f4daa797ed6e38ed64bf6a1f0160401b83106117b75772184f03e93ff9f4daa797ed6e38ed64bf6a1f0160401b830492506040015b6d04ee2d6d415b85acef810000000083106117e3576d04ee2d6d415b85acef8100000000830492506020015b662386f26fc10000831061180157662386f26fc10000830492506010015b6305f5e1008310611819576305f5e100830492506008015b612710831061182d57612710830492506004015b6064831061183f576064830492506002015b600a83106104cd5760010192915050565b610f48868686868686611b68565b6001600160a01b0384163b15610f485760405163bc197c8160e01b81526001600160a01b0385169063bc197c81906118a2908990899088908890889060040161293a565b6020604051808303816000875af19250505080156118dd575060408051601f3d908101601f191682019092526118da91810190612998565b60015b611989576118e96129b5565b806308c379a00361192257506118fd6129d1565b806119085750611924565b8060405162461bcd60e51b81526004016104939190611ff8565b505b60405162461bcd60e51b815260206004820152603460248201527f455243313135353a207472616e7366657220746f206e6f6e2d455243313135356044820152732932b1b2b4bb32b91034b6b83632b6b2b73a32b960611b6064820152608401610493565b6001600160e01b0319811663bc197c8160e01b146113e25760405162461bcd60e51b815260040161049390612a5a565b6119c38282610a67565b610869576119d081611ce1565b6119db836020611cf3565b6040516020016119ec929190612aa2565b60408051601f198184030181529082905262461bcd60e51b825261049391600401611ff8565b60408051600180825281830190925260609160009190602080830190803683370190505090508281600081518110611a4c57611a4c61273f565b602090810291909101015292915050565b6001600160a01b0384163b15610f485760405163f23a6e6160e01b81526001600160a01b0385169063f23a6e6190611aa19089908990889088908890600401612b17565b6020604051808303816000875af1925050508015611adc575060408051601f3d908101601f19168201909252611ad991810190612998565b60015b611ae8576118e96129b5565b6001600160e01b0319811663f23a6e6160e01b146113e25760405162461bcd60e51b815260040161049390612a5a565b60006001600160e01b03198216636cdb3d1360e11b1480611b4957506001600160e01b031982166303a24d0760e21b145b806104cd57506301ffc9a760e01b6001600160e01b03198316146104cd565b6001600160a01b038516611bef5760005b8351811015611bed57828181518110611b9457611b9461273f565b602002602001015160036000868481518110611bb257611bb261273f565b602002602001015181526020019081526020016000206000828254611bd7919061286d565b90915550611be6905081612755565b9050611b79565b505b6001600160a01b038416610f485760005b83518110156113e2576000848281518110611c1d57611c1d61273f565b602002602001015190506000848381518110611c3b57611c3b61273f565b6020026020010151905060006003600084815260200190815260200160002054905081811015611cbe5760405162461bcd60e51b815260206004820152602860248201527f455243313135353a206275726e20616d6f756e74206578636565647320746f74604482015267616c537570706c7960c01b6064820152608401610493565b60009283526003602052604090922091039055611cda81612755565b9050611c00565b60606104cd6001600160a01b03831660145b60606000611d028360026126b0565b611d0d90600261286d565b6001600160401b03811115611d2457611d24612046565b6040519080825280601f01601f191660200182016040528015611d4e576020820181803683370190505b509050600360fc1b81600081518110611d6957611d6961273f565b60200101906001600160f81b031916908160001a905350600f60fb1b81600181518110611d9857611d9861273f565b60200101906001600160f81b031916908160001a9053506000611dbc8460026126b0565b611dc790600161286d565b90505b6001811115611e3f576f181899199a1a9b1b9c1cb0b131b232b360811b85600f1660108110611dfb57611dfb61273f565b1a60f81b828281518110611e1157611e1161273f565b60200101906001600160f81b031916908160001a90535060049490941c93611e3881612b5c565b9050611dca565b50831561070c5760405162461bcd60e51b815260206004820181905260248201527f537472696e67733a20686578206c656e67746820696e73756666696369656e746044820152606401610493565b828054611e9a906125a8565b90600052602060002090601f016020900481019282611ebc5760008555611f02565b82601f10611ed557805160ff1916838001178555611f02565b82800160010185558215611f02579182015b82811115611f02578251825591602001919060010190611ee7565b50611f0e929150611f12565b5090565b5b80821115611f0e5760008155600101611f13565b80356001600160a01b0381168114611f3e57600080fd5b919050565b60008060408385031215611f5657600080fd5b611f5f83611f27565b946020939093013593505050565b6001600160e01b031981168114610f5a57600080fd5b600060208284031215611f9557600080fd5b813561070c81611f6d565b60005b83811015611fbb578181015183820152602001611fa3565b838111156111e25750506000910152565b60008151808452611fe4816020860160208601611fa0565b601f01601f19169290920160200192915050565b60208152600061070c6020830184611fcc565b60006020828403121561201d57600080fd5b5035919050565b6000806040838503121561203757600080fd5b50508035926020909101359150565b634e487b7160e01b600052604160045260246000fd5b601f8201601f191681016001600160401b038111828210171561208157612081612046565b6040525050565b60006001600160401b038211156120a1576120a1612046565b5060051b60200190565b600082601f8301126120bc57600080fd5b813560206120c982612088565b6040516120d6828261205c565b83815260059390931b85018201928281019150868411156120f657600080fd5b8286015b8481101561211157803583529183019183016120fa565b509695505050505050565b600082601f83011261212d57600080fd5b81356001600160401b0381111561214657612146612046565b60405161215d601f8301601f19166020018261205c565b81815284602083860101111561217257600080fd5b816020850160208301376000918101602001919091529392505050565b600080600080600060a086880312156121a757600080fd5b6121b086611f27565b94506121be60208701611f27565b935060408601356001600160401b03808211156121da57600080fd5b6121e689838a016120ab565b945060608801359150808211156121fc57600080fd5b61220889838a016120ab565b9350608088013591508082111561221e57600080fd5b5061222b8882890161211c565b9150509295509295909350565b6000806040838503121561224b57600080fd5b8235915061225b60208401611f27565b90509250929050565b6000806040838503121561227757600080fd5b82356001600160401b038082111561228e57600080fd5b818501915085601f8301126122a257600080fd5b813560206122af82612088565b6040516122bc828261205c565b83815260059390931b85018201928281019150898411156122dc57600080fd5b948201945b83861015612301576122f286611f27565b825294820194908201906122e1565b9650508601359250508082111561231757600080fd5b50612324858286016120ab565b9150509250929050565b600081518084526020808501945080840160005b8381101561235e57815187529582019590820190600101612342565b509495945050505050565b60208152600061070c602083018461232e565b60006020828403121561238e57600080fd5b81356001600160401b038111156123a457600080fd5b6123b08482850161211c565b949350505050565b6000806000606084860312156123cd57600080fd5b6123d684611f27565b925060208401356001600160401b03808211156123f257600080fd5b6123fe878388016120ab565b9350604086013591508082111561241457600080fd5b50612421868287016120ab565b9150509250925092565b6000806040838503121561243e57600080fd5b61244783611f27565b91506020830135801515811461245c57600080fd5b809150509250929050565b6000806040838503121561247a57600080fd5b61248383611f27565b915061225b60208401611f27565b6000806000606084860312156124a657600080fd5b83356001600160401b038111156124bc57600080fd5b6124c88682870161211c565b93505060208401356001600160601b03811681146124e557600080fd5b929592945050506040919091013590565b600080600080600060a0868803121561250e57600080fd5b61251786611f27565b945061252560208701611f27565b9350604086013592506060860135915060808601356001600160401b0381111561254e57600080fd5b61222b8882890161211c565b60006020828403121561256c57600080fd5b61070c82611f27565b60008060006060848603121561258a57600080fd5b61259384611f27565b95602085013595506040909401359392505050565b600181811c908216806125bc57607f821691505b602082108103610a1e57634e487b7160e01b600052602260045260246000fd5b8054600090600181811c90808316806125f657607f831692505b6020808410820361261757634e487b7160e01b600052602260045260246000fd5b81801561262b576001811461263c57612669565b60ff19861689528489019650612669565b60008881526020902060005b868110156126615781548b820152908501908301612648565b505084890196505b50505050505092915050565b600061268182856125dc565b8351612691818360208801611fa0565b01949350505050565b634e487b7160e01b600052601160045260246000fd5b60008160001904831182151516156126ca576126ca61269a565b500290565b6000826126ec57634e487b7160e01b600052601260045260246000fd5b500490565b6020808252602e908201527f455243313135353a2063616c6c6572206973206e6f7420746f6b656e206f776e60408201526d195c881bdc88185c1c1c9bdd995960921b606082015260800190565b634e487b7160e01b600052603260045260246000fd5b6000600182016127675761276761269a565b5060010190565b60008251612780818460208701611fa0565b9190910192915050565b600061070c82846125dc565b60208082526028908201527f455243313135353a2069647320616e6420616d6f756e7473206c656e677468206040820152670dad2e6dac2e8c6d60c31b606082015260800190565b60208082526025908201527f455243313135353a207472616e7366657220746f20746865207a65726f206164604082015264647265737360d81b606082015260800190565b6020808252602a908201527f455243313135353a20696e73756666696369656e742062616c616e636520666f60408201526939103a3930b739b332b960b11b606082015260800190565b600082198211156128805761288061269a565b500190565b604081526000612898604083018561232e565b82810360208401526128aa818561232e565b95945050505050565b60208082526023908201527f455243313135353a206275726e2066726f6d20746865207a65726f206164647260408201526265737360e81b606082015260800190565b60208082526024908201527f455243313135353a206275726e20616d6f756e7420657863656564732062616c604082015263616e636560e01b606082015260800190565b6001600160a01b0386811682528516602082015260a0604082018190526000906129669083018661232e565b8281036060840152612978818661232e565b9050828103608084015261298c8185611fcc565b98975050505050505050565b6000602082840312156129aa57600080fd5b815161070c81611f6d565b600060033d11156129ce5760046000803e5060005160e01c5b90565b600060443d10156129df5790565b6040516003193d81016004833e81513d6001600160401b038160248401118184111715612a0e57505050505090565b8285019150815181811115612a265750505050505090565b843d8701016020828501011115612a405750505050505090565b612a4f6020828601018761205c565b509095945050505050565b60208082526028908201527f455243313135353a204552433131353552656365697665722072656a656374656040820152676420746f6b656e7360c01b606082015260800190565b7f416363657373436f6e74726f6c3a206163636f756e7420000000000000000000815260008351612ada816017850160208801611fa0565b7001034b99036b4b9b9b4b733903937b6329607d1b6017918401918201528351612b0b816028840160208801611fa0565b01602801949350505050565b6001600160a01b03868116825285166020820152604081018490526060810183905260a060808201819052600090612b5190830184611fcc565b979650505050505050565b600081612b6b57612b6b61269a565b50600019019056fea49807205ce4d355092ef5a8a18f56e8913cf4a201fbe287825b095693c21775a2646970667358221220c2b29b32d4ec7b08b4e607fb44a225a095f9491a7e48a147e4aeec11cc355c7f64736f6c634300080e0033",
  "immutableReferences": {},
  "source": "// SPDX-License-Identifier: UNLICENSED\r\npragma solidity 0.8.14;\r\n\r\nimport \"@openzeppelin/contracts/token/ERC1155/extensions/ERC1155Burnable.sol\";\r\nimport \"@openzeppelin/contracts/token/ERC1155/extensions/ERC1155Supply.sol\";\r\nimport \"@openzeppelin/contracts/utils/Context.sol\";\r\nimport \"@openzeppelin/contracts/utils/Counters.sol\";\r\nimport \"@openzeppelin/contracts/utils/Strings.sol\";\r\nimport \"@openzeppelin/contracts/access/AccessControl.sol\";\r\nimport \"./common/ERC2981.sol\";\r\n\r\ncontract LootmogulUser1155Token is\r\n    Context,\r\n    ERC1155Burnable,\r\n    ERC1155Supply,\r\n    ERC2981,\r\n    AccessControl\r\n{\r\n    using Counters for Counters.Counter;\r\n    using Strings for uint256;\r\n    Counters.Counter private _tokenIdTracker;\r\n    mapping(uint256 => string) private _tokenURIs;\r\n\r\n    // Create a new role identifier for the minter role\r\n    bytes32 public constant ADMIN_ROLE = keccak256(\"ADMIN_ROLE\");\r\n\r\n    string private baseTokenURI;\r\n    string private _name;\r\n    string private _symbol;\r\n    address public owner;\r\n\r\n    event OwnershipTransferred(\r\n        address indexed previousOwner,\r\n        address indexed newOwner\r\n    );\r\n\r\n    event BaseURIChanged(string indexed uri, string indexed newuri);\r\n\r\n    constructor(\r\n        string memory _tokenName,\r\n        string memory _tokenSymbol,\r\n        string memory _baseTokenURI\r\n    ) ERC1155(_baseTokenURI) {\r\n        baseTokenURI = _baseTokenURI;\r\n        owner = _msgSender();\r\n        _setupRole(ADMIN_ROLE, msg.sender);\r\n        _name = _tokenName;\r\n        _symbol = _tokenSymbol;\r\n        _tokenIdTracker.increment();\r\n    }\r\n\r\n    function name() external view returns (string memory) {\r\n        return _name;\r\n    }\r\n\r\n    function symbol() external view returns (string memory) {\r\n        return _symbol;\r\n    }\r\n\r\n    /** @dev change the Ownership from current owner to newOwner address\r\n        @param newOwner : newOwner address \r\n    */\r\n\r\n    function transferOwnership(\r\n        address newOwner\r\n    ) external onlyRole(ADMIN_ROLE) returns (bool) {\r\n        require(\r\n            newOwner != address(0),\r\n            \"Ownable: new owner is the zero address\"\r\n        );\r\n        _revokeRole(ADMIN_ROLE, owner);\r\n        emit OwnershipTransferred(owner, newOwner);\r\n        owner = newOwner;\r\n        _setupRole(ADMIN_ROLE, newOwner);\r\n        return true;\r\n    }\r\n\r\n    function setBaseURI(\r\n        string memory uri_\r\n    ) external onlyRole(ADMIN_ROLE) returns (bool) {\r\n        emit BaseURIChanged(baseTokenURI, uri_);\r\n        baseTokenURI = uri_;\r\n        return true;\r\n    }\r\n\r\n    function mint(\r\n        string memory _tokenURI,\r\n        uint96 _royaltyFee,\r\n        uint256 supply\r\n    ) external virtual onlyRole(ADMIN_ROLE) returns (uint256 _tokenId) {\r\n        // We cannot just use balanceOf to create the new tokenId because tokens\r\n        // can be burned (destroyed), so we need a separate counter.\r\n        _tokenId = _tokenIdTracker.current();\r\n        _mint(_msgSender(), _tokenId, supply, \"\");\r\n        _tokenURIs[_tokenId] = _tokenURI;\r\n        _setTokenRoyalty(_tokenId, _msgSender(), _royaltyFee);\r\n        _tokenIdTracker.increment();\r\n        return _tokenId;\r\n    }\r\n\r\n    function uri(\r\n        uint256 tokenId\r\n    ) public view virtual override returns (string memory) {\r\n        require(\r\n            exists(tokenId),\r\n            \"ERC1155URIStorage: URI query for nonexistent token\"\r\n        );\r\n\r\n        string memory _tokenURI = _tokenURIs[tokenId];\r\n        // If there is no base URI, return the token URI.\r\n        if (bytes(baseTokenURI).length == 0) {\r\n            return _tokenURI;\r\n        }\r\n        // If both are set, concatenate the baseURI and tokenURI (via abi.encodePacked).\r\n        if (bytes(_tokenURI).length > 0) {\r\n            return string(abi.encodePacked(baseTokenURI, _tokenURI));\r\n        }\r\n        return\r\n            bytes(baseTokenURI).length > 0\r\n                ? string(abi.encodePacked(baseTokenURI, tokenId.toString()))\r\n                : \"\";\r\n    }\r\n\r\n    /**\r\n     * @dev See {IERC165-supportsInterface}.\r\n     */\r\n    function supportsInterface(\r\n        bytes4 interfaceId\r\n    )\r\n        public\r\n        view\r\n        virtual\r\n        override(ERC2981, ERC1155, AccessControl)\r\n        returns (bool)\r\n    {\r\n        return super.supportsInterface(interfaceId);\r\n    }\r\n\r\n    function _beforeTokenTransfer(\r\n        address _operator,\r\n        address from,\r\n        address to,\r\n        uint256[] memory ids,\r\n        uint256[] memory amounts,\r\n        bytes memory data\r\n    ) internal virtual override(ERC1155Supply, ERC1155) {\r\n        super._beforeTokenTransfer(_operator, from, to, ids, amounts, data);\r\n    }\r\n}\r\n",
  "sourcePath": "C:\\Users\\Yash\\Desktop\\Temporary\\Github\\marketplace\\src\\contracts\\OwnCollection1155.sol",
  "compiler": {
    "name": "solc",
    "version": "0.8.14+commit.80d49f37.Emscripten.clang"
  },
  "schemaVersion": "3.4.13",
  "updatedAt": "2023-05-17T11:08:45.497Z",
  "devdoc": {
    "kind": "dev",
    "methods": {
      "balanceOf(address,uint256)": {
        "details": "See {IERC1155-balanceOf}. Requirements: - `account` cannot be the zero address."
      },
      "balanceOfBatch(address[],uint256[])": {
        "details": "See {IERC1155-balanceOfBatch}. Requirements: - `accounts` and `ids` must have the same length."
      },
      "exists(uint256)": {
        "details": "Indicates whether any token exist with a given id, or not."
      },
      "getRoleAdmin(bytes32)": {
        "details": "Returns the admin role that controls `role`. See {grantRole} and {revokeRole}. To change a role's admin, use {_setRoleAdmin}."
      },
      "grantRole(bytes32,address)": {
        "details": "Grants `role` to `account`. If `account` had not been already granted `role`, emits a {RoleGranted} event. Requirements: - the caller must have ``role``'s admin role. May emit a {RoleGranted} event."
      },
      "hasRole(bytes32,address)": {
        "details": "Returns `true` if `account` has been granted `role`."
      },
      "isApprovedForAll(address,address)": {
        "details": "See {IERC1155-isApprovedForAll}."
      },
      "renounceRole(bytes32,address)": {
        "details": "Revokes `role` from the calling account. Roles are often managed via {grantRole} and {revokeRole}: this function's purpose is to provide a mechanism for accounts to lose their privileges if they are compromised (such as when a trusted device is misplaced). If the calling account had been revoked `role`, emits a {RoleRevoked} event. Requirements: - the caller must be `account`. May emit a {RoleRevoked} event."
      },
      "revokeRole(bytes32,address)": {
        "details": "Revokes `role` from `account`. If `account` had been granted `role`, emits a {RoleRevoked} event. Requirements: - the caller must have ``role``'s admin role. May emit a {RoleRevoked} event."
      },
      "royaltyInfo(uint256,uint256)": {
        "details": "Returns how much royalty is owed and to whom, based on a sale price that may be denominated in any unit of exchange. The royalty amount is denominated and should be paid in that same unit of exchange."
      },
      "safeBatchTransferFrom(address,address,uint256[],uint256[],bytes)": {
        "details": "See {IERC1155-safeBatchTransferFrom}."
      },
      "safeTransferFrom(address,address,uint256,uint256,bytes)": {
        "details": "See {IERC1155-safeTransferFrom}."
      },
      "setApprovalForAll(address,bool)": {
        "details": "See {IERC1155-setApprovalForAll}."
      },
      "supportsInterface(bytes4)": {
        "details": "See {IERC165-supportsInterface}."
      },
      "totalSupply(uint256)": {
        "details": "Total amount of tokens in with a given id."
      },
      "transferOwnership(address)": {
        "details": "change the Ownership from current owner to newOwner address",
        "params": {
          "newOwner": ": newOwner address "
        }
      }
    },
    "version": 1
  },
  "userdoc": {
    "kind": "user",
    "methods": {},
    "version": 1
  }
}