{
  "contractName": "LootmogulUser1155Token",
  "abi": [
    {
      "inputs": [
        {
          "internalType": "string",
          "name": "_tokenName",
          "type": "string"
        },
        {
          "internalType": "string",
          "name": "_tokenSymbol",
          "type": "string"
        },
        {
          "internalType": "string",
          "name": "_baseTokenURI",
          "type": "string"
        }
      ],
      "stateMutability": "nonpayable",
      "type": "constructor"
    },
    {
      "anonymous": false,
      "inputs": [
        {
          "indexed": true,
          "internalType": "address",
          "name": "account",
          "type": "address"
        },
        {
          "indexed": true,
          "internalType": "address",
          "name": "operator",
          "type": "address"
        },
        {
          "indexed": false,
          "internalType": "bool",
          "name": "approved",
          "type": "bool"
        }
      ],
      "name": "ApprovalForAll",
      "type": "event"
    },
    {
      "anonymous": false,
      "inputs": [
        {
          "indexed": true,
          "internalType": "string",
          "name": "uri",
          "type": "string"
        },
        {
          "indexed": true,
          "internalType": "string",
          "name": "newuri",
          "type": "string"
        }
      ],
      "name": "BaseURIChanged",
      "type": "event"
    },
    {
      "anonymous": false,
      "inputs": [
        {
          "indexed": true,
          "internalType": "address",
          "name": "previousOwner",
          "type": "address"
        },
        {
          "indexed": true,
          "internalType": "address",
          "name": "newOwner",
          "type": "address"
        }
      ],
      "name": "OwnershipTransferred",
      "type": "event"
    },
    {
      "anonymous": false,
      "inputs": [
        {
          "indexed": true,
          "internalType": "bytes32",
          "name": "role",
          "type": "bytes32"
        },
        {
          "indexed": true,
          "internalType": "bytes32",
          "name": "previousAdminRole",
          "type": "bytes32"
        },
        {
          "indexed": true,
          "internalType": "bytes32",
          "name": "newAdminRole",
          "type": "bytes32"
        }
      ],
      "name": "RoleAdminChanged",
      "type": "event"
    },
    {
      "anonymous": false,
      "inputs": [
        {
          "indexed": true,
          "internalType": "bytes32",
          "name": "role",
          "type": "bytes32"
        },
        {
          "indexed": true,
          "internalType": "address",
          "name": "account",
          "type": "address"
        },
        {
          "indexed": true,
          "internalType": "address",
          "name": "sender",
          "type": "address"
        }
      ],
      "name": "RoleGranted",
      "type": "event"
    },
    {
      "anonymous": false,
      "inputs": [
        {
          "indexed": true,
          "internalType": "bytes32",
          "name": "role",
          "type": "bytes32"
        },
        {
          "indexed": true,
          "internalType": "address",
          "name": "account",
          "type": "address"
        },
        {
          "indexed": true,
          "internalType": "address",
          "name": "sender",
          "type": "address"
        }
      ],
      "name": "RoleRevoked",
      "type": "event"
    },
    {
      "anonymous": false,
      "inputs": [
        {
          "indexed": true,
          "internalType": "address",
          "name": "operator",
          "type": "address"
        },
        {
          "indexed": true,
          "internalType": "address",
          "name": "from",
          "type": "address"
        },
        {
          "indexed": true,
          "internalType": "address",
          "name": "to",
          "type": "address"
        },
        {
          "indexed": false,
          "internalType": "uint256[]",
          "name": "ids",
          "type": "uint256[]"
        },
        {
          "indexed": false,
          "internalType": "uint256[]",
          "name": "values",
          "type": "uint256[]"
        }
      ],
      "name": "TransferBatch",
      "type": "event"
    },
    {
      "anonymous": false,
      "inputs": [
        {
          "indexed": true,
          "internalType": "address",
          "name": "operator",
          "type": "address"
        },
        {
          "indexed": true,
          "internalType": "address",
          "name": "from",
          "type": "address"
        },
        {
          "indexed": true,
          "internalType": "address",
          "name": "to",
          "type": "address"
        },
        {
          "indexed": false,
          "internalType": "uint256",
          "name": "id",
          "type": "uint256"
        },
        {
          "indexed": false,
          "internalType": "uint256",
          "name": "value",
          "type": "uint256"
        }
      ],
      "name": "TransferSingle",
      "type": "event"
    },
    {
      "anonymous": false,
      "inputs": [
        {
          "indexed": false,
          "internalType": "string",
          "name": "value",
          "type": "string"
        },
        {
          "indexed": true,
          "internalType": "uint256",
          "name": "id",
          "type": "uint256"
        }
      ],
      "name": "URI",
      "type": "event"
    },
    {
      "inputs": [],
      "name": "ADMIN_ROLE",
      "outputs": [
        {
          "internalType": "bytes32",
          "name": "",
          "type": "bytes32"
        }
      ],
      "stateMutability": "view",
      "type": "function"
    },
    {
      "inputs": [],
      "name": "DEFAULT_ADMIN_ROLE",
      "outputs": [
        {
          "internalType": "bytes32",
          "name": "",
          "type": "bytes32"
        }
      ],
      "stateMutability": "view",
      "type": "function"
    },
    {
      "inputs": [
        {
          "internalType": "address",
          "name": "account",
          "type": "address"
        },
        {
          "internalType": "uint256",
          "name": "id",
          "type": "uint256"
        }
      ],
      "name": "balanceOf",
      "outputs": [
        {
          "internalType": "uint256",
          "name": "",
          "type": "uint256"
        }
      ],
      "stateMutability": "view",
      "type": "function"
    },
    {
      "inputs": [
        {
          "internalType": "address[]",
          "name": "accounts",
          "type": "address[]"
        },
        {
          "internalType": "uint256[]",
          "name": "ids",
          "type": "uint256[]"
        }
      ],
      "name": "balanceOfBatch",
      "outputs": [
        {
          "internalType": "uint256[]",
          "name": "",
          "type": "uint256[]"
        }
      ],
      "stateMutability": "view",
      "type": "function"
    },
    {
      "inputs": [
        {
          "internalType": "address",
          "name": "account",
          "type": "address"
        },
        {
          "internalType": "uint256",
          "name": "id",
          "type": "uint256"
        },
        {
          "internalType": "uint256",
          "name": "value",
          "type": "uint256"
        }
      ],
      "name": "burn",
      "outputs": [],
      "stateMutability": "nonpayable",
      "type": "function"
    },
    {
      "inputs": [
        {
          "internalType": "address",
          "name": "account",
          "type": "address"
        },
        {
          "internalType": "uint256[]",
          "name": "ids",
          "type": "uint256[]"
        },
        {
          "internalType": "uint256[]",
          "name": "values",
          "type": "uint256[]"
        }
      ],
      "name": "burnBatch",
      "outputs": [],
      "stateMutability": "nonpayable",
      "type": "function"
    },
    {
      "inputs": [
        {
          "internalType": "uint256",
          "name": "id",
          "type": "uint256"
        }
      ],
      "name": "exists",
      "outputs": [
        {
          "internalType": "bool",
          "name": "",
          "type": "bool"
        }
      ],
      "stateMutability": "view",
      "type": "function"
    },
    {
      "inputs": [
        {
          "internalType": "bytes32",
          "name": "role",
          "type": "bytes32"
        }
      ],
      "name": "getRoleAdmin",
      "outputs": [
        {
          "internalType": "bytes32",
          "name": "",
          "type": "bytes32"
        }
      ],
      "stateMutability": "view",
      "type": "function"
    },
    {
      "inputs": [
        {
          "internalType": "bytes32",
          "name": "role",
          "type": "bytes32"
        },
        {
          "internalType": "address",
          "name": "account",
          "type": "address"
        }
      ],
      "name": "grantRole",
      "outputs": [],
      "stateMutability": "nonpayable",
      "type": "function"
    },
    {
      "inputs": [
        {
          "internalType": "bytes32",
          "name": "role",
          "type": "bytes32"
        },
        {
          "internalType": "address",
          "name": "account",
          "type": "address"
        }
      ],
      "name": "hasRole",
      "outputs": [
        {
          "internalType": "bool",
          "name": "",
          "type": "bool"
        }
      ],
      "stateMutability": "view",
      "type": "function"
    },
    {
      "inputs": [
        {
          "internalType": "address",
          "name": "account",
          "type": "address"
        },
        {
          "internalType": "address",
          "name": "operator",
          "type": "address"
        }
      ],
      "name": "isApprovedForAll",
      "outputs": [
        {
          "internalType": "bool",
          "name": "",
          "type": "bool"
        }
      ],
      "stateMutability": "view",
      "type": "function"
    },
    {
      "inputs": [],
      "name": "owner",
      "outputs": [
        {
          "internalType": "address",
          "name": "",
          "type": "address"
        }
      ],
      "stateMutability": "view",
      "type": "function"
    },
    {
      "inputs": [
        {
          "internalType": "bytes32",
          "name": "role",
          "type": "bytes32"
        },
        {
          "internalType": "address",
          "name": "account",
          "type": "address"
        }
      ],
      "name": "renounceRole",
      "outputs": [],
      "stateMutability": "nonpayable",
      "type": "function"
    },
    {
      "inputs": [
        {
          "internalType": "bytes32",
          "name": "role",
          "type": "bytes32"
        },
        {
          "internalType": "address",
          "name": "account",
          "type": "address"
        }
      ],
      "name": "revokeRole",
      "outputs": [],
      "stateMutability": "nonpayable",
      "type": "function"
    },
    {
      "inputs": [
        {
          "internalType": "uint256",
          "name": "_tokenId",
          "type": "uint256"
        },
        {
          "internalType": "uint256",
          "name": "_salePrice",
          "type": "uint256"
        }
      ],
      "name": "royaltyInfo",
      "outputs": [
        {
          "internalType": "address",
          "name": "",
          "type": "address"
        },
        {
          "internalType": "uint256",
          "name": "",
          "type": "uint256"
        }
      ],
      "stateMutability": "view",
      "type": "function"
    },
    {
      "inputs": [
        {
          "internalType": "address",
          "name": "from",
          "type": "address"
        },
        {
          "internalType": "address",
          "name": "to",
          "type": "address"
        },
        {
          "internalType": "uint256[]",
          "name": "ids",
          "type": "uint256[]"
        },
        {
          "internalType": "uint256[]",
          "name": "amounts",
          "type": "uint256[]"
        },
        {
          "internalType": "bytes",
          "name": "data",
          "type": "bytes"
        }
      ],
      "name": "safeBatchTransferFrom",
      "outputs": [],
      "stateMutability": "nonpayable",
      "type": "function"
    },
    {
      "inputs": [
        {
          "internalType": "address",
          "name": "from",
          "type": "address"
        },
        {
          "internalType": "address",
          "name": "to",
          "type": "address"
        },
        {
          "internalType": "uint256",
          "name": "id",
          "type": "uint256"
        },
        {
          "internalType": "uint256",
          "name": "amount",
          "type": "uint256"
        },
        {
          "internalType": "bytes",
          "name": "data",
          "type": "bytes"
        }
      ],
      "name": "safeTransferFrom",
      "outputs": [],
      "stateMutability": "nonpayable",
      "type": "function"
    },
    {
      "inputs": [
        {
          "internalType": "address",
          "name": "operator",
          "type": "address"
        },
        {
          "internalType": "bool",
          "name": "approved",
          "type": "bool"
        }
      ],
      "name": "setApprovalForAll",
      "outputs": [],
      "stateMutability": "nonpayable",
      "type": "function"
    },
    {
      "inputs": [
        {
          "internalType": "uint256",
          "name": "id",
          "type": "uint256"
        }
      ],
      "name": "totalSupply",
      "outputs": [
        {
          "internalType": "uint256",
          "name": "",
          "type": "uint256"
        }
      ],
      "stateMutability": "view",
      "type": "function"
    },
    {
      "inputs": [],
      "name": "name",
      "outputs": [
        {
          "internalType": "string",
          "name": "",
          "type": "string"
        }
      ],
      "stateMutability": "view",
      "type": "function"
    },
    {
      "inputs": [],
      "name": "symbol",
      "outputs": [
        {
          "internalType": "string",
          "name": "",
          "type": "string"
        }
      ],
      "stateMutability": "view",
      "type": "function"
    },
    {
      "inputs": [
        {
          "internalType": "address",
          "name": "newOwner",
          "type": "address"
        }
      ],
      "name": "transferOwnership",
      "outputs": [
        {
          "internalType": "bool",
          "name": "",
          "type": "bool"
        }
      ],
      "stateMutability": "nonpayable",
      "type": "function"
    },
    {
      "inputs": [
        {
          "internalType": "string",
          "name": "uri_",
          "type": "string"
        }
      ],
      "name": "setBaseURI",
      "outputs": [
        {
          "internalType": "bool",
          "name": "",
          "type": "bool"
        }
      ],
      "stateMutability": "nonpayable",
      "type": "function"
    },
    {
      "inputs": [
        {
          "internalType": "string",
          "name": "_tokenURI",
          "type": "string"
        },
        {
          "internalType": "uint96",
          "name": "_royaltyFee",
          "type": "uint96"
        },
        {
          "internalType": "uint256",
          "name": "supply",
          "type": "uint256"
        }
      ],
      "name": "mint",
      "outputs": [
        {
          "internalType": "uint256",
          "name": "_tokenId",
          "type": "uint256"
        }
      ],
      "stateMutability": "nonpayable",
      "type": "function"
    },
    {
      "inputs": [
        {
          "internalType": "uint256",
          "name": "tokenId",
          "type": "uint256"
        }
      ],
      "name": "uri",
      "outputs": [
        {
          "internalType": "string",
          "name": "",
          "type": "string"
        }
      ],
      "stateMutability": "view",
      "type": "function"
    },
    {
      "inputs": [
        {
          "internalType": "bytes4",
          "name": "interfaceId",
          "type": "bytes4"
        }
      ],
      "name": "supportsInterface",
      "outputs": [
        {
          "internalType": "bool",
          "name": "",
          "type": "bool"
        }
      ],
      "stateMutability": "view",
      "type": "function"
    }
  ],
  "bytecode": "0x60806040523480156200001157600080fd5b50604051620057e9380380620057e9833981810160405281019062000037919062000531565b8062000049816200013760201b60201c565b50806008908051906020019062000062929190620002e4565b50620000736200015360201b60201c565b600b60006101000a81548173ffffffffffffffffffffffffffffffffffffffff021916908373ffffffffffffffffffffffffffffffffffffffff160217905550620000e57fa49807205ce4d355092ef5a8a18f56e8913cf4a201fbe287825b095693c21775336200015b60201b60201c565b8260099080519060200190620000fd929190620002e4565b5081600a908051906020019062000116929190620002e4565b506200012e60066200017160201b620013581760201c565b5050506200064e565b80600290805190602001906200014f929190620002e4565b5050565b600033905090565b6200016d82826200018760201b60201c565b5050565b6001816000016000828254019250508190555050565b6200019982826200027960201b60201c565b620002755760016005600084815260200190815260200160002060000160008373ffffffffffffffffffffffffffffffffffffffff1673ffffffffffffffffffffffffffffffffffffffff16815260200190815260200160002060006101000a81548160ff0219169083151502179055506200021a6200015360201b60201c565b73ffffffffffffffffffffffffffffffffffffffff168173ffffffffffffffffffffffffffffffffffffffff16837f2f8788117e7eff1d82e926ec794901d17c78024a50270940304540a733656f0d60405160405180910390a45b5050565b60006005600084815260200190815260200160002060000160008373ffffffffffffffffffffffffffffffffffffffff1673ffffffffffffffffffffffffffffffffffffffff16815260200190815260200160002060009054906101000a900460ff16905092915050565b828054620002f29062000619565b90600052602060002090601f01602090048101928262000316576000855562000362565b82601f106200033157805160ff191683800117855562000362565b8280016001018555821562000362579182015b828111156200036157825182559160200191906001019062000344565b5b50905062000371919062000375565b5090565b5b808211156200039057600081600090555060010162000376565b5090565b6000604051905090565b600080fd5b600080fd5b600080fd5b600080fd5b6000601f19601f8301169050919050565b7f4e487b7100000000000000000000000000000000000000000000000000000000600052604160045260246000fd5b620003fd82620003b2565b810181811067ffffffffffffffff821117156200041f576200041e620003c3565b5b80604052505050565b60006200043462000394565b9050620004428282620003f2565b919050565b600067ffffffffffffffff821115620004655762000464620003c3565b5b6200047082620003b2565b9050602081019050919050565b60005b838110156200049d57808201518184015260208101905062000480565b83811115620004ad576000848401525b50505050565b6000620004ca620004c48462000447565b62000428565b905082815260208101848484011115620004e957620004e8620003ad565b5b620004f68482856200047d565b509392505050565b600082601f830112620005165762000515620003a8565b5b815162000528848260208601620004b3565b91505092915050565b6000806000606084860312156200054d576200054c6200039e565b5b600084015167ffffffffffffffff8111156200056e576200056d620003a3565b5b6200057c86828701620004fe565b935050602084015167ffffffffffffffff811115620005a0576200059f620003a3565b5b620005ae86828701620004fe565b925050604084015167ffffffffffffffff811115620005d257620005d1620003a3565b5b620005e086828701620004fe565b9150509250925092565b7f4e487b7100000000000000000000000000000000000000000000000000000000600052602260045260246000fd5b600060028204905060018216806200063257607f821691505b602082108103620006485762000647620005ea565b5b50919050565b61518b806200065e6000396000f3fe608060405234801561001057600080fd5b506004361061018d5760003560e01c806375b238fc116100de578063bd85b03911610097578063eca7b68111610071578063eca7b681146104e1578063f242432a14610511578063f2fde38b1461052d578063f5298aca1461055d5761018d565b8063bd85b03914610465578063d547741f14610495578063e985e9c5146104b15761018d565b806375b238fc146103a15780638da5cb5b146103bf57806391d14854146103dd57806395d89b411461040d578063a217fddf1461042b578063a22cb465146104495761018d565b80632eb2c2d61161014b5780634e1273f4116101255780634e1273f4146102f55780634f558e791461032557806355f804b3146103555780636b20c454146103855761018d565b80632eb2c2d6146102a15780632f2ff15d146102bd57806336568abe146102d95761018d565b8062fdd58e1461019257806301ffc9a7146101c257806306fdde03146101f25780630e89341c14610210578063248a9ca3146102405780632a55205a14610270575b600080fd5b6101ac60048036038101906101a791906133e1565b610579565b6040516101b99190613430565b60405180910390f35b6101dc60048036038101906101d791906134a3565b610641565b6040516101e991906134eb565b60405180910390f35b6101fa610653565b604051610207919061359f565b60405180910390f35b61022a600480360381019061022591906135c1565b6106e5565b604051610237919061359f565b60405180910390f35b61025a60048036038101906102559190613624565b610883565b6040516102679190613660565b60405180910390f35b61028a6004803603810190610285919061367b565b6108a3565b6040516102989291906136ca565b60405180910390f35b6102bb60048036038101906102b691906138f0565b6109b1565b005b6102d760048036038101906102d291906139bf565b610a52565b005b6102f360048036038101906102ee91906139bf565b610a73565b005b61030f600480360381019061030a9190613ac2565b610af6565b60405161031c9190613bf8565b60405180910390f35b61033f600480360381019061033a91906135c1565b610c0f565b60405161034c91906134eb565b60405180910390f35b61036f600480360381019061036a9190613cbb565b610c23565b60405161037c91906134eb565b60405180910390f35b61039f600480360381019061039a9190613d04565b610cc9565b005b6103a9610d66565b6040516103b69190613660565b60405180910390f35b6103c7610d8a565b6040516103d49190613d8f565b60405180910390f35b6103f760048036038101906103f291906139bf565b610db0565b60405161040491906134eb565b60405180910390f35b610415610e1b565b604051610422919061359f565b60405180910390f35b610433610ead565b6040516104409190613660565b60405180910390f35b610463600480360381019061045e9190613dd6565b610eb4565b005b61047f600480360381019061047a91906135c1565b610eca565b60405161048c9190613430565b60405180910390f35b6104af60048036038101906104aa91906139bf565b610ee7565b005b6104cb60048036038101906104c69190613e16565b610f08565b6040516104d891906134eb565b60405180910390f35b6104fb60048036038101906104f69190613e9a565b610f9c565b6040516105089190613430565b60405180910390f35b61052b60048036038101906105269190613f09565b611042565b005b61054760048036038101906105429190613fa0565b6110e3565b60405161055491906134eb565b60405180910390f35b61057760048036038101906105729190613fcd565b6112bb565b005b60008073ffffffffffffffffffffffffffffffffffffffff168373ffffffffffffffffffffffffffffffffffffffff16036105e9576040517f08c379a00000000000000000000000000000000000000000000000000000000081526004016105e090614092565b60405180910390fd5b60008083815260200190815260200160002060008473ffffffffffffffffffffffffffffffffffffffff1673ffffffffffffffffffffffffffffffffffffffff16815260200190815260200160002054905092915050565b600061064c8261136e565b9050919050565b606060098054610662906140e1565b80601f016020809104026020016040519081016040528092919081815260200182805461068e906140e1565b80156106db5780601f106106b0576101008083540402835291602001916106db565b820191906000526020600020905b8154815290600101906020018083116106be57829003601f168201915b5050505050905090565b60606106f082610c0f565b61072f576040517f08c379a000000000000000000000000000000000000000000000000000000000815260040161072690614184565b60405180910390fd5b600060076000848152602001908152602001600020805461074f906140e1565b80601f016020809104026020016040519081016040528092919081815260200182805461077b906140e1565b80156107c85780601f1061079d576101008083540402835291602001916107c8565b820191906000526020600020905b8154815290600101906020018083116107ab57829003601f168201915b505050505090506000600880546107de906140e1565b9050036107ee578091505061087e565b6000815111156108235760088160405160200161080c929190614274565b60405160208183030381529060405291505061087e565b600060088054610832906140e1565b90501161084e576040518060200160405280600081525061087a565b6008610859846113e8565b60405160200161086a929190614274565b6040516020818303038152906040525b9150505b919050565b600060056000838152602001908152602001600020600101549050919050565b6000806000600460008681526020019081526020016000206040518060400160405290816000820160009054906101000a900473ffffffffffffffffffffffffffffffffffffffff1673ffffffffffffffffffffffffffffffffffffffff1673ffffffffffffffffffffffffffffffffffffffff1681526020016000820160149054906101000a90046bffffffffffffffffffffffff166bffffffffffffffffffffffff166bffffffffffffffffffffffff1681525050905060006109666114b6565b6bffffffffffffffffffffffff1682602001516bffffffffffffffffffffffff168661099291906142c7565b61099c9190614350565b90508160000151819350935050509250929050565b6109b96114c0565b73ffffffffffffffffffffffffffffffffffffffff168573ffffffffffffffffffffffffffffffffffffffff1614806109ff57506109fe856109f96114c0565b610f08565b5b610a3e576040517f08c379a0000000000000000000000000000000000000000000000000000000008152600401610a35906143f3565b60405180910390fd5b610a4b85858585856114c8565b5050505050565b610a5b82610883565b610a64816117e9565b610a6e83836117fd565b505050565b610a7b6114c0565b73ffffffffffffffffffffffffffffffffffffffff168173ffffffffffffffffffffffffffffffffffffffff1614610ae8576040517f08c379a0000000000000000000000000000000000000000000000000000000008152600401610adf90614485565b60405180910390fd5b610af282826118de565b5050565b60608151835114610b3c576040517f08c379a0000000000000000000000000000000000000000000000000000000008152600401610b3390614517565b60405180910390fd5b6000835167ffffffffffffffff811115610b5957610b586136f8565b5b604051908082528060200260200182016040528015610b875781602001602082028036833780820191505090505b50905060005b8451811015610c0457610bd4858281518110610bac57610bab614537565b5b6020026020010151858381518110610bc757610bc6614537565b5b6020026020010151610579565b828281518110610be757610be6614537565b5b60200260200101818152505080610bfd90614566565b9050610b8d565b508091505092915050565b600080610c1b83610eca565b119050919050565b60007fa49807205ce4d355092ef5a8a18f56e8913cf4a201fbe287825b095693c21775610c4f816117e9565b82604051610c5d91906145ae565b60405180910390206008604051610c7491906145c5565b60405180910390207fc41b7cb64e5be01af4afc2641afc861432136270f4206b7773f229b658b9669960405160405180910390a38260089080519060200190610cbe929190613296565b506001915050919050565b610cd16114c0565b73ffffffffffffffffffffffffffffffffffffffff168373ffffffffffffffffffffffffffffffffffffffff161480610d175750610d1683610d116114c0565b610f08565b5b610d56576040517f08c379a0000000000000000000000000000000000000000000000000000000008152600401610d4d906143f3565b60405180910390fd5b610d618383836119c0565b505050565b7fa49807205ce4d355092ef5a8a18f56e8913cf4a201fbe287825b095693c2177581565b600b60009054906101000a900473ffffffffffffffffffffffffffffffffffffffff1681565b60006005600084815260200190815260200160002060000160008373ffffffffffffffffffffffffffffffffffffffff1673ffffffffffffffffffffffffffffffffffffffff16815260200190815260200160002060009054906101000a900460ff16905092915050565b6060600a8054610e2a906140e1565b80601f0160208091040260200160405190810160405280929190818152602001828054610e56906140e1565b8015610ea35780601f10610e7857610100808354040283529160200191610ea3565b820191906000526020600020905b815481529060010190602001808311610e8657829003601f168201915b5050505050905090565b6000801b81565b610ec6610ebf6114c0565b8383611c8e565b5050565b600060036000838152602001908152602001600020549050919050565b610ef082610883565b610ef9816117e9565b610f0383836118de565b505050565b6000600160008473ffffffffffffffffffffffffffffffffffffffff1673ffffffffffffffffffffffffffffffffffffffff16815260200190815260200160002060008373ffffffffffffffffffffffffffffffffffffffff1673ffffffffffffffffffffffffffffffffffffffff16815260200190815260200160002060009054906101000a900460ff16905092915050565b60007fa49807205ce4d355092ef5a8a18f56e8913cf4a201fbe287825b095693c21775610fc8816117e9565b610fd26006611dfa565b9150610ff6610fdf6114c0565b838560405180602001604052806000815250611e08565b8460076000848152602001908152602001600020908051906020019061101d929190613296565b506110308261102a6114c0565b86611fb8565b61103a6006611358565b509392505050565b61104a6114c0565b73ffffffffffffffffffffffffffffffffffffffff168573ffffffffffffffffffffffffffffffffffffffff161480611090575061108f8561108a6114c0565b610f08565b5b6110cf576040517f08c379a00000000000000000000000000000000000000000000000000000000081526004016110c6906143f3565b60405180910390fd5b6110dc858585858561215f565b5050505050565b60007fa49807205ce4d355092ef5a8a18f56e8913cf4a201fbe287825b095693c2177561110f816117e9565b600073ffffffffffffffffffffffffffffffffffffffff168373ffffffffffffffffffffffffffffffffffffffff160361117e576040517f08c379a00000000000000000000000000000000000000000000000000000000081526004016111759061464e565b60405180910390fd5b6111ca7fa49807205ce4d355092ef5a8a18f56e8913cf4a201fbe287825b095693c21775600b60009054906101000a900473ffffffffffffffffffffffffffffffffffffffff166118de565b8273ffffffffffffffffffffffffffffffffffffffff16600b60009054906101000a900473ffffffffffffffffffffffffffffffffffffffff1673ffffffffffffffffffffffffffffffffffffffff167f8be0079c531659141344cd1fd0a4f28419497f9722a3daafe3b4186f6b6457e060405160405180910390a382600b60006101000a81548173ffffffffffffffffffffffffffffffffffffffff021916908373ffffffffffffffffffffffffffffffffffffffff1602179055506112b17fa49807205ce4d355092ef5a8a18f56e8913cf4a201fbe287825b095693c21775846123fa565b6001915050919050565b6112c36114c0565b73ffffffffffffffffffffffffffffffffffffffff168373ffffffffffffffffffffffffffffffffffffffff1614806113095750611308836113036114c0565b610f08565b5b611348576040517f08c379a000000000000000000000000000000000000000000000000000000000815260040161133f906143f3565b60405180910390fd5b611353838383612408565b505050565b6001816000016000828254019250508190555050565b60007f7965db0b000000000000000000000000000000000000000000000000000000007bffffffffffffffffffffffffffffffffffffffffffffffffffffffff1916827bffffffffffffffffffffffffffffffffffffffffffffffffffffffff191614806113e157506113e08261264e565b5b9050919050565b6060600060016113f7846126c8565b01905060008167ffffffffffffffff811115611416576114156136f8565b5b6040519080825280601f01601f1916602001820160405280156114485781602001600182028036833780820191505090505b509050600082602001820190505b6001156114ab578080600190039150507f3031323334353637383961626364656600000000000000000000000000000000600a86061a8153600a858161149f5761149e614321565b5b04945060008503611456575b819350505050919050565b60006103e8905090565b600033905090565b815183511461150c576040517f08c379a0000000000000000000000000000000000000000000000000000000008152600401611503906146e0565b60405180910390fd5b600073ffffffffffffffffffffffffffffffffffffffff168473ffffffffffffffffffffffffffffffffffffffff160361157b576040517f08c379a000000000000000000000000000000000000000000000000000000000815260040161157290614772565b60405180910390fd5b60006115856114c0565b905061159581878787878761281b565b60005b84518110156117465760008582815181106115b6576115b5614537565b5b6020026020010151905060008583815181106115d5576115d4614537565b5b60200260200101519050600080600084815260200190815260200160002060008b73ffffffffffffffffffffffffffffffffffffffff1673ffffffffffffffffffffffffffffffffffffffff16815260200190815260200160002054905081811015611676576040517f08c379a000000000000000000000000000000000000000000000000000000000815260040161166d90614804565b60405180910390fd5b81810360008085815260200190815260200160002060008c73ffffffffffffffffffffffffffffffffffffffff1673ffffffffffffffffffffffffffffffffffffffff168152602001908152602001600020819055508160008085815260200190815260200160002060008b73ffffffffffffffffffffffffffffffffffffffff1673ffffffffffffffffffffffffffffffffffffffff168152602001908152602001600020600082825461172b9190614824565b925050819055505050508061173f90614566565b9050611598565b508473ffffffffffffffffffffffffffffffffffffffff168673ffffffffffffffffffffffffffffffffffffffff168273ffffffffffffffffffffffffffffffffffffffff167f4a39dc06d4c0dbc64b70af90fd698a233a518aa5d07e595d983b8c0526c8f7fb87876040516117bd92919061487a565b60405180910390a46117d3818787878787612831565b6117e1818787878787612839565b505050505050565b6117fa816117f56114c0565b612a10565b50565b6118078282610db0565b6118da5760016005600084815260200190815260200160002060000160008373ffffffffffffffffffffffffffffffffffffffff1673ffffffffffffffffffffffffffffffffffffffff16815260200190815260200160002060006101000a81548160ff02191690831515021790555061187f6114c0565b73ffffffffffffffffffffffffffffffffffffffff168173ffffffffffffffffffffffffffffffffffffffff16837f2f8788117e7eff1d82e926ec794901d17c78024a50270940304540a733656f0d60405160405180910390a45b5050565b6118e88282610db0565b156119bc5760006005600084815260200190815260200160002060000160008373ffffffffffffffffffffffffffffffffffffffff1673ffffffffffffffffffffffffffffffffffffffff16815260200190815260200160002060006101000a81548160ff0219169083151502179055506119616114c0565b73ffffffffffffffffffffffffffffffffffffffff168173ffffffffffffffffffffffffffffffffffffffff16837ff6391f5c32d9c69d2a47ea670b442974b53935d1edc7fd64eb21e047a839171b60405160405180910390a45b5050565b600073ffffffffffffffffffffffffffffffffffffffff168373ffffffffffffffffffffffffffffffffffffffff1603611a2f576040517f08c379a0000000000000000000000000000000000000000000000000000000008152600401611a2690614923565b60405180910390fd5b8051825114611a73576040517f08c379a0000000000000000000000000000000000000000000000000000000008152600401611a6a906146e0565b60405180910390fd5b6000611a7d6114c0565b9050611a9d8185600086866040518060200160405280600081525061281b565b60005b8351811015611bea576000848281518110611abe57611abd614537565b5b602002602001015190506000848381518110611add57611adc614537565b5b60200260200101519050600080600084815260200190815260200160002060008973ffffffffffffffffffffffffffffffffffffffff1673ffffffffffffffffffffffffffffffffffffffff16815260200190815260200160002054905081811015611b7e576040517f08c379a0000000000000000000000000000000000000000000000000000000008152600401611b75906149b5565b60405180910390fd5b81810360008085815260200190815260200160002060008a73ffffffffffffffffffffffffffffffffffffffff1673ffffffffffffffffffffffffffffffffffffffff168152602001908152602001600020819055505050508080611be290614566565b915050611aa0565b50600073ffffffffffffffffffffffffffffffffffffffff168473ffffffffffffffffffffffffffffffffffffffff168273ffffffffffffffffffffffffffffffffffffffff167f4a39dc06d4c0dbc64b70af90fd698a233a518aa5d07e595d983b8c0526c8f7fb8686604051611c6292919061487a565b60405180910390a4611c8881856000868660405180602001604052806000815250612831565b50505050565b8173ffffffffffffffffffffffffffffffffffffffff168373ffffffffffffffffffffffffffffffffffffffff1603611cfc576040517f08c379a0000000000000000000000000000000000000000000000000000000008152600401611cf390614a47565b60405180910390fd5b80600160008573ffffffffffffffffffffffffffffffffffffffff1673ffffffffffffffffffffffffffffffffffffffff16815260200190815260200160002060008473ffffffffffffffffffffffffffffffffffffffff1673ffffffffffffffffffffffffffffffffffffffff16815260200190815260200160002060006101000a81548160ff0219169083151502179055508173ffffffffffffffffffffffffffffffffffffffff168373ffffffffffffffffffffffffffffffffffffffff167f17307eab39ab6107e8899845ad3d59bd9653f200f220920489ca2b5937696c3183604051611ded91906134eb565b60405180910390a3505050565b600081600001549050919050565b600073ffffffffffffffffffffffffffffffffffffffff168473ffffffffffffffffffffffffffffffffffffffff1603611e77576040517f08c379a0000000000000000000000000000000000000000000000000000000008152600401611e6e90614ad9565b60405180910390fd5b6000611e816114c0565b90506000611e8e85612a95565b90506000611e9b85612a95565b9050611eac8360008985858961281b565b8460008088815260200190815260200160002060008973ffffffffffffffffffffffffffffffffffffffff1673ffffffffffffffffffffffffffffffffffffffff1681526020019081526020016000206000828254611f0b9190614824565b925050819055508673ffffffffffffffffffffffffffffffffffffffff16600073ffffffffffffffffffffffffffffffffffffffff168473ffffffffffffffffffffffffffffffffffffffff167fc3d58168c5ae7397731d063d5bbf3d657854427343f4c083240f7aacaa2d0f628989604051611f89929190614af9565b60405180910390a4611fa083600089858589612831565b611faf83600089898989612b0f565b50505050505050565b611fc06114b6565b6bffffffffffffffffffffffff16816bffffffffffffffffffffffff16111561201e576040517f08c379a000000000000000000000000000000000000000000000000000000000815260040161201590614b94565b60405180910390fd5b600073ffffffffffffffffffffffffffffffffffffffff168273ffffffffffffffffffffffffffffffffffffffff160361208d576040517f08c379a000000000000000000000000000000000000000000000000000000000815260040161208490614c00565b60405180910390fd5b60405180604001604052808373ffffffffffffffffffffffffffffffffffffffff168152602001826bffffffffffffffffffffffff168152506004600085815260200190815260200160002060008201518160000160006101000a81548173ffffffffffffffffffffffffffffffffffffffff021916908373ffffffffffffffffffffffffffffffffffffffff16021790555060208201518160000160146101000a8154816bffffffffffffffffffffffff02191690836bffffffffffffffffffffffff160217905550905050505050565b600073ffffffffffffffffffffffffffffffffffffffff168473ffffffffffffffffffffffffffffffffffffffff16036121ce576040517f08c379a00000000000000000000000000000000000000000000000000000000081526004016121c590614772565b60405180910390fd5b60006121d86114c0565b905060006121e585612a95565b905060006121f285612a95565b905061220283898985858961281b565b600080600088815260200190815260200160002060008a73ffffffffffffffffffffffffffffffffffffffff1673ffffffffffffffffffffffffffffffffffffffff16815260200190815260200160002054905085811015612299576040517f08c379a000000000000000000000000000000000000000000000000000000000815260040161229090614804565b60405180910390fd5b85810360008089815260200190815260200160002060008b73ffffffffffffffffffffffffffffffffffffffff1673ffffffffffffffffffffffffffffffffffffffff168152602001908152602001600020819055508560008089815260200190815260200160002060008a73ffffffffffffffffffffffffffffffffffffffff1673ffffffffffffffffffffffffffffffffffffffff168152602001908152602001600020600082825461234e9190614824565b925050819055508773ffffffffffffffffffffffffffffffffffffffff168973ffffffffffffffffffffffffffffffffffffffff168573ffffffffffffffffffffffffffffffffffffffff167fc3d58168c5ae7397731d063d5bbf3d657854427343f4c083240f7aacaa2d0f628a8a6040516123cb929190614af9565b60405180910390a46123e1848a8a86868a612831565b6123ef848a8a8a8a8a612b0f565b505050505050505050565b61240482826117fd565b5050565b600073ffffffffffffffffffffffffffffffffffffffff168373ffffffffffffffffffffffffffffffffffffffff1603612477576040517f08c379a000000000000000000000000000000000000000000000000000000000815260040161246e90614923565b60405180910390fd5b60006124816114c0565b9050600061248e84612a95565b9050600061249b84612a95565b90506124bb8387600085856040518060200160405280600081525061281b565b600080600087815260200190815260200160002060008873ffffffffffffffffffffffffffffffffffffffff1673ffffffffffffffffffffffffffffffffffffffff16815260200190815260200160002054905084811015612552576040517f08c379a0000000000000000000000000000000000000000000000000000000008152600401612549906149b5565b60405180910390fd5b84810360008088815260200190815260200160002060008973ffffffffffffffffffffffffffffffffffffffff1673ffffffffffffffffffffffffffffffffffffffff16815260200190815260200160002081905550600073ffffffffffffffffffffffffffffffffffffffff168773ffffffffffffffffffffffffffffffffffffffff168573ffffffffffffffffffffffffffffffffffffffff167fc3d58168c5ae7397731d063d5bbf3d657854427343f4c083240f7aacaa2d0f62898960405161261f929190614af9565b60405180910390a461264584886000868660405180602001604052806000815250612831565b50505050505050565b60007f2a55205a000000000000000000000000000000000000000000000000000000007bffffffffffffffffffffffffffffffffffffffffffffffffffffffff1916827bffffffffffffffffffffffffffffffffffffffffffffffffffffffff191614806126c157506126c082612ce6565b5b9050919050565b600080600090507a184f03e93ff9f4daa797ed6e38ed64bf6a1f0100000000000000008310612726577a184f03e93ff9f4daa797ed6e38ed64bf6a1f010000000000000000838161271c5761271b614321565b5b0492506040810190505b6d04ee2d6d415b85acef81000000008310612763576d04ee2d6d415b85acef8100000000838161275957612758614321565b5b0492506020810190505b662386f26fc10000831061279257662386f26fc10000838161278857612787614321565b5b0492506010810190505b6305f5e10083106127bb576305f5e10083816127b1576127b0614321565b5b0492506008810190505b61271083106127e05761271083816127d6576127d5614321565b5b0492506004810190505b6064831061280357606483816127f9576127f8614321565b5b0492506002810190505b600a8310612812576001810190505b80915050919050565b612829868686868686612dc8565b505050505050565b505050505050565b6128588473ffffffffffffffffffffffffffffffffffffffff16612f98565b15612a08578373ffffffffffffffffffffffffffffffffffffffff1663bc197c8187878686866040518663ffffffff1660e01b815260040161289e959493929190614c75565b6020604051808303816000875af19250505080156128da57506040513d601f19601f820116820180604052508101906128d79190614cf2565b60015b61297f576128e6614d2c565b806308c379a00361294257506128fa614d4e565b806129055750612944565b806040517f08c379a0000000000000000000000000000000000000000000000000000000008152600401612939919061359f565b60405180910390fd5b505b6040517f08c379a000000000000000000000000000000000000000000000000000000000815260040161297690614e50565b60405180910390fd5b63bc197c8160e01b7bffffffffffffffffffffffffffffffffffffffffffffffffffffffff1916817bffffffffffffffffffffffffffffffffffffffffffffffffffffffff191614612a06576040517f08c379a00000000000000000000000000000000000000000000000000000000081526004016129fd90614ee2565b60405180910390fd5b505b505050505050565b612a1a8282610db0565b612a9157612a2781612fbb565b612a358360001c6020612fe8565b604051602001612a46929190614f9a565b6040516020818303038152906040526040517f08c379a0000000000000000000000000000000000000000000000000000000008152600401612a88919061359f565b60405180910390fd5b5050565b60606000600167ffffffffffffffff811115612ab457612ab36136f8565b5b604051908082528060200260200182016040528015612ae25781602001602082028036833780820191505090505b5090508281600081518110612afa57612af9614537565b5b60200260200101818152505080915050919050565b612b2e8473ffffffffffffffffffffffffffffffffffffffff16612f98565b15612cde578373ffffffffffffffffffffffffffffffffffffffff1663f23a6e6187878686866040518663ffffffff1660e01b8152600401612b74959493929190614fd4565b6020604051808303816000875af1925050508015612bb057506040513d601f19601f82011682018060405250810190612bad9190614cf2565b60015b612c5557612bbc614d2c565b806308c379a003612c185750612bd0614d4e565b80612bdb5750612c1a565b806040517f08c379a0000000000000000000000000000000000000000000000000000000008152600401612c0f919061359f565b60405180910390fd5b505b6040517f08c379a0000000000000000000000000000000000000000000000000000000008152600401612c4c90614e50565b60405180910390fd5b63f23a6e6160e01b7bffffffffffffffffffffffffffffffffffffffffffffffffffffffff1916817bffffffffffffffffffffffffffffffffffffffffffffffffffffffff191614612cdc576040517f08c379a0000000000000000000000000000000000000000000000000000000008152600401612cd390614ee2565b60405180910390fd5b505b505050505050565b60007fd9b67a26000000000000000000000000000000000000000000000000000000007bffffffffffffffffffffffffffffffffffffffffffffffffffffffff1916827bffffffffffffffffffffffffffffffffffffffffffffffffffffffff19161480612db157507f0e89341c000000000000000000000000000000000000000000000000000000007bffffffffffffffffffffffffffffffffffffffffffffffffffffffff1916827bffffffffffffffffffffffffffffffffffffffffffffffffffffffff1916145b80612dc15750612dc082613224565b5b9050919050565b612dd686868686868661328e565b600073ffffffffffffffffffffffffffffffffffffffff168573ffffffffffffffffffffffffffffffffffffffff1603612e875760005b8351811015612e8557828181518110612e2957612e28614537565b5b602002602001015160036000868481518110612e4857612e47614537565b5b602002602001015181526020019081526020016000206000828254612e6d9190614824565b9250508190555080612e7e90614566565b9050612e0d565b505b600073ffffffffffffffffffffffffffffffffffffffff168473ffffffffffffffffffffffffffffffffffffffff1603612f905760005b8351811015612f8e576000848281518110612edc57612edb614537565b5b602002602001015190506000848381518110612efb57612efa614537565b5b6020026020010151905060006003600084815260200190815260200160002054905081811015612f60576040517f08c379a0000000000000000000000000000000000000000000000000000000008152600401612f57906150a0565b60405180910390fd5b818103600360008581526020019081526020016000208190555050505080612f8790614566565b9050612ebe565b505b505050505050565b6000808273ffffffffffffffffffffffffffffffffffffffff163b119050919050565b6060612fe18273ffffffffffffffffffffffffffffffffffffffff16601460ff16612fe8565b9050919050565b606060006002836002612ffb91906142c7565b6130059190614824565b67ffffffffffffffff81111561301e5761301d6136f8565b5b6040519080825280601f01601f1916602001820160405280156130505781602001600182028036833780820191505090505b5090507f30000000000000000000000000000000000000000000000000000000000000008160008151811061308857613087614537565b5b60200101907effffffffffffffffffffffffffffffffffffffffffffffffffffffffffffff1916908160001a9053507f7800000000000000000000000000000000000000000000000000000000000000816001815181106130ec576130eb614537565b5b60200101907effffffffffffffffffffffffffffffffffffffffffffffffffffffffffffff1916908160001a9053506000600184600261312c91906142c7565b6131369190614824565b90505b60018111156131d6577f3031323334353637383961626364656600000000000000000000000000000000600f86166010811061317857613177614537565b5b1a60f81b82828151811061318f5761318e614537565b5b60200101907effffffffffffffffffffffffffffffffffffffffffffffffffffffffffffff1916908160001a905350600485901c9450806131cf906150c0565b9050613139565b506000841461321a576040517f08c379a000000000000000000000000000000000000000000000000000000000815260040161321190615135565b60405180910390fd5b8091505092915050565b60007f01ffc9a7000000000000000000000000000000000000000000000000000000007bffffffffffffffffffffffffffffffffffffffffffffffffffffffff1916827bffffffffffffffffffffffffffffffffffffffffffffffffffffffff1916149050919050565b505050505050565b8280546132a2906140e1565b90600052602060002090601f0160209004810192826132c4576000855561330b565b82601f106132dd57805160ff191683800117855561330b565b8280016001018555821561330b579182015b8281111561330a5782518255916020019190600101906132ef565b5b509050613318919061331c565b5090565b5b8082111561333557600081600090555060010161331d565b5090565b6000604051905090565b600080fd5b600080fd5b600073ffffffffffffffffffffffffffffffffffffffff82169050919050565b60006133788261334d565b9050919050565b6133888161336d565b811461339357600080fd5b50565b6000813590506133a58161337f565b92915050565b6000819050919050565b6133be816133ab565b81146133c957600080fd5b50565b6000813590506133db816133b5565b92915050565b600080604083850312156133f8576133f7613343565b5b600061340685828601613396565b9250506020613417858286016133cc565b9150509250929050565b61342a816133ab565b82525050565b60006020820190506134456000830184613421565b92915050565b60007fffffffff0000000000000000000000000000000000000000000000000000000082169050919050565b6134808161344b565b811461348b57600080fd5b50565b60008135905061349d81613477565b92915050565b6000602082840312156134b9576134b8613343565b5b60006134c78482850161348e565b91505092915050565b60008115159050919050565b6134e5816134d0565b82525050565b600060208201905061350060008301846134dc565b92915050565b600081519050919050565b600082825260208201905092915050565b60005b83811015613540578082015181840152602081019050613525565b8381111561354f576000848401525b50505050565b6000601f19601f8301169050919050565b600061357182613506565b61357b8185613511565b935061358b818560208601613522565b61359481613555565b840191505092915050565b600060208201905081810360008301526135b98184613566565b905092915050565b6000602082840312156135d7576135d6613343565b5b60006135e5848285016133cc565b91505092915050565b6000819050919050565b613601816135ee565b811461360c57600080fd5b50565b60008135905061361e816135f8565b92915050565b60006020828403121561363a57613639613343565b5b60006136488482850161360f565b91505092915050565b61365a816135ee565b82525050565b60006020820190506136756000830184613651565b92915050565b6000806040838503121561369257613691613343565b5b60006136a0858286016133cc565b92505060206136b1858286016133cc565b9150509250929050565b6136c48161336d565b82525050565b60006040820190506136df60008301856136bb565b6136ec6020830184613421565b9392505050565b600080fd5b7f4e487b7100000000000000000000000000000000000000000000000000000000600052604160045260246000fd5b61373082613555565b810181811067ffffffffffffffff8211171561374f5761374e6136f8565b5b80604052505050565b6000613762613339565b905061376e8282613727565b919050565b600067ffffffffffffffff82111561378e5761378d6136f8565b5b602082029050602081019050919050565b600080fd5b60006137b76137b284613773565b613758565b905080838252602082019050602084028301858111156137da576137d961379f565b5b835b8181101561380357806137ef88826133cc565b8452602084019350506020810190506137dc565b5050509392505050565b600082601f830112613822576138216136f3565b5b81356138328482602086016137a4565b91505092915050565b600080fd5b600067ffffffffffffffff82111561385b5761385a6136f8565b5b61386482613555565b9050602081019050919050565b82818337600083830152505050565b600061389361388e84613840565b613758565b9050828152602081018484840111156138af576138ae61383b565b5b6138ba848285613871565b509392505050565b600082601f8301126138d7576138d66136f3565b5b81356138e7848260208601613880565b91505092915050565b600080600080600060a0868803121561390c5761390b613343565b5b600061391a88828901613396565b955050602061392b88828901613396565b945050604086013567ffffffffffffffff81111561394c5761394b613348565b5b6139588882890161380d565b935050606086013567ffffffffffffffff81111561397957613978613348565b5b6139858882890161380d565b925050608086013567ffffffffffffffff8111156139a6576139a5613348565b5b6139b2888289016138c2565b9150509295509295909350565b600080604083850312156139d6576139d5613343565b5b60006139e48582860161360f565b92505060206139f585828601613396565b9150509250929050565b600067ffffffffffffffff821115613a1a57613a196136f8565b5b602082029050602081019050919050565b6000613a3e613a39846139ff565b613758565b90508083825260208201905060208402830185811115613a6157613a6061379f565b5b835b81811015613a8a5780613a768882613396565b845260208401935050602081019050613a63565b5050509392505050565b600082601f830112613aa957613aa86136f3565b5b8135613ab9848260208601613a2b565b91505092915050565b60008060408385031215613ad957613ad8613343565b5b600083013567ffffffffffffffff811115613af757613af6613348565b5b613b0385828601613a94565b925050602083013567ffffffffffffffff811115613b2457613b23613348565b5b613b308582860161380d565b9150509250929050565b600081519050919050565b600082825260208201905092915050565b6000819050602082019050919050565b613b6f816133ab565b82525050565b6000613b818383613b66565b60208301905092915050565b6000602082019050919050565b6000613ba582613b3a565b613baf8185613b45565b9350613bba83613b56565b8060005b83811015613beb578151613bd28882613b75565b9750613bdd83613b8d565b925050600181019050613bbe565b5085935050505092915050565b60006020820190508181036000830152613c128184613b9a565b905092915050565b600067ffffffffffffffff821115613c3557613c346136f8565b5b613c3e82613555565b9050602081019050919050565b6000613c5e613c5984613c1a565b613758565b905082815260208101848484011115613c7a57613c7961383b565b5b613c85848285613871565b509392505050565b600082601f830112613ca257613ca16136f3565b5b8135613cb2848260208601613c4b565b91505092915050565b600060208284031215613cd157613cd0613343565b5b600082013567ffffffffffffffff811115613cef57613cee613348565b5b613cfb84828501613c8d565b91505092915050565b600080600060608486031215613d1d57613d1c613343565b5b6000613d2b86828701613396565b935050602084013567ffffffffffffffff811115613d4c57613d4b613348565b5b613d588682870161380d565b925050604084013567ffffffffffffffff811115613d7957613d78613348565b5b613d858682870161380d565b9150509250925092565b6000602082019050613da460008301846136bb565b92915050565b613db3816134d0565b8114613dbe57600080fd5b50565b600081359050613dd081613daa565b92915050565b60008060408385031215613ded57613dec613343565b5b6000613dfb85828601613396565b9250506020613e0c85828601613dc1565b9150509250929050565b60008060408385031215613e2d57613e2c613343565b5b6000613e3b85828601613396565b9250506020613e4c85828601613396565b9150509250929050565b60006bffffffffffffffffffffffff82169050919050565b613e7781613e56565b8114613e8257600080fd5b50565b600081359050613e9481613e6e565b92915050565b600080600060608486031215613eb357613eb2613343565b5b600084013567ffffffffffffffff811115613ed157613ed0613348565b5b613edd86828701613c8d565b9350506020613eee86828701613e85565b9250506040613eff868287016133cc565b9150509250925092565b600080600080600060a08688031215613f2557613f24613343565b5b6000613f3388828901613396565b9550506020613f4488828901613396565b9450506040613f55888289016133cc565b9350506060613f66888289016133cc565b925050608086013567ffffffffffffffff811115613f8757613f86613348565b5b613f93888289016138c2565b9150509295509295909350565b600060208284031215613fb657613fb5613343565b5b6000613fc484828501613396565b91505092915050565b600080600060608486031215613fe657613fe5613343565b5b6000613ff486828701613396565b9350506020614005868287016133cc565b9250506040614016868287016133cc565b9150509250925092565b7f455243313135353a2061646472657373207a65726f206973206e6f742061207660008201527f616c6964206f776e657200000000000000000000000000000000000000000000602082015250565b600061407c602a83613511565b915061408782614020565b604082019050919050565b600060208201905081810360008301526140ab8161406f565b9050919050565b7f4e487b7100000000000000000000000000000000000000000000000000000000600052602260045260246000fd5b600060028204905060018216806140f957607f821691505b60208210810361410c5761410b6140b2565b5b50919050565b7f4552433131353555524953746f726167653a2055524920717565727920666f7260008201527f206e6f6e6578697374656e7420746f6b656e0000000000000000000000000000602082015250565b600061416e603283613511565b915061417982614112565b604082019050919050565b6000602082019050818103600083015261419d81614161565b9050919050565b600081905092915050565b60008190508160005260206000209050919050565b600081546141d1816140e1565b6141db81866141a4565b945060018216600081146141f657600181146142075761423a565b60ff1983168652818601935061423a565b614210856141af565b60005b8381101561423257815481890152600182019150602081019050614213565b838801955050505b50505092915050565b600061424e82613506565b61425881856141a4565b9350614268818560208601613522565b80840191505092915050565b600061428082856141c4565b915061428c8284614243565b91508190509392505050565b7f4e487b7100000000000000000000000000000000000000000000000000000000600052601160045260246000fd5b60006142d2826133ab565b91506142dd836133ab565b9250817fffffffffffffffffffffffffffffffffffffffffffffffffffffffffffffffff048311821515161561431657614315614298565b5b828202905092915050565b7f4e487b7100000000000000000000000000000000000000000000000000000000600052601260045260246000fd5b600061435b826133ab565b9150614366836133ab565b92508261437657614375614321565b5b828204905092915050565b7f455243313135353a2063616c6c6572206973206e6f7420746f6b656e206f776e60008201527f6572206f7220617070726f766564000000000000000000000000000000000000602082015250565b60006143dd602e83613511565b91506143e882614381565b604082019050919050565b6000602082019050818103600083015261440c816143d0565b9050919050565b7f416363657373436f6e74726f6c3a2063616e206f6e6c792072656e6f756e636560008201527f20726f6c657320666f722073656c660000000000000000000000000000000000602082015250565b600061446f602f83613511565b915061447a82614413565b604082019050919050565b6000602082019050818103600083015261449e81614462565b9050919050565b7f455243313135353a206163636f756e747320616e6420696473206c656e67746860008201527f206d69736d617463680000000000000000000000000000000000000000000000602082015250565b6000614501602983613511565b915061450c826144a5565b604082019050919050565b60006020820190508181036000830152614530816144f4565b9050919050565b7f4e487b7100000000000000000000000000000000000000000000000000000000600052603260045260246000fd5b6000614571826133ab565b91507fffffffffffffffffffffffffffffffffffffffffffffffffffffffffffffffff82036145a3576145a2614298565b5b600182019050919050565b60006145ba8284614243565b915081905092915050565b60006145d182846141c4565b915081905092915050565b7f4f776e61626c653a206e6577206f776e657220697320746865207a65726f206160008201527f6464726573730000000000000000000000000000000000000000000000000000602082015250565b6000614638602683613511565b9150614643826145dc565b604082019050919050565b600060208201905081810360008301526146678161462b565b9050919050565b7f455243313135353a2069647320616e6420616d6f756e7473206c656e6774682060008201527f6d69736d61746368000000000000000000000000000000000000000000000000602082015250565b60006146ca602883613511565b91506146d58261466e565b604082019050919050565b600060208201905081810360008301526146f9816146bd565b9050919050565b7f455243313135353a207472616e7366657220746f20746865207a65726f20616460008201527f6472657373000000000000000000000000000000000000000000000000000000602082015250565b600061475c602583613511565b915061476782614700565b604082019050919050565b6000602082019050818103600083015261478b8161474f565b9050919050565b7f455243313135353a20696e73756666696369656e742062616c616e636520666f60008201527f72207472616e7366657200000000000000000000000000000000000000000000602082015250565b60006147ee602a83613511565b91506147f982614792565b604082019050919050565b6000602082019050818103600083015261481d816147e1565b9050919050565b600061482f826133ab565b915061483a836133ab565b9250827fffffffffffffffffffffffffffffffffffffffffffffffffffffffffffffffff0382111561486f5761486e614298565b5b828201905092915050565b600060408201905081810360008301526148948185613b9a565b905081810360208301526148a88184613b9a565b90509392505050565b7f455243313135353a206275726e2066726f6d20746865207a65726f206164647260008201527f6573730000000000000000000000000000000000000000000000000000000000602082015250565b600061490d602383613511565b9150614918826148b1565b604082019050919050565b6000602082019050818103600083015261493c81614900565b9050919050565b7f455243313135353a206275726e20616d6f756e7420657863656564732062616c60008201527f616e636500000000000000000000000000000000000000000000000000000000602082015250565b600061499f602483613511565b91506149aa82614943565b604082019050919050565b600060208201905081810360008301526149ce81614992565b9050919050565b7f455243313135353a2073657474696e6720617070726f76616c2073746174757360008201527f20666f722073656c660000000000000000000000000000000000000000000000602082015250565b6000614a31602983613511565b9150614a3c826149d5565b604082019050919050565b60006020820190508181036000830152614a6081614a24565b9050919050565b7f455243313135353a206d696e7420746f20746865207a65726f2061646472657360008201527f7300000000000000000000000000000000000000000000000000000000000000602082015250565b6000614ac3602183613511565b9150614ace82614a67565b604082019050919050565b60006020820190508181036000830152614af281614ab6565b9050919050565b6000604082019050614b0e6000830185613421565b614b1b6020830184613421565b9392505050565b7f455243323938313a20726f79616c7479206665652077696c6c2065786365656460008201527f2073616c65507269636500000000000000000000000000000000000000000000602082015250565b6000614b7e602a83613511565b9150614b8982614b22565b604082019050919050565b60006020820190508181036000830152614bad81614b71565b9050919050565b7f455243323938313a20496e76616c696420706172616d65746572730000000000600082015250565b6000614bea601b83613511565b9150614bf582614bb4565b602082019050919050565b60006020820190508181036000830152614c1981614bdd565b9050919050565b600081519050919050565b600082825260208201905092915050565b6000614c4782614c20565b614c518185614c2b565b9350614c61818560208601613522565b614c6a81613555565b840191505092915050565b600060a082019050614c8a60008301886136bb565b614c9760208301876136bb565b8181036040830152614ca98186613b9a565b90508181036060830152614cbd8185613b9a565b90508181036080830152614cd18184614c3c565b90509695505050505050565b600081519050614cec81613477565b92915050565b600060208284031215614d0857614d07613343565b5b6000614d1684828501614cdd565b91505092915050565b60008160e01c9050919050565b600060033d1115614d4b5760046000803e614d48600051614d1f565b90505b90565b600060443d10614ddb57614d60613339565b60043d036004823e80513d602482011167ffffffffffffffff82111715614d88575050614ddb565b808201805167ffffffffffffffff811115614da65750505050614ddb565b80602083010160043d038501811115614dc3575050505050614ddb565b614dd282602001850186613727565b82955050505050505b90565b7f455243313135353a207472616e7366657220746f206e6f6e2d4552433131353560008201527f526563656976657220696d706c656d656e746572000000000000000000000000602082015250565b6000614e3a603483613511565b9150614e4582614dde565b604082019050919050565b60006020820190508181036000830152614e6981614e2d565b9050919050565b7f455243313135353a204552433131353552656365697665722072656a6563746560008201527f6420746f6b656e73000000000000000000000000000000000000000000000000602082015250565b6000614ecc602883613511565b9150614ed782614e70565b604082019050919050565b60006020820190508181036000830152614efb81614ebf565b9050919050565b7f416363657373436f6e74726f6c3a206163636f756e7420000000000000000000600082015250565b6000614f386017836141a4565b9150614f4382614f02565b601782019050919050565b7f206973206d697373696e6720726f6c6520000000000000000000000000000000600082015250565b6000614f846011836141a4565b9150614f8f82614f4e565b601182019050919050565b6000614fa582614f2b565b9150614fb18285614243565b9150614fbc82614f77565b9150614fc88284614243565b91508190509392505050565b600060a082019050614fe960008301886136bb565b614ff660208301876136bb565b6150036040830186613421565b6150106060830185613421565b81810360808301526150228184614c3c565b90509695505050505050565b7f455243313135353a206275726e20616d6f756e74206578636565647320746f7460008201527f616c537570706c79000000000000000000000000000000000000000000000000602082015250565b600061508a602883613511565b91506150958261502e565b604082019050919050565b600060208201905081810360008301526150b98161507d565b9050919050565b60006150cb826133ab565b9150600082036150de576150dd614298565b5b600182039050919050565b7f537472696e67733a20686578206c656e67746820696e73756666696369656e74600082015250565b600061511f602083613511565b915061512a826150e9565b602082019050919050565b6000602082019050818103600083015261514e81615112565b905091905056fea26469706673582212200b8f64e9e5d08e4b2d82bd909f716bb4bba1ab77aaf9c77a7b26993795040c1964736f6c634300080e0033",
  "immutableReferences": {},
  "source": "// SPDX-License-Identifier: UNLICENSED\r\npragma solidity 0.8.14;\r\n\r\nimport \"@openzeppelin/contracts/token/ERC1155/extensions/ERC1155Burnable.sol\";\r\nimport \"@openzeppelin/contracts/token/ERC1155/extensions/ERC1155Supply.sol\";\r\nimport \"@openzeppelin/contracts/utils/Context.sol\";\r\nimport \"@openzeppelin/contracts/utils/Counters.sol\";\r\nimport \"@openzeppelin/contracts/utils/Strings.sol\";\r\nimport \"@openzeppelin/contracts/access/AccessControl.sol\";\r\nimport \"./common/ERC2981.sol\";\r\n\r\ncontract LootmogulUser1155Token is\r\n    Context,\r\n    ERC1155Burnable,\r\n    ERC1155Supply,\r\n    ERC2981,\r\n    AccessControl\r\n{\r\n    using Counters for Counters.Counter;\r\n    using Strings for uint256;\r\n    Counters.Counter private _tokenIdTracker;\r\n    mapping(uint256 => string) private _tokenURIs;\r\n\r\n    // Create a new role identifier for the minter role\r\n    bytes32 public constant ADMIN_ROLE = keccak256(\"ADMIN_ROLE\");\r\n\r\n    string private baseTokenURI;\r\n    string private _name;\r\n    string private _symbol;\r\n    address public owner;\r\n\r\n    event OwnershipTransferred(\r\n        address indexed previousOwner,\r\n        address indexed newOwner\r\n    );\r\n\r\n    event BaseURIChanged(string indexed uri, string indexed newuri);\r\n\r\n    constructor(\r\n        string memory _tokenName,\r\n        string memory _tokenSymbol,\r\n        string memory _baseTokenURI\r\n    ) ERC1155(_baseTokenURI) {\r\n        baseTokenURI = _baseTokenURI;\r\n        owner = _msgSender();\r\n        _setupRole(ADMIN_ROLE, msg.sender);\r\n        _name = _tokenName;\r\n        _symbol = _tokenSymbol;\r\n        _tokenIdTracker.increment();\r\n    }\r\n\r\n    function name() external view returns (string memory) {\r\n        return _name;\r\n    }\r\n\r\n    function symbol() external view returns (string memory) {\r\n        return _symbol;\r\n    }\r\n\r\n    /** @dev change the Ownership from current owner to newOwner address\r\n        @param newOwner : newOwner address \r\n    */\r\n\r\n    function transferOwnership(\r\n        address newOwner\r\n    ) external onlyRole(ADMIN_ROLE) returns (bool) {\r\n        require(\r\n            newOwner != address(0),\r\n            \"Ownable: new owner is the zero address\"\r\n        );\r\n        _revokeRole(ADMIN_ROLE, owner);\r\n        emit OwnershipTransferred(owner, newOwner);\r\n        owner = newOwner;\r\n        _setupRole(ADMIN_ROLE, newOwner);\r\n        return true;\r\n    }\r\n\r\n    function setBaseURI(\r\n        string memory uri_\r\n    ) external onlyRole(ADMIN_ROLE) returns (bool) {\r\n        emit BaseURIChanged(baseTokenURI, uri_);\r\n        baseTokenURI = uri_;\r\n        return true;\r\n    }\r\n\r\n    function mint(\r\n        string memory _tokenURI,\r\n        uint96 _royaltyFee,\r\n        uint256 supply\r\n    ) external virtual onlyRole(ADMIN_ROLE) returns (uint256 _tokenId) {\r\n        // We cannot just use balanceOf to create the new tokenId because tokens\r\n        // can be burned (destroyed), so we need a separate counter.\r\n        _tokenId = _tokenIdTracker.current();\r\n        _mint(_msgSender(), _tokenId, supply, \"\");\r\n        _tokenURIs[_tokenId] = _tokenURI;\r\n        _setTokenRoyalty(_tokenId, _msgSender(), _royaltyFee);\r\n        _tokenIdTracker.increment();\r\n        return _tokenId;\r\n    }\r\n\r\n    function uri(\r\n        uint256 tokenId\r\n    ) public view virtual override returns (string memory) {\r\n        require(\r\n            exists(tokenId),\r\n            \"ERC1155URIStorage: URI query for nonexistent token\"\r\n        );\r\n\r\n        string memory _tokenURI = _tokenURIs[tokenId];\r\n        // If there is no base URI, return the token URI.\r\n        if (bytes(baseTokenURI).length == 0) {\r\n            return _tokenURI;\r\n        }\r\n        // If both are set, concatenate the baseURI and tokenURI (via abi.encodePacked).\r\n        if (bytes(_tokenURI).length > 0) {\r\n            return string(abi.encodePacked(baseTokenURI, _tokenURI));\r\n        }\r\n        return\r\n            bytes(baseTokenURI).length > 0\r\n                ? string(abi.encodePacked(baseTokenURI, tokenId.toString()))\r\n                : \"\";\r\n    }\r\n\r\n    /**\r\n     * @dev See {IERC165-supportsInterface}.\r\n     */\r\n    function supportsInterface(\r\n        bytes4 interfaceId\r\n    )\r\n        public\r\n        view\r\n        virtual\r\n        override(ERC2981, ERC1155, AccessControl)\r\n        returns (bool)\r\n    {\r\n        return super.supportsInterface(interfaceId);\r\n    }\r\n\r\n    function _beforeTokenTransfer(\r\n        address _operator,\r\n        address from,\r\n        address to,\r\n        uint256[] memory ids,\r\n        uint256[] memory amounts,\r\n        bytes memory data\r\n    ) internal virtual override(ERC1155Supply, ERC1155) {\r\n        super._beforeTokenTransfer(_operator, from, to, ids, amounts, data);\r\n    }\r\n}\r\n",
  "sourcePath": "C:\\Users\\Torakami\\Documents\\GitHub\\lootmogul\\marketplace\\src\\contracts\\OwnCollection1155.sol",
  "compiler": {
    "name": "solc",
    "version": "0.8.14+commit.80d49f37.Emscripten.clang"
  },
  "schemaVersion": "3.4.13",
  "updatedAt": "2023-05-11T16:14:52.934Z",
  "devdoc": {
    "kind": "dev",
    "methods": {
      "balanceOf(address,uint256)": {
        "details": "See {IERC1155-balanceOf}. Requirements: - `account` cannot be the zero address."
      },
      "balanceOfBatch(address[],uint256[])": {
        "details": "See {IERC1155-balanceOfBatch}. Requirements: - `accounts` and `ids` must have the same length."
      },
      "exists(uint256)": {
        "details": "Indicates whether any token exist with a given id, or not."
      },
      "getRoleAdmin(bytes32)": {
        "details": "Returns the admin role that controls `role`. See {grantRole} and {revokeRole}. To change a role's admin, use {_setRoleAdmin}."
      },
      "grantRole(bytes32,address)": {
        "details": "Grants `role` to `account`. If `account` had not been already granted `role`, emits a {RoleGranted} event. Requirements: - the caller must have ``role``'s admin role. May emit a {RoleGranted} event."
      },
      "hasRole(bytes32,address)": {
        "details": "Returns `true` if `account` has been granted `role`."
      },
      "isApprovedForAll(address,address)": {
        "details": "See {IERC1155-isApprovedForAll}."
      },
      "renounceRole(bytes32,address)": {
        "details": "Revokes `role` from the calling account. Roles are often managed via {grantRole} and {revokeRole}: this function's purpose is to provide a mechanism for accounts to lose their privileges if they are compromised (such as when a trusted device is misplaced). If the calling account had been revoked `role`, emits a {RoleRevoked} event. Requirements: - the caller must be `account`. May emit a {RoleRevoked} event."
      },
      "revokeRole(bytes32,address)": {
        "details": "Revokes `role` from `account`. If `account` had been granted `role`, emits a {RoleRevoked} event. Requirements: - the caller must have ``role``'s admin role. May emit a {RoleRevoked} event."
      },
      "royaltyInfo(uint256,uint256)": {
        "details": "Returns how much royalty is owed and to whom, based on a sale price that may be denominated in any unit of exchange. The royalty amount is denominated and should be paid in that same unit of exchange."
      },
      "safeBatchTransferFrom(address,address,uint256[],uint256[],bytes)": {
        "details": "See {IERC1155-safeBatchTransferFrom}."
      },
      "safeTransferFrom(address,address,uint256,uint256,bytes)": {
        "details": "See {IERC1155-safeTransferFrom}."
      },
      "setApprovalForAll(address,bool)": {
        "details": "See {IERC1155-setApprovalForAll}."
      },
      "supportsInterface(bytes4)": {
        "details": "See {IERC165-supportsInterface}."
      },
      "totalSupply(uint256)": {
        "details": "Total amount of tokens in with a given id."
      },
      "transferOwnership(address)": {
        "details": "change the Ownership from current owner to newOwner address",
        "params": {
          "newOwner": ": newOwner address "
        }
      }
    },
    "version": 1
  },
  "userdoc": {
    "kind": "user",
    "methods": {},
    "version": 1
  }
}