{
  "contractName": "LootmogulUser1155Token",
  "abi": [
    {
      "inputs": [],
      "stateMutability": "nonpayable",
      "type": "constructor"
    },
    {
      "anonymous": false,
      "inputs": [
        {
          "indexed": true,
          "internalType": "address",
          "name": "account",
          "type": "address"
        },
        {
          "indexed": true,
          "internalType": "address",
          "name": "operator",
          "type": "address"
        },
        {
          "indexed": false,
          "internalType": "bool",
          "name": "approved",
          "type": "bool"
        }
      ],
      "name": "ApprovalForAll",
      "type": "event"
    },
    {
      "anonymous": false,
      "inputs": [
        {
          "indexed": true,
          "internalType": "string",
          "name": "uri",
          "type": "string"
        },
        {
          "indexed": true,
          "internalType": "string",
          "name": "newuri",
          "type": "string"
        }
      ],
      "name": "BaseURIChanged",
      "type": "event"
    },
    {
      "anonymous": false,
      "inputs": [
        {
          "indexed": false,
          "internalType": "uint8",
          "name": "version",
          "type": "uint8"
        }
      ],
      "name": "Initialized",
      "type": "event"
    },
    {
      "anonymous": false,
      "inputs": [
        {
          "indexed": true,
          "internalType": "address",
          "name": "previousOwner",
          "type": "address"
        },
        {
          "indexed": true,
          "internalType": "address",
          "name": "newOwner",
          "type": "address"
        }
      ],
      "name": "OwnershipTransferred",
      "type": "event"
    },
    {
      "anonymous": false,
      "inputs": [
        {
          "indexed": true,
          "internalType": "bytes32",
          "name": "role",
          "type": "bytes32"
        },
        {
          "indexed": true,
          "internalType": "bytes32",
          "name": "previousAdminRole",
          "type": "bytes32"
        },
        {
          "indexed": true,
          "internalType": "bytes32",
          "name": "newAdminRole",
          "type": "bytes32"
        }
      ],
      "name": "RoleAdminChanged",
      "type": "event"
    },
    {
      "anonymous": false,
      "inputs": [
        {
          "indexed": true,
          "internalType": "bytes32",
          "name": "role",
          "type": "bytes32"
        },
        {
          "indexed": true,
          "internalType": "address",
          "name": "account",
          "type": "address"
        },
        {
          "indexed": true,
          "internalType": "address",
          "name": "sender",
          "type": "address"
        }
      ],
      "name": "RoleGranted",
      "type": "event"
    },
    {
      "anonymous": false,
      "inputs": [
        {
          "indexed": true,
          "internalType": "bytes32",
          "name": "role",
          "type": "bytes32"
        },
        {
          "indexed": true,
          "internalType": "address",
          "name": "account",
          "type": "address"
        },
        {
          "indexed": true,
          "internalType": "address",
          "name": "sender",
          "type": "address"
        }
      ],
      "name": "RoleRevoked",
      "type": "event"
    },
    {
      "anonymous": false,
      "inputs": [
        {
          "indexed": true,
          "internalType": "address",
          "name": "operator",
          "type": "address"
        },
        {
          "indexed": true,
          "internalType": "address",
          "name": "from",
          "type": "address"
        },
        {
          "indexed": true,
          "internalType": "address",
          "name": "to",
          "type": "address"
        },
        {
          "indexed": false,
          "internalType": "uint256[]",
          "name": "ids",
          "type": "uint256[]"
        },
        {
          "indexed": false,
          "internalType": "uint256[]",
          "name": "values",
          "type": "uint256[]"
        }
      ],
      "name": "TransferBatch",
      "type": "event"
    },
    {
      "anonymous": false,
      "inputs": [
        {
          "indexed": true,
          "internalType": "address",
          "name": "operator",
          "type": "address"
        },
        {
          "indexed": true,
          "internalType": "address",
          "name": "from",
          "type": "address"
        },
        {
          "indexed": true,
          "internalType": "address",
          "name": "to",
          "type": "address"
        },
        {
          "indexed": false,
          "internalType": "uint256",
          "name": "id",
          "type": "uint256"
        },
        {
          "indexed": false,
          "internalType": "uint256",
          "name": "value",
          "type": "uint256"
        }
      ],
      "name": "TransferSingle",
      "type": "event"
    },
    {
      "anonymous": false,
      "inputs": [
        {
          "indexed": false,
          "internalType": "string",
          "name": "value",
          "type": "string"
        },
        {
          "indexed": true,
          "internalType": "uint256",
          "name": "id",
          "type": "uint256"
        }
      ],
      "name": "URI",
      "type": "event"
    },
    {
      "inputs": [],
      "name": "ADMIN_ROLE",
      "outputs": [
        {
          "internalType": "bytes32",
          "name": "",
          "type": "bytes32"
        }
      ],
      "stateMutability": "view",
      "type": "function"
    },
    {
      "inputs": [],
      "name": "DEFAULT_ADMIN_ROLE",
      "outputs": [
        {
          "internalType": "bytes32",
          "name": "",
          "type": "bytes32"
        }
      ],
      "stateMutability": "view",
      "type": "function"
    },
    {
      "inputs": [
        {
          "internalType": "address",
          "name": "account",
          "type": "address"
        },
        {
          "internalType": "uint256",
          "name": "id",
          "type": "uint256"
        }
      ],
      "name": "balanceOf",
      "outputs": [
        {
          "internalType": "uint256",
          "name": "",
          "type": "uint256"
        }
      ],
      "stateMutability": "view",
      "type": "function"
    },
    {
      "inputs": [
        {
          "internalType": "address[]",
          "name": "accounts",
          "type": "address[]"
        },
        {
          "internalType": "uint256[]",
          "name": "ids",
          "type": "uint256[]"
        }
      ],
      "name": "balanceOfBatch",
      "outputs": [
        {
          "internalType": "uint256[]",
          "name": "",
          "type": "uint256[]"
        }
      ],
      "stateMutability": "view",
      "type": "function"
    },
    {
      "inputs": [
        {
          "internalType": "address",
          "name": "account",
          "type": "address"
        },
        {
          "internalType": "uint256",
          "name": "id",
          "type": "uint256"
        },
        {
          "internalType": "uint256",
          "name": "value",
          "type": "uint256"
        }
      ],
      "name": "burn",
      "outputs": [],
      "stateMutability": "nonpayable",
      "type": "function"
    },
    {
      "inputs": [
        {
          "internalType": "address",
          "name": "account",
          "type": "address"
        },
        {
          "internalType": "uint256[]",
          "name": "ids",
          "type": "uint256[]"
        },
        {
          "internalType": "uint256[]",
          "name": "values",
          "type": "uint256[]"
        }
      ],
      "name": "burnBatch",
      "outputs": [],
      "stateMutability": "nonpayable",
      "type": "function"
    },
    {
      "inputs": [
        {
          "internalType": "uint256",
          "name": "id",
          "type": "uint256"
        }
      ],
      "name": "exists",
      "outputs": [
        {
          "internalType": "bool",
          "name": "",
          "type": "bool"
        }
      ],
      "stateMutability": "view",
      "type": "function"
    },
    {
      "inputs": [
        {
          "internalType": "bytes32",
          "name": "role",
          "type": "bytes32"
        }
      ],
      "name": "getRoleAdmin",
      "outputs": [
        {
          "internalType": "bytes32",
          "name": "",
          "type": "bytes32"
        }
      ],
      "stateMutability": "view",
      "type": "function"
    },
    {
      "inputs": [
        {
          "internalType": "bytes32",
          "name": "role",
          "type": "bytes32"
        },
        {
          "internalType": "address",
          "name": "account",
          "type": "address"
        }
      ],
      "name": "grantRole",
      "outputs": [],
      "stateMutability": "nonpayable",
      "type": "function"
    },
    {
      "inputs": [
        {
          "internalType": "bytes32",
          "name": "role",
          "type": "bytes32"
        },
        {
          "internalType": "address",
          "name": "account",
          "type": "address"
        }
      ],
      "name": "hasRole",
      "outputs": [
        {
          "internalType": "bool",
          "name": "",
          "type": "bool"
        }
      ],
      "stateMutability": "view",
      "type": "function"
    },
    {
      "inputs": [
        {
          "internalType": "address",
          "name": "account",
          "type": "address"
        },
        {
          "internalType": "address",
          "name": "operator",
          "type": "address"
        }
      ],
      "name": "isApprovedForAll",
      "outputs": [
        {
          "internalType": "bool",
          "name": "",
          "type": "bool"
        }
      ],
      "stateMutability": "view",
      "type": "function"
    },
    {
      "inputs": [],
      "name": "owner",
      "outputs": [
        {
          "internalType": "address",
          "name": "",
          "type": "address"
        }
      ],
      "stateMutability": "view",
      "type": "function"
    },
    {
      "inputs": [
        {
          "internalType": "bytes32",
          "name": "role",
          "type": "bytes32"
        },
        {
          "internalType": "address",
          "name": "account",
          "type": "address"
        }
      ],
      "name": "renounceRole",
      "outputs": [],
      "stateMutability": "nonpayable",
      "type": "function"
    },
    {
      "inputs": [
        {
          "internalType": "bytes32",
          "name": "role",
          "type": "bytes32"
        },
        {
          "internalType": "address",
          "name": "account",
          "type": "address"
        }
      ],
      "name": "revokeRole",
      "outputs": [],
      "stateMutability": "nonpayable",
      "type": "function"
    },
    {
      "inputs": [
        {
          "internalType": "uint256",
          "name": "_tokenId",
          "type": "uint256"
        },
        {
          "internalType": "uint256",
          "name": "_salePrice",
          "type": "uint256"
        }
      ],
      "name": "royaltyInfo",
      "outputs": [
        {
          "internalType": "address",
          "name": "",
          "type": "address"
        },
        {
          "internalType": "uint256",
          "name": "",
          "type": "uint256"
        }
      ],
      "stateMutability": "view",
      "type": "function"
    },
    {
      "inputs": [
        {
          "internalType": "address",
          "name": "from",
          "type": "address"
        },
        {
          "internalType": "address",
          "name": "to",
          "type": "address"
        },
        {
          "internalType": "uint256[]",
          "name": "ids",
          "type": "uint256[]"
        },
        {
          "internalType": "uint256[]",
          "name": "amounts",
          "type": "uint256[]"
        },
        {
          "internalType": "bytes",
          "name": "data",
          "type": "bytes"
        }
      ],
      "name": "safeBatchTransferFrom",
      "outputs": [],
      "stateMutability": "nonpayable",
      "type": "function"
    },
    {
      "inputs": [
        {
          "internalType": "address",
          "name": "from",
          "type": "address"
        },
        {
          "internalType": "address",
          "name": "to",
          "type": "address"
        },
        {
          "internalType": "uint256",
          "name": "id",
          "type": "uint256"
        },
        {
          "internalType": "uint256",
          "name": "amount",
          "type": "uint256"
        },
        {
          "internalType": "bytes",
          "name": "data",
          "type": "bytes"
        }
      ],
      "name": "safeTransferFrom",
      "outputs": [],
      "stateMutability": "nonpayable",
      "type": "function"
    },
    {
      "inputs": [
        {
          "internalType": "address",
          "name": "operator",
          "type": "address"
        },
        {
          "internalType": "bool",
          "name": "approved",
          "type": "bool"
        }
      ],
      "name": "setApprovalForAll",
      "outputs": [],
      "stateMutability": "nonpayable",
      "type": "function"
    },
    {
      "inputs": [
        {
          "internalType": "uint256",
          "name": "id",
          "type": "uint256"
        }
      ],
      "name": "totalSupply",
      "outputs": [
        {
          "internalType": "uint256",
          "name": "",
          "type": "uint256"
        }
      ],
      "stateMutability": "view",
      "type": "function"
    },
    {
      "inputs": [
        {
          "internalType": "string",
          "name": "_tokenName",
          "type": "string"
        },
        {
          "internalType": "string",
          "name": "_tokenSymbol",
          "type": "string"
        },
        {
          "internalType": "string",
          "name": "_baseTokenURI",
          "type": "string"
        }
      ],
      "name": "initialize",
      "outputs": [],
      "stateMutability": "nonpayable",
      "type": "function"
    },
    {
      "inputs": [],
      "name": "name",
      "outputs": [
        {
          "internalType": "string",
          "name": "",
          "type": "string"
        }
      ],
      "stateMutability": "view",
      "type": "function"
    },
    {
      "inputs": [],
      "name": "symbol",
      "outputs": [
        {
          "internalType": "string",
          "name": "",
          "type": "string"
        }
      ],
      "stateMutability": "view",
      "type": "function"
    },
    {
      "inputs": [
        {
          "internalType": "address",
          "name": "newOwner",
          "type": "address"
        }
      ],
      "name": "transferOwnership",
      "outputs": [
        {
          "internalType": "bool",
          "name": "",
          "type": "bool"
        }
      ],
      "stateMutability": "nonpayable",
      "type": "function"
    },
    {
      "inputs": [
        {
          "internalType": "string",
          "name": "uri_",
          "type": "string"
        }
      ],
      "name": "setBaseURI",
      "outputs": [
        {
          "internalType": "bool",
          "name": "",
          "type": "bool"
        }
      ],
      "stateMutability": "nonpayable",
      "type": "function"
    },
    {
      "inputs": [
        {
          "internalType": "string",
          "name": "_tokenURI",
          "type": "string"
        },
        {
          "internalType": "uint96",
          "name": "_royaltyFee",
          "type": "uint96"
        },
        {
          "internalType": "uint256",
          "name": "supply",
          "type": "uint256"
        }
      ],
      "name": "mint",
      "outputs": [
        {
          "internalType": "uint256",
          "name": "_tokenId",
          "type": "uint256"
        }
      ],
      "stateMutability": "nonpayable",
      "type": "function"
    },
    {
      "inputs": [
        {
          "internalType": "uint256",
          "name": "tokenId",
          "type": "uint256"
        }
      ],
      "name": "uri",
      "outputs": [
        {
          "internalType": "string",
          "name": "",
          "type": "string"
        }
      ],
      "stateMutability": "view",
      "type": "function"
    },
    {
      "inputs": [
        {
          "internalType": "bytes4",
          "name": "interfaceId",
          "type": "bytes4"
        }
      ],
      "name": "supportsInterface",
      "outputs": [
        {
          "internalType": "bool",
          "name": "",
          "type": "bool"
        }
      ],
      "stateMutability": "view",
      "type": "function"
    }
  ],
  "bytecode": "0x60806040523480156200001157600080fd5b50620000226200002860201b60201c565b620001d3565b600060019054906101000a900460ff16156200007b576040517f08c379a0000000000000000000000000000000000000000000000000000000008152600401620000729062000176565b60405180910390fd5b60ff801660008054906101000a900460ff1660ff161015620000ed5760ff6000806101000a81548160ff021916908360ff1602179055507f7f26b83ff96e1f2b6a682f133852f6798a09c465da95921460cefb384740249860ff604051620000e49190620001b6565b60405180910390a15b565b600082825260208201905092915050565b7f496e697469616c697a61626c653a20636f6e747261637420697320696e69746960008201527f616c697a696e6700000000000000000000000000000000000000000000000000602082015250565b60006200015e602783620000ef565b91506200016b8262000100565b604082019050919050565b6000602082019050818103600083015262000191816200014f565b9050919050565b600060ff82169050919050565b620001b08162000198565b82525050565b6000602082019050620001cd6000830184620001a5565b92915050565b61571780620001e36000396000f3fe608060405234801561001057600080fd5b50600436106101a85760003560e01c806375b238fc116100f9578063bd85b03911610097578063eca7b68111610071578063eca7b68114610518578063f242432a14610548578063f2fde38b14610564578063f5298aca14610594576101a8565b8063bd85b0391461049c578063d547741f146104cc578063e985e9c5146104e8576101a8565b806395d89b41116100d357806395d89b4114610428578063a217fddf14610446578063a22cb46514610464578063a6487c5314610480576101a8565b806375b238fc146103bc5780638da5cb5b146103da57806391d14854146103f8576101a8565b80632eb2c2d6116101665780634e1273f4116101405780634e1273f4146103105780634f558e791461034057806355f804b3146103705780636b20c454146103a0576101a8565b80632eb2c2d6146102bc5780632f2ff15d146102d857806336568abe146102f4576101a8565b8062fdd58e146101ad57806301ffc9a7146101dd57806306fdde031461020d5780630e89341c1461022b578063248a9ca31461025b5780632a55205a1461028b575b600080fd5b6101c760048036038101906101c29190613735565b6105b0565b6040516101d49190613784565b60405180910390f35b6101f760048036038101906101f291906137f7565b610679565b604051610204919061383f565b60405180910390f35b61021561068b565b60405161022291906138f3565b60405180910390f35b61024560048036038101906102409190613915565b61071e565b60405161025291906138f3565b60405180910390f35b61027560048036038101906102709190613978565b6108c1565b60405161028291906139b4565b60405180910390f35b6102a560048036038101906102a091906139cf565b6108e1565b6040516102b3929190613a1e565b60405180910390f35b6102d660048036038101906102d19190613c44565b6109ef565b005b6102f260048036038101906102ed9190613d13565b610a90565b005b61030e60048036038101906103099190613d13565b610ab1565b005b61032a60048036038101906103259190613e16565b610b34565b6040516103379190613f4c565b60405180910390f35b61035a60048036038101906103559190613915565b610c4d565b604051610367919061383f565b60405180910390f35b61038a6004803603810190610385919061400f565b610c61565b604051610397919061383f565b60405180910390f35b6103ba60048036038101906103b59190614058565b610d09565b005b6103c4610da6565b6040516103d191906139b4565b60405180910390f35b6103e2610dca565b6040516103ef91906140e3565b60405180910390f35b610412600480360381019061040d9190613d13565b610df1565b60405161041f919061383f565b60405180910390f35b610430610e5c565b60405161043d91906138f3565b60405180910390f35b61044e610eef565b60405161045b91906139b4565b60405180910390f35b61047e6004803603810190610479919061412a565b610ef6565b005b61049a6004803603810190610495919061416a565b610f0c565b005b6104b660048036038101906104b19190613915565b61112c565b6040516104c39190613784565b60405180910390f35b6104e660048036038101906104e19190613d13565b611149565b005b61050260048036038101906104fd9190614211565b61116a565b60405161050f919061383f565b60405180910390f35b610532600480360381019061052d9190614295565b6111fe565b60405161053f9190613784565b60405180910390f35b610562600480360381019061055d9190614304565b6112a7565b005b61057e6004803603810190610579919061439b565b611348565b60405161058b919061383f565b60405180910390f35b6105ae60048036038101906105a991906143c8565b611523565b005b60008073ffffffffffffffffffffffffffffffffffffffff168373ffffffffffffffffffffffffffffffffffffffff1603610620576040517f08c379a00000000000000000000000000000000000000000000000000000000081526004016106179061448d565b60405180910390fd5b6065600083815260200190815260200160002060008473ffffffffffffffffffffffffffffffffffffffff1673ffffffffffffffffffffffffffffffffffffffff16815260200190815260200160002054905092915050565b6000610684826115c0565b9050919050565b6060610131805461069b906144dc565b80601f01602080910402602001604051908101604052809291908181526020018280546106c7906144dc565b80156107145780601f106106e957610100808354040283529160200191610714565b820191906000526020600020905b8154815290600101906020018083116106f757829003601f168201915b5050505050905090565b606061072982610c4d565b610768576040517f08c379a000000000000000000000000000000000000000000000000000000000815260040161075f9061457f565b60405180910390fd5b600061012f60008481526020019081526020016000208054610789906144dc565b80601f01602080910402602001604051908101604052809291908181526020018280546107b5906144dc565b80156108025780601f106107d757610100808354040283529160200191610802565b820191906000526020600020905b8154815290600101906020018083116107e557829003601f168201915b5050505050905060006101308054610819906144dc565b90500361082957809150506108bc565b60008151111561085f576101308160405160200161084892919061466f565b6040516020818303038152906040529150506108bc565b6000610130805461086f906144dc565b90501161088b57604051806020016040528060008152506108b8565b6101306108978461163a565b6040516020016108a892919061466f565b6040516020818303038152906040525b9150505b919050565b600060fc6000838152602001908152602001600020600101549050919050565b600080600060fb60008681526020019081526020016000206040518060400160405290816000820160009054906101000a900473ffffffffffffffffffffffffffffffffffffffff1673ffffffffffffffffffffffffffffffffffffffff1673ffffffffffffffffffffffffffffffffffffffff1681526020016000820160149054906101000a90046bffffffffffffffffffffffff166bffffffffffffffffffffffff166bffffffffffffffffffffffff1681525050905060006109a4611708565b6bffffffffffffffffffffffff1682602001516bffffffffffffffffffffffff16866109d091906146c2565b6109da919061474b565b90508160000151819350935050509250929050565b6109f7611712565b73ffffffffffffffffffffffffffffffffffffffff168573ffffffffffffffffffffffffffffffffffffffff161480610a3d5750610a3c85610a37611712565b61116a565b5b610a7c576040517f08c379a0000000000000000000000000000000000000000000000000000000008152600401610a73906147ee565b60405180910390fd5b610a89858585858561171a565b5050505050565b610a99826108c1565b610aa281611a3e565b610aac8383611a52565b505050565b610ab9611712565b73ffffffffffffffffffffffffffffffffffffffff168173ffffffffffffffffffffffffffffffffffffffff1614610b26576040517f08c379a0000000000000000000000000000000000000000000000000000000008152600401610b1d90614880565b60405180910390fd5b610b308282611b33565b5050565b60608151835114610b7a576040517f08c379a0000000000000000000000000000000000000000000000000000000008152600401610b7190614912565b60405180910390fd5b6000835167ffffffffffffffff811115610b9757610b96613a4c565b5b604051908082528060200260200182016040528015610bc55781602001602082028036833780820191505090505b50905060005b8451811015610c4257610c12858281518110610bea57610be9614932565b5b6020026020010151858381518110610c0557610c04614932565b5b60200260200101516105b0565b828281518110610c2557610c24614932565b5b60200260200101818152505080610c3b90614961565b9050610bcb565b508091505092915050565b600080610c598361112c565b119050919050565b60007fa49807205ce4d355092ef5a8a18f56e8913cf4a201fbe287825b095693c21775610c8d81611a3e565b82604051610c9b91906149a9565b6040518091039020610130604051610cb391906149c0565b60405180910390207fc41b7cb64e5be01af4afc2641afc861432136270f4206b7773f229b658b9669960405160405180910390a3826101309080519060200190610cfe9291906135ea565b506001915050919050565b610d11611712565b73ffffffffffffffffffffffffffffffffffffffff168373ffffffffffffffffffffffffffffffffffffffff161480610d575750610d5683610d51611712565b61116a565b5b610d96576040517f08c379a0000000000000000000000000000000000000000000000000000000008152600401610d8d906147ee565b60405180910390fd5b610da1838383611c15565b505050565b7fa49807205ce4d355092ef5a8a18f56e8913cf4a201fbe287825b095693c2177581565b61013360009054906101000a900473ffffffffffffffffffffffffffffffffffffffff1681565b600060fc600084815260200190815260200160002060000160008373ffffffffffffffffffffffffffffffffffffffff1673ffffffffffffffffffffffffffffffffffffffff16815260200190815260200160002060009054906101000a900460ff16905092915050565b60606101328054610e6c906144dc565b80601f0160208091040260200160405190810160405280929190818152602001828054610e98906144dc565b8015610ee55780601f10610eba57610100808354040283529160200191610ee5565b820191906000526020600020905b815481529060010190602001808311610ec857829003601f168201915b5050505050905090565b6000801b81565b610f08610f01611712565b8383611ee5565b5050565b60008060019054906101000a900460ff16159050808015610f3d5750600160008054906101000a900460ff1660ff16105b80610f6a5750610f4c30612051565b158015610f695750600160008054906101000a900460ff1660ff16145b5b610fa9576040517f08c379a0000000000000000000000000000000000000000000000000000000008152600401610fa090614a49565b60405180910390fd5b60016000806101000a81548160ff021916908360ff1602179055508015610fe6576001600060016101000a81548160ff0219169083151502179055505b610fef82612074565b610ff76120cf565b610fff612120565b611007612171565b81610130908051906020019061101e9291906135ea565b50611027611712565b61013360006101000a81548173ffffffffffffffffffffffffffffffffffffffff021916908373ffffffffffffffffffffffffffffffffffffffff1602179055506110927fa49807205ce4d355092ef5a8a18f56e8913cf4a201fbe287825b095693c21775336121c2565b8361013190805190602001906110a99291906135ea565b508261013290805190602001906110c19291906135ea565b506110cd61012e6121d0565b80156111265760008060016101000a81548160ff0219169083151502179055507f7f26b83ff96e1f2b6a682f133852f6798a09c465da95921460cefb3847402498600160405161111d9190614abb565b60405180910390a15b50505050565b600060c96000838152602001908152602001600020549050919050565b611152826108c1565b61115b81611a3e565b6111658383611b33565b505050565b6000606660008473ffffffffffffffffffffffffffffffffffffffff1673ffffffffffffffffffffffffffffffffffffffff16815260200190815260200160002060008373ffffffffffffffffffffffffffffffffffffffff1673ffffffffffffffffffffffffffffffffffffffff16815260200190815260200160002060009054906101000a900460ff16905092915050565b60007fa49807205ce4d355092ef5a8a18f56e8913cf4a201fbe287825b095693c2177561122a81611a3e565b61123561012e6121e6565b9150611259611242611712565b8385604051806020016040528060008152506121f4565b8461012f600084815260200190815260200160002090805190602001906112819291906135ea565b506112948261128e611712565b866123a5565b61129f61012e6121d0565b509392505050565b6112af611712565b73ffffffffffffffffffffffffffffffffffffffff168573ffffffffffffffffffffffffffffffffffffffff1614806112f557506112f4856112ef611712565b61116a565b5b611334576040517f08c379a000000000000000000000000000000000000000000000000000000000815260040161132b906147ee565b60405180910390fd5b611341858585858561254c565b5050505050565b60007fa49807205ce4d355092ef5a8a18f56e8913cf4a201fbe287825b095693c2177561137481611a3e565b600073ffffffffffffffffffffffffffffffffffffffff168373ffffffffffffffffffffffffffffffffffffffff16036113e3576040517f08c379a00000000000000000000000000000000000000000000000000000000081526004016113da90614b48565b60405180910390fd5b6114307fa49807205ce4d355092ef5a8a18f56e8913cf4a201fbe287825b095693c2177561013360009054906101000a900473ffffffffffffffffffffffffffffffffffffffff16611b33565b8273ffffffffffffffffffffffffffffffffffffffff1661013360009054906101000a900473ffffffffffffffffffffffffffffffffffffffff1673ffffffffffffffffffffffffffffffffffffffff167f8be0079c531659141344cd1fd0a4f28419497f9722a3daafe3b4186f6b6457e060405160405180910390a38261013360006101000a81548173ffffffffffffffffffffffffffffffffffffffff021916908373ffffffffffffffffffffffffffffffffffffffff1602179055506115197fa49807205ce4d355092ef5a8a18f56e8913cf4a201fbe287825b095693c21775846121c2565b6001915050919050565b61152b611712565b73ffffffffffffffffffffffffffffffffffffffff168373ffffffffffffffffffffffffffffffffffffffff16148061157157506115708361156b611712565b61116a565b5b6115b0576040517f08c379a00000000000000000000000000000000000000000000000000000000081526004016115a7906147ee565b60405180910390fd5b6115bb8383836127ea565b505050565b60007f7965db0b000000000000000000000000000000000000000000000000000000007bffffffffffffffffffffffffffffffffffffffffffffffffffffffff1916827bffffffffffffffffffffffffffffffffffffffffffffffffffffffff19161480611633575061163282612a32565b5b9050919050565b60606000600161164984612aac565b01905060008167ffffffffffffffff81111561166857611667613a4c565b5b6040519080825280601f01601f19166020018201604052801561169a5781602001600182028036833780820191505090505b509050600082602001820190505b6001156116fd578080600190039150507f3031323334353637383961626364656600000000000000000000000000000000600a86061a8153600a85816116f1576116f061471c565b5b049450600085036116a8575b819350505050919050565b60006103e8905090565b600033905090565b815183511461175e576040517f08c379a000000000000000000000000000000000000000000000000000000000815260040161175590614bda565b60405180910390fd5b600073ffffffffffffffffffffffffffffffffffffffff168473ffffffffffffffffffffffffffffffffffffffff16036117cd576040517f08c379a00000000000000000000000000000000000000000000000000000000081526004016117c490614c6c565b60405180910390fd5b60006117d7611712565b90506117e7818787878787612bff565b60005b845181101561199b57600085828151811061180857611807614932565b5b60200260200101519050600085838151811061182757611826614932565b5b6020026020010151905060006065600084815260200190815260200160002060008b73ffffffffffffffffffffffffffffffffffffffff1673ffffffffffffffffffffffffffffffffffffffff168152602001908152602001600020549050818110156118c9576040517f08c379a00000000000000000000000000000000000000000000000000000000081526004016118c090614cfe565b60405180910390fd5b8181036065600085815260200190815260200160002060008c73ffffffffffffffffffffffffffffffffffffffff1673ffffffffffffffffffffffffffffffffffffffff16815260200190815260200160002081905550816065600085815260200190815260200160002060008b73ffffffffffffffffffffffffffffffffffffffff1673ffffffffffffffffffffffffffffffffffffffff16815260200190815260200160002060008282546119809190614d1e565b925050819055505050508061199490614961565b90506117ea565b508473ffffffffffffffffffffffffffffffffffffffff168673ffffffffffffffffffffffffffffffffffffffff168273ffffffffffffffffffffffffffffffffffffffff167f4a39dc06d4c0dbc64b70af90fd698a233a518aa5d07e595d983b8c0526c8f7fb8787604051611a12929190614d74565b60405180910390a4611a28818787878787612c15565b611a36818787878787612c1d565b505050505050565b611a4f81611a4a611712565b612df4565b50565b611a5c8282610df1565b611b2f57600160fc600084815260200190815260200160002060000160008373ffffffffffffffffffffffffffffffffffffffff1673ffffffffffffffffffffffffffffffffffffffff16815260200190815260200160002060006101000a81548160ff021916908315150217905550611ad4611712565b73ffffffffffffffffffffffffffffffffffffffff168173ffffffffffffffffffffffffffffffffffffffff16837f2f8788117e7eff1d82e926ec794901d17c78024a50270940304540a733656f0d60405160405180910390a45b5050565b611b3d8282610df1565b15611c1157600060fc600084815260200190815260200160002060000160008373ffffffffffffffffffffffffffffffffffffffff1673ffffffffffffffffffffffffffffffffffffffff16815260200190815260200160002060006101000a81548160ff021916908315150217905550611bb6611712565b73ffffffffffffffffffffffffffffffffffffffff168173ffffffffffffffffffffffffffffffffffffffff16837ff6391f5c32d9c69d2a47ea670b442974b53935d1edc7fd64eb21e047a839171b60405160405180910390a45b5050565b600073ffffffffffffffffffffffffffffffffffffffff168373ffffffffffffffffffffffffffffffffffffffff1603611c84576040517f08c379a0000000000000000000000000000000000000000000000000000000008152600401611c7b90614e1d565b60405180910390fd5b8051825114611cc8576040517f08c379a0000000000000000000000000000000000000000000000000000000008152600401611cbf90614bda565b60405180910390fd5b6000611cd2611712565b9050611cf281856000868660405180602001604052806000815250612bff565b60005b8351811015611e41576000848281518110611d1357611d12614932565b5b602002602001015190506000848381518110611d3257611d31614932565b5b6020026020010151905060006065600084815260200190815260200160002060008973ffffffffffffffffffffffffffffffffffffffff1673ffffffffffffffffffffffffffffffffffffffff16815260200190815260200160002054905081811015611dd4576040517f08c379a0000000000000000000000000000000000000000000000000000000008152600401611dcb90614eaf565b60405180910390fd5b8181036065600085815260200190815260200160002060008a73ffffffffffffffffffffffffffffffffffffffff1673ffffffffffffffffffffffffffffffffffffffff168152602001908152602001600020819055505050508080611e3990614961565b915050611cf5565b50600073ffffffffffffffffffffffffffffffffffffffff168473ffffffffffffffffffffffffffffffffffffffff168273ffffffffffffffffffffffffffffffffffffffff167f4a39dc06d4c0dbc64b70af90fd698a233a518aa5d07e595d983b8c0526c8f7fb8686604051611eb9929190614d74565b60405180910390a4611edf81856000868660405180602001604052806000815250612c15565b50505050565b8173ffffffffffffffffffffffffffffffffffffffff168373ffffffffffffffffffffffffffffffffffffffff1603611f53576040517f08c379a0000000000000000000000000000000000000000000000000000000008152600401611f4a90614f41565b60405180910390fd5b80606660008573ffffffffffffffffffffffffffffffffffffffff1673ffffffffffffffffffffffffffffffffffffffff16815260200190815260200160002060008473ffffffffffffffffffffffffffffffffffffffff1673ffffffffffffffffffffffffffffffffffffffff16815260200190815260200160002060006101000a81548160ff0219169083151502179055508173ffffffffffffffffffffffffffffffffffffffff168373ffffffffffffffffffffffffffffffffffffffff167f17307eab39ab6107e8899845ad3d59bd9653f200f220920489ca2b5937696c3183604051612044919061383f565b60405180910390a3505050565b6000808273ffffffffffffffffffffffffffffffffffffffff163b119050919050565b600060019054906101000a900460ff166120c3576040517f08c379a00000000000000000000000000000000000000000000000000000000081526004016120ba90614fd3565b60405180910390fd5b6120cc81612e79565b50565b600060019054906101000a900460ff1661211e576040517f08c379a000000000000000000000000000000000000000000000000000000000815260040161211590614fd3565b60405180910390fd5b565b600060019054906101000a900460ff1661216f576040517f08c379a000000000000000000000000000000000000000000000000000000000815260040161216690614fd3565b60405180910390fd5b565b600060019054906101000a900460ff166121c0576040517f08c379a00000000000000000000000000000000000000000000000000000000081526004016121b790614fd3565b60405180910390fd5b565b6121cc8282611a52565b5050565b6001816000016000828254019250508190555050565b600081600001549050919050565b600073ffffffffffffffffffffffffffffffffffffffff168473ffffffffffffffffffffffffffffffffffffffff1603612263576040517f08c379a000000000000000000000000000000000000000000000000000000000815260040161225a90615065565b60405180910390fd5b600061226d611712565b9050600061227a85612ed4565b9050600061228785612ed4565b905061229883600089858589612bff565b846065600088815260200190815260200160002060008973ffffffffffffffffffffffffffffffffffffffff1673ffffffffffffffffffffffffffffffffffffffff16815260200190815260200160002060008282546122f89190614d1e565b925050819055508673ffffffffffffffffffffffffffffffffffffffff16600073ffffffffffffffffffffffffffffffffffffffff168473ffffffffffffffffffffffffffffffffffffffff167fc3d58168c5ae7397731d063d5bbf3d657854427343f4c083240f7aacaa2d0f628989604051612376929190615085565b60405180910390a461238d83600089858589612c15565b61239c83600089898989612f4e565b50505050505050565b6123ad611708565b6bffffffffffffffffffffffff16816bffffffffffffffffffffffff16111561240b576040517f08c379a000000000000000000000000000000000000000000000000000000000815260040161240290615120565b60405180910390fd5b600073ffffffffffffffffffffffffffffffffffffffff168273ffffffffffffffffffffffffffffffffffffffff160361247a576040517f08c379a00000000000000000000000000000000000000000000000000000000081526004016124719061518c565b60405180910390fd5b60405180604001604052808373ffffffffffffffffffffffffffffffffffffffff168152602001826bffffffffffffffffffffffff1681525060fb600085815260200190815260200160002060008201518160000160006101000a81548173ffffffffffffffffffffffffffffffffffffffff021916908373ffffffffffffffffffffffffffffffffffffffff16021790555060208201518160000160146101000a8154816bffffffffffffffffffffffff02191690836bffffffffffffffffffffffff160217905550905050505050565b600073ffffffffffffffffffffffffffffffffffffffff168473ffffffffffffffffffffffffffffffffffffffff16036125bb576040517f08c379a00000000000000000000000000000000000000000000000000000000081526004016125b290614c6c565b60405180910390fd5b60006125c5611712565b905060006125d285612ed4565b905060006125df85612ed4565b90506125ef838989858589612bff565b60006065600088815260200190815260200160002060008a73ffffffffffffffffffffffffffffffffffffffff1673ffffffffffffffffffffffffffffffffffffffff16815260200190815260200160002054905085811015612687576040517f08c379a000000000000000000000000000000000000000000000000000000000815260040161267e90614cfe565b60405180910390fd5b8581036065600089815260200190815260200160002060008b73ffffffffffffffffffffffffffffffffffffffff1673ffffffffffffffffffffffffffffffffffffffff16815260200190815260200160002081905550856065600089815260200190815260200160002060008a73ffffffffffffffffffffffffffffffffffffffff1673ffffffffffffffffffffffffffffffffffffffff168152602001908152602001600020600082825461273e9190614d1e565b925050819055508773ffffffffffffffffffffffffffffffffffffffff168973ffffffffffffffffffffffffffffffffffffffff168573ffffffffffffffffffffffffffffffffffffffff167fc3d58168c5ae7397731d063d5bbf3d657854427343f4c083240f7aacaa2d0f628a8a6040516127bb929190615085565b60405180910390a46127d1848a8a86868a612c15565b6127df848a8a8a8a8a612f4e565b505050505050505050565b600073ffffffffffffffffffffffffffffffffffffffff168373ffffffffffffffffffffffffffffffffffffffff1603612859576040517f08c379a000000000000000000000000000000000000000000000000000000000815260040161285090614e1d565b60405180910390fd5b6000612863611712565b9050600061287084612ed4565b9050600061287d84612ed4565b905061289d83876000858560405180602001604052806000815250612bff565b60006065600087815260200190815260200160002060008873ffffffffffffffffffffffffffffffffffffffff1673ffffffffffffffffffffffffffffffffffffffff16815260200190815260200160002054905084811015612935576040517f08c379a000000000000000000000000000000000000000000000000000000000815260040161292c90614eaf565b60405180910390fd5b8481036065600088815260200190815260200160002060008973ffffffffffffffffffffffffffffffffffffffff1673ffffffffffffffffffffffffffffffffffffffff16815260200190815260200160002081905550600073ffffffffffffffffffffffffffffffffffffffff168773ffffffffffffffffffffffffffffffffffffffff168573ffffffffffffffffffffffffffffffffffffffff167fc3d58168c5ae7397731d063d5bbf3d657854427343f4c083240f7aacaa2d0f628989604051612a03929190615085565b60405180910390a4612a2984886000868660405180602001604052806000815250612c15565b50505050505050565b60007f2a55205a000000000000000000000000000000000000000000000000000000007bffffffffffffffffffffffffffffffffffffffffffffffffffffffff1916827bffffffffffffffffffffffffffffffffffffffffffffffffffffffff19161480612aa55750612aa482613125565b5b9050919050565b600080600090507a184f03e93ff9f4daa797ed6e38ed64bf6a1f0100000000000000008310612b0a577a184f03e93ff9f4daa797ed6e38ed64bf6a1f0100000000000000008381612b0057612aff61471c565b5b0492506040810190505b6d04ee2d6d415b85acef81000000008310612b47576d04ee2d6d415b85acef81000000008381612b3d57612b3c61471c565b5b0492506020810190505b662386f26fc100008310612b7657662386f26fc100008381612b6c57612b6b61471c565b5b0492506010810190505b6305f5e1008310612b9f576305f5e1008381612b9557612b9461471c565b5b0492506008810190505b6127108310612bc4576127108381612bba57612bb961471c565b5b0492506004810190505b60648310612be75760648381612bdd57612bdc61471c565b5b0492506002810190505b600a8310612bf6576001810190505b80915050919050565b612c0d86868686868661318f565b505050505050565b505050505050565b612c3c8473ffffffffffffffffffffffffffffffffffffffff16612051565b15612dec578373ffffffffffffffffffffffffffffffffffffffff1663bc197c8187878686866040518663ffffffff1660e01b8152600401612c82959493929190615201565b6020604051808303816000875af1925050508015612cbe57506040513d601f19601f82011682018060405250810190612cbb919061527e565b60015b612d6357612cca6152b8565b806308c379a003612d265750612cde6152da565b80612ce95750612d28565b806040517f08c379a0000000000000000000000000000000000000000000000000000000008152600401612d1d91906138f3565b60405180910390fd5b505b6040517f08c379a0000000000000000000000000000000000000000000000000000000008152600401612d5a906153dc565b60405180910390fd5b63bc197c8160e01b7bffffffffffffffffffffffffffffffffffffffffffffffffffffffff1916817bffffffffffffffffffffffffffffffffffffffffffffffffffffffff191614612dea576040517f08c379a0000000000000000000000000000000000000000000000000000000008152600401612de19061546e565b60405180910390fd5b505b505050505050565b612dfe8282610df1565b612e7557612e0b8161335f565b612e198360001c602061338c565b604051602001612e2a929190615526565b6040516020818303038152906040526040517f08c379a0000000000000000000000000000000000000000000000000000000008152600401612e6c91906138f3565b60405180910390fd5b5050565b600060019054906101000a900460ff16612ec8576040517f08c379a0000000000000000000000000000000000000000000000000000000008152600401612ebf90614fd3565b60405180910390fd5b612ed1816135c8565b50565b60606000600167ffffffffffffffff811115612ef357612ef2613a4c565b5b604051908082528060200260200182016040528015612f215781602001602082028036833780820191505090505b5090508281600081518110612f3957612f38614932565b5b60200260200101818152505080915050919050565b612f6d8473ffffffffffffffffffffffffffffffffffffffff16612051565b1561311d578373ffffffffffffffffffffffffffffffffffffffff1663f23a6e6187878686866040518663ffffffff1660e01b8152600401612fb3959493929190615560565b6020604051808303816000875af1925050508015612fef57506040513d601f19601f82011682018060405250810190612fec919061527e565b60015b61309457612ffb6152b8565b806308c379a003613057575061300f6152da565b8061301a5750613059565b806040517f08c379a000000000000000000000000000000000000000000000000000000000815260040161304e91906138f3565b60405180910390fd5b505b6040517f08c379a000000000000000000000000000000000000000000000000000000000815260040161308b906153dc565b60405180910390fd5b63f23a6e6160e01b7bffffffffffffffffffffffffffffffffffffffffffffffffffffffff1916817bffffffffffffffffffffffffffffffffffffffffffffffffffffffff19161461311b576040517f08c379a00000000000000000000000000000000000000000000000000000000081526004016131129061546e565b60405180910390fd5b505b505050505050565b60007f01ffc9a7000000000000000000000000000000000000000000000000000000007bffffffffffffffffffffffffffffffffffffffffffffffffffffffff1916827bffffffffffffffffffffffffffffffffffffffffffffffffffffffff1916149050919050565b61319d8686868686866135e2565b600073ffffffffffffffffffffffffffffffffffffffff168573ffffffffffffffffffffffffffffffffffffffff160361324e5760005b835181101561324c578281815181106131f0576131ef614932565b5b602002602001015160c9600086848151811061320f5761320e614932565b5b6020026020010151815260200190815260200160002060008282546132349190614d1e565b925050819055508061324590614961565b90506131d4565b505b600073ffffffffffffffffffffffffffffffffffffffff168473ffffffffffffffffffffffffffffffffffffffff16036133575760005b83518110156133555760008482815181106132a3576132a2614932565b5b6020026020010151905060008483815181106132c2576132c1614932565b5b60200260200101519050600060c9600084815260200190815260200160002054905081811015613327576040517f08c379a000000000000000000000000000000000000000000000000000000000815260040161331e9061562c565b60405180910390fd5b81810360c96000858152602001908152602001600020819055505050508061334e90614961565b9050613285565b505b505050505050565b60606133858273ffffffffffffffffffffffffffffffffffffffff16601460ff1661338c565b9050919050565b60606000600283600261339f91906146c2565b6133a99190614d1e565b67ffffffffffffffff8111156133c2576133c1613a4c565b5b6040519080825280601f01601f1916602001820160405280156133f45781602001600182028036833780820191505090505b5090507f30000000000000000000000000000000000000000000000000000000000000008160008151811061342c5761342b614932565b5b60200101907effffffffffffffffffffffffffffffffffffffffffffffffffffffffffffff1916908160001a9053507f7800000000000000000000000000000000000000000000000000000000000000816001815181106134905761348f614932565b5b60200101907effffffffffffffffffffffffffffffffffffffffffffffffffffffffffffff1916908160001a905350600060018460026134d091906146c2565b6134da9190614d1e565b90505b600181111561357a577f3031323334353637383961626364656600000000000000000000000000000000600f86166010811061351c5761351b614932565b5b1a60f81b82828151811061353357613532614932565b5b60200101907effffffffffffffffffffffffffffffffffffffffffffffffffffffffffffff1916908160001a905350600485901c9450806135739061564c565b90506134dd565b50600084146135be576040517f08c379a00000000000000000000000000000000000000000000000000000000081526004016135b5906156c1565b60405180910390fd5b8091505092915050565b80606790805190602001906135de9291906135ea565b5050565b505050505050565b8280546135f6906144dc565b90600052602060002090601f016020900481019282613618576000855561365f565b82601f1061363157805160ff191683800117855561365f565b8280016001018555821561365f579182015b8281111561365e578251825591602001919060010190613643565b5b50905061366c9190613670565b5090565b5b80821115613689576000816000905550600101613671565b5090565b6000604051905090565b600080fd5b600080fd5b600073ffffffffffffffffffffffffffffffffffffffff82169050919050565b60006136cc826136a1565b9050919050565b6136dc816136c1565b81146136e757600080fd5b50565b6000813590506136f9816136d3565b92915050565b6000819050919050565b613712816136ff565b811461371d57600080fd5b50565b60008135905061372f81613709565b92915050565b6000806040838503121561374c5761374b613697565b5b600061375a858286016136ea565b925050602061376b85828601613720565b9150509250929050565b61377e816136ff565b82525050565b60006020820190506137996000830184613775565b92915050565b60007fffffffff0000000000000000000000000000000000000000000000000000000082169050919050565b6137d48161379f565b81146137df57600080fd5b50565b6000813590506137f1816137cb565b92915050565b60006020828403121561380d5761380c613697565b5b600061381b848285016137e2565b91505092915050565b60008115159050919050565b61383981613824565b82525050565b60006020820190506138546000830184613830565b92915050565b600081519050919050565b600082825260208201905092915050565b60005b83811015613894578082015181840152602081019050613879565b838111156138a3576000848401525b50505050565b6000601f19601f8301169050919050565b60006138c58261385a565b6138cf8185613865565b93506138df818560208601613876565b6138e8816138a9565b840191505092915050565b6000602082019050818103600083015261390d81846138ba565b905092915050565b60006020828403121561392b5761392a613697565b5b600061393984828501613720565b91505092915050565b6000819050919050565b61395581613942565b811461396057600080fd5b50565b6000813590506139728161394c565b92915050565b60006020828403121561398e5761398d613697565b5b600061399c84828501613963565b91505092915050565b6139ae81613942565b82525050565b60006020820190506139c960008301846139a5565b92915050565b600080604083850312156139e6576139e5613697565b5b60006139f485828601613720565b9250506020613a0585828601613720565b9150509250929050565b613a18816136c1565b82525050565b6000604082019050613a336000830185613a0f565b613a406020830184613775565b9392505050565b600080fd5b7f4e487b7100000000000000000000000000000000000000000000000000000000600052604160045260246000fd5b613a84826138a9565b810181811067ffffffffffffffff82111715613aa357613aa2613a4c565b5b80604052505050565b6000613ab661368d565b9050613ac28282613a7b565b919050565b600067ffffffffffffffff821115613ae257613ae1613a4c565b5b602082029050602081019050919050565b600080fd5b6000613b0b613b0684613ac7565b613aac565b90508083825260208201905060208402830185811115613b2e57613b2d613af3565b5b835b81811015613b575780613b438882613720565b845260208401935050602081019050613b30565b5050509392505050565b600082601f830112613b7657613b75613a47565b5b8135613b86848260208601613af8565b91505092915050565b600080fd5b600067ffffffffffffffff821115613baf57613bae613a4c565b5b613bb8826138a9565b9050602081019050919050565b82818337600083830152505050565b6000613be7613be284613b94565b613aac565b905082815260208101848484011115613c0357613c02613b8f565b5b613c0e848285613bc5565b509392505050565b600082601f830112613c2b57613c2a613a47565b5b8135613c3b848260208601613bd4565b91505092915050565b600080600080600060a08688031215613c6057613c5f613697565b5b6000613c6e888289016136ea565b9550506020613c7f888289016136ea565b945050604086013567ffffffffffffffff811115613ca057613c9f61369c565b5b613cac88828901613b61565b935050606086013567ffffffffffffffff811115613ccd57613ccc61369c565b5b613cd988828901613b61565b925050608086013567ffffffffffffffff811115613cfa57613cf961369c565b5b613d0688828901613c16565b9150509295509295909350565b60008060408385031215613d2a57613d29613697565b5b6000613d3885828601613963565b9250506020613d49858286016136ea565b9150509250929050565b600067ffffffffffffffff821115613d6e57613d6d613a4c565b5b602082029050602081019050919050565b6000613d92613d8d84613d53565b613aac565b90508083825260208201905060208402830185811115613db557613db4613af3565b5b835b81811015613dde5780613dca88826136ea565b845260208401935050602081019050613db7565b5050509392505050565b600082601f830112613dfd57613dfc613a47565b5b8135613e0d848260208601613d7f565b91505092915050565b60008060408385031215613e2d57613e2c613697565b5b600083013567ffffffffffffffff811115613e4b57613e4a61369c565b5b613e5785828601613de8565b925050602083013567ffffffffffffffff811115613e7857613e7761369c565b5b613e8485828601613b61565b9150509250929050565b600081519050919050565b600082825260208201905092915050565b6000819050602082019050919050565b613ec3816136ff565b82525050565b6000613ed58383613eba565b60208301905092915050565b6000602082019050919050565b6000613ef982613e8e565b613f038185613e99565b9350613f0e83613eaa565b8060005b83811015613f3f578151613f268882613ec9565b9750613f3183613ee1565b925050600181019050613f12565b5085935050505092915050565b60006020820190508181036000830152613f668184613eee565b905092915050565b600067ffffffffffffffff821115613f8957613f88613a4c565b5b613f92826138a9565b9050602081019050919050565b6000613fb2613fad84613f6e565b613aac565b905082815260208101848484011115613fce57613fcd613b8f565b5b613fd9848285613bc5565b509392505050565b600082601f830112613ff657613ff5613a47565b5b8135614006848260208601613f9f565b91505092915050565b60006020828403121561402557614024613697565b5b600082013567ffffffffffffffff8111156140435761404261369c565b5b61404f84828501613fe1565b91505092915050565b60008060006060848603121561407157614070613697565b5b600061407f868287016136ea565b935050602084013567ffffffffffffffff8111156140a05761409f61369c565b5b6140ac86828701613b61565b925050604084013567ffffffffffffffff8111156140cd576140cc61369c565b5b6140d986828701613b61565b9150509250925092565b60006020820190506140f86000830184613a0f565b92915050565b61410781613824565b811461411257600080fd5b50565b600081359050614124816140fe565b92915050565b6000806040838503121561414157614140613697565b5b600061414f858286016136ea565b925050602061416085828601614115565b9150509250929050565b60008060006060848603121561418357614182613697565b5b600084013567ffffffffffffffff8111156141a1576141a061369c565b5b6141ad86828701613fe1565b935050602084013567ffffffffffffffff8111156141ce576141cd61369c565b5b6141da86828701613fe1565b925050604084013567ffffffffffffffff8111156141fb576141fa61369c565b5b61420786828701613fe1565b9150509250925092565b6000806040838503121561422857614227613697565b5b6000614236858286016136ea565b9250506020614247858286016136ea565b9150509250929050565b60006bffffffffffffffffffffffff82169050919050565b61427281614251565b811461427d57600080fd5b50565b60008135905061428f81614269565b92915050565b6000806000606084860312156142ae576142ad613697565b5b600084013567ffffffffffffffff8111156142cc576142cb61369c565b5b6142d886828701613fe1565b93505060206142e986828701614280565b92505060406142fa86828701613720565b9150509250925092565b600080600080600060a086880312156143205761431f613697565b5b600061432e888289016136ea565b955050602061433f888289016136ea565b945050604061435088828901613720565b935050606061436188828901613720565b925050608086013567ffffffffffffffff8111156143825761438161369c565b5b61438e88828901613c16565b9150509295509295909350565b6000602082840312156143b1576143b0613697565b5b60006143bf848285016136ea565b91505092915050565b6000806000606084860312156143e1576143e0613697565b5b60006143ef868287016136ea565b935050602061440086828701613720565b925050604061441186828701613720565b9150509250925092565b7f455243313135353a2061646472657373207a65726f206973206e6f742061207660008201527f616c6964206f776e657200000000000000000000000000000000000000000000602082015250565b6000614477602a83613865565b91506144828261441b565b604082019050919050565b600060208201905081810360008301526144a68161446a565b9050919050565b7f4e487b7100000000000000000000000000000000000000000000000000000000600052602260045260246000fd5b600060028204905060018216806144f457607f821691505b602082108103614507576145066144ad565b5b50919050565b7f4552433131353555524953746f726167653a2055524920717565727920666f7260008201527f206e6f6e6578697374656e7420746f6b656e0000000000000000000000000000602082015250565b6000614569603283613865565b91506145748261450d565b604082019050919050565b600060208201905081810360008301526145988161455c565b9050919050565b600081905092915050565b60008190508160005260206000209050919050565b600081546145cc816144dc565b6145d6818661459f565b945060018216600081146145f1576001811461460257614635565b60ff19831686528186019350614635565b61460b856145aa565b60005b8381101561462d5781548189015260018201915060208101905061460e565b838801955050505b50505092915050565b60006146498261385a565b614653818561459f565b9350614663818560208601613876565b80840191505092915050565b600061467b82856145bf565b9150614687828461463e565b91508190509392505050565b7f4e487b7100000000000000000000000000000000000000000000000000000000600052601160045260246000fd5b60006146cd826136ff565b91506146d8836136ff565b9250817fffffffffffffffffffffffffffffffffffffffffffffffffffffffffffffffff048311821515161561471157614710614693565b5b828202905092915050565b7f4e487b7100000000000000000000000000000000000000000000000000000000600052601260045260246000fd5b6000614756826136ff565b9150614761836136ff565b9250826147715761477061471c565b5b828204905092915050565b7f455243313135353a2063616c6c6572206973206e6f7420746f6b656e206f776e60008201527f6572206f7220617070726f766564000000000000000000000000000000000000602082015250565b60006147d8602e83613865565b91506147e38261477c565b604082019050919050565b60006020820190508181036000830152614807816147cb565b9050919050565b7f416363657373436f6e74726f6c3a2063616e206f6e6c792072656e6f756e636560008201527f20726f6c657320666f722073656c660000000000000000000000000000000000602082015250565b600061486a602f83613865565b91506148758261480e565b604082019050919050565b600060208201905081810360008301526148998161485d565b9050919050565b7f455243313135353a206163636f756e747320616e6420696473206c656e67746860008201527f206d69736d617463680000000000000000000000000000000000000000000000602082015250565b60006148fc602983613865565b9150614907826148a0565b604082019050919050565b6000602082019050818103600083015261492b816148ef565b9050919050565b7f4e487b7100000000000000000000000000000000000000000000000000000000600052603260045260246000fd5b600061496c826136ff565b91507fffffffffffffffffffffffffffffffffffffffffffffffffffffffffffffffff820361499e5761499d614693565b5b600182019050919050565b60006149b5828461463e565b915081905092915050565b60006149cc82846145bf565b915081905092915050565b7f496e697469616c697a61626c653a20636f6e747261637420697320616c72656160008201527f647920696e697469616c697a6564000000000000000000000000000000000000602082015250565b6000614a33602e83613865565b9150614a3e826149d7565b604082019050919050565b60006020820190508181036000830152614a6281614a26565b9050919050565b6000819050919050565b600060ff82169050919050565b6000819050919050565b6000614aa5614aa0614a9b84614a69565b614a80565b614a73565b9050919050565b614ab581614a8a565b82525050565b6000602082019050614ad06000830184614aac565b92915050565b7f4f776e61626c653a206e6577206f776e657220697320746865207a65726f206160008201527f6464726573730000000000000000000000000000000000000000000000000000602082015250565b6000614b32602683613865565b9150614b3d82614ad6565b604082019050919050565b60006020820190508181036000830152614b6181614b25565b9050919050565b7f455243313135353a2069647320616e6420616d6f756e7473206c656e6774682060008201527f6d69736d61746368000000000000000000000000000000000000000000000000602082015250565b6000614bc4602883613865565b9150614bcf82614b68565b604082019050919050565b60006020820190508181036000830152614bf381614bb7565b9050919050565b7f455243313135353a207472616e7366657220746f20746865207a65726f20616460008201527f6472657373000000000000000000000000000000000000000000000000000000602082015250565b6000614c56602583613865565b9150614c6182614bfa565b604082019050919050565b60006020820190508181036000830152614c8581614c49565b9050919050565b7f455243313135353a20696e73756666696369656e742062616c616e636520666f60008201527f72207472616e7366657200000000000000000000000000000000000000000000602082015250565b6000614ce8602a83613865565b9150614cf382614c8c565b604082019050919050565b60006020820190508181036000830152614d1781614cdb565b9050919050565b6000614d29826136ff565b9150614d34836136ff565b9250827fffffffffffffffffffffffffffffffffffffffffffffffffffffffffffffffff03821115614d6957614d68614693565b5b828201905092915050565b60006040820190508181036000830152614d8e8185613eee565b90508181036020830152614da28184613eee565b90509392505050565b7f455243313135353a206275726e2066726f6d20746865207a65726f206164647260008201527f6573730000000000000000000000000000000000000000000000000000000000602082015250565b6000614e07602383613865565b9150614e1282614dab565b604082019050919050565b60006020820190508181036000830152614e3681614dfa565b9050919050565b7f455243313135353a206275726e20616d6f756e7420657863656564732062616c60008201527f616e636500000000000000000000000000000000000000000000000000000000602082015250565b6000614e99602483613865565b9150614ea482614e3d565b604082019050919050565b60006020820190508181036000830152614ec881614e8c565b9050919050565b7f455243313135353a2073657474696e6720617070726f76616c2073746174757360008201527f20666f722073656c660000000000000000000000000000000000000000000000602082015250565b6000614f2b602983613865565b9150614f3682614ecf565b604082019050919050565b60006020820190508181036000830152614f5a81614f1e565b9050919050565b7f496e697469616c697a61626c653a20636f6e7472616374206973206e6f74206960008201527f6e697469616c697a696e67000000000000000000000000000000000000000000602082015250565b6000614fbd602b83613865565b9150614fc882614f61565b604082019050919050565b60006020820190508181036000830152614fec81614fb0565b9050919050565b7f455243313135353a206d696e7420746f20746865207a65726f2061646472657360008201527f7300000000000000000000000000000000000000000000000000000000000000602082015250565b600061504f602183613865565b915061505a82614ff3565b604082019050919050565b6000602082019050818103600083015261507e81615042565b9050919050565b600060408201905061509a6000830185613775565b6150a76020830184613775565b9392505050565b7f455243323938313a20726f79616c7479206665652077696c6c2065786365656460008201527f2073616c65507269636500000000000000000000000000000000000000000000602082015250565b600061510a602a83613865565b9150615115826150ae565b604082019050919050565b60006020820190508181036000830152615139816150fd565b9050919050565b7f455243323938313a20496e76616c696420706172616d65746572730000000000600082015250565b6000615176601b83613865565b915061518182615140565b602082019050919050565b600060208201905081810360008301526151a581615169565b9050919050565b600081519050919050565b600082825260208201905092915050565b60006151d3826151ac565b6151dd81856151b7565b93506151ed818560208601613876565b6151f6816138a9565b840191505092915050565b600060a0820190506152166000830188613a0f565b6152236020830187613a0f565b81810360408301526152358186613eee565b905081810360608301526152498185613eee565b9050818103608083015261525d81846151c8565b90509695505050505050565b600081519050615278816137cb565b92915050565b60006020828403121561529457615293613697565b5b60006152a284828501615269565b91505092915050565b60008160e01c9050919050565b600060033d11156152d75760046000803e6152d46000516152ab565b90505b90565b600060443d10615367576152ec61368d565b60043d036004823e80513d602482011167ffffffffffffffff82111715615314575050615367565b808201805167ffffffffffffffff8111156153325750505050615367565b80602083010160043d03850181111561534f575050505050615367565b61535e82602001850186613a7b565b82955050505050505b90565b7f455243313135353a207472616e7366657220746f206e6f6e2d4552433131353560008201527f526563656976657220696d706c656d656e746572000000000000000000000000602082015250565b60006153c6603483613865565b91506153d18261536a565b604082019050919050565b600060208201905081810360008301526153f5816153b9565b9050919050565b7f455243313135353a204552433131353552656365697665722072656a6563746560008201527f6420746f6b656e73000000000000000000000000000000000000000000000000602082015250565b6000615458602883613865565b9150615463826153fc565b604082019050919050565b600060208201905081810360008301526154878161544b565b9050919050565b7f416363657373436f6e74726f6c3a206163636f756e7420000000000000000000600082015250565b60006154c460178361459f565b91506154cf8261548e565b601782019050919050565b7f206973206d697373696e6720726f6c6520000000000000000000000000000000600082015250565b600061551060118361459f565b915061551b826154da565b601182019050919050565b6000615531826154b7565b915061553d828561463e565b915061554882615503565b9150615554828461463e565b91508190509392505050565b600060a0820190506155756000830188613a0f565b6155826020830187613a0f565b61558f6040830186613775565b61559c6060830185613775565b81810360808301526155ae81846151c8565b90509695505050505050565b7f455243313135353a206275726e20616d6f756e74206578636565647320746f7460008201527f616c537570706c79000000000000000000000000000000000000000000000000602082015250565b6000615616602883613865565b9150615621826155ba565b604082019050919050565b6000602082019050818103600083015261564581615609565b9050919050565b6000615657826136ff565b91506000820361566a57615669614693565b5b600182039050919050565b7f537472696e67733a20686578206c656e67746820696e73756666696369656e74600082015250565b60006156ab602083613865565b91506156b682615675565b602082019050919050565b600060208201905081810360008301526156da8161569e565b905091905056fea2646970667358221220a14582193cd5fc85377da3d11dbbd446833d3737acf6694da40f86b2a52bf0db64736f6c634300080e0033",
  "immutableReferences": {},
  "source": "// SPDX-License-Identifier: UNLICENSED\r\npragma solidity 0.8.14;\r\n\r\nimport \"@openzeppelin/contracts-upgradeable/utils/CountersUpgradeable.sol\";\r\nimport \"@openzeppelin/contracts/utils/Strings.sol\";\r\nimport \"@openzeppelin/contracts-upgradeable/access/AccessControlUpgradeable.sol\";\r\nimport \"@openzeppelin/contracts-upgradeable/proxy/utils/Initializable.sol\";\r\nimport \"@openzeppelin/contracts-upgradeable/token/ERC1155/extensions/ERC1155BurnableUpgradeable.sol\";\r\nimport \"@openzeppelin/contracts-upgradeable/token/ERC1155/extensions/ERC1155SupplyUpgradeable.sol\";\r\nimport \"@openzeppelin/contracts-upgradeable/token/ERC1155/ERC1155Upgradeable.sol\";\r\nimport \"./common/ERC2981.sol\";\r\n\r\ncontract LootmogulUser1155Token is\r\n  Initializable,\r\n  ERC1155BurnableUpgradeable,\r\n  ERC1155SupplyUpgradeable,\r\n  ERC2981,\r\n  AccessControlUpgradeable\r\n{\r\n  using CountersUpgradeable for CountersUpgradeable.Counter;\r\n  using Strings for uint256;\r\n  CountersUpgradeable.Counter private _tokenIdTracker;\r\n  mapping(uint256 => string) private _tokenURIs;\r\n\r\n  // Create a new role identifier for the minter role\r\n  bytes32 public constant ADMIN_ROLE = keccak256(\"ADMIN_ROLE\");\r\n\r\n  string private baseTokenURI;\r\n  string private _name;\r\n  string private _symbol;\r\n  address public owner;\r\n\r\n  event OwnershipTransferred(address indexed previousOwner, address indexed newOwner);\r\n\r\n  event BaseURIChanged(string indexed uri, string indexed newuri);\r\n\r\n  /// @custom:oz-upgrades-unsafe-allow constructor\r\n  constructor() {\r\n    _disableInitializers();\r\n  }\r\n\r\n  function initialize(\r\n    string memory _tokenName,\r\n    string memory _tokenSymbol,\r\n    string memory _baseTokenURI\r\n  ) public initializer {\r\n    __ERC1155_init(_baseTokenURI);\r\n    __ERC1155Supply_init();\r\n    __ERC1155Burnable_init();\r\n    __AccessControl_init();\r\n\r\n    baseTokenURI = _baseTokenURI;\r\n    owner = _msgSender();\r\n    _setupRole(ADMIN_ROLE, msg.sender);\r\n    _name = _tokenName;\r\n    _symbol = _tokenSymbol;\r\n    _tokenIdTracker.increment();\r\n  }\r\n\r\n  function name() external view returns (string memory) {\r\n    return _name;\r\n  }\r\n\r\n  function symbol() external view returns (string memory) {\r\n    return _symbol;\r\n  }\r\n\r\n  /** @dev change the Ownership from current owner to newOwner address\r\n        @param newOwner : newOwner address \r\n    */\r\n\r\n  function transferOwnership(address newOwner) external onlyRole(ADMIN_ROLE) returns (bool) {\r\n    require(newOwner != address(0), \"Ownable: new owner is the zero address\");\r\n    _revokeRole(ADMIN_ROLE, owner);\r\n    emit OwnershipTransferred(owner, newOwner);\r\n    owner = newOwner;\r\n    _setupRole(ADMIN_ROLE, newOwner);\r\n    return true;\r\n  }\r\n\r\n  function setBaseURI(string memory uri_) external onlyRole(ADMIN_ROLE) returns (bool) {\r\n    emit BaseURIChanged(baseTokenURI, uri_);\r\n    baseTokenURI = uri_;\r\n    return true;\r\n  }\r\n\r\n  function mint(\r\n    string memory _tokenURI,\r\n    uint96 _royaltyFee,\r\n    uint256 supply\r\n  ) external virtual onlyRole(ADMIN_ROLE) returns (uint256 _tokenId) {\r\n    // We cannot just use balanceOf to create the new tokenId because tokens\r\n    // can be burned (destroyed), so we need a separate counter.\r\n    _tokenId = _tokenIdTracker.current();\r\n    _mint(_msgSender(), _tokenId, supply, \"\");\r\n    _tokenURIs[_tokenId] = _tokenURI;\r\n    _setTokenRoyalty(_tokenId, _msgSender(), _royaltyFee);\r\n    _tokenIdTracker.increment();\r\n    return _tokenId;\r\n  }\r\n\r\n  function uri(uint256 tokenId) public view virtual override returns (string memory) {\r\n    require(exists(tokenId), \"ERC1155URIStorage: URI query for nonexistent token\");\r\n\r\n    string memory _tokenURI = _tokenURIs[tokenId];\r\n    // If there is no base URI, return the token URI.\r\n    if (bytes(baseTokenURI).length == 0) {\r\n      return _tokenURI;\r\n    }\r\n    // If both are set, concatenate the baseURI and tokenURI (via abi.encodePacked).\r\n    if (bytes(_tokenURI).length > 0) {\r\n      return string(abi.encodePacked(baseTokenURI, _tokenURI));\r\n    }\r\n    return bytes(baseTokenURI).length > 0 ? string(abi.encodePacked(baseTokenURI, tokenId.toString())) : \"\";\r\n  }\r\n\r\n  /**\r\n   * @dev See {IERC165-supportsInterface}.\r\n   */\r\n  function supportsInterface(\r\n    bytes4 interfaceId\r\n  ) public view virtual override(ERC2981, ERC1155Upgradeable, AccessControlUpgradeable) returns (bool) {\r\n    return super.supportsInterface(interfaceId);\r\n  }\r\n\r\n  function _beforeTokenTransfer(\r\n    address _operator,\r\n    address from,\r\n    address to,\r\n    uint256[] memory ids,\r\n    uint256[] memory amounts,\r\n    bytes memory data\r\n  ) internal virtual override(ERC1155Upgradeable, ERC1155SupplyUpgradeable) {\r\n    super._beforeTokenTransfer(_operator, from, to, ids, amounts, data);\r\n  }\r\n}\r\n",
  "sourcePath": "C:\\Users\\Yash\\Desktop\\Temporary\\Github\\marketplace\\src\\contracts\\OwnCollection1155.sol",
  "compiler": {
    "name": "solc",
    "version": "0.8.14+commit.80d49f37.Emscripten.clang"
  },
  "schemaVersion": "3.4.13",
  "updatedAt": "2023-07-24T11:18:43.037Z",
  "devdoc": {
    "kind": "dev",
    "methods": {
      "balanceOf(address,uint256)": {
        "details": "See {IERC1155-balanceOf}. Requirements: - `account` cannot be the zero address."
      },
      "balanceOfBatch(address[],uint256[])": {
        "details": "See {IERC1155-balanceOfBatch}. Requirements: - `accounts` and `ids` must have the same length."
      },
      "constructor": {
        "custom:oz-upgrades-unsafe-allow": "constructor"
      },
      "exists(uint256)": {
        "details": "Indicates whether any token exist with a given id, or not."
      },
      "getRoleAdmin(bytes32)": {
        "details": "Returns the admin role that controls `role`. See {grantRole} and {revokeRole}. To change a role's admin, use {_setRoleAdmin}."
      },
      "grantRole(bytes32,address)": {
        "details": "Grants `role` to `account`. If `account` had not been already granted `role`, emits a {RoleGranted} event. Requirements: - the caller must have ``role``'s admin role. May emit a {RoleGranted} event."
      },
      "hasRole(bytes32,address)": {
        "details": "Returns `true` if `account` has been granted `role`."
      },
      "isApprovedForAll(address,address)": {
        "details": "See {IERC1155-isApprovedForAll}."
      },
      "renounceRole(bytes32,address)": {
        "details": "Revokes `role` from the calling account. Roles are often managed via {grantRole} and {revokeRole}: this function's purpose is to provide a mechanism for accounts to lose their privileges if they are compromised (such as when a trusted device is misplaced). If the calling account had been revoked `role`, emits a {RoleRevoked} event. Requirements: - the caller must be `account`. May emit a {RoleRevoked} event."
      },
      "revokeRole(bytes32,address)": {
        "details": "Revokes `role` from `account`. If `account` had been granted `role`, emits a {RoleRevoked} event. Requirements: - the caller must have ``role``'s admin role. May emit a {RoleRevoked} event."
      },
      "royaltyInfo(uint256,uint256)": {
        "details": "Returns how much royalty is owed and to whom, based on a sale price that may be denominated in any unit of exchange. The royalty amount is denominated and should be paid in that same unit of exchange."
      },
      "safeBatchTransferFrom(address,address,uint256[],uint256[],bytes)": {
        "details": "See {IERC1155-safeBatchTransferFrom}."
      },
      "safeTransferFrom(address,address,uint256,uint256,bytes)": {
        "details": "See {IERC1155-safeTransferFrom}."
      },
      "setApprovalForAll(address,bool)": {
        "details": "See {IERC1155-setApprovalForAll}."
      },
      "supportsInterface(bytes4)": {
        "details": "See {IERC165-supportsInterface}."
      },
      "totalSupply(uint256)": {
        "details": "Total amount of tokens in with a given id."
      },
      "transferOwnership(address)": {
        "details": "change the Ownership from current owner to newOwner address",
        "params": {
          "newOwner": ": newOwner address "
        }
      }
    },
    "version": 1
  },
  "userdoc": {
    "kind": "user",
    "methods": {},
    "version": 1
  }
}