{
  "contractName": "NFTMarketplace",
  "abi": [
    {
      "inputs": [],
      "stateMutability": "nonpayable",
      "type": "constructor"
    },
    {
      "anonymous": false,
      "inputs": [
        {
          "indexed": true,
          "internalType": "address",
          "name": "owner",
          "type": "address"
        },
        {
          "indexed": true,
          "internalType": "address",
          "name": "approved",
          "type": "address"
        },
        {
          "indexed": true,
          "internalType": "uint256",
          "name": "tokenId",
          "type": "uint256"
        }
      ],
      "name": "Approval",
      "type": "event"
    },
    {
      "anonymous": false,
      "inputs": [
        {
          "indexed": true,
          "internalType": "address",
          "name": "owner",
          "type": "address"
        },
        {
          "indexed": true,
          "internalType": "address",
          "name": "operator",
          "type": "address"
        },
        {
          "indexed": false,
          "internalType": "bool",
          "name": "approved",
          "type": "bool"
        }
      ],
      "name": "ApprovalForAll",
      "type": "event"
    },
    {
      "anonymous": false,
      "inputs": [
        {
          "indexed": true,
          "internalType": "address",
          "name": "previousOwner",
          "type": "address"
        },
        {
          "indexed": true,
          "internalType": "address",
          "name": "newOwner",
          "type": "address"
        }
      ],
      "name": "OwnershipTransferred",
      "type": "event"
    },
    {
      "anonymous": false,
      "inputs": [
        {
          "indexed": true,
          "internalType": "uint256",
          "name": "tokenId",
          "type": "uint256"
        },
        {
          "indexed": false,
          "internalType": "address",
          "name": "owner",
          "type": "address"
        },
        {
          "indexed": false,
          "internalType": "address",
          "name": "seller",
          "type": "address"
        },
        {
          "indexed": false,
          "internalType": "uint256",
          "name": "price",
          "type": "uint256"
        },
        {
          "indexed": false,
          "internalType": "bool",
          "name": "currentlyListed",
          "type": "bool"
        }
      ],
      "name": "TokenListedSuccess",
      "type": "event"
    },
    {
      "anonymous": false,
      "inputs": [
        {
          "indexed": true,
          "internalType": "address",
          "name": "from",
          "type": "address"
        },
        {
          "indexed": true,
          "internalType": "address",
          "name": "to",
          "type": "address"
        },
        {
          "indexed": true,
          "internalType": "uint256",
          "name": "tokenId",
          "type": "uint256"
        }
      ],
      "name": "Transfer",
      "type": "event"
    },
    {
      "inputs": [
        {
          "internalType": "address",
          "name": "to",
          "type": "address"
        },
        {
          "internalType": "uint256",
          "name": "tokenId",
          "type": "uint256"
        }
      ],
      "name": "approve",
      "outputs": [],
      "stateMutability": "nonpayable",
      "type": "function"
    },
    {
      "inputs": [
        {
          "internalType": "address",
          "name": "owner",
          "type": "address"
        }
      ],
      "name": "balanceOf",
      "outputs": [
        {
          "internalType": "uint256",
          "name": "",
          "type": "uint256"
        }
      ],
      "stateMutability": "view",
      "type": "function"
    },
    {
      "inputs": [
        {
          "internalType": "uint256",
          "name": "tokenId",
          "type": "uint256"
        }
      ],
      "name": "burn",
      "outputs": [],
      "stateMutability": "nonpayable",
      "type": "function"
    },
    {
      "inputs": [
        {
          "internalType": "uint256",
          "name": "tokenId",
          "type": "uint256"
        }
      ],
      "name": "getApproved",
      "outputs": [
        {
          "internalType": "address",
          "name": "",
          "type": "address"
        }
      ],
      "stateMutability": "view",
      "type": "function"
    },
    {
      "inputs": [
        {
          "internalType": "address",
          "name": "owner",
          "type": "address"
        },
        {
          "internalType": "address",
          "name": "operator",
          "type": "address"
        }
      ],
      "name": "isApprovedForAll",
      "outputs": [
        {
          "internalType": "bool",
          "name": "",
          "type": "bool"
        }
      ],
      "stateMutability": "view",
      "type": "function"
    },
    {
      "inputs": [],
      "name": "listPrice",
      "outputs": [
        {
          "internalType": "uint256",
          "name": "",
          "type": "uint256"
        }
      ],
      "stateMutability": "view",
      "type": "function"
    },
    {
      "inputs": [],
      "name": "name",
      "outputs": [
        {
          "internalType": "string",
          "name": "",
          "type": "string"
        }
      ],
      "stateMutability": "view",
      "type": "function"
    },
    {
      "inputs": [
        {
          "internalType": "uint256",
          "name": "tokenId",
          "type": "uint256"
        }
      ],
      "name": "ownerOf",
      "outputs": [
        {
          "internalType": "address",
          "name": "",
          "type": "address"
        }
      ],
      "stateMutability": "view",
      "type": "function"
    },
    {
      "inputs": [
        {
          "internalType": "address",
          "name": "from",
          "type": "address"
        },
        {
          "internalType": "address",
          "name": "to",
          "type": "address"
        },
        {
          "internalType": "uint256",
          "name": "tokenId",
          "type": "uint256"
        }
      ],
      "name": "safeTransferFrom",
      "outputs": [],
      "stateMutability": "nonpayable",
      "type": "function"
    },
    {
      "inputs": [
        {
          "internalType": "address",
          "name": "from",
          "type": "address"
        },
        {
          "internalType": "address",
          "name": "to",
          "type": "address"
        },
        {
          "internalType": "uint256",
          "name": "tokenId",
          "type": "uint256"
        },
        {
          "internalType": "bytes",
          "name": "data",
          "type": "bytes"
        }
      ],
      "name": "safeTransferFrom",
      "outputs": [],
      "stateMutability": "nonpayable",
      "type": "function"
    },
    {
      "inputs": [
        {
          "internalType": "address",
          "name": "operator",
          "type": "address"
        },
        {
          "internalType": "bool",
          "name": "approved",
          "type": "bool"
        }
      ],
      "name": "setApprovalForAll",
      "outputs": [],
      "stateMutability": "nonpayable",
      "type": "function"
    },
    {
      "inputs": [
        {
          "internalType": "bytes4",
          "name": "interfaceId",
          "type": "bytes4"
        }
      ],
      "name": "supportsInterface",
      "outputs": [
        {
          "internalType": "bool",
          "name": "",
          "type": "bool"
        }
      ],
      "stateMutability": "view",
      "type": "function"
    },
    {
      "inputs": [],
      "name": "symbol",
      "outputs": [
        {
          "internalType": "string",
          "name": "",
          "type": "string"
        }
      ],
      "stateMutability": "view",
      "type": "function"
    },
    {
      "inputs": [
        {
          "internalType": "address",
          "name": "from",
          "type": "address"
        },
        {
          "internalType": "address",
          "name": "to",
          "type": "address"
        },
        {
          "internalType": "uint256",
          "name": "tokenId",
          "type": "uint256"
        }
      ],
      "name": "transferFrom",
      "outputs": [],
      "stateMutability": "nonpayable",
      "type": "function"
    },
    {
      "inputs": [
        {
          "internalType": "address",
          "name": "newOwner",
          "type": "address"
        }
      ],
      "name": "transferOwnership",
      "outputs": [],
      "stateMutability": "nonpayable",
      "type": "function"
    },
    {
      "inputs": [
        {
          "internalType": "uint256",
          "name": "tokenId",
          "type": "uint256"
        }
      ],
      "name": "tokenURI",
      "outputs": [
        {
          "internalType": "string",
          "name": "",
          "type": "string"
        }
      ],
      "stateMutability": "view",
      "type": "function"
    },
    {
      "inputs": [
        {
          "internalType": "uint256",
          "name": "_listPrice",
          "type": "uint256"
        }
      ],
      "name": "updateListPrice",
      "outputs": [],
      "stateMutability": "payable",
      "type": "function"
    },
    {
      "inputs": [],
      "name": "getListPrice",
      "outputs": [
        {
          "internalType": "uint256",
          "name": "",
          "type": "uint256"
        }
      ],
      "stateMutability": "view",
      "type": "function"
    },
    {
      "inputs": [],
      "name": "getLatestIdToListedToken",
      "outputs": [
        {
          "components": [
            {
              "internalType": "uint256",
              "name": "tokenId",
              "type": "uint256"
            },
            {
              "internalType": "address payable",
              "name": "owner",
              "type": "address"
            },
            {
              "internalType": "address payable",
              "name": "seller",
              "type": "address"
            },
            {
              "internalType": "uint256",
              "name": "price",
              "type": "uint256"
            },
            {
              "internalType": "bool",
              "name": "currentlyListed",
              "type": "bool"
            }
          ],
          "internalType": "struct NFTMarketplace.ListedToken",
          "name": "",
          "type": "tuple"
        }
      ],
      "stateMutability": "view",
      "type": "function"
    },
    {
      "inputs": [
        {
          "internalType": "uint256",
          "name": "tokenId",
          "type": "uint256"
        }
      ],
      "name": "getListedTokenForId",
      "outputs": [
        {
          "components": [
            {
              "internalType": "uint256",
              "name": "tokenId",
              "type": "uint256"
            },
            {
              "internalType": "address payable",
              "name": "owner",
              "type": "address"
            },
            {
              "internalType": "address payable",
              "name": "seller",
              "type": "address"
            },
            {
              "internalType": "uint256",
              "name": "price",
              "type": "uint256"
            },
            {
              "internalType": "bool",
              "name": "currentlyListed",
              "type": "bool"
            }
          ],
          "internalType": "struct NFTMarketplace.ListedToken",
          "name": "",
          "type": "tuple"
        }
      ],
      "stateMutability": "view",
      "type": "function"
    },
    {
      "inputs": [],
      "name": "getCurrentToken",
      "outputs": [
        {
          "internalType": "uint256",
          "name": "",
          "type": "uint256"
        }
      ],
      "stateMutability": "view",
      "type": "function"
    },
    {
      "inputs": [
        {
          "internalType": "string",
          "name": "tokenURI",
          "type": "string"
        },
        {
          "internalType": "uint256",
          "name": "price",
          "type": "uint256"
        }
      ],
      "name": "createToken",
      "outputs": [
        {
          "internalType": "uint256",
          "name": "",
          "type": "uint256"
        }
      ],
      "stateMutability": "nonpayable",
      "type": "function"
    },
    {
      "inputs": [
        {
          "internalType": "uint256",
          "name": "tokenId",
          "type": "uint256"
        },
        {
          "internalType": "uint256",
          "name": "price",
          "type": "uint256"
        }
      ],
      "name": "createListedToken",
      "outputs": [],
      "stateMutability": "payable",
      "type": "function"
    },
    {
      "inputs": [],
      "name": "getAllNFTs",
      "outputs": [
        {
          "components": [
            {
              "internalType": "uint256",
              "name": "tokenId",
              "type": "uint256"
            },
            {
              "internalType": "address payable",
              "name": "owner",
              "type": "address"
            },
            {
              "internalType": "address payable",
              "name": "seller",
              "type": "address"
            },
            {
              "internalType": "uint256",
              "name": "price",
              "type": "uint256"
            },
            {
              "internalType": "bool",
              "name": "currentlyListed",
              "type": "bool"
            }
          ],
          "internalType": "struct NFTMarketplace.ListedToken[]",
          "name": "",
          "type": "tuple[]"
        }
      ],
      "stateMutability": "view",
      "type": "function"
    },
    {
      "inputs": [],
      "name": "getMyNFTs",
      "outputs": [
        {
          "components": [
            {
              "internalType": "uint256",
              "name": "tokenId",
              "type": "uint256"
            },
            {
              "internalType": "address payable",
              "name": "owner",
              "type": "address"
            },
            {
              "internalType": "address payable",
              "name": "seller",
              "type": "address"
            },
            {
              "internalType": "uint256",
              "name": "price",
              "type": "uint256"
            },
            {
              "internalType": "bool",
              "name": "currentlyListed",
              "type": "bool"
            }
          ],
          "internalType": "struct NFTMarketplace.ListedToken[]",
          "name": "",
          "type": "tuple[]"
        }
      ],
      "stateMutability": "view",
      "type": "function"
    },
    {
      "inputs": [
        {
          "internalType": "uint256",
          "name": "tokenId",
          "type": "uint256"
        }
      ],
      "name": "executeSale",
      "outputs": [],
      "stateMutability": "payable",
      "type": "function"
    }
  ],
  "bytecode": "0x6080604052662386f26fc10000600a553480156200001c57600080fd5b506040518060400160405280600e81526020017f4e46544d61726b6574706c6163650000000000000000000000000000000000008152506040518060400160405280600481526020017f4e46544d000000000000000000000000000000000000000000000000000000008152508160009080519060200190620000a192919062000104565b508060019080519060200190620000ba92919062000104565b50505033600960006101000a81548173ffffffffffffffffffffffffffffffffffffffff021916908373ffffffffffffffffffffffffffffffffffffffff16021790555062000218565b8280546200011290620001e3565b90600052602060002090601f01602090048101928262000136576000855562000182565b82601f106200015157805160ff191683800117855562000182565b8280016001018555821562000182579182015b828111156200018157825182559160200191906001019062000164565b5b50905062000191919062000195565b5090565b5b80821115620001b057600081600090555060010162000196565b5090565b7f4e487b7100000000000000000000000000000000000000000000000000000000600052602260045260246000fd5b60006002820490506001821680620001fc57607f821691505b602082108103620002125762000211620001b4565b5b50919050565b6143c280620002286000396000f3fe6080604052600436106101815760003560e01c806372b3b620116100d1578063c322579c1161008a578063e0391b0911610064578063e0391b091461057d578063e985e9c5146105a8578063ef2d1746146105e5578063f2fde38b1461061057610181565b8063c322579c146104f9578063c87b56dd14610515578063d1a88ae51461055257610181565b806372b3b620146103e65780638e2645901461042357806395d89b41146104605780639b1225c41461048b578063a22cb465146104a7578063b88d4fde146104d057610181565b806342966c681161013e5780636352211e116101185780636352211e1461031657806368f1945f146103535780636eb588d91461037e57806370a08231146103a957610181565b806342966c68146102a657806355524f56146102cf578063629cb2e4146102eb57610181565b806301ffc9a71461018657806306fdde03146101c3578063081812fc146101ee578063095ea7b31461022b57806323b872dd1461025457806342842e0e1461027d575b600080fd5b34801561019257600080fd5b506101ad60048036038101906101a89190612f1c565b610639565b6040516101ba9190612f64565b60405180910390f35b3480156101cf57600080fd5b506101d861071b565b6040516101e59190613018565b60405180910390f35b3480156101fa57600080fd5b5061021560048036038101906102109190613070565b6107ad565b60405161022291906130de565b60405180910390f35b34801561023757600080fd5b50610252600480360381019061024d9190613125565b6107f3565b005b34801561026057600080fd5b5061027b60048036038101906102769190613165565b61090a565b005b34801561028957600080fd5b506102a4600480360381019061029f9190613165565b61096a565b005b3480156102b257600080fd5b506102cd60048036038101906102c89190613070565b61098a565b005b6102e960048036038101906102e491906131b8565b6109e6565b005b3480156102f757600080fd5b50610300610c61565b60405161030d919061334e565b60405180910390f35b34801561032257600080fd5b5061033d60048036038101906103389190613070565b611042565b60405161034a91906130de565b60405180910390f35b34801561035f57600080fd5b506103686110c8565b604051610375919061337f565b60405180910390f35b34801561038a57600080fd5b506103936110d2565b6040516103a0919061337f565b60405180910390f35b3480156103b557600080fd5b506103d060048036038101906103cb919061339a565b6110d8565b6040516103dd919061337f565b60405180910390f35b3480156103f257600080fd5b5061040d600480360381019061040891906134fc565b61118f565b60405161041a919061337f565b60405180910390f35b34801561042f57600080fd5b5061044a60048036038101906104459190613070565b611257565b60405161045791906135c0565b60405180910390f35b34801561046c57600080fd5b5061047561135f565b6040516104829190613018565b60405180910390f35b6104a560048036038101906104a09190613070565b6113f1565b005b3480156104b357600080fd5b506104ce60048036038101906104c99190613607565b6115e3565b005b3480156104dc57600080fd5b506104f760048036038101906104f291906136e8565b6115f9565b005b610513600480360381019061050e9190613070565b61165b565b005b34801561052157600080fd5b5061053c60048036038101906105379190613070565b6116f5565b6040516105499190613018565b60405180910390f35b34801561055e57600080fd5b50610567611707565b60405161057491906135c0565b60405180910390f35b34801561058957600080fd5b5061059261181c565b60405161059f919061334e565b60405180910390f35b3480156105b457600080fd5b506105cf60048036038101906105ca919061376b565b6119ee565b6040516105dc9190612f64565b60405180910390f35b3480156105f157600080fd5b506105fa611a82565b604051610607919061337f565b60405180910390f35b34801561061c57600080fd5b506106376004803603810190610632919061339a565b611a93565b005b60007f80ac58cd000000000000000000000000000000000000000000000000000000007bffffffffffffffffffffffffffffffffffffffffffffffffffffffff1916827bffffffffffffffffffffffffffffffffffffffffffffffffffffffff1916148061070457507f5b5e139f000000000000000000000000000000000000000000000000000000007bffffffffffffffffffffffffffffffffffffffffffffffffffffffff1916827bffffffffffffffffffffffffffffffffffffffffffffffffffffffff1916145b80610714575061071382611be3565b5b9050919050565b60606000805461072a906137da565b80601f0160208091040260200160405190810160405280929190818152602001828054610756906137da565b80156107a35780601f10610778576101008083540402835291602001916107a3565b820191906000526020600020905b81548152906001019060200180831161078657829003601f168201915b5050505050905090565b60006107b882611c4d565b6004600083815260200190815260200160002060009054906101000a900473ffffffffffffffffffffffffffffffffffffffff169050919050565b60006107fe82611042565b90508073ffffffffffffffffffffffffffffffffffffffff168373ffffffffffffffffffffffffffffffffffffffff160361086e576040517f08c379a00000000000000000000000000000000000000000000000000000000081526004016108659061387d565b60405180910390fd5b8073ffffffffffffffffffffffffffffffffffffffff1661088d611c98565b73ffffffffffffffffffffffffffffffffffffffff1614806108bc57506108bb816108b6611c98565b6119ee565b5b6108fb576040517f08c379a00000000000000000000000000000000000000000000000000000000081526004016108f29061390f565b60405180910390fd5b6109058383611ca0565b505050565b61091b610915611c98565b82611d59565b61095a576040517f08c379a0000000000000000000000000000000000000000000000000000000008152600401610951906139a1565b60405180910390fd5b610965838383611dee565b505050565b610985838383604051806020016040528060008152506115f9565b505050565b61099b610995611c98565b82611d59565b6109da576040517f08c379a00000000000000000000000000000000000000000000000000000000081526004016109d1906139a1565b60405180910390fd5b6109e3816120e7565b50565b816109f081611042565b73ffffffffffffffffffffffffffffffffffffffff163373ffffffffffffffffffffffffffffffffffffffff1614610a5d576040517f08c379a0000000000000000000000000000000000000000000000000000000008152600401610a5490613a0d565b60405180910390fd5b600a543414610aa1576040517f08c379a0000000000000000000000000000000000000000000000000000000008152600401610a9890613a9f565b60405180910390fd5b60008211610ae4576040517f08c379a0000000000000000000000000000000000000000000000000000000008152600401610adb90613b31565b60405180910390fd5b6040518060a001604052808481526020013073ffffffffffffffffffffffffffffffffffffffff1681526020013373ffffffffffffffffffffffffffffffffffffffff16815260200183815260200160011515815250600b60008581526020019081526020016000206000820151816000015560208201518160010160006101000a81548173ffffffffffffffffffffffffffffffffffffffff021916908373ffffffffffffffffffffffffffffffffffffffff16021790555060408201518160020160006101000a81548173ffffffffffffffffffffffffffffffffffffffff021916908373ffffffffffffffffffffffffffffffffffffffff1602179055506060820151816003015560808201518160040160006101000a81548160ff021916908315150217905550905050610c1d333085611dee565b827f9339409317fd01fabff48b703019016f49159bacc801ae872d2ca637d226e4c03033856001604051610c549493929190613b51565b60405180910390a2505050565b60606000610c6f60076120f3565b9050600080600080600090505b84811015610d95573373ffffffffffffffffffffffffffffffffffffffff16600b6000600184610cac9190613bc5565b815260200190815260200160002060010160009054906101000a900473ffffffffffffffffffffffffffffffffffffffff1673ffffffffffffffffffffffffffffffffffffffff161480610d6d57503373ffffffffffffffffffffffffffffffffffffffff16600b6000600184610d239190613bc5565b815260200190815260200160002060020160009054906101000a900473ffffffffffffffffffffffffffffffffffffffff1673ffffffffffffffffffffffffffffffffffffffff16145b15610d8257600184610d7f9190613bc5565b93505b8080610d8d90613c1b565b915050610c7c565b5060008367ffffffffffffffff811115610db257610db16133d1565b5b604051908082528060200260200182016040528015610deb57816020015b610dd8612d70565b815260200190600190039081610dd05790505b50905060005b85811015611036573373ffffffffffffffffffffffffffffffffffffffff16600b6000600184610e219190613bc5565b815260200190815260200160002060010160009054906101000a900473ffffffffffffffffffffffffffffffffffffffff1673ffffffffffffffffffffffffffffffffffffffff161480610ee257503373ffffffffffffffffffffffffffffffffffffffff16600b6000600184610e989190613bc5565b815260200190815260200160002060020160009054906101000a900473ffffffffffffffffffffffffffffffffffffffff1673ffffffffffffffffffffffffffffffffffffffff16145b1561102357600181610ef49190613bc5565b92506000600b60008581526020019081526020016000209050806040518060a0016040529081600082015481526020016001820160009054906101000a900473ffffffffffffffffffffffffffffffffffffffff1673ffffffffffffffffffffffffffffffffffffffff1673ffffffffffffffffffffffffffffffffffffffff1681526020016002820160009054906101000a900473ffffffffffffffffffffffffffffffffffffffff1673ffffffffffffffffffffffffffffffffffffffff1673ffffffffffffffffffffffffffffffffffffffff168152602001600382015481526020016004820160009054906101000a900460ff16151515158152505083868151811061100757611006613c63565b5b602002602001018190525060018561101f9190613bc5565b9450505b808061102e90613c1b565b915050610df1565b50809550505050505090565b60008061104e83612101565b9050600073ffffffffffffffffffffffffffffffffffffffff168173ffffffffffffffffffffffffffffffffffffffff16036110bf576040517f08c379a00000000000000000000000000000000000000000000000000000000081526004016110b690613cde565b60405180910390fd5b80915050919050565b6000600a54905090565b600a5481565b60008073ffffffffffffffffffffffffffffffffffffffff168273ffffffffffffffffffffffffffffffffffffffff1603611148576040517f08c379a000000000000000000000000000000000000000000000000000000000815260040161113f90613d70565b60405180910390fd5b600360008373ffffffffffffffffffffffffffffffffffffffff1673ffffffffffffffffffffffffffffffffffffffff168152602001908152602001600020549050919050565b6000600960009054906101000a900473ffffffffffffffffffffffffffffffffffffffff1673ffffffffffffffffffffffffffffffffffffffff163373ffffffffffffffffffffffffffffffffffffffff1614611221576040517f08c379a000000000000000000000000000000000000000000000000000000000815260040161121890613ddc565b60405180910390fd5b61122b600761213e565b600061123760076120f3565b90506112433382612154565b61124d8185612172565b8091505092915050565b61125f612d70565b600b60008381526020019081526020016000206040518060a0016040529081600082015481526020016001820160009054906101000a900473ffffffffffffffffffffffffffffffffffffffff1673ffffffffffffffffffffffffffffffffffffffff1673ffffffffffffffffffffffffffffffffffffffff1681526020016002820160009054906101000a900473ffffffffffffffffffffffffffffffffffffffff1673ffffffffffffffffffffffffffffffffffffffff1673ffffffffffffffffffffffffffffffffffffffff168152602001600382015481526020016004820160009054906101000a900460ff1615151515815250509050919050565b60606001805461136e906137da565b80601f016020809104026020016040519081016040528092919081815260200182805461139a906137da565b80156113e75780601f106113bc576101008083540402835291602001916113e7565b820191906000526020600020905b8154815290600101906020018083116113ca57829003601f168201915b5050505050905090565b6000600b60008381526020019081526020016000206003015490506000600b600084815260200190815260200160002060020160009054906101000a900473ffffffffffffffffffffffffffffffffffffffff169050813414611489576040517f08c379a000000000000000000000000000000000000000000000000000000000815260040161148090613e6e565b60405180910390fd5b6001600b600085815260200190815260200160002060040160006101000a81548160ff02191690831515021790555033600b600085815260200190815260200160002060020160006101000a81548173ffffffffffffffffffffffffffffffffffffffff021916908373ffffffffffffffffffffffffffffffffffffffff160217905550611517600861213e565b611522303385611dee565b61152c30846107f3565b600960009054906101000a900473ffffffffffffffffffffffffffffffffffffffff1673ffffffffffffffffffffffffffffffffffffffff166108fc600a549081150290604051600060405180830381858888f19350505050158015611596573d6000803e3d6000fd5b508073ffffffffffffffffffffffffffffffffffffffff166108fc349081150290604051600060405180830381858888f193505050501580156115dd573d6000803e3d6000fd5b50505050565b6115f56115ee611c98565b83836121e6565b5050565b61160a611604611c98565b83611d59565b611649576040517f08c379a0000000000000000000000000000000000000000000000000000000008152600401611640906139a1565b60405180910390fd5b61165584848484612352565b50505050565b600960009054906101000a900473ffffffffffffffffffffffffffffffffffffffff1673ffffffffffffffffffffffffffffffffffffffff163373ffffffffffffffffffffffffffffffffffffffff16146116eb576040517f08c379a00000000000000000000000000000000000000000000000000000000081526004016116e290613ddc565b60405180910390fd5b80600a8190555050565b6060611700826123ae565b9050919050565b61170f612d70565b600061171b60076120f3565b9050600b60008281526020019081526020016000206040518060a0016040529081600082015481526020016001820160009054906101000a900473ffffffffffffffffffffffffffffffffffffffff1673ffffffffffffffffffffffffffffffffffffffff1673ffffffffffffffffffffffffffffffffffffffff1681526020016002820160009054906101000a900473ffffffffffffffffffffffffffffffffffffffff1673ffffffffffffffffffffffffffffffffffffffff1673ffffffffffffffffffffffffffffffffffffffff168152602001600382015481526020016004820160009054906101000a900460ff16151515158152505091505090565b6060600061182a60076120f3565b905060008167ffffffffffffffff811115611848576118476133d1565b5b60405190808252806020026020018201604052801561188157816020015b61186e612d70565b8152602001906001900390816118665790505b50905060008080600090505b848110156119e3576001816118a29190613bc5565b91506000600b60008481526020019081526020016000209050806040518060a0016040529081600082015481526020016001820160009054906101000a900473ffffffffffffffffffffffffffffffffffffffff1673ffffffffffffffffffffffffffffffffffffffff1673ffffffffffffffffffffffffffffffffffffffff1681526020016002820160009054906101000a900473ffffffffffffffffffffffffffffffffffffffff1673ffffffffffffffffffffffffffffffffffffffff1673ffffffffffffffffffffffffffffffffffffffff168152602001600382015481526020016004820160009054906101000a900460ff1615151515815250508585815181106119b5576119b4613c63565b5b60200260200101819052506001846119cd9190613bc5565b93505080806119db90613c1b565b91505061188d565b508294505050505090565b6000600560008473ffffffffffffffffffffffffffffffffffffffff1673ffffffffffffffffffffffffffffffffffffffff16815260200190815260200160002060008373ffffffffffffffffffffffffffffffffffffffff1673ffffffffffffffffffffffffffffffffffffffff16815260200190815260200160002060009054906101000a900460ff16905092915050565b6000611a8e60076120f3565b905090565b600960009054906101000a900473ffffffffffffffffffffffffffffffffffffffff1673ffffffffffffffffffffffffffffffffffffffff163373ffffffffffffffffffffffffffffffffffffffff1614611b23576040517f08c379a0000000000000000000000000000000000000000000000000000000008152600401611b1a90613ddc565b60405180910390fd5b8073ffffffffffffffffffffffffffffffffffffffff16600960009054906101000a900473ffffffffffffffffffffffffffffffffffffffff1673ffffffffffffffffffffffffffffffffffffffff167f8be0079c531659141344cd1fd0a4f28419497f9722a3daafe3b4186f6b6457e060405160405180910390a380600960006101000a81548173ffffffffffffffffffffffffffffffffffffffff021916908373ffffffffffffffffffffffffffffffffffffffff16021790555050565b60007f01ffc9a7000000000000000000000000000000000000000000000000000000007bffffffffffffffffffffffffffffffffffffffffffffffffffffffff1916827bffffffffffffffffffffffffffffffffffffffffffffffffffffffff1916149050919050565b611c56816124c0565b611c95576040517f08c379a0000000000000000000000000000000000000000000000000000000008152600401611c8c90613cde565b60405180910390fd5b50565b600033905090565b816004600083815260200190815260200160002060006101000a81548173ffffffffffffffffffffffffffffffffffffffff021916908373ffffffffffffffffffffffffffffffffffffffff160217905550808273ffffffffffffffffffffffffffffffffffffffff16611d1383611042565b73ffffffffffffffffffffffffffffffffffffffff167f8c5be1e5ebec7d5bd14f71427d1e84f3dd0314c0f7b2291e5b200ac8c7c3b92560405160405180910390a45050565b600080611d6583611042565b90508073ffffffffffffffffffffffffffffffffffffffff168473ffffffffffffffffffffffffffffffffffffffff161480611da75750611da681856119ee565b5b80611de557508373ffffffffffffffffffffffffffffffffffffffff16611dcd846107ad565b73ffffffffffffffffffffffffffffffffffffffff16145b91505092915050565b8273ffffffffffffffffffffffffffffffffffffffff16611e0e82611042565b73ffffffffffffffffffffffffffffffffffffffff1614611e64576040517f08c379a0000000000000000000000000000000000000000000000000000000008152600401611e5b90613f00565b60405180910390fd5b600073ffffffffffffffffffffffffffffffffffffffff168273ffffffffffffffffffffffffffffffffffffffff1603611ed3576040517f08c379a0000000000000000000000000000000000000000000000000000000008152600401611eca90613f92565b60405180910390fd5b611ee08383836001612501565b8273ffffffffffffffffffffffffffffffffffffffff16611f0082611042565b73ffffffffffffffffffffffffffffffffffffffff1614611f56576040517f08c379a0000000000000000000000000000000000000000000000000000000008152600401611f4d90613f00565b60405180910390fd5b6004600082815260200190815260200160002060006101000a81549073ffffffffffffffffffffffffffffffffffffffff02191690556001600360008573ffffffffffffffffffffffffffffffffffffffff1673ffffffffffffffffffffffffffffffffffffffff168152602001908152602001600020600082825403925050819055506001600360008473ffffffffffffffffffffffffffffffffffffffff1673ffffffffffffffffffffffffffffffffffffffff16815260200190815260200160002060008282540192505081905550816002600083815260200190815260200160002060006101000a81548173ffffffffffffffffffffffffffffffffffffffff021916908373ffffffffffffffffffffffffffffffffffffffff160217905550808273ffffffffffffffffffffffffffffffffffffffff168473ffffffffffffffffffffffffffffffffffffffff167fddf252ad1be2c89b69c2b068fc378daa952ba7f163c4a11628f55a4df523b3ef60405160405180910390a46120e28383836001612507565b505050565b6120f08161250d565b50565b600081600001549050919050565b60006002600083815260200190815260200160002060009054906101000a900473ffffffffffffffffffffffffffffffffffffffff169050919050565b6001816000016000828254019250508190555050565b61216e828260405180602001604052806000815250612560565b5050565b61217b826124c0565b6121ba576040517f08c379a00000000000000000000000000000000000000000000000000000000081526004016121b190614024565b60405180910390fd5b806006600084815260200190815260200160002090805190602001906121e1929190612dcd565b505050565b8173ffffffffffffffffffffffffffffffffffffffff168373ffffffffffffffffffffffffffffffffffffffff1603612254576040517f08c379a000000000000000000000000000000000000000000000000000000000815260040161224b90614090565b60405180910390fd5b80600560008573ffffffffffffffffffffffffffffffffffffffff1673ffffffffffffffffffffffffffffffffffffffff16815260200190815260200160002060008473ffffffffffffffffffffffffffffffffffffffff1673ffffffffffffffffffffffffffffffffffffffff16815260200190815260200160002060006101000a81548160ff0219169083151502179055508173ffffffffffffffffffffffffffffffffffffffff168373ffffffffffffffffffffffffffffffffffffffff167f17307eab39ab6107e8899845ad3d59bd9653f200f220920489ca2b5937696c31836040516123459190612f64565b60405180910390a3505050565b61235d848484611dee565b612369848484846125bb565b6123a8576040517f08c379a000000000000000000000000000000000000000000000000000000000815260040161239f90614122565b60405180910390fd5b50505050565b60606123b982611c4d565b60006006600084815260200190815260200160002080546123d9906137da565b80601f0160208091040260200160405190810160405280929190818152602001828054612405906137da565b80156124525780601f1061242757610100808354040283529160200191612452565b820191906000526020600020905b81548152906001019060200180831161243557829003601f168201915b505050505090506000612463612742565b905060008151036124785781925050506124bb565b6000825111156124ad57808260405160200161249592919061417e565b604051602081830303815290604052925050506124bb565b6124b684612759565b925050505b919050565b60008073ffffffffffffffffffffffffffffffffffffffff166124e283612101565b73ffffffffffffffffffffffffffffffffffffffff1614159050919050565b50505050565b50505050565b612516816127c1565b6000600660008381526020019081526020016000208054612536906137da565b90501461255d5760066000828152602001908152602001600020600061255c9190612e53565b5b50565b61256a838361290f565b61257760008484846125bb565b6125b6576040517f08c379a00000000000000000000000000000000000000000000000000000000081526004016125ad90614122565b60405180910390fd5b505050565b60006125dc8473ffffffffffffffffffffffffffffffffffffffff16612b2c565b15612735578373ffffffffffffffffffffffffffffffffffffffff1663150b7a02612605611c98565b8786866040518563ffffffff1660e01b815260040161262794939291906141f7565b6020604051808303816000875af192505050801561266357506040513d601f19601f820116820180604052508101906126609190614258565b60015b6126e5573d8060008114612693576040519150601f19603f3d011682016040523d82523d6000602084013e612698565b606091505b5060008151036126dd576040517f08c379a00000000000000000000000000000000000000000000000000000000081526004016126d490614122565b60405180910390fd5b805181602001fd5b63150b7a0260e01b7bffffffffffffffffffffffffffffffffffffffffffffffffffffffff1916817bffffffffffffffffffffffffffffffffffffffffffffffffffffffff19161491505061273a565b600190505b949350505050565b606060405180602001604052806000815250905090565b606061276482611c4d565b600061276e612742565b9050600081511161278e57604051806020016040528060008152506127b9565b8061279884612b4f565b6040516020016127a992919061417e565b6040516020818303038152906040525b915050919050565b60006127cc82611042565b90506127dc816000846001612501565b6127e582611042565b90506004600083815260200190815260200160002060006101000a81549073ffffffffffffffffffffffffffffffffffffffff02191690556001600360008373ffffffffffffffffffffffffffffffffffffffff1673ffffffffffffffffffffffffffffffffffffffff168152602001908152602001600020600082825403925050819055506002600083815260200190815260200160002060006101000a81549073ffffffffffffffffffffffffffffffffffffffff021916905581600073ffffffffffffffffffffffffffffffffffffffff168273ffffffffffffffffffffffffffffffffffffffff167fddf252ad1be2c89b69c2b068fc378daa952ba7f163c4a11628f55a4df523b3ef60405160405180910390a461290b816000846001612507565b5050565b600073ffffffffffffffffffffffffffffffffffffffff168273ffffffffffffffffffffffffffffffffffffffff160361297e576040517f08c379a0000000000000000000000000000000000000000000000000000000008152600401612975906142d1565b60405180910390fd5b612987816124c0565b156129c7576040517f08c379a00000000000000000000000000000000000000000000000000000000081526004016129be9061433d565b60405180910390fd5b6129d5600083836001612501565b6129de816124c0565b15612a1e576040517f08c379a0000000000000000000000000000000000000000000000000000000008152600401612a159061433d565b60405180910390fd5b6001600360008473ffffffffffffffffffffffffffffffffffffffff1673ffffffffffffffffffffffffffffffffffffffff16815260200190815260200160002060008282540192505081905550816002600083815260200190815260200160002060006101000a81548173ffffffffffffffffffffffffffffffffffffffff021916908373ffffffffffffffffffffffffffffffffffffffff160217905550808273ffffffffffffffffffffffffffffffffffffffff16600073ffffffffffffffffffffffffffffffffffffffff167fddf252ad1be2c89b69c2b068fc378daa952ba7f163c4a11628f55a4df523b3ef60405160405180910390a4612b28600083836001612507565b5050565b6000808273ffffffffffffffffffffffffffffffffffffffff163b119050919050565b606060006001612b5e84612c1d565b01905060008167ffffffffffffffff811115612b7d57612b7c6133d1565b5b6040519080825280601f01601f191660200182016040528015612baf5781602001600182028036833780820191505090505b509050600082602001820190505b600115612c12578080600190039150507f3031323334353637383961626364656600000000000000000000000000000000600a86061a8153600a8581612c0657612c0561435d565b5b04945060008503612bbd575b819350505050919050565b600080600090507a184f03e93ff9f4daa797ed6e38ed64bf6a1f0100000000000000008310612c7b577a184f03e93ff9f4daa797ed6e38ed64bf6a1f0100000000000000008381612c7157612c7061435d565b5b0492506040810190505b6d04ee2d6d415b85acef81000000008310612cb8576d04ee2d6d415b85acef81000000008381612cae57612cad61435d565b5b0492506020810190505b662386f26fc100008310612ce757662386f26fc100008381612cdd57612cdc61435d565b5b0492506010810190505b6305f5e1008310612d10576305f5e1008381612d0657612d0561435d565b5b0492506008810190505b6127108310612d35576127108381612d2b57612d2a61435d565b5b0492506004810190505b60648310612d585760648381612d4e57612d4d61435d565b5b0492506002810190505b600a8310612d67576001810190505b80915050919050565b6040518060a0016040528060008152602001600073ffffffffffffffffffffffffffffffffffffffff168152602001600073ffffffffffffffffffffffffffffffffffffffff168152602001600081526020016000151581525090565b828054612dd9906137da565b90600052602060002090601f016020900481019282612dfb5760008555612e42565b82601f10612e1457805160ff1916838001178555612e42565b82800160010185558215612e42579182015b82811115612e41578251825591602001919060010190612e26565b5b509050612e4f9190612e93565b5090565b508054612e5f906137da565b6000825580601f10612e715750612e90565b601f016020900490600052602060002090810190612e8f9190612e93565b5b50565b5b80821115612eac576000816000905550600101612e94565b5090565b6000604051905090565b600080fd5b600080fd5b60007fffffffff0000000000000000000000000000000000000000000000000000000082169050919050565b612ef981612ec4565b8114612f0457600080fd5b50565b600081359050612f1681612ef0565b92915050565b600060208284031215612f3257612f31612eba565b5b6000612f4084828501612f07565b91505092915050565b60008115159050919050565b612f5e81612f49565b82525050565b6000602082019050612f796000830184612f55565b92915050565b600081519050919050565b600082825260208201905092915050565b60005b83811015612fb9578082015181840152602081019050612f9e565b83811115612fc8576000848401525b50505050565b6000601f19601f8301169050919050565b6000612fea82612f7f565b612ff48185612f8a565b9350613004818560208601612f9b565b61300d81612fce565b840191505092915050565b600060208201905081810360008301526130328184612fdf565b905092915050565b6000819050919050565b61304d8161303a565b811461305857600080fd5b50565b60008135905061306a81613044565b92915050565b60006020828403121561308657613085612eba565b5b60006130948482850161305b565b91505092915050565b600073ffffffffffffffffffffffffffffffffffffffff82169050919050565b60006130c88261309d565b9050919050565b6130d8816130bd565b82525050565b60006020820190506130f360008301846130cf565b92915050565b613102816130bd565b811461310d57600080fd5b50565b60008135905061311f816130f9565b92915050565b6000806040838503121561313c5761313b612eba565b5b600061314a85828601613110565b925050602061315b8582860161305b565b9150509250929050565b60008060006060848603121561317e5761317d612eba565b5b600061318c86828701613110565b935050602061319d86828701613110565b92505060406131ae8682870161305b565b9150509250925092565b600080604083850312156131cf576131ce612eba565b5b60006131dd8582860161305b565b92505060206131ee8582860161305b565b9150509250929050565b600081519050919050565b600082825260208201905092915050565b6000819050602082019050919050565b61322d8161303a565b82525050565b600061323e8261309d565b9050919050565b61324e81613233565b82525050565b61325d81612f49565b82525050565b60a0820160008201516132796000850182613224565b50602082015161328c6020850182613245565b50604082015161329f6040850182613245565b5060608201516132b26060850182613224565b5060808201516132c56080850182613254565b50505050565b60006132d78383613263565b60a08301905092915050565b6000602082019050919050565b60006132fb826131f8565b6133058185613203565b935061331083613214565b8060005b8381101561334157815161332888826132cb565b9750613333836132e3565b925050600181019050613314565b5085935050505092915050565b6000602082019050818103600083015261336881846132f0565b905092915050565b6133798161303a565b82525050565b60006020820190506133946000830184613370565b92915050565b6000602082840312156133b0576133af612eba565b5b60006133be84828501613110565b91505092915050565b600080fd5b600080fd5b7f4e487b7100000000000000000000000000000000000000000000000000000000600052604160045260246000fd5b61340982612fce565b810181811067ffffffffffffffff82111715613428576134276133d1565b5b80604052505050565b600061343b612eb0565b90506134478282613400565b919050565b600067ffffffffffffffff821115613467576134666133d1565b5b61347082612fce565b9050602081019050919050565b82818337600083830152505050565b600061349f61349a8461344c565b613431565b9050828152602081018484840111156134bb576134ba6133cc565b5b6134c684828561347d565b509392505050565b600082601f8301126134e3576134e26133c7565b5b81356134f384826020860161348c565b91505092915050565b6000806040838503121561351357613512612eba565b5b600083013567ffffffffffffffff81111561353157613530612ebf565b5b61353d858286016134ce565b925050602061354e8582860161305b565b9150509250929050565b60a08201600082015161356e6000850182613224565b5060208201516135816020850182613245565b5060408201516135946040850182613245565b5060608201516135a76060850182613224565b5060808201516135ba6080850182613254565b50505050565b600060a0820190506135d56000830184613558565b92915050565b6135e481612f49565b81146135ef57600080fd5b50565b600081359050613601816135db565b92915050565b6000806040838503121561361e5761361d612eba565b5b600061362c85828601613110565b925050602061363d858286016135f2565b9150509250929050565b600067ffffffffffffffff821115613662576136616133d1565b5b61366b82612fce565b9050602081019050919050565b600061368b61368684613647565b613431565b9050828152602081018484840111156136a7576136a66133cc565b5b6136b284828561347d565b509392505050565b600082601f8301126136cf576136ce6133c7565b5b81356136df848260208601613678565b91505092915050565b6000806000806080858703121561370257613701612eba565b5b600061371087828801613110565b945050602061372187828801613110565b93505060406137328782880161305b565b925050606085013567ffffffffffffffff81111561375357613752612ebf565b5b61375f878288016136ba565b91505092959194509250565b6000806040838503121561378257613781612eba565b5b600061379085828601613110565b92505060206137a185828601613110565b9150509250929050565b7f4e487b7100000000000000000000000000000000000000000000000000000000600052602260045260246000fd5b600060028204905060018216806137f257607f821691505b602082108103613805576138046137ab565b5b50919050565b7f4552433732313a20617070726f76616c20746f2063757272656e74206f776e6560008201527f7200000000000000000000000000000000000000000000000000000000000000602082015250565b6000613867602183612f8a565b91506138728261380b565b604082019050919050565b600060208201905081810360008301526138968161385a565b9050919050565b7f4552433732313a20617070726f76652063616c6c6572206973206e6f7420746f60008201527f6b656e206f776e6572206f7220617070726f76656420666f7220616c6c000000602082015250565b60006138f9603d83612f8a565b91506139048261389d565b604082019050919050565b60006020820190508181036000830152613928816138ec565b9050919050565b7f4552433732313a2063616c6c6572206973206e6f7420746f6b656e206f776e6560008201527f72206f7220617070726f76656400000000000000000000000000000000000000602082015250565b600061398b602d83612f8a565b91506139968261392f565b604082019050919050565b600060208201905081810360008301526139ba8161397e565b9050919050565b7f596f7520646f6e2774206f776e2074686973204e465400000000000000000000600082015250565b60006139f7601683612f8a565b9150613a02826139c1565b602082019050919050565b60006020820190508181036000830152613a26816139ea565b9050919050565b7f486f706566756c6c792073656e64696e672074686520636f727265637420707260008201527f6963650000000000000000000000000000000000000000000000000000000000602082015250565b6000613a89602383612f8a565b9150613a9482613a2d565b604082019050919050565b60006020820190508181036000830152613ab881613a7c565b9050919050565b7f4d616b652073757265207468652070726963652069736e2774206e656761746960008201527f7665000000000000000000000000000000000000000000000000000000000000602082015250565b6000613b1b602283612f8a565b9150613b2682613abf565b604082019050919050565b60006020820190508181036000830152613b4a81613b0e565b9050919050565b6000608082019050613b6660008301876130cf565b613b7360208301866130cf565b613b806040830185613370565b613b8d6060830184612f55565b95945050505050565b7f4e487b7100000000000000000000000000000000000000000000000000000000600052601160045260246000fd5b6000613bd08261303a565b9150613bdb8361303a565b9250827fffffffffffffffffffffffffffffffffffffffffffffffffffffffffffffffff03821115613c1057613c0f613b96565b5b828201905092915050565b6000613c268261303a565b91507fffffffffffffffffffffffffffffffffffffffffffffffffffffffffffffffff8203613c5857613c57613b96565b5b600182019050919050565b7f4e487b7100000000000000000000000000000000000000000000000000000000600052603260045260246000fd5b7f4552433732313a20696e76616c696420746f6b656e2049440000000000000000600082015250565b6000613cc8601883612f8a565b9150613cd382613c92565b602082019050919050565b60006020820190508181036000830152613cf781613cbb565b9050919050565b7f4552433732313a2061646472657373207a65726f206973206e6f74206120766160008201527f6c6964206f776e65720000000000000000000000000000000000000000000000602082015250565b6000613d5a602983612f8a565b9150613d6582613cfe565b604082019050919050565b60006020820190508181036000830152613d8981613d4d565b9050919050565b7f4f6e6c79206f776e65722063616e2063616c6c2074686973206d6574686f6400600082015250565b6000613dc6601f83612f8a565b9150613dd182613d90565b602082019050919050565b60006020820190508181036000830152613df581613db9565b9050919050565b7f506c65617365207375626d6974207468652061736b696e67207072696365206960008201527f6e206f7264657220746f20636f6d706c65746520746865207075726368617365602082015250565b6000613e58604083612f8a565b9150613e6382613dfc565b604082019050919050565b60006020820190508181036000830152613e8781613e4b565b9050919050565b7f4552433732313a207472616e736665722066726f6d20696e636f72726563742060008201527f6f776e6572000000000000000000000000000000000000000000000000000000602082015250565b6000613eea602583612f8a565b9150613ef582613e8e565b604082019050919050565b60006020820190508181036000830152613f1981613edd565b9050919050565b7f4552433732313a207472616e7366657220746f20746865207a65726f2061646460008201527f7265737300000000000000000000000000000000000000000000000000000000602082015250565b6000613f7c602483612f8a565b9150613f8782613f20565b604082019050919050565b60006020820190508181036000830152613fab81613f6f565b9050919050565b7f45524337323155524953746f726167653a2055524920736574206f66206e6f6e60008201527f6578697374656e7420746f6b656e000000000000000000000000000000000000602082015250565b600061400e602e83612f8a565b915061401982613fb2565b604082019050919050565b6000602082019050818103600083015261403d81614001565b9050919050565b7f4552433732313a20617070726f766520746f2063616c6c657200000000000000600082015250565b600061407a601983612f8a565b915061408582614044565b602082019050919050565b600060208201905081810360008301526140a98161406d565b9050919050565b7f4552433732313a207472616e7366657220746f206e6f6e20455243373231526560008201527f63656976657220696d706c656d656e7465720000000000000000000000000000602082015250565b600061410c603283612f8a565b9150614117826140b0565b604082019050919050565b6000602082019050818103600083015261413b816140ff565b9050919050565b600081905092915050565b600061415882612f7f565b6141628185614142565b9350614172818560208601612f9b565b80840191505092915050565b600061418a828561414d565b9150614196828461414d565b91508190509392505050565b600081519050919050565b600082825260208201905092915050565b60006141c9826141a2565b6141d381856141ad565b93506141e3818560208601612f9b565b6141ec81612fce565b840191505092915050565b600060808201905061420c60008301876130cf565b61421960208301866130cf565b6142266040830185613370565b818103606083015261423881846141be565b905095945050505050565b60008151905061425281612ef0565b92915050565b60006020828403121561426e5761426d612eba565b5b600061427c84828501614243565b91505092915050565b7f4552433732313a206d696e7420746f20746865207a65726f2061646472657373600082015250565b60006142bb602083612f8a565b91506142c682614285565b602082019050919050565b600060208201905081810360008301526142ea816142ae565b9050919050565b7f4552433732313a20746f6b656e20616c7265616479206d696e74656400000000600082015250565b6000614327601c83612f8a565b9150614332826142f1565b602082019050919050565b600060208201905081810360008301526143568161431a565b9050919050565b7f4e487b7100000000000000000000000000000000000000000000000000000000600052601260045260246000fdfea264697066735822122019864259f6776851e7cf0095e50c5d50573bca6fc297b0fb0266d3e74b05087a64736f6c634300080e0033",
  "immutableReferences": {},
  "source": "//SPDX-License-Identifier: Unlicense\r\npragma solidity ^0.8.0;\r\n\r\n// import \"hardhat/console.sol\";\r\nimport \"@openzeppelin/contracts/utils/Counters.sol\";\r\nimport \"@openzeppelin/contracts/token/ERC721/extensions/ERC721URIStorage.sol\";\r\nimport \"@openzeppelin/contracts/token/ERC721/ERC721.sol\";\r\nimport \"@openzeppelin/contracts/token/ERC721/extensions/ERC721Burnable.sol\";\r\n\r\ncontract NFTMarketplace is ERC721URIStorage, ERC721Burnable {\r\n    using Counters for Counters.Counter;\r\n    //_tokenIds variable has the most recent minted tokenId\r\n    Counters.Counter private _tokenIds;\r\n    //Keeps track of the number of items sold on the marketplace\r\n    Counters.Counter private _itemsSold;\r\n    //owner is the contract address that created the smart contract\r\n    address payable owner;\r\n    //The fee charged by the marketplace to be allowed to list an NFT\r\n    uint256 public listPrice = 0.01 ether;\r\n\r\n    //The structure to store info about a listed token\r\n    struct ListedToken {\r\n        uint256 tokenId;\r\n        address payable owner;\r\n        address payable seller;\r\n        uint256 price;\r\n        bool currentlyListed;\r\n    }\r\n\r\n    //This mapping maps tokenId to token info and is helpful when retrieving details about a tokenId\r\n    mapping(uint256 => ListedToken) private idToListedToken;\r\n\r\n    //the event emitted when a token is successfully listed\r\n    event TokenListedSuccess(\r\n        uint256 indexed tokenId,\r\n        address owner,\r\n        address seller,\r\n        uint256 price,\r\n        bool currentlyListed\r\n    );\r\n\r\n    event OwnershipTransferred(\r\n        address indexed previousOwner,\r\n        address indexed newOwner\r\n    );\r\n\r\n    modifier onlyOwner() {\r\n        require(msg.sender == owner, \"Only owner can call this method\");\r\n        _;\r\n    }\r\n\r\n    modifier onlyNFTOwner(uint256 _tokenId) {\r\n        require(msg.sender == ownerOf(_tokenId), \"You don't own this NFT\");\r\n        _;\r\n    }\r\n\r\n    constructor() ERC721(\"NFTMarketplace\", \"NFTM\") {\r\n        owner = payable(msg.sender);\r\n    }\r\n\r\n    function transferOwnership(address newOwner) public onlyOwner {\r\n        emit OwnershipTransferred(owner, newOwner);\r\n        owner = payable(newOwner);\r\n    }\r\n\r\n    // The following functions are overrides required by Solidity.\r\n    function _burn(\r\n        uint256 tokenId\r\n    ) internal override(ERC721, ERC721URIStorage) {\r\n        super._burn(tokenId);\r\n    }\r\n\r\n    function tokenURI(\r\n        uint256 tokenId\r\n    ) public view override(ERC721, ERC721URIStorage) returns (string memory) {\r\n        return super.tokenURI(tokenId);\r\n    }\r\n\r\n    function updateListPrice(uint256 _listPrice) public payable onlyOwner {\r\n        listPrice = _listPrice;\r\n    }\r\n\r\n    function getListPrice() public view returns (uint256) {\r\n        return listPrice;\r\n    }\r\n\r\n    function getLatestIdToListedToken()\r\n        public\r\n        view\r\n        returns (ListedToken memory)\r\n    {\r\n        uint256 currentTokenId = _tokenIds.current();\r\n        return idToListedToken[currentTokenId];\r\n    }\r\n\r\n    function getListedTokenForId(\r\n        uint256 tokenId\r\n    ) public view returns (ListedToken memory) {\r\n        return idToListedToken[tokenId];\r\n    }\r\n\r\n    function getCurrentToken() public view returns (uint256) {\r\n        return _tokenIds.current();\r\n    }\r\n\r\n    //The first time a token is created\r\n    function createToken(\r\n        string memory tokenURI,\r\n        uint256 price\r\n    ) public onlyOwner returns (uint256) {\r\n        //Increment the tokenId counter, which is keeping track of the number of minted NFTs\r\n        _tokenIds.increment();\r\n        uint256 newTokenId = _tokenIds.current();\r\n\r\n        //Mint the NFT with tokenId newTokenId to the address who called createToken\r\n        _safeMint(msg.sender, newTokenId);\r\n\r\n        //Map the tokenId to the tokenURI (which is an IPFS URL with the NFT metadata)\r\n        _setTokenURI(newTokenId, tokenURI);\r\n\r\n        return newTokenId;\r\n    }\r\n\r\n    //The first time a token is created, it is listed here\r\n    // function createToken(\r\n    //     string memory tokenURI,\r\n    //     uint256 price,\r\n    //     bool listOnSale\r\n    // ) public onlyOwner returns (uint256) {\r\n    //     //Increment the tokenId counter, which is keeping track of the number of minted NFTs\r\n    //     _tokenIds.increment();\r\n    //     uint256 newTokenId = _tokenIds.current();\r\n\r\n    //     //Mint the NFT with tokenId newTokenId to the address who called createToken\r\n    //     _safeMint(msg.sender, newTokenId);\r\n\r\n    //     //Map the tokenId to the tokenURI (which is an IPFS URL with the NFT metadata)\r\n    //     _setTokenURI(newTokenId, tokenURI);\r\n\r\n    //     if (listOnSale) {\r\n    //         //Helper function to update Global variables and emit an event\r\n    //         createListedToken(newTokenId, price);\r\n    //     }\r\n    //     return newTokenId;\r\n    // }\r\n\r\n    function createListedToken(\r\n        uint256 tokenId,\r\n        uint256 price\r\n    ) public payable onlyNFTOwner(tokenId) {\r\n        //Make sure the sender sent enough ETH to pay for listing\r\n        require(msg.value == listPrice, \"Hopefully sending the correct price\");\r\n        //Just sanity check\r\n        require(price > 0, \"Make sure the price isn't negative\");\r\n\r\n        //Update the mapping of tokenId's to Token details, useful for retrieval functions\r\n        idToListedToken[tokenId] = ListedToken(\r\n            tokenId,\r\n            payable(address(this)),\r\n            payable(msg.sender),\r\n            price,\r\n            true\r\n        );\r\n\r\n        _transfer(msg.sender, address(this), tokenId);\r\n        //Emit the event for successful transfer. The frontend parses this message and updates the end user\r\n        emit TokenListedSuccess(\r\n            tokenId,\r\n            address(this),\r\n            msg.sender,\r\n            price,\r\n            true\r\n        );\r\n    }\r\n\r\n    function getAllNFTs() public view returns (ListedToken[] memory) {\r\n        uint256 nftCount = _tokenIds.current();\r\n        ListedToken[] memory tokens = new ListedToken[](nftCount);\r\n        uint256 currentIndex = 0;\r\n        uint256 currentId;\r\n        //at the moment currentlyListed is true for all, if it becomes false in the future we will\r\n        //filter out currentlyListed == false over here\r\n        for (uint256 i = 0; i < nftCount; i++) {\r\n            currentId = i + 1;\r\n            ListedToken storage currentItem = idToListedToken[currentId];\r\n            tokens[currentIndex] = currentItem;\r\n            currentIndex += 1;\r\n        }\r\n        //the array 'tokens' has the list of all NFTs in the marketplace\r\n        return tokens;\r\n    }\r\n\r\n    //Returns all the NFTs that the current user is owner or seller in\r\n    function getMyNFTs() public view returns (ListedToken[] memory) {\r\n        uint256 totalItemCount = _tokenIds.current();\r\n        uint256 itemCount = 0;\r\n        uint256 currentIndex = 0;\r\n        uint256 currentId;\r\n        //Important to get a count of all the NFTs that belong to the user before we can make an array for them\r\n        for (uint256 i = 0; i < totalItemCount; i++) {\r\n            if (\r\n                idToListedToken[i + 1].owner == msg.sender ||\r\n                idToListedToken[i + 1].seller == msg.sender\r\n            ) {\r\n                itemCount += 1;\r\n            }\r\n        }\r\n\r\n        //Once you have the count of relevant NFTs, create an array then store all the NFTs in it\r\n        ListedToken[] memory items = new ListedToken[](itemCount);\r\n        for (uint256 i = 0; i < totalItemCount; i++) {\r\n            if (\r\n                idToListedToken[i + 1].owner == msg.sender ||\r\n                idToListedToken[i + 1].seller == msg.sender\r\n            ) {\r\n                currentId = i + 1;\r\n                ListedToken storage currentItem = idToListedToken[currentId];\r\n                items[currentIndex] = currentItem;\r\n                currentIndex += 1;\r\n            }\r\n        }\r\n        return items;\r\n    }\r\n\r\n    function executeSale(uint256 tokenId) public payable {\r\n        uint256 price = idToListedToken[tokenId].price;\r\n        address seller = idToListedToken[tokenId].seller;\r\n        require(\r\n            msg.value == price,\r\n            \"Please submit the asking price in order to complete the purchase\"\r\n        );\r\n\r\n        //update the details of the token\r\n        idToListedToken[tokenId].currentlyListed = true;\r\n        idToListedToken[tokenId].seller = payable(msg.sender);\r\n        _itemsSold.increment();\r\n\r\n        //Actually transfer the token to the new owner\r\n        _transfer(address(this), msg.sender, tokenId);\r\n        //approve the marketplace to sell NFTs on your behalf\r\n        approve(address(this), tokenId);\r\n\r\n        //Transfer the listing fee to the marketplace creator\r\n        payable(owner).transfer(listPrice);\r\n        //Transfer the proceeds from the sale to the seller of the NFT\r\n        payable(seller).transfer(msg.value);\r\n    }\r\n}\r\n",
  "sourcePath": "C:\\Users\\Torakami\\Documents\\GitHub\\lootmogul\\marketplace\\src\\contracts\\OwnCollection721.sol",
  "compiler": {
    "name": "solc",
    "version": "0.8.14+commit.80d49f37.Emscripten.clang"
  },
  "schemaVersion": "3.4.13",
  "updatedAt": "2023-05-11T16:14:53.010Z",
  "devdoc": {
    "kind": "dev",
    "methods": {
      "approve(address,uint256)": {
        "details": "See {IERC721-approve}."
      },
      "balanceOf(address)": {
        "details": "See {IERC721-balanceOf}."
      },
      "burn(uint256)": {
        "details": "Burns `tokenId`. See {ERC721-_burn}. Requirements: - The caller must own `tokenId` or be an approved operator."
      },
      "getApproved(uint256)": {
        "details": "See {IERC721-getApproved}."
      },
      "isApprovedForAll(address,address)": {
        "details": "See {IERC721-isApprovedForAll}."
      },
      "name()": {
        "details": "See {IERC721Metadata-name}."
      },
      "ownerOf(uint256)": {
        "details": "See {IERC721-ownerOf}."
      },
      "safeTransferFrom(address,address,uint256)": {
        "details": "See {IERC721-safeTransferFrom}."
      },
      "safeTransferFrom(address,address,uint256,bytes)": {
        "details": "See {IERC721-safeTransferFrom}."
      },
      "setApprovalForAll(address,bool)": {
        "details": "See {IERC721-setApprovalForAll}."
      },
      "supportsInterface(bytes4)": {
        "details": "See {IERC165-supportsInterface}."
      },
      "symbol()": {
        "details": "See {IERC721Metadata-symbol}."
      },
      "transferFrom(address,address,uint256)": {
        "details": "See {IERC721-transferFrom}."
      }
    },
    "version": 1
  },
  "userdoc": {
    "kind": "user",
    "methods": {},
    "version": 1
  }
}