{
  "contractName": "NFTMarketplace",
  "abi": [
    {
      "inputs": [],
      "stateMutability": "nonpayable",
      "type": "constructor"
    },
    {
      "anonymous": false,
      "inputs": [
        {
          "indexed": true,
          "internalType": "address",
          "name": "owner",
          "type": "address"
        },
        {
          "indexed": true,
          "internalType": "address",
          "name": "approved",
          "type": "address"
        },
        {
          "indexed": true,
          "internalType": "uint256",
          "name": "tokenId",
          "type": "uint256"
        }
      ],
      "name": "Approval",
      "type": "event"
    },
    {
      "anonymous": false,
      "inputs": [
        {
          "indexed": true,
          "internalType": "address",
          "name": "owner",
          "type": "address"
        },
        {
          "indexed": true,
          "internalType": "address",
          "name": "operator",
          "type": "address"
        },
        {
          "indexed": false,
          "internalType": "bool",
          "name": "approved",
          "type": "bool"
        }
      ],
      "name": "ApprovalForAll",
      "type": "event"
    },
    {
      "anonymous": false,
      "inputs": [
        {
          "indexed": false,
          "internalType": "uint8",
          "name": "version",
          "type": "uint8"
        }
      ],
      "name": "Initialized",
      "type": "event"
    },
    {
      "anonymous": false,
      "inputs": [
        {
          "indexed": true,
          "internalType": "address",
          "name": "previousOwner",
          "type": "address"
        },
        {
          "indexed": true,
          "internalType": "address",
          "name": "newOwner",
          "type": "address"
        }
      ],
      "name": "OwnershipTransferred",
      "type": "event"
    },
    {
      "anonymous": false,
      "inputs": [
        {
          "indexed": true,
          "internalType": "uint256",
          "name": "tokenId",
          "type": "uint256"
        },
        {
          "indexed": false,
          "internalType": "address",
          "name": "owner",
          "type": "address"
        },
        {
          "indexed": false,
          "internalType": "address",
          "name": "seller",
          "type": "address"
        },
        {
          "indexed": false,
          "internalType": "uint256",
          "name": "price",
          "type": "uint256"
        },
        {
          "indexed": false,
          "internalType": "bool",
          "name": "currentlyListed",
          "type": "bool"
        }
      ],
      "name": "TokenListedSuccess",
      "type": "event"
    },
    {
      "anonymous": false,
      "inputs": [
        {
          "indexed": true,
          "internalType": "address",
          "name": "from",
          "type": "address"
        },
        {
          "indexed": true,
          "internalType": "address",
          "name": "to",
          "type": "address"
        },
        {
          "indexed": true,
          "internalType": "uint256",
          "name": "tokenId",
          "type": "uint256"
        }
      ],
      "name": "Transfer",
      "type": "event"
    },
    {
      "inputs": [
        {
          "internalType": "address",
          "name": "to",
          "type": "address"
        },
        {
          "internalType": "uint256",
          "name": "tokenId",
          "type": "uint256"
        }
      ],
      "name": "approve",
      "outputs": [],
      "stateMutability": "nonpayable",
      "type": "function"
    },
    {
      "inputs": [
        {
          "internalType": "address",
          "name": "owner",
          "type": "address"
        }
      ],
      "name": "balanceOf",
      "outputs": [
        {
          "internalType": "uint256",
          "name": "",
          "type": "uint256"
        }
      ],
      "stateMutability": "view",
      "type": "function"
    },
    {
      "inputs": [
        {
          "internalType": "uint256",
          "name": "tokenId",
          "type": "uint256"
        }
      ],
      "name": "burn",
      "outputs": [],
      "stateMutability": "nonpayable",
      "type": "function"
    },
    {
      "inputs": [
        {
          "internalType": "uint256",
          "name": "tokenId",
          "type": "uint256"
        }
      ],
      "name": "getApproved",
      "outputs": [
        {
          "internalType": "address",
          "name": "",
          "type": "address"
        }
      ],
      "stateMutability": "view",
      "type": "function"
    },
    {
      "inputs": [
        {
          "internalType": "address",
          "name": "owner",
          "type": "address"
        },
        {
          "internalType": "address",
          "name": "operator",
          "type": "address"
        }
      ],
      "name": "isApprovedForAll",
      "outputs": [
        {
          "internalType": "bool",
          "name": "",
          "type": "bool"
        }
      ],
      "stateMutability": "view",
      "type": "function"
    },
    {
      "inputs": [],
      "name": "listPrice",
      "outputs": [
        {
          "internalType": "uint256",
          "name": "",
          "type": "uint256"
        }
      ],
      "stateMutability": "view",
      "type": "function"
    },
    {
      "inputs": [],
      "name": "name",
      "outputs": [
        {
          "internalType": "string",
          "name": "",
          "type": "string"
        }
      ],
      "stateMutability": "view",
      "type": "function"
    },
    {
      "inputs": [
        {
          "internalType": "uint256",
          "name": "tokenId",
          "type": "uint256"
        }
      ],
      "name": "ownerOf",
      "outputs": [
        {
          "internalType": "address",
          "name": "",
          "type": "address"
        }
      ],
      "stateMutability": "view",
      "type": "function"
    },
    {
      "inputs": [
        {
          "internalType": "uint256",
          "name": "_tokenId",
          "type": "uint256"
        },
        {
          "internalType": "uint256",
          "name": "_salePrice",
          "type": "uint256"
        }
      ],
      "name": "royaltyInfo",
      "outputs": [
        {
          "internalType": "address",
          "name": "",
          "type": "address"
        },
        {
          "internalType": "uint256",
          "name": "",
          "type": "uint256"
        }
      ],
      "stateMutability": "view",
      "type": "function"
    },
    {
      "inputs": [
        {
          "internalType": "address",
          "name": "from",
          "type": "address"
        },
        {
          "internalType": "address",
          "name": "to",
          "type": "address"
        },
        {
          "internalType": "uint256",
          "name": "tokenId",
          "type": "uint256"
        }
      ],
      "name": "safeTransferFrom",
      "outputs": [],
      "stateMutability": "nonpayable",
      "type": "function"
    },
    {
      "inputs": [
        {
          "internalType": "address",
          "name": "from",
          "type": "address"
        },
        {
          "internalType": "address",
          "name": "to",
          "type": "address"
        },
        {
          "internalType": "uint256",
          "name": "tokenId",
          "type": "uint256"
        },
        {
          "internalType": "bytes",
          "name": "data",
          "type": "bytes"
        }
      ],
      "name": "safeTransferFrom",
      "outputs": [],
      "stateMutability": "nonpayable",
      "type": "function"
    },
    {
      "inputs": [
        {
          "internalType": "address",
          "name": "operator",
          "type": "address"
        },
        {
          "internalType": "bool",
          "name": "approved",
          "type": "bool"
        }
      ],
      "name": "setApprovalForAll",
      "outputs": [],
      "stateMutability": "nonpayable",
      "type": "function"
    },
    {
      "inputs": [],
      "name": "symbol",
      "outputs": [
        {
          "internalType": "string",
          "name": "",
          "type": "string"
        }
      ],
      "stateMutability": "view",
      "type": "function"
    },
    {
      "inputs": [
        {
          "internalType": "address",
          "name": "from",
          "type": "address"
        },
        {
          "internalType": "address",
          "name": "to",
          "type": "address"
        },
        {
          "internalType": "uint256",
          "name": "tokenId",
          "type": "uint256"
        }
      ],
      "name": "transferFrom",
      "outputs": [],
      "stateMutability": "nonpayable",
      "type": "function"
    },
    {
      "inputs": [
        {
          "internalType": "string",
          "name": "_name",
          "type": "string"
        },
        {
          "internalType": "string",
          "name": "_symbol",
          "type": "string"
        }
      ],
      "name": "initialize",
      "outputs": [],
      "stateMutability": "nonpayable",
      "type": "function"
    },
    {
      "inputs": [
        {
          "internalType": "address",
          "name": "newOwner",
          "type": "address"
        }
      ],
      "name": "transferOwnership",
      "outputs": [],
      "stateMutability": "nonpayable",
      "type": "function"
    },
    {
      "inputs": [
        {
          "internalType": "uint256",
          "name": "tokenId",
          "type": "uint256"
        }
      ],
      "name": "tokenURI",
      "outputs": [
        {
          "internalType": "string",
          "name": "",
          "type": "string"
        }
      ],
      "stateMutability": "view",
      "type": "function"
    },
    {
      "inputs": [
        {
          "internalType": "uint256",
          "name": "_listPrice",
          "type": "uint256"
        }
      ],
      "name": "updateListPrice",
      "outputs": [],
      "stateMutability": "payable",
      "type": "function"
    },
    {
      "inputs": [],
      "name": "getListPrice",
      "outputs": [
        {
          "internalType": "uint256",
          "name": "",
          "type": "uint256"
        }
      ],
      "stateMutability": "view",
      "type": "function"
    },
    {
      "inputs": [],
      "name": "getLatestIdToListedToken",
      "outputs": [
        {
          "components": [
            {
              "internalType": "uint256",
              "name": "tokenId",
              "type": "uint256"
            },
            {
              "internalType": "address payable",
              "name": "owner",
              "type": "address"
            },
            {
              "internalType": "address payable",
              "name": "seller",
              "type": "address"
            },
            {
              "internalType": "uint256",
              "name": "price",
              "type": "uint256"
            },
            {
              "internalType": "bool",
              "name": "currentlyListed",
              "type": "bool"
            }
          ],
          "internalType": "struct NFTMarketplace.ListedToken",
          "name": "",
          "type": "tuple"
        }
      ],
      "stateMutability": "view",
      "type": "function"
    },
    {
      "inputs": [
        {
          "internalType": "uint256",
          "name": "tokenId",
          "type": "uint256"
        }
      ],
      "name": "getListedTokenForId",
      "outputs": [
        {
          "components": [
            {
              "internalType": "uint256",
              "name": "tokenId",
              "type": "uint256"
            },
            {
              "internalType": "address payable",
              "name": "owner",
              "type": "address"
            },
            {
              "internalType": "address payable",
              "name": "seller",
              "type": "address"
            },
            {
              "internalType": "uint256",
              "name": "price",
              "type": "uint256"
            },
            {
              "internalType": "bool",
              "name": "currentlyListed",
              "type": "bool"
            }
          ],
          "internalType": "struct NFTMarketplace.ListedToken",
          "name": "",
          "type": "tuple"
        }
      ],
      "stateMutability": "view",
      "type": "function"
    },
    {
      "inputs": [],
      "name": "getCurrentToken",
      "outputs": [
        {
          "internalType": "uint256",
          "name": "",
          "type": "uint256"
        }
      ],
      "stateMutability": "view",
      "type": "function"
    },
    {
      "inputs": [
        {
          "internalType": "string",
          "name": "_tokenURI",
          "type": "string"
        },
        {
          "internalType": "uint96",
          "name": "_royaltyFee",
          "type": "uint96"
        }
      ],
      "name": "createToken",
      "outputs": [
        {
          "internalType": "uint256",
          "name": "",
          "type": "uint256"
        }
      ],
      "stateMutability": "nonpayable",
      "type": "function"
    },
    {
      "inputs": [
        {
          "internalType": "bytes4",
          "name": "interfaceId",
          "type": "bytes4"
        }
      ],
      "name": "supportsInterface",
      "outputs": [
        {
          "internalType": "bool",
          "name": "",
          "type": "bool"
        }
      ],
      "stateMutability": "view",
      "type": "function"
    }
  ],
  "bytecode": "0x6080604052662386f26fc1000060ff5534801561001b57600080fd5b50610024610029565b6100e9565b600054610100900460ff16156100955760405162461bcd60e51b815260206004820152602760248201527f496e697469616c697a61626c653a20636f6e747261637420697320696e697469604482015266616c697a696e6760c81b606482015260840160405180910390fd5b60005460ff90811610156100e7576000805460ff191660ff9081179091556040519081527f7f26b83ff96e1f2b6a682f133852f6798a09c465da95921460cefb38474024989060200160405180910390a15b565b61209180620000f96000396000f3fe60806040526004361061014b5760003560e01c80636eb588d9116100b6578063c322579c1161006f578063c322579c146104a4578063c87b56dd146104b7578063d1a88ae5146104d7578063e985e9c5146104ec578063ef2d174614610535578063f2fde38b1461054a57600080fd5b80636eb588d91461032357806370a08231146103395780638e2645901461035957806395d89b411461044f578063a22cb46514610464578063b88d4fde1461048457600080fd5b80632a55205a116101085780632a55205a1461024f57806342842e0e1461028e57806342966c68146102ae5780634cd88b76146102ce5780636352211e146102ee57806368f1945f1461030e57600080fd5b806301ffc9a71461015057806306fdde0314610185578063081812fc146101a7578063095ea7b3146101df57806323b872dd146102015780632a07741114610221575b600080fd5b34801561015c57600080fd5b5061017061016b366004611a35565b61056a565b60405190151581526020015b60405180910390f35b34801561019157600080fd5b5061019a61057b565b60405161017c9190611aaa565b3480156101b357600080fd5b506101c76101c2366004611abd565b61060d565b6040516001600160a01b03909116815260200161017c565b3480156101eb57600080fd5b506101ff6101fa366004611af2565b610634565b005b34801561020d57600080fd5b506101ff61021c366004611b1c565b61074e565b34801561022d57600080fd5b5061024161023c366004611c04565b610780565b60405190815260200161017c565b34801561025b57600080fd5b5061026f61026a366004611c62565b6107ee565b604080516001600160a01b03909316835260208301919091520161017c565b34801561029a57600080fd5b506101ff6102a9366004611b1c565b610854565b3480156102ba57600080fd5b506101ff6102c9366004611abd565b61086f565b3480156102da57600080fd5b506101ff6102e9366004611c84565b6108a0565b3480156102fa57600080fd5b506101c7610309366004611abd565b6109d6565b34801561031a57600080fd5b5060ff54610241565b34801561032f57600080fd5b5061024160ff5481565b34801561034557600080fd5b50610241610354366004611ce8565b610a36565b34801561036557600080fd5b50610402610374366004611abd565b6040805160a0810182526000808252602082018190529181018290526060810182905260808101919091525060009081526101006020908152604091829020825160a0810184528154815260018201546001600160a01b03908116938201939093526002820154909216928201929092526003820154606082015260049091015460ff161515608082015290565b60408051825181526020808401516001600160a01b03908116918301919091528383015116918101919091526060808301519082015260809182015115159181019190915260a00161017c565b34801561045b57600080fd5b5061019a610abc565b34801561047057600080fd5b506101ff61047f366004611d03565b610acb565b34801561049057600080fd5b506101ff61049f366004611d34565b610ada565b6101ff6104b2366004611abd565b610b12565b3480156104c357600080fd5b5061019a6104d2366004611abd565b610b41565b3480156104e357600080fd5b50610402610b4c565b3480156104f857600080fd5b50610170610507366004611db0565b6001600160a01b039182166000908152606a6020908152604080832093909416825291909152205460ff1690565b34801561054157600080fd5b50610241610be7565b34801561055657600080fd5b506101ff610565366004611ce8565b610bf7565b600061057582610c7d565b92915050565b60606065805461058a90611de3565b80601f01602080910402602001604051908101604052809291908181526020018280546105b690611de3565b80156106035780601f106105d857610100808354040283529160200191610603565b820191906000526020600020905b8154815290600101906020018083116105e657829003601f168201915b5050505050905090565b600061061882610cb2565b506000908152606960205260409020546001600160a01b031690565b600061063f826109d6565b9050806001600160a01b0316836001600160a01b0316036106b15760405162461bcd60e51b815260206004820152602160248201527f4552433732313a20617070726f76616c20746f2063757272656e74206f776e656044820152603960f91b60648201526084015b60405180910390fd5b336001600160a01b03821614806106cd57506106cd8133610507565b61073f5760405162461bcd60e51b815260206004820152603d60248201527f4552433732313a20617070726f76652063616c6c6572206973206e6f7420746f60448201527f6b656e206f776e6572206f7220617070726f76656420666f7220616c6c00000060648201526084016106a8565b6107498383610d11565b505050565b610759335b82610d7f565b6107755760405162461bcd60e51b81526004016106a890611e1d565b610749838383610dfe565b60fe546000906001600160a01b031633146107ad5760405162461bcd60e51b81526004016106a890611e6a565b6107bb60fc80546001019055565b60006107c660fc5490565b90506107d23382610f62565b6107dd813385610f7c565b6107e7818561108a565b9392505050565b600082815260fb602090815260408083208151808301909252546001600160a01b0381168252600160a01b90046001600160601b0316918101829052829182906103e89061083c9087611ea1565b6108469190611ece565b915196919550909350505050565b61074983838360405180602001604052806000815250610ada565b61087833610753565b6108945760405162461bcd60e51b81526004016106a890611e1d565b61089d81611124565b50565b600054610100900460ff16158080156108c05750600054600160ff909116105b806108da5750303b1580156108da575060005460ff166001145b61093d5760405162461bcd60e51b815260206004820152602e60248201527f496e697469616c697a61626c653a20636f6e747261637420697320616c72656160448201526d191e481a5b9a5d1a585b1a5e995960921b60648201526084016106a8565b6000805460ff191660011790558015610960576000805461ff0019166101001790555b61096a838361112d565b61097261115e565b61097a61115e565b60fe80546001600160a01b031916331790558015610749576000805461ff0019169055604051600181527f7f26b83ff96e1f2b6a682f133852f6798a09c465da95921460cefb38474024989060200160405180910390a1505050565b6000818152606760205260408120546001600160a01b0316806105755760405162461bcd60e51b8152602060048201526018602482015277115490cdcc8c4e881a5b9d985b1a59081d1bdad95b88125160421b60448201526064016106a8565b60006001600160a01b038216610aa05760405162461bcd60e51b815260206004820152602960248201527f4552433732313a2061646472657373207a65726f206973206e6f7420612076616044820152683634b21037bbb732b960b91b60648201526084016106a8565b506001600160a01b031660009081526068602052604090205490565b60606066805461058a90611de3565b610ad6338383611187565b5050565b610ae43383610d7f565b610b005760405162461bcd60e51b81526004016106a890611e1d565b610b0c84848484611255565b50505050565b60fe546001600160a01b03163314610b3c5760405162461bcd60e51b81526004016106a890611e6a565b60ff55565b606061057582611288565b6040805160a0810182526000808252602082018190529181018290526060810182905260808101919091526000610b8260fc5490565b60009081526101006020908152604091829020825160a0810184528154815260018201546001600160a01b03908116938201939093526002820154909216928201929092526003820154606082015260049091015460ff161515608082015292915050565b6000610bf260fc5490565b905090565b60fe546001600160a01b03163314610c215760405162461bcd60e51b81526004016106a890611e6a565b60fe546040516001600160a01b038084169216907f8be0079c531659141344cd1fd0a4f28419497f9722a3daafe3b4186f6b6457e090600090a360fe80546001600160a01b0319166001600160a01b0392909216919091179055565b60006001600160e01b0319821663152a902d60e11b148061057557506301ffc9a760e01b6001600160e01b0319831614610575565b6000818152606760205260409020546001600160a01b031661089d5760405162461bcd60e51b8152602060048201526018602482015277115490cdcc8c4e881a5b9d985b1a59081d1bdad95b88125160421b60448201526064016106a8565b600081815260696020526040902080546001600160a01b0319166001600160a01b0384169081179091558190610d46826109d6565b6001600160a01b03167f8c5be1e5ebec7d5bd14f71427d1e84f3dd0314c0f7b2291e5b200ac8c7c3b92560405160405180910390a45050565b600080610d8b836109d6565b9050806001600160a01b0316846001600160a01b03161480610dd257506001600160a01b038082166000908152606a602090815260408083209388168352929052205460ff165b80610df65750836001600160a01b0316610deb8461060d565b6001600160a01b0316145b949350505050565b826001600160a01b0316610e11826109d6565b6001600160a01b031614610e375760405162461bcd60e51b81526004016106a890611ef0565b6001600160a01b038216610e995760405162461bcd60e51b8152602060048201526024808201527f4552433732313a207472616e7366657220746f20746865207a65726f206164646044820152637265737360e01b60648201526084016106a8565b826001600160a01b0316610eac826109d6565b6001600160a01b031614610ed25760405162461bcd60e51b81526004016106a890611ef0565b600081815260696020908152604080832080546001600160a01b03199081169091556001600160a01b0387811680865260688552838620805460001901905590871680865283862080546001019055868652606790945282852080549092168417909155905184937fddf252ad1be2c89b69c2b068fc378daa952ba7f163c4a11628f55a4df523b3ef91a4505050565b610ad6828260405180602001604052806000815250611390565b6103e86001600160601b0382161115610fea5760405162461bcd60e51b815260206004820152602a60248201527f455243323938313a20726f79616c7479206665652077696c6c206578636565646044820152692073616c65507269636560b01b60648201526084016106a8565b6001600160a01b0382166110405760405162461bcd60e51b815260206004820152601b60248201527f455243323938313a20496e76616c696420706172616d6574657273000000000060448201526064016106a8565b6040805180820182526001600160a01b0393841681526001600160601b039283166020808301918252600096875260fb90529190942093519051909116600160a01b029116179055565b6000828152606760205260409020546001600160a01b03166111055760405162461bcd60e51b815260206004820152602e60248201527f45524337323155524953746f726167653a2055524920736574206f66206e6f6e60448201526d32bc34b9ba32b73a103a37b5b2b760911b60648201526084016106a8565b6000828152609760209081526040909120825161074992840190611950565b61089d816113c3565b600054610100900460ff166111545760405162461bcd60e51b81526004016106a890611f35565b610ad68282611403565b600054610100900460ff166111855760405162461bcd60e51b81526004016106a890611f35565b565b816001600160a01b0316836001600160a01b0316036111e85760405162461bcd60e51b815260206004820152601960248201527f4552433732313a20617070726f766520746f2063616c6c65720000000000000060448201526064016106a8565b6001600160a01b038381166000818152606a6020908152604080832094871680845294825291829020805460ff191686151590811790915591519182527f17307eab39ab6107e8899845ad3d59bd9653f200f220920489ca2b5937696c31910160405180910390a3505050565b611260848484610dfe565b61126c84848484611451565b610b0c5760405162461bcd60e51b81526004016106a890611f80565b606061129382610cb2565b600082815260976020526040812080546112ac90611de3565b80601f01602080910402602001604051908101604052809291908181526020018280546112d890611de3565b80156113255780601f106112fa57610100808354040283529160200191611325565b820191906000526020600020905b81548152906001019060200180831161130857829003601f168201915b50505050509050600061134360408051602081019091526000815290565b90508051600003611355575092915050565b81511561138757808260405160200161136f929190611fd2565b60405160208183030381529060405292505050919050565b610df684611552565b61139a83836115c5565b6113a76000848484611451565b6107495760405162461bcd60e51b81526004016106a890611f80565b6113cc81611750565b600081815260976020526040902080546113e590611de3565b15905061089d57600081815260976020526040812061089d916119d4565b600054610100900460ff1661142a5760405162461bcd60e51b81526004016106a890611f35565b815161143d906065906020850190611950565b508051610749906066906020840190611950565b60006001600160a01b0384163b1561154757604051630a85bd0160e11b81526001600160a01b0385169063150b7a0290611495903390899088908890600401612001565b6020604051808303816000875af19250505080156114d0575060408051601f3d908101601f191682019092526114cd9181019061203e565b60015b61152d573d8080156114fe576040519150601f19603f3d011682016040523d82523d6000602084013e611503565b606091505b5080516000036115255760405162461bcd60e51b81526004016106a890611f80565b805181602001fd5b6001600160e01b031916630a85bd0160e11b149050610df6565b506001949350505050565b606061155d82610cb2565b600061157460408051602081019091526000815290565b9050600081511161159457604051806020016040528060008152506107e7565b8061159e846117e5565b6040516020016115af929190611fd2565b6040516020818303038152906040529392505050565b6001600160a01b03821661161b5760405162461bcd60e51b815260206004820181905260248201527f4552433732313a206d696e7420746f20746865207a65726f206164647265737360448201526064016106a8565b6000818152606760205260409020546001600160a01b0316156116805760405162461bcd60e51b815260206004820152601c60248201527f4552433732313a20746f6b656e20616c7265616479206d696e7465640000000060448201526064016106a8565b6000818152606760205260409020546001600160a01b0316156116e55760405162461bcd60e51b815260206004820152601c60248201527f4552433732313a20746f6b656e20616c7265616479206d696e7465640000000060448201526064016106a8565b6001600160a01b038216600081815260686020908152604080832080546001019055848352606790915280822080546001600160a01b0319168417905551839291907fddf252ad1be2c89b69c2b068fc378daa952ba7f163c4a11628f55a4df523b3ef908290a45050565b600061175b826109d6565b9050611766826109d6565b600083815260696020908152604080832080546001600160a01b03199081169091556001600160a01b0385168085526068845282852080546000190190558785526067909352818420805490911690555192935084927fddf252ad1be2c89b69c2b068fc378daa952ba7f163c4a11628f55a4df523b3ef908390a45050565b606060006117f283611878565b600101905060008167ffffffffffffffff81111561181257611812611b58565b6040519080825280601f01601f19166020018201604052801561183c576020820181803683370190505b5090508181016020015b600019016f181899199a1a9b1b9c1cb0b131b232b360811b600a86061a8153600a850494508461184657509392505050565b60008072184f03e93ff9f4daa797ed6e38ed64bf6a1f0160401b83106118b75772184f03e93ff9f4daa797ed6e38ed64bf6a1f0160401b830492506040015b6d04ee2d6d415b85acef810000000083106118e3576d04ee2d6d415b85acef8100000000830492506020015b662386f26fc10000831061190157662386f26fc10000830492506010015b6305f5e1008310611919576305f5e100830492506008015b612710831061192d57612710830492506004015b6064831061193f576064830492506002015b600a83106105755760010192915050565b82805461195c90611de3565b90600052602060002090601f01602090048101928261197e57600085556119c4565b82601f1061199757805160ff19168380011785556119c4565b828001600101855582156119c4579182015b828111156119c45782518255916020019190600101906119a9565b506119d0929150611a0a565b5090565b5080546119e090611de3565b6000825580601f106119f0575050565b601f01602090049060005260206000209081019061089d91905b5b808211156119d05760008155600101611a0b565b6001600160e01b03198116811461089d57600080fd5b600060208284031215611a4757600080fd5b81356107e781611a1f565b60005b83811015611a6d578181015183820152602001611a55565b83811115610b0c5750506000910152565b60008151808452611a96816020860160208601611a52565b601f01601f19169290920160200192915050565b6020815260006107e76020830184611a7e565b600060208284031215611acf57600080fd5b5035919050565b80356001600160a01b0381168114611aed57600080fd5b919050565b60008060408385031215611b0557600080fd5b611b0e83611ad6565b946020939093013593505050565b600080600060608486031215611b3157600080fd5b611b3a84611ad6565b9250611b4860208501611ad6565b9150604084013590509250925092565b634e487b7160e01b600052604160045260246000fd5b600067ffffffffffffffff80841115611b8957611b89611b58565b604051601f8501601f19908116603f01168101908282118183101715611bb157611bb1611b58565b81604052809350858152868686011115611bca57600080fd5b858560208301376000602087830101525050509392505050565b600082601f830112611bf557600080fd5b6107e783833560208501611b6e565b60008060408385031215611c1757600080fd5b823567ffffffffffffffff811115611c2e57600080fd5b611c3a85828601611be4565b92505060208301356001600160601b0381168114611c5757600080fd5b809150509250929050565b60008060408385031215611c7557600080fd5b50508035926020909101359150565b60008060408385031215611c9757600080fd5b823567ffffffffffffffff80821115611caf57600080fd5b611cbb86838701611be4565b93506020850135915080821115611cd157600080fd5b50611cde85828601611be4565b9150509250929050565b600060208284031215611cfa57600080fd5b6107e782611ad6565b60008060408385031215611d1657600080fd5b611d1f83611ad6565b915060208301358015158114611c5757600080fd5b60008060008060808587031215611d4a57600080fd5b611d5385611ad6565b9350611d6160208601611ad6565b925060408501359150606085013567ffffffffffffffff811115611d8457600080fd5b8501601f81018713611d9557600080fd5b611da487823560208401611b6e565b91505092959194509250565b60008060408385031215611dc357600080fd5b611dcc83611ad6565b9150611dda60208401611ad6565b90509250929050565b600181811c90821680611df757607f821691505b602082108103611e1757634e487b7160e01b600052602260045260246000fd5b50919050565b6020808252602d908201527f4552433732313a2063616c6c6572206973206e6f7420746f6b656e206f776e6560408201526c1c881bdc88185c1c1c9bdd9959609a1b606082015260800190565b6020808252601f908201527f4f6e6c79206f776e65722063616e2063616c6c2074686973206d6574686f6400604082015260600190565b6000816000190483118215151615611ec957634e487b7160e01b600052601160045260246000fd5b500290565b600082611eeb57634e487b7160e01b600052601260045260246000fd5b500490565b60208082526025908201527f4552433732313a207472616e736665722066726f6d20696e636f72726563742060408201526437bbb732b960d91b606082015260800190565b6020808252602b908201527f496e697469616c697a61626c653a20636f6e7472616374206973206e6f74206960408201526a6e697469616c697a696e6760a81b606082015260800190565b60208082526032908201527f4552433732313a207472616e7366657220746f206e6f6e20455243373231526560408201527131b2b4bb32b91034b6b83632b6b2b73a32b960711b606082015260800190565b60008351611fe4818460208801611a52565b835190830190611ff8818360208801611a52565b01949350505050565b6001600160a01b038581168252841660208201526040810183905260806060820181905260009061203490830184611a7e565b9695505050505050565b60006020828403121561205057600080fd5b81516107e781611a1f56fea26469706673582212205f240ceab5952c70513d266ff10d6eebe000c121abd129cd6a151f432f9d021c64736f6c634300080e0033",
  "immutableReferences": {},
  "source": "//SPDX-License-Identifier: Unlicense\r\npragma solidity ^0.8.0;\r\n\r\n// import \"hardhat/console.sol\";\r\nimport \"@openzeppelin/contracts-upgradeable/token/ERC721/ERC721Upgradeable.sol\";\r\nimport \"@openzeppelin/contracts-upgradeable/token/ERC721/extensions/ERC721URIStorageUpgradeable.sol\";\r\nimport \"@openzeppelin/contracts-upgradeable/token/ERC721/extensions/ERC721BurnableUpgradeable.sol\";\r\nimport \"@openzeppelin/contracts-upgradeable/proxy/utils/Initializable.sol\";\r\nimport \"@openzeppelin/contracts-upgradeable/utils/CountersUpgradeable.sol\";\r\nimport \"./common/ERC2981.sol\";\r\n\r\n// import \"@openzeppelin/contracts-upgradeable/access/OwnableUpgradeable.sol\";\r\n\r\ncontract NFTMarketplace is\r\n  Initializable,\r\n  ERC721Upgradeable,\r\n  ERC721URIStorageUpgradeable,\r\n  ERC721BurnableUpgradeable,\r\n  ERC2981\r\n{\r\n  using CountersUpgradeable for CountersUpgradeable.Counter;\r\n  //_tokenIds variable has the most recent minted tokenId\r\n  CountersUpgradeable.Counter private _tokenIds;\r\n  //Keeps track of the number of items sold on the marketplace\r\n  CountersUpgradeable.Counter private _itemsSold;\r\n  //owner is the contract address that created the smart contract\r\n  address payable owner;\r\n  //The fee charged by the marketplace to be allowed to list an NFT\r\n  uint256 public listPrice = 0.01 ether;\r\n\r\n  //The structure to store info about a listed token\r\n  struct ListedToken {\r\n    uint256 tokenId;\r\n    address payable owner;\r\n    address payable seller;\r\n    uint256 price;\r\n    bool currentlyListed;\r\n  }\r\n\r\n  //This mapping maps tokenId to token info and is helpful when retrieving details about a tokenId\r\n  mapping(uint256 => ListedToken) private idToListedToken;\r\n\r\n  //the event emitted when a token is successfully listed\r\n  event TokenListedSuccess(uint256 indexed tokenId, address owner, address seller, uint256 price, bool currentlyListed);\r\n\r\n  event OwnershipTransferred(address indexed previousOwner, address indexed newOwner);\r\n\r\n  modifier onlyOwner() {\r\n    require(msg.sender == owner, \"Only owner can call this method\");\r\n    _;\r\n  }\r\n\r\n  modifier onlyNFTOwner(uint256 _tokenId) {\r\n    require(msg.sender == ownerOf(_tokenId), \"You don't own this NFT\");\r\n    _;\r\n  }\r\n\r\n  /// @custom:oz-upgrades-unsafe-allow constructor\r\n  constructor() {\r\n    _disableInitializers();\r\n  }\r\n\r\n  function initialize(string memory _name, string memory _symbol) public initializer {\r\n    __ERC721_init(_name, _symbol);\r\n    __ERC721URIStorage_init();\r\n    __ERC721Burnable_init();\r\n    owner = payable(msg.sender);\r\n  }\r\n\r\n  function transferOwnership(address newOwner) public onlyOwner {\r\n    emit OwnershipTransferred(owner, newOwner);\r\n    owner = payable(newOwner);\r\n  }\r\n\r\n  // The following functions are overrides required by Solidity.\r\n  function _burn(uint256 tokenId) internal override(ERC721Upgradeable, ERC721URIStorageUpgradeable) {\r\n    super._burn(tokenId);\r\n  }\r\n\r\n  function tokenURI(\r\n    uint256 tokenId\r\n  ) public view override(ERC721Upgradeable, ERC721URIStorageUpgradeable) returns (string memory) {\r\n    return super.tokenURI(tokenId);\r\n  }\r\n\r\n  function updateListPrice(uint256 _listPrice) public payable onlyOwner {\r\n    listPrice = _listPrice;\r\n  }\r\n\r\n  function getListPrice() public view returns (uint256) {\r\n    return listPrice;\r\n  }\r\n\r\n  function getLatestIdToListedToken() public view returns (ListedToken memory) {\r\n    uint256 currentTokenId = _tokenIds.current();\r\n    return idToListedToken[currentTokenId];\r\n  }\r\n\r\n  function getListedTokenForId(uint256 tokenId) public view returns (ListedToken memory) {\r\n    return idToListedToken[tokenId];\r\n  }\r\n\r\n  function getCurrentToken() public view returns (uint256) {\r\n    return _tokenIds.current();\r\n  }\r\n\r\n  //The first time a token is created\r\n  function createToken(string memory _tokenURI, uint96 _royaltyFee) public onlyOwner returns (uint256) {\r\n    //Increment the tokenId counter, which is keeping track of the number of minted NFTs\r\n    _tokenIds.increment();\r\n    uint256 newTokenId = _tokenIds.current();\r\n\r\n    //Mint the NFT with tokenId newTokenId to the address who called createToken\r\n    _safeMint(msg.sender, newTokenId);\r\n    // set royalty of nft\r\n    _setTokenRoyalty(newTokenId, _msgSender(), _royaltyFee); // 20 for 2% royalty\r\n\r\n    //Map the tokenId to the tokenURI (which is an IPFS URL with the NFT metadata)\r\n    _setTokenURI(newTokenId, _tokenURI);\r\n\r\n    return newTokenId;\r\n  }\r\n\r\n  //The first time a token is created, it is listed here\r\n  // function createToken(\r\n  //     string memory tokenURI,\r\n  //     uint256 price,\r\n  //     bool listOnSale\r\n  // ) public onlyOwner returns (uint256) {\r\n  //     //Increment the tokenId counter, which is keeping track of the number of minted NFTs\r\n  //     _tokenIds.increment();\r\n  //     uint256 newTokenId = _tokenIds.current();\r\n\r\n  //     //Mint the NFT with tokenId newTokenId to the address who called createToken\r\n  //     _safeMint(msg.sender, newTokenId);\r\n\r\n  //     //Map the tokenId to the tokenURI (which is an IPFS URL with the NFT metadata)\r\n  //     _setTokenURI(newTokenId, tokenURI);\r\n\r\n  //     if (listOnSale) {\r\n  //         //Helper function to update Global variables and emit an event\r\n  //         createListedToken(newTokenId, price);\r\n  //     }\r\n  //     return newTokenId;\r\n  // }\r\n\r\n  // function createListedToken(uint256 tokenId, uint256 price) public onlyNFTOwner(tokenId) payable {\r\n  //     //Make sure the sender sent enough ETH to pay for listing\r\n  //     require(msg.value == listPrice, \"Hopefully sending the correct price\");\r\n  //     //Just sanity check\r\n  //     require(price > 0, \"Make sure the price isn't negative\");\r\n\r\n  //     //Update the mapping of tokenId's to Token details, useful for retrieval functions\r\n  //     idToListedToken[tokenId] = ListedToken(\r\n  //         tokenId,\r\n  //         payable(address(this)),\r\n  //         payable(msg.sender),\r\n  //         price,\r\n  //         true\r\n  //     );\r\n\r\n  //     _transfer(msg.sender, address(this), tokenId);\r\n  //     //Emit the event for successful transfer. The frontend parses this message and updates the end user\r\n  //     emit TokenListedSuccess(\r\n  //         tokenId,\r\n  //         address(this),\r\n  //         msg.sender,\r\n  //         price,\r\n  //         true\r\n  //     );\r\n  // }\r\n\r\n  // function getAllNFTs() public view returns (ListedToken[] memory) {\r\n  //     uint256 nftCount = _tokenIds.current();\r\n  //     ListedToken[] memory tokens = new ListedToken[](nftCount);\r\n  //     uint256 currentIndex = 0;\r\n  //     uint256 currentId;\r\n  //     //at the moment currentlyListed is true for all, if it becomes false in the future we will\r\n  //     //filter out currentlyListed == false over here\r\n  //     for (uint256 i = 0; i < nftCount; i++) {\r\n  //         currentId = i + 1;\r\n  //         ListedToken storage currentItem = idToListedToken[currentId];\r\n  //         tokens[currentIndex] = currentItem;\r\n  //         currentIndex += 1;\r\n  //     }\r\n  //     //the array 'tokens' has the list of all NFTs in the marketplace\r\n  //     return tokens;\r\n  // }\r\n\r\n  //Returns all the NFTs that the current user is owner or seller in\r\n  // function getMyNFTs() public view returns (ListedToken[] memory) {\r\n  //     uint256 totalItemCount = _tokenIds.current();\r\n  //     uint256 itemCount = 0;\r\n  //     uint256 currentIndex = 0;\r\n  //     uint256 currentId;\r\n  //     //Important to get a count of all the NFTs that belong to the user before we can make an array for them\r\n  //     for (uint256 i = 0; i < totalItemCount; i++) {\r\n  //         if (\r\n  //             idToListedToken[i + 1].owner == msg.sender ||\r\n  //             idToListedToken[i + 1].seller == msg.sender\r\n  //         ) {\r\n  //             itemCount += 1;\r\n  //         }\r\n  //     }\r\n\r\n  //     //Once you have the count of relevant NFTs, create an array then store all the NFTs in it\r\n  //     ListedToken[] memory items = new ListedToken[](itemCount);\r\n  //     for (uint256 i = 0; i < totalItemCount; i++) {\r\n  //         if (\r\n  //             idToListedToken[i + 1].owner == msg.sender ||\r\n  //             idToListedToken[i + 1].seller == msg.sender\r\n  //         ) {\r\n  //             currentId = i + 1;\r\n  //             ListedToken storage currentItem = idToListedToken[currentId];\r\n  //             items[currentIndex] = currentItem;\r\n  //             currentIndex += 1;\r\n  //         }\r\n  //     }\r\n  //     return items;\r\n  // }\r\n\r\n  // function executeSale(uint256 tokenId) public payable {\r\n  //     uint256 price = idToListedToken[tokenId].price;\r\n  //     address seller = idToListedToken[tokenId].seller;\r\n  //     require(\r\n  //         msg.value == price,\r\n  //         \"Please submit the asking price in order to complete the purchase\"\r\n  //     );\r\n\r\n  //     //update the details of the token\r\n  //     idToListedToken[tokenId].currentlyListed = true;\r\n  //     idToListedToken[tokenId].seller = payable(msg.sender);\r\n  //     _itemsSold.increment();\r\n\r\n  //     //Actually transfer the token to the new owner\r\n  //     _transfer(address(this), msg.sender, tokenId);\r\n  //     //approve the marketplace to sell NFTs on your behalf\r\n  //     approve(address(this), tokenId);\r\n\r\n  //     //Transfer the listing fee to the marketplace creator\r\n  //     payable(owner).transfer(listPrice);\r\n  //     //Transfer the proceeds from the sale to the seller of the NFT\r\n  //     payable(seller).transfer(msg.value);\r\n  // }\r\n\r\n  /**\r\n   * @dev See {IERC165-supportsInterface}.\r\n   */\r\n  function supportsInterface(\r\n    bytes4 interfaceId\r\n  ) public view virtual override(ERC2981, ERC721Upgradeable) returns (bool) {\r\n    return super.supportsInterface(interfaceId);\r\n  }\r\n}\r\n",
  "sourcePath": "C:\\Users\\Yash\\Desktop\\Temporary\\Github\\marketplace\\src\\contracts\\OwnCollection721.sol",
  "compiler": {
    "name": "solc",
    "version": "0.8.14+commit.80d49f37.Emscripten.clang"
  },
  "schemaVersion": "3.4.13",
  "updatedAt": "2023-08-10T13:39:04.933Z",
  "devdoc": {
    "kind": "dev",
    "methods": {
      "approve(address,uint256)": {
        "details": "See {IERC721-approve}."
      },
      "balanceOf(address)": {
        "details": "See {IERC721-balanceOf}."
      },
      "burn(uint256)": {
        "details": "Burns `tokenId`. See {ERC721-_burn}. Requirements: - The caller must own `tokenId` or be an approved operator."
      },
      "constructor": {
        "custom:oz-upgrades-unsafe-allow": "constructor"
      },
      "getApproved(uint256)": {
        "details": "See {IERC721-getApproved}."
      },
      "isApprovedForAll(address,address)": {
        "details": "See {IERC721-isApprovedForAll}."
      },
      "name()": {
        "details": "See {IERC721Metadata-name}."
      },
      "ownerOf(uint256)": {
        "details": "See {IERC721-ownerOf}."
      },
      "royaltyInfo(uint256,uint256)": {
        "details": "Returns how much royalty is owed and to whom, based on a sale price that may be denominated in any unit of exchange. The royalty amount is denominated and should be paid in that same unit of exchange."
      },
      "safeTransferFrom(address,address,uint256)": {
        "details": "See {IERC721-safeTransferFrom}."
      },
      "safeTransferFrom(address,address,uint256,bytes)": {
        "details": "See {IERC721-safeTransferFrom}."
      },
      "setApprovalForAll(address,bool)": {
        "details": "See {IERC721-setApprovalForAll}."
      },
      "supportsInterface(bytes4)": {
        "details": "See {IERC165-supportsInterface}."
      },
      "symbol()": {
        "details": "See {IERC721Metadata-symbol}."
      },
      "transferFrom(address,address,uint256)": {
        "details": "See {IERC721-transferFrom}."
      }
    },
    "version": 1
  },
  "userdoc": {
    "kind": "user",
    "methods": {},
    "version": 1
  }
}