{
  "contractName": "NFTMarketplace",
  "abi": [
    {
      "inputs": [],
      "stateMutability": "nonpayable",
      "type": "constructor"
    },
    {
      "anonymous": false,
      "inputs": [
        {
          "indexed": true,
          "internalType": "address",
          "name": "owner",
          "type": "address"
        },
        {
          "indexed": true,
          "internalType": "address",
          "name": "approved",
          "type": "address"
        },
        {
          "indexed": true,
          "internalType": "uint256",
          "name": "tokenId",
          "type": "uint256"
        }
      ],
      "name": "Approval",
      "type": "event"
    },
    {
      "anonymous": false,
      "inputs": [
        {
          "indexed": true,
          "internalType": "address",
          "name": "owner",
          "type": "address"
        },
        {
          "indexed": true,
          "internalType": "address",
          "name": "operator",
          "type": "address"
        },
        {
          "indexed": false,
          "internalType": "bool",
          "name": "approved",
          "type": "bool"
        }
      ],
      "name": "ApprovalForAll",
      "type": "event"
    },
    {
      "anonymous": false,
      "inputs": [
        {
          "indexed": false,
          "internalType": "uint256",
          "name": "_fromTokenId",
          "type": "uint256"
        },
        {
          "indexed": false,
          "internalType": "uint256",
          "name": "_toTokenId",
          "type": "uint256"
        }
      ],
      "name": "BatchMetadataUpdate",
      "type": "event"
    },
    {
      "anonymous": false,
      "inputs": [
        {
          "indexed": false,
          "internalType": "uint8",
          "name": "version",
          "type": "uint8"
        }
      ],
      "name": "Initialized",
      "type": "event"
    },
    {
      "anonymous": false,
      "inputs": [
        {
          "indexed": false,
          "internalType": "uint256",
          "name": "_tokenId",
          "type": "uint256"
        }
      ],
      "name": "MetadataUpdate",
      "type": "event"
    },
    {
      "anonymous": false,
      "inputs": [
        {
          "indexed": true,
          "internalType": "address",
          "name": "previousOwner",
          "type": "address"
        },
        {
          "indexed": true,
          "internalType": "address",
          "name": "newOwner",
          "type": "address"
        }
      ],
      "name": "OwnershipTransferred",
      "type": "event"
    },
    {
      "anonymous": false,
      "inputs": [
        {
          "indexed": true,
          "internalType": "uint256",
          "name": "tokenId",
          "type": "uint256"
        },
        {
          "indexed": false,
          "internalType": "address",
          "name": "owner",
          "type": "address"
        },
        {
          "indexed": false,
          "internalType": "address",
          "name": "seller",
          "type": "address"
        },
        {
          "indexed": false,
          "internalType": "uint256",
          "name": "price",
          "type": "uint256"
        },
        {
          "indexed": false,
          "internalType": "bool",
          "name": "currentlyListed",
          "type": "bool"
        }
      ],
      "name": "TokenListedSuccess",
      "type": "event"
    },
    {
      "anonymous": false,
      "inputs": [
        {
          "indexed": true,
          "internalType": "address",
          "name": "from",
          "type": "address"
        },
        {
          "indexed": true,
          "internalType": "address",
          "name": "to",
          "type": "address"
        },
        {
          "indexed": true,
          "internalType": "uint256",
          "name": "tokenId",
          "type": "uint256"
        }
      ],
      "name": "Transfer",
      "type": "event"
    },
    {
      "inputs": [
        {
          "internalType": "address",
          "name": "to",
          "type": "address"
        },
        {
          "internalType": "uint256",
          "name": "tokenId",
          "type": "uint256"
        }
      ],
      "name": "approve",
      "outputs": [],
      "stateMutability": "nonpayable",
      "type": "function"
    },
    {
      "inputs": [
        {
          "internalType": "address",
          "name": "owner",
          "type": "address"
        }
      ],
      "name": "balanceOf",
      "outputs": [
        {
          "internalType": "uint256",
          "name": "",
          "type": "uint256"
        }
      ],
      "stateMutability": "view",
      "type": "function"
    },
    {
      "inputs": [
        {
          "internalType": "uint256",
          "name": "tokenId",
          "type": "uint256"
        }
      ],
      "name": "burn",
      "outputs": [],
      "stateMutability": "nonpayable",
      "type": "function"
    },
    {
      "inputs": [
        {
          "internalType": "uint256",
          "name": "tokenId",
          "type": "uint256"
        }
      ],
      "name": "getApproved",
      "outputs": [
        {
          "internalType": "address",
          "name": "",
          "type": "address"
        }
      ],
      "stateMutability": "view",
      "type": "function"
    },
    {
      "inputs": [
        {
          "internalType": "address",
          "name": "owner",
          "type": "address"
        },
        {
          "internalType": "address",
          "name": "operator",
          "type": "address"
        }
      ],
      "name": "isApprovedForAll",
      "outputs": [
        {
          "internalType": "bool",
          "name": "",
          "type": "bool"
        }
      ],
      "stateMutability": "view",
      "type": "function"
    },
    {
      "inputs": [],
      "name": "listPrice",
      "outputs": [
        {
          "internalType": "uint256",
          "name": "",
          "type": "uint256"
        }
      ],
      "stateMutability": "view",
      "type": "function"
    },
    {
      "inputs": [],
      "name": "name",
      "outputs": [
        {
          "internalType": "string",
          "name": "",
          "type": "string"
        }
      ],
      "stateMutability": "view",
      "type": "function"
    },
    {
      "inputs": [
        {
          "internalType": "uint256",
          "name": "tokenId",
          "type": "uint256"
        }
      ],
      "name": "ownerOf",
      "outputs": [
        {
          "internalType": "address",
          "name": "",
          "type": "address"
        }
      ],
      "stateMutability": "view",
      "type": "function"
    },
    {
      "inputs": [
        {
          "internalType": "uint256",
          "name": "_tokenId",
          "type": "uint256"
        },
        {
          "internalType": "uint256",
          "name": "_salePrice",
          "type": "uint256"
        }
      ],
      "name": "royaltyInfo",
      "outputs": [
        {
          "internalType": "address",
          "name": "",
          "type": "address"
        },
        {
          "internalType": "uint256",
          "name": "",
          "type": "uint256"
        }
      ],
      "stateMutability": "view",
      "type": "function"
    },
    {
      "inputs": [
        {
          "internalType": "address",
          "name": "from",
          "type": "address"
        },
        {
          "internalType": "address",
          "name": "to",
          "type": "address"
        },
        {
          "internalType": "uint256",
          "name": "tokenId",
          "type": "uint256"
        }
      ],
      "name": "safeTransferFrom",
      "outputs": [],
      "stateMutability": "nonpayable",
      "type": "function"
    },
    {
      "inputs": [
        {
          "internalType": "address",
          "name": "from",
          "type": "address"
        },
        {
          "internalType": "address",
          "name": "to",
          "type": "address"
        },
        {
          "internalType": "uint256",
          "name": "tokenId",
          "type": "uint256"
        },
        {
          "internalType": "bytes",
          "name": "data",
          "type": "bytes"
        }
      ],
      "name": "safeTransferFrom",
      "outputs": [],
      "stateMutability": "nonpayable",
      "type": "function"
    },
    {
      "inputs": [
        {
          "internalType": "address",
          "name": "operator",
          "type": "address"
        },
        {
          "internalType": "bool",
          "name": "approved",
          "type": "bool"
        }
      ],
      "name": "setApprovalForAll",
      "outputs": [],
      "stateMutability": "nonpayable",
      "type": "function"
    },
    {
      "inputs": [],
      "name": "symbol",
      "outputs": [
        {
          "internalType": "string",
          "name": "",
          "type": "string"
        }
      ],
      "stateMutability": "view",
      "type": "function"
    },
    {
      "inputs": [
        {
          "internalType": "address",
          "name": "from",
          "type": "address"
        },
        {
          "internalType": "address",
          "name": "to",
          "type": "address"
        },
        {
          "internalType": "uint256",
          "name": "tokenId",
          "type": "uint256"
        }
      ],
      "name": "transferFrom",
      "outputs": [],
      "stateMutability": "nonpayable",
      "type": "function"
    },
    {
      "inputs": [
        {
          "internalType": "string",
          "name": "_name",
          "type": "string"
        },
        {
          "internalType": "string",
          "name": "_symbol",
          "type": "string"
        }
      ],
      "name": "initialize",
      "outputs": [],
      "stateMutability": "nonpayable",
      "type": "function"
    },
    {
      "inputs": [
        {
          "internalType": "address",
          "name": "newOwner",
          "type": "address"
        }
      ],
      "name": "transferOwnership",
      "outputs": [],
      "stateMutability": "nonpayable",
      "type": "function"
    },
    {
      "inputs": [
        {
          "internalType": "uint256",
          "name": "tokenId",
          "type": "uint256"
        }
      ],
      "name": "tokenURI",
      "outputs": [
        {
          "internalType": "string",
          "name": "",
          "type": "string"
        }
      ],
      "stateMutability": "view",
      "type": "function"
    },
    {
      "inputs": [
        {
          "internalType": "uint256",
          "name": "_listPrice",
          "type": "uint256"
        }
      ],
      "name": "updateListPrice",
      "outputs": [],
      "stateMutability": "payable",
      "type": "function"
    },
    {
      "inputs": [],
      "name": "getListPrice",
      "outputs": [
        {
          "internalType": "uint256",
          "name": "",
          "type": "uint256"
        }
      ],
      "stateMutability": "view",
      "type": "function"
    },
    {
      "inputs": [],
      "name": "getLatestIdToListedToken",
      "outputs": [
        {
          "components": [
            {
              "internalType": "uint256",
              "name": "tokenId",
              "type": "uint256"
            },
            {
              "internalType": "address payable",
              "name": "owner",
              "type": "address"
            },
            {
              "internalType": "address payable",
              "name": "seller",
              "type": "address"
            },
            {
              "internalType": "uint256",
              "name": "price",
              "type": "uint256"
            },
            {
              "internalType": "bool",
              "name": "currentlyListed",
              "type": "bool"
            }
          ],
          "internalType": "struct NFTMarketplace.ListedToken",
          "name": "",
          "type": "tuple"
        }
      ],
      "stateMutability": "view",
      "type": "function"
    },
    {
      "inputs": [
        {
          "internalType": "uint256",
          "name": "tokenId",
          "type": "uint256"
        }
      ],
      "name": "getListedTokenForId",
      "outputs": [
        {
          "components": [
            {
              "internalType": "uint256",
              "name": "tokenId",
              "type": "uint256"
            },
            {
              "internalType": "address payable",
              "name": "owner",
              "type": "address"
            },
            {
              "internalType": "address payable",
              "name": "seller",
              "type": "address"
            },
            {
              "internalType": "uint256",
              "name": "price",
              "type": "uint256"
            },
            {
              "internalType": "bool",
              "name": "currentlyListed",
              "type": "bool"
            }
          ],
          "internalType": "struct NFTMarketplace.ListedToken",
          "name": "",
          "type": "tuple"
        }
      ],
      "stateMutability": "view",
      "type": "function"
    },
    {
      "inputs": [],
      "name": "getCurrentToken",
      "outputs": [
        {
          "internalType": "uint256",
          "name": "",
          "type": "uint256"
        }
      ],
      "stateMutability": "view",
      "type": "function"
    },
    {
      "inputs": [
        {
          "internalType": "string",
          "name": "_tokenURI",
          "type": "string"
        },
        {
          "internalType": "uint96",
          "name": "_royaltyFee",
          "type": "uint96"
        }
      ],
      "name": "createToken",
      "outputs": [
        {
          "internalType": "uint256",
          "name": "",
          "type": "uint256"
        }
      ],
      "stateMutability": "nonpayable",
      "type": "function"
    },
    {
      "inputs": [
        {
          "internalType": "bytes4",
          "name": "interfaceId",
          "type": "bytes4"
        }
      ],
      "name": "supportsInterface",
      "outputs": [
        {
          "internalType": "bool",
          "name": "",
          "type": "bool"
        }
      ],
      "stateMutability": "view",
      "type": "function"
    }
  ],
  "bytecode": "0x6080604052662386f26fc1000060ff5534801561001b57600080fd5b50610024610029565b6100e8565b600054610100900460ff16156100955760405162461bcd60e51b815260206004820152602760248201527f496e697469616c697a61626c653a20636f6e747261637420697320696e697469604482015266616c697a696e6760c81b606482015260840160405180910390fd5b60005460ff908116146100e6576000805460ff191660ff9081179091556040519081527f7f26b83ff96e1f2b6a682f133852f6798a09c465da95921460cefb38474024989060200160405180910390a15b565b61241480620000f86000396000f3fe60806040526004361061018b5760003560e01c80636eb588d9116100d6578063c322579c1161007f578063e985e9c511610059578063e985e9c514610532578063ef2d17461461057b578063f2fde38b1461059057600080fd5b8063c322579c146104ea578063c87b56dd146104fd578063d1a88ae51461051d57600080fd5b806395d89b41116100b057806395d89b4114610495578063a22cb465146104aa578063b88d4fde146104ca57600080fd5b80636eb588d91461036357806370a08231146103795780638e2645901461039957600080fd5b80632a55205a116101385780634cd88b76116101125780634cd88b761461030e5780636352211e1461032e57806368f1945f1461034e57600080fd5b80632a55205a1461028f57806342842e0e146102ce57806342966c68146102ee57600080fd5b8063095ea7b311610169578063095ea7b31461021f57806323b872dd146102415780632a0774111461026157600080fd5b806301ffc9a71461019057806306fdde03146101c5578063081812fc146101e7575b600080fd5b34801561019c57600080fd5b506101b06101ab366004611f1a565b6105b0565b60405190151581526020015b60405180910390f35b3480156101d157600080fd5b506101da6105c1565b6040516101bc9190611f8f565b3480156101f357600080fd5b50610207610202366004611fa2565b610653565b6040516001600160a01b0390911681526020016101bc565b34801561022b57600080fd5b5061023f61023a366004611fd7565b61067a565b005b34801561024d57600080fd5b5061023f61025c366004612001565b6107b0565b34801561026d57600080fd5b5061028161027c3660046120e9565b610828565b6040519081526020016101bc565b34801561029b57600080fd5b506102af6102aa36600461214c565b6108c6565b604080516001600160a01b0390931683526020830191909152016101bc565b3480156102da57600080fd5b5061023f6102e9366004612001565b610931565b3480156102fa57600080fd5b5061023f610309366004611fa2565b61094c565b34801561031a57600080fd5b5061023f61032936600461216e565b6109c3565b34801561033a57600080fd5b50610207610349366004611fa2565b610b08565b34801561035a57600080fd5b5060ff54610281565b34801561036f57600080fd5b5061028160ff5481565b34801561038557600080fd5b506102816103943660046121d2565b610b6d565b3480156103a557600080fd5b506104426103b4366004611fa2565b6040805160a0810182526000808252602082018190529181018290526060810182905260808101919091525060009081526101006020908152604091829020825160a0810184528154815260018201546001600160a01b03908116938201939093526002820154909216928201929092526003820154606082015260049091015460ff161515608082015290565b6040516101bc9190600060a0820190508251825260208301516001600160a01b03808216602085015280604086015116604085015250506060830151606083015260808301511515608083015292915050565b3480156104a157600080fd5b506101da610c07565b3480156104b657600080fd5b5061023f6104c53660046121ed565b610c16565b3480156104d657600080fd5b5061023f6104e536600461221e565b610c25565b61023f6104f8366004611fa2565b610ca3565b34801561050957600080fd5b506101da610518366004611fa2565b610d02565b34801561052957600080fd5b50610442610d0d565b34801561053e57600080fd5b506101b061054d36600461229a565b6001600160a01b039182166000908152606a6020908152604080832093909416825291909152205460ff1690565b34801561058757600080fd5b50610281610da8565b34801561059c57600080fd5b5061023f6105ab3660046121d2565b610db8565b60006105bb82610e6e565b92915050565b6060606580546105d0906122cd565b80601f01602080910402602001604051908101604052809291908181526020018280546105fc906122cd565b80156106495780601f1061061e57610100808354040283529160200191610649565b820191906000526020600020905b81548152906001019060200180831161062c57829003601f168201915b5050505050905090565b600061065e82610ed5565b506000908152606960205260409020546001600160a01b031690565b600061068582610b08565b9050806001600160a01b0316836001600160a01b0316036107135760405162461bcd60e51b815260206004820152602160248201527f4552433732313a20617070726f76616c20746f2063757272656e74206f776e6560448201527f720000000000000000000000000000000000000000000000000000000000000060648201526084015b60405180910390fd5b336001600160a01b038216148061072f575061072f813361054d565b6107a15760405162461bcd60e51b815260206004820152603d60248201527f4552433732313a20617070726f76652063616c6c6572206973206e6f7420746f60448201527f6b656e206f776e6572206f7220617070726f76656420666f7220616c6c000000606482015260840161070a565b6107ab8383610f39565b505050565b6107bb335b82610fa7565b61081d5760405162461bcd60e51b815260206004820152602d60248201527f4552433732313a2063616c6c6572206973206e6f7420746f6b656e206f776e6560448201526c1c881bdc88185c1c1c9bdd9959609a1b606482015260840161070a565b6107ab838383611026565b60fe546000906001600160a01b031633146108855760405162461bcd60e51b815260206004820152601f60248201527f4f6e6c79206f776e65722063616e2063616c6c2074686973206d6574686f6400604482015260640161070a565b61089360fc80546001019055565b600061089e60fc5490565b90506108aa338261121f565b6108b5813385611239565b6108bf8185611364565b9392505050565b600082815260fb602090815260408083208151808301909252546001600160a01b0381168252600160a01b90046bffffffffffffffffffffffff16918101829052829182906103e8906109199087612307565b6109239190612334565b915196919550909350505050565b6107ab83838360405180602001604052806000815250610c25565b610955336107b5565b6109b75760405162461bcd60e51b815260206004820152602d60248201527f4552433732313a2063616c6c6572206973206e6f7420746f6b656e206f776e6560448201526c1c881bdc88185c1c1c9bdd9959609a1b606482015260840161070a565b6109c081611445565b50565b600054610100900460ff16158080156109e35750600054600160ff909116105b806109fd5750303b1580156109fd575060005460ff166001145b610a6f5760405162461bcd60e51b815260206004820152602e60248201527f496e697469616c697a61626c653a20636f6e747261637420697320616c72656160448201527f647920696e697469616c697a6564000000000000000000000000000000000000606482015260840161070a565b6000805460ff191660011790558015610a92576000805461ff0019166101001790555b610a9c838361144e565b610aa46114c3565b610aac6114c3565b60fe80546001600160a01b0319163317905580156107ab576000805461ff0019169055604051600181527f7f26b83ff96e1f2b6a682f133852f6798a09c465da95921460cefb38474024989060200160405180910390a1505050565b6000818152606760205260408120546001600160a01b0316806105bb5760405162461bcd60e51b815260206004820152601860248201527f4552433732313a20696e76616c696420746f6b656e2049440000000000000000604482015260640161070a565b60006001600160a01b038216610beb5760405162461bcd60e51b815260206004820152602960248201527f4552433732313a2061646472657373207a65726f206973206e6f74206120766160448201527f6c6964206f776e65720000000000000000000000000000000000000000000000606482015260840161070a565b506001600160a01b031660009081526068602052604090205490565b6060606680546105d0906122cd565b610c21338383611530565b5050565b610c2f3383610fa7565b610c915760405162461bcd60e51b815260206004820152602d60248201527f4552433732313a2063616c6c6572206973206e6f7420746f6b656e206f776e6560448201526c1c881bdc88185c1c1c9bdd9959609a1b606482015260840161070a565b610c9d848484846115fe565b50505050565b60fe546001600160a01b03163314610cfd5760405162461bcd60e51b815260206004820152601f60248201527f4f6e6c79206f776e65722063616e2063616c6c2074686973206d6574686f6400604482015260640161070a565b60ff55565b60606105bb8261167c565b6040805160a0810182526000808252602082018190529181018290526060810182905260808101919091526000610d4360fc5490565b60009081526101006020908152604091829020825160a0810184528154815260018201546001600160a01b03908116938201939093526002820154909216928201929092526003820154606082015260049091015460ff161515608082015292915050565b6000610db360fc5490565b905090565b60fe546001600160a01b03163314610e125760405162461bcd60e51b815260206004820152601f60248201527f4f6e6c79206f776e65722063616e2063616c6c2074686973206d6574686f6400604482015260640161070a565b60fe546040516001600160a01b038084169216907f8be0079c531659141344cd1fd0a4f28419497f9722a3daafe3b4186f6b6457e090600090a360fe80546001600160a01b0319166001600160a01b0392909216919091179055565b60006001600160e01b031982167f2a55205a0000000000000000000000000000000000000000000000000000000014806105bb57507f01ffc9a7000000000000000000000000000000000000000000000000000000006001600160e01b03198316146105bb565b6000818152606760205260409020546001600160a01b03166109c05760405162461bcd60e51b815260206004820152601860248201527f4552433732313a20696e76616c696420746f6b656e2049440000000000000000604482015260640161070a565b600081815260696020526040902080546001600160a01b0319166001600160a01b0384169081179091558190610f6e82610b08565b6001600160a01b03167f8c5be1e5ebec7d5bd14f71427d1e84f3dd0314c0f7b2291e5b200ac8c7c3b92560405160405180910390a45050565b600080610fb383610b08565b9050806001600160a01b0316846001600160a01b03161480610ffa57506001600160a01b038082166000908152606a602090815260408083209388168352929052205460ff165b8061101e5750836001600160a01b031661101384610653565b6001600160a01b0316145b949350505050565b826001600160a01b031661103982610b08565b6001600160a01b03161461109d5760405162461bcd60e51b815260206004820152602560248201527f4552433732313a207472616e736665722066726f6d20696e636f72726563742060448201526437bbb732b960d91b606482015260840161070a565b6001600160a01b0382166111185760405162461bcd60e51b8152602060048201526024808201527f4552433732313a207472616e7366657220746f20746865207a65726f2061646460448201527f7265737300000000000000000000000000000000000000000000000000000000606482015260840161070a565b826001600160a01b031661112b82610b08565b6001600160a01b03161461118f5760405162461bcd60e51b815260206004820152602560248201527f4552433732313a207472616e736665722066726f6d20696e636f72726563742060448201526437bbb732b960d91b606482015260840161070a565b600081815260696020908152604080832080546001600160a01b03199081169091556001600160a01b0387811680865260688552838620805460001901905590871680865283862080546001019055868652606790945282852080549092168417909155905184937fddf252ad1be2c89b69c2b068fc378daa952ba7f163c4a11628f55a4df523b3ef91a4505050565b610c21828260405180602001604052806000815250611784565b6103e86bffffffffffffffffffffffff821611156112bf5760405162461bcd60e51b815260206004820152602a60248201527f455243323938313a20726f79616c7479206665652077696c6c2065786365656460448201527f2073616c65507269636500000000000000000000000000000000000000000000606482015260840161070a565b6001600160a01b0382166113155760405162461bcd60e51b815260206004820152601b60248201527f455243323938313a20496e76616c696420706172616d65746572730000000000604482015260640161070a565b6040805180820182526001600160a01b0393841681526bffffffffffffffffffffffff9283166020808301918252600096875260fb90529190942093519051909116600160a01b029116179055565b6000828152606760205260409020546001600160a01b03166113ee5760405162461bcd60e51b815260206004820152602e60248201527f45524337323155524953746f726167653a2055524920736574206f66206e6f6e60448201527f6578697374656e7420746f6b656e000000000000000000000000000000000000606482015260840161070a565b6000828152609760209081526040909120825161140d92840190611e35565b506040518281527ff8e1a15aba9398e019f0b49df1a4fde98ee17ae345cb5f6b5e2c27f5033e8ce79060200160405180910390a15050565b6109c081611802565b600054610100900460ff166114b95760405162461bcd60e51b815260206004820152602b60248201527f496e697469616c697a61626c653a20636f6e7472616374206973206e6f74206960448201526a6e697469616c697a696e6760a81b606482015260840161070a565b610c218282611842565b600054610100900460ff1661152e5760405162461bcd60e51b815260206004820152602b60248201527f496e697469616c697a61626c653a20636f6e7472616374206973206e6f74206960448201526a6e697469616c697a696e6760a81b606482015260840161070a565b565b816001600160a01b0316836001600160a01b0316036115915760405162461bcd60e51b815260206004820152601960248201527f4552433732313a20617070726f766520746f2063616c6c657200000000000000604482015260640161070a565b6001600160a01b038381166000818152606a6020908152604080832094871680845294825291829020805460ff191686151590811790915591519182527f17307eab39ab6107e8899845ad3d59bd9653f200f220920489ca2b5937696c31910160405180910390a3505050565b611609848484611026565b611615848484846118d4565b610c9d5760405162461bcd60e51b815260206004820152603260248201527f4552433732313a207472616e7366657220746f206e6f6e20455243373231526560448201527131b2b4bb32b91034b6b83632b6b2b73a32b960711b606482015260840161070a565b606061168782610ed5565b600082815260976020526040812080546116a0906122cd565b80601f01602080910402602001604051908101604052809291908181526020018280546116cc906122cd565b80156117195780601f106116ee57610100808354040283529160200191611719565b820191906000526020600020905b8154815290600101906020018083116116fc57829003601f168201915b50505050509050600061173760408051602081019091526000815290565b90508051600003611749575092915050565b81511561177b578082604051602001611763929190612356565b60405160208183030381529060405292505050919050565b61101e84611a20565b61178e8383611a93565b61179b60008484846118d4565b6107ab5760405162461bcd60e51b815260206004820152603260248201527f4552433732313a207472616e7366657220746f206e6f6e20455243373231526560448201527131b2b4bb32b91034b6b83632b6b2b73a32b960711b606482015260840161070a565b61180b81611c1e565b60008181526097602052604090208054611824906122cd565b1590506109c05760008181526097602052604081206109c091611eb9565b600054610100900460ff166118ad5760405162461bcd60e51b815260206004820152602b60248201527f496e697469616c697a61626c653a20636f6e7472616374206973206e6f74206960448201526a6e697469616c697a696e6760a81b606482015260840161070a565b81516118c0906065906020850190611e35565b5080516107ab906066906020840190611e35565b60006001600160a01b0384163b15611a1557604051630a85bd0160e11b81526001600160a01b0385169063150b7a0290611918903390899088908890600401612385565b6020604051808303816000875af1925050508015611953575060408051601f3d908101601f19168201909252611950918101906123c1565b60015b6119fb573d808015611981576040519150601f19603f3d011682016040523d82523d6000602084013e611986565b606091505b5080516000036119f35760405162461bcd60e51b815260206004820152603260248201527f4552433732313a207472616e7366657220746f206e6f6e20455243373231526560448201527131b2b4bb32b91034b6b83632b6b2b73a32b960711b606482015260840161070a565b805181602001fd5b6001600160e01b031916630a85bd0160e11b14905061101e565b506001949350505050565b6060611a2b82610ed5565b6000611a4260408051602081019091526000815290565b90506000815111611a6257604051806020016040528060008152506108bf565b80611a6c84611cb3565b604051602001611a7d929190612356565b6040516020818303038152906040529392505050565b6001600160a01b038216611ae95760405162461bcd60e51b815260206004820181905260248201527f4552433732313a206d696e7420746f20746865207a65726f2061646472657373604482015260640161070a565b6000818152606760205260409020546001600160a01b031615611b4e5760405162461bcd60e51b815260206004820152601c60248201527f4552433732313a20746f6b656e20616c7265616479206d696e74656400000000604482015260640161070a565b6000818152606760205260409020546001600160a01b031615611bb35760405162461bcd60e51b815260206004820152601c60248201527f4552433732313a20746f6b656e20616c7265616479206d696e74656400000000604482015260640161070a565b6001600160a01b038216600081815260686020908152604080832080546001019055848352606790915280822080546001600160a01b0319168417905551839291907fddf252ad1be2c89b69c2b068fc378daa952ba7f163c4a11628f55a4df523b3ef908290a45050565b6000611c2982610b08565b9050611c3482610b08565b600083815260696020908152604080832080546001600160a01b03199081169091556001600160a01b0385168085526068845282852080546000190190558785526067909352818420805490911690555192935084927fddf252ad1be2c89b69c2b068fc378daa952ba7f163c4a11628f55a4df523b3ef908390a45050565b60606000611cc083611d53565b600101905060008167ffffffffffffffff811115611ce057611ce061203d565b6040519080825280601f01601f191660200182016040528015611d0a576020820181803683370190505b5090508181016020015b600019017f3031323334353637383961626364656600000000000000000000000000000000600a86061a8153600a8504945084611d1457509392505050565b6000807a184f03e93ff9f4daa797ed6e38ed64bf6a1f0100000000000000008310611d9c577a184f03e93ff9f4daa797ed6e38ed64bf6a1f010000000000000000830492506040015b6d04ee2d6d415b85acef81000000008310611dc8576d04ee2d6d415b85acef8100000000830492506020015b662386f26fc100008310611de657662386f26fc10000830492506010015b6305f5e1008310611dfe576305f5e100830492506008015b6127108310611e1257612710830492506004015b60648310611e24576064830492506002015b600a83106105bb5760010192915050565b828054611e41906122cd565b90600052602060002090601f016020900481019282611e635760008555611ea9565b82601f10611e7c57805160ff1916838001178555611ea9565b82800160010185558215611ea9579182015b82811115611ea9578251825591602001919060010190611e8e565b50611eb5929150611eef565b5090565b508054611ec5906122cd565b6000825580601f10611ed5575050565b601f0160209004906000526020600020908101906109c091905b5b80821115611eb55760008155600101611ef0565b6001600160e01b0319811681146109c057600080fd5b600060208284031215611f2c57600080fd5b81356108bf81611f04565b60005b83811015611f52578181015183820152602001611f3a565b83811115610c9d5750506000910152565b60008151808452611f7b816020860160208601611f37565b601f01601f19169290920160200192915050565b6020815260006108bf6020830184611f63565b600060208284031215611fb457600080fd5b5035919050565b80356001600160a01b0381168114611fd257600080fd5b919050565b60008060408385031215611fea57600080fd5b611ff383611fbb565b946020939093013593505050565b60008060006060848603121561201657600080fd5b61201f84611fbb565b925061202d60208501611fbb565b9150604084013590509250925092565b634e487b7160e01b600052604160045260246000fd5b600067ffffffffffffffff8084111561206e5761206e61203d565b604051601f8501601f19908116603f011681019082821181831017156120965761209661203d565b816040528093508581528686860111156120af57600080fd5b858560208301376000602087830101525050509392505050565b600082601f8301126120da57600080fd5b6108bf83833560208501612053565b600080604083850312156120fc57600080fd5b823567ffffffffffffffff81111561211357600080fd5b61211f858286016120c9565b92505060208301356bffffffffffffffffffffffff8116811461214157600080fd5b809150509250929050565b6000806040838503121561215f57600080fd5b50508035926020909101359150565b6000806040838503121561218157600080fd5b823567ffffffffffffffff8082111561219957600080fd5b6121a5868387016120c9565b935060208501359150808211156121bb57600080fd5b506121c8858286016120c9565b9150509250929050565b6000602082840312156121e457600080fd5b6108bf82611fbb565b6000806040838503121561220057600080fd5b61220983611fbb565b91506020830135801515811461214157600080fd5b6000806000806080858703121561223457600080fd5b61223d85611fbb565b935061224b60208601611fbb565b925060408501359150606085013567ffffffffffffffff81111561226e57600080fd5b8501601f8101871361227f57600080fd5b61228e87823560208401612053565b91505092959194509250565b600080604083850312156122ad57600080fd5b6122b683611fbb565b91506122c460208401611fbb565b90509250929050565b600181811c908216806122e157607f821691505b60208210810361230157634e487b7160e01b600052602260045260246000fd5b50919050565b600081600019048311821515161561232f57634e487b7160e01b600052601160045260246000fd5b500290565b60008261235157634e487b7160e01b600052601260045260246000fd5b500490565b60008351612368818460208801611f37565b83519083019061237c818360208801611f37565b01949350505050565b60006001600160a01b038087168352808616602084015250836040830152608060608301526123b76080830184611f63565b9695505050505050565b6000602082840312156123d357600080fd5b81516108bf81611f0456fea264697066735822122091d16117d1d17b301488b3fe100b42add7c913921fbc1c491cc24e87abaa11a664736f6c634300080e0033",
  "immutableReferences": {},
  "source": "//SPDX-License-Identifier: Unlicense\npragma solidity ^0.8.0;\n\n// import \"hardhat/console.sol\";\nimport \"@openzeppelin/contracts-upgradeable/token/ERC721/ERC721Upgradeable.sol\";\nimport \"@openzeppelin/contracts-upgradeable/token/ERC721/extensions/ERC721URIStorageUpgradeable.sol\";\nimport \"@openzeppelin/contracts-upgradeable/token/ERC721/extensions/ERC721BurnableUpgradeable.sol\";\nimport \"@openzeppelin/contracts-upgradeable/proxy/utils/Initializable.sol\";\nimport \"@openzeppelin/contracts-upgradeable/utils/CountersUpgradeable.sol\";\nimport \"./common/ERC2981.sol\";\n\n// import \"@openzeppelin/contracts-upgradeable/access/OwnableUpgradeable.sol\";\n\ncontract NFTMarketplace is\n  Initializable,\n  ERC721URIStorageUpgradeable,\n  ERC721BurnableUpgradeable,\n  ERC2981\n{\n  using CountersUpgradeable for CountersUpgradeable.Counter;\n  //_tokenIds variable has the most recent minted tokenId\n  CountersUpgradeable.Counter private _tokenIds;\n  //Keeps track of the number of items sold on the marketplace\n  CountersUpgradeable.Counter private _itemsSold;\n  //owner is the contract address that created the smart contract\n  address payable owner;\n  //The fee charged by the marketplace to be allowed to list an NFT\n  uint256 public listPrice = 0.01 ether;\n\n  //The structure to store info about a listed token\n  struct ListedToken {\n    uint256 tokenId;\n    address payable owner;\n    address payable seller;\n    uint256 price;\n    bool currentlyListed;\n  }\n\n  //This mapping maps tokenId to token info and is helpful when retrieving details about a tokenId\n  mapping(uint256 => ListedToken) private idToListedToken;\n\n  //the event emitted when a token is successfully listed\n  event TokenListedSuccess(uint256 indexed tokenId, address owner, address seller, uint256 price, bool currentlyListed);\n\n  event OwnershipTransferred(address indexed previousOwner, address indexed newOwner);\n\n  modifier onlyOwner() {\n    require(msg.sender == owner, \"Only owner can call this method\");\n    _;\n  }\n\n  modifier onlyNFTOwner(uint256 _tokenId) {\n    require(msg.sender == ownerOf(_tokenId), \"You don't own this NFT\");\n    _;\n  }\n\n  /// @custom:oz-upgrades-unsafe-allow constructor\n  constructor() {\n    _disableInitializers();\n  }\n\n  function initialize(string memory _name, string memory _symbol) public initializer {\n    __ERC721_init(_name, _symbol);\n    __ERC721URIStorage_init();\n    __ERC721Burnable_init();\n    owner = payable(msg.sender);\n  }\n\n  function transferOwnership(address newOwner) public onlyOwner {\n    emit OwnershipTransferred(owner, newOwner);\n    owner = payable(newOwner);\n  }\n\n  function _burn(uint256 tokenId) internal override(ERC721Upgradeable, ERC721URIStorageUpgradeable) {\n    super._burn(tokenId);\n  }\n\n  function tokenURI(uint256 tokenId) public view override(ERC721Upgradeable, ERC721URIStorageUpgradeable) returns (string memory) {\n    return super.tokenURI(tokenId);\n  }\n\n  function updateListPrice(uint256 _listPrice) public payable onlyOwner {\n    listPrice = _listPrice;\n  }\n\n  function getListPrice() public view returns (uint256) {\n    return listPrice;\n  }\n\n  function getLatestIdToListedToken() public view returns (ListedToken memory) {\n    uint256 currentTokenId = _tokenIds.current();\n    return idToListedToken[currentTokenId];\n  }\n\n  function getListedTokenForId(uint256 tokenId) public view returns (ListedToken memory) {\n    return idToListedToken[tokenId];\n  }\n\n  function getCurrentToken() public view returns (uint256) {\n    return _tokenIds.current();\n  }\n\n  //The first time a token is created\n  function createToken(string memory _tokenURI, uint96 _royaltyFee) public onlyOwner returns (uint256) {\n    //Increment the tokenId counter, which is keeping track of the number of minted NFTs\n    _tokenIds.increment();\n    uint256 newTokenId = _tokenIds.current();\n\n    //Mint the NFT with tokenId newTokenId to the address who called createToken\n    _safeMint(msg.sender, newTokenId);\n    // set royalty of nft\n    _setTokenRoyalty(newTokenId, _msgSender(), _royaltyFee); // 20 for 2% royalty\n\n    //Map the tokenId to the tokenURI (which is an IPFS URL with the NFT metadata)\n    _setTokenURI(newTokenId, _tokenURI);\n\n    return newTokenId;\n  }\n\n  //The first time a token is created, it is listed here\n  // function createToken(\n  //     string memory tokenURI,\n  //     uint256 price,\n  //     bool listOnSale\n  // ) public onlyOwner returns (uint256) {\n  //     //Increment the tokenId counter, which is keeping track of the number of minted NFTs\n  //     _tokenIds.increment();\n  //     uint256 newTokenId = _tokenIds.current();\n\n  //     //Mint the NFT with tokenId newTokenId to the address who called createToken\n  //     _safeMint(msg.sender, newTokenId);\n\n  //     //Map the tokenId to the tokenURI (which is an IPFS URL with the NFT metadata)\n  //     _setTokenURI(newTokenId, tokenURI);\n\n  //     if (listOnSale) {\n  //         //Helper function to update Global variables and emit an event\n  //         createListedToken(newTokenId, price);\n  //     }\n  //     return newTokenId;\n  // }\n\n  // function createListedToken(uint256 tokenId, uint256 price) public onlyNFTOwner(tokenId) payable {\n  //     //Make sure the sender sent enough ETH to pay for listing\n  //     require(msg.value == listPrice, \"Hopefully sending the correct price\");\n  //     //Just sanity check\n  //     require(price > 0, \"Make sure the price isn't negative\");\n\n  //     //Update the mapping of tokenId's to Token details, useful for retrieval functions\n  //     idToListedToken[tokenId] = ListedToken(\n  //         tokenId,\n  //         payable(address(this)),\n  //         payable(msg.sender),\n  //         price,\n  //         true\n  //     );\n\n  //     _transfer(msg.sender, address(this), tokenId);\n  //     //Emit the event for successful transfer. The frontend parses this message and updates the end user\n  //     emit TokenListedSuccess(\n  //         tokenId,\n  //         address(this),\n  //         msg.sender,\n  //         price,\n  //         true\n  //     );\n  // }\n\n  // function getAllNFTs() public view returns (ListedToken[] memory) {\n  //     uint256 nftCount = _tokenIds.current();\n  //     ListedToken[] memory tokens = new ListedToken[](nftCount);\n  //     uint256 currentIndex = 0;\n  //     uint256 currentId;\n  //     //at the moment currentlyListed is true for all, if it becomes false in the future we will\n  //     //filter out currentlyListed == false over here\n  //     for (uint256 i = 0; i < nftCount; i++) {\n  //         currentId = i + 1;\n  //         ListedToken storage currentItem = idToListedToken[currentId];\n  //         tokens[currentIndex] = currentItem;\n  //         currentIndex += 1;\n  //     }\n  //     //the array 'tokens' has the list of all NFTs in the marketplace\n  //     return tokens;\n  // }\n\n  //Returns all the NFTs that the current user is owner or seller in\n  // function getMyNFTs() public view returns (ListedToken[] memory) {\n  //     uint256 totalItemCount = _tokenIds.current();\n  //     uint256 itemCount = 0;\n  //     uint256 currentIndex = 0;\n  //     uint256 currentId;\n  //     //Important to get a count of all the NFTs that belong to the user before we can make an array for them\n  //     for (uint256 i = 0; i < totalItemCount; i++) {\n  //         if (\n  //             idToListedToken[i + 1].owner == msg.sender ||\n  //             idToListedToken[i + 1].seller == msg.sender\n  //         ) {\n  //             itemCount += 1;\n  //         }\n  //     }\n\n  //     //Once you have the count of relevant NFTs, create an array then store all the NFTs in it\n  //     ListedToken[] memory items = new ListedToken[](itemCount);\n  //     for (uint256 i = 0; i < totalItemCount; i++) {\n  //         if (\n  //             idToListedToken[i + 1].owner == msg.sender ||\n  //             idToListedToken[i + 1].seller == msg.sender\n  //         ) {\n  //             currentId = i + 1;\n  //             ListedToken storage currentItem = idToListedToken[currentId];\n  //             items[currentIndex] = currentItem;\n  //             currentIndex += 1;\n  //         }\n  //     }\n  //     return items;\n  // }\n\n  // function executeSale(uint256 tokenId) public payable {\n  //     uint256 price = idToListedToken[tokenId].price;\n  //     address seller = idToListedToken[tokenId].seller;\n  //     require(\n  //         msg.value == price,\n  //         \"Please submit the asking price in order to complete the purchase\"\n  //     );\n\n  //     //update the details of the token\n  //     idToListedToken[tokenId].currentlyListed = true;\n  //     idToListedToken[tokenId].seller = payable(msg.sender);\n  //     _itemsSold.increment();\n\n  //     //Actually transfer the token to the new owner\n  //     _transfer(address(this), msg.sender, tokenId);\n  //     //approve the marketplace to sell NFTs on your behalf\n  //     approve(address(this), tokenId);\n\n  //     //Transfer the listing fee to the marketplace creator\n  //     payable(owner).transfer(listPrice);\n  //     //Transfer the proceeds from the sale to the seller of the NFT\n  //     payable(seller).transfer(msg.value);\n  // }\n\n  /**\n   * @dev See {IERC165-supportsInterface}.\n   */\n  function supportsInterface(bytes4 interfaceId) public view virtual override(ERC721Upgradeable, ERC721URIStorageUpgradeable, ERC2981) returns (bool) {\n    return super.supportsInterface(interfaceId);\n  }\n}\n",
  "sourcePath": "/Users/mujtabasiddiqui/Desktop/Mujtaba/lootmogul/final-code/marketplace/src/contracts/OwnCollection721.sol",
  "compiler": {
    "name": "solc",
    "version": "0.8.14+commit.80d49f37.Emscripten.clang"
  },
  "schemaVersion": "3.4.16",
  "updatedAt": "2025-04-05T17:16:36.179Z",
  "devdoc": {
    "kind": "dev",
    "methods": {
      "approve(address,uint256)": {
        "details": "See {IERC721-approve}."
      },
      "balanceOf(address)": {
        "details": "See {IERC721-balanceOf}."
      },
      "burn(uint256)": {
        "details": "Burns `tokenId`. See {ERC721-_burn}. Requirements: - The caller must own `tokenId` or be an approved operator."
      },
      "constructor": {
        "custom:oz-upgrades-unsafe-allow": "constructor"
      },
      "getApproved(uint256)": {
        "details": "See {IERC721-getApproved}."
      },
      "isApprovedForAll(address,address)": {
        "details": "See {IERC721-isApprovedForAll}."
      },
      "name()": {
        "details": "See {IERC721Metadata-name}."
      },
      "ownerOf(uint256)": {
        "details": "See {IERC721-ownerOf}."
      },
      "royaltyInfo(uint256,uint256)": {
        "details": "Returns how much royalty is owed and to whom, based on a sale price that may be denominated in any unit of exchange. The royalty amount is denominated and should be paid in that same unit of exchange."
      },
      "safeTransferFrom(address,address,uint256)": {
        "details": "See {IERC721-safeTransferFrom}."
      },
      "safeTransferFrom(address,address,uint256,bytes)": {
        "details": "See {IERC721-safeTransferFrom}."
      },
      "setApprovalForAll(address,bool)": {
        "details": "See {IERC721-setApprovalForAll}."
      },
      "supportsInterface(bytes4)": {
        "details": "See {IERC165-supportsInterface}."
      },
      "symbol()": {
        "details": "See {IERC721Metadata-symbol}."
      },
      "transferFrom(address,address,uint256)": {
        "details": "See {IERC721-transferFrom}."
      }
    },
    "version": 1
  },
  "userdoc": {
    "kind": "user",
    "methods": {},
    "version": 1
  }
}