{
  "contractName": "StakingNFT",
  "abi": [
    {
      "inputs": [],
      "stateMutability": "nonpayable",
      "type": "constructor"
    },
    {
      "anonymous": false,
      "inputs": [
        {
          "indexed": true,
          "internalType": "address",
          "name": "account",
          "type": "address"
        }
      ],
      "name": "AddressAdded",
      "type": "event"
    },
    {
      "anonymous": false,
      "inputs": [
        {
          "indexed": true,
          "internalType": "address",
          "name": "account",
          "type": "address"
        }
      ],
      "name": "AddressRemoved",
      "type": "event"
    },
    {
      "anonymous": false,
      "inputs": [
        {
          "indexed": false,
          "internalType": "address",
          "name": "previousAdmin",
          "type": "address"
        },
        {
          "indexed": false,
          "internalType": "address",
          "name": "newAdmin",
          "type": "address"
        }
      ],
      "name": "AdminChanged",
      "type": "event"
    },
    {
      "anonymous": false,
      "inputs": [
        {
          "indexed": true,
          "internalType": "address",
          "name": "beacon",
          "type": "address"
        }
      ],
      "name": "BeaconUpgraded",
      "type": "event"
    },
    {
      "anonymous": false,
      "inputs": [
        {
          "indexed": false,
          "internalType": "uint8",
          "name": "version",
          "type": "uint8"
        }
      ],
      "name": "Initialized",
      "type": "event"
    },
    {
      "anonymous": false,
      "inputs": [
        {
          "indexed": false,
          "internalType": "address",
          "name": "account",
          "type": "address"
        }
      ],
      "name": "Paused",
      "type": "event"
    },
    {
      "anonymous": false,
      "inputs": [
        {
          "indexed": true,
          "internalType": "address",
          "name": "user",
          "type": "address"
        },
        {
          "indexed": false,
          "internalType": "uint256",
          "name": "amount",
          "type": "uint256"
        }
      ],
      "name": "RewardsClaimed",
      "type": "event"
    },
    {
      "anonymous": false,
      "inputs": [
        {
          "indexed": true,
          "internalType": "bytes32",
          "name": "role",
          "type": "bytes32"
        },
        {
          "indexed": true,
          "internalType": "bytes32",
          "name": "previousAdminRole",
          "type": "bytes32"
        },
        {
          "indexed": true,
          "internalType": "bytes32",
          "name": "newAdminRole",
          "type": "bytes32"
        }
      ],
      "name": "RoleAdminChanged",
      "type": "event"
    },
    {
      "anonymous": false,
      "inputs": [
        {
          "indexed": true,
          "internalType": "bytes32",
          "name": "role",
          "type": "bytes32"
        },
        {
          "indexed": true,
          "internalType": "address",
          "name": "account",
          "type": "address"
        },
        {
          "indexed": true,
          "internalType": "address",
          "name": "sender",
          "type": "address"
        }
      ],
      "name": "RoleGranted",
      "type": "event"
    },
    {
      "anonymous": false,
      "inputs": [
        {
          "indexed": true,
          "internalType": "bytes32",
          "name": "role",
          "type": "bytes32"
        },
        {
          "indexed": true,
          "internalType": "address",
          "name": "account",
          "type": "address"
        },
        {
          "indexed": true,
          "internalType": "address",
          "name": "sender",
          "type": "address"
        }
      ],
      "name": "RoleRevoked",
      "type": "event"
    },
    {
      "anonymous": false,
      "inputs": [
        {
          "indexed": true,
          "internalType": "address",
          "name": "user",
          "type": "address"
        },
        {
          "indexed": true,
          "internalType": "address",
          "name": "tokenContract",
          "type": "address"
        },
        {
          "indexed": true,
          "internalType": "uint256",
          "name": "tokenId",
          "type": "uint256"
        },
        {
          "indexed": false,
          "internalType": "uint256",
          "name": "amount",
          "type": "uint256"
        },
        {
          "indexed": false,
          "internalType": "uint256",
          "name": "index",
          "type": "uint256"
        },
        {
          "indexed": false,
          "internalType": "uint256",
          "name": "timestamp",
          "type": "uint256"
        }
      ],
      "name": "TokenRestaked",
      "type": "event"
    },
    {
      "anonymous": false,
      "inputs": [
        {
          "indexed": true,
          "internalType": "address",
          "name": "user",
          "type": "address"
        },
        {
          "indexed": true,
          "internalType": "address",
          "name": "tokenContract",
          "type": "address"
        },
        {
          "indexed": true,
          "internalType": "uint256",
          "name": "tokenId",
          "type": "uint256"
        },
        {
          "indexed": false,
          "internalType": "uint256",
          "name": "amount",
          "type": "uint256"
        },
        {
          "indexed": false,
          "internalType": "uint256",
          "name": "index",
          "type": "uint256"
        }
      ],
      "name": "TokensStaked",
      "type": "event"
    },
    {
      "anonymous": false,
      "inputs": [
        {
          "indexed": true,
          "internalType": "address",
          "name": "user",
          "type": "address"
        },
        {
          "indexed": true,
          "internalType": "address",
          "name": "tokenContract",
          "type": "address"
        },
        {
          "indexed": true,
          "internalType": "uint256",
          "name": "tokenId",
          "type": "uint256"
        },
        {
          "indexed": false,
          "internalType": "uint256",
          "name": "amount",
          "type": "uint256"
        },
        {
          "indexed": false,
          "internalType": "uint256",
          "name": "index",
          "type": "uint256"
        }
      ],
      "name": "TokensUnstaked",
      "type": "event"
    },
    {
      "anonymous": false,
      "inputs": [
        {
          "indexed": false,
          "internalType": "address",
          "name": "account",
          "type": "address"
        }
      ],
      "name": "Unpaused",
      "type": "event"
    },
    {
      "anonymous": false,
      "inputs": [
        {
          "indexed": true,
          "internalType": "address",
          "name": "implementation",
          "type": "address"
        }
      ],
      "name": "Upgraded",
      "type": "event"
    },
    {
      "inputs": [],
      "name": "DEFAULT_ADMIN_ROLE",
      "outputs": [
        {
          "internalType": "bytes32",
          "name": "",
          "type": "bytes32"
        }
      ],
      "stateMutability": "view",
      "type": "function"
    },
    {
      "inputs": [
        {
          "internalType": "bytes32",
          "name": "role",
          "type": "bytes32"
        }
      ],
      "name": "getRoleAdmin",
      "outputs": [
        {
          "internalType": "bytes32",
          "name": "",
          "type": "bytes32"
        }
      ],
      "stateMutability": "view",
      "type": "function"
    },
    {
      "inputs": [
        {
          "internalType": "bytes32",
          "name": "role",
          "type": "bytes32"
        },
        {
          "internalType": "address",
          "name": "account",
          "type": "address"
        }
      ],
      "name": "grantRole",
      "outputs": [],
      "stateMutability": "nonpayable",
      "type": "function"
    },
    {
      "inputs": [
        {
          "internalType": "bytes32",
          "name": "role",
          "type": "bytes32"
        },
        {
          "internalType": "address",
          "name": "account",
          "type": "address"
        }
      ],
      "name": "hasRole",
      "outputs": [
        {
          "internalType": "bool",
          "name": "",
          "type": "bool"
        }
      ],
      "stateMutability": "view",
      "type": "function"
    },
    {
      "inputs": [
        {
          "internalType": "address",
          "name": "",
          "type": "address"
        },
        {
          "internalType": "address",
          "name": "",
          "type": "address"
        },
        {
          "internalType": "uint256[]",
          "name": "",
          "type": "uint256[]"
        },
        {
          "internalType": "uint256[]",
          "name": "",
          "type": "uint256[]"
        },
        {
          "internalType": "bytes",
          "name": "",
          "type": "bytes"
        }
      ],
      "name": "onERC1155BatchReceived",
      "outputs": [
        {
          "internalType": "bytes4",
          "name": "",
          "type": "bytes4"
        }
      ],
      "stateMutability": "nonpayable",
      "type": "function"
    },
    {
      "inputs": [
        {
          "internalType": "address",
          "name": "",
          "type": "address"
        },
        {
          "internalType": "address",
          "name": "",
          "type": "address"
        },
        {
          "internalType": "uint256",
          "name": "",
          "type": "uint256"
        },
        {
          "internalType": "uint256",
          "name": "",
          "type": "uint256"
        },
        {
          "internalType": "bytes",
          "name": "",
          "type": "bytes"
        }
      ],
      "name": "onERC1155Received",
      "outputs": [
        {
          "internalType": "bytes4",
          "name": "",
          "type": "bytes4"
        }
      ],
      "stateMutability": "nonpayable",
      "type": "function"
    },
    {
      "inputs": [],
      "name": "paused",
      "outputs": [
        {
          "internalType": "bool",
          "name": "",
          "type": "bool"
        }
      ],
      "stateMutability": "view",
      "type": "function"
    },
    {
      "inputs": [],
      "name": "payReward",
      "outputs": [
        {
          "internalType": "bool",
          "name": "",
          "type": "bool"
        }
      ],
      "stateMutability": "view",
      "type": "function"
    },
    {
      "inputs": [],
      "name": "proxiableUUID",
      "outputs": [
        {
          "internalType": "bytes32",
          "name": "",
          "type": "bytes32"
        }
      ],
      "stateMutability": "view",
      "type": "function"
    },
    {
      "inputs": [
        {
          "internalType": "bytes32",
          "name": "role",
          "type": "bytes32"
        },
        {
          "internalType": "address",
          "name": "account",
          "type": "address"
        }
      ],
      "name": "renounceRole",
      "outputs": [],
      "stateMutability": "nonpayable",
      "type": "function"
    },
    {
      "inputs": [
        {
          "internalType": "bytes32",
          "name": "role",
          "type": "bytes32"
        },
        {
          "internalType": "address",
          "name": "account",
          "type": "address"
        }
      ],
      "name": "revokeRole",
      "outputs": [],
      "stateMutability": "nonpayable",
      "type": "function"
    },
    {
      "inputs": [],
      "name": "rewardRate",
      "outputs": [
        {
          "internalType": "uint256",
          "name": "",
          "type": "uint256"
        }
      ],
      "stateMutability": "view",
      "type": "function"
    },
    {
      "inputs": [],
      "name": "rewardRateDuration",
      "outputs": [
        {
          "internalType": "uint256",
          "name": "",
          "type": "uint256"
        }
      ],
      "stateMutability": "view",
      "type": "function"
    },
    {
      "inputs": [],
      "name": "rewardToken",
      "outputs": [
        {
          "internalType": "contract IERC20",
          "name": "",
          "type": "address"
        }
      ],
      "stateMutability": "view",
      "type": "function"
    },
    {
      "inputs": [
        {
          "internalType": "address",
          "name": "",
          "type": "address"
        },
        {
          "internalType": "address",
          "name": "",
          "type": "address"
        },
        {
          "internalType": "uint256",
          "name": "",
          "type": "uint256"
        },
        {
          "internalType": "uint256",
          "name": "",
          "type": "uint256"
        }
      ],
      "name": "stakedBalances",
      "outputs": [
        {
          "internalType": "uint256",
          "name": "stakedAmount",
          "type": "uint256"
        },
        {
          "internalType": "uint256",
          "name": "oldBalance",
          "type": "uint256"
        },
        {
          "internalType": "uint256",
          "name": "timeOfLastUpdate",
          "type": "uint256"
        }
      ],
      "stateMutability": "view",
      "type": "function"
    },
    {
      "inputs": [],
      "name": "unstakeFee",
      "outputs": [
        {
          "internalType": "uint256",
          "name": "",
          "type": "uint256"
        }
      ],
      "stateMutability": "view",
      "type": "function"
    },
    {
      "inputs": [
        {
          "internalType": "address",
          "name": "newImplementation",
          "type": "address"
        }
      ],
      "name": "upgradeTo",
      "outputs": [],
      "stateMutability": "nonpayable",
      "type": "function"
    },
    {
      "inputs": [
        {
          "internalType": "address",
          "name": "newImplementation",
          "type": "address"
        },
        {
          "internalType": "bytes",
          "name": "data",
          "type": "bytes"
        }
      ],
      "name": "upgradeToAndCall",
      "outputs": [],
      "stateMutability": "payable",
      "type": "function"
    },
    {
      "inputs": [
        {
          "internalType": "address",
          "name": "",
          "type": "address"
        }
      ],
      "name": "whitelistContracts",
      "outputs": [
        {
          "internalType": "bool",
          "name": "",
          "type": "bool"
        }
      ],
      "stateMutability": "view",
      "type": "function"
    },
    {
      "inputs": [
        {
          "internalType": "address",
          "name": "_rewardToken",
          "type": "address"
        },
        {
          "internalType": "uint256",
          "name": "_rewardRate",
          "type": "uint256"
        },
        {
          "internalType": "uint256",
          "name": "_rewardRateDuration",
          "type": "uint256"
        }
      ],
      "name": "initialize",
      "outputs": [],
      "stateMutability": "nonpayable",
      "type": "function"
    },
    {
      "inputs": [
        {
          "internalType": "uint256",
          "name": "_rewardRate",
          "type": "uint256"
        }
      ],
      "name": "setRewardRate",
      "outputs": [],
      "stateMutability": "nonpayable",
      "type": "function"
    },
    {
      "inputs": [
        {
          "internalType": "uint256",
          "name": "_rewardRateDuration",
          "type": "uint256"
        }
      ],
      "name": "setRewardRateDuration",
      "outputs": [],
      "stateMutability": "nonpayable",
      "type": "function"
    },
    {
      "inputs": [
        {
          "internalType": "bool",
          "name": "_payReward",
          "type": "bool"
        }
      ],
      "name": "setPayReward",
      "outputs": [],
      "stateMutability": "nonpayable",
      "type": "function"
    },
    {
      "inputs": [
        {
          "internalType": "uint256",
          "name": "_unstakeFee",
          "type": "uint256"
        }
      ],
      "name": "setUnstakeFee",
      "outputs": [],
      "stateMutability": "nonpayable",
      "type": "function"
    },
    {
      "inputs": [
        {
          "internalType": "address",
          "name": "_to",
          "type": "address"
        },
        {
          "internalType": "uint256",
          "name": "_amount",
          "type": "uint256"
        }
      ],
      "name": "transferToken",
      "outputs": [],
      "stateMutability": "nonpayable",
      "type": "function"
    },
    {
      "inputs": [],
      "name": "pause",
      "outputs": [],
      "stateMutability": "nonpayable",
      "type": "function"
    },
    {
      "inputs": [],
      "name": "unpause",
      "outputs": [],
      "stateMutability": "nonpayable",
      "type": "function"
    },
    {
      "inputs": [
        {
          "internalType": "address",
          "name": "_tokenContract",
          "type": "address"
        },
        {
          "internalType": "uint256",
          "name": "_tokenId",
          "type": "uint256"
        },
        {
          "internalType": "uint256",
          "name": "_stakedAmount",
          "type": "uint256"
        },
        {
          "internalType": "uint8",
          "name": "_tokenType",
          "type": "uint8"
        }
      ],
      "name": "stakeToken",
      "outputs": [],
      "stateMutability": "nonpayable",
      "type": "function"
    },
    {
      "inputs": [
        {
          "internalType": "address[]",
          "name": "_tokenContract",
          "type": "address[]"
        },
        {
          "internalType": "uint256[]",
          "name": "_tokenType",
          "type": "uint256[]"
        },
        {
          "internalType": "uint256[]",
          "name": "_tokenId",
          "type": "uint256[]"
        },
        {
          "internalType": "uint256[]",
          "name": "_stakedAmount",
          "type": "uint256[]"
        }
      ],
      "name": "stakeTokenBatch",
      "outputs": [],
      "stateMutability": "nonpayable",
      "type": "function"
    },
    {
      "inputs": [
        {
          "internalType": "address",
          "name": "_tokenContract",
          "type": "address"
        },
        {
          "internalType": "uint256",
          "name": "_tokenId",
          "type": "uint256"
        },
        {
          "internalType": "uint256",
          "name": "_unStakedAmount",
          "type": "uint256"
        },
        {
          "internalType": "uint256",
          "name": "_index",
          "type": "uint256"
        },
        {
          "internalType": "uint8",
          "name": "_tokenType",
          "type": "uint8"
        }
      ],
      "name": "unStakeToken",
      "outputs": [],
      "stateMutability": "nonpayable",
      "type": "function"
    },
    {
      "inputs": [
        {
          "internalType": "address[]",
          "name": "_tokenContract",
          "type": "address[]"
        },
        {
          "internalType": "uint256[]",
          "name": "_tokenType",
          "type": "uint256[]"
        },
        {
          "internalType": "uint256[]",
          "name": "_tokenId",
          "type": "uint256[]"
        },
        {
          "internalType": "uint256[]",
          "name": "_unStakedAmount",
          "type": "uint256[]"
        },
        {
          "internalType": "uint256[]",
          "name": "_index",
          "type": "uint256[]"
        }
      ],
      "name": "unStakeTokenBatch",
      "outputs": [],
      "stateMutability": "nonpayable",
      "type": "function"
    },
    {
      "inputs": [
        {
          "internalType": "address",
          "name": "_tokenContract",
          "type": "address"
        },
        {
          "internalType": "uint256",
          "name": "_tokenId",
          "type": "uint256"
        },
        {
          "internalType": "uint8",
          "name": "_tokenType",
          "type": "uint8"
        },
        {
          "internalType": "uint256",
          "name": "_index",
          "type": "uint256"
        }
      ],
      "name": "reStakeToken",
      "outputs": [],
      "stateMutability": "nonpayable",
      "type": "function"
    },
    {
      "inputs": [
        {
          "internalType": "address",
          "name": "_user",
          "type": "address"
        },
        {
          "internalType": "address",
          "name": "_tokenContract",
          "type": "address"
        },
        {
          "internalType": "uint256",
          "name": "_tokenId",
          "type": "uint256"
        },
        {
          "internalType": "uint256",
          "name": "_index",
          "type": "uint256"
        }
      ],
      "name": "calculateRewards",
      "outputs": [
        {
          "internalType": "uint256",
          "name": "",
          "type": "uint256"
        }
      ],
      "stateMutability": "view",
      "type": "function"
    },
    {
      "inputs": [
        {
          "internalType": "address[]",
          "name": "_whitelistContracts",
          "type": "address[]"
        }
      ],
      "name": "addToWhitelist",
      "outputs": [],
      "stateMutability": "nonpayable",
      "type": "function"
    },
    {
      "inputs": [
        {
          "internalType": "address[]",
          "name": "_whitelistContracts",
          "type": "address[]"
        }
      ],
      "name": "removeFromWhitelist",
      "outputs": [],
      "stateMutability": "nonpayable",
      "type": "function"
    },
    {
      "inputs": [
        {
          "internalType": "bytes4",
          "name": "interfaceId",
          "type": "bytes4"
        }
      ],
      "name": "supportsInterface",
      "outputs": [
        {
          "internalType": "bool",
          "name": "",
          "type": "bool"
        }
      ],
      "stateMutability": "view",
      "type": "function"
    }
  ],
  "bytecode": "0x60a06040523073ffffffffffffffffffffffffffffffffffffffff1660809073ffffffffffffffffffffffffffffffffffffffff168152503480156200004457600080fd5b50600161012d819055506200005e6200006460201b60201c565b6200020f565b600060019054906101000a900460ff1615620000b7576040517f08c379a0000000000000000000000000000000000000000000000000000000008152600401620000ae90620001b2565b60405180910390fd5b60ff801660008054906101000a900460ff1660ff161015620001295760ff6000806101000a81548160ff021916908360ff1602179055507f7f26b83ff96e1f2b6a682f133852f6798a09c465da95921460cefb384740249860ff604051620001209190620001f2565b60405180910390a15b565b600082825260208201905092915050565b7f496e697469616c697a61626c653a20636f6e747261637420697320696e69746960008201527f616c697a696e6700000000000000000000000000000000000000000000000000602082015250565b60006200019a6027836200012b565b9150620001a7826200013c565b604082019050919050565b60006020820190508181036000830152620001cd816200018b565b9050919050565b600060ff82169050919050565b620001ec81620001d4565b82525050565b6000602082019050620002096000830184620001e1565b92915050565b6080516171f46200024760003960008181610fe10152818161106f015281816119de01528181611a6c0152611b1c01526171f46000f3fe60806040526004361061020e5760003560e01c80637f64978311610118578063b44bfd98116100a0578063db4172401161006f578063db4172401461075f578063e51b9bc81461079c578063efea48bc146107c5578063f23a6e61146107f0578063f7c618c11461082d5761020e565b8063b44bfd98146106a7578063b8b95688146106d0578063bc197c81146106f9578063d547741f146107365761020e565b806399a93df2116100e757806399a93df2146105ae5780639e447fc6146105ed578063a00ac67814610616578063a217fddf1461063f578063af5a6c7e1461066a5761020e565b80637f649783146105065780638456cb591461052f5780638ea97d261461054657806391d14854146105715761020e565b80633f4ba83a1161019b5780635c975abb1161016a5780635c975abb146104335780636509698d1461045e5780637842a3a4146104875780637a1ac61e146104b25780637b0a47ee146104db5761020e565b80633f4ba83a146103ac5780634f1ef286146103c357806352d1902d146103df578063548db1741461040a5761020e565b8063248a9ca3116101e2578063248a9ca3146102cb5780632f2ff15d1461030857806336568abe146103315780633659cfe61461035a5780633d106f8e146103835761020e565b806218a1161461021357806301ffc9a71461023c5780631072cbea14610279578063197ee756146102a2575b600080fd5b34801561021f57600080fd5b5061023a60048036038101906102359190614cca565b610858565b005b34801561024857600080fd5b50610263600480360381019061025e9190614d4f565b6108af565b6040516102709190614d97565b60405180910390f35b34801561028557600080fd5b506102a0600480360381019061029b9190614e10565b6108c1565b005b3480156102ae57600080fd5b506102c960048036038101906102c49190614e89565b6109f1565b005b3480156102d757600080fd5b506102f260048036038101906102ed9190614f26565b610f1b565b6040516102ff9190614f62565b60405180910390f35b34801561031457600080fd5b5061032f600480360381019061032a9190614f7d565b610f3b565b005b34801561033d57600080fd5b5061035860048036038101906103539190614f7d565b610f5c565b005b34801561036657600080fd5b50610381600480360381019061037c9190614fbd565b610fdf565b005b34801561038f57600080fd5b506103aa60048036038101906103a591906150a5565b611167565b005b3480156103b857600080fd5b506103c1611986565b005b6103dd60048036038101906103d891906152cf565b6119dc565b005b3480156103eb57600080fd5b506103f4611b18565b6040516104019190614f62565b60405180910390f35b34801561041657600080fd5b50610431600480360381019061042c919061532b565b611bd1565b005b34801561043f57600080fd5b50610448611d99565b6040516104559190614d97565b60405180910390f35b34801561046a57600080fd5b5061048560048036038101906104809190614cca565b611db0565b005b34801561049357600080fd5b5061049c611e07565b6040516104a99190614d97565b60405180910390f35b3480156104be57600080fd5b506104d960048036038101906104d49190615378565b611e1b565b005b3480156104e757600080fd5b506104f0611fc3565b6040516104fd91906153da565b60405180910390f35b34801561051257600080fd5b5061052d6004803603810190610528919061532b565b611fca565b005b34801561053b57600080fd5b506105446121c7565b005b34801561055257600080fd5b5061055b61221d565b60405161056891906153da565b60405180910390f35b34801561057d57600080fd5b5061059860048036038101906105939190614f7d565b612224565b6040516105a59190614d97565b60405180910390f35b3480156105ba57600080fd5b506105d560048036038101906105d091906153f5565b61228f565b6040516105e49392919061545c565b60405180910390f35b3480156105f957600080fd5b50610614600480360381019061060f9190614cca565b6122f1565b005b34801561062257600080fd5b5061063d60048036038101906106389190615493565b612348565b005b34801561064b57600080fd5b50610654612885565b6040516106619190614f62565b60405180910390f35b34801561067657600080fd5b50610691600480360381019061068c9190614fbd565b61288c565b60405161069e9190614d97565b60405180910390f35b3480156106b357600080fd5b506106ce60048036038101906106c991906154fa565b6128ad565b005b3480156106dc57600080fd5b506106f760048036038101906106f29190615575565b612e48565b005b34801561070557600080fd5b50610720600480360381019061071b9190615755565b613709565b60405161072d9190615833565b60405180910390f35b34801561074257600080fd5b5061075d60048036038101906107589190614f7d565b61371e565b005b34801561076b57600080fd5b50610786600480360381019061078191906153f5565b61373f565b60405161079391906153da565b60405180910390f35b3480156107a857600080fd5b506107c360048036038101906107be919061587a565b613aaf565b005b3480156107d157600080fd5b506107da613b19565b6040516107e791906153da565b60405180910390f35b3480156107fc57600080fd5b50610817600480360381019061081291906158a7565b613b20565b6040516108249190615833565b60405180910390f35b34801561083957600080fd5b50610842613b35565b60405161084f919061599d565b60405180910390f35b6108656000801b33612224565b6108a4576040517f08c379a000000000000000000000000000000000000000000000000000000000815260040161089b90615a3b565b60405180910390fd5b806101348190555050565b60006108ba82613b5c565b9050919050565b6108ce6000801b33612224565b61090d576040517f08c379a000000000000000000000000000000000000000000000000000000000815260040161090490615a3b565b60405180910390fd5b61012f60009054906101000a900473ffffffffffffffffffffffffffffffffffffffff1673ffffffffffffffffffffffffffffffffffffffff1663a9059cbb83836040518363ffffffff1660e01b815260040161096b929190615a6a565b6020604051808303816000875af115801561098a573d6000803e3d6000fd5b505050506040513d601f19601f820116820180604052508101906109ae9190615aa8565b6109ed576040517f08c379a00000000000000000000000000000000000000000000000000000000081526004016109e490615b21565b60405180910390fd5b5050565b8361013360008273ffffffffffffffffffffffffffffffffffffffff1673ffffffffffffffffffffffffffffffffffffffff16815260200190815260200160002060009054906101000a900460ff16610a7f576040517f08c379a0000000000000000000000000000000000000000000000000000000008152600401610a7690615bb3565b60405180910390fd5b610a87613bd6565b60018260ff1603610bed573373ffffffffffffffffffffffffffffffffffffffff168573ffffffffffffffffffffffffffffffffffffffff16636352211e866040518263ffffffff1660e01b8152600401610ae291906153da565b602060405180830381865afa158015610aff573d6000803e3d6000fd5b505050506040513d601f19601f82011682018060405250810190610b239190615be8565b73ffffffffffffffffffffffffffffffffffffffff1614610b79576040517f08c379a0000000000000000000000000000000000000000000000000000000008152600401610b7090615c87565b60405180910390fd5b8473ffffffffffffffffffffffffffffffffffffffff166323b872dd3330876040518463ffffffff1660e01b8152600401610bb693929190615ca7565b600060405180830381600087803b158015610bd057600080fd5b505af1158015610be4573d6000803e3d6000fd5b50505050610d1c565b828573ffffffffffffffffffffffffffffffffffffffff1662fdd58e33876040518363ffffffff1660e01b8152600401610c28929190615a6a565b602060405180830381865afa158015610c45573d6000803e3d6000fd5b505050506040513d601f19601f82011682018060405250810190610c699190615cf3565b1015610caa576040517f08c379a0000000000000000000000000000000000000000000000000000000008152600401610ca190615d92565b60405180910390fd5b8473ffffffffffffffffffffffffffffffffffffffff1663f242432a333087876040518563ffffffff1660e01b8152600401610ce99493929190615e0f565b600060405180830381600087803b158015610d0357600080fd5b505af1158015610d17573d6000803e3d6000fd5b505050505b6000604051806060016040528085815260200160008152602001428152509050600061012e60003373ffffffffffffffffffffffffffffffffffffffff1673ffffffffffffffffffffffffffffffffffffffff16815260200190815260200160002060008873ffffffffffffffffffffffffffffffffffffffff1673ffffffffffffffffffffffffffffffffffffffff168152602001908152602001600020600087815260200190815260200160002080549050905061012e60003373ffffffffffffffffffffffffffffffffffffffff1673ffffffffffffffffffffffffffffffffffffffff16815260200190815260200160002060008873ffffffffffffffffffffffffffffffffffffffff1673ffffffffffffffffffffffffffffffffffffffff16815260200190815260200160002060008781526020019081526020016000208290806001815401808255809150506001900390600052602060002090600302016000909190919091506000820151816000015560208201518160010155604082015181600201555050858773ffffffffffffffffffffffffffffffffffffffff163373ffffffffffffffffffffffffffffffffffffffff167fc1422af7e43d777469d796ab303d8d25d600d97d1ba738791ab5ac48cf123f938885604051610f0a929190615e67565b60405180910390a450505050505050565b600060976000838152602001908152602001600020600101549050919050565b610f4482610f1b565b610f4d81613c20565b610f578383613c34565b505050565b610f64613d15565b73ffffffffffffffffffffffffffffffffffffffff168173ffffffffffffffffffffffffffffffffffffffff1614610fd1576040517f08c379a0000000000000000000000000000000000000000000000000000000008152600401610fc890615f02565b60405180910390fd5b610fdb8282613d1d565b5050565b7f000000000000000000000000000000000000000000000000000000000000000073ffffffffffffffffffffffffffffffffffffffff163073ffffffffffffffffffffffffffffffffffffffff160361106d576040517f08c379a000000000000000000000000000000000000000000000000000000000815260040161106490615f94565b60405180910390fd5b7f000000000000000000000000000000000000000000000000000000000000000073ffffffffffffffffffffffffffffffffffffffff166110ac613dff565b73ffffffffffffffffffffffffffffffffffffffff1614611102576040517f08c379a00000000000000000000000000000000000000000000000000000000081526004016110f990616026565b60405180910390fd5b61110b81613e56565b61116481600067ffffffffffffffff81111561112a576111296151a4565b5b6040519080825280601f01601f19166020018201604052801561115c5781602001600182028036833780820191505090505b506000613e67565b50565b61116f613bd6565b858590508888905014801561118957508383905088889050145b801561119a57508181905088889050145b6111d9576040517f08c379a00000000000000000000000000000000000000000000000000000000081526004016111d0906160b8565b60405180910390fd5b600088889050905060005b8181101561197a5761013360008b8b84818110611204576112036160d8565b5b90506020020160208101906112199190614fbd565b73ffffffffffffffffffffffffffffffffffffffff1673ffffffffffffffffffffffffffffffffffffffff16815260200190815260200160002060009054906101000a900460ff166112a0576040517f08c379a000000000000000000000000000000000000000000000000000000000815260040161129790615bb3565b60405180910390fd5b60008888838181106112b5576112b46160d8565b5b90506020020135036114a6578383828181106112d4576112d36160d8565b5b905060200201358a8a838181106112ee576112ed6160d8565b5b90506020020160208101906113039190614fbd565b73ffffffffffffffffffffffffffffffffffffffff1662fdd58e33898986818110611331576113306160d8565b5b905060200201356040518363ffffffff1660e01b8152600401611355929190615a6a565b602060405180830381865afa158015611372573d6000803e3d6000fd5b505050506040513d601f19601f820116820180604052508101906113969190615cf3565b10156113d7576040517f08c379a00000000000000000000000000000000000000000000000000000000081526004016113ce90615d92565b60405180910390fd5b8989828181106113ea576113e96160d8565b5b90506020020160208101906113ff9190614fbd565b73ffffffffffffffffffffffffffffffffffffffff1663f242432a333089898681811061142f5761142e6160d8565b5b90506020020135888887818110611449576114486160d8565b5b905060200201356040518563ffffffff1660e01b815260040161146f9493929190615e0f565b600060405180830381600087803b15801561148957600080fd5b505af115801561149d573d6000803e3d6000fd5b5050505061167d565b3373ffffffffffffffffffffffffffffffffffffffff168a8a838181106114d0576114cf6160d8565b5b90506020020160208101906114e59190614fbd565b73ffffffffffffffffffffffffffffffffffffffff16636352211e888885818110611513576115126160d8565b5b905060200201356040518263ffffffff1660e01b815260040161153691906153da565b602060405180830381865afa158015611553573d6000803e3d6000fd5b505050506040513d601f19601f820116820180604052508101906115779190615be8565b73ffffffffffffffffffffffffffffffffffffffff16146115cd576040517f08c379a00000000000000000000000000000000000000000000000000000000081526004016115c490616179565b60405180910390fd5b8989828181106115e0576115df6160d8565b5b90506020020160208101906115f59190614fbd565b73ffffffffffffffffffffffffffffffffffffffff166323b872dd3330898986818110611625576116246160d8565b5b905060200201356040518463ffffffff1660e01b815260040161164a93929190615ca7565b600060405180830381600087803b15801561166457600080fd5b505af1158015611678573d6000803e3d6000fd5b505050505b6000604051806060016040528086868581811061169d5761169c6160d8565b5b90506020020135815260200160008152602001428152509050600061012e60003373ffffffffffffffffffffffffffffffffffffffff1673ffffffffffffffffffffffffffffffffffffffff16815260200190815260200160002060008d8d8681811061170d5761170c6160d8565b5b90506020020160208101906117229190614fbd565b73ffffffffffffffffffffffffffffffffffffffff1673ffffffffffffffffffffffffffffffffffffffff1681526020019081526020016000206000898986818110611771576117706160d8565b5b90506020020135815260200190815260200160002080549050905061012e60003373ffffffffffffffffffffffffffffffffffffffff1673ffffffffffffffffffffffffffffffffffffffff16815260200190815260200160002060008d8d868181106117e1576117e06160d8565b5b90506020020160208101906117f69190614fbd565b73ffffffffffffffffffffffffffffffffffffffff1673ffffffffffffffffffffffffffffffffffffffff1681526020019081526020016000206000898986818110611845576118446160d8565b5b90506020020135815260200190815260200160002082908060018154018082558091505060019003906000526020600020906003020160009091909190915060008201518160000155602082015181600101556040820151816002015550508787848181106118b7576118b66160d8565b5b905060200201358c8c858181106118d1576118d06160d8565b5b90506020020160208101906118e69190614fbd565b73ffffffffffffffffffffffffffffffffffffffff163373ffffffffffffffffffffffffffffffffffffffff167fc1422af7e43d777469d796ab303d8d25d600d97d1ba738791ab5ac48cf123f93898988818110611947576119466160d8565b5b905060200201358560405161195d929190615e67565b60405180910390a450508080611972906161c8565b9150506111e4565b50505050505050505050565b6119936000801b33612224565b6119d2576040517f08c379a00000000000000000000000000000000000000000000000000000000081526004016119c990615a3b565b60405180910390fd5b6119da613fd5565b565b7f000000000000000000000000000000000000000000000000000000000000000073ffffffffffffffffffffffffffffffffffffffff163073ffffffffffffffffffffffffffffffffffffffff1603611a6a576040517f08c379a0000000000000000000000000000000000000000000000000000000008152600401611a6190615f94565b60405180910390fd5b7f000000000000000000000000000000000000000000000000000000000000000073ffffffffffffffffffffffffffffffffffffffff16611aa9613dff565b73ffffffffffffffffffffffffffffffffffffffff1614611aff576040517f08c379a0000000000000000000000000000000000000000000000000000000008152600401611af690616026565b60405180910390fd5b611b0882613e56565b611b1482826001613e67565b5050565b60007f000000000000000000000000000000000000000000000000000000000000000073ffffffffffffffffffffffffffffffffffffffff163073ffffffffffffffffffffffffffffffffffffffff1614611ba8576040517f08c379a0000000000000000000000000000000000000000000000000000000008152600401611b9f90616282565b60405180910390fd5b7f360894a13ba1a3210667c828492db98dca3e2076cc3735a920a3ca505d382bbc60001b905090565b611bde6000801b33612224565b611c1d576040517f08c379a0000000000000000000000000000000000000000000000000000000008152600401611c1490615a3b565b60405180910390fd5b60005b82829050811015611d94576000838383818110611c4057611c3f6160d8565b5b9050602002016020810190611c559190614fbd565b905061013360008273ffffffffffffffffffffffffffffffffffffffff1673ffffffffffffffffffffffffffffffffffffffff16815260200190815260200160002060009054906101000a900460ff16611ce4576040517f08c379a0000000000000000000000000000000000000000000000000000000008152600401611cdb90616314565b60405180910390fd5b600061013360008373ffffffffffffffffffffffffffffffffffffffff1673ffffffffffffffffffffffffffffffffffffffff16815260200190815260200160002060006101000a81548160ff0219169083151502179055508073ffffffffffffffffffffffffffffffffffffffff167f24a12366c02e13fe4a9e03d86a8952e85bb74a456c16e4a18b6d8295700b74bb60405160405180910390a2508080611d8c906161c8565b915050611c20565b505050565b6000603360009054906101000a900460ff16905090565b611dbd6000801b33612224565b611dfc576040517f08c379a0000000000000000000000000000000000000000000000000000000008152600401611df390615a3b565b60405180910390fd5b806101318190555050565b61013260009054906101000a900460ff1681565b60008060019054906101000a900460ff16159050808015611e4c5750600160008054906101000a900460ff1660ff16105b80611e795750611e5b30614038565b158015611e785750600160008054906101000a900460ff1660ff16145b5b611eb8576040517f08c379a0000000000000000000000000000000000000000000000000000000008152600401611eaf906163a6565b60405180910390fd5b60016000806101000a81548160ff021916908360ff1602179055508015611ef5576001600060016101000a81548160ff0219169083151502179055505b8361012f60006101000a81548173ffffffffffffffffffffffffffffffffffffffff021916908373ffffffffffffffffffffffffffffffffffffffff16021790555082610130819055508161013181905550611f4f61405b565b611f576140ac565b611f646000801b33613c34565b8015611fbd5760008060016101000a81548160ff0219169083151502179055507f7f26b83ff96e1f2b6a682f133852f6798a09c465da95921460cefb38474024986001604051611fb49190616401565b60405180910390a15b50505050565b6101305481565b611fd76000801b33612224565b612016576040517f08c379a000000000000000000000000000000000000000000000000000000000815260040161200d90615a3b565b60405180910390fd5b60005b828290508110156121c2576000838383818110612039576120386160d8565b5b905060200201602081019061204e9190614fbd565b9050600073ffffffffffffffffffffffffffffffffffffffff168173ffffffffffffffffffffffffffffffffffffffff16036120bf576040517f08c379a00000000000000000000000000000000000000000000000000000000081526004016120b69061648e565b60405180910390fd5b61013360008273ffffffffffffffffffffffffffffffffffffffff1673ffffffffffffffffffffffffffffffffffffffff16815260200190815260200160002060009054906101000a900460ff166121ae57600161013360008373ffffffffffffffffffffffffffffffffffffffff1673ffffffffffffffffffffffffffffffffffffffff16815260200190815260200160002060006101000a81548160ff0219169083151502179055508073ffffffffffffffffffffffffffffffffffffffff167fa226db3f664042183ee0281230bba26cbf7b5057e50aee7f25a175ff45ce4d7f60405160405180910390a25b5080806121ba906161c8565b915050612019565b505050565b6121d46000801b33612224565b612213576040517f08c379a000000000000000000000000000000000000000000000000000000000815260040161220a90615a3b565b60405180910390fd5b61221b6140fd565b565b6101345481565b60006097600084815260200190815260200160002060000160008373ffffffffffffffffffffffffffffffffffffffff1673ffffffffffffffffffffffffffffffffffffffff16815260200190815260200160002060009054906101000a900460ff16905092915050565b61012e60205283600052604060002060205282600052604060002060205281600052604060002081815481106122c457600080fd5b90600052602060002090600302016000935093505050508060000154908060010154908060020154905083565b6122fe6000801b33612224565b61233d576040517f08c379a000000000000000000000000000000000000000000000000000000000815260040161233490615a3b565b60405180910390fd5b806101308190555050565b8361013360008273ffffffffffffffffffffffffffffffffffffffff1673ffffffffffffffffffffffffffffffffffffffff16815260200190815260200160002060009054906101000a900460ff166123d6576040517f08c379a00000000000000000000000000000000000000000000000000000000081526004016123cd90615bb3565b60405180910390fd5b6123de613bd6565b6123e6614160565b600061012e60003373ffffffffffffffffffffffffffffffffffffffff1673ffffffffffffffffffffffffffffffffffffffff16815260200190815260200160002060008773ffffffffffffffffffffffffffffffffffffffff1673ffffffffffffffffffffffffffffffffffffffff16815260200190815260200160002060008681526020019081526020016000208381548110612488576124876160d8565b5b9060005260206000209060030201600001549050600081116124df576040517f08c379a00000000000000000000000000000000000000000000000000000000081526004016124d690616520565b60405180910390fd5b60008460ff16036125ac57808673ffffffffffffffffffffffffffffffffffffffff1662fdd58e30886040518363ffffffff1660e01b8152600401612525929190615a6a565b602060405180830381865afa158015612542573d6000803e3d6000fd5b505050506040513d601f19601f820116820180604052508101906125669190615cf3565b10156125a7576040517f08c379a000000000000000000000000000000000000000000000000000000000815260040161259e906165d8565b60405180910390fd5b612694565b3073ffffffffffffffffffffffffffffffffffffffff168673ffffffffffffffffffffffffffffffffffffffff16636352211e876040518263ffffffff1660e01b81526004016125fc91906153da565b602060405180830381865afa158015612619573d6000803e3d6000fd5b505050506040513d601f19601f8201168201806040525081019061263d9190615be8565b73ffffffffffffffffffffffffffffffffffffffff1614612693576040517f08c379a000000000000000000000000000000000000000000000000000000000815260040161268a9061666a565b60405180910390fd5b5b6126a03387878661373f565b61012e60003373ffffffffffffffffffffffffffffffffffffffff1673ffffffffffffffffffffffffffffffffffffffff16815260200190815260200160002060008873ffffffffffffffffffffffffffffffffffffffff1673ffffffffffffffffffffffffffffffffffffffff168152602001908152602001600020600087815260200190815260200160002084815481106127405761273f6160d8565b5b9060005260206000209060030201600101819055504261012e60003373ffffffffffffffffffffffffffffffffffffffff1673ffffffffffffffffffffffffffffffffffffffff16815260200190815260200160002060008873ffffffffffffffffffffffffffffffffffffffff1673ffffffffffffffffffffffffffffffffffffffff168152602001908152602001600020600087815260200190815260200160002084815481106127f6576127f56160d8565b5b906000526020600020906003020160020181905550848673ffffffffffffffffffffffffffffffffffffffff163373ffffffffffffffffffffffffffffffffffffffff167ff1a945c8cc4403d02673e60cf2632609ce231f8899e2c25ef96bcb8df46a824284874260405161286d9392919061545c565b60405180910390a45061287e6141b1565b5050505050565b6000801b81565b6101336020528060005260406000206000915054906101000a900460ff1681565b8461013360008273ffffffffffffffffffffffffffffffffffffffff1673ffffffffffffffffffffffffffffffffffffffff16815260200190815260200160002060009054906101000a900460ff1661293b576040517f08c379a000000000000000000000000000000000000000000000000000000000815260040161293290615bb3565b60405180910390fd5b612943613bd6565b61294b614160565b8361012e60003373ffffffffffffffffffffffffffffffffffffffff1673ffffffffffffffffffffffffffffffffffffffff16815260200190815260200160002060008873ffffffffffffffffffffffffffffffffffffffff1673ffffffffffffffffffffffffffffffffffffffff168152602001908152602001600020600087815260200190815260200160002084815481106129ec576129eb6160d8565b5b9060005260206000209060030201600001541015612a3f576040517f08c379a0000000000000000000000000000000000000000000000000000000008152600401612a36906166fc565b60405180910390fd5b60018260ff1603612b36573073ffffffffffffffffffffffffffffffffffffffff168673ffffffffffffffffffffffffffffffffffffffff16636352211e876040518263ffffffff1660e01b8152600401612a9a91906153da565b602060405180830381865afa158015612ab7573d6000803e3d6000fd5b505050506040513d601f19601f82011682018060405250810190612adb9190615be8565b73ffffffffffffffffffffffffffffffffffffffff1614612b31576040517f08c379a0000000000000000000000000000000000000000000000000000000008152600401612b289061666a565b60405180910390fd5b612bf4565b838673ffffffffffffffffffffffffffffffffffffffff1662fdd58e30886040518363ffffffff1660e01b8152600401612b71929190615a6a565b602060405180830381865afa158015612b8e573d6000803e3d6000fd5b505050506040513d601f19601f82011682018060405250810190612bb29190615cf3565b1015612bf3576040517f08c379a0000000000000000000000000000000000000000000000000000000008152600401612bea906165d8565b60405180910390fd5b5b61013260009054906101000a900460ff1615612c1757612c158686856141bc565b505b8361012e60003373ffffffffffffffffffffffffffffffffffffffff1673ffffffffffffffffffffffffffffffffffffffff16815260200190815260200160002060008873ffffffffffffffffffffffffffffffffffffffff1673ffffffffffffffffffffffffffffffffffffffff16815260200190815260200160002060008781526020019081526020016000208481548110612cb857612cb76160d8565b5b90600052602060002090600302016000016000828254612cd8919061671c565b9250508190555060008260ff1603612d60578573ffffffffffffffffffffffffffffffffffffffff1663f242432a303388886040518563ffffffff1660e01b8152600401612d299493929190615e0f565b600060405180830381600087803b158015612d4357600080fd5b505af1158015612d57573d6000803e3d6000fd5b50505050612dd0565b8573ffffffffffffffffffffffffffffffffffffffff166323b872dd3033886040518463ffffffff1660e01b8152600401612d9d93929190615ca7565b600060405180830381600087803b158015612db757600080fd5b505af1158015612dcb573d6000803e3d6000fd5b505050505b848673ffffffffffffffffffffffffffffffffffffffff163373ffffffffffffffffffffffffffffffffffffffff167f3164d2896e24bd978cf0b2cc29f4a8406b7051a0a97389415f75b1032e8543388787604051612e30929190615e67565b60405180910390a4612e406141b1565b505050505050565b612e50613bd6565b612e58614160565b878790508a8a9050148015612e725750858590508a8a9050145b8015612e835750838390508a8a9050145b8015612e945750818190508a8a9050145b612ed3576040517f08c379a0000000000000000000000000000000000000000000000000000000008152600401612eca906160b8565b60405180910390fd5b60008a8a9050905060005b818110156136f357858582818110612ef957612ef86160d8565b5b9050602002013561012e60003373ffffffffffffffffffffffffffffffffffffffff1673ffffffffffffffffffffffffffffffffffffffff16815260200190815260200160002060008e8e85818110612f5557612f546160d8565b5b9050602002016020810190612f6a9190614fbd565b73ffffffffffffffffffffffffffffffffffffffff1673ffffffffffffffffffffffffffffffffffffffff16815260200190815260200160002060008a8a85818110612fb957612fb86160d8565b5b905060200201358152602001908152602001600020858584818110612fe157612fe06160d8565b5b9050602002013581548110612ff957612ff86160d8565b5b906000526020600020906003020160000154101561304c576040517f08c379a0000000000000000000000000000000000000000000000000000000008152600401613043906166fc565b60405180910390fd5b60008a8a83818110613061576130606160d8565b5b9050602002013503613188578585828181106130805761307f6160d8565b5b905060200201358c8c8381811061309a576130996160d8565b5b90506020020160208101906130af9190614fbd565b73ffffffffffffffffffffffffffffffffffffffff1662fdd58e308b8b868181106130dd576130dc6160d8565b5b905060200201356040518363ffffffff1660e01b8152600401613101929190615a6a565b602060405180830381865afa15801561311e573d6000803e3d6000fd5b505050506040513d601f19601f820116820180604052508101906131429190615cf3565b1015613183576040517f08c379a000000000000000000000000000000000000000000000000000000000815260040161317a906165d8565b60405180910390fd5b6132b0565b3073ffffffffffffffffffffffffffffffffffffffff168c8c838181106131b2576131b16160d8565b5b90506020020160208101906131c79190614fbd565b73ffffffffffffffffffffffffffffffffffffffff16636352211e8a8a858181106131f5576131f46160d8565b5b905060200201356040518263ffffffff1660e01b815260040161321891906153da565b602060405180830381865afa158015613235573d6000803e3d6000fd5b505050506040513d601f19601f820116820180604052508101906132599190615be8565b73ffffffffffffffffffffffffffffffffffffffff16146132af576040517f08c379a00000000000000000000000000000000000000000000000000000000081526004016132a69061666a565b60405180910390fd5b5b61013260009054906101000a900460ff161561332c5761332a8c8c838181106132dc576132db6160d8565b5b90506020020160208101906132f19190614fbd565b898984818110613304576133036160d8565b5b9050602002013586868581811061331e5761331d6160d8565b5b905060200201356141bc565b505b85858281811061333f5761333e6160d8565b5b9050602002013561012e60003373ffffffffffffffffffffffffffffffffffffffff1673ffffffffffffffffffffffffffffffffffffffff16815260200190815260200160002060008e8e8581811061339b5761339a6160d8565b5b90506020020160208101906133b09190614fbd565b73ffffffffffffffffffffffffffffffffffffffff1673ffffffffffffffffffffffffffffffffffffffff16815260200190815260200160002060008a8a858181106133ff576133fe6160d8565b5b905060200201358152602001908152602001600020858584818110613427576134266160d8565b5b905060200201358154811061343f5761343e6160d8565b5b9060005260206000209060030201600001600082825461345f919061671c565b9250508190555060008a8a8381811061347b5761347a6160d8565b5b9050602002013503613556578b8b8281811061349a576134996160d8565b5b90506020020160208101906134af9190614fbd565b73ffffffffffffffffffffffffffffffffffffffff1663f242432a30338b8b868181106134df576134de6160d8565b5b905060200201358a8a878181106134f9576134f86160d8565b5b905060200201356040518563ffffffff1660e01b815260040161351f9493929190615e0f565b600060405180830381600087803b15801561353957600080fd5b505af115801561354d573d6000803e3d6000fd5b50505050613606565b8b8b82818110613569576135686160d8565b5b905060200201602081019061357e9190614fbd565b73ffffffffffffffffffffffffffffffffffffffff166323b872dd30338b8b868181106135ae576135ad6160d8565b5b905060200201356040518463ffffffff1660e01b81526004016135d393929190615ca7565b600060405180830381600087803b1580156135ed57600080fd5b505af1158015613601573d6000803e3d6000fd5b505050505b878782818110613619576136186160d8565b5b905060200201358c8c83818110613633576136326160d8565b5b90506020020160208101906136489190614fbd565b73ffffffffffffffffffffffffffffffffffffffff163373ffffffffffffffffffffffffffffffffffffffff167f3164d2896e24bd978cf0b2cc29f4a8406b7051a0a97389415f75b1032e8543388989868181106136a9576136a86160d8565b5b905060200201358888878181106136c3576136c26160d8565b5b905060200201356040516136d8929190615e67565b60405180910390a480806136eb906161c8565b915050612ede565b50506136fd6141b1565b50505050505050505050565b600063bc197c8160e01b905095945050505050565b61372782610f1b565b61373081613c20565b61373a8383613d1d565b505050565b60008161012e60008773ffffffffffffffffffffffffffffffffffffffff1673ffffffffffffffffffffffffffffffffffffffff16815260200190815260200160002060008673ffffffffffffffffffffffffffffffffffffffff1673ffffffffffffffffffffffffffffffffffffffff16815260200190815260200160002060008581526020019081526020016000208054905011613814576040517f08c379a000000000000000000000000000000000000000000000000000000000815260040161380b9061679c565b60405180910390fd5b600061012e60008773ffffffffffffffffffffffffffffffffffffffff1673ffffffffffffffffffffffffffffffffffffffff16815260200190815260200160002060008673ffffffffffffffffffffffffffffffffffffffff1673ffffffffffffffffffffffffffffffffffffffff168152602001908152602001600020600085815260200190815260200160002083815481106138b6576138b56160d8565b5b9060005260206000209060030201600001541115613aa25760006101315461012e60008873ffffffffffffffffffffffffffffffffffffffff1673ffffffffffffffffffffffffffffffffffffffff16815260200190815260200160002060008773ffffffffffffffffffffffffffffffffffffffff1673ffffffffffffffffffffffffffffffffffffffff16815260200190815260200160002060008681526020019081526020016000208481548110613974576139736160d8565b5b90600052602060002090600302016002015461399091906167bc565b90508042116139d4576040517f08c379a00000000000000000000000000000000000000000000000000000000081526004016139cb90616884565b60405180910390fd5b600061012e60008873ffffffffffffffffffffffffffffffffffffffff1673ffffffffffffffffffffffffffffffffffffffff16815260200190815260200160002060008773ffffffffffffffffffffffffffffffffffffffff1673ffffffffffffffffffffffffffffffffffffffff16815260200190815260200160002060008681526020019081526020016000208481548110613a7657613a756160d8565b5b90600052602060002090600302016000015461013054613a9691906168a4565b90508092505050613aa7565b600090505b949350505050565b613abc6000801b33612224565b613afb576040517f08c379a0000000000000000000000000000000000000000000000000000000008152600401613af290615a3b565b60405180910390fd5b8061013260006101000a81548160ff02191690831515021790555050565b6101315481565b600063f23a6e6160e01b905095945050505050565b61012f60009054906101000a900473ffffffffffffffffffffffffffffffffffffffff1681565b60007f4e2312e0000000000000000000000000000000000000000000000000000000007bffffffffffffffffffffffffffffffffffffffffffffffffffffffff1916827bffffffffffffffffffffffffffffffffffffffffffffffffffffffff19161480613bcf5750613bce8261461e565b5b9050919050565b613bde611d99565b15613c1e576040517f08c379a0000000000000000000000000000000000000000000000000000000008152600401613c159061694a565b60405180910390fd5b565b613c3181613c2c613d15565b614688565b50565b613c3e8282612224565b613d115760016097600084815260200190815260200160002060000160008373ffffffffffffffffffffffffffffffffffffffff1673ffffffffffffffffffffffffffffffffffffffff16815260200190815260200160002060006101000a81548160ff021916908315150217905550613cb6613d15565b73ffffffffffffffffffffffffffffffffffffffff168173ffffffffffffffffffffffffffffffffffffffff16837f2f8788117e7eff1d82e926ec794901d17c78024a50270940304540a733656f0d60405160405180910390a45b5050565b600033905090565b613d278282612224565b15613dfb5760006097600084815260200190815260200160002060000160008373ffffffffffffffffffffffffffffffffffffffff1673ffffffffffffffffffffffffffffffffffffffff16815260200190815260200160002060006101000a81548160ff021916908315150217905550613da0613d15565b73ffffffffffffffffffffffffffffffffffffffff168173ffffffffffffffffffffffffffffffffffffffff16837ff6391f5c32d9c69d2a47ea670b442974b53935d1edc7fd64eb21e047a839171b60405160405180910390a45b5050565b6000613e2d7f360894a13ba1a3210667c828492db98dca3e2076cc3735a920a3ca505d382bbc60001b61470d565b60000160009054906101000a900473ffffffffffffffffffffffffffffffffffffffff16905090565b6000801b613e6381613c20565b5050565b613e937f4910fdfa16fed3260ed0e7147f7cc6da11a60208b5b9406d12a635614ffd914360001b614717565b60000160009054906101000a900460ff1615613eb757613eb283614721565b613fd0565b8273ffffffffffffffffffffffffffffffffffffffff166352d1902d6040518163ffffffff1660e01b8152600401602060405180830381865afa925050508015613f1f57506040513d601f19601f82011682018060405250810190613f1c919061697f565b60015b613f5e576040517f08c379a0000000000000000000000000000000000000000000000000000000008152600401613f5590616a1e565b60405180910390fd5b7f360894a13ba1a3210667c828492db98dca3e2076cc3735a920a3ca505d382bbc60001b8114613fc3576040517f08c379a0000000000000000000000000000000000000000000000000000000008152600401613fba90616ab0565b60405180910390fd5b50613fcf8383836147da565b5b505050565b613fdd614806565b6000603360006101000a81548160ff0219169083151502179055507f5db9ee0a495bf2e6ff9c91a7834c1ba4fdd244a5e8aa4e537bd38aeae4b073aa614021613d15565b60405161402e9190616ad0565b60405180910390a1565b6000808273ffffffffffffffffffffffffffffffffffffffff163b119050919050565b600060019054906101000a900460ff166140aa576040517f08c379a00000000000000000000000000000000000000000000000000000000081526004016140a190616b5d565b60405180910390fd5b565b600060019054906101000a900460ff166140fb576040517f08c379a00000000000000000000000000000000000000000000000000000000081526004016140f290616b5d565b60405180910390fd5b565b614105613bd6565b6001603360006101000a81548160ff0219169083151502179055507f62e78cea01bee320cd4e420270b5ea74000d11b0c9f74754ebdbfc544b05a258614149613d15565b6040516141569190616ad0565b60405180910390a1565b600261012d54036141a6576040517f08c379a000000000000000000000000000000000000000000000000000000000815260040161419d90616bc9565b60405180910390fd5b600261012d81905550565b600161012d81905550565b60006141c6613bd6565b8361013360008273ffffffffffffffffffffffffffffffffffffffff1673ffffffffffffffffffffffffffffffffffffffff16815260200190815260200160002060009054906101000a900460ff16614254576040517f08c379a000000000000000000000000000000000000000000000000000000000815260040161424b90615bb3565b60405180910390fd5b60006142623387878761373f565b9050600081116142a7576040517f08c379a000000000000000000000000000000000000000000000000000000000815260040161429e90616c5b565b60405180910390fd5b8061012f60009054906101000a900473ffffffffffffffffffffffffffffffffffffffff1673ffffffffffffffffffffffffffffffffffffffff166370a08231306040518263ffffffff1660e01b81526004016143049190616ad0565b602060405180830381865afa158015614321573d6000803e3d6000fd5b505050506040513d601f19601f820116820180604052508101906143459190615cf3565b1015614386576040517f08c379a000000000000000000000000000000000000000000000000000000000815260040161437d90616ced565b60405180910390fd5b4261012e60003373ffffffffffffffffffffffffffffffffffffffff1673ffffffffffffffffffffffffffffffffffffffff16815260200190815260200160002060008873ffffffffffffffffffffffffffffffffffffffff1673ffffffffffffffffffffffffffffffffffffffff16815260200190815260200160002060008781526020019081526020016000208581548110614427576144266160d8565b5b90600052602060002090600302016002018190555060008061013454111561445957614456826101345461484f565b90505b61012f60009054906101000a900473ffffffffffffffffffffffffffffffffffffffff1673ffffffffffffffffffffffffffffffffffffffff1663a9059cbb33838561012e60003373ffffffffffffffffffffffffffffffffffffffff1673ffffffffffffffffffffffffffffffffffffffff16815260200190815260200160002060008d73ffffffffffffffffffffffffffffffffffffffff1673ffffffffffffffffffffffffffffffffffffffff16815260200190815260200160002060008c81526020019081526020016000208a8154811061453b5761453a6160d8565b5b90600052602060002090600302016001015461455791906167bc565b614561919061671c565b6040518363ffffffff1660e01b815260040161457e929190615a6a565b6020604051808303816000875af115801561459d573d6000803e3d6000fd5b505050506040513d601f19601f820116820180604052508101906145c19190615aa8565b503373ffffffffffffffffffffffffffffffffffffffff167ffc30cddea38e2bf4d6ea7d3f9ed3b6ad7f176419f4963bd81318067a4aee73fe8360405161460891906153da565b60405180910390a2600193505050509392505050565b60007f01ffc9a7000000000000000000000000000000000000000000000000000000007bffffffffffffffffffffffffffffffffffffffffffffffffffffffff1916827bffffffffffffffffffffffffffffffffffffffffffffffffffffffff1916149050919050565b6146928282612224565b6147095761469f81614872565b6146ad8360001c602061489f565b6040516020016146be929190616e1f565b6040516020818303038152906040526040517f08c379a00000000000000000000000000000000000000000000000000000000081526004016147009190616e92565b60405180910390fd5b5050565b6000819050919050565b6000819050919050565b61472a81614038565b614769576040517f08c379a000000000000000000000000000000000000000000000000000000000815260040161476090616f26565b60405180910390fd5b806147967f360894a13ba1a3210667c828492db98dca3e2076cc3735a920a3ca505d382bbc60001b61470d565b60000160006101000a81548173ffffffffffffffffffffffffffffffffffffffff021916908373ffffffffffffffffffffffffffffffffffffffff16021790555050565b6147e383614adb565b6000825111806147f05750805b15614801576147ff8383614b2a565b505b505050565b61480e611d99565b61484d576040517f08c379a000000000000000000000000000000000000000000000000000000000815260040161484490616f92565b60405180910390fd5b565b60006103e8828461486091906168a4565b61486a9190616fe1565b905092915050565b60606148988273ffffffffffffffffffffffffffffffffffffffff16601460ff1661489f565b9050919050565b6060600060028360026148b291906168a4565b6148bc91906167bc565b67ffffffffffffffff8111156148d5576148d46151a4565b5b6040519080825280601f01601f1916602001820160405280156149075781602001600182028036833780820191505090505b5090507f30000000000000000000000000000000000000000000000000000000000000008160008151811061493f5761493e6160d8565b5b60200101907effffffffffffffffffffffffffffffffffffffffffffffffffffffffffffff1916908160001a9053507f7800000000000000000000000000000000000000000000000000000000000000816001815181106149a3576149a26160d8565b5b60200101907effffffffffffffffffffffffffffffffffffffffffffffffffffffffffffff1916908160001a905350600060018460026149e391906168a4565b6149ed91906167bc565b90505b6001811115614a8d577f3031323334353637383961626364656600000000000000000000000000000000600f861660108110614a2f57614a2e6160d8565b5b1a60f81b828281518110614a4657614a456160d8565b5b60200101907effffffffffffffffffffffffffffffffffffffffffffffffffffffffffffff1916908160001a905350600485901c945080614a8690617012565b90506149f0565b5060008414614ad1576040517f08c379a0000000000000000000000000000000000000000000000000000000008152600401614ac890617087565b60405180910390fd5b8091505092915050565b614ae481614721565b8073ffffffffffffffffffffffffffffffffffffffff167fbc7cd75a20ee27fd9adebab32041f755214dbc6bffa90cc0225b39da2e5c2d3b60405160405180910390a250565b6060614b3583614038565b614b74576040517f08c379a0000000000000000000000000000000000000000000000000000000008152600401614b6b90617119565b60405180910390fd5b6000808473ffffffffffffffffffffffffffffffffffffffff1684604051614b9c9190617180565b600060405180830381855af49150503d8060008114614bd7576040519150601f19603f3d011682016040523d82523d6000602084013e614bdc565b606091505b5091509150614c04828260405180606001604052806027815260200161719860279139614c0e565b9250505092915050565b60608315614c1e57829050614c29565b614c288383614c30565b5b9392505050565b600082511115614c435781518083602001fd5b806040517f08c379a0000000000000000000000000000000000000000000000000000000008152600401614c779190616e92565b60405180910390fd5b6000604051905090565b600080fd5b600080fd5b6000819050919050565b614ca781614c94565b8114614cb257600080fd5b50565b600081359050614cc481614c9e565b92915050565b600060208284031215614ce057614cdf614c8a565b5b6000614cee84828501614cb5565b91505092915050565b60007fffffffff0000000000000000000000000000000000000000000000000000000082169050919050565b614d2c81614cf7565b8114614d3757600080fd5b50565b600081359050614d4981614d23565b92915050565b600060208284031215614d6557614d64614c8a565b5b6000614d7384828501614d3a565b91505092915050565b60008115159050919050565b614d9181614d7c565b82525050565b6000602082019050614dac6000830184614d88565b92915050565b600073ffffffffffffffffffffffffffffffffffffffff82169050919050565b6000614ddd82614db2565b9050919050565b614ded81614dd2565b8114614df857600080fd5b50565b600081359050614e0a81614de4565b92915050565b60008060408385031215614e2757614e26614c8a565b5b6000614e3585828601614dfb565b9250506020614e4685828601614cb5565b9150509250929050565b600060ff82169050919050565b614e6681614e50565b8114614e7157600080fd5b50565b600081359050614e8381614e5d565b92915050565b60008060008060808587031215614ea357614ea2614c8a565b5b6000614eb187828801614dfb565b9450506020614ec287828801614cb5565b9350506040614ed387828801614cb5565b9250506060614ee487828801614e74565b91505092959194509250565b6000819050919050565b614f0381614ef0565b8114614f0e57600080fd5b50565b600081359050614f2081614efa565b92915050565b600060208284031215614f3c57614f3b614c8a565b5b6000614f4a84828501614f11565b91505092915050565b614f5c81614ef0565b82525050565b6000602082019050614f776000830184614f53565b92915050565b60008060408385031215614f9457614f93614c8a565b5b6000614fa285828601614f11565b9250506020614fb385828601614dfb565b9150509250929050565b600060208284031215614fd357614fd2614c8a565b5b6000614fe184828501614dfb565b91505092915050565b600080fd5b600080fd5b600080fd5b60008083601f84011261500f5761500e614fea565b5b8235905067ffffffffffffffff81111561502c5761502b614fef565b5b60208301915083602082028301111561504857615047614ff4565b5b9250929050565b60008083601f84011261506557615064614fea565b5b8235905067ffffffffffffffff81111561508257615081614fef565b5b60208301915083602082028301111561509e5761509d614ff4565b5b9250929050565b6000806000806000806000806080898b0312156150c5576150c4614c8a565b5b600089013567ffffffffffffffff8111156150e3576150e2614c8f565b5b6150ef8b828c01614ff9565b9850985050602089013567ffffffffffffffff81111561511257615111614c8f565b5b61511e8b828c0161504f565b9650965050604089013567ffffffffffffffff81111561514157615140614c8f565b5b61514d8b828c0161504f565b9450945050606089013567ffffffffffffffff8111156151705761516f614c8f565b5b61517c8b828c0161504f565b92509250509295985092959890939650565b600080fd5b6000601f19601f8301169050919050565b7f4e487b7100000000000000000000000000000000000000000000000000000000600052604160045260246000fd5b6151dc82615193565b810181811067ffffffffffffffff821117156151fb576151fa6151a4565b5b80604052505050565b600061520e614c80565b905061521a82826151d3565b919050565b600067ffffffffffffffff82111561523a576152396151a4565b5b61524382615193565b9050602081019050919050565b82818337600083830152505050565b600061527261526d8461521f565b615204565b90508281526020810184848401111561528e5761528d61518e565b5b615299848285615250565b509392505050565b600082601f8301126152b6576152b5614fea565b5b81356152c684826020860161525f565b91505092915050565b600080604083850312156152e6576152e5614c8a565b5b60006152f485828601614dfb565b925050602083013567ffffffffffffffff81111561531557615314614c8f565b5b615321858286016152a1565b9150509250929050565b6000806020838503121561534257615341614c8a565b5b600083013567ffffffffffffffff8111156153605761535f614c8f565b5b61536c85828601614ff9565b92509250509250929050565b60008060006060848603121561539157615390614c8a565b5b600061539f86828701614dfb565b93505060206153b086828701614cb5565b92505060406153c186828701614cb5565b9150509250925092565b6153d481614c94565b82525050565b60006020820190506153ef60008301846153cb565b92915050565b6000806000806080858703121561540f5761540e614c8a565b5b600061541d87828801614dfb565b945050602061542e87828801614dfb565b935050604061543f87828801614cb5565b925050606061545087828801614cb5565b91505092959194509250565b600060608201905061547160008301866153cb565b61547e60208301856153cb565b61548b60408301846153cb565b949350505050565b600080600080608085870312156154ad576154ac614c8a565b5b60006154bb87828801614dfb565b94505060206154cc87828801614cb5565b93505060406154dd87828801614e74565b92505060606154ee87828801614cb5565b91505092959194509250565b600080600080600060a0868803121561551657615515614c8a565b5b600061552488828901614dfb565b955050602061553588828901614cb5565b945050604061554688828901614cb5565b935050606061555788828901614cb5565b925050608061556888828901614e74565b9150509295509295909350565b60008060008060008060008060008060a08b8d03121561559857615597614c8a565b5b60008b013567ffffffffffffffff8111156155b6576155b5614c8f565b5b6155c28d828e01614ff9565b9a509a505060208b013567ffffffffffffffff8111156155e5576155e4614c8f565b5b6155f18d828e0161504f565b985098505060408b013567ffffffffffffffff81111561561457615613614c8f565b5b6156208d828e0161504f565b965096505060608b013567ffffffffffffffff81111561564357615642614c8f565b5b61564f8d828e0161504f565b945094505060808b013567ffffffffffffffff81111561567257615671614c8f565b5b61567e8d828e0161504f565b92509250509295989b9194979a5092959850565b600067ffffffffffffffff8211156156ad576156ac6151a4565b5b602082029050602081019050919050565b60006156d16156cc84615692565b615204565b905080838252602082019050602084028301858111156156f4576156f3614ff4565b5b835b8181101561571d57806157098882614cb5565b8452602084019350506020810190506156f6565b5050509392505050565b600082601f83011261573c5761573b614fea565b5b813561574c8482602086016156be565b91505092915050565b600080600080600060a0868803121561577157615770614c8a565b5b600061577f88828901614dfb565b955050602061579088828901614dfb565b945050604086013567ffffffffffffffff8111156157b1576157b0614c8f565b5b6157bd88828901615727565b935050606086013567ffffffffffffffff8111156157de576157dd614c8f565b5b6157ea88828901615727565b925050608086013567ffffffffffffffff81111561580b5761580a614c8f565b5b615817888289016152a1565b9150509295509295909350565b61582d81614cf7565b82525050565b60006020820190506158486000830184615824565b92915050565b61585781614d7c565b811461586257600080fd5b50565b6000813590506158748161584e565b92915050565b6000602082840312156158905761588f614c8a565b5b600061589e84828501615865565b91505092915050565b600080600080600060a086880312156158c3576158c2614c8a565b5b60006158d188828901614dfb565b95505060206158e288828901614dfb565b94505060406158f388828901614cb5565b935050606061590488828901614cb5565b925050608086013567ffffffffffffffff81111561592557615924614c8f565b5b615931888289016152a1565b9150509295509295909350565b6000819050919050565b600061596361595e61595984614db2565b61593e565b614db2565b9050919050565b600061597582615948565b9050919050565b60006159878261596a565b9050919050565b6159978161597c565b82525050565b60006020820190506159b2600083018461598e565b92915050565b600082825260208201905092915050565b7f57686974656c6973743a204f6e6c792061646d696e2063616e2063616c6c207460008201527f686973206d6574686f6400000000000000000000000000000000000000000000602082015250565b6000615a25602a836159b8565b9150615a30826159c9565b604082019050919050565b60006020820190508181036000830152615a5481615a18565b9050919050565b615a6481614dd2565b82525050565b6000604082019050615a7f6000830185615a5b565b615a8c60208301846153cb565b9392505050565b600081519050615aa28161584e565b92915050565b600060208284031215615abe57615abd614c8a565b5b6000615acc84828501615a93565b91505092915050565b7f546f6b656e207472616e73666572206661696c65642100000000000000000000600082015250565b6000615b0b6016836159b8565b9150615b1682615ad5565b602082019050919050565b60006020820190508181036000830152615b3a81615afe565b9050919050565b7f57686974656c6973743a204e465420636f6e7472616374206973206e6f74207760008201527f686974656c697374656400000000000000000000000000000000000000000000602082015250565b6000615b9d602a836159b8565b9150615ba882615b41565b604082019050919050565b60006020820190508181036000830152615bcc81615b90565b9050919050565b600081519050615be281614de4565b92915050565b600060208284031215615bfe57615bfd614c8a565b5b6000615c0c84828501615bd3565b91505092915050565b7f546f6b656e5374616b696e673a2043616c6c6572206d757374206f776e20746860008201527f65204e465420746f6b656e000000000000000000000000000000000000000000602082015250565b6000615c71602b836159b8565b9150615c7c82615c15565b604082019050919050565b60006020820190508181036000830152615ca081615c64565b9050919050565b6000606082019050615cbc6000830186615a5b565b615cc96020830185615a5b565b615cd660408301846153cb565b949350505050565b600081519050615ced81614c9e565b92915050565b600060208284031215615d0957615d08614c8a565b5b6000615d1784828501615cde565b91505092915050565b7f546f6b656e5374616b696e673a2043616c6c6572206d7573742068617665207360008201527f756666696369656e74204552433131353520746f6b656e2062616c616e636500602082015250565b6000615d7c603f836159b8565b9150615d8782615d20565b604082019050919050565b60006020820190508181036000830152615dab81615d6f565b9050919050565b600082825260208201905092915050565b7f3078000000000000000000000000000000000000000000000000000000000000600082015250565b6000615df9600283615db2565b9150615e0482615dc3565b602082019050919050565b600060a082019050615e246000830187615a5b565b615e316020830186615a5b565b615e3e60408301856153cb565b615e4b60608301846153cb565b8181036080830152615e5c81615dec565b905095945050505050565b6000604082019050615e7c60008301856153cb565b615e8960208301846153cb565b9392505050565b7f416363657373436f6e74726f6c3a2063616e206f6e6c792072656e6f756e636560008201527f20726f6c657320666f722073656c660000000000000000000000000000000000602082015250565b6000615eec602f836159b8565b9150615ef782615e90565b604082019050919050565b60006020820190508181036000830152615f1b81615edf565b9050919050565b7f46756e6374696f6e206d7573742062652063616c6c6564207468726f7567682060008201527f64656c656761746563616c6c0000000000000000000000000000000000000000602082015250565b6000615f7e602c836159b8565b9150615f8982615f22565b604082019050919050565b60006020820190508181036000830152615fad81615f71565b9050919050565b7f46756e6374696f6e206d7573742062652063616c6c6564207468726f7567682060008201527f6163746976652070726f78790000000000000000000000000000000000000000602082015250565b6000616010602c836159b8565b915061601b82615fb4565b604082019050919050565b6000602082019050818103600083015261603f81616003565b9050919050565b7f546f6b656e5374616b696e673a20696e707574206172726179206c656e67746860008201527f20697320696e76616c6964000000000000000000000000000000000000000000602082015250565b60006160a2602b836159b8565b91506160ad82616046565b604082019050919050565b600060208201905081810360008301526160d181616095565b9050919050565b7f4e487b7100000000000000000000000000000000000000000000000000000000600052603260045260246000fd5b7f546f6b656e5374616b696e673a2043616c6c6572206d757374206f776e20746860008201527f652045524337323120746f6b656e000000000000000000000000000000000000602082015250565b6000616163602e836159b8565b915061616e82616107565b604082019050919050565b6000602082019050818103600083015261619281616156565b9050919050565b7f4e487b7100000000000000000000000000000000000000000000000000000000600052601160045260246000fd5b60006161d382614c94565b91507fffffffffffffffffffffffffffffffffffffffffffffffffffffffffffffffff820361620557616204616199565b5b600182019050919050565b7f555550535570677261646561626c653a206d757374206e6f742062652063616c60008201527f6c6564207468726f7567682064656c656761746563616c6c0000000000000000602082015250565b600061626c6038836159b8565b915061627782616210565b604082019050919050565b6000602082019050818103600083015261629b8161625f565b9050919050565b7f57686974656c6973743a204163636f756e74206973206e6f742077686974656c60008201527f6973746564000000000000000000000000000000000000000000000000000000602082015250565b60006162fe6025836159b8565b9150616309826162a2565b604082019050919050565b6000602082019050818103600083015261632d816162f1565b9050919050565b7f496e697469616c697a61626c653a20636f6e747261637420697320616c72656160008201527f647920696e697469616c697a6564000000000000000000000000000000000000602082015250565b6000616390602e836159b8565b915061639b82616334565b604082019050919050565b600060208201905081810360008301526163bf81616383565b9050919050565b6000819050919050565b60006163eb6163e66163e1846163c6565b61593e565b614e50565b9050919050565b6163fb816163d0565b82525050565b600060208201905061641660008301846163f2565b92915050565b7f57686974656c6973743a2043616e6e6f7420616464207a65726f20616464726560008201527f7373000000000000000000000000000000000000000000000000000000000000602082015250565b60006164786022836159b8565b91506164838261641c565b604082019050919050565b600060208201905081810360008301526164a78161646b565b9050919050565b7f546f6b656e5374616b696e673a205374616b696e672044617461206e6f74206660008201527f6f756e6400000000000000000000000000000000000000000000000000000000602082015250565b600061650a6024836159b8565b9150616515826164ae565b604082019050919050565b60006020820190508181036000830152616539816164fd565b9050919050565b7f546f6b656e5374616b696e673a20436f6e7472616374206d757374206861766560008201527f2073756666696369656e74204552433131353520746f6b656e2062616c616e6360208201527f6500000000000000000000000000000000000000000000000000000000000000604082015250565b60006165c26041836159b8565b91506165cd82616540565b606082019050919050565b600060208201905081810360008301526165f1816165b5565b9050919050565b7f546f6b656e5374616b696e673a20436f6e7472616374206d757374206f776e2060008201527f7468652045524337323120746f6b656e00000000000000000000000000000000602082015250565b60006166546030836159b8565b915061665f826165f8565b604082019050919050565b6000602082019050818103600083015261668381616647565b9050919050565b7f546f6b656e5374616b696e673a20496e73756666696369656e74205374616b6560008201527f64204e465420746f6b656e2062616c616e636500000000000000000000000000602082015250565b60006166e66033836159b8565b91506166f18261668a565b604082019050919050565b60006020820190508181036000830152616715816166d9565b9050919050565b600061672782614c94565b915061673283614c94565b92508282101561674557616744616199565b5b828203905092915050565b7f546f6b656e5374616b696e673a20696e76616c696420696e6465780000000000600082015250565b6000616786601b836159b8565b915061679182616750565b602082019050919050565b600060208201905081810360008301526167b581616779565b9050919050565b60006167c782614c94565b91506167d283614c94565b9250827fffffffffffffffffffffffffffffffffffffffffffffffffffffffffffffffff0382111561680757616806616199565b5b828201905092915050565b7f546f6b656e5374616b696e673a205374616b696e67206475726174696f6e206960008201527f73206e6f7420636f6d706c657465640000000000000000000000000000000000602082015250565b600061686e602f836159b8565b915061687982616812565b604082019050919050565b6000602082019050818103600083015261689d81616861565b9050919050565b60006168af82614c94565b91506168ba83614c94565b9250817fffffffffffffffffffffffffffffffffffffffffffffffffffffffffffffffff04831182151516156168f3576168f2616199565b5b828202905092915050565b7f5061757361626c653a2070617573656400000000000000000000000000000000600082015250565b60006169346010836159b8565b915061693f826168fe565b602082019050919050565b6000602082019050818103600083015261696381616927565b9050919050565b60008151905061697981614efa565b92915050565b60006020828403121561699557616994614c8a565b5b60006169a38482850161696a565b91505092915050565b7f45524331393637557067726164653a206e657720696d706c656d656e7461746960008201527f6f6e206973206e6f742055555053000000000000000000000000000000000000602082015250565b6000616a08602e836159b8565b9150616a13826169ac565b604082019050919050565b60006020820190508181036000830152616a37816169fb565b9050919050565b7f45524331393637557067726164653a20756e737570706f727465642070726f7860008201527f6961626c65555549440000000000000000000000000000000000000000000000602082015250565b6000616a9a6029836159b8565b9150616aa582616a3e565b604082019050919050565b60006020820190508181036000830152616ac981616a8d565b9050919050565b6000602082019050616ae56000830184615a5b565b92915050565b7f496e697469616c697a61626c653a20636f6e7472616374206973206e6f74206960008201527f6e697469616c697a696e67000000000000000000000000000000000000000000602082015250565b6000616b47602b836159b8565b9150616b5282616aeb565b604082019050919050565b60006020820190508181036000830152616b7681616b3a565b9050919050565b7f5265656e7472616e637947756172643a207265656e7472616e742063616c6c00600082015250565b6000616bb3601f836159b8565b9150616bbe82616b7d565b602082019050919050565b60006020820190508181036000830152616be281616ba6565b9050919050565b7f546f6b656e5374616b696e673a204e6f207265776172647320617661696c616260008201527f6c65000000000000000000000000000000000000000000000000000000000000602082015250565b6000616c456022836159b8565b9150616c5082616be9565b604082019050919050565b60006020820190508181036000830152616c7481616c38565b9050919050565b7f546f6b656e5374616b696e673a20496e73756666696369656e7420726577617260008201527f642062616c616e63650000000000000000000000000000000000000000000000602082015250565b6000616cd76029836159b8565b9150616ce282616c7b565b604082019050919050565b60006020820190508181036000830152616d0681616cca565b9050919050565b600081905092915050565b7f416363657373436f6e74726f6c3a206163636f756e7420000000000000000000600082015250565b6000616d4e601783616d0d565b9150616d5982616d18565b601782019050919050565b600081519050919050565b60005b83811015616d8d578082015181840152602081019050616d72565b83811115616d9c576000848401525b50505050565b6000616dad82616d64565b616db78185616d0d565b9350616dc7818560208601616d6f565b80840191505092915050565b7f206973206d697373696e6720726f6c6520000000000000000000000000000000600082015250565b6000616e09601183616d0d565b9150616e1482616dd3565b601182019050919050565b6000616e2a82616d41565b9150616e368285616da2565b9150616e4182616dfc565b9150616e4d8284616da2565b91508190509392505050565b6000616e6482616d64565b616e6e81856159b8565b9350616e7e818560208601616d6f565b616e8781615193565b840191505092915050565b60006020820190508181036000830152616eac8184616e59565b905092915050565b7f455243313936373a206e657720696d706c656d656e746174696f6e206973206e60008201527f6f74206120636f6e747261637400000000000000000000000000000000000000602082015250565b6000616f10602d836159b8565b9150616f1b82616eb4565b604082019050919050565b60006020820190508181036000830152616f3f81616f03565b9050919050565b7f5061757361626c653a206e6f7420706175736564000000000000000000000000600082015250565b6000616f7c6014836159b8565b9150616f8782616f46565b602082019050919050565b60006020820190508181036000830152616fab81616f6f565b9050919050565b7f4e487b7100000000000000000000000000000000000000000000000000000000600052601260045260246000fd5b6000616fec82614c94565b9150616ff783614c94565b92508261700757617006616fb2565b5b828204905092915050565b600061701d82614c94565b9150600082036170305761702f616199565b5b600182039050919050565b7f537472696e67733a20686578206c656e67746820696e73756666696369656e74600082015250565b60006170716020836159b8565b915061707c8261703b565b602082019050919050565b600060208201905081810360008301526170a081617064565b9050919050565b7f416464726573733a2064656c65676174652063616c6c20746f206e6f6e2d636f60008201527f6e74726163740000000000000000000000000000000000000000000000000000602082015250565b60006171036026836159b8565b915061710e826170a7565b604082019050919050565b60006020820190508181036000830152617132816170f6565b9050919050565b600081519050919050565b600081905092915050565b600061715a82617139565b6171648185617144565b9350617174818560208601616d6f565b80840191505092915050565b600061718c828461714f565b91508190509291505056fe416464726573733a206c6f772d6c6576656c2064656c65676174652063616c6c206661696c6564a26469706673582212208f0eab09ee8b85fde3b95be4fc55a285349e31f7da62f28a6a745f81b8d0665864736f6c634300080e0033",
  "immutableReferences": {
    "1004": [
      {
        "length": 32,
        "start": 4065
      },
      {
        "length": 32,
        "start": 4207
      },
      {
        "length": 32,
        "start": 6622
      },
      {
        "length": 32,
        "start": 6764
      },
      {
        "length": 32,
        "start": 6940
      }
    ]
  },
  "source": "// SPDX-License-Identifier: MIT\r\npragma solidity ^0.8.0;\r\n\r\nimport \"@openzeppelin/contracts/token/ERC721/ERC721.sol\";\r\nimport \"@openzeppelin/contracts/token/ERC721/IERC721Receiver.sol\";\r\nimport \"@openzeppelin/contracts/token/ERC1155/ERC1155.sol\";\r\nimport \"@openzeppelin/contracts/token/ERC1155/utils/ERC1155Holder.sol\";\r\nimport \"@openzeppelin/contracts/token/ERC20/ERC20.sol\";\r\nimport \"@openzeppelin/contracts-upgradeable/security/PausableUpgradeable.sol\";\r\nimport \"@openzeppelin/contracts-upgradeable/access/AccessControlUpgradeable.sol\";\r\nimport \"@openzeppelin/contracts-upgradeable/proxy/utils/Initializable.sol\";\r\nimport \"@openzeppelin/contracts-upgradeable/proxy/utils/UUPSUpgradeable.sol\";\r\nimport \"@openzeppelin/contracts/security/ReentrancyGuard.sol\";\r\n\r\ncontract StakingNFT is PausableUpgradeable, AccessControlUpgradeable, UUPSUpgradeable, ReentrancyGuard, ERC1155Holder {\r\n  struct StakingInfo {\r\n    uint256 stakedAmount;\r\n    uint256 oldBalance;\r\n    uint256 timeOfLastUpdate;\r\n  }\r\n\r\n  // user => contract=> tokenid => StakingInfo\r\n  mapping(address => mapping(address => mapping(uint256 => StakingInfo[]))) public stakedBalances;\r\n\r\n  // the staking and reward token\r\n  IERC20 public rewardToken;\r\n  // the reward rate in percentage\r\n  uint256 public rewardRate;\r\n  // the reward rate duration\r\n  // so the final reward rate will be re (rewardRate/rewardRateDuration)\r\n  uint256 public rewardRateDuration; //604800\r\n\r\n  // pay Reward in crypto\r\n  bool public payReward;\r\n\r\n  mapping(address => bool) public whitelistContracts;\r\n\r\n  //percetage fee charged on unstaking amount\r\n  uint256 public unstakeFee;\r\n\r\n  /**************************************************/\r\n  /******************** Events **********************/\r\n  /**************************************************/\r\n  event TokensStaked(\r\n    address indexed user,\r\n    address indexed tokenContract,\r\n    uint256 indexed tokenId,\r\n    uint256 amount,\r\n    uint256 index\r\n  );\r\n  event TokensUnstaked(\r\n    address indexed user,\r\n    address indexed tokenContract,\r\n    uint256 indexed tokenId,\r\n    uint256 amount,\r\n    uint256 index\r\n  );\r\n  event TokenRestaked(\r\n    address indexed user,\r\n    address indexed tokenContract,\r\n    uint256 indexed tokenId,\r\n    uint256 amount,\r\n    uint256 index,\r\n    uint256 timestamp\r\n  );\r\n  event RewardsClaimed(address indexed user, uint256 amount);\r\n\r\n  event AddressAdded(address indexed account);\r\n  event AddressRemoved(address indexed account);\r\n\r\n  /**************************************************/\r\n  /****************** Constructor *******************/\r\n  /**************************************************/\r\n  /// @custom:oz-upgrades-unsafe-allow constructor\r\n  constructor() {\r\n    _disableInitializers();\r\n  }\r\n\r\n  function initialize(address _rewardToken, uint256 _rewardRate, uint256 _rewardRateDuration) public initializer {\r\n    rewardToken = IERC20(_rewardToken);\r\n    rewardRate = _rewardRate;\r\n    rewardRateDuration = _rewardRateDuration;\r\n\r\n    __AccessControl_init();\r\n    __UUPSUpgradeable_init();\r\n    _grantRole(DEFAULT_ADMIN_ROLE, msg.sender);\r\n  }\r\n\r\n  /**************************************************/\r\n  /*******************  Modifiers *******************/\r\n  /**************************************************/\r\n  modifier amountGreaterThenZero(uint256 _amount) {\r\n    require(_amount > 0, \"Amount can't be zero\");\r\n    _;\r\n  }\r\n\r\n  modifier onlyWhitelisted(address _stakeTokenContractAddress) {\r\n    require(whitelistContracts[_stakeTokenContractAddress], \"Whitelist: NFT contract is not whitelisted\");\r\n    _;\r\n  }\r\n\r\n  modifier onlyAdmin() {\r\n    require(hasRole(DEFAULT_ADMIN_ROLE, msg.sender), \"Whitelist: Only admin can call this method\");\r\n    _;\r\n  }\r\n\r\n  /**************************************************/\r\n  /************** Internal View Functions *************/\r\n  /**************************************************/\r\n  // helper function\r\n  function _getPortion(uint256 _amount, uint256 _percentage) internal pure returns (uint256) {\r\n    return (_amount * _percentage) / 1000;\r\n  }\r\n\r\n  /**************************************************/\r\n  /*************Owner Calling Functions *************/\r\n  /**************************************************/\r\n\r\n  // set the reward rate\r\n  function setRewardRate(uint256 _rewardRate) external onlyAdmin {\r\n    rewardRate = _rewardRate;\r\n  }\r\n\r\n  // set the reward rate duration\r\n  function setRewardRateDuration(uint256 _rewardRateDuration) external onlyAdmin {\r\n    rewardRateDuration = _rewardRateDuration;\r\n  }\r\n\r\n  // set the payReward\r\n  function setPayReward(bool _payReward) external onlyAdmin {\r\n    payReward = _payReward;\r\n  }\r\n\r\n  // set the unstakeFee\r\n  function setUnstakeFee(uint256 _unstakeFee) external onlyAdmin {\r\n    unstakeFee = _unstakeFee;\r\n  }\r\n\r\n  // transfer token from this account to other if needed\r\n  function transferToken(address _to, uint256 _amount) external onlyAdmin {\r\n    require(rewardToken.transfer(_to, _amount), \"Token transfer failed!\");\r\n  }\r\n\r\n  function pause() public onlyAdmin {\r\n    _pause();\r\n  }\r\n\r\n  function unpause() public onlyAdmin {\r\n    _unpause();\r\n  }\r\n\r\n  /**************************************************/\r\n  /********** External Contract Functions ***********/\r\n  /**************************************************/\r\n\r\n  //Stake functions\r\n  function stakeToken(\r\n    address _tokenContract,\r\n    uint256 _tokenId,\r\n    uint256 _stakedAmount,\r\n    uint8 _tokenType // _tokenType 0 for ERC1155 and 1 for ERC71\r\n  ) external onlyWhitelisted(_tokenContract) whenNotPaused {\r\n    if (_tokenType == 1) {\r\n      require(IERC721(_tokenContract).ownerOf(_tokenId) == msg.sender, \"TokenStaking: Caller must own the NFT token\");\r\n\r\n      IERC721(_tokenContract).transferFrom(msg.sender, address(this), _tokenId);\r\n    } else {\r\n      require(\r\n        IERC1155(_tokenContract).balanceOf(msg.sender, _tokenId) >= _stakedAmount,\r\n        \"TokenStaking: Caller must have sufficient ERC1155 token balance\"\r\n      );\r\n\r\n      IERC1155(_tokenContract).safeTransferFrom(msg.sender, address(this), _tokenId, _stakedAmount, \"0x\");\r\n    }\r\n\r\n    StakingInfo memory newStaking = StakingInfo({\r\n      stakedAmount: _stakedAmount,\r\n      timeOfLastUpdate: block.timestamp,\r\n      oldBalance: 0\r\n    });\r\n\r\n    uint256 index = stakedBalances[msg.sender][_tokenContract][_tokenId].length;\r\n    stakedBalances[msg.sender][_tokenContract][_tokenId].push(newStaking);\r\n\r\n    emit TokensStaked(msg.sender, _tokenContract, _tokenId, _stakedAmount, index);\r\n  }\r\n\r\n  function stakeTokenBatch(\r\n    address[] calldata _tokenContract,\r\n    uint256[] calldata _tokenType,\r\n    uint256[] calldata _tokenId,\r\n    uint256[] calldata _stakedAmount\r\n  ) external whenNotPaused {\r\n    // check input length\r\n    require(\r\n      _tokenContract.length == _tokenType.length &&\r\n        _tokenContract.length == _tokenId.length &&\r\n        _tokenContract.length == _stakedAmount.length,\r\n      \"TokenStaking: input array length is invalid\"\r\n    );\r\n\r\n    uint256 len = _tokenContract.length;\r\n    uint256 i;\r\n    for (i; i < len; i++) {\r\n      require(whitelistContracts[_tokenContract[i]], \"Whitelist: NFT contract is not whitelisted\");\r\n      // check token type and transfer it\r\n      if (_tokenType[i] == 0) {\r\n        require(\r\n          IERC1155(_tokenContract[i]).balanceOf(msg.sender, _tokenId[i]) >= _stakedAmount[i],\r\n          \"TokenStaking: Caller must have sufficient ERC1155 token balance\"\r\n        );\r\n        IERC1155(_tokenContract[i]).safeTransferFrom(msg.sender, address(this), _tokenId[i], _stakedAmount[i], \"0x\");\r\n      } else {\r\n        require(\r\n          IERC721(_tokenContract[i]).ownerOf(_tokenId[i]) == msg.sender,\r\n          \"TokenStaking: Caller must own the ERC721 token\"\r\n        );\r\n        IERC721(_tokenContract[i]).transferFrom(msg.sender, address(this), _tokenId[i]);\r\n      }\r\n      // add stake data\r\n      StakingInfo memory newStaking = StakingInfo({\r\n        stakedAmount: _stakedAmount[i],\r\n        timeOfLastUpdate: block.timestamp,\r\n        oldBalance: 0\r\n      });\r\n      uint256 index = stakedBalances[msg.sender][_tokenContract[i]][_tokenId[i]].length;\r\n      stakedBalances[msg.sender][_tokenContract[i]][_tokenId[i]].push(newStaking);\r\n\r\n      emit TokensStaked(msg.sender, _tokenContract[i], _tokenId[i], _stakedAmount[i], index);\r\n    }\r\n  }\r\n\r\n  //Unstake functions\r\n  function unStakeToken(\r\n    address _tokenContract,\r\n    uint256 _tokenId,\r\n    uint256 _unStakedAmount,\r\n    uint256 _index,\r\n    uint8 _tokenType // _tokenType 0 for ERC1155 and 1 for ERC71\r\n  ) external onlyWhitelisted(_tokenContract) whenNotPaused nonReentrant {\r\n    require(\r\n      stakedBalances[msg.sender][_tokenContract][_tokenId][_index].stakedAmount >= _unStakedAmount,\r\n      \"TokenStaking: Insufficient Staked NFT token balance\"\r\n    );\r\n    if (_tokenType == 1) {\r\n      require(\r\n        IERC721(_tokenContract).ownerOf(_tokenId) == address(this),\r\n        \"TokenStaking: Contract must own the ERC721 token\"\r\n      );\r\n    } else {\r\n      require(\r\n        IERC1155(_tokenContract).balanceOf(address(this), _tokenId) >= _unStakedAmount,\r\n        \"TokenStaking: Contract must have sufficient ERC1155 token balance\"\r\n      );\r\n    }\r\n    // claim all rewards for current time\r\n    if (payReward) {\r\n      claimRewards(_tokenContract, _tokenId, _index);\r\n    }\r\n    stakedBalances[msg.sender][_tokenContract][_tokenId][_index].stakedAmount -= _unStakedAmount;\r\n\r\n    if (_tokenType == 0) {\r\n      IERC1155(_tokenContract).safeTransferFrom(address(this), msg.sender, _tokenId, _unStakedAmount, \"0x\");\r\n    } else {\r\n      IERC721(_tokenContract).transferFrom(address(this), msg.sender, _tokenId);\r\n    }\r\n\r\n    emit TokensUnstaked(msg.sender, _tokenContract, _tokenId, _unStakedAmount, _index);\r\n  }\r\n\r\n  function unStakeTokenBatch(\r\n    address[] calldata _tokenContract,\r\n    uint256[] calldata _tokenType,\r\n    uint256[] calldata _tokenId,\r\n    uint256[] calldata _unStakedAmount,\r\n    uint256[] calldata _index\r\n  ) external whenNotPaused nonReentrant {\r\n    // check input length\r\n    require(\r\n      _tokenContract.length == _tokenType.length &&\r\n        _tokenContract.length == _tokenId.length &&\r\n        _tokenContract.length == _unStakedAmount.length &&\r\n        _tokenContract.length == _index.length,\r\n      \"TokenStaking: input array length is invalid\"\r\n    );\r\n\r\n    uint256 len = _tokenContract.length;\r\n    uint256 i;\r\n    for (i; i < len; i++) {\r\n      require(\r\n        stakedBalances[msg.sender][_tokenContract[i]][_tokenId[i]][_index[i]].stakedAmount >= _unStakedAmount[i],\r\n        \"TokenStaking: Insufficient Staked NFT token balance\"\r\n      );\r\n      if (_tokenType[i] == 0) {\r\n        require(\r\n          IERC1155(_tokenContract[i]).balanceOf(address(this), _tokenId[i]) >= _unStakedAmount[i],\r\n          \"TokenStaking: Contract must have sufficient ERC1155 token balance\"\r\n        );\r\n      } else {\r\n        require(\r\n          IERC721(_tokenContract[i]).ownerOf(_tokenId[i]) == address(this),\r\n          \"TokenStaking: Contract must own the ERC721 token\"\r\n        );\r\n      }\r\n\r\n      // claim all rewards for current time\r\n      if (payReward) {\r\n        claimRewards(_tokenContract[i], _tokenId[i], _index[i]);\r\n      }\r\n      stakedBalances[msg.sender][_tokenContract[i]][_tokenId[i]][_index[i]].stakedAmount -= _unStakedAmount[i];\r\n\r\n      if (_tokenType[i] == 0) {\r\n        IERC1155(_tokenContract[i]).safeTransferFrom(address(this), msg.sender, _tokenId[i], _unStakedAmount[i], \"0x\");\r\n      } else {\r\n        IERC721(_tokenContract[i]).transferFrom(address(this), msg.sender, _tokenId[i]);\r\n      }\r\n      emit TokensUnstaked(msg.sender, _tokenContract[i], _tokenId[i], _unStakedAmount[i], _index[i]);\r\n    }\r\n  }\r\n\r\n  //Restake functions\r\n  function reStakeToken(\r\n    address _tokenContract,\r\n    uint256 _tokenId,\r\n    uint8 _tokenType, // _tokenType 0 for ERC1155 and 1 for ERC71\r\n    uint256 _index\r\n  ) external onlyWhitelisted(_tokenContract) whenNotPaused nonReentrant {\r\n    uint _reStakedAmount = stakedBalances[msg.sender][_tokenContract][_tokenId][_index].stakedAmount;\r\n    require(_reStakedAmount > 0, \"TokenStaking: Staking Data not found\");\r\n    if (_tokenType == 0) {\r\n      require(\r\n        IERC1155(_tokenContract).balanceOf(address(this), _tokenId) >= _reStakedAmount,\r\n        \"TokenStaking: Contract must have sufficient ERC1155 token balance\"\r\n      );\r\n    } else {\r\n      require(\r\n        IERC721(_tokenContract).ownerOf(_tokenId) == address(this),\r\n        \"TokenStaking: Contract must own the ERC721 token\"\r\n      );\r\n    }\r\n\r\n    // update old blance and time of last update\r\n    stakedBalances[msg.sender][_tokenContract][_tokenId][_index].oldBalance = calculateRewards(\r\n      msg.sender,\r\n      _tokenContract,\r\n      _tokenId,\r\n      _index\r\n    );\r\n    stakedBalances[msg.sender][_tokenContract][_tokenId][_index].timeOfLastUpdate = block.timestamp;\r\n\r\n    emit TokenRestaked(msg.sender, _tokenContract, _tokenId, _reStakedAmount, _index, block.timestamp);\r\n  }\r\n\r\n  // Claim reward\r\n  function claimRewards(\r\n    address _tokenContract,\r\n    uint256 _tokenId,\r\n    uint256 _index\r\n  ) internal whenNotPaused onlyWhitelisted(_tokenContract) returns (bool) {\r\n    // get claimed amount _msgSender\r\n    uint256 rewards = calculateRewards(msg.sender, _tokenContract, _tokenId, _index);\r\n\r\n    require(rewards > 0, \"TokenStaking: No rewards available\");\r\n    require(rewardToken.balanceOf(address(this)) >= rewards, \"TokenStaking: Insufficient reward balance\");\r\n\r\n    stakedBalances[msg.sender][_tokenContract][_tokenId][_index].timeOfLastUpdate = block.timestamp;\r\n\r\n    // transfer reward amount\r\n    uint256 unstakeFeeAmount;\r\n    if (unstakeFee > 0) {\r\n      unstakeFeeAmount = _getPortion(rewards, unstakeFee);\r\n    }\r\n    rewardToken.transfer(\r\n      msg.sender,\r\n      stakedBalances[msg.sender][_tokenContract][_tokenId][_index].oldBalance + rewards - unstakeFeeAmount\r\n    );\r\n\r\n    emit RewardsClaimed(msg.sender, rewards);\r\n\r\n    return true;\r\n  }\r\n\r\n  function calculateRewards(\r\n    address _user,\r\n    address _tokenContract,\r\n    uint256 _tokenId,\r\n    uint256 _index\r\n  ) public view returns (uint256) {\r\n    require(stakedBalances[_user][_tokenContract][_tokenId].length > _index, \"TokenStaking: invalid index\");\r\n    if (stakedBalances[_user][_tokenContract][_tokenId][_index].stakedAmount > 0) {\r\n      uint256 stakingEndTime = stakedBalances[_user][_tokenContract][_tokenId][_index].timeOfLastUpdate + rewardRateDuration;\r\n      require(block.timestamp > stakingEndTime, \"TokenStaking: Staking duration is not completed\");\r\n      uint256 totalRewards = rewardRate *\r\n        // rewardDuration *\r\n        stakedBalances[_user][_tokenContract][_tokenId][_index].stakedAmount;\r\n\r\n      return totalRewards;\r\n    }\r\n    return 0;\r\n  }\r\n\r\n  /**************************************************/\r\n  /********* Whitelisted Contract Functions *********/\r\n  /**************************************************/\r\n\r\n  function addToWhitelist(address[] calldata _whitelistContracts) external onlyAdmin {\r\n    for (uint256 i = 0; i < _whitelistContracts.length; i++) {\r\n      address account = _whitelistContracts[i];\r\n      require(account != address(0), \"Whitelist: Cannot add zero address\");\r\n\r\n      if (!whitelistContracts[account]) {\r\n        whitelistContracts[account] = true;\r\n        emit AddressAdded(account);\r\n      }\r\n    }\r\n  }\r\n\r\n  function removeFromWhitelist(address[] calldata _whitelistContracts) external onlyAdmin {\r\n    for (uint256 i = 0; i < _whitelistContracts.length; i++) {\r\n      address account = _whitelistContracts[i];\r\n      require(whitelistContracts[account], \"Whitelist: Account is not whitelisted\");\r\n\r\n      whitelistContracts[account] = false;\r\n      emit AddressRemoved(account);\r\n    }\r\n  }\r\n\r\n  /**\r\n   *  _authorizeUpgrade\r\n   */\r\n  function _authorizeUpgrade(address newImplementation) internal override onlyRole(DEFAULT_ADMIN_ROLE) {}\r\n\r\n  /**\r\n   * @dev See {IERC165-supportsInterface}.\r\n   */\r\n  function supportsInterface(\r\n    bytes4 interfaceId\r\n  ) public view virtual override(ERC1155Receiver, AccessControlUpgradeable) returns (bool) {\r\n    return super.supportsInterface(interfaceId);\r\n  }\r\n}\r\n",
  "sourcePath": "C:\\Users\\Yash\\Desktop\\Temporary\\Github\\marketplace\\src\\contracts\\Stacking.sol",
  "compiler": {
    "name": "solc",
    "version": "0.8.14+commit.80d49f37.Emscripten.clang"
  },
  "schemaVersion": "3.4.13",
  "updatedAt": "2023-08-01T12:31:39.676Z",
  "devdoc": {
    "kind": "dev",
    "methods": {
      "constructor": {
        "custom:oz-upgrades-unsafe-allow": "constructor"
      },
      "getRoleAdmin(bytes32)": {
        "details": "Returns the admin role that controls `role`. See {grantRole} and {revokeRole}. To change a role's admin, use {_setRoleAdmin}."
      },
      "grantRole(bytes32,address)": {
        "details": "Grants `role` to `account`. If `account` had not been already granted `role`, emits a {RoleGranted} event. Requirements: - the caller must have ``role``'s admin role. May emit a {RoleGranted} event."
      },
      "hasRole(bytes32,address)": {
        "details": "Returns `true` if `account` has been granted `role`."
      },
      "paused()": {
        "details": "Returns true if the contract is paused, and false otherwise."
      },
      "proxiableUUID()": {
        "details": "Implementation of the ERC1822 {proxiableUUID} function. This returns the storage slot used by the implementation. It is used to validate the implementation's compatibility when performing an upgrade. IMPORTANT: A proxy pointing at a proxiable contract should not be considered proxiable itself, because this risks bricking a proxy that upgrades to it, by delegating to itself until out of gas. Thus it is critical that this function revert if invoked through a proxy. This is guaranteed by the `notDelegated` modifier."
      },
      "renounceRole(bytes32,address)": {
        "details": "Revokes `role` from the calling account. Roles are often managed via {grantRole} and {revokeRole}: this function's purpose is to provide a mechanism for accounts to lose their privileges if they are compromised (such as when a trusted device is misplaced). If the calling account had been revoked `role`, emits a {RoleRevoked} event. Requirements: - the caller must be `account`. May emit a {RoleRevoked} event."
      },
      "revokeRole(bytes32,address)": {
        "details": "Revokes `role` from `account`. If `account` had been granted `role`, emits a {RoleRevoked} event. Requirements: - the caller must have ``role``'s admin role. May emit a {RoleRevoked} event."
      },
      "supportsInterface(bytes4)": {
        "details": "See {IERC165-supportsInterface}."
      },
      "upgradeTo(address)": {
        "details": "Upgrade the implementation of the proxy to `newImplementation`. Calls {_authorizeUpgrade}. Emits an {Upgraded} event."
      },
      "upgradeToAndCall(address,bytes)": {
        "details": "Upgrade the implementation of the proxy to `newImplementation`, and subsequently execute the function call encoded in `data`. Calls {_authorizeUpgrade}. Emits an {Upgraded} event."
      }
    },
    "version": 1
  },
  "userdoc": {
    "kind": "user",
    "methods": {},
    "version": 1
  }
}