{
  "contractName": "StakingNFT",
  "abi": [
    {
      "inputs": [],
      "stateMutability": "nonpayable",
      "type": "constructor"
    },
    {
      "anonymous": false,
      "inputs": [
        {
          "indexed": true,
          "internalType": "address",
          "name": "account",
          "type": "address"
        }
      ],
      "name": "AddressAdded",
      "type": "event"
    },
    {
      "anonymous": false,
      "inputs": [
        {
          "indexed": true,
          "internalType": "address",
          "name": "account",
          "type": "address"
        }
      ],
      "name": "AddressRemoved",
      "type": "event"
    },
    {
      "anonymous": false,
      "inputs": [
        {
          "indexed": false,
          "internalType": "address",
          "name": "previousAdmin",
          "type": "address"
        },
        {
          "indexed": false,
          "internalType": "address",
          "name": "newAdmin",
          "type": "address"
        }
      ],
      "name": "AdminChanged",
      "type": "event"
    },
    {
      "anonymous": false,
      "inputs": [
        {
          "indexed": true,
          "internalType": "address",
          "name": "beacon",
          "type": "address"
        }
      ],
      "name": "BeaconUpgraded",
      "type": "event"
    },
    {
      "anonymous": false,
      "inputs": [
        {
          "indexed": false,
          "internalType": "uint8",
          "name": "version",
          "type": "uint8"
        }
      ],
      "name": "Initialized",
      "type": "event"
    },
    {
      "anonymous": false,
      "inputs": [
        {
          "indexed": false,
          "internalType": "address",
          "name": "account",
          "type": "address"
        }
      ],
      "name": "Paused",
      "type": "event"
    },
    {
      "anonymous": false,
      "inputs": [
        {
          "indexed": true,
          "internalType": "address",
          "name": "user",
          "type": "address"
        },
        {
          "indexed": false,
          "internalType": "uint256",
          "name": "amount",
          "type": "uint256"
        }
      ],
      "name": "RewardsClaimed",
      "type": "event"
    },
    {
      "anonymous": false,
      "inputs": [
        {
          "indexed": true,
          "internalType": "bytes32",
          "name": "role",
          "type": "bytes32"
        },
        {
          "indexed": true,
          "internalType": "bytes32",
          "name": "previousAdminRole",
          "type": "bytes32"
        },
        {
          "indexed": true,
          "internalType": "bytes32",
          "name": "newAdminRole",
          "type": "bytes32"
        }
      ],
      "name": "RoleAdminChanged",
      "type": "event"
    },
    {
      "anonymous": false,
      "inputs": [
        {
          "indexed": true,
          "internalType": "bytes32",
          "name": "role",
          "type": "bytes32"
        },
        {
          "indexed": true,
          "internalType": "address",
          "name": "account",
          "type": "address"
        },
        {
          "indexed": true,
          "internalType": "address",
          "name": "sender",
          "type": "address"
        }
      ],
      "name": "RoleGranted",
      "type": "event"
    },
    {
      "anonymous": false,
      "inputs": [
        {
          "indexed": true,
          "internalType": "bytes32",
          "name": "role",
          "type": "bytes32"
        },
        {
          "indexed": true,
          "internalType": "address",
          "name": "account",
          "type": "address"
        },
        {
          "indexed": true,
          "internalType": "address",
          "name": "sender",
          "type": "address"
        }
      ],
      "name": "RoleRevoked",
      "type": "event"
    },
    {
      "anonymous": false,
      "inputs": [
        {
          "indexed": true,
          "internalType": "address",
          "name": "user",
          "type": "address"
        },
        {
          "indexed": true,
          "internalType": "address",
          "name": "tokenContract",
          "type": "address"
        },
        {
          "indexed": true,
          "internalType": "uint256",
          "name": "tokenId",
          "type": "uint256"
        },
        {
          "indexed": false,
          "internalType": "uint256",
          "name": "amount",
          "type": "uint256"
        },
        {
          "indexed": false,
          "internalType": "uint256",
          "name": "index",
          "type": "uint256"
        }
      ],
      "name": "TokensStaked",
      "type": "event"
    },
    {
      "anonymous": false,
      "inputs": [
        {
          "indexed": true,
          "internalType": "address",
          "name": "user",
          "type": "address"
        },
        {
          "indexed": true,
          "internalType": "address",
          "name": "tokenContract",
          "type": "address"
        },
        {
          "indexed": true,
          "internalType": "uint256",
          "name": "tokenId",
          "type": "uint256"
        },
        {
          "indexed": false,
          "internalType": "uint256",
          "name": "amount",
          "type": "uint256"
        },
        {
          "indexed": false,
          "internalType": "uint256",
          "name": "index",
          "type": "uint256"
        }
      ],
      "name": "TokensUnstaked",
      "type": "event"
    },
    {
      "anonymous": false,
      "inputs": [
        {
          "indexed": false,
          "internalType": "address",
          "name": "account",
          "type": "address"
        }
      ],
      "name": "Unpaused",
      "type": "event"
    },
    {
      "anonymous": false,
      "inputs": [
        {
          "indexed": true,
          "internalType": "address",
          "name": "implementation",
          "type": "address"
        }
      ],
      "name": "Upgraded",
      "type": "event"
    },
    {
      "inputs": [],
      "name": "DEFAULT_ADMIN_ROLE",
      "outputs": [
        {
          "internalType": "bytes32",
          "name": "",
          "type": "bytes32"
        }
      ],
      "stateMutability": "view",
      "type": "function"
    },
    {
      "inputs": [
        {
          "internalType": "bytes32",
          "name": "role",
          "type": "bytes32"
        }
      ],
      "name": "getRoleAdmin",
      "outputs": [
        {
          "internalType": "bytes32",
          "name": "",
          "type": "bytes32"
        }
      ],
      "stateMutability": "view",
      "type": "function"
    },
    {
      "inputs": [
        {
          "internalType": "bytes32",
          "name": "role",
          "type": "bytes32"
        },
        {
          "internalType": "address",
          "name": "account",
          "type": "address"
        }
      ],
      "name": "grantRole",
      "outputs": [],
      "stateMutability": "nonpayable",
      "type": "function"
    },
    {
      "inputs": [
        {
          "internalType": "bytes32",
          "name": "role",
          "type": "bytes32"
        },
        {
          "internalType": "address",
          "name": "account",
          "type": "address"
        }
      ],
      "name": "hasRole",
      "outputs": [
        {
          "internalType": "bool",
          "name": "",
          "type": "bool"
        }
      ],
      "stateMutability": "view",
      "type": "function"
    },
    {
      "inputs": [
        {
          "internalType": "address",
          "name": "",
          "type": "address"
        },
        {
          "internalType": "address",
          "name": "",
          "type": "address"
        },
        {
          "internalType": "uint256[]",
          "name": "",
          "type": "uint256[]"
        },
        {
          "internalType": "uint256[]",
          "name": "",
          "type": "uint256[]"
        },
        {
          "internalType": "bytes",
          "name": "",
          "type": "bytes"
        }
      ],
      "name": "onERC1155BatchReceived",
      "outputs": [
        {
          "internalType": "bytes4",
          "name": "",
          "type": "bytes4"
        }
      ],
      "stateMutability": "nonpayable",
      "type": "function"
    },
    {
      "inputs": [
        {
          "internalType": "address",
          "name": "",
          "type": "address"
        },
        {
          "internalType": "address",
          "name": "",
          "type": "address"
        },
        {
          "internalType": "uint256",
          "name": "",
          "type": "uint256"
        },
        {
          "internalType": "uint256",
          "name": "",
          "type": "uint256"
        },
        {
          "internalType": "bytes",
          "name": "",
          "type": "bytes"
        }
      ],
      "name": "onERC1155Received",
      "outputs": [
        {
          "internalType": "bytes4",
          "name": "",
          "type": "bytes4"
        }
      ],
      "stateMutability": "nonpayable",
      "type": "function"
    },
    {
      "inputs": [],
      "name": "paused",
      "outputs": [
        {
          "internalType": "bool",
          "name": "",
          "type": "bool"
        }
      ],
      "stateMutability": "view",
      "type": "function"
    },
    {
      "inputs": [],
      "name": "payReward",
      "outputs": [
        {
          "internalType": "bool",
          "name": "",
          "type": "bool"
        }
      ],
      "stateMutability": "view",
      "type": "function"
    },
    {
      "inputs": [],
      "name": "proxiableUUID",
      "outputs": [
        {
          "internalType": "bytes32",
          "name": "",
          "type": "bytes32"
        }
      ],
      "stateMutability": "view",
      "type": "function"
    },
    {
      "inputs": [
        {
          "internalType": "bytes32",
          "name": "role",
          "type": "bytes32"
        },
        {
          "internalType": "address",
          "name": "account",
          "type": "address"
        }
      ],
      "name": "renounceRole",
      "outputs": [],
      "stateMutability": "nonpayable",
      "type": "function"
    },
    {
      "inputs": [
        {
          "internalType": "bytes32",
          "name": "role",
          "type": "bytes32"
        },
        {
          "internalType": "address",
          "name": "account",
          "type": "address"
        }
      ],
      "name": "revokeRole",
      "outputs": [],
      "stateMutability": "nonpayable",
      "type": "function"
    },
    {
      "inputs": [],
      "name": "rewardRate",
      "outputs": [
        {
          "internalType": "uint256",
          "name": "",
          "type": "uint256"
        }
      ],
      "stateMutability": "view",
      "type": "function"
    },
    {
      "inputs": [],
      "name": "rewardRateDuration",
      "outputs": [
        {
          "internalType": "uint256",
          "name": "",
          "type": "uint256"
        }
      ],
      "stateMutability": "view",
      "type": "function"
    },
    {
      "inputs": [],
      "name": "rewardToken",
      "outputs": [
        {
          "internalType": "contract IERC20",
          "name": "",
          "type": "address"
        }
      ],
      "stateMutability": "view",
      "type": "function"
    },
    {
      "inputs": [
        {
          "internalType": "address",
          "name": "",
          "type": "address"
        },
        {
          "internalType": "address",
          "name": "",
          "type": "address"
        },
        {
          "internalType": "uint256",
          "name": "",
          "type": "uint256"
        },
        {
          "internalType": "uint256",
          "name": "",
          "type": "uint256"
        }
      ],
      "name": "stakedBalances",
      "outputs": [
        {
          "internalType": "uint256",
          "name": "stakedAmount",
          "type": "uint256"
        },
        {
          "internalType": "uint256",
          "name": "timeOfLastUpdate",
          "type": "uint256"
        }
      ],
      "stateMutability": "view",
      "type": "function"
    },
    {
      "inputs": [],
      "name": "totalStakedAmount",
      "outputs": [
        {
          "internalType": "uint256",
          "name": "",
          "type": "uint256"
        }
      ],
      "stateMutability": "view",
      "type": "function"
    },
    {
      "inputs": [
        {
          "internalType": "address",
          "name": "newImplementation",
          "type": "address"
        }
      ],
      "name": "upgradeTo",
      "outputs": [],
      "stateMutability": "nonpayable",
      "type": "function"
    },
    {
      "inputs": [
        {
          "internalType": "address",
          "name": "newImplementation",
          "type": "address"
        },
        {
          "internalType": "bytes",
          "name": "data",
          "type": "bytes"
        }
      ],
      "name": "upgradeToAndCall",
      "outputs": [],
      "stateMutability": "payable",
      "type": "function"
    },
    {
      "inputs": [
        {
          "internalType": "address",
          "name": "",
          "type": "address"
        }
      ],
      "name": "whitelistContracts",
      "outputs": [
        {
          "internalType": "bool",
          "name": "",
          "type": "bool"
        }
      ],
      "stateMutability": "view",
      "type": "function"
    },
    {
      "inputs": [
        {
          "internalType": "address",
          "name": "_rewardToken",
          "type": "address"
        },
        {
          "internalType": "uint256",
          "name": "_rewardRate",
          "type": "uint256"
        },
        {
          "internalType": "uint256",
          "name": "_rewardRateDuration",
          "type": "uint256"
        }
      ],
      "name": "initialize",
      "outputs": [],
      "stateMutability": "nonpayable",
      "type": "function"
    },
    {
      "inputs": [
        {
          "internalType": "uint256",
          "name": "_rewardRate",
          "type": "uint256"
        }
      ],
      "name": "setRewardRate",
      "outputs": [],
      "stateMutability": "nonpayable",
      "type": "function"
    },
    {
      "inputs": [
        {
          "internalType": "uint256",
          "name": "_rewardRateDuration",
          "type": "uint256"
        }
      ],
      "name": "setRewardRateDuration",
      "outputs": [],
      "stateMutability": "nonpayable",
      "type": "function"
    },
    {
      "inputs": [
        {
          "internalType": "bool",
          "name": "_payReward",
          "type": "bool"
        }
      ],
      "name": "setPayReward",
      "outputs": [],
      "stateMutability": "nonpayable",
      "type": "function"
    },
    {
      "inputs": [
        {
          "internalType": "address",
          "name": "_to",
          "type": "address"
        },
        {
          "internalType": "uint256",
          "name": "_amount",
          "type": "uint256"
        }
      ],
      "name": "transferToken",
      "outputs": [],
      "stateMutability": "nonpayable",
      "type": "function"
    },
    {
      "inputs": [],
      "name": "pause",
      "outputs": [],
      "stateMutability": "nonpayable",
      "type": "function"
    },
    {
      "inputs": [],
      "name": "unpause",
      "outputs": [],
      "stateMutability": "nonpayable",
      "type": "function"
    },
    {
      "inputs": [
        {
          "internalType": "address",
          "name": "_erc721Contract",
          "type": "address"
        },
        {
          "internalType": "uint256",
          "name": "_tokenId",
          "type": "uint256"
        }
      ],
      "name": "stakERC721Token",
      "outputs": [],
      "stateMutability": "nonpayable",
      "type": "function"
    },
    {
      "inputs": [
        {
          "internalType": "address",
          "name": "_erc1155Contract",
          "type": "address"
        },
        {
          "internalType": "uint256",
          "name": "_tokenId",
          "type": "uint256"
        },
        {
          "internalType": "uint256",
          "name": "_stakedAmount",
          "type": "uint256"
        }
      ],
      "name": "stakERC1155Token",
      "outputs": [],
      "stateMutability": "nonpayable",
      "type": "function"
    },
    {
      "inputs": [
        {
          "internalType": "address",
          "name": "_erc721Contract",
          "type": "address"
        },
        {
          "internalType": "uint256",
          "name": "_tokenId",
          "type": "uint256"
        },
        {
          "internalType": "uint256",
          "name": "_index",
          "type": "uint256"
        }
      ],
      "name": "unStakERC721Token",
      "outputs": [],
      "stateMutability": "nonpayable",
      "type": "function"
    },
    {
      "inputs": [
        {
          "internalType": "address",
          "name": "_erc1155Contract",
          "type": "address"
        },
        {
          "internalType": "uint256",
          "name": "_tokenId",
          "type": "uint256"
        },
        {
          "internalType": "uint256",
          "name": "_unStakedAmount",
          "type": "uint256"
        },
        {
          "internalType": "uint256",
          "name": "_index",
          "type": "uint256"
        }
      ],
      "name": "unStakERC1155Token",
      "outputs": [],
      "stateMutability": "nonpayable",
      "type": "function"
    },
    {
      "inputs": [
        {
          "internalType": "address",
          "name": "_user",
          "type": "address"
        },
        {
          "internalType": "address",
          "name": "_tokenContract",
          "type": "address"
        },
        {
          "internalType": "uint256",
          "name": "_tokenId",
          "type": "uint256"
        },
        {
          "internalType": "uint256",
          "name": "_index",
          "type": "uint256"
        }
      ],
      "name": "calculateRewards",
      "outputs": [
        {
          "internalType": "uint256",
          "name": "",
          "type": "uint256"
        }
      ],
      "stateMutability": "view",
      "type": "function"
    },
    {
      "inputs": [
        {
          "internalType": "address[]",
          "name": "_whitelistContracts",
          "type": "address[]"
        }
      ],
      "name": "addToWhitelist",
      "outputs": [],
      "stateMutability": "nonpayable",
      "type": "function"
    },
    {
      "inputs": [
        {
          "internalType": "address[]",
          "name": "_whitelistContracts",
          "type": "address[]"
        }
      ],
      "name": "removeFromWhitelist",
      "outputs": [],
      "stateMutability": "nonpayable",
      "type": "function"
    },
    {
      "inputs": [
        {
          "internalType": "bytes4",
          "name": "interfaceId",
          "type": "bytes4"
        }
      ],
      "name": "supportsInterface",
      "outputs": [
        {
          "internalType": "bool",
          "name": "",
          "type": "bool"
        }
      ],
      "stateMutability": "view",
      "type": "function"
    }
  ],
  "bytecode": "0x60a06040523073ffffffffffffffffffffffffffffffffffffffff1660809073ffffffffffffffffffffffffffffffffffffffff168152503480156200004457600080fd5b50600161012d819055506200005e6200006460201b60201c565b6200020f565b600060019054906101000a900460ff1615620000b7576040517f08c379a0000000000000000000000000000000000000000000000000000000008152600401620000ae90620001b2565b60405180910390fd5b60ff801660008054906101000a900460ff1660ff161015620001295760ff6000806101000a81548160ff021916908360ff1602179055507f7f26b83ff96e1f2b6a682f133852f6798a09c465da95921460cefb384740249860ff604051620001209190620001f2565b60405180910390a15b565b600082825260208201905092915050565b7f496e697469616c697a61626c653a20636f6e747261637420697320696e69746960008201527f616c697a696e6700000000000000000000000000000000000000000000000000602082015250565b60006200019a6027836200012b565b9150620001a7826200013c565b604082019050919050565b60006020820190508181036000830152620001cd816200018b565b9050919050565b600060ff82169050919050565b620001ec81620001d4565b82525050565b6000602082019050620002096000830184620001e1565b92915050565b608051615ae862000247600039600081816109f801528181610a8601528181610bd601528181610c640152610d140152615ae86000f3fe6080604052600436106101f95760003560e01c80637b0a47ee1161010d578063af5a6c7e116100a0578063db4172401161006f578063db417240146106f7578063e51b9bc814610734578063efea48bc1461075d578063f23a6e6114610788578063f7c618c1146107c5576101f9565b8063af5a6c7e1461062b578063bc197c8114610668578063d048fa8b146106a5578063d547741f146106ce576101f9565b806399a93df2116100dc57806399a93df2146105705780639c23fe20146105ae5780639e447fc6146105d7578063a217fddf14610600576101f9565b80637b0a47ee146104c85780637f649783146104f35780638456cb591461051c57806391d1485414610533576101f9565b806352d1902d116101905780636509698d1161015f5780636509698d146103f957806374df39e3146104225780637842a3a41461044b57806379c4e785146104765780637a1ac61e1461049f576101f9565b806352d1902d1461034f578063548db1741461037a578063567e98f9146103a35780635c975abb146103ce576101f9565b806336568abe116101cc57806336568abe146102ca5780633659cfe6146102f35780633f4ba83a1461031c5780634f1ef28614610333576101f9565b806301ffc9a7146101fe5780631072cbea1461023b578063248a9ca3146102645780632f2ff15d146102a1575b600080fd5b34801561020a57600080fd5b5061022560048036038101906102209190613a4b565b6107f0565b6040516102329190613a93565b60405180910390f35b34801561024757600080fd5b50610262600480360381019061025d9190613b42565b610802565b005b34801561027057600080fd5b5061028b60048036038101906102869190613bb8565b610932565b6040516102989190613bf4565b60405180910390f35b3480156102ad57600080fd5b506102c860048036038101906102c39190613c0f565b610952565b005b3480156102d657600080fd5b506102f160048036038101906102ec9190613c0f565b610973565b005b3480156102ff57600080fd5b5061031a60048036038101906103159190613c4f565b6109f6565b005b34801561032857600080fd5b50610331610b7e565b005b61034d60048036038101906103489190613dc2565b610bd4565b005b34801561035b57600080fd5b50610364610d10565b6040516103719190613bf4565b60405180910390f35b34801561038657600080fd5b506103a1600480360381019061039c9190613e7e565b610dc9565b005b3480156103af57600080fd5b506103b8610f91565b6040516103c59190613eda565b60405180910390f35b3480156103da57600080fd5b506103e3610f98565b6040516103f09190613a93565b60405180910390f35b34801561040557600080fd5b50610420600480360381019061041b9190613ef5565b610faf565b005b34801561042e57600080fd5b5061044960048036038101906104449190613f22565b611006565b005b34801561045757600080fd5b506104606113b7565b60405161046d9190613a93565b60405180910390f35b34801561048257600080fd5b5061049d60048036038101906104989190613f22565b6113cb565b005b3480156104ab57600080fd5b506104c660048036038101906104c19190613f22565b611817565b005b3480156104d457600080fd5b506104dd6119bf565b6040516104ea9190613eda565b60405180910390f35b3480156104ff57600080fd5b5061051a60048036038101906105159190613e7e565b6119c6565b005b34801561052857600080fd5b50610531611bc3565b005b34801561053f57600080fd5b5061055a60048036038101906105559190613c0f565b611c19565b6040516105679190613a93565b60405180910390f35b34801561057c57600080fd5b5061059760048036038101906105929190613f75565b611c84565b6040516105a5929190613fdc565b60405180910390f35b3480156105ba57600080fd5b506105d560048036038101906105d09190614005565b611ce0565b005b3480156105e357600080fd5b506105fe60048036038101906105f99190613ef5565b6120fa565b005b34801561060c57600080fd5b50610615612151565b6040516106229190613bf4565b60405180910390f35b34801561063757600080fd5b50610652600480360381019061064d9190613c4f565b612158565b60405161065f9190613a93565b60405180910390f35b34801561067457600080fd5b5061068f600480360381019061068a919061412f565b612179565b60405161069c919061420d565b60405180910390f35b3480156106b157600080fd5b506106cc60048036038101906106c79190613b42565b61218e565b005b3480156106da57600080fd5b506106f560048036038101906106f09190613c0f565b612568565b005b34801561070357600080fd5b5061071e60048036038101906107199190613f75565b612589565b60405161072b9190613eda565b60405180910390f35b34801561074057600080fd5b5061075b60048036038101906107569190614254565b612916565b005b34801561076957600080fd5b50610772612980565b60405161077f9190613eda565b60405180910390f35b34801561079457600080fd5b506107af60048036038101906107aa9190614281565b612987565b6040516107bc919061420d565b60405180910390f35b3480156107d157600080fd5b506107da61299c565b6040516107e79190614377565b60405180910390f35b60006107fb826129c3565b9050919050565b61080f6000801b33611c19565b61084e576040517f08c379a000000000000000000000000000000000000000000000000000000000815260040161084590614415565b60405180910390fd5b61012f60009054906101000a900473ffffffffffffffffffffffffffffffffffffffff1673ffffffffffffffffffffffffffffffffffffffff1663a9059cbb83836040518363ffffffff1660e01b81526004016108ac929190614444565b6020604051808303816000875af11580156108cb573d6000803e3d6000fd5b505050506040513d601f19601f820116820180604052508101906108ef9190614482565b61092e576040517f08c379a0000000000000000000000000000000000000000000000000000000008152600401610925906144fb565b60405180910390fd5b5050565b600060976000838152602001908152602001600020600101549050919050565b61095b82610932565b61096481612a3d565b61096e8383612a51565b505050565b61097b612b32565b73ffffffffffffffffffffffffffffffffffffffff168173ffffffffffffffffffffffffffffffffffffffff16146109e8576040517f08c379a00000000000000000000000000000000000000000000000000000000081526004016109df9061458d565b60405180910390fd5b6109f28282612b3a565b5050565b7f000000000000000000000000000000000000000000000000000000000000000073ffffffffffffffffffffffffffffffffffffffff163073ffffffffffffffffffffffffffffffffffffffff1603610a84576040517f08c379a0000000000000000000000000000000000000000000000000000000008152600401610a7b9061461f565b60405180910390fd5b7f000000000000000000000000000000000000000000000000000000000000000073ffffffffffffffffffffffffffffffffffffffff16610ac3612c1c565b73ffffffffffffffffffffffffffffffffffffffff1614610b19576040517f08c379a0000000000000000000000000000000000000000000000000000000008152600401610b10906146b1565b60405180910390fd5b610b2281612c73565b610b7b81600067ffffffffffffffff811115610b4157610b40613c97565b5b6040519080825280601f01601f191660200182016040528015610b735781602001600182028036833780820191505090505b506000612c84565b50565b610b8b6000801b33611c19565b610bca576040517f08c379a0000000000000000000000000000000000000000000000000000000008152600401610bc190614415565b60405180910390fd5b610bd2612df2565b565b7f000000000000000000000000000000000000000000000000000000000000000073ffffffffffffffffffffffffffffffffffffffff163073ffffffffffffffffffffffffffffffffffffffff1603610c62576040517f08c379a0000000000000000000000000000000000000000000000000000000008152600401610c599061461f565b60405180910390fd5b7f000000000000000000000000000000000000000000000000000000000000000073ffffffffffffffffffffffffffffffffffffffff16610ca1612c1c565b73ffffffffffffffffffffffffffffffffffffffff1614610cf7576040517f08c379a0000000000000000000000000000000000000000000000000000000008152600401610cee906146b1565b60405180910390fd5b610d0082612c73565b610d0c82826001612c84565b5050565b60007f000000000000000000000000000000000000000000000000000000000000000073ffffffffffffffffffffffffffffffffffffffff163073ffffffffffffffffffffffffffffffffffffffff1614610da0576040517f08c379a0000000000000000000000000000000000000000000000000000000008152600401610d9790614743565b60405180910390fd5b7f360894a13ba1a3210667c828492db98dca3e2076cc3735a920a3ca505d382bbc60001b905090565b610dd66000801b33611c19565b610e15576040517f08c379a0000000000000000000000000000000000000000000000000000000008152600401610e0c90614415565b60405180910390fd5b60005b82829050811015610f8c576000838383818110610e3857610e37614763565b5b9050602002016020810190610e4d9190613c4f565b905061013460008273ffffffffffffffffffffffffffffffffffffffff1673ffffffffffffffffffffffffffffffffffffffff16815260200190815260200160002060009054906101000a900460ff16610edc576040517f08c379a0000000000000000000000000000000000000000000000000000000008152600401610ed390614804565b60405180910390fd5b600061013460008373ffffffffffffffffffffffffffffffffffffffff1673ffffffffffffffffffffffffffffffffffffffff16815260200190815260200160002060006101000a81548160ff0219169083151502179055508073ffffffffffffffffffffffffffffffffffffffff167f24a12366c02e13fe4a9e03d86a8952e85bb74a456c16e4a18b6d8295700b74bb60405160405180910390a2508080610f8490614853565b915050610e18565b505050565b6101325481565b6000603360009054906101000a900460ff16905090565b610fbc6000801b33611c19565b610ffb576040517f08c379a0000000000000000000000000000000000000000000000000000000008152600401610ff290614415565b60405180910390fd5b806101318190555050565b8261013460008273ffffffffffffffffffffffffffffffffffffffff1673ffffffffffffffffffffffffffffffffffffffff16815260200190815260200160002060009054906101000a900460ff16611094576040517f08c379a000000000000000000000000000000000000000000000000000000000815260040161108b9061490d565b60405180910390fd5b61109c612e55565b818473ffffffffffffffffffffffffffffffffffffffff1662fdd58e33866040518363ffffffff1660e01b81526004016110d7929190614444565b602060405180830381865afa1580156110f4573d6000803e3d6000fd5b505050506040513d601f19601f820116820180604052508101906111189190614942565b1015611159576040517f08c379a0000000000000000000000000000000000000000000000000000000008152600401611150906149e1565b60405180910390fd5b8373ffffffffffffffffffffffffffffffffffffffff1663f242432a333086866040518563ffffffff1660e01b81526004016111989493929190614a5e565b600060405180830381600087803b1580156111b257600080fd5b505af11580156111c6573d6000803e3d6000fd5b5050505060006040518060400160405280848152602001428152509050600061012e60003373ffffffffffffffffffffffffffffffffffffffff1673ffffffffffffffffffffffffffffffffffffffff16815260200190815260200160002060008773ffffffffffffffffffffffffffffffffffffffff1673ffffffffffffffffffffffffffffffffffffffff168152602001908152602001600020600086815260200190815260200160002080549050905061012e60003373ffffffffffffffffffffffffffffffffffffffff1673ffffffffffffffffffffffffffffffffffffffff16815260200190815260200160002060008773ffffffffffffffffffffffffffffffffffffffff1673ffffffffffffffffffffffffffffffffffffffff168152602001908152602001600020600086815260200190815260200160002082908060018154018082558091505060019003906000526020600020906002020160009091909190915060008201518160000155602082015181600101555050848673ffffffffffffffffffffffffffffffffffffffff163373ffffffffffffffffffffffffffffffffffffffff167fc1422af7e43d777469d796ab303d8d25d600d97d1ba738791ab5ac48cf123f9387856040516113a7929190613fdc565b60405180910390a4505050505050565b61013360009054906101000a900460ff1681565b8261013460008273ffffffffffffffffffffffffffffffffffffffff1673ffffffffffffffffffffffffffffffffffffffff16815260200190815260200160002060009054906101000a900460ff16611459576040517f08c379a00000000000000000000000000000000000000000000000000000000081526004016114509061490d565b60405180910390fd5b611461612e55565b611469612e9f565b600161012e60003373ffffffffffffffffffffffffffffffffffffffff1673ffffffffffffffffffffffffffffffffffffffff16815260200190815260200160002060008673ffffffffffffffffffffffffffffffffffffffff1673ffffffffffffffffffffffffffffffffffffffff1681526020019081526020016000206000858152602001908152602001600020838154811061150b5761150a614763565b5b906000526020600020906002020160000154101561155e576040517f08c379a000000000000000000000000000000000000000000000000000000000815260040161155590614b28565b60405180910390fd5b3073ffffffffffffffffffffffffffffffffffffffff168473ffffffffffffffffffffffffffffffffffffffff16636352211e856040518263ffffffff1660e01b81526004016115ae9190613eda565b602060405180830381865afa1580156115cb573d6000803e3d6000fd5b505050506040513d601f19601f820116820180604052508101906115ef9190614b5d565b73ffffffffffffffffffffffffffffffffffffffff1614611645576040517f08c379a000000000000000000000000000000000000000000000000000000000815260040161163c90614bfc565b60405180910390fd5b61013360009054906101000a900460ff161561166857611666848484612ef0565b505b600161012e60003373ffffffffffffffffffffffffffffffffffffffff1673ffffffffffffffffffffffffffffffffffffffff16815260200190815260200160002060008673ffffffffffffffffffffffffffffffffffffffff1673ffffffffffffffffffffffffffffffffffffffff1681526020019081526020016000206000858152602001908152602001600020838154811061170a57611709614763565b5b9060005260206000209060020201600001600082825461172a9190614c1c565b925050819055508373ffffffffffffffffffffffffffffffffffffffff166323b872dd3033866040518463ffffffff1660e01b815260040161176e93929190614c50565b600060405180830381600087803b15801561178857600080fd5b505af115801561179c573d6000803e3d6000fd5b50505050828473ffffffffffffffffffffffffffffffffffffffff163373ffffffffffffffffffffffffffffffffffffffff167f3164d2896e24bd978cf0b2cc29f4a8406b7051a0a97389415f75b1032e854338600186604051611801929190614cc2565b60405180910390a461181161326d565b50505050565b60008060019054906101000a900460ff161590508080156118485750600160008054906101000a900460ff1660ff16105b80611875575061185730613278565b1580156118745750600160008054906101000a900460ff1660ff16145b5b6118b4576040517f08c379a00000000000000000000000000000000000000000000000000000000081526004016118ab90614d5d565b60405180910390fd5b60016000806101000a81548160ff021916908360ff16021790555080156118f1576001600060016101000a81548160ff0219169083151502179055505b8361012f60006101000a81548173ffffffffffffffffffffffffffffffffffffffff021916908373ffffffffffffffffffffffffffffffffffffffff1602179055508261013081905550816101318190555061194b61329b565b6119536132ec565b6119606000801b33612a51565b80156119b95760008060016101000a81548160ff0219169083151502179055507f7f26b83ff96e1f2b6a682f133852f6798a09c465da95921460cefb384740249860016040516119b09190614dbb565b60405180910390a15b50505050565b6101305481565b6119d36000801b33611c19565b611a12576040517f08c379a0000000000000000000000000000000000000000000000000000000008152600401611a0990614415565b60405180910390fd5b60005b82829050811015611bbe576000838383818110611a3557611a34614763565b5b9050602002016020810190611a4a9190613c4f565b9050600073ffffffffffffffffffffffffffffffffffffffff168173ffffffffffffffffffffffffffffffffffffffff1603611abb576040517f08c379a0000000000000000000000000000000000000000000000000000000008152600401611ab290614e48565b60405180910390fd5b61013460008273ffffffffffffffffffffffffffffffffffffffff1673ffffffffffffffffffffffffffffffffffffffff16815260200190815260200160002060009054906101000a900460ff16611baa57600161013460008373ffffffffffffffffffffffffffffffffffffffff1673ffffffffffffffffffffffffffffffffffffffff16815260200190815260200160002060006101000a81548160ff0219169083151502179055508073ffffffffffffffffffffffffffffffffffffffff167fa226db3f664042183ee0281230bba26cbf7b5057e50aee7f25a175ff45ce4d7f60405160405180910390a25b508080611bb690614853565b915050611a15565b505050565b611bd06000801b33611c19565b611c0f576040517f08c379a0000000000000000000000000000000000000000000000000000000008152600401611c0690614415565b60405180910390fd5b611c1761333d565b565b60006097600084815260200190815260200160002060000160008373ffffffffffffffffffffffffffffffffffffffff1673ffffffffffffffffffffffffffffffffffffffff16815260200190815260200160002060009054906101000a900460ff16905092915050565b61012e6020528360005260406000206020528260005260406000206020528160005260406000208181548110611cb957600080fd5b90600052602060002090600202016000935093505050508060000154908060010154905082565b8361013460008273ffffffffffffffffffffffffffffffffffffffff1673ffffffffffffffffffffffffffffffffffffffff16815260200190815260200160002060009054906101000a900460ff16611d6e576040517f08c379a0000000000000000000000000000000000000000000000000000000008152600401611d659061490d565b60405180910390fd5b611d76612e9f565b8261012e60003373ffffffffffffffffffffffffffffffffffffffff1673ffffffffffffffffffffffffffffffffffffffff16815260200190815260200160002060008773ffffffffffffffffffffffffffffffffffffffff1673ffffffffffffffffffffffffffffffffffffffff16815260200190815260200160002060008681526020019081526020016000208381548110611e1757611e16614763565b5b9060005260206000209060020201600001541015611e6a576040517f08c379a0000000000000000000000000000000000000000000000000000000008152600401611e6190614eda565b60405180910390fd5b828573ffffffffffffffffffffffffffffffffffffffff1662fdd58e30876040518363ffffffff1660e01b8152600401611ea5929190614444565b602060405180830381865afa158015611ec2573d6000803e3d6000fd5b505050506040513d601f19601f82011682018060405250810190611ee69190614942565b1015611f27576040517f08c379a0000000000000000000000000000000000000000000000000000000008152600401611f1e90614f92565b60405180910390fd5b61013360009054906101000a900460ff1615611f4a57611f48858584612ef0565b505b8261012e60003373ffffffffffffffffffffffffffffffffffffffff1673ffffffffffffffffffffffffffffffffffffffff16815260200190815260200160002060008773ffffffffffffffffffffffffffffffffffffffff1673ffffffffffffffffffffffffffffffffffffffff16815260200190815260200160002060008681526020019081526020016000208381548110611feb57611fea614763565b5b9060005260206000209060020201600001600082825461200b9190614c1c565b925050819055508473ffffffffffffffffffffffffffffffffffffffff1663f242432a303387876040518563ffffffff1660e01b81526004016120519493929190614a5e565b600060405180830381600087803b15801561206b57600080fd5b505af115801561207f573d6000803e3d6000fd5b50505050838573ffffffffffffffffffffffffffffffffffffffff163373ffffffffffffffffffffffffffffffffffffffff167f3164d2896e24bd978cf0b2cc29f4a8406b7051a0a97389415f75b1032e85433886866040516120e3929190613fdc565b60405180910390a46120f361326d565b5050505050565b6121076000801b33611c19565b612146576040517f08c379a000000000000000000000000000000000000000000000000000000000815260040161213d90614415565b60405180910390fd5b806101308190555050565b6000801b81565b6101346020528060005260406000206000915054906101000a900460ff1681565b600063bc197c8160e01b905095945050505050565b8161013460008273ffffffffffffffffffffffffffffffffffffffff1673ffffffffffffffffffffffffffffffffffffffff16815260200190815260200160002060009054906101000a900460ff1661221c576040517f08c379a00000000000000000000000000000000000000000000000000000000081526004016122139061490d565b60405180910390fd5b612224612e55565b3373ffffffffffffffffffffffffffffffffffffffff168373ffffffffffffffffffffffffffffffffffffffff16636352211e846040518263ffffffff1660e01b81526004016122749190613eda565b602060405180830381865afa158015612291573d6000803e3d6000fd5b505050506040513d601f19601f820116820180604052508101906122b59190614b5d565b73ffffffffffffffffffffffffffffffffffffffff161461230b576040517f08c379a000000000000000000000000000000000000000000000000000000000815260040161230290615024565b60405180910390fd5b8273ffffffffffffffffffffffffffffffffffffffff166323b872dd3330856040518463ffffffff1660e01b815260040161234893929190614c50565b600060405180830381600087803b15801561236257600080fd5b505af1158015612376573d6000803e3d6000fd5b505050506000604051806040016040528060018152602001428152509050600061012e60003373ffffffffffffffffffffffffffffffffffffffff1673ffffffffffffffffffffffffffffffffffffffff16815260200190815260200160002060008673ffffffffffffffffffffffffffffffffffffffff1673ffffffffffffffffffffffffffffffffffffffff168152602001908152602001600020600085815260200190815260200160002080549050905061012e60003373ffffffffffffffffffffffffffffffffffffffff1673ffffffffffffffffffffffffffffffffffffffff16815260200190815260200160002060008673ffffffffffffffffffffffffffffffffffffffff1673ffffffffffffffffffffffffffffffffffffffff168152602001908152602001600020600085815260200190815260200160002082908060018154018082558091505060019003906000526020600020906002020160009091909190915060008201518160000155602082015181600101555050838573ffffffffffffffffffffffffffffffffffffffff163373ffffffffffffffffffffffffffffffffffffffff167fc1422af7e43d777469d796ab303d8d25d600d97d1ba738791ab5ac48cf123f93600185604051612559929190614cc2565b60405180910390a45050505050565b61257182610932565b61257a81612a3d565b6125848383612b3a565b505050565b60008161012e60008773ffffffffffffffffffffffffffffffffffffffff1673ffffffffffffffffffffffffffffffffffffffff16815260200190815260200160002060008673ffffffffffffffffffffffffffffffffffffffff1673ffffffffffffffffffffffffffffffffffffffff1681526020019081526020016000206000858152602001908152602001600020805490501161265e576040517f08c379a000000000000000000000000000000000000000000000000000000000815260040161265590615090565b60405180910390fd5b600061012e60008773ffffffffffffffffffffffffffffffffffffffff1673ffffffffffffffffffffffffffffffffffffffff16815260200190815260200160002060008673ffffffffffffffffffffffffffffffffffffffff1673ffffffffffffffffffffffffffffffffffffffff16815260200190815260200160002060008581526020019081526020016000208381548110612700576126ff614763565b5b906000526020600020906002020160000154111561290957600061012e60008773ffffffffffffffffffffffffffffffffffffffff1673ffffffffffffffffffffffffffffffffffffffff16815260200190815260200160002060008673ffffffffffffffffffffffffffffffffffffffff1673ffffffffffffffffffffffffffffffffffffffff168152602001908152602001600020600085815260200190815260200160002083815481106127ba576127b9614763565b5b906000526020600020906002020160010154426127d79190614c1c565b9050600061013154826127ea91906150df565b90506000811161282f576040517f08c379a000000000000000000000000000000000000000000000000000000000815260040161282690615182565b60405180910390fd5b600061012e60008973ffffffffffffffffffffffffffffffffffffffff1673ffffffffffffffffffffffffffffffffffffffff16815260200190815260200160002060008873ffffffffffffffffffffffffffffffffffffffff1673ffffffffffffffffffffffffffffffffffffffff168152602001908152602001600020600087815260200190815260200160002085815481106128d1576128d0614763565b5b90600052602060002090600202016000015482610130546128f291906151a2565b6128fc91906151a2565b905080935050505061290e565b600090505b949350505050565b6129236000801b33611c19565b612962576040517f08c379a000000000000000000000000000000000000000000000000000000000815260040161295990614415565b60405180910390fd5b8061013360006101000a81548160ff02191690831515021790555050565b6101315481565b600063f23a6e6160e01b905095945050505050565b61012f60009054906101000a900473ffffffffffffffffffffffffffffffffffffffff1681565b60007f4e2312e0000000000000000000000000000000000000000000000000000000007bffffffffffffffffffffffffffffffffffffffffffffffffffffffff1916827bffffffffffffffffffffffffffffffffffffffffffffffffffffffff19161480612a365750612a35826133a0565b5b9050919050565b612a4e81612a49612b32565b61340a565b50565b612a5b8282611c19565b612b2e5760016097600084815260200190815260200160002060000160008373ffffffffffffffffffffffffffffffffffffffff1673ffffffffffffffffffffffffffffffffffffffff16815260200190815260200160002060006101000a81548160ff021916908315150217905550612ad3612b32565b73ffffffffffffffffffffffffffffffffffffffff168173ffffffffffffffffffffffffffffffffffffffff16837f2f8788117e7eff1d82e926ec794901d17c78024a50270940304540a733656f0d60405160405180910390a45b5050565b600033905090565b612b448282611c19565b15612c185760006097600084815260200190815260200160002060000160008373ffffffffffffffffffffffffffffffffffffffff1673ffffffffffffffffffffffffffffffffffffffff16815260200190815260200160002060006101000a81548160ff021916908315150217905550612bbd612b32565b73ffffffffffffffffffffffffffffffffffffffff168173ffffffffffffffffffffffffffffffffffffffff16837ff6391f5c32d9c69d2a47ea670b442974b53935d1edc7fd64eb21e047a839171b60405160405180910390a45b5050565b6000612c4a7f360894a13ba1a3210667c828492db98dca3e2076cc3735a920a3ca505d382bbc60001b61348f565b60000160009054906101000a900473ffffffffffffffffffffffffffffffffffffffff16905090565b6000801b612c8081612a3d565b5050565b612cb07f4910fdfa16fed3260ed0e7147f7cc6da11a60208b5b9406d12a635614ffd914360001b613499565b60000160009054906101000a900460ff1615612cd457612ccf836134a3565b612ded565b8273ffffffffffffffffffffffffffffffffffffffff166352d1902d6040518163ffffffff1660e01b8152600401602060405180830381865afa925050508015612d3c57506040513d601f19601f82011682018060405250810190612d399190615211565b60015b612d7b576040517f08c379a0000000000000000000000000000000000000000000000000000000008152600401612d72906152b0565b60405180910390fd5b7f360894a13ba1a3210667c828492db98dca3e2076cc3735a920a3ca505d382bbc60001b8114612de0576040517f08c379a0000000000000000000000000000000000000000000000000000000008152600401612dd790615342565b60405180910390fd5b50612dec83838361355c565b5b505050565b612dfa613588565b6000603360006101000a81548160ff0219169083151502179055507f5db9ee0a495bf2e6ff9c91a7834c1ba4fdd244a5e8aa4e537bd38aeae4b073aa612e3e612b32565b604051612e4b9190615362565b60405180910390a1565b612e5d610f98565b15612e9d576040517f08c379a0000000000000000000000000000000000000000000000000000000008152600401612e94906153c9565b60405180910390fd5b565b600261012d5403612ee5576040517f08c379a0000000000000000000000000000000000000000000000000000000008152600401612edc90615435565b60405180910390fd5b600261012d81905550565b6000612efa612e55565b8361013460008273ffffffffffffffffffffffffffffffffffffffff1673ffffffffffffffffffffffffffffffffffffffff16815260200190815260200160002060009054906101000a900460ff16612f88576040517f08c379a0000000000000000000000000000000000000000000000000000000008152600401612f7f9061490d565b60405180910390fd5b6000612f9633878787612589565b905060008111612fdb576040517f08c379a0000000000000000000000000000000000000000000000000000000008152600401612fd2906154c7565b60405180910390fd5b8061012f60009054906101000a900473ffffffffffffffffffffffffffffffffffffffff1673ffffffffffffffffffffffffffffffffffffffff166370a08231306040518263ffffffff1660e01b81526004016130389190615362565b602060405180830381865afa158015613055573d6000803e3d6000fd5b505050506040513d601f19601f820116820180604052508101906130799190614942565b10156130ba576040517f08c379a00000000000000000000000000000000000000000000000000000000081526004016130b190615559565b60405180910390fd5b4261012e60003373ffffffffffffffffffffffffffffffffffffffff1673ffffffffffffffffffffffffffffffffffffffff16815260200190815260200160002060008873ffffffffffffffffffffffffffffffffffffffff1673ffffffffffffffffffffffffffffffffffffffff1681526020019081526020016000206000878152602001908152602001600020858154811061315b5761315a614763565b5b90600052602060002090600202016001018190555061012f60009054906101000a900473ffffffffffffffffffffffffffffffffffffffff1673ffffffffffffffffffffffffffffffffffffffff1663a9059cbb33836040518363ffffffff1660e01b81526004016131ce929190614444565b6020604051808303816000875af11580156131ed573d6000803e3d6000fd5b505050506040513d601f19601f820116820180604052508101906132119190614482565b503373ffffffffffffffffffffffffffffffffffffffff167ffc30cddea38e2bf4d6ea7d3f9ed3b6ad7f176419f4963bd81318067a4aee73fe826040516132589190613eda565b60405180910390a26001925050509392505050565b600161012d81905550565b6000808273ffffffffffffffffffffffffffffffffffffffff163b119050919050565b600060019054906101000a900460ff166132ea576040517f08c379a00000000000000000000000000000000000000000000000000000000081526004016132e1906155eb565b60405180910390fd5b565b600060019054906101000a900460ff1661333b576040517f08c379a0000000000000000000000000000000000000000000000000000000008152600401613332906155eb565b60405180910390fd5b565b613345612e55565b6001603360006101000a81548160ff0219169083151502179055507f62e78cea01bee320cd4e420270b5ea74000d11b0c9f74754ebdbfc544b05a258613389612b32565b6040516133969190615362565b60405180910390a1565b60007f01ffc9a7000000000000000000000000000000000000000000000000000000007bffffffffffffffffffffffffffffffffffffffffffffffffffffffff1916827bffffffffffffffffffffffffffffffffffffffffffffffffffffffff1916149050919050565b6134148282611c19565b61348b57613421816135d1565b61342f8360001c60206135fe565b60405160200161344092919061571d565b6040516020818303038152906040526040517f08c379a00000000000000000000000000000000000000000000000000000000081526004016134829190615790565b60405180910390fd5b5050565b6000819050919050565b6000819050919050565b6134ac81613278565b6134eb576040517f08c379a00000000000000000000000000000000000000000000000000000000081526004016134e290615824565b60405180910390fd5b806135187f360894a13ba1a3210667c828492db98dca3e2076cc3735a920a3ca505d382bbc60001b61348f565b60000160006101000a81548173ffffffffffffffffffffffffffffffffffffffff021916908373ffffffffffffffffffffffffffffffffffffffff16021790555050565b6135658361383a565b6000825111806135725750805b15613583576135818383613889565b505b505050565b613590610f98565b6135cf576040517f08c379a00000000000000000000000000000000000000000000000000000000081526004016135c690615890565b60405180910390fd5b565b60606135f78273ffffffffffffffffffffffffffffffffffffffff16601460ff166135fe565b9050919050565b60606000600283600261361191906151a2565b61361b91906158b0565b67ffffffffffffffff81111561363457613633613c97565b5b6040519080825280601f01601f1916602001820160405280156136665781602001600182028036833780820191505090505b5090507f30000000000000000000000000000000000000000000000000000000000000008160008151811061369e5761369d614763565b5b60200101907effffffffffffffffffffffffffffffffffffffffffffffffffffffffffffff1916908160001a9053507f78000000000000000000000000000000000000000000000000000000000000008160018151811061370257613701614763565b5b60200101907effffffffffffffffffffffffffffffffffffffffffffffffffffffffffffff1916908160001a9053506000600184600261374291906151a2565b61374c91906158b0565b90505b60018111156137ec577f3031323334353637383961626364656600000000000000000000000000000000600f86166010811061378e5761378d614763565b5b1a60f81b8282815181106137a5576137a4614763565b5b60200101907effffffffffffffffffffffffffffffffffffffffffffffffffffffffffffff1916908160001a905350600485901c9450806137e590615906565b905061374f565b5060008414613830576040517f08c379a00000000000000000000000000000000000000000000000000000000081526004016138279061597b565b60405180910390fd5b8091505092915050565b613843816134a3565b8073ffffffffffffffffffffffffffffffffffffffff167fbc7cd75a20ee27fd9adebab32041f755214dbc6bffa90cc0225b39da2e5c2d3b60405160405180910390a250565b606061389483613278565b6138d3576040517f08c379a00000000000000000000000000000000000000000000000000000000081526004016138ca90615a0d565b60405180910390fd5b6000808473ffffffffffffffffffffffffffffffffffffffff16846040516138fb9190615a74565b600060405180830381855af49150503d8060008114613936576040519150601f19603f3d011682016040523d82523d6000602084013e61393b565b606091505b50915091506139638282604051806060016040528060278152602001615a8c6027913961396d565b9250505092915050565b6060831561397d57829050613988565b613987838361398f565b5b9392505050565b6000825111156139a25781518083602001fd5b806040517f08c379a00000000000000000000000000000000000000000000000000000000081526004016139d69190615790565b60405180910390fd5b6000604051905090565b600080fd5b600080fd5b60007fffffffff0000000000000000000000000000000000000000000000000000000082169050919050565b613a28816139f3565b8114613a3357600080fd5b50565b600081359050613a4581613a1f565b92915050565b600060208284031215613a6157613a606139e9565b5b6000613a6f84828501613a36565b91505092915050565b60008115159050919050565b613a8d81613a78565b82525050565b6000602082019050613aa86000830184613a84565b92915050565b600073ffffffffffffffffffffffffffffffffffffffff82169050919050565b6000613ad982613aae565b9050919050565b613ae981613ace565b8114613af457600080fd5b50565b600081359050613b0681613ae0565b92915050565b6000819050919050565b613b1f81613b0c565b8114613b2a57600080fd5b50565b600081359050613b3c81613b16565b92915050565b60008060408385031215613b5957613b586139e9565b5b6000613b6785828601613af7565b9250506020613b7885828601613b2d565b9150509250929050565b6000819050919050565b613b9581613b82565b8114613ba057600080fd5b50565b600081359050613bb281613b8c565b92915050565b600060208284031215613bce57613bcd6139e9565b5b6000613bdc84828501613ba3565b91505092915050565b613bee81613b82565b82525050565b6000602082019050613c096000830184613be5565b92915050565b60008060408385031215613c2657613c256139e9565b5b6000613c3485828601613ba3565b9250506020613c4585828601613af7565b9150509250929050565b600060208284031215613c6557613c646139e9565b5b6000613c7384828501613af7565b91505092915050565b600080fd5b600080fd5b6000601f19601f8301169050919050565b7f4e487b7100000000000000000000000000000000000000000000000000000000600052604160045260246000fd5b613ccf82613c86565b810181811067ffffffffffffffff82111715613cee57613ced613c97565b5b80604052505050565b6000613d016139df565b9050613d0d8282613cc6565b919050565b600067ffffffffffffffff821115613d2d57613d2c613c97565b5b613d3682613c86565b9050602081019050919050565b82818337600083830152505050565b6000613d65613d6084613d12565b613cf7565b905082815260208101848484011115613d8157613d80613c81565b5b613d8c848285613d43565b509392505050565b600082601f830112613da957613da8613c7c565b5b8135613db9848260208601613d52565b91505092915050565b60008060408385031215613dd957613dd86139e9565b5b6000613de785828601613af7565b925050602083013567ffffffffffffffff811115613e0857613e076139ee565b5b613e1485828601613d94565b9150509250929050565b600080fd5b600080fd5b60008083601f840112613e3e57613e3d613c7c565b5b8235905067ffffffffffffffff811115613e5b57613e5a613e1e565b5b602083019150836020820283011115613e7757613e76613e23565b5b9250929050565b60008060208385031215613e9557613e946139e9565b5b600083013567ffffffffffffffff811115613eb357613eb26139ee565b5b613ebf85828601613e28565b92509250509250929050565b613ed481613b0c565b82525050565b6000602082019050613eef6000830184613ecb565b92915050565b600060208284031215613f0b57613f0a6139e9565b5b6000613f1984828501613b2d565b91505092915050565b600080600060608486031215613f3b57613f3a6139e9565b5b6000613f4986828701613af7565b9350506020613f5a86828701613b2d565b9250506040613f6b86828701613b2d565b9150509250925092565b60008060008060808587031215613f8f57613f8e6139e9565b5b6000613f9d87828801613af7565b9450506020613fae87828801613af7565b9350506040613fbf87828801613b2d565b9250506060613fd087828801613b2d565b91505092959194509250565b6000604082019050613ff16000830185613ecb565b613ffe6020830184613ecb565b9392505050565b6000806000806080858703121561401f5761401e6139e9565b5b600061402d87828801613af7565b945050602061403e87828801613b2d565b935050604061404f87828801613b2d565b925050606061406087828801613b2d565b91505092959194509250565b600067ffffffffffffffff82111561408757614086613c97565b5b602082029050602081019050919050565b60006140ab6140a68461406c565b613cf7565b905080838252602082019050602084028301858111156140ce576140cd613e23565b5b835b818110156140f757806140e38882613b2d565b8452602084019350506020810190506140d0565b5050509392505050565b600082601f83011261411657614115613c7c565b5b8135614126848260208601614098565b91505092915050565b600080600080600060a0868803121561414b5761414a6139e9565b5b600061415988828901613af7565b955050602061416a88828901613af7565b945050604086013567ffffffffffffffff81111561418b5761418a6139ee565b5b61419788828901614101565b935050606086013567ffffffffffffffff8111156141b8576141b76139ee565b5b6141c488828901614101565b925050608086013567ffffffffffffffff8111156141e5576141e46139ee565b5b6141f188828901613d94565b9150509295509295909350565b614207816139f3565b82525050565b600060208201905061422260008301846141fe565b92915050565b61423181613a78565b811461423c57600080fd5b50565b60008135905061424e81614228565b92915050565b60006020828403121561426a576142696139e9565b5b60006142788482850161423f565b91505092915050565b600080600080600060a0868803121561429d5761429c6139e9565b5b60006142ab88828901613af7565b95505060206142bc88828901613af7565b94505060406142cd88828901613b2d565b93505060606142de88828901613b2d565b925050608086013567ffffffffffffffff8111156142ff576142fe6139ee565b5b61430b88828901613d94565b9150509295509295909350565b6000819050919050565b600061433d61433861433384613aae565b614318565b613aae565b9050919050565b600061434f82614322565b9050919050565b600061436182614344565b9050919050565b61437181614356565b82525050565b600060208201905061438c6000830184614368565b92915050565b600082825260208201905092915050565b7f57686974656c6973743a204f6e6c792061646d696e2063616e2063616c6c207460008201527f686973206d6574686f6400000000000000000000000000000000000000000000602082015250565b60006143ff602a83614392565b915061440a826143a3565b604082019050919050565b6000602082019050818103600083015261442e816143f2565b9050919050565b61443e81613ace565b82525050565b60006040820190506144596000830185614435565b6144666020830184613ecb565b9392505050565b60008151905061447c81614228565b92915050565b600060208284031215614498576144976139e9565b5b60006144a68482850161446d565b91505092915050565b7f546f6b656e207472616e73666572206661696c65642100000000000000000000600082015250565b60006144e5601683614392565b91506144f0826144af565b602082019050919050565b60006020820190508181036000830152614514816144d8565b9050919050565b7f416363657373436f6e74726f6c3a2063616e206f6e6c792072656e6f756e636560008201527f20726f6c657320666f722073656c660000000000000000000000000000000000602082015250565b6000614577602f83614392565b91506145828261451b565b604082019050919050565b600060208201905081810360008301526145a68161456a565b9050919050565b7f46756e6374696f6e206d7573742062652063616c6c6564207468726f7567682060008201527f64656c656761746563616c6c0000000000000000000000000000000000000000602082015250565b6000614609602c83614392565b9150614614826145ad565b604082019050919050565b60006020820190508181036000830152614638816145fc565b9050919050565b7f46756e6374696f6e206d7573742062652063616c6c6564207468726f7567682060008201527f6163746976652070726f78790000000000000000000000000000000000000000602082015250565b600061469b602c83614392565b91506146a68261463f565b604082019050919050565b600060208201905081810360008301526146ca8161468e565b9050919050565b7f555550535570677261646561626c653a206d757374206e6f742062652063616c60008201527f6c6564207468726f7567682064656c656761746563616c6c0000000000000000602082015250565b600061472d603883614392565b9150614738826146d1565b604082019050919050565b6000602082019050818103600083015261475c81614720565b9050919050565b7f4e487b7100000000000000000000000000000000000000000000000000000000600052603260045260246000fd5b7f57686974656c6973743a204163636f756e74206973206e6f742077686974656c60008201527f6973746564000000000000000000000000000000000000000000000000000000602082015250565b60006147ee602583614392565b91506147f982614792565b604082019050919050565b6000602082019050818103600083015261481d816147e1565b9050919050565b7f4e487b7100000000000000000000000000000000000000000000000000000000600052601160045260246000fd5b600061485e82613b0c565b91507fffffffffffffffffffffffffffffffffffffffffffffffffffffffffffffffff82036148905761488f614824565b5b600182019050919050565b7f57686974656c6973743a204e465420636f6e7472616374206973206e6f74207760008201527f686974656c697374656400000000000000000000000000000000000000000000602082015250565b60006148f7602a83614392565b91506149028261489b565b604082019050919050565b60006020820190508181036000830152614926816148ea565b9050919050565b60008151905061493c81613b16565b92915050565b600060208284031215614958576149576139e9565b5b60006149668482850161492d565b91505092915050565b7f546f6b656e5374616b696e673a2043616c6c6572206d7573742068617665207360008201527f756666696369656e74204552433131353520746f6b656e2062616c616e636500602082015250565b60006149cb603f83614392565b91506149d68261496f565b604082019050919050565b600060208201905081810360008301526149fa816149be565b9050919050565b600082825260208201905092915050565b7f3078000000000000000000000000000000000000000000000000000000000000600082015250565b6000614a48600283614a01565b9150614a5382614a12565b602082019050919050565b600060a082019050614a736000830187614435565b614a806020830186614435565b614a8d6040830185613ecb565b614a9a6060830184613ecb565b8181036080830152614aab81614a3b565b905095945050505050565b7f546f6b656e5374616b696e673a2045524337323120746f6b656e206973206e6f60008201527f74205374616b6564000000000000000000000000000000000000000000000000602082015250565b6000614b12602883614392565b9150614b1d82614ab6565b604082019050919050565b60006020820190508181036000830152614b4181614b05565b9050919050565b600081519050614b5781613ae0565b92915050565b600060208284031215614b7357614b726139e9565b5b6000614b8184828501614b48565b91505092915050565b7f546f6b656e5374616b696e673a20436f6e7472616374206d757374206f776e2060008201527f7468652045524337323120746f6b656e00000000000000000000000000000000602082015250565b6000614be6603083614392565b9150614bf182614b8a565b604082019050919050565b60006020820190508181036000830152614c1581614bd9565b9050919050565b6000614c2782613b0c565b9150614c3283613b0c565b925082821015614c4557614c44614824565b5b828203905092915050565b6000606082019050614c656000830186614435565b614c726020830185614435565b614c7f6040830184613ecb565b949350505050565b6000819050919050565b6000614cac614ca7614ca284614c87565b614318565b613b0c565b9050919050565b614cbc81614c91565b82525050565b6000604082019050614cd76000830185614cb3565b614ce46020830184613ecb565b9392505050565b7f496e697469616c697a61626c653a20636f6e747261637420697320616c72656160008201527f647920696e697469616c697a6564000000000000000000000000000000000000602082015250565b6000614d47602e83614392565b9150614d5282614ceb565b604082019050919050565b60006020820190508181036000830152614d7681614d3a565b9050919050565b600060ff82169050919050565b6000614da5614da0614d9b84614c87565b614318565b614d7d565b9050919050565b614db581614d8a565b82525050565b6000602082019050614dd06000830184614dac565b92915050565b7f57686974656c6973743a2043616e6e6f7420616464207a65726f20616464726560008201527f7373000000000000000000000000000000000000000000000000000000000000602082015250565b6000614e32602283614392565b9150614e3d82614dd6565b604082019050919050565b60006020820190508181036000830152614e6181614e25565b9050919050565b7f546f6b656e5374616b696e673a20496e73756666696369656e74205374616b6560008201527f64204552433131353520746f6b656e2062616c616e6365000000000000000000602082015250565b6000614ec4603783614392565b9150614ecf82614e68565b604082019050919050565b60006020820190508181036000830152614ef381614eb7565b9050919050565b7f546f6b656e5374616b696e673a20436f6e7472616374206d757374206861766560008201527f2073756666696369656e74204552433131353520746f6b656e2062616c616e6360208201527f6500000000000000000000000000000000000000000000000000000000000000604082015250565b6000614f7c604183614392565b9150614f8782614efa565b606082019050919050565b60006020820190508181036000830152614fab81614f6f565b9050919050565b7f546f6b656e5374616b696e673a2043616c6c6572206d757374206f776e20746860008201527f652045524337323120746f6b656e000000000000000000000000000000000000602082015250565b600061500e602e83614392565b915061501982614fb2565b604082019050919050565b6000602082019050818103600083015261503d81615001565b9050919050565b7f546f6b656e5374616b696e673a20696e76616c696420696e6465780000000000600082015250565b600061507a601b83614392565b915061508582615044565b602082019050919050565b600060208201905081810360008301526150a98161506d565b9050919050565b7f4e487b7100000000000000000000000000000000000000000000000000000000600052601260045260246000fd5b60006150ea82613b0c565b91506150f583613b0c565b925082615105576151046150b0565b5b828204905092915050565b7f546f6b656e5374616b696e673a205374616b696e67206475726174696f6e206960008201527f73206e6f7420636f6d706c657465640000000000000000000000000000000000602082015250565b600061516c602f83614392565b915061517782615110565b604082019050919050565b6000602082019050818103600083015261519b8161515f565b9050919050565b60006151ad82613b0c565b91506151b883613b0c565b9250817fffffffffffffffffffffffffffffffffffffffffffffffffffffffffffffffff04831182151516156151f1576151f0614824565b5b828202905092915050565b60008151905061520b81613b8c565b92915050565b600060208284031215615227576152266139e9565b5b6000615235848285016151fc565b91505092915050565b7f45524331393637557067726164653a206e657720696d706c656d656e7461746960008201527f6f6e206973206e6f742055555053000000000000000000000000000000000000602082015250565b600061529a602e83614392565b91506152a58261523e565b604082019050919050565b600060208201905081810360008301526152c98161528d565b9050919050565b7f45524331393637557067726164653a20756e737570706f727465642070726f7860008201527f6961626c65555549440000000000000000000000000000000000000000000000602082015250565b600061532c602983614392565b9150615337826152d0565b604082019050919050565b6000602082019050818103600083015261535b8161531f565b9050919050565b60006020820190506153776000830184614435565b92915050565b7f5061757361626c653a2070617573656400000000000000000000000000000000600082015250565b60006153b3601083614392565b91506153be8261537d565b602082019050919050565b600060208201905081810360008301526153e2816153a6565b9050919050565b7f5265656e7472616e637947756172643a207265656e7472616e742063616c6c00600082015250565b600061541f601f83614392565b915061542a826153e9565b602082019050919050565b6000602082019050818103600083015261544e81615412565b9050919050565b7f546f6b656e5374616b696e673a204e6f207265776172647320617661696c616260008201527f6c65000000000000000000000000000000000000000000000000000000000000602082015250565b60006154b1602283614392565b91506154bc82615455565b604082019050919050565b600060208201905081810360008301526154e0816154a4565b9050919050565b7f546f6b656e5374616b696e673a20496e73756666696369656e7420726577617260008201527f642062616c616e63650000000000000000000000000000000000000000000000602082015250565b6000615543602983614392565b915061554e826154e7565b604082019050919050565b6000602082019050818103600083015261557281615536565b9050919050565b7f496e697469616c697a61626c653a20636f6e7472616374206973206e6f74206960008201527f6e697469616c697a696e67000000000000000000000000000000000000000000602082015250565b60006155d5602b83614392565b91506155e082615579565b604082019050919050565b60006020820190508181036000830152615604816155c8565b9050919050565b600081905092915050565b7f416363657373436f6e74726f6c3a206163636f756e7420000000000000000000600082015250565b600061564c60178361560b565b915061565782615616565b601782019050919050565b600081519050919050565b60005b8381101561568b578082015181840152602081019050615670565b8381111561569a576000848401525b50505050565b60006156ab82615662565b6156b5818561560b565b93506156c581856020860161566d565b80840191505092915050565b7f206973206d697373696e6720726f6c6520000000000000000000000000000000600082015250565b600061570760118361560b565b9150615712826156d1565b601182019050919050565b60006157288261563f565b915061573482856156a0565b915061573f826156fa565b915061574b82846156a0565b91508190509392505050565b600061576282615662565b61576c8185614392565b935061577c81856020860161566d565b61578581613c86565b840191505092915050565b600060208201905081810360008301526157aa8184615757565b905092915050565b7f455243313936373a206e657720696d706c656d656e746174696f6e206973206e60008201527f6f74206120636f6e747261637400000000000000000000000000000000000000602082015250565b600061580e602d83614392565b9150615819826157b2565b604082019050919050565b6000602082019050818103600083015261583d81615801565b9050919050565b7f5061757361626c653a206e6f7420706175736564000000000000000000000000600082015250565b600061587a601483614392565b915061588582615844565b602082019050919050565b600060208201905081810360008301526158a98161586d565b9050919050565b60006158bb82613b0c565b91506158c683613b0c565b9250827fffffffffffffffffffffffffffffffffffffffffffffffffffffffffffffffff038211156158fb576158fa614824565b5b828201905092915050565b600061591182613b0c565b91506000820361592457615923614824565b5b600182039050919050565b7f537472696e67733a20686578206c656e67746820696e73756666696369656e74600082015250565b6000615965602083614392565b91506159708261592f565b602082019050919050565b6000602082019050818103600083015261599481615958565b9050919050565b7f416464726573733a2064656c65676174652063616c6c20746f206e6f6e2d636f60008201527f6e74726163740000000000000000000000000000000000000000000000000000602082015250565b60006159f7602683614392565b9150615a028261599b565b604082019050919050565b60006020820190508181036000830152615a26816159ea565b9050919050565b600081519050919050565b600081905092915050565b6000615a4e82615a2d565b615a588185615a38565b9350615a6881856020860161566d565b80840191505092915050565b6000615a808284615a43565b91508190509291505056fe416464726573733a206c6f772d6c6576656c2064656c65676174652063616c6c206661696c6564a26469706673582212209f8ed94f7b71e4a1eec1da5814289b8d6d106377654a1dc6512484cebc3bb5f464736f6c634300080e0033",
  "immutableReferences": {
    "1004": [
      {
        "length": 32,
        "start": 2552
      },
      {
        "length": 32,
        "start": 2694
      },
      {
        "length": 32,
        "start": 3030
      },
      {
        "length": 32,
        "start": 3172
      },
      {
        "length": 32,
        "start": 3348
      }
    ]
  },
  "source": "// SPDX-License-Identifier: MIT\r\npragma solidity ^0.8.0;\r\n\r\nimport \"@openzeppelin/contracts/token/ERC721/ERC721.sol\";\r\nimport \"@openzeppelin/contracts/token/ERC721/IERC721Receiver.sol\";\r\nimport \"@openzeppelin/contracts/token/ERC1155/ERC1155.sol\";\r\nimport \"@openzeppelin/contracts/token/ERC1155/utils/ERC1155Holder.sol\";\r\nimport \"@openzeppelin/contracts/token/ERC20/ERC20.sol\";\r\nimport \"@openzeppelin/contracts-upgradeable/security/PausableUpgradeable.sol\";\r\nimport \"@openzeppelin/contracts-upgradeable/access/AccessControlUpgradeable.sol\";\r\nimport \"@openzeppelin/contracts-upgradeable/proxy/utils/Initializable.sol\";\r\nimport \"@openzeppelin/contracts-upgradeable/proxy/utils/UUPSUpgradeable.sol\";\r\nimport \"@openzeppelin/contracts/security/ReentrancyGuard.sol\";\r\n\r\ncontract StakingNFT is PausableUpgradeable, AccessControlUpgradeable, UUPSUpgradeable, ReentrancyGuard, ERC1155Holder {\r\n  struct StakingInfo {\r\n    uint256 stakedAmount;\r\n    uint256 timeOfLastUpdate;\r\n  }\r\n\r\n  // user => contract=> tokenid => StakingInfo\r\n  mapping(address => mapping(address => mapping(uint256 => StakingInfo[]))) public stakedBalances;\r\n\r\n  // the staking and reward token\r\n  IERC20 public rewardToken;\r\n  // the reward rate in percentage\r\n  uint256 public rewardRate;\r\n  // the reward rate duration\r\n  // so the final reward rate will be re (rewardRate/rewardRateDuration)\r\n  uint256 public rewardRateDuration;\r\n\r\n  // Total stake amount\r\n  uint256 public totalStakedAmount;\r\n\r\n  // pay Reward in crypto\r\n  bool public payReward;\r\n\r\n  mapping(address => bool) public whitelistContracts;\r\n\r\n  /**************************************************/\r\n  /******************** Events **********************/\r\n  /**************************************************/\r\n  event TokensStaked(\r\n    address indexed user,\r\n    address indexed tokenContract,\r\n    uint256 indexed tokenId,\r\n    uint256 amount,\r\n    uint256 index\r\n  );\r\n  event TokensUnstaked(\r\n    address indexed user,\r\n    address indexed tokenContract,\r\n    uint256 indexed tokenId,\r\n    uint256 amount,\r\n    uint256 index\r\n  );\r\n  event RewardsClaimed(address indexed user, uint256 amount);\r\n\r\n  event AddressAdded(address indexed account);\r\n  event AddressRemoved(address indexed account);\r\n\r\n  /**************************************************/\r\n  /****************** Constructor *******************/\r\n  /**************************************************/\r\n  /// @custom:oz-upgrades-unsafe-allow constructor\r\n  constructor() {\r\n    _disableInitializers();\r\n  }\r\n\r\n  function initialize(address _rewardToken, uint256 _rewardRate, uint256 _rewardRateDuration) public initializer {\r\n    rewardToken = IERC20(_rewardToken);\r\n    rewardRate = _rewardRate;\r\n    rewardRateDuration = _rewardRateDuration;\r\n\r\n    __AccessControl_init();\r\n    __UUPSUpgradeable_init();\r\n    _grantRole(DEFAULT_ADMIN_ROLE, msg.sender);\r\n  }\r\n\r\n  /**************************************************/\r\n  /*******************  Modifiers *******************/\r\n  /**************************************************/\r\n  modifier amountGreaterThenZero(uint256 _amount) {\r\n    require(_amount > 0, \"Amount can't be zero\");\r\n    _;\r\n  }\r\n\r\n  modifier onlyWhitelisted(address _stakTokenContractAddress) {\r\n    require(whitelistContracts[_stakTokenContractAddress], \"Whitelist: NFT contract is not whitelisted\");\r\n    _;\r\n  }\r\n\r\n  modifier onlyAdmin() {\r\n    require(hasRole(DEFAULT_ADMIN_ROLE, msg.sender), \"Whitelist: Only admin can call this method\");\r\n    _;\r\n  }\r\n\r\n  /**************************************************/\r\n  /************** Internal View Functions *************/\r\n  /**************************************************/\r\n  // helper function\r\n  function _getPortion(uint256 _amount, uint256 _percentage) internal pure returns (uint256) {\r\n    return (_amount * _percentage) / 1000;\r\n  }\r\n\r\n  /**************************************************/\r\n  /*************Owner Calling Functions *************/\r\n  /**************************************************/\r\n\r\n  // set the reward rate\r\n  function setRewardRate(uint256 _rewardRate) external onlyAdmin {\r\n    rewardRate = _rewardRate;\r\n  }\r\n\r\n  // set the reward rate duration\r\n  function setRewardRateDuration(uint256 _rewardRateDuration) external onlyAdmin {\r\n    rewardRateDuration = _rewardRateDuration;\r\n  }\r\n\r\n  // set the payReward\r\n  function setPayReward(bool _payReward) external onlyAdmin {\r\n    payReward = _payReward;\r\n  }\r\n\r\n  // transfer token from this account to other if needed\r\n  function transferToken(address _to, uint256 _amount) external onlyAdmin {\r\n    require(rewardToken.transfer(_to, _amount), \"Token transfer failed!\");\r\n  }\r\n\r\n  function pause() public onlyAdmin {\r\n    _pause();\r\n  }\r\n\r\n  function unpause() public onlyAdmin {\r\n    _unpause();\r\n  }\r\n\r\n  /**************************************************/\r\n  /********** External Contract Functions ***********/\r\n  /**************************************************/\r\n  function stakERC721Token(\r\n    address _erc721Contract,\r\n    uint256 _tokenId\r\n  ) external onlyWhitelisted(_erc721Contract) whenNotPaused {\r\n    require(IERC721(_erc721Contract).ownerOf(_tokenId) == msg.sender, \"TokenStaking: Caller must own the ERC721 token\");\r\n\r\n    IERC721(_erc721Contract).transferFrom(msg.sender, address(this), _tokenId);\r\n\r\n    StakingInfo memory newStaking = StakingInfo({ stakedAmount: 1, timeOfLastUpdate: block.timestamp });\r\n\r\n    uint256 index = stakedBalances[msg.sender][_erc721Contract][_tokenId].length;\r\n    stakedBalances[msg.sender][_erc721Contract][_tokenId].push(newStaking);\r\n\r\n    emit TokensStaked(msg.sender, _erc721Contract, _tokenId, 1, index);\r\n  }\r\n\r\n  function stakERC1155Token(\r\n    address _erc1155Contract,\r\n    uint256 _tokenId,\r\n    uint256 _stakedAmount\r\n  ) external onlyWhitelisted(_erc1155Contract) whenNotPaused {\r\n    require(\r\n      IERC1155(_erc1155Contract).balanceOf(msg.sender, _tokenId) >= _stakedAmount,\r\n      \"TokenStaking: Caller must have sufficient ERC1155 token balance\"\r\n    );\r\n\r\n    IERC1155(_erc1155Contract).safeTransferFrom(msg.sender, address(this), _tokenId, _stakedAmount, \"0x\");\r\n\r\n    StakingInfo memory newStaking = StakingInfo({ stakedAmount: _stakedAmount, timeOfLastUpdate: block.timestamp });\r\n\r\n    uint256 index = stakedBalances[msg.sender][_erc1155Contract][_tokenId].length;\r\n    stakedBalances[msg.sender][_erc1155Contract][_tokenId].push(newStaking);\r\n\r\n    emit TokensStaked(msg.sender, _erc1155Contract, _tokenId, _stakedAmount, index);\r\n  }\r\n\r\n  function unStakERC721Token(\r\n    address _erc721Contract,\r\n    uint256 _tokenId,\r\n    uint256 _index\r\n  ) external onlyWhitelisted(_erc721Contract) whenNotPaused nonReentrant {\r\n    require(\r\n      stakedBalances[msg.sender][_erc721Contract][_tokenId][_index].stakedAmount >= 1,\r\n      \"TokenStaking: ERC721 token is not Staked\"\r\n    );\r\n\r\n    require(\r\n      IERC721(_erc721Contract).ownerOf(_tokenId) == address(this),\r\n      \"TokenStaking: Contract must own the ERC721 token\"\r\n    );\r\n\r\n    // claim all rewards for current time\r\n    if (payReward) {\r\n      claimRewards(_erc721Contract, _tokenId, _index);\r\n    }\r\n\r\n    stakedBalances[msg.sender][_erc721Contract][_tokenId][_index].stakedAmount -= 1;\r\n\r\n    IERC721(_erc721Contract).transferFrom(address(this), msg.sender, _tokenId);\r\n\r\n    emit TokensUnstaked(msg.sender, _erc721Contract, _tokenId, 1, _index);\r\n  }\r\n\r\n  function unStakERC1155Token(\r\n    address _erc1155Contract,\r\n    uint256 _tokenId,\r\n    uint256 _unStakedAmount,\r\n    uint256 _index\r\n  ) external onlyWhitelisted(_erc1155Contract) nonReentrant {\r\n    require(\r\n      stakedBalances[msg.sender][_erc1155Contract][_tokenId][_index].stakedAmount >= _unStakedAmount,\r\n      \"TokenStaking: Insufficient Staked ERC1155 token balance\"\r\n    );\r\n\r\n    require(\r\n      IERC1155(_erc1155Contract).balanceOf(address(this), _tokenId) >= _unStakedAmount,\r\n      \"TokenStaking: Contract must have sufficient ERC1155 token balance\"\r\n    );\r\n\r\n    // claim all rewards for current time\r\n    if (payReward) {\r\n      claimRewards(_erc1155Contract, _tokenId, _index);\r\n    }\r\n    stakedBalances[msg.sender][_erc1155Contract][_tokenId][_index].stakedAmount -= _unStakedAmount;\r\n\r\n    IERC1155(_erc1155Contract).safeTransferFrom(address(this), msg.sender, _tokenId, _unStakedAmount, \"0x\");\r\n\r\n    emit TokensUnstaked(msg.sender, _erc1155Contract, _tokenId, _unStakedAmount, _index);\r\n  }\r\n\r\n  function claimRewards(\r\n    address _tokenContract,\r\n    uint256 _tokenId,\r\n    uint256 _index\r\n  ) internal whenNotPaused onlyWhitelisted(_tokenContract) returns (bool) {\r\n    // get claimed amount _msgSender\r\n    uint256 rewards = calculateRewards(msg.sender, _tokenContract, _tokenId, _index);\r\n\r\n    require(rewards > 0, \"TokenStaking: No rewards available\");\r\n    require(rewardToken.balanceOf(address(this)) >= rewards, \"TokenStaking: Insufficient reward balance\");\r\n\r\n    stakedBalances[msg.sender][_tokenContract][_tokenId][_index].timeOfLastUpdate = block.timestamp;\r\n\r\n    // transfer reward amount\r\n    rewardToken.transfer(msg.sender, rewards);\r\n\r\n    emit RewardsClaimed(msg.sender, rewards);\r\n\r\n    return true;\r\n  }\r\n\r\n  function calculateRewards(\r\n    address _user,\r\n    address _tokenContract,\r\n    uint256 _tokenId,\r\n    uint256 _index\r\n  ) public view returns (uint256) {\r\n    require(stakedBalances[_user][_tokenContract][_tokenId].length > _index, \"TokenStaking: invalid index\");\r\n    if (stakedBalances[_user][_tokenContract][_tokenId][_index].stakedAmount > 0) {\r\n      uint256 StakingTime = block.timestamp - stakedBalances[_user][_tokenContract][_tokenId][_index].timeOfLastUpdate;\r\n      uint256 rewardDuration = StakingTime / rewardRateDuration;\r\n      require(rewardDuration > 0, \"TokenStaking: Staking duration is not completed\");\r\n      uint256 totalRewards = rewardRate *\r\n        rewardDuration *\r\n        stakedBalances[_user][_tokenContract][_tokenId][_index].stakedAmount;\r\n\r\n      return totalRewards;\r\n    }\r\n    return 0;\r\n  }\r\n\r\n  /**************************************************/\r\n  /********* Whitelisted Contract Functions *********/\r\n  /**************************************************/\r\n\r\n  function addToWhitelist(address[] calldata _whitelistContracts) external onlyAdmin {\r\n    for (uint256 i = 0; i < _whitelistContracts.length; i++) {\r\n      address account = _whitelistContracts[i];\r\n      require(account != address(0), \"Whitelist: Cannot add zero address\");\r\n\r\n      if (!whitelistContracts[account]) {\r\n        whitelistContracts[account] = true;\r\n        emit AddressAdded(account);\r\n      }\r\n    }\r\n  }\r\n\r\n  function removeFromWhitelist(address[] calldata _whitelistContracts) external onlyAdmin {\r\n    for (uint256 i = 0; i < _whitelistContracts.length; i++) {\r\n      address account = _whitelistContracts[i];\r\n      require(whitelistContracts[account], \"Whitelist: Account is not whitelisted\");\r\n\r\n      whitelistContracts[account] = false;\r\n      emit AddressRemoved(account);\r\n    }\r\n  }\r\n\r\n  /**\r\n   *  _authorizeUpgrade\r\n   */\r\n  function _authorizeUpgrade(address newImplementation) internal override onlyRole(DEFAULT_ADMIN_ROLE) {}\r\n\r\n  /**\r\n   * @dev See {IERC165-supportsInterface}.\r\n   */\r\n  function supportsInterface(\r\n    bytes4 interfaceId\r\n  ) public view virtual override(ERC1155Receiver, AccessControlUpgradeable) returns (bool) {\r\n    return super.supportsInterface(interfaceId);\r\n  }\r\n}\r\n",
  "sourcePath": "C:\\Users\\Yash\\Desktop\\Temporary\\Github\\marketplace\\src\\contracts\\Stacking.sol",
  "compiler": {
    "name": "solc",
    "version": "0.8.14+commit.80d49f37.Emscripten.clang"
  },
  "schemaVersion": "3.4.13",
  "updatedAt": "2023-07-24T12:20:07.386Z",
  "devdoc": {
    "kind": "dev",
    "methods": {
      "constructor": {
        "custom:oz-upgrades-unsafe-allow": "constructor"
      },
      "getRoleAdmin(bytes32)": {
        "details": "Returns the admin role that controls `role`. See {grantRole} and {revokeRole}. To change a role's admin, use {_setRoleAdmin}."
      },
      "grantRole(bytes32,address)": {
        "details": "Grants `role` to `account`. If `account` had not been already granted `role`, emits a {RoleGranted} event. Requirements: - the caller must have ``role``'s admin role. May emit a {RoleGranted} event."
      },
      "hasRole(bytes32,address)": {
        "details": "Returns `true` if `account` has been granted `role`."
      },
      "paused()": {
        "details": "Returns true if the contract is paused, and false otherwise."
      },
      "proxiableUUID()": {
        "details": "Implementation of the ERC1822 {proxiableUUID} function. This returns the storage slot used by the implementation. It is used to validate the implementation's compatibility when performing an upgrade. IMPORTANT: A proxy pointing at a proxiable contract should not be considered proxiable itself, because this risks bricking a proxy that upgrades to it, by delegating to itself until out of gas. Thus it is critical that this function revert if invoked through a proxy. This is guaranteed by the `notDelegated` modifier."
      },
      "renounceRole(bytes32,address)": {
        "details": "Revokes `role` from the calling account. Roles are often managed via {grantRole} and {revokeRole}: this function's purpose is to provide a mechanism for accounts to lose their privileges if they are compromised (such as when a trusted device is misplaced). If the calling account had been revoked `role`, emits a {RoleRevoked} event. Requirements: - the caller must be `account`. May emit a {RoleRevoked} event."
      },
      "revokeRole(bytes32,address)": {
        "details": "Revokes `role` from `account`. If `account` had been granted `role`, emits a {RoleRevoked} event. Requirements: - the caller must have ``role``'s admin role. May emit a {RoleRevoked} event."
      },
      "supportsInterface(bytes4)": {
        "details": "See {IERC165-supportsInterface}."
      },
      "upgradeTo(address)": {
        "details": "Upgrade the implementation of the proxy to `newImplementation`. Calls {_authorizeUpgrade}. Emits an {Upgraded} event."
      },
      "upgradeToAndCall(address,bytes)": {
        "details": "Upgrade the implementation of the proxy to `newImplementation`, and subsequently execute the function call encoded in `data`. Calls {_authorizeUpgrade}. Emits an {Upgraded} event."
      }
    },
    "version": 1
  },
  "userdoc": {
    "kind": "user",
    "methods": {},
    "version": 1
  }
}