{
  "contractName": "StakingNFT",
  "abi": [
    {
      "inputs": [],
      "stateMutability": "nonpayable",
      "type": "constructor"
    },
    {
      "anonymous": false,
      "inputs": [
        {
          "indexed": true,
          "internalType": "address",
          "name": "account",
          "type": "address"
        }
      ],
      "name": "AddressAdded",
      "type": "event"
    },
    {
      "anonymous": false,
      "inputs": [
        {
          "indexed": true,
          "internalType": "address",
          "name": "account",
          "type": "address"
        }
      ],
      "name": "AddressRemoved",
      "type": "event"
    },
    {
      "anonymous": false,
      "inputs": [
        {
          "indexed": false,
          "internalType": "address",
          "name": "previousAdmin",
          "type": "address"
        },
        {
          "indexed": false,
          "internalType": "address",
          "name": "newAdmin",
          "type": "address"
        }
      ],
      "name": "AdminChanged",
      "type": "event"
    },
    {
      "anonymous": false,
      "inputs": [
        {
          "indexed": true,
          "internalType": "address",
          "name": "beacon",
          "type": "address"
        }
      ],
      "name": "BeaconUpgraded",
      "type": "event"
    },
    {
      "anonymous": false,
      "inputs": [
        {
          "indexed": false,
          "internalType": "uint8",
          "name": "version",
          "type": "uint8"
        }
      ],
      "name": "Initialized",
      "type": "event"
    },
    {
      "anonymous": false,
      "inputs": [
        {
          "indexed": false,
          "internalType": "address",
          "name": "account",
          "type": "address"
        }
      ],
      "name": "Paused",
      "type": "event"
    },
    {
      "anonymous": false,
      "inputs": [
        {
          "indexed": true,
          "internalType": "address",
          "name": "user",
          "type": "address"
        },
        {
          "indexed": false,
          "internalType": "uint256",
          "name": "amount",
          "type": "uint256"
        }
      ],
      "name": "RewardsClaimed",
      "type": "event"
    },
    {
      "anonymous": false,
      "inputs": [
        {
          "indexed": true,
          "internalType": "bytes32",
          "name": "role",
          "type": "bytes32"
        },
        {
          "indexed": true,
          "internalType": "bytes32",
          "name": "previousAdminRole",
          "type": "bytes32"
        },
        {
          "indexed": true,
          "internalType": "bytes32",
          "name": "newAdminRole",
          "type": "bytes32"
        }
      ],
      "name": "RoleAdminChanged",
      "type": "event"
    },
    {
      "anonymous": false,
      "inputs": [
        {
          "indexed": true,
          "internalType": "bytes32",
          "name": "role",
          "type": "bytes32"
        },
        {
          "indexed": true,
          "internalType": "address",
          "name": "account",
          "type": "address"
        },
        {
          "indexed": true,
          "internalType": "address",
          "name": "sender",
          "type": "address"
        }
      ],
      "name": "RoleGranted",
      "type": "event"
    },
    {
      "anonymous": false,
      "inputs": [
        {
          "indexed": true,
          "internalType": "bytes32",
          "name": "role",
          "type": "bytes32"
        },
        {
          "indexed": true,
          "internalType": "address",
          "name": "account",
          "type": "address"
        },
        {
          "indexed": true,
          "internalType": "address",
          "name": "sender",
          "type": "address"
        }
      ],
      "name": "RoleRevoked",
      "type": "event"
    },
    {
      "anonymous": false,
      "inputs": [
        {
          "indexed": true,
          "internalType": "address",
          "name": "user",
          "type": "address"
        },
        {
          "indexed": true,
          "internalType": "address",
          "name": "tokenContract",
          "type": "address"
        },
        {
          "indexed": true,
          "internalType": "uint256",
          "name": "tokenId",
          "type": "uint256"
        },
        {
          "indexed": false,
          "internalType": "uint256",
          "name": "amount",
          "type": "uint256"
        },
        {
          "indexed": false,
          "internalType": "uint256",
          "name": "index",
          "type": "uint256"
        },
        {
          "indexed": false,
          "internalType": "uint256",
          "name": "timestamp",
          "type": "uint256"
        }
      ],
      "name": "TokenRestaked",
      "type": "event"
    },
    {
      "anonymous": false,
      "inputs": [
        {
          "indexed": true,
          "internalType": "address",
          "name": "user",
          "type": "address"
        },
        {
          "indexed": true,
          "internalType": "address",
          "name": "tokenContract",
          "type": "address"
        },
        {
          "indexed": true,
          "internalType": "uint256",
          "name": "tokenId",
          "type": "uint256"
        },
        {
          "indexed": false,
          "internalType": "uint256",
          "name": "amount",
          "type": "uint256"
        },
        {
          "indexed": false,
          "internalType": "uint256",
          "name": "index",
          "type": "uint256"
        }
      ],
      "name": "TokensStaked",
      "type": "event"
    },
    {
      "anonymous": false,
      "inputs": [
        {
          "indexed": true,
          "internalType": "address",
          "name": "user",
          "type": "address"
        },
        {
          "indexed": true,
          "internalType": "address",
          "name": "tokenContract",
          "type": "address"
        },
        {
          "indexed": true,
          "internalType": "uint256",
          "name": "tokenId",
          "type": "uint256"
        },
        {
          "indexed": false,
          "internalType": "uint256",
          "name": "amount",
          "type": "uint256"
        },
        {
          "indexed": false,
          "internalType": "uint256",
          "name": "index",
          "type": "uint256"
        }
      ],
      "name": "TokensUnstaked",
      "type": "event"
    },
    {
      "anonymous": false,
      "inputs": [
        {
          "indexed": false,
          "internalType": "address",
          "name": "account",
          "type": "address"
        }
      ],
      "name": "Unpaused",
      "type": "event"
    },
    {
      "anonymous": false,
      "inputs": [
        {
          "indexed": true,
          "internalType": "address",
          "name": "implementation",
          "type": "address"
        }
      ],
      "name": "Upgraded",
      "type": "event"
    },
    {
      "inputs": [],
      "name": "DEFAULT_ADMIN_ROLE",
      "outputs": [
        {
          "internalType": "bytes32",
          "name": "",
          "type": "bytes32"
        }
      ],
      "stateMutability": "view",
      "type": "function"
    },
    {
      "inputs": [
        {
          "internalType": "bytes32",
          "name": "role",
          "type": "bytes32"
        }
      ],
      "name": "getRoleAdmin",
      "outputs": [
        {
          "internalType": "bytes32",
          "name": "",
          "type": "bytes32"
        }
      ],
      "stateMutability": "view",
      "type": "function"
    },
    {
      "inputs": [
        {
          "internalType": "bytes32",
          "name": "role",
          "type": "bytes32"
        },
        {
          "internalType": "address",
          "name": "account",
          "type": "address"
        }
      ],
      "name": "grantRole",
      "outputs": [],
      "stateMutability": "nonpayable",
      "type": "function"
    },
    {
      "inputs": [
        {
          "internalType": "bytes32",
          "name": "role",
          "type": "bytes32"
        },
        {
          "internalType": "address",
          "name": "account",
          "type": "address"
        }
      ],
      "name": "hasRole",
      "outputs": [
        {
          "internalType": "bool",
          "name": "",
          "type": "bool"
        }
      ],
      "stateMutability": "view",
      "type": "function"
    },
    {
      "inputs": [
        {
          "internalType": "address",
          "name": "",
          "type": "address"
        },
        {
          "internalType": "address",
          "name": "",
          "type": "address"
        },
        {
          "internalType": "uint256[]",
          "name": "",
          "type": "uint256[]"
        },
        {
          "internalType": "uint256[]",
          "name": "",
          "type": "uint256[]"
        },
        {
          "internalType": "bytes",
          "name": "",
          "type": "bytes"
        }
      ],
      "name": "onERC1155BatchReceived",
      "outputs": [
        {
          "internalType": "bytes4",
          "name": "",
          "type": "bytes4"
        }
      ],
      "stateMutability": "nonpayable",
      "type": "function"
    },
    {
      "inputs": [
        {
          "internalType": "address",
          "name": "",
          "type": "address"
        },
        {
          "internalType": "address",
          "name": "",
          "type": "address"
        },
        {
          "internalType": "uint256",
          "name": "",
          "type": "uint256"
        },
        {
          "internalType": "uint256",
          "name": "",
          "type": "uint256"
        },
        {
          "internalType": "bytes",
          "name": "",
          "type": "bytes"
        }
      ],
      "name": "onERC1155Received",
      "outputs": [
        {
          "internalType": "bytes4",
          "name": "",
          "type": "bytes4"
        }
      ],
      "stateMutability": "nonpayable",
      "type": "function"
    },
    {
      "inputs": [],
      "name": "paused",
      "outputs": [
        {
          "internalType": "bool",
          "name": "",
          "type": "bool"
        }
      ],
      "stateMutability": "view",
      "type": "function"
    },
    {
      "inputs": [],
      "name": "payReward",
      "outputs": [
        {
          "internalType": "bool",
          "name": "",
          "type": "bool"
        }
      ],
      "stateMutability": "view",
      "type": "function"
    },
    {
      "inputs": [],
      "name": "proxiableUUID",
      "outputs": [
        {
          "internalType": "bytes32",
          "name": "",
          "type": "bytes32"
        }
      ],
      "stateMutability": "view",
      "type": "function"
    },
    {
      "inputs": [
        {
          "internalType": "bytes32",
          "name": "role",
          "type": "bytes32"
        },
        {
          "internalType": "address",
          "name": "account",
          "type": "address"
        }
      ],
      "name": "renounceRole",
      "outputs": [],
      "stateMutability": "nonpayable",
      "type": "function"
    },
    {
      "inputs": [
        {
          "internalType": "bytes32",
          "name": "role",
          "type": "bytes32"
        },
        {
          "internalType": "address",
          "name": "account",
          "type": "address"
        }
      ],
      "name": "revokeRole",
      "outputs": [],
      "stateMutability": "nonpayable",
      "type": "function"
    },
    {
      "inputs": [],
      "name": "rewardRate",
      "outputs": [
        {
          "internalType": "uint256",
          "name": "",
          "type": "uint256"
        }
      ],
      "stateMutability": "view",
      "type": "function"
    },
    {
      "inputs": [],
      "name": "rewardRateDuration",
      "outputs": [
        {
          "internalType": "uint256",
          "name": "",
          "type": "uint256"
        }
      ],
      "stateMutability": "view",
      "type": "function"
    },
    {
      "inputs": [],
      "name": "rewardToken",
      "outputs": [
        {
          "internalType": "contract IERC20",
          "name": "",
          "type": "address"
        }
      ],
      "stateMutability": "view",
      "type": "function"
    },
    {
      "inputs": [
        {
          "internalType": "address",
          "name": "",
          "type": "address"
        },
        {
          "internalType": "address",
          "name": "",
          "type": "address"
        },
        {
          "internalType": "uint256",
          "name": "",
          "type": "uint256"
        },
        {
          "internalType": "uint256",
          "name": "",
          "type": "uint256"
        }
      ],
      "name": "stakedBalances",
      "outputs": [
        {
          "internalType": "uint256",
          "name": "stakedAmount",
          "type": "uint256"
        },
        {
          "internalType": "uint256",
          "name": "oldBalance",
          "type": "uint256"
        },
        {
          "internalType": "uint256",
          "name": "timeOfLastUpdate",
          "type": "uint256"
        }
      ],
      "stateMutability": "view",
      "type": "function"
    },
    {
      "inputs": [],
      "name": "unstakeFee",
      "outputs": [
        {
          "internalType": "uint256",
          "name": "",
          "type": "uint256"
        }
      ],
      "stateMutability": "view",
      "type": "function"
    },
    {
      "inputs": [
        {
          "internalType": "address",
          "name": "newImplementation",
          "type": "address"
        }
      ],
      "name": "upgradeTo",
      "outputs": [],
      "stateMutability": "nonpayable",
      "type": "function"
    },
    {
      "inputs": [
        {
          "internalType": "address",
          "name": "newImplementation",
          "type": "address"
        },
        {
          "internalType": "bytes",
          "name": "data",
          "type": "bytes"
        }
      ],
      "name": "upgradeToAndCall",
      "outputs": [],
      "stateMutability": "payable",
      "type": "function"
    },
    {
      "inputs": [
        {
          "internalType": "address",
          "name": "",
          "type": "address"
        }
      ],
      "name": "whitelistContracts",
      "outputs": [
        {
          "internalType": "bool",
          "name": "",
          "type": "bool"
        }
      ],
      "stateMutability": "view",
      "type": "function"
    },
    {
      "inputs": [
        {
          "internalType": "address",
          "name": "_rewardToken",
          "type": "address"
        },
        {
          "internalType": "uint256",
          "name": "_rewardRate",
          "type": "uint256"
        },
        {
          "internalType": "uint256",
          "name": "_rewardRateDuration",
          "type": "uint256"
        }
      ],
      "name": "initialize",
      "outputs": [],
      "stateMutability": "nonpayable",
      "type": "function"
    },
    {
      "inputs": [
        {
          "internalType": "uint256",
          "name": "_rewardRate",
          "type": "uint256"
        }
      ],
      "name": "setRewardRate",
      "outputs": [],
      "stateMutability": "nonpayable",
      "type": "function"
    },
    {
      "inputs": [
        {
          "internalType": "uint256",
          "name": "_rewardRateDuration",
          "type": "uint256"
        }
      ],
      "name": "setRewardRateDuration",
      "outputs": [],
      "stateMutability": "nonpayable",
      "type": "function"
    },
    {
      "inputs": [
        {
          "internalType": "bool",
          "name": "_payReward",
          "type": "bool"
        }
      ],
      "name": "setPayReward",
      "outputs": [],
      "stateMutability": "nonpayable",
      "type": "function"
    },
    {
      "inputs": [
        {
          "internalType": "uint256",
          "name": "_unstakeFee",
          "type": "uint256"
        }
      ],
      "name": "setUnstakeFee",
      "outputs": [],
      "stateMutability": "nonpayable",
      "type": "function"
    },
    {
      "inputs": [
        {
          "internalType": "address",
          "name": "_to",
          "type": "address"
        },
        {
          "internalType": "uint256",
          "name": "_amount",
          "type": "uint256"
        }
      ],
      "name": "transferToken",
      "outputs": [],
      "stateMutability": "nonpayable",
      "type": "function"
    },
    {
      "inputs": [],
      "name": "pause",
      "outputs": [],
      "stateMutability": "nonpayable",
      "type": "function"
    },
    {
      "inputs": [],
      "name": "unpause",
      "outputs": [],
      "stateMutability": "nonpayable",
      "type": "function"
    },
    {
      "inputs": [
        {
          "internalType": "address",
          "name": "_tokenContract",
          "type": "address"
        },
        {
          "internalType": "uint256",
          "name": "_tokenId",
          "type": "uint256"
        },
        {
          "internalType": "uint256",
          "name": "_stakedAmount",
          "type": "uint256"
        },
        {
          "internalType": "uint8",
          "name": "_tokenType",
          "type": "uint8"
        }
      ],
      "name": "stakeToken",
      "outputs": [],
      "stateMutability": "nonpayable",
      "type": "function"
    },
    {
      "inputs": [
        {
          "internalType": "address",
          "name": "_tokenContract",
          "type": "address"
        },
        {
          "internalType": "uint256",
          "name": "_tokenId",
          "type": "uint256"
        },
        {
          "internalType": "uint256",
          "name": "_unStakedAmount",
          "type": "uint256"
        },
        {
          "internalType": "uint256",
          "name": "_index",
          "type": "uint256"
        },
        {
          "internalType": "uint8",
          "name": "_tokenType",
          "type": "uint8"
        }
      ],
      "name": "unStakeToken",
      "outputs": [],
      "stateMutability": "nonpayable",
      "type": "function"
    },
    {
      "inputs": [
        {
          "internalType": "address",
          "name": "_tokenContract",
          "type": "address"
        },
        {
          "internalType": "uint256",
          "name": "_tokenId",
          "type": "uint256"
        },
        {
          "internalType": "uint8",
          "name": "_tokenType",
          "type": "uint8"
        },
        {
          "internalType": "uint256",
          "name": "_index",
          "type": "uint256"
        }
      ],
      "name": "reStakeToken",
      "outputs": [],
      "stateMutability": "nonpayable",
      "type": "function"
    },
    {
      "inputs": [
        {
          "internalType": "address",
          "name": "_user",
          "type": "address"
        },
        {
          "internalType": "address",
          "name": "_tokenContract",
          "type": "address"
        },
        {
          "internalType": "uint256",
          "name": "_tokenId",
          "type": "uint256"
        },
        {
          "internalType": "uint256",
          "name": "_index",
          "type": "uint256"
        }
      ],
      "name": "calculateRewards",
      "outputs": [
        {
          "internalType": "uint256",
          "name": "",
          "type": "uint256"
        }
      ],
      "stateMutability": "view",
      "type": "function"
    },
    {
      "inputs": [
        {
          "internalType": "address[]",
          "name": "_whitelistContracts",
          "type": "address[]"
        }
      ],
      "name": "addToWhitelist",
      "outputs": [],
      "stateMutability": "nonpayable",
      "type": "function"
    },
    {
      "inputs": [
        {
          "internalType": "address[]",
          "name": "_whitelistContracts",
          "type": "address[]"
        }
      ],
      "name": "removeFromWhitelist",
      "outputs": [],
      "stateMutability": "nonpayable",
      "type": "function"
    },
    {
      "inputs": [
        {
          "internalType": "bytes4",
          "name": "interfaceId",
          "type": "bytes4"
        }
      ],
      "name": "supportsInterface",
      "outputs": [
        {
          "internalType": "bool",
          "name": "",
          "type": "bool"
        }
      ],
      "stateMutability": "view",
      "type": "function"
    }
  ],
  "bytecode": "0x60a0604052306080523480156200001557600080fd5b506200002062000026565b620000e7565b600054610100900460ff1615620000935760405162461bcd60e51b815260206004820152602760248201527f496e697469616c697a61626c653a20636f6e747261637420697320696e697469604482015266616c697a696e6760c81b606482015260840160405180910390fd5b60005460ff90811614620000e5576000805460ff191660ff9081179091556040519081527f7f26b83ff96e1f2b6a682f133852f6798a09c465da95921460cefb38474024989060200160405180910390a15b565b608051613d1d6200011f60003960008181610de001528181610e6501528181610ff60152818161107b01526111610152613d1d6000f3fe6080604052600436106102185760003560e01c80637f6497831161011d578063af5a6c7e116100b0578063db4172401161007f578063efea48bc11610064578063efea48bc1461066a578063f23a6e6114610681578063f7c618c1146106c657600080fd5b8063db4172401461062a578063e51b9bc81461064a57600080fd5b8063af5a6c7e1461055b578063b44bfd981461058c578063bc197c81146105ac578063d547741f1461060a57600080fd5b806399a93df2116100ec57806399a93df2146104cb5780639e447fc614610506578063a00ac67814610526578063a217fddf1461054657600080fd5b80637f649783146104395780638456cb59146104595780638ea97d261461046e57806391d148541461048557600080fd5b80633f4ba83a116101b05780635c975abb1161017f5780637842a3a4116101645780637842a3a4146103e75780637a1ac61e146104025780637b0a47ee1461042257600080fd5b80635c975abb146103af5780636509698d146103c757600080fd5b80633f4ba83a146103525780634f1ef2861461036757806352d1902d1461037a578063548db1741461038f57600080fd5b8063248a9ca3116101ec578063248a9ca3146102b45780632f2ff15d146102f257806336568abe146103125780633659cfe61461033257600080fd5b806218a1161461021d57806301ffc9a71461023f5780631072cbea14610274578063197ee75614610294575b600080fd5b34801561022957600080fd5b5061023d610238366004613525565b6106ff565b005b34801561024b57600080fd5b5061025f61025a36600461353e565b61079b565b60405190151581526020015b60405180910390f35b34801561028057600080fd5b5061023d61028f36600461357d565b6107ac565b3480156102a057600080fd5b5061023d6102af3660046135bf565b61091e565b3480156102c057600080fd5b506102e46102cf366004613525565b60009081526097602052604090206001015490565b60405190815260200161026b565b3480156102fe57600080fd5b5061023d61030d366004613607565b610d24565b34801561031e57600080fd5b5061023d61032d366004613607565b610d4e565b34801561033e57600080fd5b5061023d61034d366004613637565b610dd6565b34801561035e57600080fd5b5061023d610f51565b61023d61037536600461370b565b610fec565b34801561038657600080fd5b506102e4611154565b34801561039b57600080fd5b5061023d6103aa36600461375b565b611219565b3480156103bb57600080fd5b5060335460ff1661025f565b3480156103d357600080fd5b5061023d6103e2366004613525565b6113ca565b3480156103f357600080fd5b506101635461025f9060ff1681565b34801561040e57600080fd5b5061023d61041d3660046137d0565b611461565b34801561042e57600080fd5b506102e46101615481565b34801561044557600080fd5b5061023d61045436600461375b565b6115dc565b34801561046557600080fd5b5061023d61179e565b34801561047a57600080fd5b506102e46101655481565b34801561049157600080fd5b5061025f6104a0366004613607565b60009182526097602090815260408084206001600160a01b0393909316845291905290205460ff1690565b3480156104d757600080fd5b506104eb6104e6366004613805565b611837565b6040805193845260208401929092529082015260600161026b565b34801561051257600080fd5b5061023d610521366004613525565b611899565b34801561053257600080fd5b5061023d61054136600461384b565b611930565b34801561055257600080fd5b506102e4600081565b34801561056757600080fd5b5061025f610576366004613637565b6101646020526000908152604090205460ff1681565b34801561059857600080fd5b5061023d6105a7366004613891565b611d80565b3480156105b857600080fd5b506105f16105c7366004613963565b7fbc197c810000000000000000000000000000000000000000000000000000000095945050505050565b6040516001600160e01b0319909116815260200161026b565b34801561061657600080fd5b5061023d610625366004613607565b612290565b34801561063657600080fd5b506102e4610645366004613805565b6122b5565b34801561065657600080fd5b5061023d610665366004613a1f565b6124e2565b34801561067657600080fd5b506102e46101625481565b34801561068d57600080fd5b506105f161069c366004613a3c565b7ff23a6e610000000000000000000000000000000000000000000000000000000095945050505050565b3480156106d257600080fd5b50610160546106e7906001600160a01b031681565b6040516001600160a01b03909116815260200161026b565b3360009081527f683723e34a772b6e4f2c919bba7fa32ed8ea11a8325f54da7db716e9d9dd98c7602052604090205460ff166107955760405162461bcd60e51b815260206004820152602a60248201527f57686974656c6973743a204f6e6c792061646d696e2063616e2063616c6c20746044820152691a1a5cc81b595d1a1bd960b21b60648201526084015b60405180910390fd5b61016555565b60006107a682612587565b92915050565b3360009081527f683723e34a772b6e4f2c919bba7fa32ed8ea11a8325f54da7db716e9d9dd98c7602052604090205460ff1661083d5760405162461bcd60e51b815260206004820152602a60248201527f57686974656c6973743a204f6e6c792061646d696e2063616e2063616c6c20746044820152691a1a5cc81b595d1a1bd960b21b606482015260840161078c565b610160546040517fa9059cbb0000000000000000000000000000000000000000000000000000000081526001600160a01b038481166004830152602482018490529091169063a9059cbb906044016020604051808303816000875af11580156108aa573d6000803e3d6000fd5b505050506040513d601f19601f820116820180604052508101906108ce9190613aa5565b61091a5760405162461bcd60e51b815260206004820152601660248201527f546f6b656e207472616e73666572206661696c65642100000000000000000000604482015260640161078c565b5050565b6001600160a01b03841660009081526101646020526040902054849060ff1661099c5760405162461bcd60e51b815260206004820152602a60248201527f57686974656c6973743a204e465420636f6e7472616374206973206e6f7420776044820152691a1a5d195b1a5cdd195960b21b606482015260840161078c565b6109a46125ee565b8160ff16600103610b01576040516331a9108f60e11b81526004810185905233906001600160a01b03871690636352211e90602401602060405180830381865afa1580156109f6573d6000803e3d6000fd5b505050506040513d601f19601f82011682018060405250810190610a1a9190613ac2565b6001600160a01b031614610a965760405162461bcd60e51b815260206004820152602b60248201527f546f6b656e5374616b696e673a2043616c6c6572206d757374206f776e20746860448201527f65204e465420746f6b656e000000000000000000000000000000000000000000606482015260840161078c565b6040516323b872dd60e01b8152336004820152306024820152604481018590526001600160a01b038616906323b872dd90606401600060405180830381600087803b158015610ae457600080fd5b505af1158015610af8573d6000803e3d6000fd5b50505050610c6b565b604051627eeac760e11b81523360048201526024810185905283906001600160a01b0387169062fdd58e90604401602060405180830381865afa158015610b4c573d6000803e3d6000fd5b505050506040513d601f19601f82011682018060405250810190610b709190613adf565b1015610be45760405162461bcd60e51b815260206004820152603f60248201527f546f6b656e5374616b696e673a2043616c6c6572206d7573742068617665207360448201527f756666696369656e74204552433131353520746f6b656e2062616c616e636500606482015260840161078c565b604051637921219560e11b8152336004820152306024820152604481018590526064810184905260a06084820152600260a482015261060f60f31b60c48201526001600160a01b0386169063f242432a9060e401600060405180830381600087803b158015610c5257600080fd5b505af1158015610c66573d6000803e3d6000fd5b505050505b6040805160608101825284815260006020808301828152428486019081523380855261015f84528685206001600160a01b038d168087529085528786208c87528552878620805460018082018355918852968690208851600389029091019081559451908501559151600290930192909255855189815292830184905293949293899390927fc1422af7e43d777469d796ab303d8d25d600d97d1ba738791ab5ac48cf123f93910160405180910390a450505050505050565b600082815260976020526040902060010154610d3f81612641565b610d49838361264b565b505050565b6001600160a01b0381163314610dcc5760405162461bcd60e51b815260206004820152602f60248201527f416363657373436f6e74726f6c3a2063616e206f6e6c792072656e6f756e636560448201527f20726f6c657320666f722073656c660000000000000000000000000000000000606482015260840161078c565b61091a82826126ed565b6001600160a01b037f0000000000000000000000000000000000000000000000000000000000000000163003610e635760405162461bcd60e51b815260206004820152602c60248201527f46756e6374696f6e206d7573742062652063616c6c6564207468726f7567682060448201526b19195b1959d85d1958d85b1b60a21b606482015260840161078c565b7f00000000000000000000000000000000000000000000000000000000000000006001600160a01b0316610ebe7f360894a13ba1a3210667c828492db98dca3e2076cc3735a920a3ca505d382bbc546001600160a01b031690565b6001600160a01b031614610f295760405162461bcd60e51b815260206004820152602c60248201527f46756e6374696f6e206d7573742062652063616c6c6564207468726f7567682060448201526b6163746976652070726f787960a01b606482015260840161078c565b610f3281612770565b60408051600080825260208201909252610f4e9183919061277b565b50565b3360009081527f683723e34a772b6e4f2c919bba7fa32ed8ea11a8325f54da7db716e9d9dd98c7602052604090205460ff16610fe25760405162461bcd60e51b815260206004820152602a60248201527f57686974656c6973743a204f6e6c792061646d696e2063616e2063616c6c20746044820152691a1a5cc81b595d1a1bd960b21b606482015260840161078c565b610fea61291b565b565b6001600160a01b037f00000000000000000000000000000000000000000000000000000000000000001630036110795760405162461bcd60e51b815260206004820152602c60248201527f46756e6374696f6e206d7573742062652063616c6c6564207468726f7567682060448201526b19195b1959d85d1958d85b1b60a21b606482015260840161078c565b7f00000000000000000000000000000000000000000000000000000000000000006001600160a01b03166110d47f360894a13ba1a3210667c828492db98dca3e2076cc3735a920a3ca505d382bbc546001600160a01b031690565b6001600160a01b03161461113f5760405162461bcd60e51b815260206004820152602c60248201527f46756e6374696f6e206d7573742062652063616c6c6564207468726f7567682060448201526b6163746976652070726f787960a01b606482015260840161078c565b61114882612770565b61091a8282600161277b565b6000306001600160a01b037f000000000000000000000000000000000000000000000000000000000000000016146111f45760405162461bcd60e51b815260206004820152603860248201527f555550535570677261646561626c653a206d757374206e6f742062652063616c60448201527f6c6564207468726f7567682064656c656761746563616c6c0000000000000000606482015260840161078c565b507f360894a13ba1a3210667c828492db98dca3e2076cc3735a920a3ca505d382bbc90565b3360009081527f683723e34a772b6e4f2c919bba7fa32ed8ea11a8325f54da7db716e9d9dd98c7602052604090205460ff166112aa5760405162461bcd60e51b815260206004820152602a60248201527f57686974656c6973743a204f6e6c792061646d696e2063616e2063616c6c20746044820152691a1a5cc81b595d1a1bd960b21b606482015260840161078c565b60005b81811015610d495760008383838181106112c9576112c9613af8565b90506020020160208101906112de9190613637565b6001600160a01b0381166000908152610164602052604090205490915060ff166113705760405162461bcd60e51b815260206004820152602560248201527f57686974656c6973743a204163636f756e74206973206e6f742077686974656c60448201527f6973746564000000000000000000000000000000000000000000000000000000606482015260840161078c565b6001600160a01b03811660008181526101646020526040808220805460ff19169055517f24a12366c02e13fe4a9e03d86a8952e85bb74a456c16e4a18b6d8295700b74bb9190a250806113c281613b24565b9150506112ad565b3360009081527f683723e34a772b6e4f2c919bba7fa32ed8ea11a8325f54da7db716e9d9dd98c7602052604090205460ff1661145b5760405162461bcd60e51b815260206004820152602a60248201527f57686974656c6973743a204f6e6c792061646d696e2063616e2063616c6c20746044820152691a1a5cc81b595d1a1bd960b21b606482015260840161078c565b61016255565b600054610100900460ff16158080156114815750600054600160ff909116105b8061149b5750303b15801561149b575060005460ff166001145b61150d5760405162461bcd60e51b815260206004820152602e60248201527f496e697469616c697a61626c653a20636f6e747261637420697320616c72656160448201527f647920696e697469616c697a6564000000000000000000000000000000000000606482015260840161078c565b6000805460ff191660011790558015611530576000805461ff0019166101001790555b610160805473ffffffffffffffffffffffffffffffffffffffff19166001600160a01b03861617905561016183905561016282905561156d61296d565b61157561296d565b61157d6129d8565b611585612a4b565b61159060003361264b565b80156115d6576000805461ff0019169055604051600181527f7f26b83ff96e1f2b6a682f133852f6798a09c465da95921460cefb38474024989060200160405180910390a15b50505050565b3360009081527f683723e34a772b6e4f2c919bba7fa32ed8ea11a8325f54da7db716e9d9dd98c7602052604090205460ff1661166d5760405162461bcd60e51b815260206004820152602a60248201527f57686974656c6973743a204f6e6c792061646d696e2063616e2063616c6c20746044820152691a1a5cc81b595d1a1bd960b21b606482015260840161078c565b60005b81811015610d4957600083838381811061168c5761168c613af8565b90506020020160208101906116a19190613637565b90506001600160a01b03811661171f5760405162461bcd60e51b815260206004820152602260248201527f57686974656c6973743a2043616e6e6f7420616464207a65726f20616464726560448201527f7373000000000000000000000000000000000000000000000000000000000000606482015260840161078c565b6001600160a01b0381166000908152610164602052604090205460ff1661178b576001600160a01b03811660008181526101646020526040808220805460ff19166001179055517fa226db3f664042183ee0281230bba26cbf7b5057e50aee7f25a175ff45ce4d7f9190a25b508061179681613b24565b915050611670565b3360009081527f683723e34a772b6e4f2c919bba7fa32ed8ea11a8325f54da7db716e9d9dd98c7602052604090205460ff1661182f5760405162461bcd60e51b815260206004820152602a60248201527f57686974656c6973743a204f6e6c792061646d696e2063616e2063616c6c20746044820152691a1a5cc81b595d1a1bd960b21b606482015260840161078c565b610fea612abe565b61015f602052836000526040600020602052826000526040600020602052816000526040600020818154811061186c57600080fd5b90600052602060002090600302016000935093505050508060000154908060010154908060020154905083565b3360009081527f683723e34a772b6e4f2c919bba7fa32ed8ea11a8325f54da7db716e9d9dd98c7602052604090205460ff1661192a5760405162461bcd60e51b815260206004820152602a60248201527f57686974656c6973743a204f6e6c792061646d696e2063616e2063616c6c20746044820152691a1a5cc81b595d1a1bd960b21b606482015260840161078c565b61016155565b6001600160a01b03841660009081526101646020526040902054849060ff166119ae5760405162461bcd60e51b815260206004820152602a60248201527f57686974656c6973743a204e465420636f6e7472616374206973206e6f7420776044820152691a1a5d195b1a5cdd195960b21b606482015260840161078c565b6119b66125ee565b6119be612afb565b33600090815261015f602090815260408083206001600160a01b0389168452825280832087845290915281208054849081106119fc576119fc613af8565b906000526020600020906003020160000154905060008111611a855760405162461bcd60e51b8152602060048201526024808201527f546f6b656e5374616b696e673a205374616b696e672044617461206e6f74206660448201527f6f756e6400000000000000000000000000000000000000000000000000000000606482015260840161078c565b8360ff16600003611b8257604051627eeac760e11b81523060048201526024810186905281906001600160a01b0388169062fdd58e90604401602060405180830381865afa158015611adb573d6000803e3d6000fd5b505050506040513d601f19601f82011682018060405250810190611aff9190613adf565b1015611b7d5760405162461bcd60e51b815260206004820152604160248201527f546f6b656e5374616b696e673a20436f6e7472616374206d757374206861766560448201527f2073756666696369656e74204552433131353520746f6b656e2062616c616e636064820152606560f81b608482015260a40161078c565b611c69565b6040516331a9108f60e11b81526004810186905230906001600160a01b03881690636352211e90602401602060405180830381865afa158015611bc9573d6000803e3d6000fd5b505050506040513d601f19601f82011682018060405250810190611bed9190613ac2565b6001600160a01b031614611c695760405162461bcd60e51b815260206004820152603060248201527f546f6b656e5374616b696e673a20436f6e7472616374206d757374206f776e2060448201527f7468652045524337323120746f6b656e00000000000000000000000000000000606482015260840161078c565b611c75338787866122b5565b33600090815261015f602090815260408083206001600160a01b038b16845282528083208984529091529020805485908110611cb357611cb3613af8565b600091825260208083206001600390930201919091019290925533815261015f825260408082206001600160a01b038a168352835280822088835290925220805442919085908110611d0757611d07613af8565b60009182526020918290206002600390920201019190915560408051838152918201859052429082015285906001600160a01b0388169033907ff1a945c8cc4403d02673e60cf2632609ce231f8899e2c25ef96bcb8df46a82429060600160405180910390a450611d79600161012d55565b5050505050565b6001600160a01b03851660009081526101646020526040902054859060ff16611dfe5760405162461bcd60e51b815260206004820152602a60248201527f57686974656c6973743a204e465420636f6e7472616374206973206e6f7420776044820152691a1a5d195b1a5cdd195960b21b606482015260840161078c565b611e066125ee565b611e0e612afb565b33600090815261015f602090815260408083206001600160a01b038a16845282528083208884529091529020805485919085908110611e4f57611e4f613af8565b9060005260206000209060030201600001541015611ed55760405162461bcd60e51b815260206004820152603360248201527f546f6b656e5374616b696e673a20496e73756666696369656e74205374616b6560448201527f64204e465420746f6b656e2062616c616e636500000000000000000000000000606482015260840161078c565b8160ff16600103611fcc576040516331a9108f60e11b81526004810186905230906001600160a01b03881690636352211e90602401602060405180830381865afa158015611f27573d6000803e3d6000fd5b505050506040513d601f19601f82011682018060405250810190611f4b9190613ac2565b6001600160a01b031614611fc75760405162461bcd60e51b815260206004820152603060248201527f546f6b656e5374616b696e673a20436f6e7472616374206d757374206f776e2060448201527f7468652045524337323120746f6b656e00000000000000000000000000000000606482015260840161078c565b6120b9565b604051627eeac760e11b81523060048201526024810186905284906001600160a01b0388169062fdd58e90604401602060405180830381865afa158015612017573d6000803e3d6000fd5b505050506040513d601f19601f8201168201806040525081019061203b9190613adf565b10156120b95760405162461bcd60e51b815260206004820152604160248201527f546f6b656e5374616b696e673a20436f6e7472616374206d757374206861766560448201527f2073756666696369656e74204552433131353520746f6b656e2062616c616e636064820152606560f81b608482015260a40161078c565b6101635460ff16156120d2576120d0868685612b5e565b505b33600090815261015f602090815260408083206001600160a01b038a1684528252808320888452909152902080548591908590811061211357612113613af8565b906000526020600020906003020160000160008282546121339190613b3d565b909155505060ff82166000036121ce57604051637921219560e11b8152306004820152336024820152604481018690526064810185905260a06084820152600260a482015261060f60f31b60c48201526001600160a01b0387169063f242432a9060e401600060405180830381600087803b1580156121b157600080fd5b505af11580156121c5573d6000803e3d6000fd5b50505050612235565b6040516323b872dd60e01b8152306004820152336024820152604481018690526001600160a01b038716906323b872dd90606401600060405180830381600087803b15801561221c57600080fd5b505af1158015612230573d6000803e3d6000fd5b505050505b604080518581526020810185905286916001600160a01b0389169133917f3164d2896e24bd978cf0b2cc29f4a8406b7051a0a97389415f75b1032e854338910160405180910390a4612288600161012d55565b505050505050565b6000828152609760205260409020600101546122ab81612641565b610d4983836126ed565b6001600160a01b03808516600090815261015f60209081526040808320938716835292815282822085835290529081205482106123345760405162461bcd60e51b815260206004820152601b60248201527f546f6b656e5374616b696e673a20696e76616c696420696e6465780000000000604482015260640161078c565b6001600160a01b03808616600090815261015f602090815260408083209388168352928152828220868352905290812080548490811061237657612376613af8565b90600052602060002090600302016000015411156124d657610162546001600160a01b03808716600090815261015f60209081526040808320938916835292815282822087835290529081208054919291859081106123d7576123d7613af8565b9060005260206000209060030201600201546123f39190613b54565b905080421161246a5760405162461bcd60e51b815260206004820152602f60248201527f546f6b656e5374616b696e673a205374616b696e67206475726174696f6e206960448201527f73206e6f7420636f6d706c657465640000000000000000000000000000000000606482015260840161078c565b6001600160a01b03808716600090815261015f60209081526040808320938916835292815282822087835290529081208054859081106124ac576124ac613af8565b906000526020600020906003020160000154610161546124cc9190613b6c565b92506124da915050565b5060005b949350505050565b3360009081527f683723e34a772b6e4f2c919bba7fa32ed8ea11a8325f54da7db716e9d9dd98c7602052604090205460ff166125735760405162461bcd60e51b815260206004820152602a60248201527f57686974656c6973743a204f6e6c792061646d696e2063616e2063616c6c20746044820152691a1a5cc81b595d1a1bd960b21b606482015260840161078c565b610163805460ff1916911515919091179055565b60006001600160e01b031982167f4e2312e00000000000000000000000000000000000000000000000000000000014806107a657507f01ffc9a7000000000000000000000000000000000000000000000000000000006001600160e01b03198316146107a6565b60335460ff1615610fea5760405162461bcd60e51b815260206004820152601060248201527f5061757361626c653a2070617573656400000000000000000000000000000000604482015260640161078c565b610f4e8133612f03565b60008281526097602090815260408083206001600160a01b038516845290915290205460ff1661091a5760008281526097602090815260408083206001600160a01b03851684529091529020805460ff191660011790556126a93390565b6001600160a01b0316816001600160a01b0316837f2f8788117e7eff1d82e926ec794901d17c78024a50270940304540a733656f0d60405160405180910390a45050565b60008281526097602090815260408083206001600160a01b038516845290915290205460ff161561091a5760008281526097602090815260408083206001600160a01b0385168085529252808320805460ff1916905551339285917ff6391f5c32d9c69d2a47ea670b442974b53935d1edc7fd64eb21e047a839171b9190a45050565b600061091a81612641565b7f4910fdfa16fed3260ed0e7147f7cc6da11a60208b5b9406d12a635614ffd91435460ff16156127ae57610d4983612f78565b826001600160a01b03166352d1902d6040518163ffffffff1660e01b8152600401602060405180830381865afa925050508015612808575060408051601f3d908101601f1916820190925261280591810190613adf565b60015b61287a5760405162461bcd60e51b815260206004820152602e60248201527f45524331393637557067726164653a206e657720696d706c656d656e7461746960448201527f6f6e206973206e6f742055555053000000000000000000000000000000000000606482015260840161078c565b7f360894a13ba1a3210667c828492db98dca3e2076cc3735a920a3ca505d382bbc811461290f5760405162461bcd60e51b815260206004820152602960248201527f45524331393637557067726164653a20756e737570706f727465642070726f7860448201527f6961626c65555549440000000000000000000000000000000000000000000000606482015260840161078c565b50610d49838383613043565b612923613068565b6033805460ff191690557f5db9ee0a495bf2e6ff9c91a7834c1ba4fdd244a5e8aa4e537bd38aeae4b073aa335b6040516001600160a01b03909116815260200160405180910390a1565b600054610100900460ff16610fea5760405162461bcd60e51b815260206004820152602b60248201527f496e697469616c697a61626c653a20636f6e7472616374206973206e6f74206960448201526a6e697469616c697a696e6760a81b606482015260840161078c565b600054610100900460ff16612a435760405162461bcd60e51b815260206004820152602b60248201527f496e697469616c697a61626c653a20636f6e7472616374206973206e6f74206960448201526a6e697469616c697a696e6760a81b606482015260840161078c565b610fea6130ba565b600054610100900460ff16612ab65760405162461bcd60e51b815260206004820152602b60248201527f496e697469616c697a61626c653a20636f6e7472616374206973206e6f74206960448201526a6e697469616c697a696e6760a81b606482015260840161078c565b610fea613131565b612ac66125ee565b6033805460ff191660011790557f62e78cea01bee320cd4e420270b5ea74000d11b0c9f74754ebdbfc544b05a2586129503390565b600261012d5403612b4e5760405162461bcd60e51b815260206004820152601f60248201527f5265656e7472616e637947756172643a207265656e7472616e742063616c6c00604482015260640161078c565b600261012d55565b600161012d55565b6000612b686125ee565b6001600160a01b03841660009081526101646020526040902054849060ff16612be65760405162461bcd60e51b815260206004820152602a60248201527f57686974656c6973743a204e465420636f6e7472616374206973206e6f7420776044820152691a1a5d195b1a5cdd195960b21b606482015260840161078c565b6000612bf4338787876122b5565b905060008111612c6c5760405162461bcd60e51b815260206004820152602260248201527f546f6b656e5374616b696e673a204e6f207265776172647320617661696c616260448201527f6c65000000000000000000000000000000000000000000000000000000000000606482015260840161078c565b610160546040517f70a0823100000000000000000000000000000000000000000000000000000000815230600482015282916001600160a01b0316906370a0823190602401602060405180830381865afa158015612cce573d6000803e3d6000fd5b505050506040513d601f19601f82011682018060405250810190612cf29190613adf565b1015612d665760405162461bcd60e51b815260206004820152602960248201527f546f6b656e5374616b696e673a20496e73756666696369656e7420726577617260448201527f642062616c616e63650000000000000000000000000000000000000000000000606482015260840161078c565b33600090815261015f602090815260408083206001600160a01b038a16845282528083208884529091529020805442919086908110612da757612da7613af8565b600091825260208220600260039092020101919091556101655415612dd657612dd3826101655461319c565b90505b6101605433600081815261015f602090815260408083206001600160a01b038d811685529083528184208c85529092529091208054919093169263a9059cbb9291859187918b908110612e2b57612e2b613af8565b906000526020600020906003020160010154612e479190613b54565b612e519190613b3d565b6040516001600160e01b031960e085901b1681526001600160a01b03909216600483015260248201526044016020604051808303816000875af1158015612e9c573d6000803e3d6000fd5b505050506040513d601f19601f82011682018060405250810190612ec09190613aa5565b5060405182815233907ffc30cddea38e2bf4d6ea7d3f9ed3b6ad7f176419f4963bd81318067a4aee73fe9060200160405180910390a25060019695505050505050565b60008281526097602090815260408083206001600160a01b038516845290915290205460ff1661091a57612f36816131bc565b612f418360206131ce565b604051602001612f52929190613bb7565b60408051601f198184030181529082905262461bcd60e51b825261078c91600401613c38565b6001600160a01b0381163b612ff55760405162461bcd60e51b815260206004820152602d60248201527f455243313936373a206e657720696d706c656d656e746174696f6e206973206e60448201527f6f74206120636f6e747261637400000000000000000000000000000000000000606482015260840161078c565b7f360894a13ba1a3210667c828492db98dca3e2076cc3735a920a3ca505d382bbc805473ffffffffffffffffffffffffffffffffffffffff19166001600160a01b0392909216919091179055565b61304c836133af565b6000825111806130595750805b15610d49576115d683836133ef565b60335460ff16610fea5760405162461bcd60e51b815260206004820152601460248201527f5061757361626c653a206e6f7420706175736564000000000000000000000000604482015260640161078c565b600054610100900460ff166131255760405162461bcd60e51b815260206004820152602b60248201527f496e697469616c697a61626c653a20636f6e7472616374206973206e6f74206960448201526a6e697469616c697a696e6760a81b606482015260840161078c565b6033805460ff19169055565b600054610100900460ff16612b565760405162461bcd60e51b815260206004820152602b60248201527f496e697469616c697a61626c653a20636f6e7472616374206973206e6f74206960448201526a6e697469616c697a696e6760a81b606482015260840161078c565b60006103e86131ab8385613b6c565b6131b59190613c6b565b9392505050565b60606107a66001600160a01b03831660145b606060006131dd836002613b6c565b6131e8906002613b54565b67ffffffffffffffff81111561320057613200613654565b6040519080825280601f01601f19166020018201604052801561322a576020820181803683370190505b5090507f30000000000000000000000000000000000000000000000000000000000000008160008151811061326157613261613af8565b60200101906001600160f81b031916908160001a9053507f7800000000000000000000000000000000000000000000000000000000000000816001815181106132ac576132ac613af8565b60200101906001600160f81b031916908160001a90535060006132d0846002613b6c565b6132db906001613b54565b90505b6001811115613360577f303132333435363738396162636465660000000000000000000000000000000085600f166010811061331c5761331c613af8565b1a60f81b82828151811061333257613332613af8565b60200101906001600160f81b031916908160001a90535060049490941c9361335981613c8d565b90506132de565b5083156131b55760405162461bcd60e51b815260206004820181905260248201527f537472696e67733a20686578206c656e67746820696e73756666696369656e74604482015260640161078c565b6133b881612f78565b6040516001600160a01b038216907fbc7cd75a20ee27fd9adebab32041f755214dbc6bffa90cc0225b39da2e5c2d3b90600090a250565b60606131b58383604051806060016040528060278152602001613cc1602791396060600080856001600160a01b03168560405161342c9190613ca4565b600060405180830381855af49150503d8060008114613467576040519150601f19603f3d011682016040523d82523d6000602084013e61346c565b606091505b509150915061347d86838387613487565b9695505050505050565b606083156134f65782516000036134ef576001600160a01b0385163b6134ef5760405162461bcd60e51b815260206004820152601d60248201527f416464726573733a2063616c6c20746f206e6f6e2d636f6e7472616374000000604482015260640161078c565b50816124da565b6124da838381511561350b5781518083602001fd5b8060405162461bcd60e51b815260040161078c9190613c38565b60006020828403121561353757600080fd5b5035919050565b60006020828403121561355057600080fd5b81356001600160e01b0319811681146131b557600080fd5b6001600160a01b0381168114610f4e57600080fd5b6000806040838503121561359057600080fd5b823561359b81613568565b946020939093013593505050565b803560ff811681146135ba57600080fd5b919050565b600080600080608085870312156135d557600080fd5b84356135e081613568565b935060208501359250604085013591506135fc606086016135a9565b905092959194509250565b6000806040838503121561361a57600080fd5b82359150602083013561362c81613568565b809150509250929050565b60006020828403121561364957600080fd5b81356131b581613568565b634e487b7160e01b600052604160045260246000fd5b604051601f8201601f1916810167ffffffffffffffff8111828210171561369357613693613654565b604052919050565b600082601f8301126136ac57600080fd5b813567ffffffffffffffff8111156136c6576136c6613654565b6136d9601f8201601f191660200161366a565b8181528460208386010111156136ee57600080fd5b816020850160208301376000918101602001919091529392505050565b6000806040838503121561371e57600080fd5b823561372981613568565b9150602083013567ffffffffffffffff81111561374557600080fd5b6137518582860161369b565b9150509250929050565b6000806020838503121561376e57600080fd5b823567ffffffffffffffff8082111561378657600080fd5b818501915085601f83011261379a57600080fd5b8135818111156137a957600080fd5b8660208260051b85010111156137be57600080fd5b60209290920196919550909350505050565b6000806000606084860312156137e557600080fd5b83356137f081613568565b95602085013595506040909401359392505050565b6000806000806080858703121561381b57600080fd5b843561382681613568565b9350602085013561383681613568565b93969395505050506040820135916060013590565b6000806000806080858703121561386157600080fd5b843561386c81613568565b935060208501359250613881604086016135a9565b9396929550929360600135925050565b600080600080600060a086880312156138a957600080fd5b85356138b481613568565b94506020860135935060408601359250606086013591506138d7608087016135a9565b90509295509295909350565b600082601f8301126138f457600080fd5b8135602067ffffffffffffffff82111561391057613910613654565b8160051b61391f82820161366a565b928352848101820192828101908785111561393957600080fd5b83870192505b848310156139585782358252918301919083019061393f565b979650505050505050565b600080600080600060a0868803121561397b57600080fd5b853561398681613568565b9450602086013561399681613568565b9350604086013567ffffffffffffffff808211156139b357600080fd5b6139bf89838a016138e3565b945060608801359150808211156139d557600080fd5b6139e189838a016138e3565b935060808801359150808211156139f757600080fd5b50613a048882890161369b565b9150509295509295909350565b8015158114610f4e57600080fd5b600060208284031215613a3157600080fd5b81356131b581613a11565b600080600080600060a08688031215613a5457600080fd5b8535613a5f81613568565b94506020860135613a6f81613568565b93506040860135925060608601359150608086013567ffffffffffffffff811115613a9957600080fd5b613a048882890161369b565b600060208284031215613ab757600080fd5b81516131b581613a11565b600060208284031215613ad457600080fd5b81516131b581613568565b600060208284031215613af157600080fd5b5051919050565b634e487b7160e01b600052603260045260246000fd5b634e487b7160e01b600052601160045260246000fd5b600060018201613b3657613b36613b0e565b5060010190565b600082821015613b4f57613b4f613b0e565b500390565b60008219821115613b6757613b67613b0e565b500190565b6000816000190483118215151615613b8657613b86613b0e565b500290565b60005b83811015613ba6578181015183820152602001613b8e565b838111156115d65750506000910152565b7f416363657373436f6e74726f6c3a206163636f756e7420000000000000000000815260008351613bef816017850160208801613b8b565b7f206973206d697373696e6720726f6c65200000000000000000000000000000006017918401918201528351613c2c816028840160208801613b8b565b01602801949350505050565b6020815260008251806020840152613c57816040850160208701613b8b565b601f01601f19169190910160400192915050565b600082613c8857634e487b7160e01b600052601260045260246000fd5b500490565b600081613c9c57613c9c613b0e565b506000190190565b60008251613cb6818460208701613b8b565b919091019291505056fe416464726573733a206c6f772d6c6576656c2064656c65676174652063616c6c206661696c6564a264697066735822122065d0fa71e15b8f832deb5e7dc5df78cdca07cd4b84b6df60421b6d613379483564736f6c634300080e0033",
  "immutableReferences": {
    "992": [
      {
        "length": 32,
        "start": 3552
      },
      {
        "length": 32,
        "start": 3685
      },
      {
        "length": 32,
        "start": 4086
      },
      {
        "length": 32,
        "start": 4219
      },
      {
        "length": 32,
        "start": 4449
      }
    ]
  },
  "source": "// SPDX-License-Identifier: MIT\npragma solidity ^0.8.0;\n\nimport \"@openzeppelin/contracts/token/ERC721/ERC721.sol\";\nimport \"@openzeppelin/contracts/token/ERC721/IERC721Receiver.sol\";\nimport \"@openzeppelin/contracts/token/ERC1155/ERC1155.sol\";\nimport \"@openzeppelin/contracts/token/ERC1155/utils/ERC1155Holder.sol\";\nimport \"@openzeppelin/contracts/token/ERC20/ERC20.sol\";\nimport \"@openzeppelin/contracts-upgradeable/security/PausableUpgradeable.sol\";\nimport \"@openzeppelin/contracts-upgradeable/access/AccessControlUpgradeable.sol\";\nimport \"@openzeppelin/contracts-upgradeable/proxy/utils/Initializable.sol\";\nimport \"@openzeppelin/contracts-upgradeable/proxy/utils/UUPSUpgradeable.sol\";\nimport \"@openzeppelin/contracts-upgradeable/security/ReentrancyGuardUpgradeable.sol\";\n\ncontract StakingNFT is\n  PausableUpgradeable,\n  AccessControlUpgradeable,\n  UUPSUpgradeable,\n  ReentrancyGuardUpgradeable,\n  ERC1155Holder\n{\n  struct StakingInfo {\n    uint256 stakedAmount;\n    uint256 oldBalance;\n    uint256 timeOfLastUpdate;\n  }\n\n  // user => contract=> tokenid => StakingInfo\n  mapping(address => mapping(address => mapping(uint256 => StakingInfo[]))) public stakedBalances;\n\n  // the staking and reward token\n  IERC20 public rewardToken;\n  // the reward rate in percentage\n  uint256 public rewardRate;\n  // the reward rate duration\n  // so the final reward rate will be re (rewardRate/rewardRateDuration)\n  uint256 public rewardRateDuration; //604800\n\n  // pay Reward in crypto\n  bool public payReward;\n\n  mapping(address => bool) public whitelistContracts;\n\n  //percetage fee charged on unstaking amount\n  uint256 public unstakeFee;\n\n  /**************************************************/\n  /******************** Events **********************/\n  /**************************************************/\n  event TokensStaked(\n    address indexed user,\n    address indexed tokenContract,\n    uint256 indexed tokenId,\n    uint256 amount,\n    uint256 index\n  );\n  event TokensUnstaked(\n    address indexed user,\n    address indexed tokenContract,\n    uint256 indexed tokenId,\n    uint256 amount,\n    uint256 index\n  );\n  event TokenRestaked(\n    address indexed user,\n    address indexed tokenContract,\n    uint256 indexed tokenId,\n    uint256 amount,\n    uint256 index,\n    uint256 timestamp\n  );\n  event RewardsClaimed(address indexed user, uint256 amount);\n\n  event AddressAdded(address indexed account);\n  event AddressRemoved(address indexed account);\n\n  /**************************************************/\n  /****************** Constructor *******************/\n  /**************************************************/\n  /// @custom:oz-upgrades-unsafe-allow constructor\n  constructor() {\n    _disableInitializers();\n  }\n\n  function initialize(address _rewardToken, uint256 _rewardRate, uint256 _rewardRateDuration) public initializer {\n    rewardToken = IERC20(_rewardToken);\n    rewardRate = _rewardRate;\n    rewardRateDuration = _rewardRateDuration;\n\n    __AccessControl_init();\n    __UUPSUpgradeable_init();\n    __Pausable_init();\n    __ReentrancyGuard_init();\n    _grantRole(DEFAULT_ADMIN_ROLE, msg.sender);\n  }\n\n  /**************************************************/\n  /*******************  Modifiers *******************/\n  /**************************************************/\n  modifier amountGreaterThenZero(uint256 _amount) {\n    require(_amount > 0, \"Amount can't be zero\");\n    _;\n  }\n\n  modifier onlyWhitelisted(address _stakeTokenContractAddress) {\n    require(whitelistContracts[_stakeTokenContractAddress], \"Whitelist: NFT contract is not whitelisted\");\n    _;\n  }\n\n  modifier onlyAdmin() {\n    require(hasRole(DEFAULT_ADMIN_ROLE, msg.sender), \"Whitelist: Only admin can call this method\");\n    _;\n  }\n\n  /**************************************************/\n  /************** Internal View Functions *************/\n  /**************************************************/\n  // helper function\n  function _getPortion(uint256 _amount, uint256 _percentage) internal pure returns (uint256) {\n    return (_amount * _percentage) / 1000;\n  }\n\n  /**************************************************/\n  /*************Owner Calling Functions *************/\n  /**************************************************/\n\n  // set the reward rate\n  function setRewardRate(uint256 _rewardRate) external onlyAdmin {\n    rewardRate = _rewardRate;\n  }\n\n  // set the reward rate duration\n  function setRewardRateDuration(uint256 _rewardRateDuration) external onlyAdmin {\n    rewardRateDuration = _rewardRateDuration;\n  }\n\n  // set the payReward\n  function setPayReward(bool _payReward) external onlyAdmin {\n    payReward = _payReward;\n  }\n\n  // set the unstakeFee\n  function setUnstakeFee(uint256 _unstakeFee) external onlyAdmin {\n    unstakeFee = _unstakeFee;\n  }\n\n  // transfer token from this account to other if needed\n  function transferToken(address _to, uint256 _amount) external onlyAdmin {\n    require(rewardToken.transfer(_to, _amount), \"Token transfer failed!\");\n  }\n\n  function pause() public onlyAdmin {\n    _pause();\n  }\n\n  function unpause() public onlyAdmin {\n    _unpause();\n  }\n\n  /**************************************************/\n  /********** External Contract Functions ***********/\n  /**************************************************/\n\n  //Stake functions\n  function stakeToken(\n    address _tokenContract,\n    uint256 _tokenId,\n    uint256 _stakedAmount,\n    uint8 _tokenType // _tokenType 0 for ERC1155 and 1 for ERC71\n  ) external onlyWhitelisted(_tokenContract) whenNotPaused {\n    if (_tokenType == 1) {\n      require(IERC721(_tokenContract).ownerOf(_tokenId) == msg.sender, \"TokenStaking: Caller must own the NFT token\");\n\n      IERC721(_tokenContract).transferFrom(msg.sender, address(this), _tokenId);\n    } else {\n      require(\n        IERC1155(_tokenContract).balanceOf(msg.sender, _tokenId) >= _stakedAmount,\n        \"TokenStaking: Caller must have sufficient ERC1155 token balance\"\n      );\n\n      IERC1155(_tokenContract).safeTransferFrom(msg.sender, address(this), _tokenId, _stakedAmount, \"0x\");\n    }\n\n    StakingInfo memory newStaking = StakingInfo({\n      stakedAmount: _stakedAmount,\n      timeOfLastUpdate: block.timestamp,\n      oldBalance: 0\n    });\n\n    uint256 index = stakedBalances[msg.sender][_tokenContract][_tokenId].length;\n    stakedBalances[msg.sender][_tokenContract][_tokenId].push(newStaking);\n\n    emit TokensStaked(msg.sender, _tokenContract, _tokenId, _stakedAmount, index);\n  }\n\n  // function stakeTokenBatch(\n  //   address[] calldata _tokenContract,\n  //   uint256[] calldata _tokenType,\n  //   uint256[] calldata _tokenId,\n  //   uint256[] calldata _stakedAmount\n  // ) external whenNotPaused {\n  //   // check input length\n  //   require(\n  //     _tokenContract.length == _tokenType.length &&\n  //       _tokenContract.length == _tokenId.length &&\n  //       _tokenContract.length == _stakedAmount.length,\n  //     \"TokenStaking: input array length is invalid\"\n  //   );\n\n  //   uint256 len = _tokenContract.length;\n  //   uint256 i;\n  //   for (i; i < len; i++) {\n  //     require(whitelistContracts[_tokenContract[i]], \"Whitelist: NFT contract is not whitelisted\");\n  //     // check token type and transfer it\n  //     if (_tokenType[i] == 0) {\n  //       require(\n  //         IERC1155(_tokenContract[i]).balanceOf(msg.sender, _tokenId[i]) >= _stakedAmount[i],\n  //         \"TokenStaking: Caller must have sufficient ERC1155 token balance\"\n  //       );\n  //       IERC1155(_tokenContract[i]).safeTransferFrom(msg.sender, address(this), _tokenId[i], _stakedAmount[i], \"0x\");\n  //     } else {\n  //       require(\n  //         IERC721(_tokenContract[i]).ownerOf(_tokenId[i]) == msg.sender,\n  //         \"TokenStaking: Caller must own the ERC721 token\"\n  //       );\n  //       IERC721(_tokenContract[i]).transferFrom(msg.sender, address(this), _tokenId[i]);\n  //     }\n  //     // add stake data\n  //     StakingInfo memory newStaking = StakingInfo({\n  //       stakedAmount: _stakedAmount[i],\n  //       timeOfLastUpdate: block.timestamp,\n  //       oldBalance: 0\n  //     });\n  //     uint256 index = stakedBalances[msg.sender][_tokenContract[i]][_tokenId[i]].length;\n  //     stakedBalances[msg.sender][_tokenContract[i]][_tokenId[i]].push(newStaking);\n\n  //     emit TokensStaked(msg.sender, _tokenContract[i], _tokenId[i], _stakedAmount[i], index);\n  //   }\n  // }\n\n  //Unstake functions\n  function unStakeToken(\n    address _tokenContract,\n    uint256 _tokenId,\n    uint256 _unStakedAmount,\n    uint256 _index,\n    uint8 _tokenType // _tokenType 0 for ERC1155 and 1 for ERC71\n  ) external onlyWhitelisted(_tokenContract) whenNotPaused nonReentrant {\n    require(\n      stakedBalances[msg.sender][_tokenContract][_tokenId][_index].stakedAmount >= _unStakedAmount,\n      \"TokenStaking: Insufficient Staked NFT token balance\"\n    );\n    if (_tokenType == 1) {\n      require(\n        IERC721(_tokenContract).ownerOf(_tokenId) == address(this),\n        \"TokenStaking: Contract must own the ERC721 token\"\n      );\n    } else {\n      require(\n        IERC1155(_tokenContract).balanceOf(address(this), _tokenId) >= _unStakedAmount,\n        \"TokenStaking: Contract must have sufficient ERC1155 token balance\"\n      );\n    }\n    // claim all rewards for current time\n    if (payReward) {\n      claimRewards(_tokenContract, _tokenId, _index);\n    }\n    stakedBalances[msg.sender][_tokenContract][_tokenId][_index].stakedAmount -= _unStakedAmount;\n\n    if (_tokenType == 0) {\n      IERC1155(_tokenContract).safeTransferFrom(address(this), msg.sender, _tokenId, _unStakedAmount, \"0x\");\n    } else {\n      IERC721(_tokenContract).transferFrom(address(this), msg.sender, _tokenId);\n    }\n\n    emit TokensUnstaked(msg.sender, _tokenContract, _tokenId, _unStakedAmount, _index);\n  }\n\n  // function unStakeTokenBatch(\n  //   address[] calldata _tokenContract,\n  //   uint256[] calldata _tokenType,\n  //   uint256[] calldata _tokenId,\n  //   uint256[] calldata _unStakedAmount,\n  //   uint256[] calldata _index\n  // ) external whenNotPaused nonReentrant {\n  //   // check input length\n  //   require(\n  //     _tokenContract.length == _tokenType.length &&\n  //       _tokenContract.length == _tokenId.length &&\n  //       _tokenContract.length == _unStakedAmount.length &&\n  //       _tokenContract.length == _index.length,\n  //     \"TokenStaking: input array length is invalid\"\n  //   );\n\n  //   uint256 len = _tokenContract.length;\n  //   uint256 i;\n  //   for (i; i < len; i++) {\n  //     require(\n  //       stakedBalances[msg.sender][_tokenContract[i]][_tokenId[i]][_index[i]].stakedAmount >= _unStakedAmount[i],\n  //       \"TokenStaking: Insufficient Staked NFT token balance\"\n  //     );\n  //     if (_tokenType[i] == 0) {\n  //       require(\n  //         IERC1155(_tokenContract[i]).balanceOf(address(this), _tokenId[i]) >= _unStakedAmount[i],\n  //         \"TokenStaking: Contract must have sufficient ERC1155 token balance\"\n  //       );\n  //     } else {\n  //       require(\n  //         IERC721(_tokenContract[i]).ownerOf(_tokenId[i]) == address(this),\n  //         \"TokenStaking: Contract must own the ERC721 token\"\n  //       );\n  //     }\n\n  //     // claim all rewards for current time\n  //     if (payReward) {\n  //       claimRewards(_tokenContract[i], _tokenId[i], _index[i]);\n  //     }\n  //     stakedBalances[msg.sender][_tokenContract[i]][_tokenId[i]][_index[i]].stakedAmount -= _unStakedAmount[i];\n\n  //     if (_tokenType[i] == 0) {\n  //       IERC1155(_tokenContract[i]).safeTransferFrom(address(this), msg.sender, _tokenId[i], _unStakedAmount[i], \"0x\");\n  //     } else {\n  //       IERC721(_tokenContract[i]).transferFrom(address(this), msg.sender, _tokenId[i]);\n  //     }\n  //     emit TokensUnstaked(msg.sender, _tokenContract[i], _tokenId[i], _unStakedAmount[i], _index[i]);\n  //   }\n  // }\n\n  //Restake functions\n  function reStakeToken(\n    address _tokenContract,\n    uint256 _tokenId,\n    uint8 _tokenType, // _tokenType 0 for ERC1155 and 1 for ERC71\n    uint256 _index\n  ) external onlyWhitelisted(_tokenContract) whenNotPaused nonReentrant {\n    uint _reStakedAmount = stakedBalances[msg.sender][_tokenContract][_tokenId][_index].stakedAmount;\n    require(_reStakedAmount > 0, \"TokenStaking: Staking Data not found\");\n    if (_tokenType == 0) {\n      require(\n        IERC1155(_tokenContract).balanceOf(address(this), _tokenId) >= _reStakedAmount,\n        \"TokenStaking: Contract must have sufficient ERC1155 token balance\"\n      );\n    } else {\n      require(\n        IERC721(_tokenContract).ownerOf(_tokenId) == address(this),\n        \"TokenStaking: Contract must own the ERC721 token\"\n      );\n    }\n\n    // update old blance and time of last update\n    stakedBalances[msg.sender][_tokenContract][_tokenId][_index].oldBalance = calculateRewards(\n      msg.sender,\n      _tokenContract,\n      _tokenId,\n      _index\n    );\n    stakedBalances[msg.sender][_tokenContract][_tokenId][_index].timeOfLastUpdate = block.timestamp;\n\n    emit TokenRestaked(msg.sender, _tokenContract, _tokenId, _reStakedAmount, _index, block.timestamp);\n  }\n\n  // function reStakeTokenBatch(\n  //   address[] calldata _tokenContract,\n  //   uint256[] calldata _tokenType,\n  //   uint256[] calldata _tokenId,\n  //   uint256[] calldata _index\n  // ) external whenNotPaused {\n  //   // check input length\n  //   require(\n  //     _tokenContract.length == _tokenType.length &&\n  //       _tokenContract.length == _tokenId.length &&\n  //       _tokenContract.length == _index.length,\n  //     \"TokenStaking: input array length is invalid\"\n  //   );\n\n  //   uint256 len = _tokenContract.length;\n  //   uint256 i;\n  //   for (i; i < len; i++) {\n  //   uint _reStakedAmount = stakedBalances[msg.sender][_tokenContract[i]][_tokenId[i]][_index[i]].stakedAmount;\n  //   require(_reStakedAmount > 0, \"TokenStaking: Staking Data not found\");\n  //   if (_tokenType[i] == 0) {\n  //     require(\n  //       IERC1155(_tokenContract[i]).balanceOf(address(this), _tokenId[i]) >= _reStakedAmount,\n  //       \"TokenStaking: Contract must have sufficient ERC1155 token balance\"\n  //     );\n  //   } else {\n  //     require(\n  //       IERC721(_tokenContract[i]).ownerOf(_tokenId[i]) == address(this),\n  //       \"TokenStaking: Contract must own the ERC721 token\"\n  //     );\n  //   }\n\n  //   // update old blance and time of last update\n  //   stakedBalances[msg.sender][_tokenContract[i]][_tokenId[i]][_index[i]].oldBalance = calculateRewards(\n  //     msg.sender,\n  //     _tokenContract[i],\n  //     _tokenId[i],\n  //     _index[i]\n  //   );\n  //   stakedBalances[msg.sender][_tokenContract[i]][_tokenId[i]][_index[i]].timeOfLastUpdate = block.timestamp;\n\n  //   emit TokenRestaked(msg.sender, _tokenContract[i], _tokenId[i], _reStakedAmount, _index[i], block.timestamp);\n  //   }\n  // }\n\n  // Claim reward\n  function claimRewards(\n    address _tokenContract,\n    uint256 _tokenId,\n    uint256 _index\n  ) internal whenNotPaused onlyWhitelisted(_tokenContract) returns (bool) {\n    // get claimed amount _msgSender\n    uint256 rewards = calculateRewards(msg.sender, _tokenContract, _tokenId, _index);\n\n    require(rewards > 0, \"TokenStaking: No rewards available\");\n    require(rewardToken.balanceOf(address(this)) >= rewards, \"TokenStaking: Insufficient reward balance\");\n\n    stakedBalances[msg.sender][_tokenContract][_tokenId][_index].timeOfLastUpdate = block.timestamp;\n\n    // transfer reward amount\n    uint256 unstakeFeeAmount;\n    if (unstakeFee > 0) {\n      unstakeFeeAmount = _getPortion(rewards, unstakeFee);\n    }\n    rewardToken.transfer(\n      msg.sender,\n      stakedBalances[msg.sender][_tokenContract][_tokenId][_index].oldBalance + rewards - unstakeFeeAmount\n    );\n\n    emit RewardsClaimed(msg.sender, rewards);\n\n    return true;\n  }\n\n  function calculateRewards(\n    address _user,\n    address _tokenContract,\n    uint256 _tokenId,\n    uint256 _index\n  ) public view returns (uint256) {\n    require(stakedBalances[_user][_tokenContract][_tokenId].length > _index, \"TokenStaking: invalid index\");\n    if (stakedBalances[_user][_tokenContract][_tokenId][_index].stakedAmount > 0) {\n      uint256 stakingEndTime = stakedBalances[_user][_tokenContract][_tokenId][_index].timeOfLastUpdate +\n        rewardRateDuration;\n      require(block.timestamp > stakingEndTime, \"TokenStaking: Staking duration is not completed\");\n      uint256 totalRewards = rewardRate *\n        // rewardDuration *\n        stakedBalances[_user][_tokenContract][_tokenId][_index].stakedAmount;\n\n      return totalRewards;\n    }\n    return 0;\n  }\n\n  /**************************************************/\n  /********* Whitelisted Contract Functions *********/\n  /**************************************************/\n\n  function addToWhitelist(address[] calldata _whitelistContracts) external onlyAdmin {\n    for (uint256 i = 0; i < _whitelistContracts.length; i++) {\n      address account = _whitelistContracts[i];\n      require(account != address(0), \"Whitelist: Cannot add zero address\");\n\n      if (!whitelistContracts[account]) {\n        whitelistContracts[account] = true;\n        emit AddressAdded(account);\n      }\n    }\n  }\n\n  function removeFromWhitelist(address[] calldata _whitelistContracts) external onlyAdmin {\n    for (uint256 i = 0; i < _whitelistContracts.length; i++) {\n      address account = _whitelistContracts[i];\n      require(whitelistContracts[account], \"Whitelist: Account is not whitelisted\");\n\n      whitelistContracts[account] = false;\n      emit AddressRemoved(account);\n    }\n  }\n\n  /**\n   *  _authorizeUpgrade\n   */\n  function _authorizeUpgrade(address newImplementation) internal override onlyRole(DEFAULT_ADMIN_ROLE) {}\n\n  /**\n   * @dev See {IERC165-supportsInterface}.\n   */\n  function supportsInterface(\n    bytes4 interfaceId\n  ) public view virtual override(ERC1155Receiver, AccessControlUpgradeable) returns (bool) {\n    return super.supportsInterface(interfaceId);\n  }\n}\n",
  "sourcePath": "/Users/mujtabasiddiqui/Desktop/Mujtaba/lootmogul/final-code/marketplace/src/contracts/Stacking.sol",
  "compiler": {
    "name": "solc",
    "version": "0.8.14+commit.80d49f37.Emscripten.clang"
  },
  "schemaVersion": "3.4.16",
  "updatedAt": "2025-04-05T17:16:36.184Z",
  "devdoc": {
    "kind": "dev",
    "methods": {
      "constructor": {
        "custom:oz-upgrades-unsafe-allow": "constructor"
      },
      "getRoleAdmin(bytes32)": {
        "details": "Returns the admin role that controls `role`. See {grantRole} and {revokeRole}. To change a role's admin, use {_setRoleAdmin}."
      },
      "grantRole(bytes32,address)": {
        "details": "Grants `role` to `account`. If `account` had not been already granted `role`, emits a {RoleGranted} event. Requirements: - the caller must have ``role``'s admin role. May emit a {RoleGranted} event."
      },
      "hasRole(bytes32,address)": {
        "details": "Returns `true` if `account` has been granted `role`."
      },
      "paused()": {
        "details": "Returns true if the contract is paused, and false otherwise."
      },
      "proxiableUUID()": {
        "details": "Implementation of the ERC1822 {proxiableUUID} function. This returns the storage slot used by the implementation. It is used to validate the implementation's compatibility when performing an upgrade. IMPORTANT: A proxy pointing at a proxiable contract should not be considered proxiable itself, because this risks bricking a proxy that upgrades to it, by delegating to itself until out of gas. Thus it is critical that this function revert if invoked through a proxy. This is guaranteed by the `notDelegated` modifier."
      },
      "renounceRole(bytes32,address)": {
        "details": "Revokes `role` from the calling account. Roles are often managed via {grantRole} and {revokeRole}: this function's purpose is to provide a mechanism for accounts to lose their privileges if they are compromised (such as when a trusted device is misplaced). If the calling account had been revoked `role`, emits a {RoleRevoked} event. Requirements: - the caller must be `account`. May emit a {RoleRevoked} event."
      },
      "revokeRole(bytes32,address)": {
        "details": "Revokes `role` from `account`. If `account` had been granted `role`, emits a {RoleRevoked} event. Requirements: - the caller must have ``role``'s admin role. May emit a {RoleRevoked} event."
      },
      "supportsInterface(bytes4)": {
        "details": "See {IERC165-supportsInterface}."
      },
      "upgradeTo(address)": {
        "custom:oz-upgrades-unsafe-allow-reachable": "delegatecall",
        "details": "Upgrade the implementation of the proxy to `newImplementation`. Calls {_authorizeUpgrade}. Emits an {Upgraded} event."
      },
      "upgradeToAndCall(address,bytes)": {
        "custom:oz-upgrades-unsafe-allow-reachable": "delegatecall",
        "details": "Upgrade the implementation of the proxy to `newImplementation`, and subsequently execute the function call encoded in `data`. Calls {_authorizeUpgrade}. Emits an {Upgraded} event."
      }
    },
    "version": 1
  },
  "userdoc": {
    "kind": "user",
    "methods": {},
    "version": 1
  }
}