{
  "contractName": "StakingNFT",
  "abi": [
    {
      "inputs": [],
      "stateMutability": "nonpayable",
      "type": "constructor"
    },
    {
      "anonymous": false,
      "inputs": [
        {
          "indexed": true,
          "internalType": "address",
          "name": "account",
          "type": "address"
        }
      ],
      "name": "AddressAdded",
      "type": "event"
    },
    {
      "anonymous": false,
      "inputs": [
        {
          "indexed": true,
          "internalType": "address",
          "name": "account",
          "type": "address"
        }
      ],
      "name": "AddressRemoved",
      "type": "event"
    },
    {
      "anonymous": false,
      "inputs": [
        {
          "indexed": false,
          "internalType": "address",
          "name": "previousAdmin",
          "type": "address"
        },
        {
          "indexed": false,
          "internalType": "address",
          "name": "newAdmin",
          "type": "address"
        }
      ],
      "name": "AdminChanged",
      "type": "event"
    },
    {
      "anonymous": false,
      "inputs": [
        {
          "indexed": true,
          "internalType": "address",
          "name": "beacon",
          "type": "address"
        }
      ],
      "name": "BeaconUpgraded",
      "type": "event"
    },
    {
      "anonymous": false,
      "inputs": [
        {
          "indexed": false,
          "internalType": "uint8",
          "name": "version",
          "type": "uint8"
        }
      ],
      "name": "Initialized",
      "type": "event"
    },
    {
      "anonymous": false,
      "inputs": [
        {
          "indexed": false,
          "internalType": "address",
          "name": "account",
          "type": "address"
        }
      ],
      "name": "Paused",
      "type": "event"
    },
    {
      "anonymous": false,
      "inputs": [
        {
          "indexed": true,
          "internalType": "address",
          "name": "user",
          "type": "address"
        },
        {
          "indexed": false,
          "internalType": "uint256",
          "name": "amount",
          "type": "uint256"
        }
      ],
      "name": "RewardsClaimed",
      "type": "event"
    },
    {
      "anonymous": false,
      "inputs": [
        {
          "indexed": true,
          "internalType": "bytes32",
          "name": "role",
          "type": "bytes32"
        },
        {
          "indexed": true,
          "internalType": "bytes32",
          "name": "previousAdminRole",
          "type": "bytes32"
        },
        {
          "indexed": true,
          "internalType": "bytes32",
          "name": "newAdminRole",
          "type": "bytes32"
        }
      ],
      "name": "RoleAdminChanged",
      "type": "event"
    },
    {
      "anonymous": false,
      "inputs": [
        {
          "indexed": true,
          "internalType": "bytes32",
          "name": "role",
          "type": "bytes32"
        },
        {
          "indexed": true,
          "internalType": "address",
          "name": "account",
          "type": "address"
        },
        {
          "indexed": true,
          "internalType": "address",
          "name": "sender",
          "type": "address"
        }
      ],
      "name": "RoleGranted",
      "type": "event"
    },
    {
      "anonymous": false,
      "inputs": [
        {
          "indexed": true,
          "internalType": "bytes32",
          "name": "role",
          "type": "bytes32"
        },
        {
          "indexed": true,
          "internalType": "address",
          "name": "account",
          "type": "address"
        },
        {
          "indexed": true,
          "internalType": "address",
          "name": "sender",
          "type": "address"
        }
      ],
      "name": "RoleRevoked",
      "type": "event"
    },
    {
      "anonymous": false,
      "inputs": [
        {
          "indexed": true,
          "internalType": "address",
          "name": "user",
          "type": "address"
        },
        {
          "indexed": true,
          "internalType": "address",
          "name": "tokenContract",
          "type": "address"
        },
        {
          "indexed": true,
          "internalType": "uint256",
          "name": "tokenId",
          "type": "uint256"
        },
        {
          "indexed": false,
          "internalType": "uint256",
          "name": "amount",
          "type": "uint256"
        },
        {
          "indexed": false,
          "internalType": "uint256",
          "name": "index",
          "type": "uint256"
        },
        {
          "indexed": false,
          "internalType": "uint256",
          "name": "timestamp",
          "type": "uint256"
        }
      ],
      "name": "TokenRestaked",
      "type": "event"
    },
    {
      "anonymous": false,
      "inputs": [
        {
          "indexed": true,
          "internalType": "address",
          "name": "user",
          "type": "address"
        },
        {
          "indexed": true,
          "internalType": "address",
          "name": "tokenContract",
          "type": "address"
        },
        {
          "indexed": true,
          "internalType": "uint256",
          "name": "tokenId",
          "type": "uint256"
        },
        {
          "indexed": false,
          "internalType": "uint256",
          "name": "amount",
          "type": "uint256"
        },
        {
          "indexed": false,
          "internalType": "uint256",
          "name": "index",
          "type": "uint256"
        }
      ],
      "name": "TokensStaked",
      "type": "event"
    },
    {
      "anonymous": false,
      "inputs": [
        {
          "indexed": true,
          "internalType": "address",
          "name": "user",
          "type": "address"
        },
        {
          "indexed": true,
          "internalType": "address",
          "name": "tokenContract",
          "type": "address"
        },
        {
          "indexed": true,
          "internalType": "uint256",
          "name": "tokenId",
          "type": "uint256"
        },
        {
          "indexed": false,
          "internalType": "uint256",
          "name": "amount",
          "type": "uint256"
        },
        {
          "indexed": false,
          "internalType": "uint256",
          "name": "index",
          "type": "uint256"
        }
      ],
      "name": "TokensUnstaked",
      "type": "event"
    },
    {
      "anonymous": false,
      "inputs": [
        {
          "indexed": false,
          "internalType": "address",
          "name": "account",
          "type": "address"
        }
      ],
      "name": "Unpaused",
      "type": "event"
    },
    {
      "anonymous": false,
      "inputs": [
        {
          "indexed": true,
          "internalType": "address",
          "name": "implementation",
          "type": "address"
        }
      ],
      "name": "Upgraded",
      "type": "event"
    },
    {
      "inputs": [],
      "name": "DEFAULT_ADMIN_ROLE",
      "outputs": [
        {
          "internalType": "bytes32",
          "name": "",
          "type": "bytes32"
        }
      ],
      "stateMutability": "view",
      "type": "function"
    },
    {
      "inputs": [
        {
          "internalType": "bytes32",
          "name": "role",
          "type": "bytes32"
        }
      ],
      "name": "getRoleAdmin",
      "outputs": [
        {
          "internalType": "bytes32",
          "name": "",
          "type": "bytes32"
        }
      ],
      "stateMutability": "view",
      "type": "function"
    },
    {
      "inputs": [
        {
          "internalType": "bytes32",
          "name": "role",
          "type": "bytes32"
        },
        {
          "internalType": "address",
          "name": "account",
          "type": "address"
        }
      ],
      "name": "grantRole",
      "outputs": [],
      "stateMutability": "nonpayable",
      "type": "function"
    },
    {
      "inputs": [
        {
          "internalType": "bytes32",
          "name": "role",
          "type": "bytes32"
        },
        {
          "internalType": "address",
          "name": "account",
          "type": "address"
        }
      ],
      "name": "hasRole",
      "outputs": [
        {
          "internalType": "bool",
          "name": "",
          "type": "bool"
        }
      ],
      "stateMutability": "view",
      "type": "function"
    },
    {
      "inputs": [
        {
          "internalType": "address",
          "name": "",
          "type": "address"
        },
        {
          "internalType": "address",
          "name": "",
          "type": "address"
        },
        {
          "internalType": "uint256[]",
          "name": "",
          "type": "uint256[]"
        },
        {
          "internalType": "uint256[]",
          "name": "",
          "type": "uint256[]"
        },
        {
          "internalType": "bytes",
          "name": "",
          "type": "bytes"
        }
      ],
      "name": "onERC1155BatchReceived",
      "outputs": [
        {
          "internalType": "bytes4",
          "name": "",
          "type": "bytes4"
        }
      ],
      "stateMutability": "nonpayable",
      "type": "function"
    },
    {
      "inputs": [
        {
          "internalType": "address",
          "name": "",
          "type": "address"
        },
        {
          "internalType": "address",
          "name": "",
          "type": "address"
        },
        {
          "internalType": "uint256",
          "name": "",
          "type": "uint256"
        },
        {
          "internalType": "uint256",
          "name": "",
          "type": "uint256"
        },
        {
          "internalType": "bytes",
          "name": "",
          "type": "bytes"
        }
      ],
      "name": "onERC1155Received",
      "outputs": [
        {
          "internalType": "bytes4",
          "name": "",
          "type": "bytes4"
        }
      ],
      "stateMutability": "nonpayable",
      "type": "function"
    },
    {
      "inputs": [],
      "name": "paused",
      "outputs": [
        {
          "internalType": "bool",
          "name": "",
          "type": "bool"
        }
      ],
      "stateMutability": "view",
      "type": "function"
    },
    {
      "inputs": [],
      "name": "payReward",
      "outputs": [
        {
          "internalType": "bool",
          "name": "",
          "type": "bool"
        }
      ],
      "stateMutability": "view",
      "type": "function"
    },
    {
      "inputs": [],
      "name": "proxiableUUID",
      "outputs": [
        {
          "internalType": "bytes32",
          "name": "",
          "type": "bytes32"
        }
      ],
      "stateMutability": "view",
      "type": "function"
    },
    {
      "inputs": [
        {
          "internalType": "bytes32",
          "name": "role",
          "type": "bytes32"
        },
        {
          "internalType": "address",
          "name": "account",
          "type": "address"
        }
      ],
      "name": "renounceRole",
      "outputs": [],
      "stateMutability": "nonpayable",
      "type": "function"
    },
    {
      "inputs": [
        {
          "internalType": "bytes32",
          "name": "role",
          "type": "bytes32"
        },
        {
          "internalType": "address",
          "name": "account",
          "type": "address"
        }
      ],
      "name": "revokeRole",
      "outputs": [],
      "stateMutability": "nonpayable",
      "type": "function"
    },
    {
      "inputs": [],
      "name": "rewardRate",
      "outputs": [
        {
          "internalType": "uint256",
          "name": "",
          "type": "uint256"
        }
      ],
      "stateMutability": "view",
      "type": "function"
    },
    {
      "inputs": [],
      "name": "rewardRateDuration",
      "outputs": [
        {
          "internalType": "uint256",
          "name": "",
          "type": "uint256"
        }
      ],
      "stateMutability": "view",
      "type": "function"
    },
    {
      "inputs": [],
      "name": "rewardToken",
      "outputs": [
        {
          "internalType": "contract IERC20",
          "name": "",
          "type": "address"
        }
      ],
      "stateMutability": "view",
      "type": "function"
    },
    {
      "inputs": [
        {
          "internalType": "address",
          "name": "",
          "type": "address"
        },
        {
          "internalType": "address",
          "name": "",
          "type": "address"
        },
        {
          "internalType": "uint256",
          "name": "",
          "type": "uint256"
        },
        {
          "internalType": "uint256",
          "name": "",
          "type": "uint256"
        }
      ],
      "name": "stakedBalances",
      "outputs": [
        {
          "internalType": "uint256",
          "name": "stakedAmount",
          "type": "uint256"
        },
        {
          "internalType": "uint256",
          "name": "oldBalance",
          "type": "uint256"
        },
        {
          "internalType": "uint256",
          "name": "timeOfLastUpdate",
          "type": "uint256"
        }
      ],
      "stateMutability": "view",
      "type": "function"
    },
    {
      "inputs": [],
      "name": "unstakeFee",
      "outputs": [
        {
          "internalType": "uint256",
          "name": "",
          "type": "uint256"
        }
      ],
      "stateMutability": "view",
      "type": "function"
    },
    {
      "inputs": [
        {
          "internalType": "address",
          "name": "newImplementation",
          "type": "address"
        }
      ],
      "name": "upgradeTo",
      "outputs": [],
      "stateMutability": "nonpayable",
      "type": "function"
    },
    {
      "inputs": [
        {
          "internalType": "address",
          "name": "newImplementation",
          "type": "address"
        },
        {
          "internalType": "bytes",
          "name": "data",
          "type": "bytes"
        }
      ],
      "name": "upgradeToAndCall",
      "outputs": [],
      "stateMutability": "payable",
      "type": "function"
    },
    {
      "inputs": [
        {
          "internalType": "address",
          "name": "",
          "type": "address"
        }
      ],
      "name": "whitelistContracts",
      "outputs": [
        {
          "internalType": "bool",
          "name": "",
          "type": "bool"
        }
      ],
      "stateMutability": "view",
      "type": "function"
    },
    {
      "inputs": [
        {
          "internalType": "address",
          "name": "_rewardToken",
          "type": "address"
        },
        {
          "internalType": "uint256",
          "name": "_rewardRate",
          "type": "uint256"
        },
        {
          "internalType": "uint256",
          "name": "_rewardRateDuration",
          "type": "uint256"
        }
      ],
      "name": "initialize",
      "outputs": [],
      "stateMutability": "nonpayable",
      "type": "function"
    },
    {
      "inputs": [
        {
          "internalType": "uint256",
          "name": "_rewardRate",
          "type": "uint256"
        }
      ],
      "name": "setRewardRate",
      "outputs": [],
      "stateMutability": "nonpayable",
      "type": "function"
    },
    {
      "inputs": [
        {
          "internalType": "uint256",
          "name": "_rewardRateDuration",
          "type": "uint256"
        }
      ],
      "name": "setRewardRateDuration",
      "outputs": [],
      "stateMutability": "nonpayable",
      "type": "function"
    },
    {
      "inputs": [
        {
          "internalType": "bool",
          "name": "_payReward",
          "type": "bool"
        }
      ],
      "name": "setPayReward",
      "outputs": [],
      "stateMutability": "nonpayable",
      "type": "function"
    },
    {
      "inputs": [
        {
          "internalType": "uint256",
          "name": "_unstakeFee",
          "type": "uint256"
        }
      ],
      "name": "setUnstakeFee",
      "outputs": [],
      "stateMutability": "nonpayable",
      "type": "function"
    },
    {
      "inputs": [
        {
          "internalType": "address",
          "name": "_to",
          "type": "address"
        },
        {
          "internalType": "uint256",
          "name": "_amount",
          "type": "uint256"
        }
      ],
      "name": "transferToken",
      "outputs": [],
      "stateMutability": "nonpayable",
      "type": "function"
    },
    {
      "inputs": [],
      "name": "pause",
      "outputs": [],
      "stateMutability": "nonpayable",
      "type": "function"
    },
    {
      "inputs": [],
      "name": "unpause",
      "outputs": [],
      "stateMutability": "nonpayable",
      "type": "function"
    },
    {
      "inputs": [
        {
          "internalType": "address",
          "name": "_tokenContract",
          "type": "address"
        },
        {
          "internalType": "uint256",
          "name": "_tokenId",
          "type": "uint256"
        },
        {
          "internalType": "uint256",
          "name": "_stakedAmount",
          "type": "uint256"
        },
        {
          "internalType": "uint8",
          "name": "_tokenType",
          "type": "uint8"
        }
      ],
      "name": "stakeToken",
      "outputs": [],
      "stateMutability": "nonpayable",
      "type": "function"
    },
    {
      "inputs": [
        {
          "internalType": "address",
          "name": "_tokenContract",
          "type": "address"
        },
        {
          "internalType": "uint256",
          "name": "_tokenId",
          "type": "uint256"
        },
        {
          "internalType": "uint256",
          "name": "_unStakedAmount",
          "type": "uint256"
        },
        {
          "internalType": "uint256",
          "name": "_index",
          "type": "uint256"
        },
        {
          "internalType": "uint8",
          "name": "_tokenType",
          "type": "uint8"
        }
      ],
      "name": "unStakeToken",
      "outputs": [],
      "stateMutability": "nonpayable",
      "type": "function"
    },
    {
      "inputs": [
        {
          "internalType": "address",
          "name": "_tokenContract",
          "type": "address"
        },
        {
          "internalType": "uint256",
          "name": "_tokenId",
          "type": "uint256"
        },
        {
          "internalType": "uint8",
          "name": "_tokenType",
          "type": "uint8"
        },
        {
          "internalType": "uint256",
          "name": "_index",
          "type": "uint256"
        }
      ],
      "name": "reStakeToken",
      "outputs": [],
      "stateMutability": "nonpayable",
      "type": "function"
    },
    {
      "inputs": [
        {
          "internalType": "address",
          "name": "_user",
          "type": "address"
        },
        {
          "internalType": "address",
          "name": "_tokenContract",
          "type": "address"
        },
        {
          "internalType": "uint256",
          "name": "_tokenId",
          "type": "uint256"
        },
        {
          "internalType": "uint256",
          "name": "_index",
          "type": "uint256"
        }
      ],
      "name": "calculateRewards",
      "outputs": [
        {
          "internalType": "uint256",
          "name": "",
          "type": "uint256"
        }
      ],
      "stateMutability": "view",
      "type": "function"
    },
    {
      "inputs": [
        {
          "internalType": "address[]",
          "name": "_whitelistContracts",
          "type": "address[]"
        }
      ],
      "name": "addToWhitelist",
      "outputs": [],
      "stateMutability": "nonpayable",
      "type": "function"
    },
    {
      "inputs": [
        {
          "internalType": "address[]",
          "name": "_whitelistContracts",
          "type": "address[]"
        }
      ],
      "name": "removeFromWhitelist",
      "outputs": [],
      "stateMutability": "nonpayable",
      "type": "function"
    },
    {
      "inputs": [
        {
          "internalType": "bytes4",
          "name": "interfaceId",
          "type": "bytes4"
        }
      ],
      "name": "supportsInterface",
      "outputs": [
        {
          "internalType": "bool",
          "name": "",
          "type": "bool"
        }
      ],
      "stateMutability": "view",
      "type": "function"
    }
  ],
  "bytecode": "0x60a0604052306080523480156200001557600080fd5b506200002062000026565b620000e8565b600054610100900460ff1615620000935760405162461bcd60e51b815260206004820152602760248201527f496e697469616c697a61626c653a20636f6e747261637420697320696e697469604482015266616c697a696e6760c81b606482015260840160405180910390fd5b60005460ff9081161015620000e6576000805460ff191660ff9081179091556040519081527f7f26b83ff96e1f2b6a682f133852f6798a09c465da95921460cefb38474024989060200160405180910390a15b565b608051613b626200012060003960008181610de001528181610e6501528181610ff60152818161107b01526111610152613b626000f3fe6080604052600436106102185760003560e01c80637f6497831161011d578063af5a6c7e116100b0578063db4172401161007f578063efea48bc11610064578063efea48bc1461066a578063f23a6e6114610681578063f7c618c1146106c657600080fd5b8063db4172401461062a578063e51b9bc81461064a57600080fd5b8063af5a6c7e1461055b578063b44bfd981461058c578063bc197c81146105ac578063d547741f1461060a57600080fd5b806399a93df2116100ec57806399a93df2146104cb5780639e447fc614610506578063a00ac67814610526578063a217fddf1461054657600080fd5b80637f649783146104395780638456cb59146104595780638ea97d261461046e57806391d148541461048557600080fd5b80633f4ba83a116101b05780635c975abb1161017f5780637842a3a4116101645780637842a3a4146103e75780637a1ac61e146104025780637b0a47ee1461042257600080fd5b80635c975abb146103af5780636509698d146103c757600080fd5b80633f4ba83a146103525780634f1ef2861461036757806352d1902d1461037a578063548db1741461038f57600080fd5b8063248a9ca3116101ec578063248a9ca3146102b45780632f2ff15d146102f257806336568abe146103125780633659cfe61461033257600080fd5b806218a1161461021d57806301ffc9a71461023f5780631072cbea14610274578063197ee75614610294575b600080fd5b34801561022957600080fd5b5061023d61023836600461336a565b6106ff565b005b34801561024b57600080fd5b5061025f61025a366004613383565b61079b565b60405190151581526020015b60405180910390f35b34801561028057600080fd5b5061023d61028f3660046133c2565b6107ac565b3480156102a057600080fd5b5061023d6102af366004613404565b61091e565b3480156102c057600080fd5b506102e46102cf36600461336a565b60009081526097602052604090206001015490565b60405190815260200161026b565b3480156102fe57600080fd5b5061023d61030d36600461344c565b610d24565b34801561031e57600080fd5b5061023d61032d36600461344c565b610d4e565b34801561033e57600080fd5b5061023d61034d36600461347c565b610dd6565b34801561035e57600080fd5b5061023d610f51565b61023d610375366004613550565b610fec565b34801561038657600080fd5b506102e4611154565b34801561039b57600080fd5b5061023d6103aa3660046135a0565b611219565b3480156103bb57600080fd5b5060335460ff1661025f565b3480156103d357600080fd5b5061023d6103e236600461336a565b6113ca565b3480156103f357600080fd5b506101635461025f9060ff1681565b34801561040e57600080fd5b5061023d61041d366004613615565b611461565b34801561042e57600080fd5b506102e46101615481565b34801561044557600080fd5b5061023d6104543660046135a0565b6115cc565b34801561046557600080fd5b5061023d61178e565b34801561047a57600080fd5b506102e46101655481565b34801561049157600080fd5b5061025f6104a036600461344c565b60009182526097602090815260408084206001600160a01b0393909316845291905290205460ff1690565b3480156104d757600080fd5b506104eb6104e636600461364a565b611827565b6040805193845260208401929092529082015260600161026b565b34801561051257600080fd5b5061023d61052136600461336a565b611889565b34801561053257600080fd5b5061023d610541366004613690565b611920565b34801561055257600080fd5b506102e4600081565b34801561056757600080fd5b5061025f61057636600461347c565b6101646020526000908152604090205460ff1681565b34801561059857600080fd5b5061023d6105a73660046136d6565b611d70565b3480156105b857600080fd5b506105f16105c73660046137a8565b7fbc197c810000000000000000000000000000000000000000000000000000000095945050505050565b6040516001600160e01b0319909116815260200161026b565b34801561061657600080fd5b5061023d61062536600461344c565b612280565b34801561063657600080fd5b506102e461064536600461364a565b6122a5565b34801561065657600080fd5b5061023d610665366004613864565b6124d2565b34801561067657600080fd5b506102e46101625481565b34801561068d57600080fd5b506105f161069c366004613881565b7ff23a6e610000000000000000000000000000000000000000000000000000000095945050505050565b3480156106d257600080fd5b50610160546106e7906001600160a01b031681565b6040516001600160a01b03909116815260200161026b565b3360009081527f683723e34a772b6e4f2c919bba7fa32ed8ea11a8325f54da7db716e9d9dd98c7602052604090205460ff166107955760405162461bcd60e51b815260206004820152602a60248201527f57686974656c6973743a204f6e6c792061646d696e2063616e2063616c6c20746044820152691a1a5cc81b595d1a1bd960b21b60648201526084015b60405180910390fd5b61016555565b60006107a682612577565b92915050565b3360009081527f683723e34a772b6e4f2c919bba7fa32ed8ea11a8325f54da7db716e9d9dd98c7602052604090205460ff1661083d5760405162461bcd60e51b815260206004820152602a60248201527f57686974656c6973743a204f6e6c792061646d696e2063616e2063616c6c20746044820152691a1a5cc81b595d1a1bd960b21b606482015260840161078c565b610160546040517fa9059cbb0000000000000000000000000000000000000000000000000000000081526001600160a01b038481166004830152602482018490529091169063a9059cbb906044016020604051808303816000875af11580156108aa573d6000803e3d6000fd5b505050506040513d601f19601f820116820180604052508101906108ce91906138ea565b61091a5760405162461bcd60e51b815260206004820152601660248201527f546f6b656e207472616e73666572206661696c65642100000000000000000000604482015260640161078c565b5050565b6001600160a01b03841660009081526101646020526040902054849060ff1661099c5760405162461bcd60e51b815260206004820152602a60248201527f57686974656c6973743a204e465420636f6e7472616374206973206e6f7420776044820152691a1a5d195b1a5cdd195960b21b606482015260840161078c565b6109a46125de565b8160ff16600103610b01576040516331a9108f60e11b81526004810185905233906001600160a01b03871690636352211e90602401602060405180830381865afa1580156109f6573d6000803e3d6000fd5b505050506040513d601f19601f82011682018060405250810190610a1a9190613907565b6001600160a01b031614610a965760405162461bcd60e51b815260206004820152602b60248201527f546f6b656e5374616b696e673a2043616c6c6572206d757374206f776e20746860448201527f65204e465420746f6b656e000000000000000000000000000000000000000000606482015260840161078c565b6040516323b872dd60e01b8152336004820152306024820152604481018590526001600160a01b038616906323b872dd90606401600060405180830381600087803b158015610ae457600080fd5b505af1158015610af8573d6000803e3d6000fd5b50505050610c6b565b604051627eeac760e11b81523360048201526024810185905283906001600160a01b0387169062fdd58e90604401602060405180830381865afa158015610b4c573d6000803e3d6000fd5b505050506040513d601f19601f82011682018060405250810190610b709190613924565b1015610be45760405162461bcd60e51b815260206004820152603f60248201527f546f6b656e5374616b696e673a2043616c6c6572206d7573742068617665207360448201527f756666696369656e74204552433131353520746f6b656e2062616c616e636500606482015260840161078c565b604051637921219560e11b8152336004820152306024820152604481018590526064810184905260a06084820152600260a482015261060f60f31b60c48201526001600160a01b0386169063f242432a9060e401600060405180830381600087803b158015610c5257600080fd5b505af1158015610c66573d6000803e3d6000fd5b505050505b6040805160608101825284815260006020808301828152428486019081523380855261015f84528685206001600160a01b038d168087529085528786208c87528552878620805460018082018355918852968690208851600389029091019081559451908501559151600290930192909255855189815292830184905293949293899390927fc1422af7e43d777469d796ab303d8d25d600d97d1ba738791ab5ac48cf123f93910160405180910390a450505050505050565b600082815260976020526040902060010154610d3f81612631565b610d49838361263b565b505050565b6001600160a01b0381163314610dcc5760405162461bcd60e51b815260206004820152602f60248201527f416363657373436f6e74726f6c3a2063616e206f6e6c792072656e6f756e636560448201527f20726f6c657320666f722073656c660000000000000000000000000000000000606482015260840161078c565b61091a82826126dd565b6001600160a01b037f0000000000000000000000000000000000000000000000000000000000000000163003610e635760405162461bcd60e51b815260206004820152602c60248201527f46756e6374696f6e206d7573742062652063616c6c6564207468726f7567682060448201526b19195b1959d85d1958d85b1b60a21b606482015260840161078c565b7f00000000000000000000000000000000000000000000000000000000000000006001600160a01b0316610ebe7f360894a13ba1a3210667c828492db98dca3e2076cc3735a920a3ca505d382bbc546001600160a01b031690565b6001600160a01b031614610f295760405162461bcd60e51b815260206004820152602c60248201527f46756e6374696f6e206d7573742062652063616c6c6564207468726f7567682060448201526b6163746976652070726f787960a01b606482015260840161078c565b610f3281612760565b60408051600080825260208201909252610f4e9183919061276b565b50565b3360009081527f683723e34a772b6e4f2c919bba7fa32ed8ea11a8325f54da7db716e9d9dd98c7602052604090205460ff16610fe25760405162461bcd60e51b815260206004820152602a60248201527f57686974656c6973743a204f6e6c792061646d696e2063616e2063616c6c20746044820152691a1a5cc81b595d1a1bd960b21b606482015260840161078c565b610fea61290b565b565b6001600160a01b037f00000000000000000000000000000000000000000000000000000000000000001630036110795760405162461bcd60e51b815260206004820152602c60248201527f46756e6374696f6e206d7573742062652063616c6c6564207468726f7567682060448201526b19195b1959d85d1958d85b1b60a21b606482015260840161078c565b7f00000000000000000000000000000000000000000000000000000000000000006001600160a01b03166110d47f360894a13ba1a3210667c828492db98dca3e2076cc3735a920a3ca505d382bbc546001600160a01b031690565b6001600160a01b03161461113f5760405162461bcd60e51b815260206004820152602c60248201527f46756e6374696f6e206d7573742062652063616c6c6564207468726f7567682060448201526b6163746976652070726f787960a01b606482015260840161078c565b61114882612760565b61091a8282600161276b565b6000306001600160a01b037f000000000000000000000000000000000000000000000000000000000000000016146111f45760405162461bcd60e51b815260206004820152603860248201527f555550535570677261646561626c653a206d757374206e6f742062652063616c60448201527f6c6564207468726f7567682064656c656761746563616c6c0000000000000000606482015260840161078c565b507f360894a13ba1a3210667c828492db98dca3e2076cc3735a920a3ca505d382bbc90565b3360009081527f683723e34a772b6e4f2c919bba7fa32ed8ea11a8325f54da7db716e9d9dd98c7602052604090205460ff166112aa5760405162461bcd60e51b815260206004820152602a60248201527f57686974656c6973743a204f6e6c792061646d696e2063616e2063616c6c20746044820152691a1a5cc81b595d1a1bd960b21b606482015260840161078c565b60005b81811015610d495760008383838181106112c9576112c961393d565b90506020020160208101906112de919061347c565b6001600160a01b0381166000908152610164602052604090205490915060ff166113705760405162461bcd60e51b815260206004820152602560248201527f57686974656c6973743a204163636f756e74206973206e6f742077686974656c60448201527f6973746564000000000000000000000000000000000000000000000000000000606482015260840161078c565b6001600160a01b03811660008181526101646020526040808220805460ff19169055517f24a12366c02e13fe4a9e03d86a8952e85bb74a456c16e4a18b6d8295700b74bb9190a250806113c281613969565b9150506112ad565b3360009081527f683723e34a772b6e4f2c919bba7fa32ed8ea11a8325f54da7db716e9d9dd98c7602052604090205460ff1661145b5760405162461bcd60e51b815260206004820152602a60248201527f57686974656c6973743a204f6e6c792061646d696e2063616e2063616c6c20746044820152691a1a5cc81b595d1a1bd960b21b606482015260840161078c565b61016255565b600054610100900460ff16158080156114815750600054600160ff909116105b8061149b5750303b15801561149b575060005460ff166001145b61150d5760405162461bcd60e51b815260206004820152602e60248201527f496e697469616c697a61626c653a20636f6e747261637420697320616c72656160448201527f647920696e697469616c697a6564000000000000000000000000000000000000606482015260840161078c565b6000805460ff191660011790558015611530576000805461ff0019166101001790555b610160805473ffffffffffffffffffffffffffffffffffffffff19166001600160a01b03861617905561016183905561016282905561156d61295d565b61157561295d565b61158060003361263b565b80156115c6576000805461ff0019169055604051600181527f7f26b83ff96e1f2b6a682f133852f6798a09c465da95921460cefb38474024989060200160405180910390a15b50505050565b3360009081527f683723e34a772b6e4f2c919bba7fa32ed8ea11a8325f54da7db716e9d9dd98c7602052604090205460ff1661165d5760405162461bcd60e51b815260206004820152602a60248201527f57686974656c6973743a204f6e6c792061646d696e2063616e2063616c6c20746044820152691a1a5cc81b595d1a1bd960b21b606482015260840161078c565b60005b81811015610d4957600083838381811061167c5761167c61393d565b9050602002016020810190611691919061347c565b90506001600160a01b03811661170f5760405162461bcd60e51b815260206004820152602260248201527f57686974656c6973743a2043616e6e6f7420616464207a65726f20616464726560448201527f7373000000000000000000000000000000000000000000000000000000000000606482015260840161078c565b6001600160a01b0381166000908152610164602052604090205460ff1661177b576001600160a01b03811660008181526101646020526040808220805460ff19166001179055517fa226db3f664042183ee0281230bba26cbf7b5057e50aee7f25a175ff45ce4d7f9190a25b508061178681613969565b915050611660565b3360009081527f683723e34a772b6e4f2c919bba7fa32ed8ea11a8325f54da7db716e9d9dd98c7602052604090205460ff1661181f5760405162461bcd60e51b815260206004820152602a60248201527f57686974656c6973743a204f6e6c792061646d696e2063616e2063616c6c20746044820152691a1a5cc81b595d1a1bd960b21b606482015260840161078c565b610fea6129da565b61015f602052836000526040600020602052826000526040600020602052816000526040600020818154811061185c57600080fd5b90600052602060002090600302016000935093505050508060000154908060010154908060020154905083565b3360009081527f683723e34a772b6e4f2c919bba7fa32ed8ea11a8325f54da7db716e9d9dd98c7602052604090205460ff1661191a5760405162461bcd60e51b815260206004820152602a60248201527f57686974656c6973743a204f6e6c792061646d696e2063616e2063616c6c20746044820152691a1a5cc81b595d1a1bd960b21b606482015260840161078c565b61016155565b6001600160a01b03841660009081526101646020526040902054849060ff1661199e5760405162461bcd60e51b815260206004820152602a60248201527f57686974656c6973743a204e465420636f6e7472616374206973206e6f7420776044820152691a1a5d195b1a5cdd195960b21b606482015260840161078c565b6119a66125de565b6119ae612a17565b33600090815261015f602090815260408083206001600160a01b0389168452825280832087845290915281208054849081106119ec576119ec61393d565b906000526020600020906003020160000154905060008111611a755760405162461bcd60e51b8152602060048201526024808201527f546f6b656e5374616b696e673a205374616b696e672044617461206e6f74206660448201527f6f756e6400000000000000000000000000000000000000000000000000000000606482015260840161078c565b8360ff16600003611b7257604051627eeac760e11b81523060048201526024810186905281906001600160a01b0388169062fdd58e90604401602060405180830381865afa158015611acb573d6000803e3d6000fd5b505050506040513d601f19601f82011682018060405250810190611aef9190613924565b1015611b6d5760405162461bcd60e51b815260206004820152604160248201527f546f6b656e5374616b696e673a20436f6e7472616374206d757374206861766560448201527f2073756666696369656e74204552433131353520746f6b656e2062616c616e636064820152606560f81b608482015260a40161078c565b611c59565b6040516331a9108f60e11b81526004810186905230906001600160a01b03881690636352211e90602401602060405180830381865afa158015611bb9573d6000803e3d6000fd5b505050506040513d601f19601f82011682018060405250810190611bdd9190613907565b6001600160a01b031614611c595760405162461bcd60e51b815260206004820152603060248201527f546f6b656e5374616b696e673a20436f6e7472616374206d757374206f776e2060448201527f7468652045524337323120746f6b656e00000000000000000000000000000000606482015260840161078c565b611c65338787866122a5565b33600090815261015f602090815260408083206001600160a01b038b16845282528083208984529091529020805485908110611ca357611ca361393d565b600091825260208083206001600390930201919091019290925533815261015f825260408082206001600160a01b038a168352835280822088835290925220805442919085908110611cf757611cf761393d565b60009182526020918290206002600390920201019190915560408051838152918201859052429082015285906001600160a01b0388169033907ff1a945c8cc4403d02673e60cf2632609ce231f8899e2c25ef96bcb8df46a82429060600160405180910390a450611d69600161012d55565b5050505050565b6001600160a01b03851660009081526101646020526040902054859060ff16611dee5760405162461bcd60e51b815260206004820152602a60248201527f57686974656c6973743a204e465420636f6e7472616374206973206e6f7420776044820152691a1a5d195b1a5cdd195960b21b606482015260840161078c565b611df66125de565b611dfe612a17565b33600090815261015f602090815260408083206001600160a01b038a16845282528083208884529091529020805485919085908110611e3f57611e3f61393d565b9060005260206000209060030201600001541015611ec55760405162461bcd60e51b815260206004820152603360248201527f546f6b656e5374616b696e673a20496e73756666696369656e74205374616b6560448201527f64204e465420746f6b656e2062616c616e636500000000000000000000000000606482015260840161078c565b8160ff16600103611fbc576040516331a9108f60e11b81526004810186905230906001600160a01b03881690636352211e90602401602060405180830381865afa158015611f17573d6000803e3d6000fd5b505050506040513d601f19601f82011682018060405250810190611f3b9190613907565b6001600160a01b031614611fb75760405162461bcd60e51b815260206004820152603060248201527f546f6b656e5374616b696e673a20436f6e7472616374206d757374206f776e2060448201527f7468652045524337323120746f6b656e00000000000000000000000000000000606482015260840161078c565b6120a9565b604051627eeac760e11b81523060048201526024810186905284906001600160a01b0388169062fdd58e90604401602060405180830381865afa158015612007573d6000803e3d6000fd5b505050506040513d601f19601f8201168201806040525081019061202b9190613924565b10156120a95760405162461bcd60e51b815260206004820152604160248201527f546f6b656e5374616b696e673a20436f6e7472616374206d757374206861766560448201527f2073756666696369656e74204552433131353520746f6b656e2062616c616e636064820152606560f81b608482015260a40161078c565b6101635460ff16156120c2576120c0868685612a72565b505b33600090815261015f602090815260408083206001600160a01b038a168452825280832088845290915290208054859190859081106121035761210361393d565b906000526020600020906003020160000160008282546121239190613982565b909155505060ff82166000036121be57604051637921219560e11b8152306004820152336024820152604481018690526064810185905260a06084820152600260a482015261060f60f31b60c48201526001600160a01b0387169063f242432a9060e401600060405180830381600087803b1580156121a157600080fd5b505af11580156121b5573d6000803e3d6000fd5b50505050612225565b6040516323b872dd60e01b8152306004820152336024820152604481018690526001600160a01b038716906323b872dd90606401600060405180830381600087803b15801561220c57600080fd5b505af1158015612220573d6000803e3d6000fd5b505050505b604080518581526020810185905286916001600160a01b0389169133917f3164d2896e24bd978cf0b2cc29f4a8406b7051a0a97389415f75b1032e854338910160405180910390a4612278600161012d55565b505050505050565b60008281526097602052604090206001015461229b81612631565b610d4983836126dd565b6001600160a01b03808516600090815261015f60209081526040808320938716835292815282822085835290529081205482106123245760405162461bcd60e51b815260206004820152601b60248201527f546f6b656e5374616b696e673a20696e76616c696420696e6465780000000000604482015260640161078c565b6001600160a01b03808616600090815261015f60209081526040808320938816835292815282822086835290529081208054849081106123665761236661393d565b90600052602060002090600302016000015411156124c657610162546001600160a01b03808716600090815261015f60209081526040808320938916835292815282822087835290529081208054919291859081106123c7576123c761393d565b9060005260206000209060030201600201546123e39190613999565b905080421161245a5760405162461bcd60e51b815260206004820152602f60248201527f546f6b656e5374616b696e673a205374616b696e67206475726174696f6e206960448201527f73206e6f7420636f6d706c657465640000000000000000000000000000000000606482015260840161078c565b6001600160a01b03808716600090815261015f602090815260408083209389168352928152828220878352905290812080548590811061249c5761249c61393d565b906000526020600020906003020160000154610161546124bc91906139b1565b92506124ca915050565b5060005b949350505050565b3360009081527f683723e34a772b6e4f2c919bba7fa32ed8ea11a8325f54da7db716e9d9dd98c7602052604090205460ff166125635760405162461bcd60e51b815260206004820152602a60248201527f57686974656c6973743a204f6e6c792061646d696e2063616e2063616c6c20746044820152691a1a5cc81b595d1a1bd960b21b606482015260840161078c565b610163805460ff1916911515919091179055565b60006001600160e01b031982167f4e2312e00000000000000000000000000000000000000000000000000000000014806107a657507f01ffc9a7000000000000000000000000000000000000000000000000000000006001600160e01b03198316146107a6565b60335460ff1615610fea5760405162461bcd60e51b815260206004820152601060248201527f5061757361626c653a2070617573656400000000000000000000000000000000604482015260640161078c565b610f4e8133612e17565b60008281526097602090815260408083206001600160a01b038516845290915290205460ff1661091a5760008281526097602090815260408083206001600160a01b03851684529091529020805460ff191660011790556126993390565b6001600160a01b0316816001600160a01b0316837f2f8788117e7eff1d82e926ec794901d17c78024a50270940304540a733656f0d60405160405180910390a45050565b60008281526097602090815260408083206001600160a01b038516845290915290205460ff161561091a5760008281526097602090815260408083206001600160a01b0385168085529252808320805460ff1916905551339285917ff6391f5c32d9c69d2a47ea670b442974b53935d1edc7fd64eb21e047a839171b9190a45050565b600061091a81612631565b7f4910fdfa16fed3260ed0e7147f7cc6da11a60208b5b9406d12a635614ffd91435460ff161561279e57610d4983612e8c565b826001600160a01b03166352d1902d6040518163ffffffff1660e01b8152600401602060405180830381865afa9250505080156127f8575060408051601f3d908101601f191682019092526127f591810190613924565b60015b61286a5760405162461bcd60e51b815260206004820152602e60248201527f45524331393637557067726164653a206e657720696d706c656d656e7461746960448201527f6f6e206973206e6f742055555053000000000000000000000000000000000000606482015260840161078c565b7f360894a13ba1a3210667c828492db98dca3e2076cc3735a920a3ca505d382bbc81146128ff5760405162461bcd60e51b815260206004820152602960248201527f45524331393637557067726164653a20756e737570706f727465642070726f7860448201527f6961626c65555549440000000000000000000000000000000000000000000000606482015260840161078c565b50610d49838383612f57565b612913612f7c565b6033805460ff191690557f5db9ee0a495bf2e6ff9c91a7834c1ba4fdd244a5e8aa4e537bd38aeae4b073aa335b6040516001600160a01b03909116815260200160405180910390a1565b600054610100900460ff16610fea5760405162461bcd60e51b815260206004820152602b60248201527f496e697469616c697a61626c653a20636f6e7472616374206973206e6f74206960448201527f6e697469616c697a696e67000000000000000000000000000000000000000000606482015260840161078c565b6129e26125de565b6033805460ff191660011790557f62e78cea01bee320cd4e420270b5ea74000d11b0c9f74754ebdbfc544b05a2586129403390565b600261012d5403612a6a5760405162461bcd60e51b815260206004820152601f60248201527f5265656e7472616e637947756172643a207265656e7472616e742063616c6c00604482015260640161078c565b600261012d55565b6000612a7c6125de565b6001600160a01b03841660009081526101646020526040902054849060ff16612afa5760405162461bcd60e51b815260206004820152602a60248201527f57686974656c6973743a204e465420636f6e7472616374206973206e6f7420776044820152691a1a5d195b1a5cdd195960b21b606482015260840161078c565b6000612b08338787876122a5565b905060008111612b805760405162461bcd60e51b815260206004820152602260248201527f546f6b656e5374616b696e673a204e6f207265776172647320617661696c616260448201527f6c65000000000000000000000000000000000000000000000000000000000000606482015260840161078c565b610160546040517f70a0823100000000000000000000000000000000000000000000000000000000815230600482015282916001600160a01b0316906370a0823190602401602060405180830381865afa158015612be2573d6000803e3d6000fd5b505050506040513d601f19601f82011682018060405250810190612c069190613924565b1015612c7a5760405162461bcd60e51b815260206004820152602960248201527f546f6b656e5374616b696e673a20496e73756666696369656e7420726577617260448201527f642062616c616e63650000000000000000000000000000000000000000000000606482015260840161078c565b33600090815261015f602090815260408083206001600160a01b038a16845282528083208884529091529020805442919086908110612cbb57612cbb61393d565b600091825260208220600260039092020101919091556101655415612cea57612ce78261016554612fce565b90505b6101605433600081815261015f602090815260408083206001600160a01b038d811685529083528184208c85529092529091208054919093169263a9059cbb9291859187918b908110612d3f57612d3f61393d565b906000526020600020906003020160010154612d5b9190613999565b612d659190613982565b6040516001600160e01b031960e085901b1681526001600160a01b03909216600483015260248201526044016020604051808303816000875af1158015612db0573d6000803e3d6000fd5b505050506040513d601f19601f82011682018060405250810190612dd491906138ea565b5060405182815233907ffc30cddea38e2bf4d6ea7d3f9ed3b6ad7f176419f4963bd81318067a4aee73fe9060200160405180910390a25060019695505050505050565b60008281526097602090815260408083206001600160a01b038516845290915290205460ff1661091a57612e4a81612fee565b612e55836020613000565b604051602001612e669291906139fc565b60408051601f198184030181529082905262461bcd60e51b825261078c91600401613a7d565b6001600160a01b0381163b612f095760405162461bcd60e51b815260206004820152602d60248201527f455243313936373a206e657720696d706c656d656e746174696f6e206973206e60448201527f6f74206120636f6e747261637400000000000000000000000000000000000000606482015260840161078c565b7f360894a13ba1a3210667c828492db98dca3e2076cc3735a920a3ca505d382bbc805473ffffffffffffffffffffffffffffffffffffffff19166001600160a01b0392909216919091179055565b612f60836131e1565b600082511180612f6d5750805b15610d49576115c68383613221565b60335460ff16610fea5760405162461bcd60e51b815260206004820152601460248201527f5061757361626c653a206e6f7420706175736564000000000000000000000000604482015260640161078c565b60006103e8612fdd83856139b1565b612fe79190613ab0565b9392505050565b60606107a66001600160a01b03831660145b6060600061300f8360026139b1565b61301a906002613999565b67ffffffffffffffff81111561303257613032613499565b6040519080825280601f01601f19166020018201604052801561305c576020820181803683370190505b5090507f3000000000000000000000000000000000000000000000000000000000000000816000815181106130935761309361393d565b60200101906001600160f81b031916908160001a9053507f7800000000000000000000000000000000000000000000000000000000000000816001815181106130de576130de61393d565b60200101906001600160f81b031916908160001a90535060006131028460026139b1565b61310d906001613999565b90505b6001811115613192577f303132333435363738396162636465660000000000000000000000000000000085600f166010811061314e5761314e61393d565b1a60f81b8282815181106131645761316461393d565b60200101906001600160f81b031916908160001a90535060049490941c9361318b81613ad2565b9050613110565b508315612fe75760405162461bcd60e51b815260206004820181905260248201527f537472696e67733a20686578206c656e67746820696e73756666696369656e74604482015260640161078c565b6131ea81612e8c565b6040516001600160a01b038216907fbc7cd75a20ee27fd9adebab32041f755214dbc6bffa90cc0225b39da2e5c2d3b90600090a250565b60606001600160a01b0383163b6132a05760405162461bcd60e51b815260206004820152602660248201527f416464726573733a2064656c65676174652063616c6c20746f206e6f6e2d636f60448201527f6e74726163740000000000000000000000000000000000000000000000000000606482015260840161078c565b600080846001600160a01b0316846040516132bb9190613ae9565b600060405180830381855af49150503d80600081146132f6576040519150601f19603f3d011682016040523d82523d6000602084013e6132fb565b606091505b50915091506133238282604051806060016040528060278152602001613b066027913961332c565b95945050505050565b6060831561333b575081612fe7565b612fe783838151156133505781518083602001fd5b8060405162461bcd60e51b815260040161078c9190613a7d565b60006020828403121561337c57600080fd5b5035919050565b60006020828403121561339557600080fd5b81356001600160e01b031981168114612fe757600080fd5b6001600160a01b0381168114610f4e57600080fd5b600080604083850312156133d557600080fd5b82356133e0816133ad565b946020939093013593505050565b803560ff811681146133ff57600080fd5b919050565b6000806000806080858703121561341a57600080fd5b8435613425816133ad565b93506020850135925060408501359150613441606086016133ee565b905092959194509250565b6000806040838503121561345f57600080fd5b823591506020830135613471816133ad565b809150509250929050565b60006020828403121561348e57600080fd5b8135612fe7816133ad565b634e487b7160e01b600052604160045260246000fd5b604051601f8201601f1916810167ffffffffffffffff811182821017156134d8576134d8613499565b604052919050565b600082601f8301126134f157600080fd5b813567ffffffffffffffff81111561350b5761350b613499565b61351e601f8201601f19166020016134af565b81815284602083860101111561353357600080fd5b816020850160208301376000918101602001919091529392505050565b6000806040838503121561356357600080fd5b823561356e816133ad565b9150602083013567ffffffffffffffff81111561358a57600080fd5b613596858286016134e0565b9150509250929050565b600080602083850312156135b357600080fd5b823567ffffffffffffffff808211156135cb57600080fd5b818501915085601f8301126135df57600080fd5b8135818111156135ee57600080fd5b8660208260051b850101111561360357600080fd5b60209290920196919550909350505050565b60008060006060848603121561362a57600080fd5b8335613635816133ad565b95602085013595506040909401359392505050565b6000806000806080858703121561366057600080fd5b843561366b816133ad565b9350602085013561367b816133ad565b93969395505050506040820135916060013590565b600080600080608085870312156136a657600080fd5b84356136b1816133ad565b9350602085013592506136c6604086016133ee565b9396929550929360600135925050565b600080600080600060a086880312156136ee57600080fd5b85356136f9816133ad565b945060208601359350604086013592506060860135915061371c608087016133ee565b90509295509295909350565b600082601f83011261373957600080fd5b8135602067ffffffffffffffff82111561375557613755613499565b8160051b6137648282016134af565b928352848101820192828101908785111561377e57600080fd5b83870192505b8483101561379d57823582529183019190830190613784565b979650505050505050565b600080600080600060a086880312156137c057600080fd5b85356137cb816133ad565b945060208601356137db816133ad565b9350604086013567ffffffffffffffff808211156137f857600080fd5b61380489838a01613728565b9450606088013591508082111561381a57600080fd5b61382689838a01613728565b9350608088013591508082111561383c57600080fd5b50613849888289016134e0565b9150509295509295909350565b8015158114610f4e57600080fd5b60006020828403121561387657600080fd5b8135612fe781613856565b600080600080600060a0868803121561389957600080fd5b85356138a4816133ad565b945060208601356138b4816133ad565b93506040860135925060608601359150608086013567ffffffffffffffff8111156138de57600080fd5b613849888289016134e0565b6000602082840312156138fc57600080fd5b8151612fe781613856565b60006020828403121561391957600080fd5b8151612fe7816133ad565b60006020828403121561393657600080fd5b5051919050565b634e487b7160e01b600052603260045260246000fd5b634e487b7160e01b600052601160045260246000fd5b60006001820161397b5761397b613953565b5060010190565b60008282101561399457613994613953565b500390565b600082198211156139ac576139ac613953565b500190565b60008160001904831182151516156139cb576139cb613953565b500290565b60005b838110156139eb5781810151838201526020016139d3565b838111156115c65750506000910152565b7f416363657373436f6e74726f6c3a206163636f756e7420000000000000000000815260008351613a348160178501602088016139d0565b7f206973206d697373696e6720726f6c65200000000000000000000000000000006017918401918201528351613a718160288401602088016139d0565b01602801949350505050565b6020815260008251806020840152613a9c8160408501602087016139d0565b601f01601f19169190910160400192915050565b600082613acd57634e487b7160e01b600052601260045260246000fd5b500490565b600081613ae157613ae1613953565b506000190190565b60008251613afb8184602087016139d0565b919091019291505056fe416464726573733a206c6f772d6c6576656c2064656c65676174652063616c6c206661696c6564a264697066735822122086666cdda6f1d28c37ae25c306495a0a71cb2b4529ad997bd213fc1d74d7f6df64736f6c634300080e0033",
  "immutableReferences": {
    "1004": [
      {
        "length": 32,
        "start": 3552
      },
      {
        "length": 32,
        "start": 3685
      },
      {
        "length": 32,
        "start": 4086
      },
      {
        "length": 32,
        "start": 4219
      },
      {
        "length": 32,
        "start": 4449
      }
    ]
  },
  "source": "// SPDX-License-Identifier: MIT\r\npragma solidity ^0.8.0;\r\n\r\nimport \"@openzeppelin/contracts/token/ERC721/ERC721.sol\";\r\nimport \"@openzeppelin/contracts/token/ERC721/IERC721Receiver.sol\";\r\nimport \"@openzeppelin/contracts/token/ERC1155/ERC1155.sol\";\r\nimport \"@openzeppelin/contracts/token/ERC1155/utils/ERC1155Holder.sol\";\r\nimport \"@openzeppelin/contracts/token/ERC20/ERC20.sol\";\r\nimport \"@openzeppelin/contracts-upgradeable/security/PausableUpgradeable.sol\";\r\nimport \"@openzeppelin/contracts-upgradeable/access/AccessControlUpgradeable.sol\";\r\nimport \"@openzeppelin/contracts-upgradeable/proxy/utils/Initializable.sol\";\r\nimport \"@openzeppelin/contracts-upgradeable/proxy/utils/UUPSUpgradeable.sol\";\r\nimport \"@openzeppelin/contracts-upgradeable/security/ReentrancyGuardUpgradeable.sol\";\r\n\r\ncontract StakingNFT is\r\n  PausableUpgradeable,\r\n  AccessControlUpgradeable,\r\n  UUPSUpgradeable,\r\n  ReentrancyGuardUpgradeable,\r\n  ERC1155Holder\r\n{\r\n  struct StakingInfo {\r\n    uint256 stakedAmount;\r\n    uint256 oldBalance;\r\n    uint256 timeOfLastUpdate;\r\n  }\r\n\r\n  // user => contract=> tokenid => StakingInfo\r\n  mapping(address => mapping(address => mapping(uint256 => StakingInfo[]))) public stakedBalances;\r\n\r\n  // the staking and reward token\r\n  IERC20 public rewardToken;\r\n  // the reward rate in percentage\r\n  uint256 public rewardRate;\r\n  // the reward rate duration\r\n  // so the final reward rate will be re (rewardRate/rewardRateDuration)\r\n  uint256 public rewardRateDuration; //604800\r\n\r\n  // pay Reward in crypto\r\n  bool public payReward;\r\n\r\n  mapping(address => bool) public whitelistContracts;\r\n\r\n  //percetage fee charged on unstaking amount\r\n  uint256 public unstakeFee;\r\n\r\n  /**************************************************/\r\n  /******************** Events **********************/\r\n  /**************************************************/\r\n  event TokensStaked(\r\n    address indexed user,\r\n    address indexed tokenContract,\r\n    uint256 indexed tokenId,\r\n    uint256 amount,\r\n    uint256 index\r\n  );\r\n  event TokensUnstaked(\r\n    address indexed user,\r\n    address indexed tokenContract,\r\n    uint256 indexed tokenId,\r\n    uint256 amount,\r\n    uint256 index\r\n  );\r\n  event TokenRestaked(\r\n    address indexed user,\r\n    address indexed tokenContract,\r\n    uint256 indexed tokenId,\r\n    uint256 amount,\r\n    uint256 index,\r\n    uint256 timestamp\r\n  );\r\n  event RewardsClaimed(address indexed user, uint256 amount);\r\n\r\n  event AddressAdded(address indexed account);\r\n  event AddressRemoved(address indexed account);\r\n\r\n  /**************************************************/\r\n  /****************** Constructor *******************/\r\n  /**************************************************/\r\n  /// @custom:oz-upgrades-unsafe-allow constructor\r\n  constructor() {\r\n    _disableInitializers();\r\n  }\r\n\r\n  function initialize(address _rewardToken, uint256 _rewardRate, uint256 _rewardRateDuration) public initializer {\r\n    rewardToken = IERC20(_rewardToken);\r\n    rewardRate = _rewardRate;\r\n    rewardRateDuration = _rewardRateDuration;\r\n\r\n    __AccessControl_init();\r\n    __UUPSUpgradeable_init();\r\n    _grantRole(DEFAULT_ADMIN_ROLE, msg.sender);\r\n  }\r\n\r\n  /**************************************************/\r\n  /*******************  Modifiers *******************/\r\n  /**************************************************/\r\n  modifier amountGreaterThenZero(uint256 _amount) {\r\n    require(_amount > 0, \"Amount can't be zero\");\r\n    _;\r\n  }\r\n\r\n  modifier onlyWhitelisted(address _stakeTokenContractAddress) {\r\n    require(whitelistContracts[_stakeTokenContractAddress], \"Whitelist: NFT contract is not whitelisted\");\r\n    _;\r\n  }\r\n\r\n  modifier onlyAdmin() {\r\n    require(hasRole(DEFAULT_ADMIN_ROLE, msg.sender), \"Whitelist: Only admin can call this method\");\r\n    _;\r\n  }\r\n\r\n  /**************************************************/\r\n  /************** Internal View Functions *************/\r\n  /**************************************************/\r\n  // helper function\r\n  function _getPortion(uint256 _amount, uint256 _percentage) internal pure returns (uint256) {\r\n    return (_amount * _percentage) / 1000;\r\n  }\r\n\r\n  /**************************************************/\r\n  /*************Owner Calling Functions *************/\r\n  /**************************************************/\r\n\r\n  // set the reward rate\r\n  function setRewardRate(uint256 _rewardRate) external onlyAdmin {\r\n    rewardRate = _rewardRate;\r\n  }\r\n\r\n  // set the reward rate duration\r\n  function setRewardRateDuration(uint256 _rewardRateDuration) external onlyAdmin {\r\n    rewardRateDuration = _rewardRateDuration;\r\n  }\r\n\r\n  // set the payReward\r\n  function setPayReward(bool _payReward) external onlyAdmin {\r\n    payReward = _payReward;\r\n  }\r\n\r\n  // set the unstakeFee\r\n  function setUnstakeFee(uint256 _unstakeFee) external onlyAdmin {\r\n    unstakeFee = _unstakeFee;\r\n  }\r\n\r\n  // transfer token from this account to other if needed\r\n  function transferToken(address _to, uint256 _amount) external onlyAdmin {\r\n    require(rewardToken.transfer(_to, _amount), \"Token transfer failed!\");\r\n  }\r\n\r\n  function pause() public onlyAdmin {\r\n    _pause();\r\n  }\r\n\r\n  function unpause() public onlyAdmin {\r\n    _unpause();\r\n  }\r\n\r\n  /**************************************************/\r\n  /********** External Contract Functions ***********/\r\n  /**************************************************/\r\n\r\n  //Stake functions\r\n  function stakeToken(\r\n    address _tokenContract,\r\n    uint256 _tokenId,\r\n    uint256 _stakedAmount,\r\n    uint8 _tokenType // _tokenType 0 for ERC1155 and 1 for ERC71\r\n  ) external onlyWhitelisted(_tokenContract) whenNotPaused {\r\n    if (_tokenType == 1) {\r\n      require(IERC721(_tokenContract).ownerOf(_tokenId) == msg.sender, \"TokenStaking: Caller must own the NFT token\");\r\n\r\n      IERC721(_tokenContract).transferFrom(msg.sender, address(this), _tokenId);\r\n    } else {\r\n      require(\r\n        IERC1155(_tokenContract).balanceOf(msg.sender, _tokenId) >= _stakedAmount,\r\n        \"TokenStaking: Caller must have sufficient ERC1155 token balance\"\r\n      );\r\n\r\n      IERC1155(_tokenContract).safeTransferFrom(msg.sender, address(this), _tokenId, _stakedAmount, \"0x\");\r\n    }\r\n\r\n    StakingInfo memory newStaking = StakingInfo({\r\n      stakedAmount: _stakedAmount,\r\n      timeOfLastUpdate: block.timestamp,\r\n      oldBalance: 0\r\n    });\r\n\r\n    uint256 index = stakedBalances[msg.sender][_tokenContract][_tokenId].length;\r\n    stakedBalances[msg.sender][_tokenContract][_tokenId].push(newStaking);\r\n\r\n    emit TokensStaked(msg.sender, _tokenContract, _tokenId, _stakedAmount, index);\r\n  }\r\n\r\n  // function stakeTokenBatch(\r\n  //   address[] calldata _tokenContract,\r\n  //   uint256[] calldata _tokenType,\r\n  //   uint256[] calldata _tokenId,\r\n  //   uint256[] calldata _stakedAmount\r\n  // ) external whenNotPaused {\r\n  //   // check input length\r\n  //   require(\r\n  //     _tokenContract.length == _tokenType.length &&\r\n  //       _tokenContract.length == _tokenId.length &&\r\n  //       _tokenContract.length == _stakedAmount.length,\r\n  //     \"TokenStaking: input array length is invalid\"\r\n  //   );\r\n\r\n  //   uint256 len = _tokenContract.length;\r\n  //   uint256 i;\r\n  //   for (i; i < len; i++) {\r\n  //     require(whitelistContracts[_tokenContract[i]], \"Whitelist: NFT contract is not whitelisted\");\r\n  //     // check token type and transfer it\r\n  //     if (_tokenType[i] == 0) {\r\n  //       require(\r\n  //         IERC1155(_tokenContract[i]).balanceOf(msg.sender, _tokenId[i]) >= _stakedAmount[i],\r\n  //         \"TokenStaking: Caller must have sufficient ERC1155 token balance\"\r\n  //       );\r\n  //       IERC1155(_tokenContract[i]).safeTransferFrom(msg.sender, address(this), _tokenId[i], _stakedAmount[i], \"0x\");\r\n  //     } else {\r\n  //       require(\r\n  //         IERC721(_tokenContract[i]).ownerOf(_tokenId[i]) == msg.sender,\r\n  //         \"TokenStaking: Caller must own the ERC721 token\"\r\n  //       );\r\n  //       IERC721(_tokenContract[i]).transferFrom(msg.sender, address(this), _tokenId[i]);\r\n  //     }\r\n  //     // add stake data\r\n  //     StakingInfo memory newStaking = StakingInfo({\r\n  //       stakedAmount: _stakedAmount[i],\r\n  //       timeOfLastUpdate: block.timestamp,\r\n  //       oldBalance: 0\r\n  //     });\r\n  //     uint256 index = stakedBalances[msg.sender][_tokenContract[i]][_tokenId[i]].length;\r\n  //     stakedBalances[msg.sender][_tokenContract[i]][_tokenId[i]].push(newStaking);\r\n\r\n  //     emit TokensStaked(msg.sender, _tokenContract[i], _tokenId[i], _stakedAmount[i], index);\r\n  //   }\r\n  // }\r\n\r\n  //Unstake functions\r\n  function unStakeToken(\r\n    address _tokenContract,\r\n    uint256 _tokenId,\r\n    uint256 _unStakedAmount,\r\n    uint256 _index,\r\n    uint8 _tokenType // _tokenType 0 for ERC1155 and 1 for ERC71\r\n  ) external onlyWhitelisted(_tokenContract) whenNotPaused nonReentrant {\r\n    require(\r\n      stakedBalances[msg.sender][_tokenContract][_tokenId][_index].stakedAmount >= _unStakedAmount,\r\n      \"TokenStaking: Insufficient Staked NFT token balance\"\r\n    );\r\n    if (_tokenType == 1) {\r\n      require(\r\n        IERC721(_tokenContract).ownerOf(_tokenId) == address(this),\r\n        \"TokenStaking: Contract must own the ERC721 token\"\r\n      );\r\n    } else {\r\n      require(\r\n        IERC1155(_tokenContract).balanceOf(address(this), _tokenId) >= _unStakedAmount,\r\n        \"TokenStaking: Contract must have sufficient ERC1155 token balance\"\r\n      );\r\n    }\r\n    // claim all rewards for current time\r\n    if (payReward) {\r\n      claimRewards(_tokenContract, _tokenId, _index);\r\n    }\r\n    stakedBalances[msg.sender][_tokenContract][_tokenId][_index].stakedAmount -= _unStakedAmount;\r\n\r\n    if (_tokenType == 0) {\r\n      IERC1155(_tokenContract).safeTransferFrom(address(this), msg.sender, _tokenId, _unStakedAmount, \"0x\");\r\n    } else {\r\n      IERC721(_tokenContract).transferFrom(address(this), msg.sender, _tokenId);\r\n    }\r\n\r\n    emit TokensUnstaked(msg.sender, _tokenContract, _tokenId, _unStakedAmount, _index);\r\n  }\r\n\r\n  // function unStakeTokenBatch(\r\n  //   address[] calldata _tokenContract,\r\n  //   uint256[] calldata _tokenType,\r\n  //   uint256[] calldata _tokenId,\r\n  //   uint256[] calldata _unStakedAmount,\r\n  //   uint256[] calldata _index\r\n  // ) external whenNotPaused nonReentrant {\r\n  //   // check input length\r\n  //   require(\r\n  //     _tokenContract.length == _tokenType.length &&\r\n  //       _tokenContract.length == _tokenId.length &&\r\n  //       _tokenContract.length == _unStakedAmount.length &&\r\n  //       _tokenContract.length == _index.length,\r\n  //     \"TokenStaking: input array length is invalid\"\r\n  //   );\r\n\r\n  //   uint256 len = _tokenContract.length;\r\n  //   uint256 i;\r\n  //   for (i; i < len; i++) {\r\n  //     require(\r\n  //       stakedBalances[msg.sender][_tokenContract[i]][_tokenId[i]][_index[i]].stakedAmount >= _unStakedAmount[i],\r\n  //       \"TokenStaking: Insufficient Staked NFT token balance\"\r\n  //     );\r\n  //     if (_tokenType[i] == 0) {\r\n  //       require(\r\n  //         IERC1155(_tokenContract[i]).balanceOf(address(this), _tokenId[i]) >= _unStakedAmount[i],\r\n  //         \"TokenStaking: Contract must have sufficient ERC1155 token balance\"\r\n  //       );\r\n  //     } else {\r\n  //       require(\r\n  //         IERC721(_tokenContract[i]).ownerOf(_tokenId[i]) == address(this),\r\n  //         \"TokenStaking: Contract must own the ERC721 token\"\r\n  //       );\r\n  //     }\r\n\r\n  //     // claim all rewards for current time\r\n  //     if (payReward) {\r\n  //       claimRewards(_tokenContract[i], _tokenId[i], _index[i]);\r\n  //     }\r\n  //     stakedBalances[msg.sender][_tokenContract[i]][_tokenId[i]][_index[i]].stakedAmount -= _unStakedAmount[i];\r\n\r\n  //     if (_tokenType[i] == 0) {\r\n  //       IERC1155(_tokenContract[i]).safeTransferFrom(address(this), msg.sender, _tokenId[i], _unStakedAmount[i], \"0x\");\r\n  //     } else {\r\n  //       IERC721(_tokenContract[i]).transferFrom(address(this), msg.sender, _tokenId[i]);\r\n  //     }\r\n  //     emit TokensUnstaked(msg.sender, _tokenContract[i], _tokenId[i], _unStakedAmount[i], _index[i]);\r\n  //   }\r\n  // }\r\n\r\n  //Restake functions\r\n  function reStakeToken(\r\n    address _tokenContract,\r\n    uint256 _tokenId,\r\n    uint8 _tokenType, // _tokenType 0 for ERC1155 and 1 for ERC71\r\n    uint256 _index\r\n  ) external onlyWhitelisted(_tokenContract) whenNotPaused nonReentrant {\r\n    uint _reStakedAmount = stakedBalances[msg.sender][_tokenContract][_tokenId][_index].stakedAmount;\r\n    require(_reStakedAmount > 0, \"TokenStaking: Staking Data not found\");\r\n    if (_tokenType == 0) {\r\n      require(\r\n        IERC1155(_tokenContract).balanceOf(address(this), _tokenId) >= _reStakedAmount,\r\n        \"TokenStaking: Contract must have sufficient ERC1155 token balance\"\r\n      );\r\n    } else {\r\n      require(\r\n        IERC721(_tokenContract).ownerOf(_tokenId) == address(this),\r\n        \"TokenStaking: Contract must own the ERC721 token\"\r\n      );\r\n    }\r\n\r\n    // update old blance and time of last update\r\n    stakedBalances[msg.sender][_tokenContract][_tokenId][_index].oldBalance = calculateRewards(\r\n      msg.sender,\r\n      _tokenContract,\r\n      _tokenId,\r\n      _index\r\n    );\r\n    stakedBalances[msg.sender][_tokenContract][_tokenId][_index].timeOfLastUpdate = block.timestamp;\r\n\r\n    emit TokenRestaked(msg.sender, _tokenContract, _tokenId, _reStakedAmount, _index, block.timestamp);\r\n  }\r\n\r\n  // function reStakeTokenBatch(\r\n  //   address[] calldata _tokenContract,\r\n  //   uint256[] calldata _tokenType,\r\n  //   uint256[] calldata _tokenId,\r\n  //   uint256[] calldata _index\r\n  // ) external whenNotPaused {\r\n  //   // check input length\r\n  //   require(\r\n  //     _tokenContract.length == _tokenType.length &&\r\n  //       _tokenContract.length == _tokenId.length &&\r\n  //       _tokenContract.length == _index.length,\r\n  //     \"TokenStaking: input array length is invalid\"\r\n  //   );\r\n\r\n  //   uint256 len = _tokenContract.length;\r\n  //   uint256 i;\r\n  //   for (i; i < len; i++) {\r\n  //   uint _reStakedAmount = stakedBalances[msg.sender][_tokenContract[i]][_tokenId[i]][_index[i]].stakedAmount;\r\n  //   require(_reStakedAmount > 0, \"TokenStaking: Staking Data not found\");\r\n  //   if (_tokenType[i] == 0) {\r\n  //     require(\r\n  //       IERC1155(_tokenContract[i]).balanceOf(address(this), _tokenId[i]) >= _reStakedAmount,\r\n  //       \"TokenStaking: Contract must have sufficient ERC1155 token balance\"\r\n  //     );\r\n  //   } else {\r\n  //     require(\r\n  //       IERC721(_tokenContract[i]).ownerOf(_tokenId[i]) == address(this),\r\n  //       \"TokenStaking: Contract must own the ERC721 token\"\r\n  //     );\r\n  //   }\r\n\r\n  //   // update old blance and time of last update\r\n  //   stakedBalances[msg.sender][_tokenContract[i]][_tokenId[i]][_index[i]].oldBalance = calculateRewards(\r\n  //     msg.sender,\r\n  //     _tokenContract[i],\r\n  //     _tokenId[i],\r\n  //     _index[i]\r\n  //   );\r\n  //   stakedBalances[msg.sender][_tokenContract[i]][_tokenId[i]][_index[i]].timeOfLastUpdate = block.timestamp;\r\n\r\n  //   emit TokenRestaked(msg.sender, _tokenContract[i], _tokenId[i], _reStakedAmount, _index[i], block.timestamp);\r\n  //   }\r\n  // }\r\n\r\n  // Claim reward\r\n  function claimRewards(\r\n    address _tokenContract,\r\n    uint256 _tokenId,\r\n    uint256 _index\r\n  ) internal whenNotPaused onlyWhitelisted(_tokenContract) returns (bool) {\r\n    // get claimed amount _msgSender\r\n    uint256 rewards = calculateRewards(msg.sender, _tokenContract, _tokenId, _index);\r\n\r\n    require(rewards > 0, \"TokenStaking: No rewards available\");\r\n    require(rewardToken.balanceOf(address(this)) >= rewards, \"TokenStaking: Insufficient reward balance\");\r\n\r\n    stakedBalances[msg.sender][_tokenContract][_tokenId][_index].timeOfLastUpdate = block.timestamp;\r\n\r\n    // transfer reward amount\r\n    uint256 unstakeFeeAmount;\r\n    if (unstakeFee > 0) {\r\n      unstakeFeeAmount = _getPortion(rewards, unstakeFee);\r\n    }\r\n    rewardToken.transfer(\r\n      msg.sender,\r\n      stakedBalances[msg.sender][_tokenContract][_tokenId][_index].oldBalance + rewards - unstakeFeeAmount\r\n    );\r\n\r\n    emit RewardsClaimed(msg.sender, rewards);\r\n\r\n    return true;\r\n  }\r\n\r\n  function calculateRewards(\r\n    address _user,\r\n    address _tokenContract,\r\n    uint256 _tokenId,\r\n    uint256 _index\r\n  ) public view returns (uint256) {\r\n    require(stakedBalances[_user][_tokenContract][_tokenId].length > _index, \"TokenStaking: invalid index\");\r\n    if (stakedBalances[_user][_tokenContract][_tokenId][_index].stakedAmount > 0) {\r\n      uint256 stakingEndTime = stakedBalances[_user][_tokenContract][_tokenId][_index].timeOfLastUpdate +\r\n        rewardRateDuration;\r\n      require(block.timestamp > stakingEndTime, \"TokenStaking: Staking duration is not completed\");\r\n      uint256 totalRewards = rewardRate *\r\n        // rewardDuration *\r\n        stakedBalances[_user][_tokenContract][_tokenId][_index].stakedAmount;\r\n\r\n      return totalRewards;\r\n    }\r\n    return 0;\r\n  }\r\n\r\n  /**************************************************/\r\n  /********* Whitelisted Contract Functions *********/\r\n  /**************************************************/\r\n\r\n  function addToWhitelist(address[] calldata _whitelistContracts) external onlyAdmin {\r\n    for (uint256 i = 0; i < _whitelistContracts.length; i++) {\r\n      address account = _whitelistContracts[i];\r\n      require(account != address(0), \"Whitelist: Cannot add zero address\");\r\n\r\n      if (!whitelistContracts[account]) {\r\n        whitelistContracts[account] = true;\r\n        emit AddressAdded(account);\r\n      }\r\n    }\r\n  }\r\n\r\n  function removeFromWhitelist(address[] calldata _whitelistContracts) external onlyAdmin {\r\n    for (uint256 i = 0; i < _whitelistContracts.length; i++) {\r\n      address account = _whitelistContracts[i];\r\n      require(whitelistContracts[account], \"Whitelist: Account is not whitelisted\");\r\n\r\n      whitelistContracts[account] = false;\r\n      emit AddressRemoved(account);\r\n    }\r\n  }\r\n\r\n  /**\r\n   *  _authorizeUpgrade\r\n   */\r\n  function _authorizeUpgrade(address newImplementation) internal override onlyRole(DEFAULT_ADMIN_ROLE) {}\r\n\r\n  /**\r\n   * @dev See {IERC165-supportsInterface}.\r\n   */\r\n  function supportsInterface(\r\n    bytes4 interfaceId\r\n  ) public view virtual override(ERC1155Receiver, AccessControlUpgradeable) returns (bool) {\r\n    return super.supportsInterface(interfaceId);\r\n  }\r\n}\r\n",
  "sourcePath": "Z:\\Github\\marketplace\\src\\contracts\\Stacking.sol",
  "compiler": {
    "name": "solc",
    "version": "0.8.14+commit.80d49f37.Emscripten.clang"
  },
  "schemaVersion": "3.4.16",
  "updatedAt": "2024-08-14T08:45:34.735Z",
  "devdoc": {
    "kind": "dev",
    "methods": {
      "constructor": {
        "custom:oz-upgrades-unsafe-allow": "constructor"
      },
      "getRoleAdmin(bytes32)": {
        "details": "Returns the admin role that controls `role`. See {grantRole} and {revokeRole}. To change a role's admin, use {_setRoleAdmin}."
      },
      "grantRole(bytes32,address)": {
        "details": "Grants `role` to `account`. If `account` had not been already granted `role`, emits a {RoleGranted} event. Requirements: - the caller must have ``role``'s admin role. May emit a {RoleGranted} event."
      },
      "hasRole(bytes32,address)": {
        "details": "Returns `true` if `account` has been granted `role`."
      },
      "paused()": {
        "details": "Returns true if the contract is paused, and false otherwise."
      },
      "proxiableUUID()": {
        "details": "Implementation of the ERC1822 {proxiableUUID} function. This returns the storage slot used by the implementation. It is used to validate the implementation's compatibility when performing an upgrade. IMPORTANT: A proxy pointing at a proxiable contract should not be considered proxiable itself, because this risks bricking a proxy that upgrades to it, by delegating to itself until out of gas. Thus it is critical that this function revert if invoked through a proxy. This is guaranteed by the `notDelegated` modifier."
      },
      "renounceRole(bytes32,address)": {
        "details": "Revokes `role` from the calling account. Roles are often managed via {grantRole} and {revokeRole}: this function's purpose is to provide a mechanism for accounts to lose their privileges if they are compromised (such as when a trusted device is misplaced). If the calling account had been revoked `role`, emits a {RoleRevoked} event. Requirements: - the caller must be `account`. May emit a {RoleRevoked} event."
      },
      "revokeRole(bytes32,address)": {
        "details": "Revokes `role` from `account`. If `account` had been granted `role`, emits a {RoleRevoked} event. Requirements: - the caller must have ``role``'s admin role. May emit a {RoleRevoked} event."
      },
      "supportsInterface(bytes4)": {
        "details": "See {IERC165-supportsInterface}."
      },
      "upgradeTo(address)": {
        "details": "Upgrade the implementation of the proxy to `newImplementation`. Calls {_authorizeUpgrade}. Emits an {Upgraded} event."
      },
      "upgradeToAndCall(address,bytes)": {
        "details": "Upgrade the implementation of the proxy to `newImplementation`, and subsequently execute the function call encoded in `data`. Calls {_authorizeUpgrade}. Emits an {Upgraded} event."
      }
    },
    "version": 1
  },
  "userdoc": {
    "kind": "user",
    "methods": {},
    "version": 1
  }
}