{
  "contractName": "StakingNFT",
  "abi": [
    {
      "inputs": [],
      "stateMutability": "nonpayable",
      "type": "constructor"
    },
    {
      "anonymous": false,
      "inputs": [
        {
          "indexed": true,
          "internalType": "address",
          "name": "account",
          "type": "address"
        }
      ],
      "name": "AddressAdded",
      "type": "event"
    },
    {
      "anonymous": false,
      "inputs": [
        {
          "indexed": true,
          "internalType": "address",
          "name": "account",
          "type": "address"
        }
      ],
      "name": "AddressRemoved",
      "type": "event"
    },
    {
      "anonymous": false,
      "inputs": [
        {
          "indexed": false,
          "internalType": "address",
          "name": "previousAdmin",
          "type": "address"
        },
        {
          "indexed": false,
          "internalType": "address",
          "name": "newAdmin",
          "type": "address"
        }
      ],
      "name": "AdminChanged",
      "type": "event"
    },
    {
      "anonymous": false,
      "inputs": [
        {
          "indexed": true,
          "internalType": "address",
          "name": "beacon",
          "type": "address"
        }
      ],
      "name": "BeaconUpgraded",
      "type": "event"
    },
    {
      "anonymous": false,
      "inputs": [
        {
          "indexed": false,
          "internalType": "uint8",
          "name": "version",
          "type": "uint8"
        }
      ],
      "name": "Initialized",
      "type": "event"
    },
    {
      "anonymous": false,
      "inputs": [
        {
          "indexed": false,
          "internalType": "address",
          "name": "account",
          "type": "address"
        }
      ],
      "name": "Paused",
      "type": "event"
    },
    {
      "anonymous": false,
      "inputs": [
        {
          "indexed": true,
          "internalType": "address",
          "name": "user",
          "type": "address"
        },
        {
          "indexed": false,
          "internalType": "uint256",
          "name": "amount",
          "type": "uint256"
        }
      ],
      "name": "RewardsClaimed",
      "type": "event"
    },
    {
      "anonymous": false,
      "inputs": [
        {
          "indexed": true,
          "internalType": "bytes32",
          "name": "role",
          "type": "bytes32"
        },
        {
          "indexed": true,
          "internalType": "bytes32",
          "name": "previousAdminRole",
          "type": "bytes32"
        },
        {
          "indexed": true,
          "internalType": "bytes32",
          "name": "newAdminRole",
          "type": "bytes32"
        }
      ],
      "name": "RoleAdminChanged",
      "type": "event"
    },
    {
      "anonymous": false,
      "inputs": [
        {
          "indexed": true,
          "internalType": "bytes32",
          "name": "role",
          "type": "bytes32"
        },
        {
          "indexed": true,
          "internalType": "address",
          "name": "account",
          "type": "address"
        },
        {
          "indexed": true,
          "internalType": "address",
          "name": "sender",
          "type": "address"
        }
      ],
      "name": "RoleGranted",
      "type": "event"
    },
    {
      "anonymous": false,
      "inputs": [
        {
          "indexed": true,
          "internalType": "bytes32",
          "name": "role",
          "type": "bytes32"
        },
        {
          "indexed": true,
          "internalType": "address",
          "name": "account",
          "type": "address"
        },
        {
          "indexed": true,
          "internalType": "address",
          "name": "sender",
          "type": "address"
        }
      ],
      "name": "RoleRevoked",
      "type": "event"
    },
    {
      "anonymous": false,
      "inputs": [
        {
          "indexed": true,
          "internalType": "address",
          "name": "user",
          "type": "address"
        },
        {
          "indexed": true,
          "internalType": "address",
          "name": "tokenContract",
          "type": "address"
        },
        {
          "indexed": true,
          "internalType": "uint256",
          "name": "tokenId",
          "type": "uint256"
        },
        {
          "indexed": false,
          "internalType": "uint256",
          "name": "amount",
          "type": "uint256"
        },
        {
          "indexed": false,
          "internalType": "uint256",
          "name": "index",
          "type": "uint256"
        },
        {
          "indexed": false,
          "internalType": "uint256",
          "name": "timestamp",
          "type": "uint256"
        }
      ],
      "name": "TokenRestaked",
      "type": "event"
    },
    {
      "anonymous": false,
      "inputs": [
        {
          "indexed": true,
          "internalType": "address",
          "name": "user",
          "type": "address"
        },
        {
          "indexed": true,
          "internalType": "address",
          "name": "tokenContract",
          "type": "address"
        },
        {
          "indexed": true,
          "internalType": "uint256",
          "name": "tokenId",
          "type": "uint256"
        },
        {
          "indexed": false,
          "internalType": "uint256",
          "name": "amount",
          "type": "uint256"
        },
        {
          "indexed": false,
          "internalType": "uint256",
          "name": "index",
          "type": "uint256"
        }
      ],
      "name": "TokensStaked",
      "type": "event"
    },
    {
      "anonymous": false,
      "inputs": [
        {
          "indexed": true,
          "internalType": "address",
          "name": "user",
          "type": "address"
        },
        {
          "indexed": true,
          "internalType": "address",
          "name": "tokenContract",
          "type": "address"
        },
        {
          "indexed": true,
          "internalType": "uint256",
          "name": "tokenId",
          "type": "uint256"
        },
        {
          "indexed": false,
          "internalType": "uint256",
          "name": "amount",
          "type": "uint256"
        },
        {
          "indexed": false,
          "internalType": "uint256",
          "name": "index",
          "type": "uint256"
        }
      ],
      "name": "TokensUnstaked",
      "type": "event"
    },
    {
      "anonymous": false,
      "inputs": [
        {
          "indexed": false,
          "internalType": "address",
          "name": "account",
          "type": "address"
        }
      ],
      "name": "Unpaused",
      "type": "event"
    },
    {
      "anonymous": false,
      "inputs": [
        {
          "indexed": true,
          "internalType": "address",
          "name": "implementation",
          "type": "address"
        }
      ],
      "name": "Upgraded",
      "type": "event"
    },
    {
      "inputs": [],
      "name": "DEFAULT_ADMIN_ROLE",
      "outputs": [
        {
          "internalType": "bytes32",
          "name": "",
          "type": "bytes32"
        }
      ],
      "stateMutability": "view",
      "type": "function"
    },
    {
      "inputs": [
        {
          "internalType": "bytes32",
          "name": "role",
          "type": "bytes32"
        }
      ],
      "name": "getRoleAdmin",
      "outputs": [
        {
          "internalType": "bytes32",
          "name": "",
          "type": "bytes32"
        }
      ],
      "stateMutability": "view",
      "type": "function"
    },
    {
      "inputs": [
        {
          "internalType": "bytes32",
          "name": "role",
          "type": "bytes32"
        },
        {
          "internalType": "address",
          "name": "account",
          "type": "address"
        }
      ],
      "name": "grantRole",
      "outputs": [],
      "stateMutability": "nonpayable",
      "type": "function"
    },
    {
      "inputs": [
        {
          "internalType": "bytes32",
          "name": "role",
          "type": "bytes32"
        },
        {
          "internalType": "address",
          "name": "account",
          "type": "address"
        }
      ],
      "name": "hasRole",
      "outputs": [
        {
          "internalType": "bool",
          "name": "",
          "type": "bool"
        }
      ],
      "stateMutability": "view",
      "type": "function"
    },
    {
      "inputs": [
        {
          "internalType": "address",
          "name": "",
          "type": "address"
        },
        {
          "internalType": "address",
          "name": "",
          "type": "address"
        },
        {
          "internalType": "uint256[]",
          "name": "",
          "type": "uint256[]"
        },
        {
          "internalType": "uint256[]",
          "name": "",
          "type": "uint256[]"
        },
        {
          "internalType": "bytes",
          "name": "",
          "type": "bytes"
        }
      ],
      "name": "onERC1155BatchReceived",
      "outputs": [
        {
          "internalType": "bytes4",
          "name": "",
          "type": "bytes4"
        }
      ],
      "stateMutability": "nonpayable",
      "type": "function"
    },
    {
      "inputs": [
        {
          "internalType": "address",
          "name": "",
          "type": "address"
        },
        {
          "internalType": "address",
          "name": "",
          "type": "address"
        },
        {
          "internalType": "uint256",
          "name": "",
          "type": "uint256"
        },
        {
          "internalType": "uint256",
          "name": "",
          "type": "uint256"
        },
        {
          "internalType": "bytes",
          "name": "",
          "type": "bytes"
        }
      ],
      "name": "onERC1155Received",
      "outputs": [
        {
          "internalType": "bytes4",
          "name": "",
          "type": "bytes4"
        }
      ],
      "stateMutability": "nonpayable",
      "type": "function"
    },
    {
      "inputs": [],
      "name": "paused",
      "outputs": [
        {
          "internalType": "bool",
          "name": "",
          "type": "bool"
        }
      ],
      "stateMutability": "view",
      "type": "function"
    },
    {
      "inputs": [],
      "name": "payReward",
      "outputs": [
        {
          "internalType": "bool",
          "name": "",
          "type": "bool"
        }
      ],
      "stateMutability": "view",
      "type": "function"
    },
    {
      "inputs": [],
      "name": "proxiableUUID",
      "outputs": [
        {
          "internalType": "bytes32",
          "name": "",
          "type": "bytes32"
        }
      ],
      "stateMutability": "view",
      "type": "function"
    },
    {
      "inputs": [
        {
          "internalType": "bytes32",
          "name": "role",
          "type": "bytes32"
        },
        {
          "internalType": "address",
          "name": "account",
          "type": "address"
        }
      ],
      "name": "renounceRole",
      "outputs": [],
      "stateMutability": "nonpayable",
      "type": "function"
    },
    {
      "inputs": [
        {
          "internalType": "bytes32",
          "name": "role",
          "type": "bytes32"
        },
        {
          "internalType": "address",
          "name": "account",
          "type": "address"
        }
      ],
      "name": "revokeRole",
      "outputs": [],
      "stateMutability": "nonpayable",
      "type": "function"
    },
    {
      "inputs": [],
      "name": "rewardRate",
      "outputs": [
        {
          "internalType": "uint256",
          "name": "",
          "type": "uint256"
        }
      ],
      "stateMutability": "view",
      "type": "function"
    },
    {
      "inputs": [],
      "name": "rewardRateDuration",
      "outputs": [
        {
          "internalType": "uint256",
          "name": "",
          "type": "uint256"
        }
      ],
      "stateMutability": "view",
      "type": "function"
    },
    {
      "inputs": [],
      "name": "rewardToken",
      "outputs": [
        {
          "internalType": "contract IERC20",
          "name": "",
          "type": "address"
        }
      ],
      "stateMutability": "view",
      "type": "function"
    },
    {
      "inputs": [
        {
          "internalType": "address",
          "name": "",
          "type": "address"
        },
        {
          "internalType": "address",
          "name": "",
          "type": "address"
        },
        {
          "internalType": "uint256",
          "name": "",
          "type": "uint256"
        },
        {
          "internalType": "uint256",
          "name": "",
          "type": "uint256"
        }
      ],
      "name": "stakedBalances",
      "outputs": [
        {
          "internalType": "uint256",
          "name": "stakedAmount",
          "type": "uint256"
        },
        {
          "internalType": "uint256",
          "name": "oldBalance",
          "type": "uint256"
        },
        {
          "internalType": "uint256",
          "name": "timeOfLastUpdate",
          "type": "uint256"
        }
      ],
      "stateMutability": "view",
      "type": "function"
    },
    {
      "inputs": [],
      "name": "unstakeFee",
      "outputs": [
        {
          "internalType": "uint256",
          "name": "",
          "type": "uint256"
        }
      ],
      "stateMutability": "view",
      "type": "function"
    },
    {
      "inputs": [
        {
          "internalType": "address",
          "name": "newImplementation",
          "type": "address"
        }
      ],
      "name": "upgradeTo",
      "outputs": [],
      "stateMutability": "nonpayable",
      "type": "function"
    },
    {
      "inputs": [
        {
          "internalType": "address",
          "name": "newImplementation",
          "type": "address"
        },
        {
          "internalType": "bytes",
          "name": "data",
          "type": "bytes"
        }
      ],
      "name": "upgradeToAndCall",
      "outputs": [],
      "stateMutability": "payable",
      "type": "function"
    },
    {
      "inputs": [
        {
          "internalType": "address",
          "name": "",
          "type": "address"
        }
      ],
      "name": "whitelistContracts",
      "outputs": [
        {
          "internalType": "bool",
          "name": "",
          "type": "bool"
        }
      ],
      "stateMutability": "view",
      "type": "function"
    },
    {
      "inputs": [
        {
          "internalType": "address",
          "name": "_rewardToken",
          "type": "address"
        },
        {
          "internalType": "uint256",
          "name": "_rewardRate",
          "type": "uint256"
        },
        {
          "internalType": "uint256",
          "name": "_rewardRateDuration",
          "type": "uint256"
        }
      ],
      "name": "initialize",
      "outputs": [],
      "stateMutability": "nonpayable",
      "type": "function"
    },
    {
      "inputs": [
        {
          "internalType": "uint256",
          "name": "_rewardRate",
          "type": "uint256"
        }
      ],
      "name": "setRewardRate",
      "outputs": [],
      "stateMutability": "nonpayable",
      "type": "function"
    },
    {
      "inputs": [
        {
          "internalType": "uint256",
          "name": "_rewardRateDuration",
          "type": "uint256"
        }
      ],
      "name": "setRewardRateDuration",
      "outputs": [],
      "stateMutability": "nonpayable",
      "type": "function"
    },
    {
      "inputs": [
        {
          "internalType": "bool",
          "name": "_payReward",
          "type": "bool"
        }
      ],
      "name": "setPayReward",
      "outputs": [],
      "stateMutability": "nonpayable",
      "type": "function"
    },
    {
      "inputs": [
        {
          "internalType": "uint256",
          "name": "_unstakeFee",
          "type": "uint256"
        }
      ],
      "name": "setUnstakeFee",
      "outputs": [],
      "stateMutability": "nonpayable",
      "type": "function"
    },
    {
      "inputs": [
        {
          "internalType": "address",
          "name": "_to",
          "type": "address"
        },
        {
          "internalType": "uint256",
          "name": "_amount",
          "type": "uint256"
        }
      ],
      "name": "transferToken",
      "outputs": [],
      "stateMutability": "nonpayable",
      "type": "function"
    },
    {
      "inputs": [],
      "name": "pause",
      "outputs": [],
      "stateMutability": "nonpayable",
      "type": "function"
    },
    {
      "inputs": [],
      "name": "unpause",
      "outputs": [],
      "stateMutability": "nonpayable",
      "type": "function"
    },
    {
      "inputs": [
        {
          "internalType": "address",
          "name": "_tokenContract",
          "type": "address"
        },
        {
          "internalType": "uint256",
          "name": "_tokenId",
          "type": "uint256"
        },
        {
          "internalType": "uint256",
          "name": "_stakedAmount",
          "type": "uint256"
        },
        {
          "internalType": "uint8",
          "name": "_tokenType",
          "type": "uint8"
        }
      ],
      "name": "stakeToken",
      "outputs": [],
      "stateMutability": "nonpayable",
      "type": "function"
    },
    {
      "inputs": [
        {
          "internalType": "address[]",
          "name": "_tokenContract",
          "type": "address[]"
        },
        {
          "internalType": "uint256[]",
          "name": "_tokenType",
          "type": "uint256[]"
        },
        {
          "internalType": "uint256[]",
          "name": "_tokenId",
          "type": "uint256[]"
        },
        {
          "internalType": "uint256[]",
          "name": "_stakedAmount",
          "type": "uint256[]"
        }
      ],
      "name": "stakeTokenBatch",
      "outputs": [],
      "stateMutability": "nonpayable",
      "type": "function"
    },
    {
      "inputs": [
        {
          "internalType": "address",
          "name": "_tokenContract",
          "type": "address"
        },
        {
          "internalType": "uint256",
          "name": "_tokenId",
          "type": "uint256"
        },
        {
          "internalType": "uint256",
          "name": "_unStakedAmount",
          "type": "uint256"
        },
        {
          "internalType": "uint256",
          "name": "_index",
          "type": "uint256"
        },
        {
          "internalType": "uint8",
          "name": "_tokenType",
          "type": "uint8"
        }
      ],
      "name": "unStakeToken",
      "outputs": [],
      "stateMutability": "nonpayable",
      "type": "function"
    },
    {
      "inputs": [
        {
          "internalType": "address[]",
          "name": "_tokenContract",
          "type": "address[]"
        },
        {
          "internalType": "uint256[]",
          "name": "_tokenType",
          "type": "uint256[]"
        },
        {
          "internalType": "uint256[]",
          "name": "_tokenId",
          "type": "uint256[]"
        },
        {
          "internalType": "uint256[]",
          "name": "_unStakedAmount",
          "type": "uint256[]"
        },
        {
          "internalType": "uint256[]",
          "name": "_index",
          "type": "uint256[]"
        }
      ],
      "name": "unStakeTokenBatch",
      "outputs": [],
      "stateMutability": "nonpayable",
      "type": "function"
    },
    {
      "inputs": [
        {
          "internalType": "address",
          "name": "_tokenContract",
          "type": "address"
        },
        {
          "internalType": "uint256",
          "name": "_tokenId",
          "type": "uint256"
        },
        {
          "internalType": "uint8",
          "name": "_tokenType",
          "type": "uint8"
        },
        {
          "internalType": "uint256",
          "name": "_index",
          "type": "uint256"
        }
      ],
      "name": "reStakeToken",
      "outputs": [],
      "stateMutability": "nonpayable",
      "type": "function"
    },
    {
      "inputs": [
        {
          "internalType": "address[]",
          "name": "_tokenContract",
          "type": "address[]"
        },
        {
          "internalType": "uint256[]",
          "name": "_tokenType",
          "type": "uint256[]"
        },
        {
          "internalType": "uint256[]",
          "name": "_tokenId",
          "type": "uint256[]"
        },
        {
          "internalType": "uint256[]",
          "name": "_index",
          "type": "uint256[]"
        }
      ],
      "name": "reStakeTokenBatch",
      "outputs": [],
      "stateMutability": "nonpayable",
      "type": "function"
    },
    {
      "inputs": [
        {
          "internalType": "address",
          "name": "_user",
          "type": "address"
        },
        {
          "internalType": "address",
          "name": "_tokenContract",
          "type": "address"
        },
        {
          "internalType": "uint256",
          "name": "_tokenId",
          "type": "uint256"
        },
        {
          "internalType": "uint256",
          "name": "_index",
          "type": "uint256"
        }
      ],
      "name": "calculateRewards",
      "outputs": [
        {
          "internalType": "uint256",
          "name": "",
          "type": "uint256"
        }
      ],
      "stateMutability": "view",
      "type": "function"
    },
    {
      "inputs": [
        {
          "internalType": "address[]",
          "name": "_whitelistContracts",
          "type": "address[]"
        }
      ],
      "name": "addToWhitelist",
      "outputs": [],
      "stateMutability": "nonpayable",
      "type": "function"
    },
    {
      "inputs": [
        {
          "internalType": "address[]",
          "name": "_whitelistContracts",
          "type": "address[]"
        }
      ],
      "name": "removeFromWhitelist",
      "outputs": [],
      "stateMutability": "nonpayable",
      "type": "function"
    },
    {
      "inputs": [
        {
          "internalType": "bytes4",
          "name": "interfaceId",
          "type": "bytes4"
        }
      ],
      "name": "supportsInterface",
      "outputs": [
        {
          "internalType": "bool",
          "name": "",
          "type": "bool"
        }
      ],
      "stateMutability": "view",
      "type": "function"
    }
  ],
  "bytecode": "0x60a06040523073ffffffffffffffffffffffffffffffffffffffff1660809073ffffffffffffffffffffffffffffffffffffffff168152503480156200004457600080fd5b50600161012d819055506200005e6200006460201b60201c565b6200020f565b600060019054906101000a900460ff1615620000b7576040517f08c379a0000000000000000000000000000000000000000000000000000000008152600401620000ae90620001b2565b60405180910390fd5b60ff801660008054906101000a900460ff1660ff161015620001295760ff6000806101000a81548160ff021916908360ff1602179055507f7f26b83ff96e1f2b6a682f133852f6798a09c465da95921460cefb384740249860ff604051620001209190620001f2565b60405180910390a15b565b600082825260208201905092915050565b7f496e697469616c697a61626c653a20636f6e747261637420697320696e69746960008201527f616c697a696e6700000000000000000000000000000000000000000000000000602082015250565b60006200019a6027836200012b565b9150620001a7826200013c565b604082019050919050565b60006020820190508181036000830152620001cd816200018b565b9050919050565b600060ff82169050919050565b620001ec81620001d4565b82525050565b6000602082019050620002096000830184620001e1565b92915050565b6080516179af620002476000396000818161179c0152818161182a015281816121990152818161222701526122d701526179af6000f3fe6080604052600436106102195760003560e01c80637b0a47ee11610123578063af5a6c7e116100ab578063db4172401161006f578063db41724014610793578063e51b9bc8146107d0578063efea48bc146107f9578063f23a6e6114610824578063f7c618c11461086157610219565b8063af5a6c7e1461069e578063b44bfd98146106db578063b8b9568814610704578063bc197c811461072d578063d547741f1461076a57610219565b806391d14854116100f257806391d14854146105a557806399a93df2146105e25780639e447fc614610621578063a00ac6781461064a578063a217fddf1461067357610219565b80637b0a47ee1461050f5780637f6497831461053a5780638456cb59146105635780638ea97d261461057a57610219565b80633d106f8e116101a6578063548db17411610175578063548db1741461043e5780635c975abb146104675780636509698d146104925780637842a3a4146104bb5780637a1ac61e146104e657610219565b80633d106f8e146103b75780633f4ba83a146103e05780634f1ef286146103f757806352d1902d1461041357610219565b8063197ee756116101ed578063197ee756146102d6578063248a9ca3146102ff5780632f2ff15d1461033c57806336568abe146103655780633659cfe61461038e57610219565b806218a1161461021e57806301ffc9a7146102475780631072cbea14610284578063143849ac146102ad575b600080fd5b34801561022a57600080fd5b5061024560048036038101906102409190615485565b61088c565b005b34801561025357600080fd5b5061026e6004803603810190610269919061550a565b6108e3565b60405161027b9190615552565b60405180910390f35b34801561029057600080fd5b506102ab60048036038101906102a691906155cb565b6108f5565b005b3480156102b957600080fd5b506102d460048036038101906102cf91906156c6565b610a25565b005b3480156102e257600080fd5b506102fd60048036038101906102f891906157e8565b6111ac565b005b34801561030b57600080fd5b5061032660048036038101906103219190615885565b6116d6565b60405161033391906158c1565b60405180910390f35b34801561034857600080fd5b50610363600480360381019061035e91906158dc565b6116f6565b005b34801561037157600080fd5b5061038c600480360381019061038791906158dc565b611717565b005b34801561039a57600080fd5b506103b560048036038101906103b0919061591c565b61179a565b005b3480156103c357600080fd5b506103de60048036038101906103d991906156c6565b611922565b005b3480156103ec57600080fd5b506103f5612141565b005b610411600480360381019061040c9190615a8a565b612197565b005b34801561041f57600080fd5b506104286122d3565b60405161043591906158c1565b60405180910390f35b34801561044a57600080fd5b5061046560048036038101906104609190615ae6565b61238c565b005b34801561047357600080fd5b5061047c612554565b6040516104899190615552565b60405180910390f35b34801561049e57600080fd5b506104b960048036038101906104b49190615485565b61256b565b005b3480156104c757600080fd5b506104d06125c2565b6040516104dd9190615552565b60405180910390f35b3480156104f257600080fd5b5061050d60048036038101906105089190615b33565b6125d6565b005b34801561051b57600080fd5b5061052461277e565b6040516105319190615b95565b60405180910390f35b34801561054657600080fd5b50610561600480360381019061055c9190615ae6565b612785565b005b34801561056f57600080fd5b50610578612982565b005b34801561058657600080fd5b5061058f6129d8565b60405161059c9190615b95565b60405180910390f35b3480156105b157600080fd5b506105cc60048036038101906105c791906158dc565b6129df565b6040516105d99190615552565b60405180910390f35b3480156105ee57600080fd5b5061060960048036038101906106049190615bb0565b612a4a565b60405161061893929190615c17565b60405180910390f35b34801561062d57600080fd5b5061064860048036038101906106439190615485565b612aac565b005b34801561065657600080fd5b50610671600480360381019061066c9190615c4e565b612b03565b005b34801561067f57600080fd5b50610688613040565b60405161069591906158c1565b60405180910390f35b3480156106aa57600080fd5b506106c560048036038101906106c0919061591c565b613047565b6040516106d29190615552565b60405180910390f35b3480156106e757600080fd5b5061070260048036038101906106fd9190615cb5565b613068565b005b34801561071057600080fd5b5061072b60048036038101906107269190615d30565b613603565b005b34801561073957600080fd5b50610754600480360381019061074f9190615f10565b613ec4565b6040516107619190615fee565b60405180910390f35b34801561077657600080fd5b50610791600480360381019061078c91906158dc565b613ed9565b005b34801561079f57600080fd5b506107ba60048036038101906107b59190615bb0565b613efa565b6040516107c79190615b95565b60405180910390f35b3480156107dc57600080fd5b506107f760048036038101906107f29190616035565b61426a565b005b34801561080557600080fd5b5061080e6142d4565b60405161081b9190615b95565b60405180910390f35b34801561083057600080fd5b5061084b60048036038101906108469190616062565b6142db565b6040516108589190615fee565b60405180910390f35b34801561086d57600080fd5b506108766142f0565b6040516108839190616158565b60405180910390f35b6108996000801b336129df565b6108d8576040517f08c379a00000000000000000000000000000000000000000000000000000000081526004016108cf906161f6565b60405180910390fd5b806101348190555050565b60006108ee82614317565b9050919050565b6109026000801b336129df565b610941576040517f08c379a0000000000000000000000000000000000000000000000000000000008152600401610938906161f6565b60405180910390fd5b61012f60009054906101000a900473ffffffffffffffffffffffffffffffffffffffff1673ffffffffffffffffffffffffffffffffffffffff1663a9059cbb83836040518363ffffffff1660e01b815260040161099f929190616225565b6020604051808303816000875af11580156109be573d6000803e3d6000fd5b505050506040513d601f19601f820116820180604052508101906109e29190616263565b610a21576040517f08c379a0000000000000000000000000000000000000000000000000000000008152600401610a18906162dc565b60405180910390fd5b5050565b610a2d614391565b8585905088889050148015610a4757508383905088889050145b8015610a5857508181905088889050145b610a97576040517f08c379a0000000000000000000000000000000000000000000000000000000008152600401610a8e9061636e565b60405180910390fd5b600088889050905060005b818110156111a057600061012e60003373ffffffffffffffffffffffffffffffffffffffff1673ffffffffffffffffffffffffffffffffffffffff16815260200190815260200160002060008c8c85818110610b0157610b0061638e565b5b9050602002016020810190610b16919061591c565b73ffffffffffffffffffffffffffffffffffffffff1673ffffffffffffffffffffffffffffffffffffffff1681526020019081526020016000206000888885818110610b6557610b6461638e565b5b905060200201358152602001908152602001600020858584818110610b8d57610b8c61638e565b5b9050602002013581548110610ba557610ba461638e565b5b906000526020600020906003020160000154905060008111610bfc576040517f08c379a0000000000000000000000000000000000000000000000000000000008152600401610bf39061642f565b60405180910390fd5b6000898984818110610c1157610c1061638e565b5b9050602002013503610d1f57808b8b84818110610c3157610c3061638e565b5b9050602002016020810190610c46919061591c565b73ffffffffffffffffffffffffffffffffffffffff1662fdd58e308a8a87818110610c7457610c7361638e565b5b905060200201356040518363ffffffff1660e01b8152600401610c98929190616225565b602060405180830381865afa158015610cb5573d6000803e3d6000fd5b505050506040513d601f19601f82011682018060405250810190610cd99190616464565b1015610d1a576040517f08c379a0000000000000000000000000000000000000000000000000000000008152600401610d1190616529565b60405180910390fd5b610e47565b3073ffffffffffffffffffffffffffffffffffffffff168b8b84818110610d4957610d4861638e565b5b9050602002016020810190610d5e919061591c565b73ffffffffffffffffffffffffffffffffffffffff16636352211e898986818110610d8c57610d8b61638e565b5b905060200201356040518263ffffffff1660e01b8152600401610daf9190615b95565b602060405180830381865afa158015610dcc573d6000803e3d6000fd5b505050506040513d601f19601f82011682018060405250810190610df0919061655e565b73ffffffffffffffffffffffffffffffffffffffff1614610e46576040517f08c379a0000000000000000000000000000000000000000000000000000000008152600401610e3d906165fd565b60405180910390fd5b5b610eac338c8c85818110610e5e57610e5d61638e565b5b9050602002016020810190610e73919061591c565b898986818110610e8657610e8561638e565b5b90506020020135888887818110610ea057610e9f61638e565b5b90506020020135613efa565b61012e60003373ffffffffffffffffffffffffffffffffffffffff1673ffffffffffffffffffffffffffffffffffffffff16815260200190815260200160002060008d8d86818110610f0157610f0061638e565b5b9050602002016020810190610f16919061591c565b73ffffffffffffffffffffffffffffffffffffffff1673ffffffffffffffffffffffffffffffffffffffff1681526020019081526020016000206000898986818110610f6557610f6461638e565b5b905060200201358152602001908152602001600020868685818110610f8d57610f8c61638e565b5b9050602002013581548110610fa557610fa461638e565b5b9060005260206000209060030201600101819055504261012e60003373ffffffffffffffffffffffffffffffffffffffff1673ffffffffffffffffffffffffffffffffffffffff16815260200190815260200160002060008d8d868181106110105761100f61638e565b5b9050602002016020810190611025919061591c565b73ffffffffffffffffffffffffffffffffffffffff1673ffffffffffffffffffffffffffffffffffffffff16815260200190815260200160002060008989868181106110745761107361638e565b5b90506020020135815260200190815260200160002086868581811061109c5761109b61638e565b5b90506020020135815481106110b4576110b361638e565b5b9060005260206000209060030201600201819055508686838181106110dc576110db61638e565b5b905060200201358b8b848181106110f6576110f561638e565b5b905060200201602081019061110b919061591c565b73ffffffffffffffffffffffffffffffffffffffff163373ffffffffffffffffffffffffffffffffffffffff167ff1a945c8cc4403d02673e60cf2632609ce231f8899e2c25ef96bcb8df46a82428489898881811061116d5761116c61638e565b5b905060200201354260405161118493929190615c17565b60405180910390a45080806111989061664c565b915050610aa2565b50505050505050505050565b8361013360008273ffffffffffffffffffffffffffffffffffffffff1673ffffffffffffffffffffffffffffffffffffffff16815260200190815260200160002060009054906101000a900460ff1661123a576040517f08c379a000000000000000000000000000000000000000000000000000000000815260040161123190616706565b60405180910390fd5b611242614391565b60018260ff16036113a8573373ffffffffffffffffffffffffffffffffffffffff168573ffffffffffffffffffffffffffffffffffffffff16636352211e866040518263ffffffff1660e01b815260040161129d9190615b95565b602060405180830381865afa1580156112ba573d6000803e3d6000fd5b505050506040513d601f19601f820116820180604052508101906112de919061655e565b73ffffffffffffffffffffffffffffffffffffffff1614611334576040517f08c379a000000000000000000000000000000000000000000000000000000000815260040161132b90616798565b60405180910390fd5b8473ffffffffffffffffffffffffffffffffffffffff166323b872dd3330876040518463ffffffff1660e01b8152600401611371939291906167b8565b600060405180830381600087803b15801561138b57600080fd5b505af115801561139f573d6000803e3d6000fd5b505050506114d7565b828573ffffffffffffffffffffffffffffffffffffffff1662fdd58e33876040518363ffffffff1660e01b81526004016113e3929190616225565b602060405180830381865afa158015611400573d6000803e3d6000fd5b505050506040513d601f19601f820116820180604052508101906114249190616464565b1015611465576040517f08c379a000000000000000000000000000000000000000000000000000000000815260040161145c90616861565b60405180910390fd5b8473ffffffffffffffffffffffffffffffffffffffff1663f242432a333087876040518563ffffffff1660e01b81526004016114a494939291906168de565b600060405180830381600087803b1580156114be57600080fd5b505af11580156114d2573d6000803e3d6000fd5b505050505b6000604051806060016040528085815260200160008152602001428152509050600061012e60003373ffffffffffffffffffffffffffffffffffffffff1673ffffffffffffffffffffffffffffffffffffffff16815260200190815260200160002060008873ffffffffffffffffffffffffffffffffffffffff1673ffffffffffffffffffffffffffffffffffffffff168152602001908152602001600020600087815260200190815260200160002080549050905061012e60003373ffffffffffffffffffffffffffffffffffffffff1673ffffffffffffffffffffffffffffffffffffffff16815260200190815260200160002060008873ffffffffffffffffffffffffffffffffffffffff1673ffffffffffffffffffffffffffffffffffffffff16815260200190815260200160002060008781526020019081526020016000208290806001815401808255809150506001900390600052602060002090600302016000909190919091506000820151816000015560208201518160010155604082015181600201555050858773ffffffffffffffffffffffffffffffffffffffff163373ffffffffffffffffffffffffffffffffffffffff167fc1422af7e43d777469d796ab303d8d25d600d97d1ba738791ab5ac48cf123f9388856040516116c5929190616936565b60405180910390a450505050505050565b600060976000838152602001908152602001600020600101549050919050565b6116ff826116d6565b611708816143db565b61171283836143ef565b505050565b61171f6144d0565b73ffffffffffffffffffffffffffffffffffffffff168173ffffffffffffffffffffffffffffffffffffffff161461178c576040517f08c379a0000000000000000000000000000000000000000000000000000000008152600401611783906169d1565b60405180910390fd5b61179682826144d8565b5050565b7f000000000000000000000000000000000000000000000000000000000000000073ffffffffffffffffffffffffffffffffffffffff163073ffffffffffffffffffffffffffffffffffffffff1603611828576040517f08c379a000000000000000000000000000000000000000000000000000000000815260040161181f90616a63565b60405180910390fd5b7f000000000000000000000000000000000000000000000000000000000000000073ffffffffffffffffffffffffffffffffffffffff166118676145ba565b73ffffffffffffffffffffffffffffffffffffffff16146118bd576040517f08c379a00000000000000000000000000000000000000000000000000000000081526004016118b490616af5565b60405180910390fd5b6118c681614611565b61191f81600067ffffffffffffffff8111156118e5576118e461595f565b5b6040519080825280601f01601f1916602001820160405280156119175781602001600182028036833780820191505090505b506000614622565b50565b61192a614391565b858590508888905014801561194457508383905088889050145b801561195557508181905088889050145b611994576040517f08c379a000000000000000000000000000000000000000000000000000000000815260040161198b9061636e565b60405180910390fd5b600088889050905060005b818110156121355761013360008b8b848181106119bf576119be61638e565b5b90506020020160208101906119d4919061591c565b73ffffffffffffffffffffffffffffffffffffffff1673ffffffffffffffffffffffffffffffffffffffff16815260200190815260200160002060009054906101000a900460ff16611a5b576040517f08c379a0000000000000000000000000000000000000000000000000000000008152600401611a5290616706565b60405180910390fd5b6000888883818110611a7057611a6f61638e565b5b9050602002013503611c6157838382818110611a8f57611a8e61638e565b5b905060200201358a8a83818110611aa957611aa861638e565b5b9050602002016020810190611abe919061591c565b73ffffffffffffffffffffffffffffffffffffffff1662fdd58e33898986818110611aec57611aeb61638e565b5b905060200201356040518363ffffffff1660e01b8152600401611b10929190616225565b602060405180830381865afa158015611b2d573d6000803e3d6000fd5b505050506040513d601f19601f82011682018060405250810190611b519190616464565b1015611b92576040517f08c379a0000000000000000000000000000000000000000000000000000000008152600401611b8990616861565b60405180910390fd5b898982818110611ba557611ba461638e565b5b9050602002016020810190611bba919061591c565b73ffffffffffffffffffffffffffffffffffffffff1663f242432a3330898986818110611bea57611be961638e565b5b90506020020135888887818110611c0457611c0361638e565b5b905060200201356040518563ffffffff1660e01b8152600401611c2a94939291906168de565b600060405180830381600087803b158015611c4457600080fd5b505af1158015611c58573d6000803e3d6000fd5b50505050611e38565b3373ffffffffffffffffffffffffffffffffffffffff168a8a83818110611c8b57611c8a61638e565b5b9050602002016020810190611ca0919061591c565b73ffffffffffffffffffffffffffffffffffffffff16636352211e888885818110611cce57611ccd61638e565b5b905060200201356040518263ffffffff1660e01b8152600401611cf19190615b95565b602060405180830381865afa158015611d0e573d6000803e3d6000fd5b505050506040513d601f19601f82011682018060405250810190611d32919061655e565b73ffffffffffffffffffffffffffffffffffffffff1614611d88576040517f08c379a0000000000000000000000000000000000000000000000000000000008152600401611d7f90616b87565b60405180910390fd5b898982818110611d9b57611d9a61638e565b5b9050602002016020810190611db0919061591c565b73ffffffffffffffffffffffffffffffffffffffff166323b872dd3330898986818110611de057611ddf61638e565b5b905060200201356040518463ffffffff1660e01b8152600401611e05939291906167b8565b600060405180830381600087803b158015611e1f57600080fd5b505af1158015611e33573d6000803e3d6000fd5b505050505b60006040518060600160405280868685818110611e5857611e5761638e565b5b90506020020135815260200160008152602001428152509050600061012e60003373ffffffffffffffffffffffffffffffffffffffff1673ffffffffffffffffffffffffffffffffffffffff16815260200190815260200160002060008d8d86818110611ec857611ec761638e565b5b9050602002016020810190611edd919061591c565b73ffffffffffffffffffffffffffffffffffffffff1673ffffffffffffffffffffffffffffffffffffffff1681526020019081526020016000206000898986818110611f2c57611f2b61638e565b5b90506020020135815260200190815260200160002080549050905061012e60003373ffffffffffffffffffffffffffffffffffffffff1673ffffffffffffffffffffffffffffffffffffffff16815260200190815260200160002060008d8d86818110611f9c57611f9b61638e565b5b9050602002016020810190611fb1919061591c565b73ffffffffffffffffffffffffffffffffffffffff1673ffffffffffffffffffffffffffffffffffffffff168152602001908152602001600020600089898681811061200057611fff61638e565b5b90506020020135815260200190815260200160002082908060018154018082558091505060019003906000526020600020906003020160009091909190915060008201518160000155602082015181600101556040820151816002015550508787848181106120725761207161638e565b5b905060200201358c8c8581811061208c5761208b61638e565b5b90506020020160208101906120a1919061591c565b73ffffffffffffffffffffffffffffffffffffffff163373ffffffffffffffffffffffffffffffffffffffff167fc1422af7e43d777469d796ab303d8d25d600d97d1ba738791ab5ac48cf123f938989888181106121025761210161638e565b5b9050602002013585604051612118929190616936565b60405180910390a45050808061212d9061664c565b91505061199f565b50505050505050505050565b61214e6000801b336129df565b61218d576040517f08c379a0000000000000000000000000000000000000000000000000000000008152600401612184906161f6565b60405180910390fd5b612195614790565b565b7f000000000000000000000000000000000000000000000000000000000000000073ffffffffffffffffffffffffffffffffffffffff163073ffffffffffffffffffffffffffffffffffffffff1603612225576040517f08c379a000000000000000000000000000000000000000000000000000000000815260040161221c90616a63565b60405180910390fd5b7f000000000000000000000000000000000000000000000000000000000000000073ffffffffffffffffffffffffffffffffffffffff166122646145ba565b73ffffffffffffffffffffffffffffffffffffffff16146122ba576040517f08c379a00000000000000000000000000000000000000000000000000000000081526004016122b190616af5565b60405180910390fd5b6122c382614611565b6122cf82826001614622565b5050565b60007f000000000000000000000000000000000000000000000000000000000000000073ffffffffffffffffffffffffffffffffffffffff163073ffffffffffffffffffffffffffffffffffffffff1614612363576040517f08c379a000000000000000000000000000000000000000000000000000000000815260040161235a90616c19565b60405180910390fd5b7f360894a13ba1a3210667c828492db98dca3e2076cc3735a920a3ca505d382bbc60001b905090565b6123996000801b336129df565b6123d8576040517f08c379a00000000000000000000000000000000000000000000000000000000081526004016123cf906161f6565b60405180910390fd5b60005b8282905081101561254f5760008383838181106123fb576123fa61638e565b5b9050602002016020810190612410919061591c565b905061013360008273ffffffffffffffffffffffffffffffffffffffff1673ffffffffffffffffffffffffffffffffffffffff16815260200190815260200160002060009054906101000a900460ff1661249f576040517f08c379a000000000000000000000000000000000000000000000000000000000815260040161249690616cab565b60405180910390fd5b600061013360008373ffffffffffffffffffffffffffffffffffffffff1673ffffffffffffffffffffffffffffffffffffffff16815260200190815260200160002060006101000a81548160ff0219169083151502179055508073ffffffffffffffffffffffffffffffffffffffff167f24a12366c02e13fe4a9e03d86a8952e85bb74a456c16e4a18b6d8295700b74bb60405160405180910390a25080806125479061664c565b9150506123db565b505050565b6000603360009054906101000a900460ff16905090565b6125786000801b336129df565b6125b7576040517f08c379a00000000000000000000000000000000000000000000000000000000081526004016125ae906161f6565b60405180910390fd5b806101318190555050565b61013260009054906101000a900460ff1681565b60008060019054906101000a900460ff161590508080156126075750600160008054906101000a900460ff1660ff16105b806126345750612616306147f3565b1580156126335750600160008054906101000a900460ff1660ff16145b5b612673576040517f08c379a000000000000000000000000000000000000000000000000000000000815260040161266a90616d3d565b60405180910390fd5b60016000806101000a81548160ff021916908360ff16021790555080156126b0576001600060016101000a81548160ff0219169083151502179055505b8361012f60006101000a81548173ffffffffffffffffffffffffffffffffffffffff021916908373ffffffffffffffffffffffffffffffffffffffff1602179055508261013081905550816101318190555061270a614816565b612712614867565b61271f6000801b336143ef565b80156127785760008060016101000a81548160ff0219169083151502179055507f7f26b83ff96e1f2b6a682f133852f6798a09c465da95921460cefb3847402498600160405161276f9190616d98565b60405180910390a15b50505050565b6101305481565b6127926000801b336129df565b6127d1576040517f08c379a00000000000000000000000000000000000000000000000000000000081526004016127c8906161f6565b60405180910390fd5b60005b8282905081101561297d5760008383838181106127f4576127f361638e565b5b9050602002016020810190612809919061591c565b9050600073ffffffffffffffffffffffffffffffffffffffff168173ffffffffffffffffffffffffffffffffffffffff160361287a576040517f08c379a000000000000000000000000000000000000000000000000000000000815260040161287190616e25565b60405180910390fd5b61013360008273ffffffffffffffffffffffffffffffffffffffff1673ffffffffffffffffffffffffffffffffffffffff16815260200190815260200160002060009054906101000a900460ff1661296957600161013360008373ffffffffffffffffffffffffffffffffffffffff1673ffffffffffffffffffffffffffffffffffffffff16815260200190815260200160002060006101000a81548160ff0219169083151502179055508073ffffffffffffffffffffffffffffffffffffffff167fa226db3f664042183ee0281230bba26cbf7b5057e50aee7f25a175ff45ce4d7f60405160405180910390a25b5080806129759061664c565b9150506127d4565b505050565b61298f6000801b336129df565b6129ce576040517f08c379a00000000000000000000000000000000000000000000000000000000081526004016129c5906161f6565b60405180910390fd5b6129d66148b8565b565b6101345481565b60006097600084815260200190815260200160002060000160008373ffffffffffffffffffffffffffffffffffffffff1673ffffffffffffffffffffffffffffffffffffffff16815260200190815260200160002060009054906101000a900460ff16905092915050565b61012e6020528360005260406000206020528260005260406000206020528160005260406000208181548110612a7f57600080fd5b90600052602060002090600302016000935093505050508060000154908060010154908060020154905083565b612ab96000801b336129df565b612af8576040517f08c379a0000000000000000000000000000000000000000000000000000000008152600401612aef906161f6565b60405180910390fd5b806101308190555050565b8361013360008273ffffffffffffffffffffffffffffffffffffffff1673ffffffffffffffffffffffffffffffffffffffff16815260200190815260200160002060009054906101000a900460ff16612b91576040517f08c379a0000000000000000000000000000000000000000000000000000000008152600401612b8890616706565b60405180910390fd5b612b99614391565b612ba161491b565b600061012e60003373ffffffffffffffffffffffffffffffffffffffff1673ffffffffffffffffffffffffffffffffffffffff16815260200190815260200160002060008773ffffffffffffffffffffffffffffffffffffffff1673ffffffffffffffffffffffffffffffffffffffff16815260200190815260200160002060008681526020019081526020016000208381548110612c4357612c4261638e565b5b906000526020600020906003020160000154905060008111612c9a576040517f08c379a0000000000000000000000000000000000000000000000000000000008152600401612c919061642f565b60405180910390fd5b60008460ff1603612d6757808673ffffffffffffffffffffffffffffffffffffffff1662fdd58e30886040518363ffffffff1660e01b8152600401612ce0929190616225565b602060405180830381865afa158015612cfd573d6000803e3d6000fd5b505050506040513d601f19601f82011682018060405250810190612d219190616464565b1015612d62576040517f08c379a0000000000000000000000000000000000000000000000000000000008152600401612d5990616529565b60405180910390fd5b612e4f565b3073ffffffffffffffffffffffffffffffffffffffff168673ffffffffffffffffffffffffffffffffffffffff16636352211e876040518263ffffffff1660e01b8152600401612db79190615b95565b602060405180830381865afa158015612dd4573d6000803e3d6000fd5b505050506040513d601f19601f82011682018060405250810190612df8919061655e565b73ffffffffffffffffffffffffffffffffffffffff1614612e4e576040517f08c379a0000000000000000000000000000000000000000000000000000000008152600401612e45906165fd565b60405180910390fd5b5b612e5b33878786613efa565b61012e60003373ffffffffffffffffffffffffffffffffffffffff1673ffffffffffffffffffffffffffffffffffffffff16815260200190815260200160002060008873ffffffffffffffffffffffffffffffffffffffff1673ffffffffffffffffffffffffffffffffffffffff16815260200190815260200160002060008781526020019081526020016000208481548110612efb57612efa61638e565b5b9060005260206000209060030201600101819055504261012e60003373ffffffffffffffffffffffffffffffffffffffff1673ffffffffffffffffffffffffffffffffffffffff16815260200190815260200160002060008873ffffffffffffffffffffffffffffffffffffffff1673ffffffffffffffffffffffffffffffffffffffff16815260200190815260200160002060008781526020019081526020016000208481548110612fb157612fb061638e565b5b906000526020600020906003020160020181905550848673ffffffffffffffffffffffffffffffffffffffff163373ffffffffffffffffffffffffffffffffffffffff167ff1a945c8cc4403d02673e60cf2632609ce231f8899e2c25ef96bcb8df46a824284874260405161302893929190615c17565b60405180910390a45061303961496c565b5050505050565b6000801b81565b6101336020528060005260406000206000915054906101000a900460ff1681565b8461013360008273ffffffffffffffffffffffffffffffffffffffff1673ffffffffffffffffffffffffffffffffffffffff16815260200190815260200160002060009054906101000a900460ff166130f6576040517f08c379a00000000000000000000000000000000000000000000000000000000081526004016130ed90616706565b60405180910390fd5b6130fe614391565b61310661491b565b8361012e60003373ffffffffffffffffffffffffffffffffffffffff1673ffffffffffffffffffffffffffffffffffffffff16815260200190815260200160002060008873ffffffffffffffffffffffffffffffffffffffff1673ffffffffffffffffffffffffffffffffffffffff168152602001908152602001600020600087815260200190815260200160002084815481106131a7576131a661638e565b5b90600052602060002090600302016000015410156131fa576040517f08c379a00000000000000000000000000000000000000000000000000000000081526004016131f190616eb7565b60405180910390fd5b60018260ff16036132f1573073ffffffffffffffffffffffffffffffffffffffff168673ffffffffffffffffffffffffffffffffffffffff16636352211e876040518263ffffffff1660e01b81526004016132559190615b95565b602060405180830381865afa158015613272573d6000803e3d6000fd5b505050506040513d601f19601f82011682018060405250810190613296919061655e565b73ffffffffffffffffffffffffffffffffffffffff16146132ec576040517f08c379a00000000000000000000000000000000000000000000000000000000081526004016132e3906165fd565b60405180910390fd5b6133af565b838673ffffffffffffffffffffffffffffffffffffffff1662fdd58e30886040518363ffffffff1660e01b815260040161332c929190616225565b602060405180830381865afa158015613349573d6000803e3d6000fd5b505050506040513d601f19601f8201168201806040525081019061336d9190616464565b10156133ae576040517f08c379a00000000000000000000000000000000000000000000000000000000081526004016133a590616529565b60405180910390fd5b5b61013260009054906101000a900460ff16156133d2576133d0868685614977565b505b8361012e60003373ffffffffffffffffffffffffffffffffffffffff1673ffffffffffffffffffffffffffffffffffffffff16815260200190815260200160002060008873ffffffffffffffffffffffffffffffffffffffff1673ffffffffffffffffffffffffffffffffffffffff168152602001908152602001600020600087815260200190815260200160002084815481106134735761347261638e565b5b906000526020600020906003020160000160008282546134939190616ed7565b9250508190555060008260ff160361351b578573ffffffffffffffffffffffffffffffffffffffff1663f242432a303388886040518563ffffffff1660e01b81526004016134e494939291906168de565b600060405180830381600087803b1580156134fe57600080fd5b505af1158015613512573d6000803e3d6000fd5b5050505061358b565b8573ffffffffffffffffffffffffffffffffffffffff166323b872dd3033886040518463ffffffff1660e01b8152600401613558939291906167b8565b600060405180830381600087803b15801561357257600080fd5b505af1158015613586573d6000803e3d6000fd5b505050505b848673ffffffffffffffffffffffffffffffffffffffff163373ffffffffffffffffffffffffffffffffffffffff167f3164d2896e24bd978cf0b2cc29f4a8406b7051a0a97389415f75b1032e85433887876040516135eb929190616936565b60405180910390a46135fb61496c565b505050505050565b61360b614391565b61361361491b565b878790508a8a905014801561362d5750858590508a8a9050145b801561363e5750838390508a8a9050145b801561364f5750818190508a8a9050145b61368e576040517f08c379a00000000000000000000000000000000000000000000000000000000081526004016136859061636e565b60405180910390fd5b60008a8a9050905060005b81811015613eae578585828181106136b4576136b361638e565b5b9050602002013561012e60003373ffffffffffffffffffffffffffffffffffffffff1673ffffffffffffffffffffffffffffffffffffffff16815260200190815260200160002060008e8e858181106137105761370f61638e565b5b9050602002016020810190613725919061591c565b73ffffffffffffffffffffffffffffffffffffffff1673ffffffffffffffffffffffffffffffffffffffff16815260200190815260200160002060008a8a858181106137745761377361638e565b5b90506020020135815260200190815260200160002085858481811061379c5761379b61638e565b5b90506020020135815481106137b4576137b361638e565b5b9060005260206000209060030201600001541015613807576040517f08c379a00000000000000000000000000000000000000000000000000000000081526004016137fe90616eb7565b60405180910390fd5b60008a8a8381811061381c5761381b61638e565b5b90506020020135036139435785858281811061383b5761383a61638e565b5b905060200201358c8c838181106138555761385461638e565b5b905060200201602081019061386a919061591c565b73ffffffffffffffffffffffffffffffffffffffff1662fdd58e308b8b868181106138985761389761638e565b5b905060200201356040518363ffffffff1660e01b81526004016138bc929190616225565b602060405180830381865afa1580156138d9573d6000803e3d6000fd5b505050506040513d601f19601f820116820180604052508101906138fd9190616464565b101561393e576040517f08c379a000000000000000000000000000000000000000000000000000000000815260040161393590616529565b60405180910390fd5b613a6b565b3073ffffffffffffffffffffffffffffffffffffffff168c8c8381811061396d5761396c61638e565b5b9050602002016020810190613982919061591c565b73ffffffffffffffffffffffffffffffffffffffff16636352211e8a8a858181106139b0576139af61638e565b5b905060200201356040518263ffffffff1660e01b81526004016139d39190615b95565b602060405180830381865afa1580156139f0573d6000803e3d6000fd5b505050506040513d601f19601f82011682018060405250810190613a14919061655e565b73ffffffffffffffffffffffffffffffffffffffff1614613a6a576040517f08c379a0000000000000000000000000000000000000000000000000000000008152600401613a61906165fd565b60405180910390fd5b5b61013260009054906101000a900460ff1615613ae757613ae58c8c83818110613a9757613a9661638e565b5b9050602002016020810190613aac919061591c565b898984818110613abf57613abe61638e565b5b90506020020135868685818110613ad957613ad861638e565b5b90506020020135614977565b505b858582818110613afa57613af961638e565b5b9050602002013561012e60003373ffffffffffffffffffffffffffffffffffffffff1673ffffffffffffffffffffffffffffffffffffffff16815260200190815260200160002060008e8e85818110613b5657613b5561638e565b5b9050602002016020810190613b6b919061591c565b73ffffffffffffffffffffffffffffffffffffffff1673ffffffffffffffffffffffffffffffffffffffff16815260200190815260200160002060008a8a85818110613bba57613bb961638e565b5b905060200201358152602001908152602001600020858584818110613be257613be161638e565b5b9050602002013581548110613bfa57613bf961638e565b5b90600052602060002090600302016000016000828254613c1a9190616ed7565b9250508190555060008a8a83818110613c3657613c3561638e565b5b9050602002013503613d11578b8b82818110613c5557613c5461638e565b5b9050602002016020810190613c6a919061591c565b73ffffffffffffffffffffffffffffffffffffffff1663f242432a30338b8b86818110613c9a57613c9961638e565b5b905060200201358a8a87818110613cb457613cb361638e565b5b905060200201356040518563ffffffff1660e01b8152600401613cda94939291906168de565b600060405180830381600087803b158015613cf457600080fd5b505af1158015613d08573d6000803e3d6000fd5b50505050613dc1565b8b8b82818110613d2457613d2361638e565b5b9050602002016020810190613d39919061591c565b73ffffffffffffffffffffffffffffffffffffffff166323b872dd30338b8b86818110613d6957613d6861638e565b5b905060200201356040518463ffffffff1660e01b8152600401613d8e939291906167b8565b600060405180830381600087803b158015613da857600080fd5b505af1158015613dbc573d6000803e3d6000fd5b505050505b878782818110613dd457613dd361638e565b5b905060200201358c8c83818110613dee57613ded61638e565b5b9050602002016020810190613e03919061591c565b73ffffffffffffffffffffffffffffffffffffffff163373ffffffffffffffffffffffffffffffffffffffff167f3164d2896e24bd978cf0b2cc29f4a8406b7051a0a97389415f75b1032e854338898986818110613e6457613e6361638e565b5b90506020020135888887818110613e7e57613e7d61638e565b5b90506020020135604051613e93929190616936565b60405180910390a48080613ea69061664c565b915050613699565b5050613eb861496c565b50505050505050505050565b600063bc197c8160e01b905095945050505050565b613ee2826116d6565b613eeb816143db565b613ef583836144d8565b505050565b60008161012e60008773ffffffffffffffffffffffffffffffffffffffff1673ffffffffffffffffffffffffffffffffffffffff16815260200190815260200160002060008673ffffffffffffffffffffffffffffffffffffffff1673ffffffffffffffffffffffffffffffffffffffff16815260200190815260200160002060008581526020019081526020016000208054905011613fcf576040517f08c379a0000000000000000000000000000000000000000000000000000000008152600401613fc690616f57565b60405180910390fd5b600061012e60008773ffffffffffffffffffffffffffffffffffffffff1673ffffffffffffffffffffffffffffffffffffffff16815260200190815260200160002060008673ffffffffffffffffffffffffffffffffffffffff1673ffffffffffffffffffffffffffffffffffffffff168152602001908152602001600020600085815260200190815260200160002083815481106140715761407061638e565b5b906000526020600020906003020160000154111561425d5760006101315461012e60008873ffffffffffffffffffffffffffffffffffffffff1673ffffffffffffffffffffffffffffffffffffffff16815260200190815260200160002060008773ffffffffffffffffffffffffffffffffffffffff1673ffffffffffffffffffffffffffffffffffffffff1681526020019081526020016000206000868152602001908152602001600020848154811061412f5761412e61638e565b5b90600052602060002090600302016002015461414b9190616f77565b905080421161418f576040517f08c379a00000000000000000000000000000000000000000000000000000000081526004016141869061703f565b60405180910390fd5b600061012e60008873ffffffffffffffffffffffffffffffffffffffff1673ffffffffffffffffffffffffffffffffffffffff16815260200190815260200160002060008773ffffffffffffffffffffffffffffffffffffffff1673ffffffffffffffffffffffffffffffffffffffff168152602001908152602001600020600086815260200190815260200160002084815481106142315761423061638e565b5b90600052602060002090600302016000015461013054614251919061705f565b90508092505050614262565b600090505b949350505050565b6142776000801b336129df565b6142b6576040517f08c379a00000000000000000000000000000000000000000000000000000000081526004016142ad906161f6565b60405180910390fd5b8061013260006101000a81548160ff02191690831515021790555050565b6101315481565b600063f23a6e6160e01b905095945050505050565b61012f60009054906101000a900473ffffffffffffffffffffffffffffffffffffffff1681565b60007f4e2312e0000000000000000000000000000000000000000000000000000000007bffffffffffffffffffffffffffffffffffffffffffffffffffffffff1916827bffffffffffffffffffffffffffffffffffffffffffffffffffffffff1916148061438a575061438982614dd9565b5b9050919050565b614399612554565b156143d9576040517f08c379a00000000000000000000000000000000000000000000000000000000081526004016143d090617105565b60405180910390fd5b565b6143ec816143e76144d0565b614e43565b50565b6143f982826129df565b6144cc5760016097600084815260200190815260200160002060000160008373ffffffffffffffffffffffffffffffffffffffff1673ffffffffffffffffffffffffffffffffffffffff16815260200190815260200160002060006101000a81548160ff0219169083151502179055506144716144d0565b73ffffffffffffffffffffffffffffffffffffffff168173ffffffffffffffffffffffffffffffffffffffff16837f2f8788117e7eff1d82e926ec794901d17c78024a50270940304540a733656f0d60405160405180910390a45b5050565b600033905090565b6144e282826129df565b156145b65760006097600084815260200190815260200160002060000160008373ffffffffffffffffffffffffffffffffffffffff1673ffffffffffffffffffffffffffffffffffffffff16815260200190815260200160002060006101000a81548160ff02191690831515021790555061455b6144d0565b73ffffffffffffffffffffffffffffffffffffffff168173ffffffffffffffffffffffffffffffffffffffff16837ff6391f5c32d9c69d2a47ea670b442974b53935d1edc7fd64eb21e047a839171b60405160405180910390a45b5050565b60006145e87f360894a13ba1a3210667c828492db98dca3e2076cc3735a920a3ca505d382bbc60001b614ec8565b60000160009054906101000a900473ffffffffffffffffffffffffffffffffffffffff16905090565b6000801b61461e816143db565b5050565b61464e7f4910fdfa16fed3260ed0e7147f7cc6da11a60208b5b9406d12a635614ffd914360001b614ed2565b60000160009054906101000a900460ff16156146725761466d83614edc565b61478b565b8273ffffffffffffffffffffffffffffffffffffffff166352d1902d6040518163ffffffff1660e01b8152600401602060405180830381865afa9250505080156146da57506040513d601f19601f820116820180604052508101906146d7919061713a565b60015b614719576040517f08c379a0000000000000000000000000000000000000000000000000000000008152600401614710906171d9565b60405180910390fd5b7f360894a13ba1a3210667c828492db98dca3e2076cc3735a920a3ca505d382bbc60001b811461477e576040517f08c379a00000000000000000000000000000000000000000000000000000000081526004016147759061726b565b60405180910390fd5b5061478a838383614f95565b5b505050565b614798614fc1565b6000603360006101000a81548160ff0219169083151502179055507f5db9ee0a495bf2e6ff9c91a7834c1ba4fdd244a5e8aa4e537bd38aeae4b073aa6147dc6144d0565b6040516147e9919061728b565b60405180910390a1565b6000808273ffffffffffffffffffffffffffffffffffffffff163b119050919050565b600060019054906101000a900460ff16614865576040517f08c379a000000000000000000000000000000000000000000000000000000000815260040161485c90617318565b60405180910390fd5b565b600060019054906101000a900460ff166148b6576040517f08c379a00000000000000000000000000000000000000000000000000000000081526004016148ad90617318565b60405180910390fd5b565b6148c0614391565b6001603360006101000a81548160ff0219169083151502179055507f62e78cea01bee320cd4e420270b5ea74000d11b0c9f74754ebdbfc544b05a2586149046144d0565b604051614911919061728b565b60405180910390a1565b600261012d5403614961576040517f08c379a000000000000000000000000000000000000000000000000000000000815260040161495890617384565b60405180910390fd5b600261012d81905550565b600161012d81905550565b6000614981614391565b8361013360008273ffffffffffffffffffffffffffffffffffffffff1673ffffffffffffffffffffffffffffffffffffffff16815260200190815260200160002060009054906101000a900460ff16614a0f576040517f08c379a0000000000000000000000000000000000000000000000000000000008152600401614a0690616706565b60405180910390fd5b6000614a1d33878787613efa565b905060008111614a62576040517f08c379a0000000000000000000000000000000000000000000000000000000008152600401614a5990617416565b60405180910390fd5b8061012f60009054906101000a900473ffffffffffffffffffffffffffffffffffffffff1673ffffffffffffffffffffffffffffffffffffffff166370a08231306040518263ffffffff1660e01b8152600401614abf919061728b565b602060405180830381865afa158015614adc573d6000803e3d6000fd5b505050506040513d601f19601f82011682018060405250810190614b009190616464565b1015614b41576040517f08c379a0000000000000000000000000000000000000000000000000000000008152600401614b38906174a8565b60405180910390fd5b4261012e60003373ffffffffffffffffffffffffffffffffffffffff1673ffffffffffffffffffffffffffffffffffffffff16815260200190815260200160002060008873ffffffffffffffffffffffffffffffffffffffff1673ffffffffffffffffffffffffffffffffffffffff16815260200190815260200160002060008781526020019081526020016000208581548110614be257614be161638e565b5b906000526020600020906003020160020181905550600080610134541115614c1457614c11826101345461500a565b90505b61012f60009054906101000a900473ffffffffffffffffffffffffffffffffffffffff1673ffffffffffffffffffffffffffffffffffffffff1663a9059cbb33838561012e60003373ffffffffffffffffffffffffffffffffffffffff1673ffffffffffffffffffffffffffffffffffffffff16815260200190815260200160002060008d73ffffffffffffffffffffffffffffffffffffffff1673ffffffffffffffffffffffffffffffffffffffff16815260200190815260200160002060008c81526020019081526020016000208a81548110614cf657614cf561638e565b5b906000526020600020906003020160010154614d129190616f77565b614d1c9190616ed7565b6040518363ffffffff1660e01b8152600401614d39929190616225565b6020604051808303816000875af1158015614d58573d6000803e3d6000fd5b505050506040513d601f19601f82011682018060405250810190614d7c9190616263565b503373ffffffffffffffffffffffffffffffffffffffff167ffc30cddea38e2bf4d6ea7d3f9ed3b6ad7f176419f4963bd81318067a4aee73fe83604051614dc39190615b95565b60405180910390a2600193505050509392505050565b60007f01ffc9a7000000000000000000000000000000000000000000000000000000007bffffffffffffffffffffffffffffffffffffffffffffffffffffffff1916827bffffffffffffffffffffffffffffffffffffffffffffffffffffffff1916149050919050565b614e4d82826129df565b614ec457614e5a8161502d565b614e688360001c602061505a565b604051602001614e799291906175da565b6040516020818303038152906040526040517f08c379a0000000000000000000000000000000000000000000000000000000008152600401614ebb919061764d565b60405180910390fd5b5050565b6000819050919050565b6000819050919050565b614ee5816147f3565b614f24576040517f08c379a0000000000000000000000000000000000000000000000000000000008152600401614f1b906176e1565b60405180910390fd5b80614f517f360894a13ba1a3210667c828492db98dca3e2076cc3735a920a3ca505d382bbc60001b614ec8565b60000160006101000a81548173ffffffffffffffffffffffffffffffffffffffff021916908373ffffffffffffffffffffffffffffffffffffffff16021790555050565b614f9e83615296565b600082511180614fab5750805b15614fbc57614fba83836152e5565b505b505050565b614fc9612554565b615008576040517f08c379a0000000000000000000000000000000000000000000000000000000008152600401614fff9061774d565b60405180910390fd5b565b60006103e8828461501b919061705f565b615025919061779c565b905092915050565b60606150538273ffffffffffffffffffffffffffffffffffffffff16601460ff1661505a565b9050919050565b60606000600283600261506d919061705f565b6150779190616f77565b67ffffffffffffffff8111156150905761508f61595f565b5b6040519080825280601f01601f1916602001820160405280156150c25781602001600182028036833780820191505090505b5090507f3000000000000000000000000000000000000000000000000000000000000000816000815181106150fa576150f961638e565b5b60200101907effffffffffffffffffffffffffffffffffffffffffffffffffffffffffffff1916908160001a9053507f78000000000000000000000000000000000000000000000000000000000000008160018151811061515e5761515d61638e565b5b60200101907effffffffffffffffffffffffffffffffffffffffffffffffffffffffffffff1916908160001a9053506000600184600261519e919061705f565b6151a89190616f77565b90505b6001811115615248577f3031323334353637383961626364656600000000000000000000000000000000600f8616601081106151ea576151e961638e565b5b1a60f81b8282815181106152015761520061638e565b5b60200101907effffffffffffffffffffffffffffffffffffffffffffffffffffffffffffff1916908160001a905350600485901c945080615241906177cd565b90506151ab565b506000841461528c576040517f08c379a000000000000000000000000000000000000000000000000000000000815260040161528390617842565b60405180910390fd5b8091505092915050565b61529f81614edc565b8073ffffffffffffffffffffffffffffffffffffffff167fbc7cd75a20ee27fd9adebab32041f755214dbc6bffa90cc0225b39da2e5c2d3b60405160405180910390a250565b60606152f0836147f3565b61532f576040517f08c379a0000000000000000000000000000000000000000000000000000000008152600401615326906178d4565b60405180910390fd5b6000808473ffffffffffffffffffffffffffffffffffffffff1684604051615357919061793b565b600060405180830381855af49150503d8060008114615392576040519150601f19603f3d011682016040523d82523d6000602084013e615397565b606091505b50915091506153bf8282604051806060016040528060278152602001617953602791396153c9565b9250505092915050565b606083156153d9578290506153e4565b6153e383836153eb565b5b9392505050565b6000825111156153fe5781518083602001fd5b806040517f08c379a0000000000000000000000000000000000000000000000000000000008152600401615432919061764d565b60405180910390fd5b6000604051905090565b600080fd5b600080fd5b6000819050919050565b6154628161544f565b811461546d57600080fd5b50565b60008135905061547f81615459565b92915050565b60006020828403121561549b5761549a615445565b5b60006154a984828501615470565b91505092915050565b60007fffffffff0000000000000000000000000000000000000000000000000000000082169050919050565b6154e7816154b2565b81146154f257600080fd5b50565b600081359050615504816154de565b92915050565b6000602082840312156155205761551f615445565b5b600061552e848285016154f5565b91505092915050565b60008115159050919050565b61554c81615537565b82525050565b60006020820190506155676000830184615543565b92915050565b600073ffffffffffffffffffffffffffffffffffffffff82169050919050565b60006155988261556d565b9050919050565b6155a88161558d565b81146155b357600080fd5b50565b6000813590506155c58161559f565b92915050565b600080604083850312156155e2576155e1615445565b5b60006155f0858286016155b6565b925050602061560185828601615470565b9150509250929050565b600080fd5b600080fd5b600080fd5b60008083601f8401126156305761562f61560b565b5b8235905067ffffffffffffffff81111561564d5761564c615610565b5b60208301915083602082028301111561566957615668615615565b5b9250929050565b60008083601f8401126156865761568561560b565b5b8235905067ffffffffffffffff8111156156a3576156a2615610565b5b6020830191508360208202830111156156bf576156be615615565b5b9250929050565b6000806000806000806000806080898b0312156156e6576156e5615445565b5b600089013567ffffffffffffffff8111156157045761570361544a565b5b6157108b828c0161561a565b9850985050602089013567ffffffffffffffff8111156157335761573261544a565b5b61573f8b828c01615670565b9650965050604089013567ffffffffffffffff8111156157625761576161544a565b5b61576e8b828c01615670565b9450945050606089013567ffffffffffffffff8111156157915761579061544a565b5b61579d8b828c01615670565b92509250509295985092959890939650565b600060ff82169050919050565b6157c5816157af565b81146157d057600080fd5b50565b6000813590506157e2816157bc565b92915050565b6000806000806080858703121561580257615801615445565b5b6000615810878288016155b6565b945050602061582187828801615470565b935050604061583287828801615470565b9250506060615843878288016157d3565b91505092959194509250565b6000819050919050565b6158628161584f565b811461586d57600080fd5b50565b60008135905061587f81615859565b92915050565b60006020828403121561589b5761589a615445565b5b60006158a984828501615870565b91505092915050565b6158bb8161584f565b82525050565b60006020820190506158d660008301846158b2565b92915050565b600080604083850312156158f3576158f2615445565b5b600061590185828601615870565b9250506020615912858286016155b6565b9150509250929050565b60006020828403121561593257615931615445565b5b6000615940848285016155b6565b91505092915050565b600080fd5b6000601f19601f8301169050919050565b7f4e487b7100000000000000000000000000000000000000000000000000000000600052604160045260246000fd5b6159978261594e565b810181811067ffffffffffffffff821117156159b6576159b561595f565b5b80604052505050565b60006159c961543b565b90506159d5828261598e565b919050565b600067ffffffffffffffff8211156159f5576159f461595f565b5b6159fe8261594e565b9050602081019050919050565b82818337600083830152505050565b6000615a2d615a28846159da565b6159bf565b905082815260208101848484011115615a4957615a48615949565b5b615a54848285615a0b565b509392505050565b600082601f830112615a7157615a7061560b565b5b8135615a81848260208601615a1a565b91505092915050565b60008060408385031215615aa157615aa0615445565b5b6000615aaf858286016155b6565b925050602083013567ffffffffffffffff811115615ad057615acf61544a565b5b615adc85828601615a5c565b9150509250929050565b60008060208385031215615afd57615afc615445565b5b600083013567ffffffffffffffff811115615b1b57615b1a61544a565b5b615b278582860161561a565b92509250509250929050565b600080600060608486031215615b4c57615b4b615445565b5b6000615b5a868287016155b6565b9350506020615b6b86828701615470565b9250506040615b7c86828701615470565b9150509250925092565b615b8f8161544f565b82525050565b6000602082019050615baa6000830184615b86565b92915050565b60008060008060808587031215615bca57615bc9615445565b5b6000615bd8878288016155b6565b9450506020615be9878288016155b6565b9350506040615bfa87828801615470565b9250506060615c0b87828801615470565b91505092959194509250565b6000606082019050615c2c6000830186615b86565b615c396020830185615b86565b615c466040830184615b86565b949350505050565b60008060008060808587031215615c6857615c67615445565b5b6000615c76878288016155b6565b9450506020615c8787828801615470565b9350506040615c98878288016157d3565b9250506060615ca987828801615470565b91505092959194509250565b600080600080600060a08688031215615cd157615cd0615445565b5b6000615cdf888289016155b6565b9550506020615cf088828901615470565b9450506040615d0188828901615470565b9350506060615d1288828901615470565b9250506080615d23888289016157d3565b9150509295509295909350565b60008060008060008060008060008060a08b8d031215615d5357615d52615445565b5b60008b013567ffffffffffffffff811115615d7157615d7061544a565b5b615d7d8d828e0161561a565b9a509a505060208b013567ffffffffffffffff811115615da057615d9f61544a565b5b615dac8d828e01615670565b985098505060408b013567ffffffffffffffff811115615dcf57615dce61544a565b5b615ddb8d828e01615670565b965096505060608b013567ffffffffffffffff811115615dfe57615dfd61544a565b5b615e0a8d828e01615670565b945094505060808b013567ffffffffffffffff811115615e2d57615e2c61544a565b5b615e398d828e01615670565b92509250509295989b9194979a5092959850565b600067ffffffffffffffff821115615e6857615e6761595f565b5b602082029050602081019050919050565b6000615e8c615e8784615e4d565b6159bf565b90508083825260208201905060208402830185811115615eaf57615eae615615565b5b835b81811015615ed85780615ec48882615470565b845260208401935050602081019050615eb1565b5050509392505050565b600082601f830112615ef757615ef661560b565b5b8135615f07848260208601615e79565b91505092915050565b600080600080600060a08688031215615f2c57615f2b615445565b5b6000615f3a888289016155b6565b9550506020615f4b888289016155b6565b945050604086013567ffffffffffffffff811115615f6c57615f6b61544a565b5b615f7888828901615ee2565b935050606086013567ffffffffffffffff811115615f9957615f9861544a565b5b615fa588828901615ee2565b925050608086013567ffffffffffffffff811115615fc657615fc561544a565b5b615fd288828901615a5c565b9150509295509295909350565b615fe8816154b2565b82525050565b60006020820190506160036000830184615fdf565b92915050565b61601281615537565b811461601d57600080fd5b50565b60008135905061602f81616009565b92915050565b60006020828403121561604b5761604a615445565b5b600061605984828501616020565b91505092915050565b600080600080600060a0868803121561607e5761607d615445565b5b600061608c888289016155b6565b955050602061609d888289016155b6565b94505060406160ae88828901615470565b93505060606160bf88828901615470565b925050608086013567ffffffffffffffff8111156160e0576160df61544a565b5b6160ec88828901615a5c565b9150509295509295909350565b6000819050919050565b600061611e6161196161148461556d565b6160f9565b61556d565b9050919050565b600061613082616103565b9050919050565b600061614282616125565b9050919050565b61615281616137565b82525050565b600060208201905061616d6000830184616149565b92915050565b600082825260208201905092915050565b7f57686974656c6973743a204f6e6c792061646d696e2063616e2063616c6c207460008201527f686973206d6574686f6400000000000000000000000000000000000000000000602082015250565b60006161e0602a83616173565b91506161eb82616184565b604082019050919050565b6000602082019050818103600083015261620f816161d3565b9050919050565b61621f8161558d565b82525050565b600060408201905061623a6000830185616216565b6162476020830184615b86565b9392505050565b60008151905061625d81616009565b92915050565b60006020828403121561627957616278615445565b5b60006162878482850161624e565b91505092915050565b7f546f6b656e207472616e73666572206661696c65642100000000000000000000600082015250565b60006162c6601683616173565b91506162d182616290565b602082019050919050565b600060208201905081810360008301526162f5816162b9565b9050919050565b7f546f6b656e5374616b696e673a20696e707574206172726179206c656e67746860008201527f20697320696e76616c6964000000000000000000000000000000000000000000602082015250565b6000616358602b83616173565b9150616363826162fc565b604082019050919050565b600060208201905081810360008301526163878161634b565b9050919050565b7f4e487b7100000000000000000000000000000000000000000000000000000000600052603260045260246000fd5b7f546f6b656e5374616b696e673a205374616b696e672044617461206e6f74206660008201527f6f756e6400000000000000000000000000000000000000000000000000000000602082015250565b6000616419602483616173565b9150616424826163bd565b604082019050919050565b600060208201905081810360008301526164488161640c565b9050919050565b60008151905061645e81615459565b92915050565b60006020828403121561647a57616479615445565b5b60006164888482850161644f565b91505092915050565b7f546f6b656e5374616b696e673a20436f6e7472616374206d757374206861766560008201527f2073756666696369656e74204552433131353520746f6b656e2062616c616e6360208201527f6500000000000000000000000000000000000000000000000000000000000000604082015250565b6000616513604183616173565b915061651e82616491565b606082019050919050565b6000602082019050818103600083015261654281616506565b9050919050565b6000815190506165588161559f565b92915050565b60006020828403121561657457616573615445565b5b600061658284828501616549565b91505092915050565b7f546f6b656e5374616b696e673a20436f6e7472616374206d757374206f776e2060008201527f7468652045524337323120746f6b656e00000000000000000000000000000000602082015250565b60006165e7603083616173565b91506165f28261658b565b604082019050919050565b60006020820190508181036000830152616616816165da565b9050919050565b7f4e487b7100000000000000000000000000000000000000000000000000000000600052601160045260246000fd5b60006166578261544f565b91507fffffffffffffffffffffffffffffffffffffffffffffffffffffffffffffffff82036166895761668861661d565b5b600182019050919050565b7f57686974656c6973743a204e465420636f6e7472616374206973206e6f74207760008201527f686974656c697374656400000000000000000000000000000000000000000000602082015250565b60006166f0602a83616173565b91506166fb82616694565b604082019050919050565b6000602082019050818103600083015261671f816166e3565b9050919050565b7f546f6b656e5374616b696e673a2043616c6c6572206d757374206f776e20746860008201527f65204e465420746f6b656e000000000000000000000000000000000000000000602082015250565b6000616782602b83616173565b915061678d82616726565b604082019050919050565b600060208201905081810360008301526167b181616775565b9050919050565b60006060820190506167cd6000830186616216565b6167da6020830185616216565b6167e76040830184615b86565b949350505050565b7f546f6b656e5374616b696e673a2043616c6c6572206d7573742068617665207360008201527f756666696369656e74204552433131353520746f6b656e2062616c616e636500602082015250565b600061684b603f83616173565b9150616856826167ef565b604082019050919050565b6000602082019050818103600083015261687a8161683e565b9050919050565b600082825260208201905092915050565b7f3078000000000000000000000000000000000000000000000000000000000000600082015250565b60006168c8600283616881565b91506168d382616892565b602082019050919050565b600060a0820190506168f36000830187616216565b6169006020830186616216565b61690d6040830185615b86565b61691a6060830184615b86565b818103608083015261692b816168bb565b905095945050505050565b600060408201905061694b6000830185615b86565b6169586020830184615b86565b9392505050565b7f416363657373436f6e74726f6c3a2063616e206f6e6c792072656e6f756e636560008201527f20726f6c657320666f722073656c660000000000000000000000000000000000602082015250565b60006169bb602f83616173565b91506169c68261695f565b604082019050919050565b600060208201905081810360008301526169ea816169ae565b9050919050565b7f46756e6374696f6e206d7573742062652063616c6c6564207468726f7567682060008201527f64656c656761746563616c6c0000000000000000000000000000000000000000602082015250565b6000616a4d602c83616173565b9150616a58826169f1565b604082019050919050565b60006020820190508181036000830152616a7c81616a40565b9050919050565b7f46756e6374696f6e206d7573742062652063616c6c6564207468726f7567682060008201527f6163746976652070726f78790000000000000000000000000000000000000000602082015250565b6000616adf602c83616173565b9150616aea82616a83565b604082019050919050565b60006020820190508181036000830152616b0e81616ad2565b9050919050565b7f546f6b656e5374616b696e673a2043616c6c6572206d757374206f776e20746860008201527f652045524337323120746f6b656e000000000000000000000000000000000000602082015250565b6000616b71602e83616173565b9150616b7c82616b15565b604082019050919050565b60006020820190508181036000830152616ba081616b64565b9050919050565b7f555550535570677261646561626c653a206d757374206e6f742062652063616c60008201527f6c6564207468726f7567682064656c656761746563616c6c0000000000000000602082015250565b6000616c03603883616173565b9150616c0e82616ba7565b604082019050919050565b60006020820190508181036000830152616c3281616bf6565b9050919050565b7f57686974656c6973743a204163636f756e74206973206e6f742077686974656c60008201527f6973746564000000000000000000000000000000000000000000000000000000602082015250565b6000616c95602583616173565b9150616ca082616c39565b604082019050919050565b60006020820190508181036000830152616cc481616c88565b9050919050565b7f496e697469616c697a61626c653a20636f6e747261637420697320616c72656160008201527f647920696e697469616c697a6564000000000000000000000000000000000000602082015250565b6000616d27602e83616173565b9150616d3282616ccb565b604082019050919050565b60006020820190508181036000830152616d5681616d1a565b9050919050565b6000819050919050565b6000616d82616d7d616d7884616d5d565b6160f9565b6157af565b9050919050565b616d9281616d67565b82525050565b6000602082019050616dad6000830184616d89565b92915050565b7f57686974656c6973743a2043616e6e6f7420616464207a65726f20616464726560008201527f7373000000000000000000000000000000000000000000000000000000000000602082015250565b6000616e0f602283616173565b9150616e1a82616db3565b604082019050919050565b60006020820190508181036000830152616e3e81616e02565b9050919050565b7f546f6b656e5374616b696e673a20496e73756666696369656e74205374616b6560008201527f64204e465420746f6b656e2062616c616e636500000000000000000000000000602082015250565b6000616ea1603383616173565b9150616eac82616e45565b604082019050919050565b60006020820190508181036000830152616ed081616e94565b9050919050565b6000616ee28261544f565b9150616eed8361544f565b925082821015616f0057616eff61661d565b5b828203905092915050565b7f546f6b656e5374616b696e673a20696e76616c696420696e6465780000000000600082015250565b6000616f41601b83616173565b9150616f4c82616f0b565b602082019050919050565b60006020820190508181036000830152616f7081616f34565b9050919050565b6000616f828261544f565b9150616f8d8361544f565b9250827fffffffffffffffffffffffffffffffffffffffffffffffffffffffffffffffff03821115616fc257616fc161661d565b5b828201905092915050565b7f546f6b656e5374616b696e673a205374616b696e67206475726174696f6e206960008201527f73206e6f7420636f6d706c657465640000000000000000000000000000000000602082015250565b6000617029602f83616173565b915061703482616fcd565b604082019050919050565b600060208201905081810360008301526170588161701c565b9050919050565b600061706a8261544f565b91506170758361544f565b9250817fffffffffffffffffffffffffffffffffffffffffffffffffffffffffffffffff04831182151516156170ae576170ad61661d565b5b828202905092915050565b7f5061757361626c653a2070617573656400000000000000000000000000000000600082015250565b60006170ef601083616173565b91506170fa826170b9565b602082019050919050565b6000602082019050818103600083015261711e816170e2565b9050919050565b60008151905061713481615859565b92915050565b6000602082840312156171505761714f615445565b5b600061715e84828501617125565b91505092915050565b7f45524331393637557067726164653a206e657720696d706c656d656e7461746960008201527f6f6e206973206e6f742055555053000000000000000000000000000000000000602082015250565b60006171c3602e83616173565b91506171ce82617167565b604082019050919050565b600060208201905081810360008301526171f2816171b6565b9050919050565b7f45524331393637557067726164653a20756e737570706f727465642070726f7860008201527f6961626c65555549440000000000000000000000000000000000000000000000602082015250565b6000617255602983616173565b9150617260826171f9565b604082019050919050565b6000602082019050818103600083015261728481617248565b9050919050565b60006020820190506172a06000830184616216565b92915050565b7f496e697469616c697a61626c653a20636f6e7472616374206973206e6f74206960008201527f6e697469616c697a696e67000000000000000000000000000000000000000000602082015250565b6000617302602b83616173565b915061730d826172a6565b604082019050919050565b60006020820190508181036000830152617331816172f5565b9050919050565b7f5265656e7472616e637947756172643a207265656e7472616e742063616c6c00600082015250565b600061736e601f83616173565b915061737982617338565b602082019050919050565b6000602082019050818103600083015261739d81617361565b9050919050565b7f546f6b656e5374616b696e673a204e6f207265776172647320617661696c616260008201527f6c65000000000000000000000000000000000000000000000000000000000000602082015250565b6000617400602283616173565b915061740b826173a4565b604082019050919050565b6000602082019050818103600083015261742f816173f3565b9050919050565b7f546f6b656e5374616b696e673a20496e73756666696369656e7420726577617260008201527f642062616c616e63650000000000000000000000000000000000000000000000602082015250565b6000617492602983616173565b915061749d82617436565b604082019050919050565b600060208201905081810360008301526174c181617485565b9050919050565b600081905092915050565b7f416363657373436f6e74726f6c3a206163636f756e7420000000000000000000600082015250565b60006175096017836174c8565b9150617514826174d3565b601782019050919050565b600081519050919050565b60005b8381101561754857808201518184015260208101905061752d565b83811115617557576000848401525b50505050565b60006175688261751f565b61757281856174c8565b935061758281856020860161752a565b80840191505092915050565b7f206973206d697373696e6720726f6c6520000000000000000000000000000000600082015250565b60006175c46011836174c8565b91506175cf8261758e565b601182019050919050565b60006175e5826174fc565b91506175f1828561755d565b91506175fc826175b7565b9150617608828461755d565b91508190509392505050565b600061761f8261751f565b6176298185616173565b935061763981856020860161752a565b6176428161594e565b840191505092915050565b600060208201905081810360008301526176678184617614565b905092915050565b7f455243313936373a206e657720696d706c656d656e746174696f6e206973206e60008201527f6f74206120636f6e747261637400000000000000000000000000000000000000602082015250565b60006176cb602d83616173565b91506176d68261766f565b604082019050919050565b600060208201905081810360008301526176fa816176be565b9050919050565b7f5061757361626c653a206e6f7420706175736564000000000000000000000000600082015250565b6000617737601483616173565b915061774282617701565b602082019050919050565b600060208201905081810360008301526177668161772a565b9050919050565b7f4e487b7100000000000000000000000000000000000000000000000000000000600052601260045260246000fd5b60006177a78261544f565b91506177b28361544f565b9250826177c2576177c161776d565b5b828204905092915050565b60006177d88261544f565b9150600082036177eb576177ea61661d565b5b600182039050919050565b7f537472696e67733a20686578206c656e67746820696e73756666696369656e74600082015250565b600061782c602083616173565b9150617837826177f6565b602082019050919050565b6000602082019050818103600083015261785b8161781f565b9050919050565b7f416464726573733a2064656c65676174652063616c6c20746f206e6f6e2d636f60008201527f6e74726163740000000000000000000000000000000000000000000000000000602082015250565b60006178be602683616173565b91506178c982617862565b604082019050919050565b600060208201905081810360008301526178ed816178b1565b9050919050565b600081519050919050565b600081905092915050565b6000617915826178f4565b61791f81856178ff565b935061792f81856020860161752a565b80840191505092915050565b6000617947828461790a565b91508190509291505056fe416464726573733a206c6f772d6c6576656c2064656c65676174652063616c6c206661696c6564a2646970667358221220668d721a8140674b0dcbca25261c0bba8585dba10403861eb5dd02f8bb5f461d64736f6c634300080e0033",
  "immutableReferences": {
    "1004": [
      {
        "length": 32,
        "start": 6044
      },
      {
        "length": 32,
        "start": 6186
      },
      {
        "length": 32,
        "start": 8601
      },
      {
        "length": 32,
        "start": 8743
      },
      {
        "length": 32,
        "start": 8919
      }
    ]
  },
  "source": "// SPDX-License-Identifier: MIT\r\npragma solidity ^0.8.0;\r\n\r\nimport \"@openzeppelin/contracts/token/ERC721/ERC721.sol\";\r\nimport \"@openzeppelin/contracts/token/ERC721/IERC721Receiver.sol\";\r\nimport \"@openzeppelin/contracts/token/ERC1155/ERC1155.sol\";\r\nimport \"@openzeppelin/contracts/token/ERC1155/utils/ERC1155Holder.sol\";\r\nimport \"@openzeppelin/contracts/token/ERC20/ERC20.sol\";\r\nimport \"@openzeppelin/contracts-upgradeable/security/PausableUpgradeable.sol\";\r\nimport \"@openzeppelin/contracts-upgradeable/access/AccessControlUpgradeable.sol\";\r\nimport \"@openzeppelin/contracts-upgradeable/proxy/utils/Initializable.sol\";\r\nimport \"@openzeppelin/contracts-upgradeable/proxy/utils/UUPSUpgradeable.sol\";\r\nimport \"@openzeppelin/contracts/security/ReentrancyGuard.sol\";\r\n\r\ncontract StakingNFT is PausableUpgradeable, AccessControlUpgradeable, UUPSUpgradeable, ReentrancyGuard, ERC1155Holder {\r\n  struct StakingInfo {\r\n    uint256 stakedAmount;\r\n    uint256 oldBalance;\r\n    uint256 timeOfLastUpdate;\r\n  }\r\n\r\n  // user => contract=> tokenid => StakingInfo\r\n  mapping(address => mapping(address => mapping(uint256 => StakingInfo[]))) public stakedBalances;\r\n\r\n  // the staking and reward token\r\n  IERC20 public rewardToken;\r\n  // the reward rate in percentage\r\n  uint256 public rewardRate;\r\n  // the reward rate duration\r\n  // so the final reward rate will be re (rewardRate/rewardRateDuration)\r\n  uint256 public rewardRateDuration; //604800\r\n\r\n  // pay Reward in crypto\r\n  bool public payReward;\r\n\r\n  mapping(address => bool) public whitelistContracts;\r\n\r\n  //percetage fee charged on unstaking amount\r\n  uint256 public unstakeFee;\r\n\r\n  /**************************************************/\r\n  /******************** Events **********************/\r\n  /**************************************************/\r\n  event TokensStaked(\r\n    address indexed user,\r\n    address indexed tokenContract,\r\n    uint256 indexed tokenId,\r\n    uint256 amount,\r\n    uint256 index\r\n  );\r\n  event TokensUnstaked(\r\n    address indexed user,\r\n    address indexed tokenContract,\r\n    uint256 indexed tokenId,\r\n    uint256 amount,\r\n    uint256 index\r\n  );\r\n  event TokenRestaked(\r\n    address indexed user,\r\n    address indexed tokenContract,\r\n    uint256 indexed tokenId,\r\n    uint256 amount,\r\n    uint256 index,\r\n    uint256 timestamp\r\n  );\r\n  event RewardsClaimed(address indexed user, uint256 amount);\r\n\r\n  event AddressAdded(address indexed account);\r\n  event AddressRemoved(address indexed account);\r\n\r\n  /**************************************************/\r\n  /****************** Constructor *******************/\r\n  /**************************************************/\r\n  /// @custom:oz-upgrades-unsafe-allow constructor\r\n  constructor() {\r\n    _disableInitializers();\r\n  }\r\n\r\n  function initialize(address _rewardToken, uint256 _rewardRate, uint256 _rewardRateDuration) public initializer {\r\n    rewardToken = IERC20(_rewardToken);\r\n    rewardRate = _rewardRate;\r\n    rewardRateDuration = _rewardRateDuration;\r\n\r\n    __AccessControl_init();\r\n    __UUPSUpgradeable_init();\r\n    _grantRole(DEFAULT_ADMIN_ROLE, msg.sender);\r\n  }\r\n\r\n  /**************************************************/\r\n  /*******************  Modifiers *******************/\r\n  /**************************************************/\r\n  modifier amountGreaterThenZero(uint256 _amount) {\r\n    require(_amount > 0, \"Amount can't be zero\");\r\n    _;\r\n  }\r\n\r\n  modifier onlyWhitelisted(address _stakeTokenContractAddress) {\r\n    require(whitelistContracts[_stakeTokenContractAddress], \"Whitelist: NFT contract is not whitelisted\");\r\n    _;\r\n  }\r\n\r\n  modifier onlyAdmin() {\r\n    require(hasRole(DEFAULT_ADMIN_ROLE, msg.sender), \"Whitelist: Only admin can call this method\");\r\n    _;\r\n  }\r\n\r\n  /**************************************************/\r\n  /************** Internal View Functions *************/\r\n  /**************************************************/\r\n  // helper function\r\n  function _getPortion(uint256 _amount, uint256 _percentage) internal pure returns (uint256) {\r\n    return (_amount * _percentage) / 1000;\r\n  }\r\n\r\n  /**************************************************/\r\n  /*************Owner Calling Functions *************/\r\n  /**************************************************/\r\n\r\n  // set the reward rate\r\n  function setRewardRate(uint256 _rewardRate) external onlyAdmin {\r\n    rewardRate = _rewardRate;\r\n  }\r\n\r\n  // set the reward rate duration\r\n  function setRewardRateDuration(uint256 _rewardRateDuration) external onlyAdmin {\r\n    rewardRateDuration = _rewardRateDuration;\r\n  }\r\n\r\n  // set the payReward\r\n  function setPayReward(bool _payReward) external onlyAdmin {\r\n    payReward = _payReward;\r\n  }\r\n\r\n  // set the unstakeFee\r\n  function setUnstakeFee(uint256 _unstakeFee) external onlyAdmin {\r\n    unstakeFee = _unstakeFee;\r\n  }\r\n\r\n  // transfer token from this account to other if needed\r\n  function transferToken(address _to, uint256 _amount) external onlyAdmin {\r\n    require(rewardToken.transfer(_to, _amount), \"Token transfer failed!\");\r\n  }\r\n\r\n  function pause() public onlyAdmin {\r\n    _pause();\r\n  }\r\n\r\n  function unpause() public onlyAdmin {\r\n    _unpause();\r\n  }\r\n\r\n  /**************************************************/\r\n  /********** External Contract Functions ***********/\r\n  /**************************************************/\r\n\r\n  //Stake functions\r\n  function stakeToken(\r\n    address _tokenContract,\r\n    uint256 _tokenId,\r\n    uint256 _stakedAmount,\r\n    uint8 _tokenType // _tokenType 0 for ERC1155 and 1 for ERC71\r\n  ) external onlyWhitelisted(_tokenContract) whenNotPaused {\r\n    if (_tokenType == 1) {\r\n      require(IERC721(_tokenContract).ownerOf(_tokenId) == msg.sender, \"TokenStaking: Caller must own the NFT token\");\r\n\r\n      IERC721(_tokenContract).transferFrom(msg.sender, address(this), _tokenId);\r\n    } else {\r\n      require(\r\n        IERC1155(_tokenContract).balanceOf(msg.sender, _tokenId) >= _stakedAmount,\r\n        \"TokenStaking: Caller must have sufficient ERC1155 token balance\"\r\n      );\r\n\r\n      IERC1155(_tokenContract).safeTransferFrom(msg.sender, address(this), _tokenId, _stakedAmount, \"0x\");\r\n    }\r\n\r\n    StakingInfo memory newStaking = StakingInfo({\r\n      stakedAmount: _stakedAmount,\r\n      timeOfLastUpdate: block.timestamp,\r\n      oldBalance: 0\r\n    });\r\n\r\n    uint256 index = stakedBalances[msg.sender][_tokenContract][_tokenId].length;\r\n    stakedBalances[msg.sender][_tokenContract][_tokenId].push(newStaking);\r\n\r\n    emit TokensStaked(msg.sender, _tokenContract, _tokenId, _stakedAmount, index);\r\n  }\r\n\r\n  function stakeTokenBatch(\r\n    address[] calldata _tokenContract,\r\n    uint256[] calldata _tokenType,\r\n    uint256[] calldata _tokenId,\r\n    uint256[] calldata _stakedAmount\r\n  ) external whenNotPaused {\r\n    // check input length\r\n    require(\r\n      _tokenContract.length == _tokenType.length &&\r\n        _tokenContract.length == _tokenId.length &&\r\n        _tokenContract.length == _stakedAmount.length,\r\n      \"TokenStaking: input array length is invalid\"\r\n    );\r\n\r\n    uint256 len = _tokenContract.length;\r\n    uint256 i;\r\n    for (i; i < len; i++) {\r\n      require(whitelistContracts[_tokenContract[i]], \"Whitelist: NFT contract is not whitelisted\");\r\n      // check token type and transfer it\r\n      if (_tokenType[i] == 0) {\r\n        require(\r\n          IERC1155(_tokenContract[i]).balanceOf(msg.sender, _tokenId[i]) >= _stakedAmount[i],\r\n          \"TokenStaking: Caller must have sufficient ERC1155 token balance\"\r\n        );\r\n        IERC1155(_tokenContract[i]).safeTransferFrom(msg.sender, address(this), _tokenId[i], _stakedAmount[i], \"0x\");\r\n      } else {\r\n        require(\r\n          IERC721(_tokenContract[i]).ownerOf(_tokenId[i]) == msg.sender,\r\n          \"TokenStaking: Caller must own the ERC721 token\"\r\n        );\r\n        IERC721(_tokenContract[i]).transferFrom(msg.sender, address(this), _tokenId[i]);\r\n      }\r\n      // add stake data\r\n      StakingInfo memory newStaking = StakingInfo({\r\n        stakedAmount: _stakedAmount[i],\r\n        timeOfLastUpdate: block.timestamp,\r\n        oldBalance: 0\r\n      });\r\n      uint256 index = stakedBalances[msg.sender][_tokenContract[i]][_tokenId[i]].length;\r\n      stakedBalances[msg.sender][_tokenContract[i]][_tokenId[i]].push(newStaking);\r\n\r\n      emit TokensStaked(msg.sender, _tokenContract[i], _tokenId[i], _stakedAmount[i], index);\r\n    }\r\n  }\r\n\r\n  //Unstake functions\r\n  function unStakeToken(\r\n    address _tokenContract,\r\n    uint256 _tokenId,\r\n    uint256 _unStakedAmount,\r\n    uint256 _index,\r\n    uint8 _tokenType // _tokenType 0 for ERC1155 and 1 for ERC71\r\n  ) external onlyWhitelisted(_tokenContract) whenNotPaused nonReentrant {\r\n    require(\r\n      stakedBalances[msg.sender][_tokenContract][_tokenId][_index].stakedAmount >= _unStakedAmount,\r\n      \"TokenStaking: Insufficient Staked NFT token balance\"\r\n    );\r\n    if (_tokenType == 1) {\r\n      require(\r\n        IERC721(_tokenContract).ownerOf(_tokenId) == address(this),\r\n        \"TokenStaking: Contract must own the ERC721 token\"\r\n      );\r\n    } else {\r\n      require(\r\n        IERC1155(_tokenContract).balanceOf(address(this), _tokenId) >= _unStakedAmount,\r\n        \"TokenStaking: Contract must have sufficient ERC1155 token balance\"\r\n      );\r\n    }\r\n    // claim all rewards for current time\r\n    if (payReward) {\r\n      claimRewards(_tokenContract, _tokenId, _index);\r\n    }\r\n    stakedBalances[msg.sender][_tokenContract][_tokenId][_index].stakedAmount -= _unStakedAmount;\r\n\r\n    if (_tokenType == 0) {\r\n      IERC1155(_tokenContract).safeTransferFrom(address(this), msg.sender, _tokenId, _unStakedAmount, \"0x\");\r\n    } else {\r\n      IERC721(_tokenContract).transferFrom(address(this), msg.sender, _tokenId);\r\n    }\r\n\r\n    emit TokensUnstaked(msg.sender, _tokenContract, _tokenId, _unStakedAmount, _index);\r\n  }\r\n\r\n  function unStakeTokenBatch(\r\n    address[] calldata _tokenContract,\r\n    uint256[] calldata _tokenType,\r\n    uint256[] calldata _tokenId,\r\n    uint256[] calldata _unStakedAmount,\r\n    uint256[] calldata _index\r\n  ) external whenNotPaused nonReentrant {\r\n    // check input length\r\n    require(\r\n      _tokenContract.length == _tokenType.length &&\r\n        _tokenContract.length == _tokenId.length &&\r\n        _tokenContract.length == _unStakedAmount.length &&\r\n        _tokenContract.length == _index.length,\r\n      \"TokenStaking: input array length is invalid\"\r\n    );\r\n\r\n    uint256 len = _tokenContract.length;\r\n    uint256 i;\r\n    for (i; i < len; i++) {\r\n      require(\r\n        stakedBalances[msg.sender][_tokenContract[i]][_tokenId[i]][_index[i]].stakedAmount >= _unStakedAmount[i],\r\n        \"TokenStaking: Insufficient Staked NFT token balance\"\r\n      );\r\n      if (_tokenType[i] == 0) {\r\n        require(\r\n          IERC1155(_tokenContract[i]).balanceOf(address(this), _tokenId[i]) >= _unStakedAmount[i],\r\n          \"TokenStaking: Contract must have sufficient ERC1155 token balance\"\r\n        );\r\n      } else {\r\n        require(\r\n          IERC721(_tokenContract[i]).ownerOf(_tokenId[i]) == address(this),\r\n          \"TokenStaking: Contract must own the ERC721 token\"\r\n        );\r\n      }\r\n\r\n      // claim all rewards for current time\r\n      if (payReward) {\r\n        claimRewards(_tokenContract[i], _tokenId[i], _index[i]);\r\n      }\r\n      stakedBalances[msg.sender][_tokenContract[i]][_tokenId[i]][_index[i]].stakedAmount -= _unStakedAmount[i];\r\n\r\n      if (_tokenType[i] == 0) {\r\n        IERC1155(_tokenContract[i]).safeTransferFrom(address(this), msg.sender, _tokenId[i], _unStakedAmount[i], \"0x\");\r\n      } else {\r\n        IERC721(_tokenContract[i]).transferFrom(address(this), msg.sender, _tokenId[i]);\r\n      }\r\n      emit TokensUnstaked(msg.sender, _tokenContract[i], _tokenId[i], _unStakedAmount[i], _index[i]);\r\n    }\r\n  }\r\n\r\n  //Restake functions\r\n  function reStakeToken(\r\n    address _tokenContract,\r\n    uint256 _tokenId,\r\n    uint8 _tokenType, // _tokenType 0 for ERC1155 and 1 for ERC71\r\n    uint256 _index\r\n  ) external onlyWhitelisted(_tokenContract) whenNotPaused nonReentrant {\r\n    uint _reStakedAmount = stakedBalances[msg.sender][_tokenContract][_tokenId][_index].stakedAmount;\r\n    require(_reStakedAmount > 0, \"TokenStaking: Staking Data not found\");\r\n    if (_tokenType == 0) {\r\n      require(\r\n        IERC1155(_tokenContract).balanceOf(address(this), _tokenId) >= _reStakedAmount,\r\n        \"TokenStaking: Contract must have sufficient ERC1155 token balance\"\r\n      );\r\n    } else {\r\n      require(\r\n        IERC721(_tokenContract).ownerOf(_tokenId) == address(this),\r\n        \"TokenStaking: Contract must own the ERC721 token\"\r\n      );\r\n    }\r\n\r\n    // update old blance and time of last update\r\n    stakedBalances[msg.sender][_tokenContract][_tokenId][_index].oldBalance = calculateRewards(\r\n      msg.sender,\r\n      _tokenContract,\r\n      _tokenId,\r\n      _index\r\n    );\r\n    stakedBalances[msg.sender][_tokenContract][_tokenId][_index].timeOfLastUpdate = block.timestamp;\r\n\r\n    emit TokenRestaked(msg.sender, _tokenContract, _tokenId, _reStakedAmount, _index, block.timestamp);\r\n  }\r\n\r\n  function reStakeTokenBatch(\r\n    address[] calldata _tokenContract,\r\n    uint256[] calldata _tokenType,\r\n    uint256[] calldata _tokenId,\r\n    uint256[] calldata _index\r\n  ) external whenNotPaused {\r\n    // check input length\r\n    require(\r\n      _tokenContract.length == _tokenType.length &&\r\n        _tokenContract.length == _tokenId.length &&\r\n        _tokenContract.length == _index.length,\r\n      \"TokenStaking: input array length is invalid\"\r\n    );\r\n\r\n    uint256 len = _tokenContract.length;\r\n    uint256 i;\r\n    for (i; i < len; i++) {\r\n    uint _reStakedAmount = stakedBalances[msg.sender][_tokenContract[i]][_tokenId[i]][_index[i]].stakedAmount;\r\n    require(_reStakedAmount > 0, \"TokenStaking: Staking Data not found\");\r\n    if (_tokenType[i] == 0) {\r\n      require(\r\n        IERC1155(_tokenContract[i]).balanceOf(address(this), _tokenId[i]) >= _reStakedAmount,\r\n        \"TokenStaking: Contract must have sufficient ERC1155 token balance\"\r\n      );\r\n    } else {\r\n      require(\r\n        IERC721(_tokenContract[i]).ownerOf(_tokenId[i]) == address(this),\r\n        \"TokenStaking: Contract must own the ERC721 token\"\r\n      );\r\n    }\r\n\r\n    // update old blance and time of last update\r\n    stakedBalances[msg.sender][_tokenContract[i]][_tokenId[i]][_index[i]].oldBalance = calculateRewards(\r\n      msg.sender,\r\n      _tokenContract[i],\r\n      _tokenId[i],\r\n      _index[i]\r\n    );\r\n    stakedBalances[msg.sender][_tokenContract[i]][_tokenId[i]][_index[i]].timeOfLastUpdate = block.timestamp;\r\n\r\n    emit TokenRestaked(msg.sender, _tokenContract[i], _tokenId[i], _reStakedAmount, _index[i], block.timestamp);\r\n    }\r\n  }\r\n\r\n  // Claim reward\r\n  function claimRewards(\r\n    address _tokenContract,\r\n    uint256 _tokenId,\r\n    uint256 _index\r\n  ) internal whenNotPaused onlyWhitelisted(_tokenContract) returns (bool) {\r\n    // get claimed amount _msgSender\r\n    uint256 rewards = calculateRewards(msg.sender, _tokenContract, _tokenId, _index);\r\n\r\n    require(rewards > 0, \"TokenStaking: No rewards available\");\r\n    require(rewardToken.balanceOf(address(this)) >= rewards, \"TokenStaking: Insufficient reward balance\");\r\n\r\n    stakedBalances[msg.sender][_tokenContract][_tokenId][_index].timeOfLastUpdate = block.timestamp;\r\n\r\n    // transfer reward amount\r\n    uint256 unstakeFeeAmount;\r\n    if (unstakeFee > 0) {\r\n      unstakeFeeAmount = _getPortion(rewards, unstakeFee);\r\n    }\r\n    rewardToken.transfer(\r\n      msg.sender,\r\n      stakedBalances[msg.sender][_tokenContract][_tokenId][_index].oldBalance + rewards - unstakeFeeAmount\r\n    );\r\n\r\n    emit RewardsClaimed(msg.sender, rewards);\r\n\r\n    return true;\r\n  }\r\n\r\n  function calculateRewards(\r\n    address _user,\r\n    address _tokenContract,\r\n    uint256 _tokenId,\r\n    uint256 _index\r\n  ) public view returns (uint256) {\r\n    require(stakedBalances[_user][_tokenContract][_tokenId].length > _index, \"TokenStaking: invalid index\");\r\n    if (stakedBalances[_user][_tokenContract][_tokenId][_index].stakedAmount > 0) {\r\n      uint256 stakingEndTime = stakedBalances[_user][_tokenContract][_tokenId][_index].timeOfLastUpdate + rewardRateDuration;\r\n      require(block.timestamp > stakingEndTime, \"TokenStaking: Staking duration is not completed\");\r\n      uint256 totalRewards = rewardRate *\r\n        // rewardDuration *\r\n        stakedBalances[_user][_tokenContract][_tokenId][_index].stakedAmount;\r\n\r\n      return totalRewards;\r\n    }\r\n    return 0;\r\n  }\r\n\r\n  /**************************************************/\r\n  /********* Whitelisted Contract Functions *********/\r\n  /**************************************************/\r\n\r\n  function addToWhitelist(address[] calldata _whitelistContracts) external onlyAdmin {\r\n    for (uint256 i = 0; i < _whitelistContracts.length; i++) {\r\n      address account = _whitelistContracts[i];\r\n      require(account != address(0), \"Whitelist: Cannot add zero address\");\r\n\r\n      if (!whitelistContracts[account]) {\r\n        whitelistContracts[account] = true;\r\n        emit AddressAdded(account);\r\n      }\r\n    }\r\n  }\r\n\r\n  function removeFromWhitelist(address[] calldata _whitelistContracts) external onlyAdmin {\r\n    for (uint256 i = 0; i < _whitelistContracts.length; i++) {\r\n      address account = _whitelistContracts[i];\r\n      require(whitelistContracts[account], \"Whitelist: Account is not whitelisted\");\r\n\r\n      whitelistContracts[account] = false;\r\n      emit AddressRemoved(account);\r\n    }\r\n  }\r\n\r\n  /**\r\n   *  _authorizeUpgrade\r\n   */\r\n  function _authorizeUpgrade(address newImplementation) internal override onlyRole(DEFAULT_ADMIN_ROLE) {}\r\n\r\n  /**\r\n   * @dev See {IERC165-supportsInterface}.\r\n   */\r\n  function supportsInterface(\r\n    bytes4 interfaceId\r\n  ) public view virtual override(ERC1155Receiver, AccessControlUpgradeable) returns (bool) {\r\n    return super.supportsInterface(interfaceId);\r\n  }\r\n}\r\n",
  "sourcePath": "C:\\Users\\Yash\\Desktop\\Temporary\\Github\\marketplace\\src\\contracts\\Stacking.sol",
  "compiler": {
    "name": "solc",
    "version": "0.8.14+commit.80d49f37.Emscripten.clang"
  },
  "schemaVersion": "3.4.13",
  "updatedAt": "2023-08-06T17:11:52.368Z",
  "devdoc": {
    "kind": "dev",
    "methods": {
      "constructor": {
        "custom:oz-upgrades-unsafe-allow": "constructor"
      },
      "getRoleAdmin(bytes32)": {
        "details": "Returns the admin role that controls `role`. See {grantRole} and {revokeRole}. To change a role's admin, use {_setRoleAdmin}."
      },
      "grantRole(bytes32,address)": {
        "details": "Grants `role` to `account`. If `account` had not been already granted `role`, emits a {RoleGranted} event. Requirements: - the caller must have ``role``'s admin role. May emit a {RoleGranted} event."
      },
      "hasRole(bytes32,address)": {
        "details": "Returns `true` if `account` has been granted `role`."
      },
      "paused()": {
        "details": "Returns true if the contract is paused, and false otherwise."
      },
      "proxiableUUID()": {
        "details": "Implementation of the ERC1822 {proxiableUUID} function. This returns the storage slot used by the implementation. It is used to validate the implementation's compatibility when performing an upgrade. IMPORTANT: A proxy pointing at a proxiable contract should not be considered proxiable itself, because this risks bricking a proxy that upgrades to it, by delegating to itself until out of gas. Thus it is critical that this function revert if invoked through a proxy. This is guaranteed by the `notDelegated` modifier."
      },
      "renounceRole(bytes32,address)": {
        "details": "Revokes `role` from the calling account. Roles are often managed via {grantRole} and {revokeRole}: this function's purpose is to provide a mechanism for accounts to lose their privileges if they are compromised (such as when a trusted device is misplaced). If the calling account had been revoked `role`, emits a {RoleRevoked} event. Requirements: - the caller must be `account`. May emit a {RoleRevoked} event."
      },
      "revokeRole(bytes32,address)": {
        "details": "Revokes `role` from `account`. If `account` had been granted `role`, emits a {RoleRevoked} event. Requirements: - the caller must have ``role``'s admin role. May emit a {RoleRevoked} event."
      },
      "supportsInterface(bytes4)": {
        "details": "See {IERC165-supportsInterface}."
      },
      "upgradeTo(address)": {
        "details": "Upgrade the implementation of the proxy to `newImplementation`. Calls {_authorizeUpgrade}. Emits an {Upgraded} event."
      },
      "upgradeToAndCall(address,bytes)": {
        "details": "Upgrade the implementation of the proxy to `newImplementation`, and subsequently execute the function call encoded in `data`. Calls {_authorizeUpgrade}. Emits an {Upgraded} event."
      }
    },
    "version": 1
  },
  "userdoc": {
    "kind": "user",
    "methods": {},
    "version": 1
  }
}