{
  "contractName": "StakingNFT",
  "abi": [
    {
      "inputs": [],
      "stateMutability": "nonpayable",
      "type": "constructor"
    },
    {
      "anonymous": false,
      "inputs": [
        {
          "indexed": true,
          "internalType": "address",
          "name": "account",
          "type": "address"
        }
      ],
      "name": "AddressAdded",
      "type": "event"
    },
    {
      "anonymous": false,
      "inputs": [
        {
          "indexed": true,
          "internalType": "address",
          "name": "account",
          "type": "address"
        }
      ],
      "name": "AddressRemoved",
      "type": "event"
    },
    {
      "anonymous": false,
      "inputs": [
        {
          "indexed": false,
          "internalType": "address",
          "name": "previousAdmin",
          "type": "address"
        },
        {
          "indexed": false,
          "internalType": "address",
          "name": "newAdmin",
          "type": "address"
        }
      ],
      "name": "AdminChanged",
      "type": "event"
    },
    {
      "anonymous": false,
      "inputs": [
        {
          "indexed": true,
          "internalType": "address",
          "name": "beacon",
          "type": "address"
        }
      ],
      "name": "BeaconUpgraded",
      "type": "event"
    },
    {
      "anonymous": false,
      "inputs": [
        {
          "indexed": false,
          "internalType": "uint8",
          "name": "version",
          "type": "uint8"
        }
      ],
      "name": "Initialized",
      "type": "event"
    },
    {
      "anonymous": false,
      "inputs": [
        {
          "indexed": false,
          "internalType": "address",
          "name": "account",
          "type": "address"
        }
      ],
      "name": "Paused",
      "type": "event"
    },
    {
      "anonymous": false,
      "inputs": [
        {
          "indexed": true,
          "internalType": "address",
          "name": "user",
          "type": "address"
        },
        {
          "indexed": false,
          "internalType": "uint256",
          "name": "amount",
          "type": "uint256"
        }
      ],
      "name": "RewardsClaimed",
      "type": "event"
    },
    {
      "anonymous": false,
      "inputs": [
        {
          "indexed": true,
          "internalType": "bytes32",
          "name": "role",
          "type": "bytes32"
        },
        {
          "indexed": true,
          "internalType": "bytes32",
          "name": "previousAdminRole",
          "type": "bytes32"
        },
        {
          "indexed": true,
          "internalType": "bytes32",
          "name": "newAdminRole",
          "type": "bytes32"
        }
      ],
      "name": "RoleAdminChanged",
      "type": "event"
    },
    {
      "anonymous": false,
      "inputs": [
        {
          "indexed": true,
          "internalType": "bytes32",
          "name": "role",
          "type": "bytes32"
        },
        {
          "indexed": true,
          "internalType": "address",
          "name": "account",
          "type": "address"
        },
        {
          "indexed": true,
          "internalType": "address",
          "name": "sender",
          "type": "address"
        }
      ],
      "name": "RoleGranted",
      "type": "event"
    },
    {
      "anonymous": false,
      "inputs": [
        {
          "indexed": true,
          "internalType": "bytes32",
          "name": "role",
          "type": "bytes32"
        },
        {
          "indexed": true,
          "internalType": "address",
          "name": "account",
          "type": "address"
        },
        {
          "indexed": true,
          "internalType": "address",
          "name": "sender",
          "type": "address"
        }
      ],
      "name": "RoleRevoked",
      "type": "event"
    },
    {
      "anonymous": false,
      "inputs": [
        {
          "indexed": true,
          "internalType": "address",
          "name": "user",
          "type": "address"
        },
        {
          "indexed": true,
          "internalType": "address",
          "name": "tokenContract",
          "type": "address"
        },
        {
          "indexed": true,
          "internalType": "uint256",
          "name": "tokenId",
          "type": "uint256"
        },
        {
          "indexed": false,
          "internalType": "uint256",
          "name": "amount",
          "type": "uint256"
        }
      ],
      "name": "TokensStaked",
      "type": "event"
    },
    {
      "anonymous": false,
      "inputs": [
        {
          "indexed": true,
          "internalType": "address",
          "name": "user",
          "type": "address"
        },
        {
          "indexed": true,
          "internalType": "address",
          "name": "tokenContract",
          "type": "address"
        },
        {
          "indexed": true,
          "internalType": "uint256",
          "name": "tokenId",
          "type": "uint256"
        },
        {
          "indexed": false,
          "internalType": "uint256",
          "name": "amount",
          "type": "uint256"
        }
      ],
      "name": "TokensUnstaked",
      "type": "event"
    },
    {
      "anonymous": false,
      "inputs": [
        {
          "indexed": false,
          "internalType": "address",
          "name": "account",
          "type": "address"
        }
      ],
      "name": "Unpaused",
      "type": "event"
    },
    {
      "anonymous": false,
      "inputs": [
        {
          "indexed": true,
          "internalType": "address",
          "name": "implementation",
          "type": "address"
        }
      ],
      "name": "Upgraded",
      "type": "event"
    },
    {
      "inputs": [],
      "name": "DEFAULT_ADMIN_ROLE",
      "outputs": [
        {
          "internalType": "bytes32",
          "name": "",
          "type": "bytes32"
        }
      ],
      "stateMutability": "view",
      "type": "function"
    },
    {
      "inputs": [
        {
          "internalType": "bytes32",
          "name": "role",
          "type": "bytes32"
        }
      ],
      "name": "getRoleAdmin",
      "outputs": [
        {
          "internalType": "bytes32",
          "name": "",
          "type": "bytes32"
        }
      ],
      "stateMutability": "view",
      "type": "function"
    },
    {
      "inputs": [
        {
          "internalType": "bytes32",
          "name": "role",
          "type": "bytes32"
        },
        {
          "internalType": "address",
          "name": "account",
          "type": "address"
        }
      ],
      "name": "grantRole",
      "outputs": [],
      "stateMutability": "nonpayable",
      "type": "function"
    },
    {
      "inputs": [
        {
          "internalType": "bytes32",
          "name": "role",
          "type": "bytes32"
        },
        {
          "internalType": "address",
          "name": "account",
          "type": "address"
        }
      ],
      "name": "hasRole",
      "outputs": [
        {
          "internalType": "bool",
          "name": "",
          "type": "bool"
        }
      ],
      "stateMutability": "view",
      "type": "function"
    },
    {
      "inputs": [
        {
          "internalType": "address",
          "name": "",
          "type": "address"
        },
        {
          "internalType": "address",
          "name": "",
          "type": "address"
        },
        {
          "internalType": "uint256[]",
          "name": "",
          "type": "uint256[]"
        },
        {
          "internalType": "uint256[]",
          "name": "",
          "type": "uint256[]"
        },
        {
          "internalType": "bytes",
          "name": "",
          "type": "bytes"
        }
      ],
      "name": "onERC1155BatchReceived",
      "outputs": [
        {
          "internalType": "bytes4",
          "name": "",
          "type": "bytes4"
        }
      ],
      "stateMutability": "nonpayable",
      "type": "function"
    },
    {
      "inputs": [
        {
          "internalType": "address",
          "name": "",
          "type": "address"
        },
        {
          "internalType": "address",
          "name": "",
          "type": "address"
        },
        {
          "internalType": "uint256",
          "name": "",
          "type": "uint256"
        },
        {
          "internalType": "uint256",
          "name": "",
          "type": "uint256"
        },
        {
          "internalType": "bytes",
          "name": "",
          "type": "bytes"
        }
      ],
      "name": "onERC1155Received",
      "outputs": [
        {
          "internalType": "bytes4",
          "name": "",
          "type": "bytes4"
        }
      ],
      "stateMutability": "nonpayable",
      "type": "function"
    },
    {
      "inputs": [],
      "name": "paused",
      "outputs": [
        {
          "internalType": "bool",
          "name": "",
          "type": "bool"
        }
      ],
      "stateMutability": "view",
      "type": "function"
    },
    {
      "inputs": [],
      "name": "payReward",
      "outputs": [
        {
          "internalType": "bool",
          "name": "",
          "type": "bool"
        }
      ],
      "stateMutability": "view",
      "type": "function"
    },
    {
      "inputs": [],
      "name": "proxiableUUID",
      "outputs": [
        {
          "internalType": "bytes32",
          "name": "",
          "type": "bytes32"
        }
      ],
      "stateMutability": "view",
      "type": "function"
    },
    {
      "inputs": [
        {
          "internalType": "bytes32",
          "name": "role",
          "type": "bytes32"
        },
        {
          "internalType": "address",
          "name": "account",
          "type": "address"
        }
      ],
      "name": "renounceRole",
      "outputs": [],
      "stateMutability": "nonpayable",
      "type": "function"
    },
    {
      "inputs": [
        {
          "internalType": "bytes32",
          "name": "role",
          "type": "bytes32"
        },
        {
          "internalType": "address",
          "name": "account",
          "type": "address"
        }
      ],
      "name": "revokeRole",
      "outputs": [],
      "stateMutability": "nonpayable",
      "type": "function"
    },
    {
      "inputs": [],
      "name": "rewardRate",
      "outputs": [
        {
          "internalType": "uint256",
          "name": "",
          "type": "uint256"
        }
      ],
      "stateMutability": "view",
      "type": "function"
    },
    {
      "inputs": [],
      "name": "rewardRateDuration",
      "outputs": [
        {
          "internalType": "uint256",
          "name": "",
          "type": "uint256"
        }
      ],
      "stateMutability": "view",
      "type": "function"
    },
    {
      "inputs": [],
      "name": "rewardToken",
      "outputs": [
        {
          "internalType": "contract IERC20",
          "name": "",
          "type": "address"
        }
      ],
      "stateMutability": "view",
      "type": "function"
    },
    {
      "inputs": [
        {
          "internalType": "address",
          "name": "",
          "type": "address"
        },
        {
          "internalType": "address",
          "name": "",
          "type": "address"
        },
        {
          "internalType": "uint256",
          "name": "",
          "type": "uint256"
        },
        {
          "internalType": "uint256",
          "name": "",
          "type": "uint256"
        }
      ],
      "name": "stakedBalances",
      "outputs": [
        {
          "internalType": "uint256",
          "name": "stakedAmount",
          "type": "uint256"
        },
        {
          "internalType": "uint256",
          "name": "timeOfLastUpdate",
          "type": "uint256"
        }
      ],
      "stateMutability": "view",
      "type": "function"
    },
    {
      "inputs": [],
      "name": "totalStakedAmount",
      "outputs": [
        {
          "internalType": "uint256",
          "name": "",
          "type": "uint256"
        }
      ],
      "stateMutability": "view",
      "type": "function"
    },
    {
      "inputs": [
        {
          "internalType": "address",
          "name": "newImplementation",
          "type": "address"
        }
      ],
      "name": "upgradeTo",
      "outputs": [],
      "stateMutability": "nonpayable",
      "type": "function"
    },
    {
      "inputs": [
        {
          "internalType": "address",
          "name": "newImplementation",
          "type": "address"
        },
        {
          "internalType": "bytes",
          "name": "data",
          "type": "bytes"
        }
      ],
      "name": "upgradeToAndCall",
      "outputs": [],
      "stateMutability": "payable",
      "type": "function"
    },
    {
      "inputs": [
        {
          "internalType": "address",
          "name": "",
          "type": "address"
        }
      ],
      "name": "whitelistContracts",
      "outputs": [
        {
          "internalType": "bool",
          "name": "",
          "type": "bool"
        }
      ],
      "stateMutability": "view",
      "type": "function"
    },
    {
      "inputs": [
        {
          "internalType": "address",
          "name": "_rewardToken",
          "type": "address"
        },
        {
          "internalType": "uint256",
          "name": "_rewardRate",
          "type": "uint256"
        },
        {
          "internalType": "uint256",
          "name": "_rewardRateDuration",
          "type": "uint256"
        }
      ],
      "name": "initialize",
      "outputs": [],
      "stateMutability": "nonpayable",
      "type": "function"
    },
    {
      "inputs": [
        {
          "internalType": "uint256",
          "name": "_rewardRate",
          "type": "uint256"
        }
      ],
      "name": "setRewardRate",
      "outputs": [],
      "stateMutability": "nonpayable",
      "type": "function"
    },
    {
      "inputs": [
        {
          "internalType": "uint256",
          "name": "_rewardRateDuration",
          "type": "uint256"
        }
      ],
      "name": "setRewardRateDuration",
      "outputs": [],
      "stateMutability": "nonpayable",
      "type": "function"
    },
    {
      "inputs": [
        {
          "internalType": "bool",
          "name": "_payReward",
          "type": "bool"
        }
      ],
      "name": "setPayReward",
      "outputs": [],
      "stateMutability": "nonpayable",
      "type": "function"
    },
    {
      "inputs": [
        {
          "internalType": "address",
          "name": "_to",
          "type": "address"
        },
        {
          "internalType": "uint256",
          "name": "_amount",
          "type": "uint256"
        }
      ],
      "name": "transferToken",
      "outputs": [],
      "stateMutability": "nonpayable",
      "type": "function"
    },
    {
      "inputs": [],
      "name": "pause",
      "outputs": [],
      "stateMutability": "nonpayable",
      "type": "function"
    },
    {
      "inputs": [],
      "name": "unpause",
      "outputs": [],
      "stateMutability": "nonpayable",
      "type": "function"
    },
    {
      "inputs": [
        {
          "internalType": "address",
          "name": "_erc721Contract",
          "type": "address"
        },
        {
          "internalType": "uint256",
          "name": "_tokenId",
          "type": "uint256"
        }
      ],
      "name": "stakERC721Token",
      "outputs": [
        {
          "internalType": "uint256",
          "name": "index",
          "type": "uint256"
        }
      ],
      "stateMutability": "nonpayable",
      "type": "function"
    },
    {
      "inputs": [
        {
          "internalType": "address",
          "name": "_erc1155Contract",
          "type": "address"
        },
        {
          "internalType": "uint256",
          "name": "_tokenId",
          "type": "uint256"
        },
        {
          "internalType": "uint256",
          "name": "_stakedAmount",
          "type": "uint256"
        }
      ],
      "name": "stakERC1155Token",
      "outputs": [
        {
          "internalType": "uint256",
          "name": "index",
          "type": "uint256"
        }
      ],
      "stateMutability": "nonpayable",
      "type": "function"
    },
    {
      "inputs": [
        {
          "internalType": "address",
          "name": "_erc721Contract",
          "type": "address"
        },
        {
          "internalType": "uint256",
          "name": "_tokenId",
          "type": "uint256"
        },
        {
          "internalType": "uint256",
          "name": "_index",
          "type": "uint256"
        }
      ],
      "name": "unStakERC721Token",
      "outputs": [],
      "stateMutability": "nonpayable",
      "type": "function"
    },
    {
      "inputs": [
        {
          "internalType": "address",
          "name": "_erc1155Contract",
          "type": "address"
        },
        {
          "internalType": "uint256",
          "name": "_tokenId",
          "type": "uint256"
        },
        {
          "internalType": "uint256",
          "name": "_unStakedAmount",
          "type": "uint256"
        },
        {
          "internalType": "uint256",
          "name": "_index",
          "type": "uint256"
        }
      ],
      "name": "unStakERC1155Token",
      "outputs": [],
      "stateMutability": "nonpayable",
      "type": "function"
    },
    {
      "inputs": [
        {
          "internalType": "address",
          "name": "_user",
          "type": "address"
        },
        {
          "internalType": "address",
          "name": "_tokenContract",
          "type": "address"
        },
        {
          "internalType": "uint256",
          "name": "_tokenId",
          "type": "uint256"
        },
        {
          "internalType": "uint256",
          "name": "_index",
          "type": "uint256"
        }
      ],
      "name": "calculateRewards",
      "outputs": [
        {
          "internalType": "uint256",
          "name": "",
          "type": "uint256"
        }
      ],
      "stateMutability": "view",
      "type": "function"
    },
    {
      "inputs": [
        {
          "internalType": "address[]",
          "name": "_whitelistContracts",
          "type": "address[]"
        }
      ],
      "name": "addToWhitelist",
      "outputs": [],
      "stateMutability": "nonpayable",
      "type": "function"
    },
    {
      "inputs": [
        {
          "internalType": "address[]",
          "name": "_whitelistContracts",
          "type": "address[]"
        }
      ],
      "name": "removeFromWhitelist",
      "outputs": [],
      "stateMutability": "nonpayable",
      "type": "function"
    },
    {
      "inputs": [
        {
          "internalType": "bytes4",
          "name": "interfaceId",
          "type": "bytes4"
        }
      ],
      "name": "supportsInterface",
      "outputs": [
        {
          "internalType": "bool",
          "name": "",
          "type": "bool"
        }
      ],
      "stateMutability": "view",
      "type": "function"
    }
  ],
  "bytecode": "0x60a06040523073ffffffffffffffffffffffffffffffffffffffff1660809073ffffffffffffffffffffffffffffffffffffffff168152503480156200004457600080fd5b50600161012d819055506200005e6200006460201b60201c565b6200020f565b600060019054906101000a900460ff1615620000b7576040517f08c379a0000000000000000000000000000000000000000000000000000000008152600401620000ae90620001b2565b60405180910390fd5b60ff801660008054906101000a900460ff1660ff161015620001295760ff6000806101000a81548160ff021916908360ff1602179055507f7f26b83ff96e1f2b6a682f133852f6798a09c465da95921460cefb384740249860ff604051620001209190620001f2565b60405180910390a15b565b600082825260208201905092915050565b7f496e697469616c697a61626c653a20636f6e747261637420697320696e69746960008201527f616c697a696e6700000000000000000000000000000000000000000000000000602082015250565b60006200019a6027836200012b565b9150620001a7826200013c565b604082019050919050565b60006020820190508181036000830152620001cd816200018b565b9050919050565b600060ff82169050919050565b620001ec81620001d4565b82525050565b6000602082019050620002096000830184620001e1565b92915050565b608051615afc6200024760003960008181610a2001528181610aae01528181610bfe01528181610c8c0152610d3c0152615afc6000f3fe6080604052600436106101f95760003560e01c80637b0a47ee1161010d578063af5a6c7e116100a0578063db4172401161006f578063db4172401461071f578063e51b9bc81461075c578063efea48bc14610785578063f23a6e61146107b0578063f7c618c1146107ed576101f9565b8063af5a6c7e1461063f578063bc197c811461067c578063d048fa8b146106b9578063d547741f146106f6576101f9565b806399a93df2116100dc57806399a93df2146105845780639c23fe20146105c25780639e447fc6146105eb578063a217fddf14610614576101f9565b80637b0a47ee146104dc5780637f649783146105075780638456cb591461053057806391d1485414610547576101f9565b806352d1902d116101905780636509698d1161015f5780636509698d146103f957806374df39e3146104225780637842a3a41461045f57806379c4e7851461048a5780637a1ac61e146104b3576101f9565b806352d1902d1461034f578063548db1741461037a578063567e98f9146103a35780635c975abb146103ce576101f9565b806336568abe116101cc57806336568abe146102ca5780633659cfe6146102f35780633f4ba83a1461031c5780634f1ef28614610333576101f9565b806301ffc9a7146101fe5780631072cbea1461023b578063248a9ca3146102645780632f2ff15d146102a1575b600080fd5b34801561020a57600080fd5b5061022560048036038101906102209190613a6d565b610818565b6040516102329190613ab5565b60405180910390f35b34801561024757600080fd5b50610262600480360381019061025d9190613b64565b61082a565b005b34801561027057600080fd5b5061028b60048036038101906102869190613bda565b61095a565b6040516102989190613c16565b60405180910390f35b3480156102ad57600080fd5b506102c860048036038101906102c39190613c31565b61097a565b005b3480156102d657600080fd5b506102f160048036038101906102ec9190613c31565b61099b565b005b3480156102ff57600080fd5b5061031a60048036038101906103159190613c71565b610a1e565b005b34801561032857600080fd5b50610331610ba6565b005b61034d60048036038101906103489190613de4565b610bfc565b005b34801561035b57600080fd5b50610364610d38565b6040516103719190613c16565b60405180910390f35b34801561038657600080fd5b506103a1600480360381019061039c9190613ea0565b610df1565b005b3480156103af57600080fd5b506103b8610fb9565b6040516103c59190613efc565b60405180910390f35b3480156103da57600080fd5b506103e3610fc0565b6040516103f09190613ab5565b60405180910390f35b34801561040557600080fd5b50610420600480360381019061041b9190613f17565b610fd7565b005b34801561042e57600080fd5b5061044960048036038101906104449190613f44565b61102e565b6040516104569190613efc565b60405180910390f35b34801561046b57600080fd5b506104746113de565b6040516104819190613ab5565b60405180910390f35b34801561049657600080fd5b506104b160048036038101906104ac9190613f44565b6113f2565b005b3480156104bf57600080fd5b506104da60048036038101906104d59190613f44565b61183c565b005b3480156104e857600080fd5b506104f16119e4565b6040516104fe9190613efc565b60405180910390f35b34801561051357600080fd5b5061052e60048036038101906105299190613ea0565b6119eb565b005b34801561053c57600080fd5b50610545611be8565b005b34801561055357600080fd5b5061056e60048036038101906105699190613c31565b611c3e565b60405161057b9190613ab5565b60405180910390f35b34801561059057600080fd5b506105ab60048036038101906105a69190613f97565b611ca9565b6040516105b9929190613ffe565b60405180910390f35b3480156105ce57600080fd5b506105e960048036038101906105e49190614027565b611d05565b005b3480156105f757600080fd5b50610612600480360381019061060d9190613f17565b61211d565b005b34801561062057600080fd5b50610629612174565b6040516106369190613c16565b60405180910390f35b34801561064b57600080fd5b5061066660048036038101906106619190613c71565b61217b565b6040516106739190613ab5565b60405180910390f35b34801561068857600080fd5b506106a3600480360381019061069e9190614151565b61219c565b6040516106b0919061422f565b60405180910390f35b3480156106c557600080fd5b506106e060048036038101906106db9190613b64565b6121b1565b6040516106ed9190613efc565b60405180910390f35b34801561070257600080fd5b5061071d60048036038101906107189190613c31565b61258a565b005b34801561072b57600080fd5b5061074660048036038101906107419190613f97565b6125ab565b6040516107539190613efc565b60405180910390f35b34801561076857600080fd5b50610783600480360381019061077e9190614276565b612938565b005b34801561079157600080fd5b5061079a6129a2565b6040516107a79190613efc565b60405180910390f35b3480156107bc57600080fd5b506107d760048036038101906107d291906142a3565b6129a9565b6040516107e4919061422f565b60405180910390f35b3480156107f957600080fd5b506108026129be565b60405161080f9190614399565b60405180910390f35b6000610823826129e5565b9050919050565b6108376000801b33611c3e565b610876576040517f08c379a000000000000000000000000000000000000000000000000000000000815260040161086d90614437565b60405180910390fd5b61012f60009054906101000a900473ffffffffffffffffffffffffffffffffffffffff1673ffffffffffffffffffffffffffffffffffffffff1663a9059cbb83836040518363ffffffff1660e01b81526004016108d4929190614466565b6020604051808303816000875af11580156108f3573d6000803e3d6000fd5b505050506040513d601f19601f8201168201806040525081019061091791906144a4565b610956576040517f08c379a000000000000000000000000000000000000000000000000000000000815260040161094d9061451d565b60405180910390fd5b5050565b600060976000838152602001908152602001600020600101549050919050565b6109838261095a565b61098c81612a5f565b6109968383612a73565b505050565b6109a3612b54565b73ffffffffffffffffffffffffffffffffffffffff168173ffffffffffffffffffffffffffffffffffffffff1614610a10576040517f08c379a0000000000000000000000000000000000000000000000000000000008152600401610a07906145af565b60405180910390fd5b610a1a8282612b5c565b5050565b7f000000000000000000000000000000000000000000000000000000000000000073ffffffffffffffffffffffffffffffffffffffff163073ffffffffffffffffffffffffffffffffffffffff1603610aac576040517f08c379a0000000000000000000000000000000000000000000000000000000008152600401610aa390614641565b60405180910390fd5b7f000000000000000000000000000000000000000000000000000000000000000073ffffffffffffffffffffffffffffffffffffffff16610aeb612c3e565b73ffffffffffffffffffffffffffffffffffffffff1614610b41576040517f08c379a0000000000000000000000000000000000000000000000000000000008152600401610b38906146d3565b60405180910390fd5b610b4a81612c95565b610ba381600067ffffffffffffffff811115610b6957610b68613cb9565b5b6040519080825280601f01601f191660200182016040528015610b9b5781602001600182028036833780820191505090505b506000612ca6565b50565b610bb36000801b33611c3e565b610bf2576040517f08c379a0000000000000000000000000000000000000000000000000000000008152600401610be990614437565b60405180910390fd5b610bfa612e14565b565b7f000000000000000000000000000000000000000000000000000000000000000073ffffffffffffffffffffffffffffffffffffffff163073ffffffffffffffffffffffffffffffffffffffff1603610c8a576040517f08c379a0000000000000000000000000000000000000000000000000000000008152600401610c8190614641565b60405180910390fd5b7f000000000000000000000000000000000000000000000000000000000000000073ffffffffffffffffffffffffffffffffffffffff16610cc9612c3e565b73ffffffffffffffffffffffffffffffffffffffff1614610d1f576040517f08c379a0000000000000000000000000000000000000000000000000000000008152600401610d16906146d3565b60405180910390fd5b610d2882612c95565b610d3482826001612ca6565b5050565b60007f000000000000000000000000000000000000000000000000000000000000000073ffffffffffffffffffffffffffffffffffffffff163073ffffffffffffffffffffffffffffffffffffffff1614610dc8576040517f08c379a0000000000000000000000000000000000000000000000000000000008152600401610dbf90614765565b60405180910390fd5b7f360894a13ba1a3210667c828492db98dca3e2076cc3735a920a3ca505d382bbc60001b905090565b610dfe6000801b33611c3e565b610e3d576040517f08c379a0000000000000000000000000000000000000000000000000000000008152600401610e3490614437565b60405180910390fd5b60005b82829050811015610fb4576000838383818110610e6057610e5f614785565b5b9050602002016020810190610e759190613c71565b905061013460008273ffffffffffffffffffffffffffffffffffffffff1673ffffffffffffffffffffffffffffffffffffffff16815260200190815260200160002060009054906101000a900460ff16610f04576040517f08c379a0000000000000000000000000000000000000000000000000000000008152600401610efb90614826565b60405180910390fd5b600061013460008373ffffffffffffffffffffffffffffffffffffffff1673ffffffffffffffffffffffffffffffffffffffff16815260200190815260200160002060006101000a81548160ff0219169083151502179055508073ffffffffffffffffffffffffffffffffffffffff167f24a12366c02e13fe4a9e03d86a8952e85bb74a456c16e4a18b6d8295700b74bb60405160405180910390a2508080610fac90614875565b915050610e40565b505050565b6101325481565b6000603360009054906101000a900460ff16905090565b610fe46000801b33611c3e565b611023576040517f08c379a000000000000000000000000000000000000000000000000000000000815260040161101a90614437565b60405180910390fd5b806101318190555050565b60008361013460008273ffffffffffffffffffffffffffffffffffffffff1673ffffffffffffffffffffffffffffffffffffffff16815260200190815260200160002060009054906101000a900460ff166110be576040517f08c379a00000000000000000000000000000000000000000000000000000000081526004016110b59061492f565b60405180910390fd5b6110c6612e77565b828573ffffffffffffffffffffffffffffffffffffffff1662fdd58e33876040518363ffffffff1660e01b8152600401611101929190614466565b602060405180830381865afa15801561111e573d6000803e3d6000fd5b505050506040513d601f19601f820116820180604052508101906111429190614964565b1015611183576040517f08c379a000000000000000000000000000000000000000000000000000000000815260040161117a90614a03565b60405180910390fd5b8473ffffffffffffffffffffffffffffffffffffffff1663f242432a333087876040518563ffffffff1660e01b81526004016111c29493929190614a80565b600060405180830381600087803b1580156111dc57600080fd5b505af11580156111f0573d6000803e3d6000fd5b505050506000604051806040016040528085815260200142815250905061012e60003373ffffffffffffffffffffffffffffffffffffffff1673ffffffffffffffffffffffffffffffffffffffff16815260200190815260200160002060008773ffffffffffffffffffffffffffffffffffffffff1673ffffffffffffffffffffffffffffffffffffffff168152602001908152602001600020600086815260200190815260200160002080549050925061012e60003373ffffffffffffffffffffffffffffffffffffffff1673ffffffffffffffffffffffffffffffffffffffff16815260200190815260200160002060008773ffffffffffffffffffffffffffffffffffffffff1673ffffffffffffffffffffffffffffffffffffffff168152602001908152602001600020600086815260200190815260200160002081908060018154018082558091505060019003906000526020600020906002020160009091909190915060008201518160000155602082015181600101555050848673ffffffffffffffffffffffffffffffffffffffff163373ffffffffffffffffffffffffffffffffffffffff167f9b68f01b80e516179521925c1a690f13d1fe61c92ac2f10fc202fb1252d7f111876040516113cd9190613efc565b60405180910390a450509392505050565b61013360009054906101000a900460ff1681565b8261013460008273ffffffffffffffffffffffffffffffffffffffff1673ffffffffffffffffffffffffffffffffffffffff16815260200190815260200160002060009054906101000a900460ff16611480576040517f08c379a00000000000000000000000000000000000000000000000000000000081526004016114779061492f565b60405180910390fd5b611488612e77565b611490612ec1565b600161012e60003373ffffffffffffffffffffffffffffffffffffffff1673ffffffffffffffffffffffffffffffffffffffff16815260200190815260200160002060008673ffffffffffffffffffffffffffffffffffffffff1673ffffffffffffffffffffffffffffffffffffffff1681526020019081526020016000206000858152602001908152602001600020838154811061153257611531614785565b5b9060005260206000209060020201600001541015611585576040517f08c379a000000000000000000000000000000000000000000000000000000000815260040161157c90614b4a565b60405180910390fd5b3073ffffffffffffffffffffffffffffffffffffffff168473ffffffffffffffffffffffffffffffffffffffff16636352211e856040518263ffffffff1660e01b81526004016115d59190613efc565b602060405180830381865afa1580156115f2573d6000803e3d6000fd5b505050506040513d601f19601f820116820180604052508101906116169190614b7f565b73ffffffffffffffffffffffffffffffffffffffff161461166c576040517f08c379a000000000000000000000000000000000000000000000000000000000815260040161166390614c1e565b60405180910390fd5b61013360009054906101000a900460ff161561168f5761168d848484612f12565b505b600161012e60003373ffffffffffffffffffffffffffffffffffffffff1673ffffffffffffffffffffffffffffffffffffffff16815260200190815260200160002060008673ffffffffffffffffffffffffffffffffffffffff1673ffffffffffffffffffffffffffffffffffffffff1681526020019081526020016000206000858152602001908152602001600020838154811061173157611730614785565b5b906000526020600020906002020160000160008282546117519190614c3e565b925050819055508373ffffffffffffffffffffffffffffffffffffffff166323b872dd3033866040518463ffffffff1660e01b815260040161179593929190614c72565b600060405180830381600087803b1580156117af57600080fd5b505af11580156117c3573d6000803e3d6000fd5b50505050828473ffffffffffffffffffffffffffffffffffffffff163373ffffffffffffffffffffffffffffffffffffffff167fd92ba5965367d6930d1ca05ed5e64effd4947d88c8e50f6de821bc9953b0126e60016040516118269190614ce4565b60405180910390a461183661328f565b50505050565b60008060019054906101000a900460ff1615905080801561186d5750600160008054906101000a900460ff1660ff16105b8061189a575061187c3061329a565b1580156118995750600160008054906101000a900460ff1660ff16145b5b6118d9576040517f08c379a00000000000000000000000000000000000000000000000000000000081526004016118d090614d71565b60405180910390fd5b60016000806101000a81548160ff021916908360ff1602179055508015611916576001600060016101000a81548160ff0219169083151502179055505b8361012f60006101000a81548173ffffffffffffffffffffffffffffffffffffffff021916908373ffffffffffffffffffffffffffffffffffffffff160217905550826101308190555081610131819055506119706132bd565b61197861330e565b6119856000801b33612a73565b80156119de5760008060016101000a81548160ff0219169083151502179055507f7f26b83ff96e1f2b6a682f133852f6798a09c465da95921460cefb384740249860016040516119d59190614dcf565b60405180910390a15b50505050565b6101305481565b6119f86000801b33611c3e565b611a37576040517f08c379a0000000000000000000000000000000000000000000000000000000008152600401611a2e90614437565b60405180910390fd5b60005b82829050811015611be3576000838383818110611a5a57611a59614785565b5b9050602002016020810190611a6f9190613c71565b9050600073ffffffffffffffffffffffffffffffffffffffff168173ffffffffffffffffffffffffffffffffffffffff1603611ae0576040517f08c379a0000000000000000000000000000000000000000000000000000000008152600401611ad790614e5c565b60405180910390fd5b61013460008273ffffffffffffffffffffffffffffffffffffffff1673ffffffffffffffffffffffffffffffffffffffff16815260200190815260200160002060009054906101000a900460ff16611bcf57600161013460008373ffffffffffffffffffffffffffffffffffffffff1673ffffffffffffffffffffffffffffffffffffffff16815260200190815260200160002060006101000a81548160ff0219169083151502179055508073ffffffffffffffffffffffffffffffffffffffff167fa226db3f664042183ee0281230bba26cbf7b5057e50aee7f25a175ff45ce4d7f60405160405180910390a25b508080611bdb90614875565b915050611a3a565b505050565b611bf56000801b33611c3e565b611c34576040517f08c379a0000000000000000000000000000000000000000000000000000000008152600401611c2b90614437565b60405180910390fd5b611c3c61335f565b565b60006097600084815260200190815260200160002060000160008373ffffffffffffffffffffffffffffffffffffffff1673ffffffffffffffffffffffffffffffffffffffff16815260200190815260200160002060009054906101000a900460ff16905092915050565b61012e6020528360005260406000206020528260005260406000206020528160005260406000208181548110611cde57600080fd5b90600052602060002090600202016000935093505050508060000154908060010154905082565b8361013460008273ffffffffffffffffffffffffffffffffffffffff1673ffffffffffffffffffffffffffffffffffffffff16815260200190815260200160002060009054906101000a900460ff16611d93576040517f08c379a0000000000000000000000000000000000000000000000000000000008152600401611d8a9061492f565b60405180910390fd5b611d9b612ec1565b8261012e60003373ffffffffffffffffffffffffffffffffffffffff1673ffffffffffffffffffffffffffffffffffffffff16815260200190815260200160002060008773ffffffffffffffffffffffffffffffffffffffff1673ffffffffffffffffffffffffffffffffffffffff16815260200190815260200160002060008681526020019081526020016000208381548110611e3c57611e3b614785565b5b9060005260206000209060020201600001541015611e8f576040517f08c379a0000000000000000000000000000000000000000000000000000000008152600401611e8690614eee565b60405180910390fd5b828573ffffffffffffffffffffffffffffffffffffffff1662fdd58e30876040518363ffffffff1660e01b8152600401611eca929190614466565b602060405180830381865afa158015611ee7573d6000803e3d6000fd5b505050506040513d601f19601f82011682018060405250810190611f0b9190614964565b1015611f4c576040517f08c379a0000000000000000000000000000000000000000000000000000000008152600401611f4390614fa6565b60405180910390fd5b61013360009054906101000a900460ff1615611f6f57611f6d858584612f12565b505b8261012e60003373ffffffffffffffffffffffffffffffffffffffff1673ffffffffffffffffffffffffffffffffffffffff16815260200190815260200160002060008773ffffffffffffffffffffffffffffffffffffffff1673ffffffffffffffffffffffffffffffffffffffff168152602001908152602001600020600086815260200190815260200160002083815481106120105761200f614785565b5b906000526020600020906002020160000160008282546120309190614c3e565b925050819055508473ffffffffffffffffffffffffffffffffffffffff1663f242432a303387876040518563ffffffff1660e01b81526004016120769493929190614a80565b600060405180830381600087803b15801561209057600080fd5b505af11580156120a4573d6000803e3d6000fd5b50505050838573ffffffffffffffffffffffffffffffffffffffff163373ffffffffffffffffffffffffffffffffffffffff167fd92ba5965367d6930d1ca05ed5e64effd4947d88c8e50f6de821bc9953b0126e866040516121069190613efc565b60405180910390a461211661328f565b5050505050565b61212a6000801b33611c3e565b612169576040517f08c379a000000000000000000000000000000000000000000000000000000000815260040161216090614437565b60405180910390fd5b806101308190555050565b6000801b81565b6101346020528060005260406000206000915054906101000a900460ff1681565b600063bc197c8160e01b905095945050505050565b60008261013460008273ffffffffffffffffffffffffffffffffffffffff1673ffffffffffffffffffffffffffffffffffffffff16815260200190815260200160002060009054906101000a900460ff16612241576040517f08c379a00000000000000000000000000000000000000000000000000000000081526004016122389061492f565b60405180910390fd5b612249612e77565b3373ffffffffffffffffffffffffffffffffffffffff168473ffffffffffffffffffffffffffffffffffffffff16636352211e856040518263ffffffff1660e01b81526004016122999190613efc565b602060405180830381865afa1580156122b6573d6000803e3d6000fd5b505050506040513d601f19601f820116820180604052508101906122da9190614b7f565b73ffffffffffffffffffffffffffffffffffffffff1614612330576040517f08c379a000000000000000000000000000000000000000000000000000000000815260040161232790615038565b60405180910390fd5b8373ffffffffffffffffffffffffffffffffffffffff166323b872dd3330866040518463ffffffff1660e01b815260040161236d93929190614c72565b600060405180830381600087803b15801561238757600080fd5b505af115801561239b573d6000803e3d6000fd5b50505050600060405180604001604052806001815260200142815250905061012e60003373ffffffffffffffffffffffffffffffffffffffff1673ffffffffffffffffffffffffffffffffffffffff16815260200190815260200160002060008673ffffffffffffffffffffffffffffffffffffffff1673ffffffffffffffffffffffffffffffffffffffff168152602001908152602001600020600085815260200190815260200160002080549050925061012e60003373ffffffffffffffffffffffffffffffffffffffff1673ffffffffffffffffffffffffffffffffffffffff16815260200190815260200160002060008673ffffffffffffffffffffffffffffffffffffffff1673ffffffffffffffffffffffffffffffffffffffff168152602001908152602001600020600085815260200190815260200160002081908060018154018082558091505060019003906000526020600020906002020160009091909190915060008201518160000155602082015181600101555050838573ffffffffffffffffffffffffffffffffffffffff163373ffffffffffffffffffffffffffffffffffffffff167f9b68f01b80e516179521925c1a690f13d1fe61c92ac2f10fc202fb1252d7f111600160405161257a9190614ce4565b60405180910390a4505092915050565b6125938261095a565b61259c81612a5f565b6125a68383612b5c565b505050565b60008161012e60008773ffffffffffffffffffffffffffffffffffffffff1673ffffffffffffffffffffffffffffffffffffffff16815260200190815260200160002060008673ffffffffffffffffffffffffffffffffffffffff1673ffffffffffffffffffffffffffffffffffffffff16815260200190815260200160002060008581526020019081526020016000208054905011612680576040517f08c379a0000000000000000000000000000000000000000000000000000000008152600401612677906150a4565b60405180910390fd5b600061012e60008773ffffffffffffffffffffffffffffffffffffffff1673ffffffffffffffffffffffffffffffffffffffff16815260200190815260200160002060008673ffffffffffffffffffffffffffffffffffffffff1673ffffffffffffffffffffffffffffffffffffffff1681526020019081526020016000206000858152602001908152602001600020838154811061272257612721614785565b5b906000526020600020906002020160000154111561292b57600061012e60008773ffffffffffffffffffffffffffffffffffffffff1673ffffffffffffffffffffffffffffffffffffffff16815260200190815260200160002060008673ffffffffffffffffffffffffffffffffffffffff1673ffffffffffffffffffffffffffffffffffffffff168152602001908152602001600020600085815260200190815260200160002083815481106127dc576127db614785565b5b906000526020600020906002020160010154426127f99190614c3e565b90506000610131548261280c91906150f3565b905060008111612851576040517f08c379a000000000000000000000000000000000000000000000000000000000815260040161284890615196565b60405180910390fd5b600061012e60008973ffffffffffffffffffffffffffffffffffffffff1673ffffffffffffffffffffffffffffffffffffffff16815260200190815260200160002060008873ffffffffffffffffffffffffffffffffffffffff1673ffffffffffffffffffffffffffffffffffffffff168152602001908152602001600020600087815260200190815260200160002085815481106128f3576128f2614785565b5b906000526020600020906002020160000154826101305461291491906151b6565b61291e91906151b6565b9050809350505050612930565b600090505b949350505050565b6129456000801b33611c3e565b612984576040517f08c379a000000000000000000000000000000000000000000000000000000000815260040161297b90614437565b60405180910390fd5b8061013360006101000a81548160ff02191690831515021790555050565b6101315481565b600063f23a6e6160e01b905095945050505050565b61012f60009054906101000a900473ffffffffffffffffffffffffffffffffffffffff1681565b60007f4e2312e0000000000000000000000000000000000000000000000000000000007bffffffffffffffffffffffffffffffffffffffffffffffffffffffff1916827bffffffffffffffffffffffffffffffffffffffffffffffffffffffff19161480612a585750612a57826133c2565b5b9050919050565b612a7081612a6b612b54565b61342c565b50565b612a7d8282611c3e565b612b505760016097600084815260200190815260200160002060000160008373ffffffffffffffffffffffffffffffffffffffff1673ffffffffffffffffffffffffffffffffffffffff16815260200190815260200160002060006101000a81548160ff021916908315150217905550612af5612b54565b73ffffffffffffffffffffffffffffffffffffffff168173ffffffffffffffffffffffffffffffffffffffff16837f2f8788117e7eff1d82e926ec794901d17c78024a50270940304540a733656f0d60405160405180910390a45b5050565b600033905090565b612b668282611c3e565b15612c3a5760006097600084815260200190815260200160002060000160008373ffffffffffffffffffffffffffffffffffffffff1673ffffffffffffffffffffffffffffffffffffffff16815260200190815260200160002060006101000a81548160ff021916908315150217905550612bdf612b54565b73ffffffffffffffffffffffffffffffffffffffff168173ffffffffffffffffffffffffffffffffffffffff16837ff6391f5c32d9c69d2a47ea670b442974b53935d1edc7fd64eb21e047a839171b60405160405180910390a45b5050565b6000612c6c7f360894a13ba1a3210667c828492db98dca3e2076cc3735a920a3ca505d382bbc60001b6134b1565b60000160009054906101000a900473ffffffffffffffffffffffffffffffffffffffff16905090565b6000801b612ca281612a5f565b5050565b612cd27f4910fdfa16fed3260ed0e7147f7cc6da11a60208b5b9406d12a635614ffd914360001b6134bb565b60000160009054906101000a900460ff1615612cf657612cf1836134c5565b612e0f565b8273ffffffffffffffffffffffffffffffffffffffff166352d1902d6040518163ffffffff1660e01b8152600401602060405180830381865afa925050508015612d5e57506040513d601f19601f82011682018060405250810190612d5b9190615225565b60015b612d9d576040517f08c379a0000000000000000000000000000000000000000000000000000000008152600401612d94906152c4565b60405180910390fd5b7f360894a13ba1a3210667c828492db98dca3e2076cc3735a920a3ca505d382bbc60001b8114612e02576040517f08c379a0000000000000000000000000000000000000000000000000000000008152600401612df990615356565b60405180910390fd5b50612e0e83838361357e565b5b505050565b612e1c6135aa565b6000603360006101000a81548160ff0219169083151502179055507f5db9ee0a495bf2e6ff9c91a7834c1ba4fdd244a5e8aa4e537bd38aeae4b073aa612e60612b54565b604051612e6d9190615376565b60405180910390a1565b612e7f610fc0565b15612ebf576040517f08c379a0000000000000000000000000000000000000000000000000000000008152600401612eb6906153dd565b60405180910390fd5b565b600261012d5403612f07576040517f08c379a0000000000000000000000000000000000000000000000000000000008152600401612efe90615449565b60405180910390fd5b600261012d81905550565b6000612f1c612e77565b8361013460008273ffffffffffffffffffffffffffffffffffffffff1673ffffffffffffffffffffffffffffffffffffffff16815260200190815260200160002060009054906101000a900460ff16612faa576040517f08c379a0000000000000000000000000000000000000000000000000000000008152600401612fa19061492f565b60405180910390fd5b6000612fb8338787876125ab565b905060008111612ffd576040517f08c379a0000000000000000000000000000000000000000000000000000000008152600401612ff4906154db565b60405180910390fd5b8061012f60009054906101000a900473ffffffffffffffffffffffffffffffffffffffff1673ffffffffffffffffffffffffffffffffffffffff166370a08231306040518263ffffffff1660e01b815260040161305a9190615376565b602060405180830381865afa158015613077573d6000803e3d6000fd5b505050506040513d601f19601f8201168201806040525081019061309b9190614964565b10156130dc576040517f08c379a00000000000000000000000000000000000000000000000000000000081526004016130d39061556d565b60405180910390fd5b4261012e60003373ffffffffffffffffffffffffffffffffffffffff1673ffffffffffffffffffffffffffffffffffffffff16815260200190815260200160002060008873ffffffffffffffffffffffffffffffffffffffff1673ffffffffffffffffffffffffffffffffffffffff1681526020019081526020016000206000878152602001908152602001600020858154811061317d5761317c614785565b5b90600052602060002090600202016001018190555061012f60009054906101000a900473ffffffffffffffffffffffffffffffffffffffff1673ffffffffffffffffffffffffffffffffffffffff1663a9059cbb33836040518363ffffffff1660e01b81526004016131f0929190614466565b6020604051808303816000875af115801561320f573d6000803e3d6000fd5b505050506040513d601f19601f8201168201806040525081019061323391906144a4565b503373ffffffffffffffffffffffffffffffffffffffff167ffc30cddea38e2bf4d6ea7d3f9ed3b6ad7f176419f4963bd81318067a4aee73fe8260405161327a9190613efc565b60405180910390a26001925050509392505050565b600161012d81905550565b6000808273ffffffffffffffffffffffffffffffffffffffff163b119050919050565b600060019054906101000a900460ff1661330c576040517f08c379a0000000000000000000000000000000000000000000000000000000008152600401613303906155ff565b60405180910390fd5b565b600060019054906101000a900460ff1661335d576040517f08c379a0000000000000000000000000000000000000000000000000000000008152600401613354906155ff565b60405180910390fd5b565b613367612e77565b6001603360006101000a81548160ff0219169083151502179055507f62e78cea01bee320cd4e420270b5ea74000d11b0c9f74754ebdbfc544b05a2586133ab612b54565b6040516133b89190615376565b60405180910390a1565b60007f01ffc9a7000000000000000000000000000000000000000000000000000000007bffffffffffffffffffffffffffffffffffffffffffffffffffffffff1916827bffffffffffffffffffffffffffffffffffffffffffffffffffffffff1916149050919050565b6134368282611c3e565b6134ad57613443816135f3565b6134518360001c6020613620565b604051602001613462929190615731565b6040516020818303038152906040526040517f08c379a00000000000000000000000000000000000000000000000000000000081526004016134a491906157a4565b60405180910390fd5b5050565b6000819050919050565b6000819050919050565b6134ce8161329a565b61350d576040517f08c379a000000000000000000000000000000000000000000000000000000000815260040161350490615838565b60405180910390fd5b8061353a7f360894a13ba1a3210667c828492db98dca3e2076cc3735a920a3ca505d382bbc60001b6134b1565b60000160006101000a81548173ffffffffffffffffffffffffffffffffffffffff021916908373ffffffffffffffffffffffffffffffffffffffff16021790555050565b6135878361385c565b6000825111806135945750805b156135a5576135a383836138ab565b505b505050565b6135b2610fc0565b6135f1576040517f08c379a00000000000000000000000000000000000000000000000000000000081526004016135e8906158a4565b60405180910390fd5b565b60606136198273ffffffffffffffffffffffffffffffffffffffff16601460ff16613620565b9050919050565b60606000600283600261363391906151b6565b61363d91906158c4565b67ffffffffffffffff81111561365657613655613cb9565b5b6040519080825280601f01601f1916602001820160405280156136885781602001600182028036833780820191505090505b5090507f3000000000000000000000000000000000000000000000000000000000000000816000815181106136c0576136bf614785565b5b60200101907effffffffffffffffffffffffffffffffffffffffffffffffffffffffffffff1916908160001a9053507f78000000000000000000000000000000000000000000000000000000000000008160018151811061372457613723614785565b5b60200101907effffffffffffffffffffffffffffffffffffffffffffffffffffffffffffff1916908160001a9053506000600184600261376491906151b6565b61376e91906158c4565b90505b600181111561380e577f3031323334353637383961626364656600000000000000000000000000000000600f8616601081106137b0576137af614785565b5b1a60f81b8282815181106137c7576137c6614785565b5b60200101907effffffffffffffffffffffffffffffffffffffffffffffffffffffffffffff1916908160001a905350600485901c9450806138079061591a565b9050613771565b5060008414613852576040517f08c379a00000000000000000000000000000000000000000000000000000000081526004016138499061598f565b60405180910390fd5b8091505092915050565b613865816134c5565b8073ffffffffffffffffffffffffffffffffffffffff167fbc7cd75a20ee27fd9adebab32041f755214dbc6bffa90cc0225b39da2e5c2d3b60405160405180910390a250565b60606138b68361329a565b6138f5576040517f08c379a00000000000000000000000000000000000000000000000000000000081526004016138ec90615a21565b60405180910390fd5b6000808473ffffffffffffffffffffffffffffffffffffffff168460405161391d9190615a88565b600060405180830381855af49150503d8060008114613958576040519150601f19603f3d011682016040523d82523d6000602084013e61395d565b606091505b50915091506139858282604051806060016040528060278152602001615aa06027913961398f565b9250505092915050565b6060831561399f578290506139aa565b6139a983836139b1565b5b9392505050565b6000825111156139c45781518083602001fd5b806040517f08c379a00000000000000000000000000000000000000000000000000000000081526004016139f891906157a4565b60405180910390fd5b6000604051905090565b600080fd5b600080fd5b60007fffffffff0000000000000000000000000000000000000000000000000000000082169050919050565b613a4a81613a15565b8114613a5557600080fd5b50565b600081359050613a6781613a41565b92915050565b600060208284031215613a8357613a82613a0b565b5b6000613a9184828501613a58565b91505092915050565b60008115159050919050565b613aaf81613a9a565b82525050565b6000602082019050613aca6000830184613aa6565b92915050565b600073ffffffffffffffffffffffffffffffffffffffff82169050919050565b6000613afb82613ad0565b9050919050565b613b0b81613af0565b8114613b1657600080fd5b50565b600081359050613b2881613b02565b92915050565b6000819050919050565b613b4181613b2e565b8114613b4c57600080fd5b50565b600081359050613b5e81613b38565b92915050565b60008060408385031215613b7b57613b7a613a0b565b5b6000613b8985828601613b19565b9250506020613b9a85828601613b4f565b9150509250929050565b6000819050919050565b613bb781613ba4565b8114613bc257600080fd5b50565b600081359050613bd481613bae565b92915050565b600060208284031215613bf057613bef613a0b565b5b6000613bfe84828501613bc5565b91505092915050565b613c1081613ba4565b82525050565b6000602082019050613c2b6000830184613c07565b92915050565b60008060408385031215613c4857613c47613a0b565b5b6000613c5685828601613bc5565b9250506020613c6785828601613b19565b9150509250929050565b600060208284031215613c8757613c86613a0b565b5b6000613c9584828501613b19565b91505092915050565b600080fd5b600080fd5b6000601f19601f8301169050919050565b7f4e487b7100000000000000000000000000000000000000000000000000000000600052604160045260246000fd5b613cf182613ca8565b810181811067ffffffffffffffff82111715613d1057613d0f613cb9565b5b80604052505050565b6000613d23613a01565b9050613d2f8282613ce8565b919050565b600067ffffffffffffffff821115613d4f57613d4e613cb9565b5b613d5882613ca8565b9050602081019050919050565b82818337600083830152505050565b6000613d87613d8284613d34565b613d19565b905082815260208101848484011115613da357613da2613ca3565b5b613dae848285613d65565b509392505050565b600082601f830112613dcb57613dca613c9e565b5b8135613ddb848260208601613d74565b91505092915050565b60008060408385031215613dfb57613dfa613a0b565b5b6000613e0985828601613b19565b925050602083013567ffffffffffffffff811115613e2a57613e29613a10565b5b613e3685828601613db6565b9150509250929050565b600080fd5b600080fd5b60008083601f840112613e6057613e5f613c9e565b5b8235905067ffffffffffffffff811115613e7d57613e7c613e40565b5b602083019150836020820283011115613e9957613e98613e45565b5b9250929050565b60008060208385031215613eb757613eb6613a0b565b5b600083013567ffffffffffffffff811115613ed557613ed4613a10565b5b613ee185828601613e4a565b92509250509250929050565b613ef681613b2e565b82525050565b6000602082019050613f116000830184613eed565b92915050565b600060208284031215613f2d57613f2c613a0b565b5b6000613f3b84828501613b4f565b91505092915050565b600080600060608486031215613f5d57613f5c613a0b565b5b6000613f6b86828701613b19565b9350506020613f7c86828701613b4f565b9250506040613f8d86828701613b4f565b9150509250925092565b60008060008060808587031215613fb157613fb0613a0b565b5b6000613fbf87828801613b19565b9450506020613fd087828801613b19565b9350506040613fe187828801613b4f565b9250506060613ff287828801613b4f565b91505092959194509250565b60006040820190506140136000830185613eed565b6140206020830184613eed565b9392505050565b6000806000806080858703121561404157614040613a0b565b5b600061404f87828801613b19565b945050602061406087828801613b4f565b935050604061407187828801613b4f565b925050606061408287828801613b4f565b91505092959194509250565b600067ffffffffffffffff8211156140a9576140a8613cb9565b5b602082029050602081019050919050565b60006140cd6140c88461408e565b613d19565b905080838252602082019050602084028301858111156140f0576140ef613e45565b5b835b8181101561411957806141058882613b4f565b8452602084019350506020810190506140f2565b5050509392505050565b600082601f83011261413857614137613c9e565b5b81356141488482602086016140ba565b91505092915050565b600080600080600060a0868803121561416d5761416c613a0b565b5b600061417b88828901613b19565b955050602061418c88828901613b19565b945050604086013567ffffffffffffffff8111156141ad576141ac613a10565b5b6141b988828901614123565b935050606086013567ffffffffffffffff8111156141da576141d9613a10565b5b6141e688828901614123565b925050608086013567ffffffffffffffff81111561420757614206613a10565b5b61421388828901613db6565b9150509295509295909350565b61422981613a15565b82525050565b60006020820190506142446000830184614220565b92915050565b61425381613a9a565b811461425e57600080fd5b50565b6000813590506142708161424a565b92915050565b60006020828403121561428c5761428b613a0b565b5b600061429a84828501614261565b91505092915050565b600080600080600060a086880312156142bf576142be613a0b565b5b60006142cd88828901613b19565b95505060206142de88828901613b19565b94505060406142ef88828901613b4f565b935050606061430088828901613b4f565b925050608086013567ffffffffffffffff81111561432157614320613a10565b5b61432d88828901613db6565b9150509295509295909350565b6000819050919050565b600061435f61435a61435584613ad0565b61433a565b613ad0565b9050919050565b600061437182614344565b9050919050565b600061438382614366565b9050919050565b61439381614378565b82525050565b60006020820190506143ae600083018461438a565b92915050565b600082825260208201905092915050565b7f57686974656c6973743a204f6e6c792061646d696e2063616e2063616c6c207460008201527f686973206d6574686f6400000000000000000000000000000000000000000000602082015250565b6000614421602a836143b4565b915061442c826143c5565b604082019050919050565b6000602082019050818103600083015261445081614414565b9050919050565b61446081613af0565b82525050565b600060408201905061447b6000830185614457565b6144886020830184613eed565b9392505050565b60008151905061449e8161424a565b92915050565b6000602082840312156144ba576144b9613a0b565b5b60006144c88482850161448f565b91505092915050565b7f546f6b656e207472616e73666572206661696c65642100000000000000000000600082015250565b60006145076016836143b4565b9150614512826144d1565b602082019050919050565b60006020820190508181036000830152614536816144fa565b9050919050565b7f416363657373436f6e74726f6c3a2063616e206f6e6c792072656e6f756e636560008201527f20726f6c657320666f722073656c660000000000000000000000000000000000602082015250565b6000614599602f836143b4565b91506145a48261453d565b604082019050919050565b600060208201905081810360008301526145c88161458c565b9050919050565b7f46756e6374696f6e206d7573742062652063616c6c6564207468726f7567682060008201527f64656c656761746563616c6c0000000000000000000000000000000000000000602082015250565b600061462b602c836143b4565b9150614636826145cf565b604082019050919050565b6000602082019050818103600083015261465a8161461e565b9050919050565b7f46756e6374696f6e206d7573742062652063616c6c6564207468726f7567682060008201527f6163746976652070726f78790000000000000000000000000000000000000000602082015250565b60006146bd602c836143b4565b91506146c882614661565b604082019050919050565b600060208201905081810360008301526146ec816146b0565b9050919050565b7f555550535570677261646561626c653a206d757374206e6f742062652063616c60008201527f6c6564207468726f7567682064656c656761746563616c6c0000000000000000602082015250565b600061474f6038836143b4565b915061475a826146f3565b604082019050919050565b6000602082019050818103600083015261477e81614742565b9050919050565b7f4e487b7100000000000000000000000000000000000000000000000000000000600052603260045260246000fd5b7f57686974656c6973743a204163636f756e74206973206e6f742077686974656c60008201527f6973746564000000000000000000000000000000000000000000000000000000602082015250565b60006148106025836143b4565b915061481b826147b4565b604082019050919050565b6000602082019050818103600083015261483f81614803565b9050919050565b7f4e487b7100000000000000000000000000000000000000000000000000000000600052601160045260246000fd5b600061488082613b2e565b91507fffffffffffffffffffffffffffffffffffffffffffffffffffffffffffffffff82036148b2576148b1614846565b5b600182019050919050565b7f57686974656c6973743a204e465420636f6e7472616374206973206e6f74207760008201527f686974656c697374656400000000000000000000000000000000000000000000602082015250565b6000614919602a836143b4565b9150614924826148bd565b604082019050919050565b600060208201905081810360008301526149488161490c565b9050919050565b60008151905061495e81613b38565b92915050565b60006020828403121561497a57614979613a0b565b5b60006149888482850161494f565b91505092915050565b7f546f6b656e5374616b696e673a2043616c6c6572206d7573742068617665207360008201527f756666696369656e74204552433131353520746f6b656e2062616c616e636500602082015250565b60006149ed603f836143b4565b91506149f882614991565b604082019050919050565b60006020820190508181036000830152614a1c816149e0565b9050919050565b600082825260208201905092915050565b7f3078000000000000000000000000000000000000000000000000000000000000600082015250565b6000614a6a600283614a23565b9150614a7582614a34565b602082019050919050565b600060a082019050614a956000830187614457565b614aa26020830186614457565b614aaf6040830185613eed565b614abc6060830184613eed565b8181036080830152614acd81614a5d565b905095945050505050565b7f546f6b656e5374616b696e673a2045524337323120746f6b656e206973206e6f60008201527f74205374616b6564000000000000000000000000000000000000000000000000602082015250565b6000614b346028836143b4565b9150614b3f82614ad8565b604082019050919050565b60006020820190508181036000830152614b6381614b27565b9050919050565b600081519050614b7981613b02565b92915050565b600060208284031215614b9557614b94613a0b565b5b6000614ba384828501614b6a565b91505092915050565b7f546f6b656e5374616b696e673a20436f6e7472616374206d757374206f776e2060008201527f7468652045524337323120746f6b656e00000000000000000000000000000000602082015250565b6000614c086030836143b4565b9150614c1382614bac565b604082019050919050565b60006020820190508181036000830152614c3781614bfb565b9050919050565b6000614c4982613b2e565b9150614c5483613b2e565b925082821015614c6757614c66614846565b5b828203905092915050565b6000606082019050614c876000830186614457565b614c946020830185614457565b614ca16040830184613eed565b949350505050565b6000819050919050565b6000614cce614cc9614cc484614ca9565b61433a565b613b2e565b9050919050565b614cde81614cb3565b82525050565b6000602082019050614cf96000830184614cd5565b92915050565b7f496e697469616c697a61626c653a20636f6e747261637420697320616c72656160008201527f647920696e697469616c697a6564000000000000000000000000000000000000602082015250565b6000614d5b602e836143b4565b9150614d6682614cff565b604082019050919050565b60006020820190508181036000830152614d8a81614d4e565b9050919050565b600060ff82169050919050565b6000614db9614db4614daf84614ca9565b61433a565b614d91565b9050919050565b614dc981614d9e565b82525050565b6000602082019050614de46000830184614dc0565b92915050565b7f57686974656c6973743a2043616e6e6f7420616464207a65726f20616464726560008201527f7373000000000000000000000000000000000000000000000000000000000000602082015250565b6000614e466022836143b4565b9150614e5182614dea565b604082019050919050565b60006020820190508181036000830152614e7581614e39565b9050919050565b7f546f6b656e5374616b696e673a20496e73756666696369656e74205374616b6560008201527f64204552433131353520746f6b656e2062616c616e6365000000000000000000602082015250565b6000614ed86037836143b4565b9150614ee382614e7c565b604082019050919050565b60006020820190508181036000830152614f0781614ecb565b9050919050565b7f546f6b656e5374616b696e673a20436f6e7472616374206d757374206861766560008201527f2073756666696369656e74204552433131353520746f6b656e2062616c616e6360208201527f6500000000000000000000000000000000000000000000000000000000000000604082015250565b6000614f906041836143b4565b9150614f9b82614f0e565b606082019050919050565b60006020820190508181036000830152614fbf81614f83565b9050919050565b7f546f6b656e5374616b696e673a2043616c6c6572206d757374206f776e20746860008201527f652045524337323120746f6b656e000000000000000000000000000000000000602082015250565b6000615022602e836143b4565b915061502d82614fc6565b604082019050919050565b6000602082019050818103600083015261505181615015565b9050919050565b7f546f6b656e5374616b696e673a20696e76616c696420696e6465780000000000600082015250565b600061508e601b836143b4565b915061509982615058565b602082019050919050565b600060208201905081810360008301526150bd81615081565b9050919050565b7f4e487b7100000000000000000000000000000000000000000000000000000000600052601260045260246000fd5b60006150fe82613b2e565b915061510983613b2e565b925082615119576151186150c4565b5b828204905092915050565b7f546f6b656e5374616b696e673a205374616b696e67206475726174696f6e206960008201527f73206e6f7420636f6d706c657465640000000000000000000000000000000000602082015250565b6000615180602f836143b4565b915061518b82615124565b604082019050919050565b600060208201905081810360008301526151af81615173565b9050919050565b60006151c182613b2e565b91506151cc83613b2e565b9250817fffffffffffffffffffffffffffffffffffffffffffffffffffffffffffffffff048311821515161561520557615204614846565b5b828202905092915050565b60008151905061521f81613bae565b92915050565b60006020828403121561523b5761523a613a0b565b5b600061524984828501615210565b91505092915050565b7f45524331393637557067726164653a206e657720696d706c656d656e7461746960008201527f6f6e206973206e6f742055555053000000000000000000000000000000000000602082015250565b60006152ae602e836143b4565b91506152b982615252565b604082019050919050565b600060208201905081810360008301526152dd816152a1565b9050919050565b7f45524331393637557067726164653a20756e737570706f727465642070726f7860008201527f6961626c65555549440000000000000000000000000000000000000000000000602082015250565b60006153406029836143b4565b915061534b826152e4565b604082019050919050565b6000602082019050818103600083015261536f81615333565b9050919050565b600060208201905061538b6000830184614457565b92915050565b7f5061757361626c653a2070617573656400000000000000000000000000000000600082015250565b60006153c76010836143b4565b91506153d282615391565b602082019050919050565b600060208201905081810360008301526153f6816153ba565b9050919050565b7f5265656e7472616e637947756172643a207265656e7472616e742063616c6c00600082015250565b6000615433601f836143b4565b915061543e826153fd565b602082019050919050565b6000602082019050818103600083015261546281615426565b9050919050565b7f546f6b656e5374616b696e673a204e6f207265776172647320617661696c616260008201527f6c65000000000000000000000000000000000000000000000000000000000000602082015250565b60006154c56022836143b4565b91506154d082615469565b604082019050919050565b600060208201905081810360008301526154f4816154b8565b9050919050565b7f546f6b656e5374616b696e673a20496e73756666696369656e7420726577617260008201527f642062616c616e63650000000000000000000000000000000000000000000000602082015250565b60006155576029836143b4565b9150615562826154fb565b604082019050919050565b600060208201905081810360008301526155868161554a565b9050919050565b7f496e697469616c697a61626c653a20636f6e7472616374206973206e6f74206960008201527f6e697469616c697a696e67000000000000000000000000000000000000000000602082015250565b60006155e9602b836143b4565b91506155f48261558d565b604082019050919050565b60006020820190508181036000830152615618816155dc565b9050919050565b600081905092915050565b7f416363657373436f6e74726f6c3a206163636f756e7420000000000000000000600082015250565b600061566060178361561f565b915061566b8261562a565b601782019050919050565b600081519050919050565b60005b8381101561569f578082015181840152602081019050615684565b838111156156ae576000848401525b50505050565b60006156bf82615676565b6156c9818561561f565b93506156d9818560208601615681565b80840191505092915050565b7f206973206d697373696e6720726f6c6520000000000000000000000000000000600082015250565b600061571b60118361561f565b9150615726826156e5565b601182019050919050565b600061573c82615653565b915061574882856156b4565b91506157538261570e565b915061575f82846156b4565b91508190509392505050565b600061577682615676565b61578081856143b4565b9350615790818560208601615681565b61579981613ca8565b840191505092915050565b600060208201905081810360008301526157be818461576b565b905092915050565b7f455243313936373a206e657720696d706c656d656e746174696f6e206973206e60008201527f6f74206120636f6e747261637400000000000000000000000000000000000000602082015250565b6000615822602d836143b4565b915061582d826157c6565b604082019050919050565b6000602082019050818103600083015261585181615815565b9050919050565b7f5061757361626c653a206e6f7420706175736564000000000000000000000000600082015250565b600061588e6014836143b4565b915061589982615858565b602082019050919050565b600060208201905081810360008301526158bd81615881565b9050919050565b60006158cf82613b2e565b91506158da83613b2e565b9250827fffffffffffffffffffffffffffffffffffffffffffffffffffffffffffffffff0382111561590f5761590e614846565b5b828201905092915050565b600061592582613b2e565b91506000820361593857615937614846565b5b600182039050919050565b7f537472696e67733a20686578206c656e67746820696e73756666696369656e74600082015250565b60006159796020836143b4565b915061598482615943565b602082019050919050565b600060208201905081810360008301526159a88161596c565b9050919050565b7f416464726573733a2064656c65676174652063616c6c20746f206e6f6e2d636f60008201527f6e74726163740000000000000000000000000000000000000000000000000000602082015250565b6000615a0b6026836143b4565b9150615a16826159af565b604082019050919050565b60006020820190508181036000830152615a3a816159fe565b9050919050565b600081519050919050565b600081905092915050565b6000615a6282615a41565b615a6c8185615a4c565b9350615a7c818560208601615681565b80840191505092915050565b6000615a948284615a57565b91508190509291505056fe416464726573733a206c6f772d6c6576656c2064656c65676174652063616c6c206661696c6564a2646970667358221220d34872b94ff6733763af13171ac99c1d6a8eabd90255064f39efe90f379125cd64736f6c634300080e0033",
  "immutableReferences": {
    "1004": [
      {
        "length": 32,
        "start": 2592
      },
      {
        "length": 32,
        "start": 2734
      },
      {
        "length": 32,
        "start": 3070
      },
      {
        "length": 32,
        "start": 3212
      },
      {
        "length": 32,
        "start": 3388
      }
    ]
  },
  "source": "// SPDX-License-Identifier: MIT\r\npragma solidity ^0.8.0;\r\n\r\nimport \"@openzeppelin/contracts/token/ERC721/ERC721.sol\";\r\nimport \"@openzeppelin/contracts/token/ERC721/IERC721Receiver.sol\";\r\nimport \"@openzeppelin/contracts/token/ERC1155/ERC1155.sol\";\r\nimport \"@openzeppelin/contracts/token/ERC1155/utils/ERC1155Holder.sol\";\r\nimport \"@openzeppelin/contracts/token/ERC20/ERC20.sol\";\r\nimport \"@openzeppelin/contracts-upgradeable/security/PausableUpgradeable.sol\";\r\nimport \"@openzeppelin/contracts-upgradeable/access/AccessControlUpgradeable.sol\";\r\nimport \"@openzeppelin/contracts-upgradeable/proxy/utils/Initializable.sol\";\r\nimport \"@openzeppelin/contracts-upgradeable/proxy/utils/UUPSUpgradeable.sol\";\r\nimport \"@openzeppelin/contracts/security/ReentrancyGuard.sol\";\r\n\r\ncontract StakingNFT is PausableUpgradeable, AccessControlUpgradeable, UUPSUpgradeable, ReentrancyGuard, ERC1155Holder {\r\n  struct StakingInfo {\r\n    uint256 stakedAmount;\r\n    uint256 timeOfLastUpdate;\r\n  }\r\n\r\n  // user => contract=> tokenid => StakingInfo\r\n  mapping(address => mapping(address => mapping(uint256 => StakingInfo[]))) public stakedBalances;\r\n\r\n  // the staking and reward token\r\n  IERC20 public rewardToken;\r\n  // the reward rate in percentage\r\n  uint256 public rewardRate;\r\n  // the reward rate duration\r\n  // so the final reward rate will be re (rewardRate/rewardRateDuration)\r\n  uint256 public rewardRateDuration;\r\n\r\n  // Total stake amount\r\n  uint256 public totalStakedAmount;\r\n\r\n  // pay Reward in crypto\r\n  bool public payReward;\r\n\r\n  mapping(address => bool) public whitelistContracts;\r\n\r\n  /**************************************************/\r\n  /******************** Events **********************/\r\n  /**************************************************/\r\n  event TokensStaked(address indexed user, address indexed tokenContract, uint256 indexed tokenId, uint256 amount);\r\n  event TokensUnstaked(address indexed user, address indexed tokenContract, uint256 indexed tokenId, uint256 amount);\r\n  event RewardsClaimed(address indexed user, uint256 amount);\r\n\r\n  event AddressAdded(address indexed account);\r\n  event AddressRemoved(address indexed account);\r\n\r\n  /**************************************************/\r\n  /****************** Constructor *******************/\r\n  /**************************************************/\r\n  /// @custom:oz-upgrades-unsafe-allow constructor\r\n  constructor() {\r\n    _disableInitializers();\r\n  }\r\n\r\n  function initialize(address _rewardToken, uint256 _rewardRate, uint256 _rewardRateDuration) public initializer {\r\n    rewardToken = IERC20(_rewardToken);\r\n    rewardRate = _rewardRate;\r\n    rewardRateDuration = _rewardRateDuration;\r\n\r\n    __AccessControl_init();\r\n    __UUPSUpgradeable_init();\r\n    _grantRole(DEFAULT_ADMIN_ROLE, msg.sender);\r\n  }\r\n\r\n  /**************************************************/\r\n  /*******************  Modifiers *******************/\r\n  /**************************************************/\r\n  modifier amountGreaterThenZero(uint256 _amount) {\r\n    require(_amount > 0, \"Amount can't be zero\");\r\n    _;\r\n  }\r\n\r\n  modifier onlyWhitelisted(address _stakTokenContractAddress) {\r\n    require(whitelistContracts[_stakTokenContractAddress], \"Whitelist: NFT contract is not whitelisted\");\r\n    _;\r\n  }\r\n\r\n  modifier onlyAdmin() {\r\n    require(hasRole(DEFAULT_ADMIN_ROLE, msg.sender), \"Whitelist: Only admin can call this method\");\r\n    _;\r\n  }\r\n\r\n  /**************************************************/\r\n  /************** Internal View Functions *************/\r\n  /**************************************************/\r\n  // helper function\r\n  function _getPortion(uint256 _amount, uint256 _percentage) internal pure returns (uint256) {\r\n    return (_amount * _percentage) / 1000;\r\n  }\r\n\r\n  /**************************************************/\r\n  /*************Owner Calling Functions *************/\r\n  /**************************************************/\r\n\r\n  // set the reward rate\r\n  function setRewardRate(uint256 _rewardRate) external onlyAdmin {\r\n    rewardRate = _rewardRate;\r\n  }\r\n\r\n  // set the reward rate duration\r\n  function setRewardRateDuration(uint256 _rewardRateDuration) external onlyAdmin {\r\n    rewardRateDuration = _rewardRateDuration;\r\n  }\r\n\r\n  // set the payReward\r\n  function setPayReward(bool _payReward) external onlyAdmin {\r\n    payReward = _payReward;\r\n  }\r\n\r\n  // transfer token from this account to other if needed\r\n  function transferToken(address _to, uint256 _amount) external onlyAdmin {\r\n    require(rewardToken.transfer(_to, _amount), \"Token transfer failed!\");\r\n  }\r\n\r\n  function pause() public onlyAdmin {\r\n    _pause();\r\n  }\r\n\r\n  function unpause() public onlyAdmin {\r\n    _unpause();\r\n  }\r\n\r\n  /**************************************************/\r\n  /********** External Contract Functions ***********/\r\n  /**************************************************/\r\n  function stakERC721Token(\r\n    address _erc721Contract,\r\n    uint256 _tokenId\r\n  ) external onlyWhitelisted(_erc721Contract) whenNotPaused returns (uint256 index) {\r\n    require(IERC721(_erc721Contract).ownerOf(_tokenId) == msg.sender, \"TokenStaking: Caller must own the ERC721 token\");\r\n\r\n    IERC721(_erc721Contract).transferFrom(msg.sender, address(this), _tokenId);\r\n\r\n    StakingInfo memory newStaking = StakingInfo({ stakedAmount: 1, timeOfLastUpdate: block.timestamp });\r\n\r\n    index = stakedBalances[msg.sender][_erc721Contract][_tokenId].length;\r\n    stakedBalances[msg.sender][_erc721Contract][_tokenId].push(newStaking);\r\n\r\n    emit TokensStaked(msg.sender, _erc721Contract, _tokenId, 1);\r\n\r\n    return index;\r\n  }\r\n\r\n  function stakERC1155Token(\r\n    address _erc1155Contract,\r\n    uint256 _tokenId,\r\n    uint256 _stakedAmount\r\n  ) external onlyWhitelisted(_erc1155Contract) whenNotPaused returns (uint256 index) {\r\n    require(\r\n      IERC1155(_erc1155Contract).balanceOf(msg.sender, _tokenId) >= _stakedAmount,\r\n      \"TokenStaking: Caller must have sufficient ERC1155 token balance\"\r\n    );\r\n\r\n    IERC1155(_erc1155Contract).safeTransferFrom(msg.sender, address(this), _tokenId, _stakedAmount, \"0x\");\r\n\r\n    StakingInfo memory newStaking = StakingInfo({ stakedAmount: _stakedAmount, timeOfLastUpdate: block.timestamp });\r\n\r\n    index = stakedBalances[msg.sender][_erc1155Contract][_tokenId].length;\r\n    stakedBalances[msg.sender][_erc1155Contract][_tokenId].push(newStaking);\r\n\r\n    emit TokensStaked(msg.sender, _erc1155Contract, _tokenId, _stakedAmount);\r\n\r\n    return index;\r\n  }\r\n\r\n  function unStakERC721Token(\r\n    address _erc721Contract,\r\n    uint256 _tokenId,\r\n    uint256 _index\r\n  ) external onlyWhitelisted(_erc721Contract) whenNotPaused nonReentrant {\r\n    require(\r\n      stakedBalances[msg.sender][_erc721Contract][_tokenId][_index].stakedAmount >= 1,\r\n      \"TokenStaking: ERC721 token is not Staked\"\r\n    );\r\n\r\n    require(\r\n      IERC721(_erc721Contract).ownerOf(_tokenId) == address(this),\r\n      \"TokenStaking: Contract must own the ERC721 token\"\r\n    );\r\n\r\n    // claim all rewards for current time\r\n    if (payReward) {\r\n      claimRewards(_erc721Contract, _tokenId, _index);\r\n    }\r\n\r\n    stakedBalances[msg.sender][_erc721Contract][_tokenId][_index].stakedAmount -= 1;\r\n\r\n    IERC721(_erc721Contract).transferFrom(address(this), msg.sender, _tokenId);\r\n\r\n    emit TokensUnstaked(msg.sender, _erc721Contract, _tokenId, 1);\r\n  }\r\n\r\n  function unStakERC1155Token(\r\n    address _erc1155Contract,\r\n    uint256 _tokenId,\r\n    uint256 _unStakedAmount,\r\n    uint256 _index\r\n  ) external onlyWhitelisted(_erc1155Contract) nonReentrant {\r\n    require(\r\n      stakedBalances[msg.sender][_erc1155Contract][_tokenId][_index].stakedAmount >= _unStakedAmount,\r\n      \"TokenStaking: Insufficient Staked ERC1155 token balance\"\r\n    );\r\n\r\n    require(\r\n      IERC1155(_erc1155Contract).balanceOf(address(this), _tokenId) >= _unStakedAmount,\r\n      \"TokenStaking: Contract must have sufficient ERC1155 token balance\"\r\n    );\r\n\r\n    // claim all rewards for current time\r\n    if (payReward) {\r\n      claimRewards(_erc1155Contract, _tokenId, _index);\r\n    }\r\n    stakedBalances[msg.sender][_erc1155Contract][_tokenId][_index].stakedAmount -= _unStakedAmount;\r\n\r\n    IERC1155(_erc1155Contract).safeTransferFrom(address(this), msg.sender, _tokenId, _unStakedAmount, \"0x\");\r\n\r\n    emit TokensUnstaked(msg.sender, _erc1155Contract, _tokenId, _unStakedAmount);\r\n  }\r\n\r\n  function claimRewards(\r\n    address _tokenContract,\r\n    uint256 _tokenId,\r\n    uint256 _index\r\n  ) internal whenNotPaused onlyWhitelisted(_tokenContract) returns (bool) {\r\n    // get claimed amount _msgSender\r\n    uint256 rewards = calculateRewards(msg.sender, _tokenContract, _tokenId, _index);\r\n\r\n    require(rewards > 0, \"TokenStaking: No rewards available\");\r\n    require(rewardToken.balanceOf(address(this)) >= rewards, \"TokenStaking: Insufficient reward balance\");\r\n\r\n    stakedBalances[msg.sender][_tokenContract][_tokenId][_index].timeOfLastUpdate = block.timestamp;\r\n\r\n    // transfer reward amount\r\n    rewardToken.transfer(msg.sender, rewards);\r\n\r\n    emit RewardsClaimed(msg.sender, rewards);\r\n\r\n    return true;\r\n  }\r\n\r\n  function calculateRewards(\r\n    address _user,\r\n    address _tokenContract,\r\n    uint256 _tokenId,\r\n    uint256 _index\r\n  ) public view returns (uint256) {\r\n    require(stakedBalances[_user][_tokenContract][_tokenId].length > _index, \"TokenStaking: invalid index\");\r\n    if (stakedBalances[_user][_tokenContract][_tokenId][_index].stakedAmount > 0) {\r\n      uint256 StakingTime = block.timestamp - stakedBalances[_user][_tokenContract][_tokenId][_index].timeOfLastUpdate;\r\n      uint256 rewardDuration = StakingTime / rewardRateDuration;\r\n      require(rewardDuration > 0, \"TokenStaking: Staking duration is not completed\");\r\n      uint256 totalRewards = rewardRate *\r\n        rewardDuration *\r\n        stakedBalances[_user][_tokenContract][_tokenId][_index].stakedAmount;\r\n\r\n      return totalRewards;\r\n    }\r\n    return 0;\r\n  }\r\n\r\n  /**************************************************/\r\n  /********* Whitelisted Contract Functions *********/\r\n  /**************************************************/\r\n\r\n  function addToWhitelist(address[] calldata _whitelistContracts) external onlyAdmin {\r\n    for (uint256 i = 0; i < _whitelistContracts.length; i++) {\r\n      address account = _whitelistContracts[i];\r\n      require(account != address(0), \"Whitelist: Cannot add zero address\");\r\n\r\n      if (!whitelistContracts[account]) {\r\n        whitelistContracts[account] = true;\r\n        emit AddressAdded(account);\r\n      }\r\n    }\r\n  }\r\n\r\n  function removeFromWhitelist(address[] calldata _whitelistContracts) external onlyAdmin {\r\n    for (uint256 i = 0; i < _whitelistContracts.length; i++) {\r\n      address account = _whitelistContracts[i];\r\n      require(whitelistContracts[account], \"Whitelist: Account is not whitelisted\");\r\n\r\n      whitelistContracts[account] = false;\r\n      emit AddressRemoved(account);\r\n    }\r\n  }\r\n\r\n  /**\r\n   *  _authorizeUpgrade\r\n   */\r\n  function _authorizeUpgrade(address newImplementation) internal override onlyRole(DEFAULT_ADMIN_ROLE) {}\r\n\r\n  /**\r\n   * @dev See {IERC165-supportsInterface}.\r\n   */\r\n  function supportsInterface(\r\n    bytes4 interfaceId\r\n  ) public view virtual override(ERC1155Receiver, AccessControlUpgradeable) returns (bool) {\r\n    return super.supportsInterface(interfaceId);\r\n  }\r\n}\r\n",
  "sourcePath": "C:\\Users\\Yash\\Desktop\\Temporary\\Github\\marketplace\\src\\contracts\\Stacking.sol",
  "compiler": {
    "name": "solc",
    "version": "0.8.14+commit.80d49f37.Emscripten.clang"
  },
  "schemaVersion": "3.4.13",
  "updatedAt": "2023-07-24T11:18:43.126Z",
  "devdoc": {
    "kind": "dev",
    "methods": {
      "constructor": {
        "custom:oz-upgrades-unsafe-allow": "constructor"
      },
      "getRoleAdmin(bytes32)": {
        "details": "Returns the admin role that controls `role`. See {grantRole} and {revokeRole}. To change a role's admin, use {_setRoleAdmin}."
      },
      "grantRole(bytes32,address)": {
        "details": "Grants `role` to `account`. If `account` had not been already granted `role`, emits a {RoleGranted} event. Requirements: - the caller must have ``role``'s admin role. May emit a {RoleGranted} event."
      },
      "hasRole(bytes32,address)": {
        "details": "Returns `true` if `account` has been granted `role`."
      },
      "paused()": {
        "details": "Returns true if the contract is paused, and false otherwise."
      },
      "proxiableUUID()": {
        "details": "Implementation of the ERC1822 {proxiableUUID} function. This returns the storage slot used by the implementation. It is used to validate the implementation's compatibility when performing an upgrade. IMPORTANT: A proxy pointing at a proxiable contract should not be considered proxiable itself, because this risks bricking a proxy that upgrades to it, by delegating to itself until out of gas. Thus it is critical that this function revert if invoked through a proxy. This is guaranteed by the `notDelegated` modifier."
      },
      "renounceRole(bytes32,address)": {
        "details": "Revokes `role` from the calling account. Roles are often managed via {grantRole} and {revokeRole}: this function's purpose is to provide a mechanism for accounts to lose their privileges if they are compromised (such as when a trusted device is misplaced). If the calling account had been revoked `role`, emits a {RoleRevoked} event. Requirements: - the caller must be `account`. May emit a {RoleRevoked} event."
      },
      "revokeRole(bytes32,address)": {
        "details": "Revokes `role` from `account`. If `account` had been granted `role`, emits a {RoleRevoked} event. Requirements: - the caller must have ``role``'s admin role. May emit a {RoleRevoked} event."
      },
      "supportsInterface(bytes4)": {
        "details": "See {IERC165-supportsInterface}."
      },
      "upgradeTo(address)": {
        "details": "Upgrade the implementation of the proxy to `newImplementation`. Calls {_authorizeUpgrade}. Emits an {Upgraded} event."
      },
      "upgradeToAndCall(address,bytes)": {
        "details": "Upgrade the implementation of the proxy to `newImplementation`, and subsequently execute the function call encoded in `data`. Calls {_authorizeUpgrade}. Emits an {Upgraded} event."
      }
    },
    "version": 1
  },
  "userdoc": {
    "kind": "user",
    "methods": {},
    "version": 1
  }
}