{
  "contractName": "Trade",
  "abi": [
    {
      "inputs": [
        {
          "internalType": "uint8",
          "name": "_buyerFee",
          "type": "uint8"
        },
        {
          "internalType": "uint8",
          "name": "_sellerFee",
          "type": "uint8"
        },
        {
          "internalType": "contract ITransferProxy",
          "name": "_transferProxy",
          "type": "address"
        }
      ],
      "stateMutability": "nonpayable",
      "type": "constructor"
    },
    {
      "anonymous": false,
      "inputs": [
        {
          "indexed": true,
          "internalType": "address",
          "name": "assetOwner",
          "type": "address"
        },
        {
          "indexed": true,
          "internalType": "uint256",
          "name": "tokenId",
          "type": "uint256"
        },
        {
          "indexed": false,
          "internalType": "uint256",
          "name": "quantity",
          "type": "uint256"
        },
        {
          "indexed": true,
          "internalType": "address",
          "name": "buyer",
          "type": "address"
        }
      ],
      "name": "BuyAsset",
      "type": "event"
    },
    {
      "anonymous": false,
      "inputs": [
        {
          "indexed": false,
          "internalType": "uint8",
          "name": "buyerFee",
          "type": "uint8"
        }
      ],
      "name": "BuyerFee",
      "type": "event"
    },
    {
      "anonymous": false,
      "inputs": [
        {
          "indexed": true,
          "internalType": "address",
          "name": "assetOwner",
          "type": "address"
        },
        {
          "indexed": true,
          "internalType": "uint256",
          "name": "tokenId",
          "type": "uint256"
        },
        {
          "indexed": false,
          "internalType": "uint256",
          "name": "quantity",
          "type": "uint256"
        },
        {
          "indexed": true,
          "internalType": "address",
          "name": "buyer",
          "type": "address"
        }
      ],
      "name": "ExecuteBid",
      "type": "event"
    },
    {
      "anonymous": false,
      "inputs": [
        {
          "indexed": true,
          "internalType": "address",
          "name": "previousOwner",
          "type": "address"
        },
        {
          "indexed": true,
          "internalType": "address",
          "name": "newOwner",
          "type": "address"
        }
      ],
      "name": "OwnershipTransferred",
      "type": "event"
    },
    {
      "anonymous": false,
      "inputs": [
        {
          "indexed": true,
          "internalType": "bytes32",
          "name": "role",
          "type": "bytes32"
        },
        {
          "indexed": true,
          "internalType": "bytes32",
          "name": "previousAdminRole",
          "type": "bytes32"
        },
        {
          "indexed": true,
          "internalType": "bytes32",
          "name": "newAdminRole",
          "type": "bytes32"
        }
      ],
      "name": "RoleAdminChanged",
      "type": "event"
    },
    {
      "anonymous": false,
      "inputs": [
        {
          "indexed": true,
          "internalType": "bytes32",
          "name": "role",
          "type": "bytes32"
        },
        {
          "indexed": true,
          "internalType": "address",
          "name": "account",
          "type": "address"
        },
        {
          "indexed": true,
          "internalType": "address",
          "name": "sender",
          "type": "address"
        }
      ],
      "name": "RoleGranted",
      "type": "event"
    },
    {
      "anonymous": false,
      "inputs": [
        {
          "indexed": true,
          "internalType": "bytes32",
          "name": "role",
          "type": "bytes32"
        },
        {
          "indexed": true,
          "internalType": "address",
          "name": "account",
          "type": "address"
        },
        {
          "indexed": true,
          "internalType": "address",
          "name": "sender",
          "type": "address"
        }
      ],
      "name": "RoleRevoked",
      "type": "event"
    },
    {
      "anonymous": false,
      "inputs": [
        {
          "indexed": false,
          "internalType": "uint8",
          "name": "sellerFee",
          "type": "uint8"
        }
      ],
      "name": "SellerFee",
      "type": "event"
    },
    {
      "inputs": [],
      "name": "DEFAULT_ADMIN_ROLE",
      "outputs": [
        {
          "internalType": "bytes32",
          "name": "",
          "type": "bytes32"
        }
      ],
      "stateMutability": "view",
      "type": "function"
    },
    {
      "inputs": [
        {
          "internalType": "bytes32",
          "name": "role",
          "type": "bytes32"
        }
      ],
      "name": "getRoleAdmin",
      "outputs": [
        {
          "internalType": "bytes32",
          "name": "",
          "type": "bytes32"
        }
      ],
      "stateMutability": "view",
      "type": "function"
    },
    {
      "inputs": [
        {
          "internalType": "bytes32",
          "name": "role",
          "type": "bytes32"
        },
        {
          "internalType": "address",
          "name": "account",
          "type": "address"
        }
      ],
      "name": "grantRole",
      "outputs": [],
      "stateMutability": "nonpayable",
      "type": "function"
    },
    {
      "inputs": [
        {
          "internalType": "bytes32",
          "name": "role",
          "type": "bytes32"
        },
        {
          "internalType": "address",
          "name": "account",
          "type": "address"
        }
      ],
      "name": "hasRole",
      "outputs": [
        {
          "internalType": "bool",
          "name": "",
          "type": "bool"
        }
      ],
      "stateMutability": "view",
      "type": "function"
    },
    {
      "inputs": [],
      "name": "owner",
      "outputs": [
        {
          "internalType": "address",
          "name": "",
          "type": "address"
        }
      ],
      "stateMutability": "view",
      "type": "function"
    },
    {
      "inputs": [
        {
          "internalType": "bytes32",
          "name": "role",
          "type": "bytes32"
        },
        {
          "internalType": "address",
          "name": "account",
          "type": "address"
        }
      ],
      "name": "renounceRole",
      "outputs": [],
      "stateMutability": "nonpayable",
      "type": "function"
    },
    {
      "inputs": [
        {
          "internalType": "bytes32",
          "name": "role",
          "type": "bytes32"
        },
        {
          "internalType": "address",
          "name": "account",
          "type": "address"
        }
      ],
      "name": "revokeRole",
      "outputs": [],
      "stateMutability": "nonpayable",
      "type": "function"
    },
    {
      "inputs": [],
      "name": "signer",
      "outputs": [
        {
          "internalType": "address",
          "name": "",
          "type": "address"
        }
      ],
      "stateMutability": "view",
      "type": "function"
    },
    {
      "inputs": [
        {
          "internalType": "bytes4",
          "name": "interfaceId",
          "type": "bytes4"
        }
      ],
      "name": "supportsInterface",
      "outputs": [
        {
          "internalType": "bool",
          "name": "",
          "type": "bool"
        }
      ],
      "stateMutability": "view",
      "type": "function"
    },
    {
      "inputs": [],
      "name": "transferProxy",
      "outputs": [
        {
          "internalType": "contract ITransferProxy",
          "name": "",
          "type": "address"
        }
      ],
      "stateMutability": "view",
      "type": "function"
    },
    {
      "inputs": [],
      "name": "buyerServiceFee",
      "outputs": [
        {
          "internalType": "uint8",
          "name": "",
          "type": "uint8"
        }
      ],
      "stateMutability": "view",
      "type": "function"
    },
    {
      "inputs": [],
      "name": "sellerServiceFee",
      "outputs": [
        {
          "internalType": "uint8",
          "name": "",
          "type": "uint8"
        }
      ],
      "stateMutability": "view",
      "type": "function"
    },
    {
      "inputs": [
        {
          "internalType": "uint8",
          "name": "_buyerFeePermille",
          "type": "uint8"
        }
      ],
      "name": "setBuyerServiceFee",
      "outputs": [],
      "stateMutability": "nonpayable",
      "type": "function"
    },
    {
      "inputs": [
        {
          "internalType": "uint8",
          "name": "_sellerFeePermille",
          "type": "uint8"
        }
      ],
      "name": "setSellerServiceFee",
      "outputs": [],
      "stateMutability": "nonpayable",
      "type": "function"
    },
    {
      "inputs": [
        {
          "internalType": "address",
          "name": "_signer",
          "type": "address"
        }
      ],
      "name": "setSigner",
      "outputs": [],
      "stateMutability": "nonpayable",
      "type": "function"
    },
    {
      "inputs": [
        {
          "internalType": "bytes32",
          "name": "orderHash",
          "type": "bytes32"
        }
      ],
      "name": "isOrderClosed",
      "outputs": [
        {
          "internalType": "bool",
          "name": "",
          "type": "bool"
        }
      ],
      "stateMutability": "view",
      "type": "function"
    },
    {
      "inputs": [
        {
          "components": [
            {
              "internalType": "address",
              "name": "seller",
              "type": "address"
            },
            {
              "internalType": "address",
              "name": "buyer",
              "type": "address"
            },
            {
              "internalType": "address",
              "name": "erc20Address",
              "type": "address"
            },
            {
              "internalType": "address",
              "name": "nftAddress",
              "type": "address"
            },
            {
              "internalType": "enum Trade.BuyingAssetType",
              "name": "nftType",
              "type": "uint8"
            },
            {
              "internalType": "uint256",
              "name": "unitPrice",
              "type": "uint256"
            },
            {
              "internalType": "uint256",
              "name": "nftAmount",
              "type": "uint256"
            },
            {
              "internalType": "bool",
              "name": "skipRoyalty",
              "type": "bool"
            },
            {
              "internalType": "uint256",
              "name": "startDate",
              "type": "uint256"
            },
            {
              "internalType": "uint256",
              "name": "endDate",
              "type": "uint256"
            },
            {
              "internalType": "uint256",
              "name": "tokenId",
              "type": "uint256"
            },
            {
              "internalType": "uint256",
              "name": "amount",
              "type": "uint256"
            },
            {
              "internalType": "uint256",
              "name": "qty",
              "type": "uint256"
            },
            {
              "internalType": "bytes",
              "name": "sellerOrdersignature",
              "type": "bytes"
            },
            {
              "internalType": "bytes",
              "name": "buyerOrdersignature",
              "type": "bytes"
            }
          ],
          "internalType": "struct Trade.Order",
          "name": "order",
          "type": "tuple"
        }
      ],
      "name": "cancelOrder",
      "outputs": [
        {
          "internalType": "bool",
          "name": "",
          "type": "bool"
        }
      ],
      "stateMutability": "nonpayable",
      "type": "function"
    },
    {
      "inputs": [
        {
          "components": [
            {
              "internalType": "address",
              "name": "seller",
              "type": "address"
            },
            {
              "internalType": "address",
              "name": "buyer",
              "type": "address"
            },
            {
              "internalType": "address",
              "name": "erc20Address",
              "type": "address"
            },
            {
              "internalType": "address",
              "name": "nftAddress",
              "type": "address"
            },
            {
              "internalType": "enum Trade.BuyingAssetType",
              "name": "nftType",
              "type": "uint8"
            },
            {
              "internalType": "uint256",
              "name": "unitPrice",
              "type": "uint256"
            },
            {
              "internalType": "uint256",
              "name": "nftAmount",
              "type": "uint256"
            },
            {
              "internalType": "bool",
              "name": "skipRoyalty",
              "type": "bool"
            },
            {
              "internalType": "uint256",
              "name": "startDate",
              "type": "uint256"
            },
            {
              "internalType": "uint256",
              "name": "endDate",
              "type": "uint256"
            },
            {
              "internalType": "uint256",
              "name": "tokenId",
              "type": "uint256"
            },
            {
              "internalType": "uint256",
              "name": "amount",
              "type": "uint256"
            },
            {
              "internalType": "uint256",
              "name": "qty",
              "type": "uint256"
            },
            {
              "internalType": "bytes",
              "name": "sellerOrdersignature",
              "type": "bytes"
            },
            {
              "internalType": "bytes",
              "name": "buyerOrdersignature",
              "type": "bytes"
            }
          ],
          "internalType": "struct Trade.Order",
          "name": "order",
          "type": "tuple"
        }
      ],
      "name": "validateandUpdateOrderForSeller",
      "outputs": [
        {
          "internalType": "bool",
          "name": "",
          "type": "bool"
        }
      ],
      "stateMutability": "nonpayable",
      "type": "function"
    },
    {
      "inputs": [
        {
          "components": [
            {
              "internalType": "address",
              "name": "seller",
              "type": "address"
            },
            {
              "internalType": "address",
              "name": "buyer",
              "type": "address"
            },
            {
              "internalType": "address",
              "name": "erc20Address",
              "type": "address"
            },
            {
              "internalType": "address",
              "name": "nftAddress",
              "type": "address"
            },
            {
              "internalType": "enum Trade.BuyingAssetType",
              "name": "nftType",
              "type": "uint8"
            },
            {
              "internalType": "uint256",
              "name": "unitPrice",
              "type": "uint256"
            },
            {
              "internalType": "uint256",
              "name": "nftAmount",
              "type": "uint256"
            },
            {
              "internalType": "bool",
              "name": "skipRoyalty",
              "type": "bool"
            },
            {
              "internalType": "uint256",
              "name": "startDate",
              "type": "uint256"
            },
            {
              "internalType": "uint256",
              "name": "endDate",
              "type": "uint256"
            },
            {
              "internalType": "uint256",
              "name": "tokenId",
              "type": "uint256"
            },
            {
              "internalType": "uint256",
              "name": "amount",
              "type": "uint256"
            },
            {
              "internalType": "uint256",
              "name": "qty",
              "type": "uint256"
            },
            {
              "internalType": "bytes",
              "name": "sellerOrdersignature",
              "type": "bytes"
            },
            {
              "internalType": "bytes",
              "name": "buyerOrdersignature",
              "type": "bytes"
            }
          ],
          "internalType": "struct Trade.Order",
          "name": "order",
          "type": "tuple"
        }
      ],
      "name": "buyAsset",
      "outputs": [
        {
          "internalType": "bool",
          "name": "",
          "type": "bool"
        }
      ],
      "stateMutability": "nonpayable",
      "type": "function"
    },
    {
      "inputs": [
        {
          "components": [
            {
              "internalType": "address",
              "name": "seller",
              "type": "address"
            },
            {
              "internalType": "address",
              "name": "buyer",
              "type": "address"
            },
            {
              "internalType": "address",
              "name": "erc20Address",
              "type": "address"
            },
            {
              "internalType": "address",
              "name": "nftAddress",
              "type": "address"
            },
            {
              "internalType": "enum Trade.BuyingAssetType",
              "name": "nftType",
              "type": "uint8"
            },
            {
              "internalType": "uint256",
              "name": "unitPrice",
              "type": "uint256"
            },
            {
              "internalType": "uint256",
              "name": "nftAmount",
              "type": "uint256"
            },
            {
              "internalType": "bool",
              "name": "skipRoyalty",
              "type": "bool"
            },
            {
              "internalType": "uint256",
              "name": "startDate",
              "type": "uint256"
            },
            {
              "internalType": "uint256",
              "name": "endDate",
              "type": "uint256"
            },
            {
              "internalType": "uint256",
              "name": "tokenId",
              "type": "uint256"
            },
            {
              "internalType": "uint256",
              "name": "amount",
              "type": "uint256"
            },
            {
              "internalType": "uint256",
              "name": "qty",
              "type": "uint256"
            },
            {
              "internalType": "bytes",
              "name": "sellerOrdersignature",
              "type": "bytes"
            },
            {
              "internalType": "bytes",
              "name": "buyerOrdersignature",
              "type": "bytes"
            }
          ],
          "internalType": "struct Trade.Order",
          "name": "order",
          "type": "tuple"
        }
      ],
      "name": "executeBid",
      "outputs": [
        {
          "internalType": "bool",
          "name": "",
          "type": "bool"
        }
      ],
      "stateMutability": "nonpayable",
      "type": "function"
    },
    {
      "inputs": [
        {
          "components": [
            {
              "internalType": "address",
              "name": "seller",
              "type": "address"
            },
            {
              "internalType": "address",
              "name": "buyer",
              "type": "address"
            },
            {
              "internalType": "address",
              "name": "erc20Address",
              "type": "address"
            },
            {
              "internalType": "address",
              "name": "nftAddress",
              "type": "address"
            },
            {
              "internalType": "enum Trade.BuyingAssetType",
              "name": "nftType",
              "type": "uint8"
            },
            {
              "internalType": "uint256",
              "name": "unitPrice",
              "type": "uint256"
            },
            {
              "internalType": "uint256",
              "name": "nftAmount",
              "type": "uint256"
            },
            {
              "internalType": "bool",
              "name": "skipRoyalty",
              "type": "bool"
            },
            {
              "internalType": "uint256",
              "name": "startDate",
              "type": "uint256"
            },
            {
              "internalType": "uint256",
              "name": "endDate",
              "type": "uint256"
            },
            {
              "internalType": "uint256",
              "name": "tokenId",
              "type": "uint256"
            },
            {
              "internalType": "uint256",
              "name": "amount",
              "type": "uint256"
            },
            {
              "internalType": "uint256",
              "name": "qty",
              "type": "uint256"
            },
            {
              "internalType": "bytes",
              "name": "sellerOrdersignature",
              "type": "bytes"
            },
            {
              "internalType": "bytes",
              "name": "buyerOrdersignature",
              "type": "bytes"
            }
          ],
          "internalType": "struct Trade.Order",
          "name": "order",
          "type": "tuple"
        }
      ],
      "name": "getFees",
      "outputs": [
        {
          "components": [
            {
              "internalType": "uint256",
              "name": "platformFee",
              "type": "uint256"
            },
            {
              "internalType": "uint256",
              "name": "assetFee",
              "type": "uint256"
            },
            {
              "internalType": "uint256",
              "name": "royaltyFee",
              "type": "uint256"
            },
            {
              "internalType": "uint256",
              "name": "price",
              "type": "uint256"
            },
            {
              "internalType": "address",
              "name": "tokenCreator",
              "type": "address"
            }
          ],
          "internalType": "struct Trade.Fee",
          "name": "",
          "type": "tuple"
        }
      ],
      "stateMutability": "view",
      "type": "function"
    },
    {
      "inputs": [
        {
          "components": [
            {
              "internalType": "address",
              "name": "seller",
              "type": "address"
            },
            {
              "internalType": "address",
              "name": "buyer",
              "type": "address"
            },
            {
              "internalType": "address",
              "name": "erc20Address",
              "type": "address"
            },
            {
              "internalType": "address",
              "name": "nftAddress",
              "type": "address"
            },
            {
              "internalType": "enum Trade.BuyingAssetType",
              "name": "nftType",
              "type": "uint8"
            },
            {
              "internalType": "uint256",
              "name": "unitPrice",
              "type": "uint256"
            },
            {
              "internalType": "uint256",
              "name": "nftAmount",
              "type": "uint256"
            },
            {
              "internalType": "bool",
              "name": "skipRoyalty",
              "type": "bool"
            },
            {
              "internalType": "uint256",
              "name": "startDate",
              "type": "uint256"
            },
            {
              "internalType": "uint256",
              "name": "endDate",
              "type": "uint256"
            },
            {
              "internalType": "uint256",
              "name": "tokenId",
              "type": "uint256"
            },
            {
              "internalType": "uint256",
              "name": "amount",
              "type": "uint256"
            },
            {
              "internalType": "uint256",
              "name": "qty",
              "type": "uint256"
            },
            {
              "internalType": "bytes",
              "name": "sellerOrdersignature",
              "type": "bytes"
            },
            {
              "internalType": "bytes",
              "name": "buyerOrdersignature",
              "type": "bytes"
            }
          ],
          "internalType": "struct Trade.Order",
          "name": "order",
          "type": "tuple"
        }
      ],
      "name": "deliverNFT",
      "outputs": [
        {
          "internalType": "bool",
          "name": "",
          "type": "bool"
        }
      ],
      "stateMutability": "nonpayable",
      "type": "function"
    },
    {
      "inputs": [
        {
          "components": [
            {
              "internalType": "address",
              "name": "seller",
              "type": "address"
            },
            {
              "internalType": "address",
              "name": "buyer",
              "type": "address"
            },
            {
              "internalType": "address",
              "name": "erc20Address",
              "type": "address"
            },
            {
              "internalType": "address",
              "name": "nftAddress",
              "type": "address"
            },
            {
              "internalType": "enum Trade.BuyingAssetType",
              "name": "nftType",
              "type": "uint8"
            },
            {
              "internalType": "uint256",
              "name": "unitPrice",
              "type": "uint256"
            },
            {
              "internalType": "uint256",
              "name": "nftAmount",
              "type": "uint256"
            },
            {
              "internalType": "bool",
              "name": "skipRoyalty",
              "type": "bool"
            },
            {
              "internalType": "uint256",
              "name": "startDate",
              "type": "uint256"
            },
            {
              "internalType": "uint256",
              "name": "endDate",
              "type": "uint256"
            },
            {
              "internalType": "uint256",
              "name": "tokenId",
              "type": "uint256"
            },
            {
              "internalType": "uint256",
              "name": "amount",
              "type": "uint256"
            },
            {
              "internalType": "uint256",
              "name": "qty",
              "type": "uint256"
            },
            {
              "internalType": "bytes",
              "name": "sellerOrdersignature",
              "type": "bytes"
            },
            {
              "internalType": "bytes",
              "name": "buyerOrdersignature",
              "type": "bytes"
            }
          ],
          "internalType": "struct Trade.Order",
          "name": "order",
          "type": "tuple"
        }
      ],
      "name": "getOrderSellerHash",
      "outputs": [
        {
          "internalType": "bytes32",
          "name": "",
          "type": "bytes32"
        }
      ],
      "stateMutability": "pure",
      "type": "function"
    },
    {
      "inputs": [
        {
          "components": [
            {
              "internalType": "address",
              "name": "seller",
              "type": "address"
            },
            {
              "internalType": "address",
              "name": "buyer",
              "type": "address"
            },
            {
              "internalType": "address",
              "name": "erc20Address",
              "type": "address"
            },
            {
              "internalType": "address",
              "name": "nftAddress",
              "type": "address"
            },
            {
              "internalType": "enum Trade.BuyingAssetType",
              "name": "nftType",
              "type": "uint8"
            },
            {
              "internalType": "uint256",
              "name": "unitPrice",
              "type": "uint256"
            },
            {
              "internalType": "uint256",
              "name": "nftAmount",
              "type": "uint256"
            },
            {
              "internalType": "bool",
              "name": "skipRoyalty",
              "type": "bool"
            },
            {
              "internalType": "uint256",
              "name": "startDate",
              "type": "uint256"
            },
            {
              "internalType": "uint256",
              "name": "endDate",
              "type": "uint256"
            },
            {
              "internalType": "uint256",
              "name": "tokenId",
              "type": "uint256"
            },
            {
              "internalType": "uint256",
              "name": "amount",
              "type": "uint256"
            },
            {
              "internalType": "uint256",
              "name": "qty",
              "type": "uint256"
            },
            {
              "internalType": "bytes",
              "name": "sellerOrdersignature",
              "type": "bytes"
            },
            {
              "internalType": "bytes",
              "name": "buyerOrdersignature",
              "type": "bytes"
            }
          ],
          "internalType": "struct Trade.Order",
          "name": "order",
          "type": "tuple"
        }
      ],
      "name": "getOrderBuyerHash",
      "outputs": [
        {
          "internalType": "bytes32",
          "name": "",
          "type": "bytes32"
        }
      ],
      "stateMutability": "pure",
      "type": "function"
    }
  ],
  "bytecode": "0x60806040523480156200001157600080fd5b5060405162004a1638038062004a168339818101604052810190620000379190620001b3565b82600160006101000a81548160ff021916908360ff160217905550816001806101000a81548160ff021916908360ff16021790555080600160026101000a81548173ffffffffffffffffffffffffffffffffffffffff021916908373ffffffffffffffffffffffffffffffffffffffff16021790555033600260006101000a81548173ffffffffffffffffffffffffffffffffffffffff021916908373ffffffffffffffffffffffffffffffffffffffff1602179055505050506200020f565b600080fd5b600060ff82169050919050565b6200011481620000fc565b81146200012057600080fd5b50565b600081519050620001348162000109565b92915050565b600073ffffffffffffffffffffffffffffffffffffffff82169050919050565b600062000167826200013a565b9050919050565b60006200017b826200015a565b9050919050565b6200018d816200016e565b81146200019957600080fd5b50565b600081519050620001ad8162000182565b92915050565b600080600060608486031215620001cf57620001ce620000f7565b5b6000620001df8682870162000123565b9350506020620001f28682870162000123565b925050604062000205868287016200019c565b9150509250925092565b6147f7806200021f6000396000f3fe608060405234801561001057600080fd5b50600436106101585760003560e01c80638162b6bd116100c3578063a217fddf1161007c578063a217fddf14610427578063a3667c7b14610445578063a96b446d14610461578063d547741f1461047d578063dab56b4814610499578063f5c7c83d146104c957610158565b80638162b6bd1461032b5780638da5cb5b1461035b5780638e1615ac1461037957806391d14854146103a957806396c94acf146103d95780639c66809d1461040957610158565b80634cf4d2b7116101155780634cf4d2b7146102435780635e4ea5141461027357806360085da6146102a35780636c19e783146102c15780636e667db3146102dd57806377c1b664146102fb57610158565b806301ffc9a71461015d578063033658571461018d578063238ac933146101bd578063248a9ca3146101db5780632f2ff15d1461020b57806336568abe14610227575b600080fd5b61017760048036038101906101729190612d57565b6104f9565b6040516101849190612d9f565b60405180910390f35b6101a760048036038101906101a29190612ddf565b610573565b6040516101b49190612e41565b60405180910390f35b6101c5610626565b6040516101d29190612e9d565b60405180910390f35b6101f560048036038101906101f09190612ee4565b61064c565b6040516102029190612e41565b60405180910390f35b61022560048036038101906102209190612f3d565b61066b565b005b610241600480360381019061023c9190612f3d565b61068c565b005b61025d60048036038101906102589190612ddf565b61070f565b60405161026a919061300d565b60405180910390f35b61028d60048036038101906102889190612ddf565b61094c565b60405161029a9190612d9f565b60405180910390f35b6102ab610c87565b6040516102b89190613044565b60405180910390f35b6102db60048036038101906102d6919061305f565b610c9c565b005b6102e5610e00565b6040516102f291906130eb565b60405180910390f35b61031560048036038101906103109190612ddf565b610e26565b6040516103229190612e41565b60405180910390f35b61034560048036038101906103409190612ddf565b610ebf565b6040516103529190612d9f565b60405180910390f35b6103636113c3565b6040516103709190612e9d565b60405180910390f35b610393600480360381019061038e9190612ee4565b6113e9565b6040516103a09190612d9f565b60405180910390f35b6103c360048036038101906103be9190612f3d565b61148e565b6040516103d09190612d9f565b60405180910390f35b6103f360048036038101906103ee9190612ddf565b6114f8565b6040516104009190612d9f565b60405180910390f35b61041161171e565b60405161041e9190613044565b60405180910390f35b61042f611735565b60405161043c9190612e41565b60405180910390f35b61045f600480360381019061045a9190613132565b61173c565b005b61047b60048036038101906104769190613132565b61183e565b005b61049760048036038101906104929190612f3d565b611943565b005b6104b360048036038101906104ae9190612ddf565b611964565b6040516104c09190612d9f565b60405180910390f35b6104e360048036038101906104de9190612ddf565b611eee565b6040516104f09190612d9f565b60405180910390f35b60007f7965db0b000000000000000000000000000000000000000000000000000000007bffffffffffffffffffffffffffffffffffffffffffffffffffffffff1916827bffffffffffffffffffffffffffffffffffffffffffffffffffffffff1916148061056c575061056b8261223d565b5b9050919050565b6000816000016020810190610588919061305f565b82604001602081019061059b919061305f565b8360600160208101906105ae919061305f565b8460800160208101906105c19190613184565b8560a001358660c001358760e00160208101906105de91906131dd565b8861010001358961012001358a61014001356040516020016106099a9998979695949392919061333a565b604051602081830303815290604052805190602001209050919050565b600360009054906101000a900473ffffffffffffffffffffffffffffffffffffffff1681565b6000806000838152602001908152602001600020600101549050919050565b6106748261064c565b61067d816122a7565b61068783836122bb565b505050565b61069461239b565b73ffffffffffffffffffffffffffffffffffffffff168173ffffffffffffffffffffffffffffffffffffffff1614610701576040517f08c379a00000000000000000000000000000000000000000000000000000000081526004016106f890613471565b60405180910390fd5b61070b82826123a3565b5050565b610717612cb0565b6000806000806000600160009054906101000a900460ff1660ff166103e861073f91906134ce565b61ffff166103e88861016001356107569190613506565b610760919061358f565b905060008188610160013561077591906135c0565b905060006103e860018054906101000a900460ff1660ff16846107989190613506565b6107a2919061358f565b905080826107b091906135f4565b95508860e00160208101906107c591906131dd565b15801561084857506001808111156107e0576107df613252565b5b8960800160208101906107f39190613184565b600181111561080557610804613252565b5b14806108475750600060018111156108205761081f613252565b5b8960800160208101906108339190613184565b600181111561084557610844613252565b5b145b5b156108e857886060016020810190610860919061305f565b73ffffffffffffffffffffffffffffffffffffffff16632a55205a8a6101400135856040518363ffffffff1660e01b815260040161089f929190613659565b6040805180830381865afa1580156108bb573d6000803e3d6000fd5b505050506040513d601f19601f820116820180604052508101906108df91906136c3565b80965081985050505b8085846108f591906135c0565b6108ff91906135c0565b93506040518060a001604052808781526020018581526020018681526020018481526020018873ffffffffffffffffffffffffffffffffffffffff16815250975050505050505050919050565b60008061095883610573565b9050600061096582612484565b90506109c48185806101a0019061097c9190613712565b8080601f016020809104026020016040519081016040528093929190818152602001838380828437600081840152601f19601f820116905080830192505050505050506124b4565b73ffffffffffffffffffffffffffffffffffffffff168460000160208101906109ed919061305f565b73ffffffffffffffffffffffffffffffffffffffff1614610a43576040517f08c379a0000000000000000000000000000000000000000000000000000000008152600401610a3a906137c1565b60405180910390fd5b610a4c816113e9565b15610a8c576040517f08c379a0000000000000000000000000000000000000000000000000000000008152600401610a839061382d565b60405180910390fd5b60006003811115610aa057610a9f613252565b5b6004600083815260200190815260200160002060010160009054906101000a900460ff166003811115610ad657610ad5613252565b5b03610b3e578360c00135600460008381526020019081526020016000206000018190555060016004600083815260200190815260200160002060010160006101000a81548160ff02191690836003811115610b3457610b33613252565b5b0217905550610c7c565b60016003811115610b5257610b51613252565b5b6004600083815260200190815260200160002060010160009054906101000a900460ff166003811115610b8857610b87613252565b5b03610c7b5783610180013560046000838152602001908152602001600020600001541015610beb576040517f08c379a0000000000000000000000000000000000000000000000000000000008152600401610be290613899565b60405180910390fd5b60008461018001356004600084815260200190815260200160002060000154610c1491906135c0565b905060008103610c5e5760026004600084815260200190815260200160002060010160006101000a81548160ff02191690836003811115610c5857610c57613252565b5b02179055505b806004600084815260200190815260200160002060000181905550505b5b600192505050919050565b600060018054906101000a900460ff16905090565b600260009054906101000a900473ffffffffffffffffffffffffffffffffffffffff1673ffffffffffffffffffffffffffffffffffffffff163373ffffffffffffffffffffffffffffffffffffffff1614610d2c576040517f08c379a0000000000000000000000000000000000000000000000000000000008152600401610d2390613905565b60405180910390fd5b8073ffffffffffffffffffffffffffffffffffffffff16600360009054906101000a900473ffffffffffffffffffffffffffffffffffffffff1673ffffffffffffffffffffffffffffffffffffffff1603610dbc576040517f08c379a0000000000000000000000000000000000000000000000000000000008152600401610db390613971565b60405180910390fd5b80600360006101000a81548173ffffffffffffffffffffffffffffffffffffffff021916908373ffffffffffffffffffffffffffffffffffffffff16021790555050565b600160029054906101000a900473ffffffffffffffffffffffffffffffffffffffff1681565b6000816020016020810190610e3b919061305f565b826040016020810190610e4e919061305f565b836060016020810190610e61919061305f565b846080016020810190610e749190613184565b8560a00135866101400135876101600135886101800135604051602001610ea2989796959493929190613991565b604051602081830303815290604052805190602001209050919050565b600081600073ffffffffffffffffffffffffffffffffffffffff16816000016020810190610eed919061305f565b73ffffffffffffffffffffffffffffffffffffffff1603610f43576040517f08c379a0000000000000000000000000000000000000000000000000000000008152600401610f3a90613a6f565b60405180910390fd5b600073ffffffffffffffffffffffffffffffffffffffff16816020016020810190610f6e919061305f565b73ffffffffffffffffffffffffffffffffffffffff1603610fc4576040517f08c379a0000000000000000000000000000000000000000000000000000000008152600401610fbb90613adb565b60405180910390fd5b600073ffffffffffffffffffffffffffffffffffffffff16816060016020810190610fef919061305f565b73ffffffffffffffffffffffffffffffffffffffff1603611045576040517f08c379a000000000000000000000000000000000000000000000000000000000815260040161103c90613b47565b60405180910390fd5b42816101000135111561108d576040517f08c379a000000000000000000000000000000000000000000000000000000000815260040161108490613bb3565b60405180910390fd5b80610120013542106110d4576040517f08c379a00000000000000000000000000000000000000000000000000000000081526004016110cb90613c1f565b60405180910390fd5b60008160a001351161111b576040517f08c379a000000000000000000000000000000000000000000000000000000000815260040161111290613c8b565b60405180910390fd5b600081610140013511611163576040517f08c379a000000000000000000000000000000000000000000000000000000000815260040161115a90613cf7565b60405180910390fd5b6000816101600135116111ab576040517f08c379a00000000000000000000000000000000000000000000000000000000081526004016111a290613d63565b60405180910390fd5b6000816101800135116111f3576040517f08c379a00000000000000000000000000000000000000000000000000000000081526004016111ea90613dcf565b60405180910390fd5b826020016020810190611206919061305f565b73ffffffffffffffffffffffffffffffffffffffff163373ffffffffffffffffffffffffffffffffffffffff1614611273576040517f08c379a000000000000000000000000000000000000000000000000000000000815260040161126a90613e61565b60405180910390fd5b600061127e8461070f565b90508361018001358460a001356112959190613506565b816060015111156112db576040517f08c379a00000000000000000000000000000000000000000000000000000000081526004016112d290613ecd565b60405180910390fd5b6112e48461094c565b156113b7576113198482866020016020810190611301919061305f565b876000016020810190611314919061305f565b612523565b83602001602081019061132c919061305f565b73ffffffffffffffffffffffffffffffffffffffff1684610140013585600001602081019061135b919061305f565b73ffffffffffffffffffffffffffffffffffffffff167fb10197cef009fd301a90b892d25451c22c3701eb18ee2df1250d31e514fff3948761018001356040516113a59190613eed565b60405180910390a460019250506113bd565b60009250505b50919050565b600260009054906101000a900473ffffffffffffffffffffffffffffffffffffffff1681565b6000600260038111156113ff576113fe613252565b5b6004600084815260200190815260200160002060010160009054906101000a900460ff16600381111561143557611434613252565b5b1480611487575060038081111561144f5761144e613252565b5b6004600084815260200190815260200160002060010160009054906101000a900460ff16600381111561148557611484613252565b5b145b9050919050565b600080600084815260200190815260200160002060000160008373ffffffffffffffffffffffffffffffffffffffff1673ffffffffffffffffffffffffffffffffffffffff16815260200190815260200160002060009054906101000a900460ff16905092915050565b60008061150483610573565b9050600061151182612484565b90503373ffffffffffffffffffffffffffffffffffffffff1684600001602081019061153d919061305f565b73ffffffffffffffffffffffffffffffffffffffff1614611593576040517f08c379a000000000000000000000000000000000000000000000000000000000815260040161158a90613f54565b60405180910390fd5b6115f08185806101a001906115a89190613712565b8080601f016020809104026020016040519081016040528093929190818152602001838380828437600081840152601f19601f820116905080830192505050505050506124b4565b73ffffffffffffffffffffffffffffffffffffffff16846000016020810190611619919061305f565b73ffffffffffffffffffffffffffffffffffffffff161461166f576040517f08c379a0000000000000000000000000000000000000000000000000000000008152600401611666906137c1565b60405180910390fd5b611678816113e9565b156116b8576040517f08c379a00000000000000000000000000000000000000000000000000000000081526004016116af90613fc0565b60405180910390fd5b6000600460008381526020019081526020016000206000018190555060036004600083815260200190815260200160002060010160006101000a81548160ff0219169083600381111561170e5761170d613252565b5b0217905550600192505050919050565b6000600160009054906101000a900460ff16905090565b6000801b81565b600260009054906101000a900473ffffffffffffffffffffffffffffffffffffffff1673ffffffffffffffffffffffffffffffffffffffff163373ffffffffffffffffffffffffffffffffffffffff16146117cc576040517f08c379a00000000000000000000000000000000000000000000000000000000081526004016117c390613905565b60405180910390fd5b8060ff1660018054906101000a900460ff1660ff1603611821576040517f08c379a00000000000000000000000000000000000000000000000000000000081526004016118189061402c565b60405180910390fd5b806001806101000a81548160ff021916908360ff16021790555050565b600260009054906101000a900473ffffffffffffffffffffffffffffffffffffffff1673ffffffffffffffffffffffffffffffffffffffff163373ffffffffffffffffffffffffffffffffffffffff16146118ce576040517f08c379a00000000000000000000000000000000000000000000000000000000081526004016118c590613905565b60405180910390fd5b8060ff16600160009054906101000a900460ff1660ff1603611925576040517f08c379a000000000000000000000000000000000000000000000000000000000815260040161191c90614098565b60405180910390fd5b80600160006101000a81548160ff021916908360ff16021790555050565b61194c8261064c565b611955816122a7565b61195f83836123a3565b505050565b600081600073ffffffffffffffffffffffffffffffffffffffff16816000016020810190611992919061305f565b73ffffffffffffffffffffffffffffffffffffffff16036119e8576040517f08c379a00000000000000000000000000000000000000000000000000000000081526004016119df90613a6f565b60405180910390fd5b600073ffffffffffffffffffffffffffffffffffffffff16816020016020810190611a13919061305f565b73ffffffffffffffffffffffffffffffffffffffff1603611a69576040517f08c379a0000000000000000000000000000000000000000000000000000000008152600401611a6090613adb565b60405180910390fd5b600073ffffffffffffffffffffffffffffffffffffffff16816060016020810190611a94919061305f565b73ffffffffffffffffffffffffffffffffffffffff1603611aea576040517f08c379a0000000000000000000000000000000000000000000000000000000008152600401611ae190613b47565b60405180910390fd5b428161010001351115611b32576040517f08c379a0000000000000000000000000000000000000000000000000000000008152600401611b2990613bb3565b60405180910390fd5b8061012001354210611b79576040517f08c379a0000000000000000000000000000000000000000000000000000000008152600401611b7090613c1f565b60405180910390fd5b60008160a0013511611bc0576040517f08c379a0000000000000000000000000000000000000000000000000000000008152600401611bb790613c8b565b60405180910390fd5b600081610140013511611c08576040517f08c379a0000000000000000000000000000000000000000000000000000000008152600401611bff90613cf7565b60405180910390fd5b600081610160013511611c50576040517f08c379a0000000000000000000000000000000000000000000000000000000008152600401611c4790613d63565b60405180910390fd5b600081610180013511611c98576040517f08c379a0000000000000000000000000000000000000000000000000000000008152600401611c8f90613dcf565b60405180910390fd5b826000611ca482610e26565b90506000611cb182612484565b9050611d108184806101c00190611cc89190613712565b8080601f016020809104026020016040519081016040528093929190818152602001838380828437600081840152601f19601f820116905080830192505050505050506124b4565b73ffffffffffffffffffffffffffffffffffffffff16836020016020810190611d39919061305f565b73ffffffffffffffffffffffffffffffffffffffff1614611d8f576040517f08c379a0000000000000000000000000000000000000000000000000000000008152600401611d8690614104565b60405180910390fd5b856000016020810190611da2919061305f565b73ffffffffffffffffffffffffffffffffffffffff163373ffffffffffffffffffffffffffffffffffffffff1614611e0f576040517f08c379a0000000000000000000000000000000000000000000000000000000008152600401611e0690614196565b60405180910390fd5b6000611e1a8761070f565b9050611e4c8782896020016020810190611e34919061305f565b8a6000016020810190611e47919061305f565b612523565b866020016020810190611e5f919061305f565b73ffffffffffffffffffffffffffffffffffffffff16876101400135886000016020810190611e8e919061305f565b73ffffffffffffffffffffffffffffffffffffffff167fec34853c156da04e4792f1c735112ae54e5ed52bac58db5014b26746f306a3628a6101800135604051611ed89190613eed565b60405180910390a4600195505050505050919050565b6000600360009054906101000a900473ffffffffffffffffffffffffffffffffffffffff1673ffffffffffffffffffffffffffffffffffffffff163373ffffffffffffffffffffffffffffffffffffffff1614611f80576040517f08c379a0000000000000000000000000000000000000000000000000000000008152600401611f7790614228565b60405180910390fd5b600180811115611f9357611f92613252565b5b826080016020810190611fa69190613184565b6001811115611fb857611fb7613252565b5b0361208c57600160029054906101000a900473ffffffffffffffffffffffffffffffffffffffff1673ffffffffffffffffffffffffffffffffffffffff1663f709b90683606001602081019061200e919061305f565b846000016020810190612021919061305f565b856020016020810190612034919061305f565b8661014001356040518563ffffffff1660e01b81526004016120599493929190614269565b600060405180830381600087803b15801561207357600080fd5b505af1158015612087573d6000803e3d6000fd5b505050505b600060018111156120a05761209f613252565b5b8260800160208101906120b39190613184565b60018111156120c5576120c4613252565b5b036121a057600160029054906101000a900473ffffffffffffffffffffffffffffffffffffffff1673ffffffffffffffffffffffffffffffffffffffff16639c1c2ee983606001602081019061211b919061305f565b84600001602081019061212e919061305f565b856020016020810190612141919061305f565b8661014001358761018001356040518663ffffffff1660e01b815260040161216d959493929190614306565b600060405180830381600087803b15801561218757600080fd5b505af115801561219b573d6000803e3d6000fd5b505050505b8160200160208101906121b3919061305f565b73ffffffffffffffffffffffffffffffffffffffff168261014001358360000160208101906121e2919061305f565b73ffffffffffffffffffffffffffffffffffffffff167fb10197cef009fd301a90b892d25451c22c3701eb18ee2df1250d31e514fff39485610180013560405161222c9190613eed565b60405180910390a460019050919050565b60007f01ffc9a7000000000000000000000000000000000000000000000000000000007bffffffffffffffffffffffffffffffffffffffffffffffffffffffff1916827bffffffffffffffffffffffffffffffffffffffffffffffffffffffff1916149050919050565b6122b8816122b361239b565b61295a565b50565b6122c5828261148e565b61239757600160008084815260200190815260200160002060000160008373ffffffffffffffffffffffffffffffffffffffff1673ffffffffffffffffffffffffffffffffffffffff16815260200190815260200160002060006101000a81548160ff02191690831515021790555061233c61239b565b73ffffffffffffffffffffffffffffffffffffffff168173ffffffffffffffffffffffffffffffffffffffff16837f2f8788117e7eff1d82e926ec794901d17c78024a50270940304540a733656f0d60405160405180910390a45b5050565b600033905090565b6123ad828261148e565b1561248057600080600084815260200190815260200160002060000160008373ffffffffffffffffffffffffffffffffffffffff1673ffffffffffffffffffffffffffffffffffffffff16815260200190815260200160002060006101000a81548160ff02191690831515021790555061242561239b565b73ffffffffffffffffffffffffffffffffffffffff168173ffffffffffffffffffffffffffffffffffffffff16837ff6391f5c32d9c69d2a47ea670b442974b53935d1edc7fd64eb21e047a839171b60405160405180910390a45b5050565b60008160405160200161249791906143e4565b604051602081830303815290604052805190602001209050919050565b6000806000806124c3856129df565b925092509250600186828585604051600081526020016040526040516124ec949392919061440a565b6020604051602081039080840390855afa15801561250e573d6000803e3d6000fd5b50505060206040510351935050505092915050565b60018081111561253657612535613252565b5b8460800160208101906125499190613184565b600181111561255b5761255a613252565b5b0361260b57600160029054906101000a900473ffffffffffffffffffffffffffffffffffffffff1673ffffffffffffffffffffffffffffffffffffffff1663f709b9068560600160208101906125b1919061305f565b83858861014001356040518563ffffffff1660e01b81526004016125d89493929190614269565b600060405180830381600087803b1580156125f257600080fd5b505af1158015612606573d6000803e3d6000fd5b505050505b6000600181111561261f5761261e613252565b5b8460800160208101906126329190613184565b600181111561264457612643613252565b5b036126fb57600160029054906101000a900473ffffffffffffffffffffffffffffffffffffffff1673ffffffffffffffffffffffffffffffffffffffff16639c1c2ee985606001602081019061269a919061305f565b83858861014001358961018001356040518663ffffffff1660e01b81526004016126c8959493929190614306565b600060405180830381600087803b1580156126e257600080fd5b505af11580156126f6573d6000803e3d6000fd5b505050505b6000836000015111156127d457600160029054906101000a900473ffffffffffffffffffffffffffffffffffffffff1673ffffffffffffffffffffffffffffffffffffffff1663776062c3856040016020810190612759919061305f565b84600260009054906101000a900473ffffffffffffffffffffffffffffffffffffffff1687600001516040518563ffffffff1660e01b81526004016127a19493929190614470565b600060405180830381600087803b1580156127bb57600080fd5b505af11580156127cf573d6000803e3d6000fd5b505050505b600083604001511180156127f857508360e00160208101906127f691906131dd565b155b156128ab57600160029054906101000a900473ffffffffffffffffffffffffffffffffffffffff1673ffffffffffffffffffffffffffffffffffffffff1663776062c385604001602081019061284e919061305f565b84866080015187604001516040518563ffffffff1660e01b81526004016128789493929190614470565b600060405180830381600087803b15801561289257600080fd5b505af11580156128a6573d6000803e3d6000fd5b505050505b600160029054906101000a900473ffffffffffffffffffffffffffffffffffffffff1673ffffffffffffffffffffffffffffffffffffffff1663776062c38560400160208101906128fc919061305f565b848487602001516040518563ffffffff1660e01b81526004016129229493929190614470565b600060405180830381600087803b15801561293c57600080fd5b505af1158015612950573d6000803e3d6000fd5b5050505050505050565b612964828261148e565b6129db5761297181612a47565b61297f8360001c6020612a74565b6040516020016129909291906145bc565b6040516020818303038152906040526040517f08c379a00000000000000000000000000000000000000000000000000000000081526004016129d29190614640565b60405180910390fd5b5050565b60008060006041845114612a28576040517f08c379a0000000000000000000000000000000000000000000000000000000008152600401612a1f906146ae565b60405180910390fd5b6020840151925060408401519150606084015160001a90509193909250565b6060612a6d8273ffffffffffffffffffffffffffffffffffffffff16601460ff16612a74565b9050919050565b606060006002836002612a879190613506565b612a9191906135f4565b67ffffffffffffffff811115612aaa57612aa96146ce565b5b6040519080825280601f01601f191660200182016040528015612adc5781602001600182028036833780820191505090505b5090507f300000000000000000000000000000000000000000000000000000000000000081600081518110612b1457612b136146fd565b5b60200101907effffffffffffffffffffffffffffffffffffffffffffffffffffffffffffff1916908160001a9053507f780000000000000000000000000000000000000000000000000000000000000081600181518110612b7857612b776146fd565b5b60200101907effffffffffffffffffffffffffffffffffffffffffffffffffffffffffffff1916908160001a90535060006001846002612bb89190613506565b612bc291906135f4565b90505b6001811115612c62577f3031323334353637383961626364656600000000000000000000000000000000600f861660108110612c0457612c036146fd565b5b1a60f81b828281518110612c1b57612c1a6146fd565b5b60200101907effffffffffffffffffffffffffffffffffffffffffffffffffffffffffffff1916908160001a905350600485901c945080612c5b9061472c565b9050612bc5565b5060008414612ca6576040517f08c379a0000000000000000000000000000000000000000000000000000000008152600401612c9d906147a1565b60405180910390fd5b8091505092915050565b6040518060a0016040528060008152602001600081526020016000815260200160008152602001600073ffffffffffffffffffffffffffffffffffffffff1681525090565b600080fd5b600080fd5b60007fffffffff0000000000000000000000000000000000000000000000000000000082169050919050565b612d3481612cff565b8114612d3f57600080fd5b50565b600081359050612d5181612d2b565b92915050565b600060208284031215612d6d57612d6c612cf5565b5b6000612d7b84828501612d42565b91505092915050565b60008115159050919050565b612d9981612d84565b82525050565b6000602082019050612db46000830184612d90565b92915050565b600080fd5b60006101e08284031215612dd657612dd5612dba565b5b81905092915050565b600060208284031215612df557612df4612cf5565b5b600082013567ffffffffffffffff811115612e1357612e12612cfa565b5b612e1f84828501612dbf565b91505092915050565b6000819050919050565b612e3b81612e28565b82525050565b6000602082019050612e566000830184612e32565b92915050565b600073ffffffffffffffffffffffffffffffffffffffff82169050919050565b6000612e8782612e5c565b9050919050565b612e9781612e7c565b82525050565b6000602082019050612eb26000830184612e8e565b92915050565b612ec181612e28565b8114612ecc57600080fd5b50565b600081359050612ede81612eb8565b92915050565b600060208284031215612efa57612ef9612cf5565b5b6000612f0884828501612ecf565b91505092915050565b612f1a81612e7c565b8114612f2557600080fd5b50565b600081359050612f3781612f11565b92915050565b60008060408385031215612f5457612f53612cf5565b5b6000612f6285828601612ecf565b9250506020612f7385828601612f28565b9150509250929050565b6000819050919050565b612f9081612f7d565b82525050565b612f9f81612e7c565b82525050565b60a082016000820151612fbb6000850182612f87565b506020820151612fce6020850182612f87565b506040820151612fe16040850182612f87565b506060820151612ff46060850182612f87565b5060808201516130076080850182612f96565b50505050565b600060a0820190506130226000830184612fa5565b92915050565b600060ff82169050919050565b61303e81613028565b82525050565b60006020820190506130596000830184613035565b92915050565b60006020828403121561307557613074612cf5565b5b600061308384828501612f28565b91505092915050565b6000819050919050565b60006130b16130ac6130a784612e5c565b61308c565b612e5c565b9050919050565b60006130c382613096565b9050919050565b60006130d5826130b8565b9050919050565b6130e5816130ca565b82525050565b600060208201905061310060008301846130dc565b92915050565b61310f81613028565b811461311a57600080fd5b50565b60008135905061312c81613106565b92915050565b60006020828403121561314857613147612cf5565b5b60006131568482850161311d565b91505092915050565b6002811061316c57600080fd5b50565b60008135905061317e8161315f565b92915050565b60006020828403121561319a57613199612cf5565b5b60006131a88482850161316f565b91505092915050565b6131ba81612d84565b81146131c557600080fd5b50565b6000813590506131d7816131b1565b92915050565b6000602082840312156131f3576131f2612cf5565b5b6000613201848285016131c8565b91505092915050565b60008160601b9050919050565b60006132228261320a565b9050919050565b600061323482613217565b9050919050565b61324c61324782612e7c565b613229565b82525050565b7f4e487b7100000000000000000000000000000000000000000000000000000000600052602160045260246000fd5b6002811061329257613291613252565b5b50565b60008190506132a382613281565b919050565b60006132b382613295565b9050919050565b60008160f81b9050919050565b60006132d2826132ba565b9050919050565b6132ea6132e5826132a8565b6132c7565b82525050565b6000819050919050565b61330b61330682612f7d565b6132f0565b82525050565b600061331c826132c7565b9050919050565b61333461332f82612d84565b613311565b82525050565b6000613346828d61323b565b601482019150613356828c61323b565b601482019150613366828b61323b565b601482019150613376828a6132d9565b60018201915061338682896132fa565b60208201915061339682886132fa565b6020820191506133a68287613323565b6001820191506133b682866132fa565b6020820191506133c682856132fa565b6020820191506133d682846132fa565b6020820191508190509b9a5050505050505050505050565b600082825260208201905092915050565b7f416363657373436f6e74726f6c3a2063616e206f6e6c792072656e6f756e636560008201527f20726f6c657320666f722073656c660000000000000000000000000000000000602082015250565b600061345b602f836133ee565b9150613466826133ff565b604082019050919050565b6000602082019050818103600083015261348a8161344e565b9050919050565b600061ffff82169050919050565b7f4e487b7100000000000000000000000000000000000000000000000000000000600052601160045260246000fd5b60006134d982613491565b91506134e483613491565b92508261ffff038211156134fb576134fa61349f565b5b828201905092915050565b600061351182612f7d565b915061351c83612f7d565b9250817fffffffffffffffffffffffffffffffffffffffffffffffffffffffffffffffff04831182151516156135555761355461349f565b5b828202905092915050565b7f4e487b7100000000000000000000000000000000000000000000000000000000600052601260045260246000fd5b600061359a82612f7d565b91506135a583612f7d565b9250826135b5576135b4613560565b5b828204905092915050565b60006135cb82612f7d565b91506135d683612f7d565b9250828210156135e9576135e861349f565b5b828203905092915050565b60006135ff82612f7d565b915061360a83612f7d565b9250827fffffffffffffffffffffffffffffffffffffffffffffffffffffffffffffffff0382111561363f5761363e61349f565b5b828201905092915050565b61365381612f7d565b82525050565b600060408201905061366e600083018561364a565b61367b602083018461364a565b9392505050565b60008151905061369181612f11565b92915050565b6136a081612f7d565b81146136ab57600080fd5b50565b6000815190506136bd81613697565b92915050565b600080604083850312156136da576136d9612cf5565b5b60006136e885828601613682565b92505060206136f9858286016136ae565b9150509250929050565b600080fd5b600080fd5b600080fd5b6000808335600160200384360303811261372f5761372e613703565b5b80840192508235915067ffffffffffffffff82111561375157613750613708565b5b60208301925060018202360383131561376d5761376c61370d565b5b509250929050565b7f496e76616c6964206f726465722064657461696c730000000000000000000000600082015250565b60006137ab6015836133ee565b91506137b682613775565b602082019050919050565b600060208201905081810360008301526137da8161379e565b9050919050565b7f4f7264657220636c6f7365640000000000000000000000000000000000000000600082015250565b6000613817600c836133ee565b9150613822826137e1565b602082019050919050565b600060208201905081810360008301526138468161380a565b9050919050565b7f4f72646572205175616e7469747920697320696e76616c696400000000000000600082015250565b60006138836019836133ee565b915061388e8261384d565b602082019050919050565b600060208201905081810360008301526138b281613876565b9050919050565b7f4f6e6c79206f776e65722063616e20616c6c20746869732066756e6374696f6e600082015250565b60006138ef6020836133ee565b91506138fa826138b9565b602082019050919050565b6000602082019050818103600083015261391e816138e2565b9050919050565b7f5369676e65722076616c75652069732073616d65000000000000000000000000600082015250565b600061395b6014836133ee565b915061396682613925565b602082019050919050565b6000602082019050818103600083015261398a8161394e565b9050919050565b600061399d828b61323b565b6014820191506139ad828a61323b565b6014820191506139bd828961323b565b6014820191506139cd82886132d9565b6001820191506139dd82876132fa565b6020820191506139ed82866132fa565b6020820191506139fd82856132fa565b602082019150613a0d82846132fa565b6020820191508190509998505050505050505050565b7f53656c6c65722063616e6e6f7420626520656d70747900000000000000000000600082015250565b6000613a596016836133ee565b9150613a6482613a23565b602082019050919050565b60006020820190508181036000830152613a8881613a4c565b9050919050565b7f42757965722063616e6e6f7420626520656d7074790000000000000000000000600082015250565b6000613ac56015836133ee565b9150613ad082613a8f565b602082019050919050565b60006020820190508181036000830152613af481613ab8565b9050919050565b7f4e465420416464726573732063616e6e6f7420626520656d7074790000000000600082015250565b6000613b31601b836133ee565b9150613b3c82613afb565b602082019050919050565b60006020820190508181036000830152613b6081613b24565b9050919050565b7f41756374696f6e206973206e6f74207374617274656420796574000000000000600082015250565b6000613b9d601a836133ee565b9150613ba882613b67565b602082019050919050565b60006020820190508181036000830152613bcc81613b90565b9050919050565b7f41756374696f6e20697320656e64656400000000000000000000000000000000600082015250565b6000613c096010836133ee565b9150613c1482613bd3565b602082019050919050565b60006020820190508181036000830152613c3881613bfc565b9050919050565b7f556e69742070726963652063616e6e6f74206265207a65726f00000000000000600082015250565b6000613c756019836133ee565b9150613c8082613c3f565b602082019050919050565b60006020820190508181036000830152613ca481613c68565b9050919050565b7f546f6b656e49642063616e6e6f74206265207a65726f00000000000000000000600082015250565b6000613ce16016836133ee565b9150613cec82613cab565b602082019050919050565b60006020820190508181036000830152613d1081613cd4565b9050919050565b7f416d6f756e742063616e6e6f74206265207a65726f0000000000000000000000600082015250565b6000613d4d6015836133ee565b9150613d5882613d17565b602082019050919050565b60006020820190508181036000830152613d7c81613d40565b9050919050565b7f5175616e746974792063616e6e6f74206265207a65726f000000000000000000600082015250565b6000613db96017836133ee565b9150613dc482613d83565b602082019050919050565b60006020820190508181036000830152613de881613dac565b9050919050565b7f4f6e6c79206f726465722062757965722063616e2063616c6c2074686973206d60008201527f6574686f64000000000000000000000000000000000000000000000000000000602082015250565b6000613e4b6025836133ee565b9150613e5682613def565b604082019050919050565b60006020820190508181036000830152613e7a81613e3e565b9050919050565b7f5061696420696e76616c696420616d6f756e7400000000000000000000000000600082015250565b6000613eb76013836133ee565b9150613ec282613e81565b602082019050919050565b60006020820190508181036000830152613ee681613eaa565b9050919050565b6000602082019050613f02600083018461364a565b92915050565b7f43616c6c6572206973206e6f74206f726465722073656c6c6572000000000000600082015250565b6000613f3e601a836133ee565b9150613f4982613f08565b602082019050919050565b60006020820190508181036000830152613f6d81613f31565b9050919050565b7f4f7264657220616c726561647920636f6d706c746564206f722063616e63656c600082015250565b6000613faa6020836133ee565b9150613fb582613f74565b602082019050919050565b60006020820190508181036000830152613fd981613f9d565b9050919050565b7f53656c6c65724665655065726d696c6c652076616c75652069732073616d6500600082015250565b6000614016601f836133ee565b915061402182613fe0565b602082019050919050565b6000602082019050818103600083015261404581614009565b9050919050565b7f42757965724665655065726d696c6c652076616c75652069732073616d650000600082015250565b6000614082601e836133ee565b915061408d8261404c565b602082019050919050565b600060208201905081810360008301526140b181614075565b9050919050565b7f496e76616c6964206269642064657461696c7300000000000000000000000000600082015250565b60006140ee6013836133ee565b91506140f9826140b8565b602082019050919050565b6000602082019050818103600083015261411d816140e1565b9050919050565b7f4f6e6c79206f726465722073656c6c65722063616e2063616c6c20746869732060008201527f6d6574686f640000000000000000000000000000000000000000000000000000602082015250565b60006141806026836133ee565b915061418b82614124565b604082019050919050565b600060208201905081810360008301526141af81614173565b9050919050565b7f4f6e6c79207369676e65722063616e20616c6c20746869732066756e6374696f60008201527f6e00000000000000000000000000000000000000000000000000000000000000602082015250565b60006142126021836133ee565b915061421d826141b6565b604082019050919050565b6000602082019050818103600083015261424181614205565b9050919050565b6000614253826130b8565b9050919050565b61426381614248565b82525050565b600060808201905061427e600083018761425a565b61428b6020830186612e8e565b6142986040830185612e8e565b6142a5606083018461364a565b95945050505050565b60006142b9826130b8565b9050919050565b6142c9816142ae565b82525050565b600082825260208201905092915050565b50565b60006142f06000836142cf565b91506142fb826142e0565b600082019050919050565b600060c08201905061431b60008301886142c0565b6143286020830187612e8e565b6143356040830186612e8e565b614342606083018561364a565b61434f608083018461364a565b81810360a0830152614360816142e3565b90509695505050505050565b600081905092915050565b7f19457468657265756d205369676e6564204d6573736167653a0a333200000000600082015250565b60006143ad601c8361436c565b91506143b882614377565b601c82019050919050565b6000819050919050565b6143de6143d982612e28565b6143c3565b82525050565b60006143ef826143a0565b91506143fb82846143cd565b60208201915081905092915050565b600060808201905061441f6000830187612e32565b61442c6020830186613035565b6144396040830185612e32565b6144466060830184612e32565b95945050505050565b600061445a826130b8565b9050919050565b61446a8161444f565b82525050565b60006080820190506144856000830187614461565b6144926020830186612e8e565b61449f6040830185612e8e565b6144ac606083018461364a565b95945050505050565b7f416363657373436f6e74726f6c3a206163636f756e7420000000000000000000600082015250565b60006144eb60178361436c565b91506144f6826144b5565b601782019050919050565b600081519050919050565b60005b8381101561452a57808201518184015260208101905061450f565b83811115614539576000848401525b50505050565b600061454a82614501565b614554818561436c565b935061456481856020860161450c565b80840191505092915050565b7f206973206d697373696e6720726f6c6520000000000000000000000000000000600082015250565b60006145a660118361436c565b91506145b182614570565b601182019050919050565b60006145c7826144de565b91506145d3828561453f565b91506145de82614599565b91506145ea828461453f565b91508190509392505050565b6000601f19601f8301169050919050565b600061461282614501565b61461c81856133ee565b935061462c81856020860161450c565b614635816145f6565b840191505092915050565b6000602082019050818103600083015261465a8184614607565b905092915050565b7f696e76616c6964207369676e6174757265206c656e6774680000000000000000600082015250565b60006146986018836133ee565b91506146a382614662565b602082019050919050565b600060208201905081810360008301526146c78161468b565b9050919050565b7f4e487b7100000000000000000000000000000000000000000000000000000000600052604160045260246000fd5b7f4e487b7100000000000000000000000000000000000000000000000000000000600052603260045260246000fd5b600061473782612f7d565b91506000820361474a5761474961349f565b5b600182039050919050565b7f537472696e67733a20686578206c656e67746820696e73756666696369656e74600082015250565b600061478b6020836133ee565b915061479682614755565b602082019050919050565b600060208201905081810360008301526147ba8161477e565b905091905056fea2646970667358221220aae385211f11c62ef73956b3f196e2384296368abeebff8460f001d9a19d983d64736f6c634300080e0033",
  "immutableReferences": {},
  "source": "// SPDX-License-Identifier: UNLICENSED\r\npragma solidity 0.8.14;\r\n\r\nimport \"@openzeppelin/contracts/access/AccessControl.sol\";\r\nimport \"@openzeppelin/contracts/interfaces/IERC2981.sol\";\r\nimport \"./interface/ITransferProxy.sol\";\r\n\r\ncontract Trade is AccessControl {\r\n    enum BuyingAssetType {\r\n        ERC1155,\r\n        ERC721\r\n    }\r\n    enum Status {\r\n        NONE,\r\n        LIVE,\r\n        COMPLETED,\r\n        CANCEL\r\n    }\r\n\r\n    event OwnershipTransferred(\r\n        address indexed previousOwner,\r\n        address indexed newOwner\r\n    );\r\n    event SellerFee(uint8 sellerFee);\r\n    event BuyerFee(uint8 buyerFee);\r\n    event BuyAsset(\r\n        address indexed assetOwner,\r\n        uint256 indexed tokenId,\r\n        uint256 quantity,\r\n        address indexed buyer\r\n    );\r\n    event ExecuteBid(\r\n        address indexed assetOwner,\r\n        uint256 indexed tokenId,\r\n        uint256 quantity,\r\n        address indexed buyer\r\n    );\r\n    // buyer platformFee\r\n    uint8 private buyerFeePermille;\r\n    //seller platformFee\r\n    uint8 private sellerFeePermille;\r\n    ITransferProxy public transferProxy;\r\n    //contract owner\r\n    address public owner;\r\n\r\n    address public signer;\r\n\r\n    //// mapping(uint256 => bool) private usedNonce;\r\n\r\n    // Create a new role identifier for the minter role\r\n    //// bytes32 public constant ADMIN_ROLE = keccak256(\"ADMIN_ROLE\");\r\n\r\n    /** Fee Struct\r\n        @param platformFee  uint256 (buyerFee + sellerFee) value which is transferred to current contract owner.\r\n        @param assetFee  uint256  assetvalue which is transferred to current seller of the NFT.\r\n        @param royaltyFee  uint256 value, transferred to Minter of the NFT.\r\n        @param price  uint256 value, the combination of buyerFee and assetValue.\r\n        @param tokenCreator address value, it's store the creator of NFT.\r\n     */\r\n    struct Fee {\r\n        uint256 platformFee;\r\n        uint256 assetFee;\r\n        uint256 royaltyFee;\r\n        uint256 price;\r\n        address tokenCreator;\r\n    }\r\n\r\n    /** Order Params\r\n        @param seller address of user,who's selling the NFT.\r\n        @param buyer address of user, who's buying the NFT.\r\n        @param erc20Address address of the token, which is used as payment token(WETH/WBNB/WMATIC...)\r\n        @param nftAddress address of NFT contract where the NFT token is created/Minted.\r\n        @param nftType an enum value, if the type is ERC721/ERC1155 the enum value is 0/1.\r\n        @param uintprice the Price Each NFT it's not including the buyerFee.\r\n        @param nftAmount the max Quantity of NFT available for order.\r\n        @param skipRoyalty skip royalty part or not.\r\n        @param startDate the start Date of the order.\r\n        @param endDate the end Date of the order.\r\n        @param tokenId \r\n        @param amount the price of NFT(assetFee + buyerFee).\r\n        @param qty number of quantity to be transfer.\r\n        @param sellerOrdersignature order hash signed by seller.\r\n        @param buyerOrdersignature order hash signed by buyer.\r\n     */\r\n    struct Order {\r\n        address seller;\r\n        address buyer;\r\n        address erc20Address;\r\n        address nftAddress;\r\n        BuyingAssetType nftType;\r\n        uint256 unitPrice;\r\n        uint256 nftAmount;\r\n        bool skipRoyalty;\r\n        uint256 startDate;\r\n        uint256 endDate;\r\n        uint256 tokenId;\r\n        uint256 amount;\r\n        uint256 qty;\r\n        bytes sellerOrdersignature;\r\n        bytes buyerOrdersignature;\r\n    }\r\n\r\n    /** OrderStatus Params\r\n        @param maxAmount is the maximum nft currently available in auction.\r\n        @param status an enum value, if the type is NONE|LIVE|COMPLETED|CANCEL the enum value is 0|1|2|3.\r\n     */\r\n    struct OrderStatus {\r\n        uint256 maxAmount;\r\n        Status status;\r\n    }\r\n\r\n    // order Limit which hold closed and live order data\r\n    mapping(bytes32 => OrderStatus) orderLimit;\r\n\r\n    constructor(\r\n        uint8 _buyerFee,\r\n        uint8 _sellerFee,\r\n        ITransferProxy _transferProxy\r\n    ) {\r\n        buyerFeePermille = _buyerFee;\r\n        sellerFeePermille = _sellerFee;\r\n        transferProxy = _transferProxy;\r\n        owner = msg.sender;\r\n    }\r\n\r\n    modifier OnlyOwner(){\r\n        require(msg.sender==owner,\"Only owner can all this function\");\r\n        _;\r\n    }\r\n\r\n    modifier OnlySigner(){\r\n        require(msg.sender==signer,\"Only signer can all this function\");\r\n        _;\r\n    }\r\n\r\n    /**\r\n        checks the order is valid\r\n     */\r\n    modifier isvalidOrder(Order calldata order) {\r\n        require(order.seller != address(0), \"Seller cannot be empty\");\r\n        require(order.buyer != address(0), \"Buyer cannot be empty\");\r\n        require(order.nftAddress != address(0), \"NFT Address cannot be empty\");\r\n        require(\r\n            order.startDate <= block.timestamp,\r\n            \"Auction is not started yet\"\r\n        );\r\n        require(block.timestamp < order.endDate, \"Auction is ended\");\r\n        require(order.unitPrice > 0, \"Unit price cannot be zero\");\r\n        require(order.tokenId > 0, \"TokenId cannot be zero\");\r\n        require(order.amount > 0, \"Amount cannot be zero\");\r\n        require(order.qty > 0, \"Quantity cannot be zero\");\r\n        _;\r\n    }\r\n\r\n    /**\r\n        checks the order is valid\r\n     */\r\n    modifier isvalidOrderBid(Order calldata order) {\r\n        bytes32 buyerOrderhash = getOrderBuyerHash(order);\r\n        bytes32 buyerOrderhashMessage = prefixed(buyerOrderhash);\r\n\r\n        require(\r\n            order.buyer ==\r\n                recoverSigner(buyerOrderhashMessage, order.buyerOrdersignature),\r\n            \"Invalid bid details\"\r\n        );\r\n        _;\r\n    }\r\n\r\n    /**\r\n        returns the buyerservice Fee in multiply of 1000.\r\n     */\r\n    function buyerServiceFee() external view virtual returns (uint8) {\r\n        return buyerFeePermille;\r\n    }\r\n\r\n    /**\r\n        returns the sellerservice Fee in multiply of 1000.\r\n     */\r\n    function sellerServiceFee() external view virtual returns (uint8) {\r\n        return sellerFeePermille;\r\n    }\r\n\r\n    /**\r\n        returns the buyerservice Fee in multiply of 1000.\r\n     */\r\n\r\n    function setBuyerServiceFee(uint8 _buyerFeePermille) public OnlyOwner() {\r\n        require(buyerFeePermille!=_buyerFeePermille,\"BuyerFeePermille value is same\");\r\n        buyerFeePermille=_buyerFeePermille;\r\n    }\r\n\r\n    /**\r\n        returns the sellerservice Fee in multiply of 1000.\r\n     */\r\n\r\n    function setSellerServiceFee(uint8 _sellerFeePermille) public OnlyOwner() {\r\n        require(sellerFeePermille!=_sellerFeePermille,\"SellerFeePermille value is same\");\r\n        sellerFeePermille=_sellerFeePermille;\r\n    }\r\n    /**\r\n        set the signer in address.\r\n     */\r\n\r\n    function setSigner(address _signer) public OnlyOwner() {\r\n        require(signer!=_signer,\"Signer value is same\");\r\n        signer=_signer;\r\n    }\r\n\r\n    /**\r\n        returns the whether the order is already exists or not.\r\n     */\r\n    function isOrderClosed(bytes32 orderHash) public view returns (bool) {\r\n        return\r\n            orderLimit[orderHash].status == Status.COMPLETED ||\r\n            orderLimit[orderHash].status == Status.CANCEL;\r\n    }\r\n\r\n    /**\r\n        cancel Order.\r\n        @param order ordervalues(seller, buyer,...).\r\n        this will cancel the invalid use of sign order data\r\n    */\r\n    function cancelOrder(Order calldata order) public returns (bool) {\r\n        bytes32 sellerOrderhash = getOrderSellerHash(order);\r\n        bytes32 sellerOrderhashMessage = prefixed(sellerOrderhash);\r\n\r\n        require(order.seller == msg.sender, \"Caller is not order seller\");\r\n        require(\r\n            order.seller ==\r\n                recoverSigner(\r\n                    sellerOrderhashMessage,\r\n                    order.sellerOrdersignature\r\n                ),\r\n            \"Invalid order details\"\r\n        );\r\n        require(\r\n            !isOrderClosed(sellerOrderhashMessage),\r\n            \"Order already complted or cancel\"\r\n        );\r\n\r\n        // if order is new or live then set its status and max amount\r\n        orderLimit[sellerOrderhashMessage].maxAmount = 0;\r\n        orderLimit[sellerOrderhashMessage].status = Status.CANCEL;\r\n\r\n        return true;\r\n    }\r\n\r\n    /**\r\n        validate and Update Order Limit.\r\n        @param order ordervalues(seller, buyer,...).\r\n        this will validate and update the signature of order for seller\r\n    */\r\n    function validateandUpdateOrderForSeller(Order calldata order)\r\n        public\r\n        returns (bool)\r\n    {\r\n        bytes32 sellerOrderhash = getOrderSellerHash(order);\r\n        bytes32 sellerOrderhashMessage = prefixed(sellerOrderhash);\r\n\r\n        require(\r\n            order.seller ==\r\n                recoverSigner(\r\n                    sellerOrderhashMessage,\r\n                    order.sellerOrdersignature\r\n                ),\r\n            \"Invalid order details\"\r\n        );\r\n        require(!isOrderClosed(sellerOrderhashMessage), \"Order closed\");\r\n\r\n        // if order is new then set its status and max amount\r\n        if (orderLimit[sellerOrderhashMessage].status == Status.NONE) {\r\n            orderLimit[sellerOrderhashMessage].maxAmount = order.nftAmount;\r\n            orderLimit[sellerOrderhashMessage].status = Status.LIVE;\r\n        } else if (orderLimit[sellerOrderhashMessage].status == Status.LIVE) {\r\n            require(\r\n                orderLimit[sellerOrderhashMessage].maxAmount >= order.qty,\r\n                \"Order Quantity is invalid\"\r\n            );\r\n            // if order is live then update max amount\r\n            uint256 _updatedMaxAmount = orderLimit[sellerOrderhashMessage]\r\n                .maxAmount - order.qty;\r\n            if (_updatedMaxAmount == 0) {\r\n                // if order max amount will be zero then set status to completed\r\n                orderLimit[sellerOrderhashMessage].status = Status.COMPLETED;\r\n            }\r\n            orderLimit[sellerOrderhashMessage].maxAmount = _updatedMaxAmount;\r\n        }\r\n\r\n        return true;\r\n    }\r\n\r\n    /**\r\n        excuting the NFT order.\r\n        @param order ordervalues(seller, buyer,...).\r\n    */\r\n    function buyAsset(Order calldata order)\r\n        external\r\n        isvalidOrder(order)\r\n        returns (bool)\r\n    {\r\n        require(msg.sender==order.buyer,\"Only order buyer can call this method\");\r\n        Fee memory fee = getFees(order);\r\n        require(\r\n            (fee.price <= order.unitPrice * order.qty),\r\n            \"Paid invalid amount\"\r\n\r\n        );\r\n        if (validateandUpdateOrderForSeller(order)) {\r\n            tradeAsset(order, fee, order.buyer, order.seller);\r\n            emit BuyAsset(order.seller, order.tokenId, order.qty, order.buyer);\r\n            return true;\r\n        }\r\n        return false;\r\n    }\r\n\r\n    function executeBid(Order calldata order)\r\n        external\r\n        isvalidOrder(order)\r\n        isvalidOrderBid(order)\r\n        returns (bool)\r\n    {\r\n        require(msg.sender==order.seller,\"Only order seller can call this method\");\r\n        Fee memory fee = getFees(order);\r\n        tradeAsset(order, fee, order.buyer, order.seller);\r\n        emit ExecuteBid(order.seller, order.tokenId, order.qty, order.buyer);\r\n        return true;\r\n    }\r\n\r\n    function getFees(Order calldata order) public view returns (Fee memory) {\r\n        address tokenCreator;\r\n        uint256 platformFee;\r\n        uint256 royaltyFee;\r\n        uint256 assetFee;\r\n        uint256 price = (order.amount * 1000) / (1000 + buyerFeePermille);\r\n        uint256 buyerFee = order.amount - price;\r\n        uint256 sellerFee = (price * sellerFeePermille) / 1000;\r\n        platformFee = buyerFee + sellerFee;\r\n        if (\r\n            !order.skipRoyalty &&\r\n            ((order.nftType == BuyingAssetType.ERC721) ||\r\n                (order.nftType == BuyingAssetType.ERC1155))\r\n        ) {\r\n            (tokenCreator, royaltyFee) = IERC2981(order.nftAddress).royaltyInfo(\r\n                order.tokenId,\r\n                price\r\n            );\r\n        }\r\n        assetFee = price - royaltyFee - sellerFee;\r\n        return Fee(platformFee, assetFee, royaltyFee, price, tokenCreator);\r\n    }\r\n\r\n    /** \r\n        transfers the NFTs and tokens...\r\n        @param order ordervalues(seller, buyer,...).\r\n        @param fee Feevalues(platformFee, assetFee,...).\r\n    */\r\n\r\n    function tradeAsset(\r\n        Order calldata order,\r\n        Fee memory fee,\r\n        address buyer,\r\n        address seller\r\n    ) internal virtual {\r\n        if (order.nftType == BuyingAssetType.ERC721) {\r\n            transferProxy.erc721safeTransferFrom(\r\n                IERC721(order.nftAddress),\r\n                seller,\r\n                buyer,\r\n                order.tokenId\r\n            );\r\n        }\r\n        if (order.nftType == BuyingAssetType.ERC1155) {\r\n            transferProxy.erc1155safeTransferFrom(\r\n                IERC1155(order.nftAddress),\r\n                seller,\r\n                buyer,\r\n                order.tokenId,\r\n                order.qty,\r\n                \"\"\r\n            );\r\n        }\r\n\r\n        if (fee.platformFee > 0) {\r\n            transferProxy.erc20safeTransferFrom(\r\n                IERC20(order.erc20Address),\r\n                buyer,\r\n                owner,\r\n                fee.platformFee\r\n            );\r\n        }\r\n        if (fee.royaltyFee > 0 && (!order.skipRoyalty)) {\r\n            transferProxy.erc20safeTransferFrom(\r\n                IERC20(order.erc20Address),\r\n                buyer,\r\n                fee.tokenCreator,\r\n                fee.royaltyFee\r\n            );\r\n        }\r\n        transferProxy.erc20safeTransferFrom(\r\n            IERC20(order.erc20Address),\r\n            buyer,\r\n            seller,\r\n            fee.assetFee\r\n        );\r\n    }\r\n\r\n    // moonpay\r\n    /** \r\n        transfers the NFTs by external wallets\r\n        @param order ordervalues(seller, buyer,...).\r\n    */\r\n    function deliverNFT(Order calldata order)\r\n        external\r\n        OnlySigner()\r\n        returns (bool)\r\n    {\r\n        if (order.nftType == BuyingAssetType.ERC721) {\r\n            transferProxy.erc721safeTransferFrom(\r\n                IERC721(order.nftAddress),\r\n                order.seller,\r\n                order.buyer,\r\n                order.tokenId\r\n            );\r\n        }\r\n        if (order.nftType == BuyingAssetType.ERC1155) {\r\n            transferProxy.erc1155safeTransferFrom(\r\n                IERC1155(order.nftAddress),\r\n                order.seller,\r\n                order.buyer,\r\n                order.tokenId,\r\n                order.qty,\r\n                \"\"\r\n            );\r\n        }\r\n\r\n        emit BuyAsset(order.seller, order.tokenId, order.qty, order.buyer);\r\n        return true;\r\n    }\r\n\r\n    // Signature validation part\r\n\r\n    /**\r\n        get Order Hash for seller.\r\n        @param order ordervalues(seller, buyer,...).\r\n    */\r\n    function getOrderSellerHash(Order calldata order)\r\n        public\r\n        pure\r\n        returns (bytes32)\r\n    {\r\n        return\r\n            keccak256(\r\n                abi.encodePacked(\r\n                    order.seller,\r\n                    order.erc20Address,\r\n                    order.nftAddress,\r\n                    order.nftType,\r\n                    order.unitPrice,\r\n                    order.nftAmount,\r\n                    order.skipRoyalty,\r\n                    order.startDate,\r\n                    order.endDate,\r\n                    order.tokenId\r\n                )\r\n            );\r\n    }\r\n\r\n    /**\r\n        get Order Hash for buyer.\r\n        @param order ordervalues(seller, buyer,...).\r\n    */\r\n    function getOrderBuyerHash(Order calldata order)\r\n        public\r\n        pure\r\n        returns (bytes32)\r\n    {\r\n        return\r\n            keccak256(\r\n                abi.encodePacked(\r\n                    order.buyer,\r\n                    order.erc20Address,\r\n                    order.nftAddress,\r\n                    order.nftType,\r\n                    order.unitPrice,\r\n                    order.tokenId,\r\n                    order.amount,\r\n                    order.qty\r\n                )\r\n            );\r\n    }\r\n\r\n    function prefixed(bytes32 _messageHash) internal pure returns (bytes32) {\r\n        return\r\n            keccak256(\r\n                abi.encodePacked(\r\n                    \"\\x19Ethereum Signed Message:\\n32\",\r\n                    _messageHash\r\n                )\r\n            );\r\n    }\r\n\r\n    function recoverSigner(bytes32 _signedMessageHash, bytes memory _signature)\r\n        internal\r\n        pure\r\n        returns (address)\r\n    {\r\n        (bytes32 r, bytes32 s, uint8 v) = splitSignature(_signature);\r\n\r\n        return ecrecover(_signedMessageHash, v, r, s);\r\n    }\r\n\r\n    function splitSignature(bytes memory sig)\r\n        internal\r\n        pure\r\n        returns (\r\n            bytes32 r,\r\n            bytes32 s,\r\n            uint8 v\r\n        )\r\n    {\r\n        require(sig.length == 65, \"invalid signature length\");\r\n\r\n        assembly {\r\n            /*\r\n            First 32 bytes stores the length of the signature\r\n\r\n            add(sig, 32) = pointer of sig + 32\r\n            effectively, skips first 32 bytes of signature\r\n\r\n            mload(p) loads next 32 bytes starting at the memory address p into memory\r\n            */\r\n\r\n            // first 32 bytes, after the length prefix\r\n            r := mload(add(sig, 32))\r\n            // second 32 bytes\r\n            s := mload(add(sig, 64))\r\n            // final byte (first byte of the next 32 bytes)\r\n            v := byte(0, mload(add(sig, 96)))\r\n        }\r\n\r\n        // implicitly return (r, s, v)\r\n    }\r\n}\r\n",
  "sourcePath": "C:\\Users\\Yash\\Desktop\\Temporary\\Github\\marketplace\\src\\contracts\\trade.sol",
  "compiler": {
    "name": "solc",
    "version": "0.8.14+commit.80d49f37.Emscripten.clang"
  },
  "schemaVersion": "3.4.13",
  "updatedAt": "2023-07-10T03:43:34.516Z",
  "devdoc": {
    "kind": "dev",
    "methods": {
      "buyAsset((address,address,address,address,uint8,uint256,uint256,bool,uint256,uint256,uint256,uint256,uint256,bytes,bytes))": {
        "params": {
          "order": "ordervalues(seller, buyer,...)."
        }
      },
      "cancelOrder((address,address,address,address,uint8,uint256,uint256,bool,uint256,uint256,uint256,uint256,uint256,bytes,bytes))": {
        "params": {
          "order": "ordervalues(seller, buyer,...). this will cancel the invalid use of sign order data"
        }
      },
      "deliverNFT((address,address,address,address,uint8,uint256,uint256,bool,uint256,uint256,uint256,uint256,uint256,bytes,bytes))": {
        "params": {
          "order": "ordervalues(seller, buyer,...)."
        }
      },
      "getOrderBuyerHash((address,address,address,address,uint8,uint256,uint256,bool,uint256,uint256,uint256,uint256,uint256,bytes,bytes))": {
        "params": {
          "order": "ordervalues(seller, buyer,...)."
        }
      },
      "getOrderSellerHash((address,address,address,address,uint8,uint256,uint256,bool,uint256,uint256,uint256,uint256,uint256,bytes,bytes))": {
        "params": {
          "order": "ordervalues(seller, buyer,...)."
        }
      },
      "getRoleAdmin(bytes32)": {
        "details": "Returns the admin role that controls `role`. See {grantRole} and {revokeRole}. To change a role's admin, use {_setRoleAdmin}."
      },
      "grantRole(bytes32,address)": {
        "details": "Grants `role` to `account`. If `account` had not been already granted `role`, emits a {RoleGranted} event. Requirements: - the caller must have ``role``'s admin role. May emit a {RoleGranted} event."
      },
      "hasRole(bytes32,address)": {
        "details": "Returns `true` if `account` has been granted `role`."
      },
      "renounceRole(bytes32,address)": {
        "details": "Revokes `role` from the calling account. Roles are often managed via {grantRole} and {revokeRole}: this function's purpose is to provide a mechanism for accounts to lose their privileges if they are compromised (such as when a trusted device is misplaced). If the calling account had been revoked `role`, emits a {RoleRevoked} event. Requirements: - the caller must be `account`. May emit a {RoleRevoked} event."
      },
      "revokeRole(bytes32,address)": {
        "details": "Revokes `role` from `account`. If `account` had been granted `role`, emits a {RoleRevoked} event. Requirements: - the caller must have ``role``'s admin role. May emit a {RoleRevoked} event."
      },
      "supportsInterface(bytes4)": {
        "details": "See {IERC165-supportsInterface}."
      },
      "validateandUpdateOrderForSeller((address,address,address,address,uint8,uint256,uint256,bool,uint256,uint256,uint256,uint256,uint256,bytes,bytes))": {
        "params": {
          "order": "ordervalues(seller, buyer,...). this will validate and update the signature of order for seller"
        }
      }
    },
    "version": 1
  },
  "userdoc": {
    "kind": "user",
    "methods": {
      "buyAsset((address,address,address,address,uint8,uint256,uint256,bool,uint256,uint256,uint256,uint256,uint256,bytes,bytes))": {
        "notice": "excuting the NFT order."
      },
      "buyerServiceFee()": {
        "notice": "returns the buyerservice Fee in multiply of 1000."
      },
      "cancelOrder((address,address,address,address,uint8,uint256,uint256,bool,uint256,uint256,uint256,uint256,uint256,bytes,bytes))": {
        "notice": "cancel Order."
      },
      "deliverNFT((address,address,address,address,uint8,uint256,uint256,bool,uint256,uint256,uint256,uint256,uint256,bytes,bytes))": {
        "notice": "transfers the NFTs by external wallets"
      },
      "getOrderBuyerHash((address,address,address,address,uint8,uint256,uint256,bool,uint256,uint256,uint256,uint256,uint256,bytes,bytes))": {
        "notice": "get Order Hash for buyer."
      },
      "getOrderSellerHash((address,address,address,address,uint8,uint256,uint256,bool,uint256,uint256,uint256,uint256,uint256,bytes,bytes))": {
        "notice": "get Order Hash for seller."
      },
      "isOrderClosed(bytes32)": {
        "notice": "returns the whether the order is already exists or not."
      },
      "sellerServiceFee()": {
        "notice": "returns the sellerservice Fee in multiply of 1000."
      },
      "setBuyerServiceFee(uint8)": {
        "notice": "returns the buyerservice Fee in multiply of 1000."
      },
      "setSellerServiceFee(uint8)": {
        "notice": "returns the sellerservice Fee in multiply of 1000."
      },
      "setSigner(address)": {
        "notice": "set the signer in address."
      },
      "validateandUpdateOrderForSeller((address,address,address,address,uint8,uint256,uint256,bool,uint256,uint256,uint256,uint256,uint256,bytes,bytes))": {
        "notice": "validate and Update Order Limit."
      }
    },
    "version": 1
  }
}