{
  "contractName": "Trade",
  "abi": [
    {
      "inputs": [
        {
          "internalType": "uint8",
          "name": "_buyerFee",
          "type": "uint8"
        },
        {
          "internalType": "uint8",
          "name": "_sellerFee",
          "type": "uint8"
        },
        {
          "internalType": "contract ITransferProxy",
          "name": "_transferProxy",
          "type": "address"
        }
      ],
      "stateMutability": "nonpayable",
      "type": "constructor"
    },
    {
      "anonymous": false,
      "inputs": [
        {
          "indexed": true,
          "internalType": "address",
          "name": "assetOwner",
          "type": "address"
        },
        {
          "indexed": true,
          "internalType": "uint256",
          "name": "tokenId",
          "type": "uint256"
        },
        {
          "indexed": false,
          "internalType": "uint256",
          "name": "quantity",
          "type": "uint256"
        },
        {
          "indexed": true,
          "internalType": "address",
          "name": "buyer",
          "type": "address"
        }
      ],
      "name": "BuyAsset",
      "type": "event"
    },
    {
      "anonymous": false,
      "inputs": [
        {
          "indexed": false,
          "internalType": "uint8",
          "name": "buyerFee",
          "type": "uint8"
        }
      ],
      "name": "BuyerFee",
      "type": "event"
    },
    {
      "anonymous": false,
      "inputs": [
        {
          "indexed": true,
          "internalType": "address",
          "name": "assetOwner",
          "type": "address"
        },
        {
          "indexed": true,
          "internalType": "uint256",
          "name": "tokenId",
          "type": "uint256"
        },
        {
          "indexed": false,
          "internalType": "uint256",
          "name": "quantity",
          "type": "uint256"
        },
        {
          "indexed": true,
          "internalType": "address",
          "name": "buyer",
          "type": "address"
        }
      ],
      "name": "ExecuteBid",
      "type": "event"
    },
    {
      "anonymous": false,
      "inputs": [
        {
          "indexed": true,
          "internalType": "address",
          "name": "previousOwner",
          "type": "address"
        },
        {
          "indexed": true,
          "internalType": "address",
          "name": "newOwner",
          "type": "address"
        }
      ],
      "name": "OwnershipTransferred",
      "type": "event"
    },
    {
      "anonymous": false,
      "inputs": [
        {
          "indexed": true,
          "internalType": "bytes32",
          "name": "role",
          "type": "bytes32"
        },
        {
          "indexed": true,
          "internalType": "bytes32",
          "name": "previousAdminRole",
          "type": "bytes32"
        },
        {
          "indexed": true,
          "internalType": "bytes32",
          "name": "newAdminRole",
          "type": "bytes32"
        }
      ],
      "name": "RoleAdminChanged",
      "type": "event"
    },
    {
      "anonymous": false,
      "inputs": [
        {
          "indexed": true,
          "internalType": "bytes32",
          "name": "role",
          "type": "bytes32"
        },
        {
          "indexed": true,
          "internalType": "address",
          "name": "account",
          "type": "address"
        },
        {
          "indexed": true,
          "internalType": "address",
          "name": "sender",
          "type": "address"
        }
      ],
      "name": "RoleGranted",
      "type": "event"
    },
    {
      "anonymous": false,
      "inputs": [
        {
          "indexed": true,
          "internalType": "bytes32",
          "name": "role",
          "type": "bytes32"
        },
        {
          "indexed": true,
          "internalType": "address",
          "name": "account",
          "type": "address"
        },
        {
          "indexed": true,
          "internalType": "address",
          "name": "sender",
          "type": "address"
        }
      ],
      "name": "RoleRevoked",
      "type": "event"
    },
    {
      "anonymous": false,
      "inputs": [
        {
          "indexed": false,
          "internalType": "uint8",
          "name": "sellerFee",
          "type": "uint8"
        }
      ],
      "name": "SellerFee",
      "type": "event"
    },
    {
      "inputs": [],
      "name": "ADMIN_ROLE",
      "outputs": [
        {
          "internalType": "bytes32",
          "name": "",
          "type": "bytes32"
        }
      ],
      "stateMutability": "view",
      "type": "function"
    },
    {
      "inputs": [],
      "name": "DEFAULT_ADMIN_ROLE",
      "outputs": [
        {
          "internalType": "bytes32",
          "name": "",
          "type": "bytes32"
        }
      ],
      "stateMutability": "view",
      "type": "function"
    },
    {
      "inputs": [
        {
          "internalType": "bytes32",
          "name": "role",
          "type": "bytes32"
        }
      ],
      "name": "getRoleAdmin",
      "outputs": [
        {
          "internalType": "bytes32",
          "name": "",
          "type": "bytes32"
        }
      ],
      "stateMutability": "view",
      "type": "function"
    },
    {
      "inputs": [
        {
          "internalType": "bytes32",
          "name": "role",
          "type": "bytes32"
        },
        {
          "internalType": "address",
          "name": "account",
          "type": "address"
        }
      ],
      "name": "grantRole",
      "outputs": [],
      "stateMutability": "nonpayable",
      "type": "function"
    },
    {
      "inputs": [
        {
          "internalType": "bytes32",
          "name": "role",
          "type": "bytes32"
        },
        {
          "internalType": "address",
          "name": "account",
          "type": "address"
        }
      ],
      "name": "hasRole",
      "outputs": [
        {
          "internalType": "bool",
          "name": "",
          "type": "bool"
        }
      ],
      "stateMutability": "view",
      "type": "function"
    },
    {
      "inputs": [],
      "name": "owner",
      "outputs": [
        {
          "internalType": "address",
          "name": "",
          "type": "address"
        }
      ],
      "stateMutability": "view",
      "type": "function"
    },
    {
      "inputs": [
        {
          "internalType": "bytes32",
          "name": "role",
          "type": "bytes32"
        },
        {
          "internalType": "address",
          "name": "account",
          "type": "address"
        }
      ],
      "name": "renounceRole",
      "outputs": [],
      "stateMutability": "nonpayable",
      "type": "function"
    },
    {
      "inputs": [
        {
          "internalType": "bytes32",
          "name": "role",
          "type": "bytes32"
        },
        {
          "internalType": "address",
          "name": "account",
          "type": "address"
        }
      ],
      "name": "revokeRole",
      "outputs": [],
      "stateMutability": "nonpayable",
      "type": "function"
    },
    {
      "inputs": [],
      "name": "signer",
      "outputs": [
        {
          "internalType": "address",
          "name": "",
          "type": "address"
        }
      ],
      "stateMutability": "view",
      "type": "function"
    },
    {
      "inputs": [
        {
          "internalType": "bytes4",
          "name": "interfaceId",
          "type": "bytes4"
        }
      ],
      "name": "supportsInterface",
      "outputs": [
        {
          "internalType": "bool",
          "name": "",
          "type": "bool"
        }
      ],
      "stateMutability": "view",
      "type": "function"
    },
    {
      "inputs": [],
      "name": "transferProxy",
      "outputs": [
        {
          "internalType": "contract ITransferProxy",
          "name": "",
          "type": "address"
        }
      ],
      "stateMutability": "view",
      "type": "function"
    },
    {
      "inputs": [],
      "name": "buyerServiceFee",
      "outputs": [
        {
          "internalType": "uint8",
          "name": "",
          "type": "uint8"
        }
      ],
      "stateMutability": "view",
      "type": "function"
    },
    {
      "inputs": [],
      "name": "sellerServiceFee",
      "outputs": [
        {
          "internalType": "uint8",
          "name": "",
          "type": "uint8"
        }
      ],
      "stateMutability": "view",
      "type": "function"
    },
    {
      "inputs": [
        {
          "components": [
            {
              "internalType": "address",
              "name": "seller",
              "type": "address"
            },
            {
              "internalType": "address",
              "name": "buyer",
              "type": "address"
            },
            {
              "internalType": "address",
              "name": "erc20Address",
              "type": "address"
            },
            {
              "internalType": "address",
              "name": "nftAddress",
              "type": "address"
            },
            {
              "internalType": "enum Trade.BuyingAssetType",
              "name": "nftType",
              "type": "uint8"
            },
            {
              "internalType": "uint256",
              "name": "unitPrice",
              "type": "uint256"
            },
            {
              "internalType": "bool",
              "name": "skipRoyalty",
              "type": "bool"
            },
            {
              "internalType": "uint256",
              "name": "amount",
              "type": "uint256"
            },
            {
              "internalType": "uint256",
              "name": "tokenId",
              "type": "uint256"
            },
            {
              "internalType": "string",
              "name": "tokenURI",
              "type": "string"
            },
            {
              "internalType": "uint256",
              "name": "supply",
              "type": "uint256"
            },
            {
              "internalType": "uint96",
              "name": "royaltyFee",
              "type": "uint96"
            },
            {
              "internalType": "uint256",
              "name": "qty",
              "type": "uint256"
            }
          ],
          "internalType": "struct Trade.Order",
          "name": "order",
          "type": "tuple"
        }
      ],
      "name": "buyAsset",
      "outputs": [
        {
          "internalType": "bool",
          "name": "",
          "type": "bool"
        }
      ],
      "stateMutability": "nonpayable",
      "type": "function"
    },
    {
      "inputs": [
        {
          "components": [
            {
              "internalType": "address",
              "name": "seller",
              "type": "address"
            },
            {
              "internalType": "address",
              "name": "buyer",
              "type": "address"
            },
            {
              "internalType": "address",
              "name": "erc20Address",
              "type": "address"
            },
            {
              "internalType": "address",
              "name": "nftAddress",
              "type": "address"
            },
            {
              "internalType": "enum Trade.BuyingAssetType",
              "name": "nftType",
              "type": "uint8"
            },
            {
              "internalType": "uint256",
              "name": "unitPrice",
              "type": "uint256"
            },
            {
              "internalType": "bool",
              "name": "skipRoyalty",
              "type": "bool"
            },
            {
              "internalType": "uint256",
              "name": "amount",
              "type": "uint256"
            },
            {
              "internalType": "uint256",
              "name": "tokenId",
              "type": "uint256"
            },
            {
              "internalType": "string",
              "name": "tokenURI",
              "type": "string"
            },
            {
              "internalType": "uint256",
              "name": "supply",
              "type": "uint256"
            },
            {
              "internalType": "uint96",
              "name": "royaltyFee",
              "type": "uint96"
            },
            {
              "internalType": "uint256",
              "name": "qty",
              "type": "uint256"
            }
          ],
          "internalType": "struct Trade.Order",
          "name": "order",
          "type": "tuple"
        }
      ],
      "name": "executeBid",
      "outputs": [
        {
          "internalType": "bool",
          "name": "",
          "type": "bool"
        }
      ],
      "stateMutability": "nonpayable",
      "type": "function"
    },
    {
      "inputs": [
        {
          "components": [
            {
              "internalType": "address",
              "name": "seller",
              "type": "address"
            },
            {
              "internalType": "address",
              "name": "buyer",
              "type": "address"
            },
            {
              "internalType": "address",
              "name": "erc20Address",
              "type": "address"
            },
            {
              "internalType": "address",
              "name": "nftAddress",
              "type": "address"
            },
            {
              "internalType": "enum Trade.BuyingAssetType",
              "name": "nftType",
              "type": "uint8"
            },
            {
              "internalType": "uint256",
              "name": "unitPrice",
              "type": "uint256"
            },
            {
              "internalType": "bool",
              "name": "skipRoyalty",
              "type": "bool"
            },
            {
              "internalType": "uint256",
              "name": "amount",
              "type": "uint256"
            },
            {
              "internalType": "uint256",
              "name": "tokenId",
              "type": "uint256"
            },
            {
              "internalType": "string",
              "name": "tokenURI",
              "type": "string"
            },
            {
              "internalType": "uint256",
              "name": "supply",
              "type": "uint256"
            },
            {
              "internalType": "uint96",
              "name": "royaltyFee",
              "type": "uint96"
            },
            {
              "internalType": "uint256",
              "name": "qty",
              "type": "uint256"
            }
          ],
          "internalType": "struct Trade.Order",
          "name": "order",
          "type": "tuple"
        }
      ],
      "name": "getFees",
      "outputs": [
        {
          "components": [
            {
              "internalType": "uint256",
              "name": "platformFee",
              "type": "uint256"
            },
            {
              "internalType": "uint256",
              "name": "assetFee",
              "type": "uint256"
            },
            {
              "internalType": "uint256",
              "name": "royaltyFee",
              "type": "uint256"
            },
            {
              "internalType": "uint256",
              "name": "price",
              "type": "uint256"
            },
            {
              "internalType": "address",
              "name": "tokenCreator",
              "type": "address"
            }
          ],
          "internalType": "struct Trade.Fee",
          "name": "",
          "type": "tuple"
        }
      ],
      "stateMutability": "view",
      "type": "function"
    }
  ],
  "bytecode": "0x60806040523480156200001157600080fd5b50604051620022b0380380620022b08339818101604052810190620000379190620001b3565b82600160006101000a81548160ff021916908360ff160217905550816001806101000a81548160ff021916908360ff16021790555080600160026101000a81548173ffffffffffffffffffffffffffffffffffffffff021916908373ffffffffffffffffffffffffffffffffffffffff16021790555033600260006101000a81548173ffffffffffffffffffffffffffffffffffffffff021916908373ffffffffffffffffffffffffffffffffffffffff1602179055505050506200020f565b600080fd5b600060ff82169050919050565b6200011481620000fc565b81146200012057600080fd5b50565b600081519050620001348162000109565b92915050565b600073ffffffffffffffffffffffffffffffffffffffff82169050919050565b600062000167826200013a565b9050919050565b60006200017b826200015a565b9050919050565b6200018d816200016e565b81146200019957600080fd5b50565b600081519050620001ad8162000182565b92915050565b600080600060608486031215620001cf57620001ce620000f7565b5b6000620001df8682870162000123565b9350506020620001f28682870162000123565b925050604062000205868287016200019c565b9150509250925092565b612091806200021f6000396000f3fe608060405234801561001057600080fd5b50600436106101005760003560e01c806375b238fc11610097578063a217fddf11610066578063a217fddf146102b1578063d547741f146102cf578063e1ae0992146102eb578063ef79066f1461031b57610100565b806375b238fc146102275780638da5cb5b1461024557806391d14854146102635780639c66809d1461029357610100565b80632f2ff15d116100d35780632f2ff15d146101b357806336568abe146101cf57806360085da6146101eb5780636e667db31461020957610100565b806301ffc9a71461010557806317ce56e214610135578063238ac93314610165578063248a9ca314610183575b600080fd5b61011f600480360381019061011a9190611401565b61034b565b60405161012c9190611449565b60405180910390f35b61014f600480360381019061014a9190611489565b6103c5565b60405161015c9190611449565b60405180910390f35b61016d6104de565b60405161017a9190611513565b60405180910390f35b61019d60048036038101906101989190611564565b610504565b6040516101aa91906115a0565b60405180910390f35b6101cd60048036038101906101c891906115e7565b610523565b005b6101e960048036038101906101e491906115e7565b610544565b005b6101f36105c7565b6040516102009190611643565b60405180910390f35b6102116105dc565b60405161021e91906116bd565b60405180910390f35b61022f610602565b60405161023c91906115a0565b60405180910390f35b61024d610626565b60405161025a9190611513565b60405180910390f35b61027d600480360381019061027891906115e7565b61064c565b60405161028a9190611449565b60405180910390f35b61029b6106b6565b6040516102a89190611643565b60405180910390f35b6102b96106cd565b6040516102c691906115a0565b60405180910390f35b6102e960048036038101906102e491906115e7565b6106d4565b005b61030560048036038101906103009190611489565b6106f5565b6040516103129190611449565b60405180910390f35b61033560048036038101906103309190611489565b6107b3565b6040516103429190611768565b60405180910390f35b60007f7965db0b000000000000000000000000000000000000000000000000000000007bffffffffffffffffffffffffffffffffffffffffffffffffffffffff1916827bffffffffffffffffffffffffffffffffffffffffffffffffffffffff191614806103be57506103bd826109ee565b5b9050919050565b6000806103d1836107b3565b90508261018001358360a001356103e891906117b2565b8160600151111561042e576040517f08c379a000000000000000000000000000000000000000000000000000000000815260040161042590611869565b60405180910390fd5b600033905061045184838387600001602081019061044c9190611889565b610a58565b3373ffffffffffffffffffffffffffffffffffffffff168461010001358560000160208101906104819190611889565b73ffffffffffffffffffffffffffffffffffffffff167fb10197cef009fd301a90b892d25451c22c3701eb18ee2df1250d31e514fff3948761018001356040516104cb91906118c5565b60405180910390a4600192505050919050565b600360009054906101000a900473ffffffffffffffffffffffffffffffffffffffff1681565b6000806000838152602001908152602001600020600101549050919050565b61052c82610504565b61053581610e8f565b61053f8383610ea3565b505050565b61054c610f83565b73ffffffffffffffffffffffffffffffffffffffff168173ffffffffffffffffffffffffffffffffffffffff16146105b9576040517f08c379a00000000000000000000000000000000000000000000000000000000081526004016105b090611952565b60405180910390fd5b6105c38282610f8b565b5050565b600060018054906101000a900460ff16905090565b600160029054906101000a900473ffffffffffffffffffffffffffffffffffffffff1681565b7fa49807205ce4d355092ef5a8a18f56e8913cf4a201fbe287825b095693c2177581565b600260009054906101000a900473ffffffffffffffffffffffffffffffffffffffff1681565b600080600084815260200190815260200160002060000160008373ffffffffffffffffffffffffffffffffffffffff1673ffffffffffffffffffffffffffffffffffffffff16815260200190815260200160002060009054906101000a900460ff16905092915050565b6000600160009054906101000a900460ff16905090565b6000801b81565b6106dd82610504565b6106e681610e8f565b6106f08383610f8b565b505050565b600080610701836107b3565b9050600033905061072684838660200160208101906107209190611889565b84610a58565b8360200160208101906107399190611889565b73ffffffffffffffffffffffffffffffffffffffff168461010001353373ffffffffffffffffffffffffffffffffffffffff167fec34853c156da04e4792f1c735112ae54e5ed52bac58db5014b26746f306a3628761018001356040516107a091906118c5565b60405180910390a4600192505050919050565b6107bb61135a565b6000806000806000600160009054906101000a900460ff1660ff166103e86107e39190611980565b61ffff166103e88860e001356107f991906117b2565b61080391906119e7565b90506000818860e001356108179190611a18565b905060006103e860018054906101000a900460ff1660ff168461083a91906117b2565b61084491906119e7565b905080826108529190611a4c565b95508860c00160208101906108679190611ace565b1580156108ea575060018081111561088257610881611afb565b5b8960800160208101906108959190611b4f565b60018111156108a7576108a6611afb565b5b14806108e95750600060018111156108c2576108c1611afb565b5b8960800160208101906108d59190611b4f565b60018111156108e7576108e6611afb565b5b145b5b1561098a578860600160208101906109029190611889565b73ffffffffffffffffffffffffffffffffffffffff16632a55205a8a6101000135856040518363ffffffff1660e01b8152600401610941929190611b7c565b6040805180830381865afa15801561095d573d6000803e3d6000fd5b505050506040513d601f19601f820116820180604052508101906109819190611be6565b80965081985050505b8085846109979190611a18565b6109a19190611a18565b93506040518060a001604052808781526020018581526020018681526020018481526020018873ffffffffffffffffffffffffffffffffffffffff16815250975050505050505050919050565b60007f01ffc9a7000000000000000000000000000000000000000000000000000000007bffffffffffffffffffffffffffffffffffffffffffffffffffffffff1916827bffffffffffffffffffffffffffffffffffffffffffffffffffffffff1916149050919050565b600180811115610a6b57610a6a611afb565b5b846080016020810190610a7e9190611b4f565b6001811115610a9057610a8f611afb565b5b03610b4057600160029054906101000a900473ffffffffffffffffffffffffffffffffffffffff1673ffffffffffffffffffffffffffffffffffffffff1663f709b906856060016020810190610ae69190611889565b83858861010001356040518563ffffffff1660e01b8152600401610b0d9493929190611c47565b600060405180830381600087803b158015610b2757600080fd5b505af1158015610b3b573d6000803e3d6000fd5b505050505b60006001811115610b5457610b53611afb565b5b846080016020810190610b679190611b4f565b6001811115610b7957610b78611afb565b5b03610c3057600160029054906101000a900473ffffffffffffffffffffffffffffffffffffffff1673ffffffffffffffffffffffffffffffffffffffff16639c1c2ee9856060016020810190610bcf9190611889565b83858861010001358961018001356040518663ffffffff1660e01b8152600401610bfd959493929190611ce4565b600060405180830381600087803b158015610c1757600080fd5b505af1158015610c2b573d6000803e3d6000fd5b505050505b600083600001511115610d0957600160029054906101000a900473ffffffffffffffffffffffffffffffffffffffff1673ffffffffffffffffffffffffffffffffffffffff1663776062c3856040016020810190610c8e9190611889565b84600260009054906101000a900473ffffffffffffffffffffffffffffffffffffffff1687600001516040518563ffffffff1660e01b8152600401610cd69493929190611d6b565b600060405180830381600087803b158015610cf057600080fd5b505af1158015610d04573d6000803e3d6000fd5b505050505b60008360400151118015610d2d57508360c0016020810190610d2b9190611ace565b155b15610de057600160029054906101000a900473ffffffffffffffffffffffffffffffffffffffff1673ffffffffffffffffffffffffffffffffffffffff1663776062c3856040016020810190610d839190611889565b84866080015187604001516040518563ffffffff1660e01b8152600401610dad9493929190611d6b565b600060405180830381600087803b158015610dc757600080fd5b505af1158015610ddb573d6000803e3d6000fd5b505050505b600160029054906101000a900473ffffffffffffffffffffffffffffffffffffffff1673ffffffffffffffffffffffffffffffffffffffff1663776062c3856040016020810190610e319190611889565b848487602001516040518563ffffffff1660e01b8152600401610e579493929190611d6b565b600060405180830381600087803b158015610e7157600080fd5b505af1158015610e85573d6000803e3d6000fd5b5050505050505050565b610ea081610e9b610f83565b61106c565b50565b610ead828261064c565b610f7f57600160008084815260200190815260200160002060000160008373ffffffffffffffffffffffffffffffffffffffff1673ffffffffffffffffffffffffffffffffffffffff16815260200190815260200160002060006101000a81548160ff021916908315150217905550610f24610f83565b73ffffffffffffffffffffffffffffffffffffffff168173ffffffffffffffffffffffffffffffffffffffff16837f2f8788117e7eff1d82e926ec794901d17c78024a50270940304540a733656f0d60405160405180910390a45b5050565b600033905090565b610f95828261064c565b1561106857600080600084815260200190815260200160002060000160008373ffffffffffffffffffffffffffffffffffffffff1673ffffffffffffffffffffffffffffffffffffffff16815260200190815260200160002060006101000a81548160ff02191690831515021790555061100d610f83565b73ffffffffffffffffffffffffffffffffffffffff168173ffffffffffffffffffffffffffffffffffffffff16837ff6391f5c32d9c69d2a47ea670b442974b53935d1edc7fd64eb21e047a839171b60405160405180910390a45b5050565b611076828261064c565b6110ed57611083816110f1565b6110918360001c602061111e565b6040516020016110a2929190611ec2565b6040516020818303038152906040526040517f08c379a00000000000000000000000000000000000000000000000000000000081526004016110e49190611f46565b60405180910390fd5b5050565b60606111178273ffffffffffffffffffffffffffffffffffffffff16601460ff1661111e565b9050919050565b60606000600283600261113191906117b2565b61113b9190611a4c565b67ffffffffffffffff81111561115457611153611f68565b5b6040519080825280601f01601f1916602001820160405280156111865781602001600182028036833780820191505090505b5090507f3000000000000000000000000000000000000000000000000000000000000000816000815181106111be576111bd611f97565b5b60200101907effffffffffffffffffffffffffffffffffffffffffffffffffffffffffffff1916908160001a9053507f78000000000000000000000000000000000000000000000000000000000000008160018151811061122257611221611f97565b5b60200101907effffffffffffffffffffffffffffffffffffffffffffffffffffffffffffff1916908160001a9053506000600184600261126291906117b2565b61126c9190611a4c565b90505b600181111561130c577f3031323334353637383961626364656600000000000000000000000000000000600f8616601081106112ae576112ad611f97565b5b1a60f81b8282815181106112c5576112c4611f97565b5b60200101907effffffffffffffffffffffffffffffffffffffffffffffffffffffffffffff1916908160001a905350600485901c94508061130590611fc6565b905061126f565b5060008414611350576040517f08c379a00000000000000000000000000000000000000000000000000000000081526004016113479061203b565b60405180910390fd5b8091505092915050565b6040518060a0016040528060008152602001600081526020016000815260200160008152602001600073ffffffffffffffffffffffffffffffffffffffff1681525090565b600080fd5b600080fd5b60007fffffffff0000000000000000000000000000000000000000000000000000000082169050919050565b6113de816113a9565b81146113e957600080fd5b50565b6000813590506113fb816113d5565b92915050565b6000602082840312156114175761141661139f565b5b6000611425848285016113ec565b91505092915050565b60008115159050919050565b6114438161142e565b82525050565b600060208201905061145e600083018461143a565b92915050565b600080fd5b60006101a082840312156114805761147f611464565b5b81905092915050565b60006020828403121561149f5761149e61139f565b5b600082013567ffffffffffffffff8111156114bd576114bc6113a4565b5b6114c984828501611469565b91505092915050565b600073ffffffffffffffffffffffffffffffffffffffff82169050919050565b60006114fd826114d2565b9050919050565b61150d816114f2565b82525050565b60006020820190506115286000830184611504565b92915050565b6000819050919050565b6115418161152e565b811461154c57600080fd5b50565b60008135905061155e81611538565b92915050565b60006020828403121561157a5761157961139f565b5b60006115888482850161154f565b91505092915050565b61159a8161152e565b82525050565b60006020820190506115b56000830184611591565b92915050565b6115c4816114f2565b81146115cf57600080fd5b50565b6000813590506115e1816115bb565b92915050565b600080604083850312156115fe576115fd61139f565b5b600061160c8582860161154f565b925050602061161d858286016115d2565b9150509250929050565b600060ff82169050919050565b61163d81611627565b82525050565b60006020820190506116586000830184611634565b92915050565b6000819050919050565b600061168361167e611679846114d2565b61165e565b6114d2565b9050919050565b600061169582611668565b9050919050565b60006116a78261168a565b9050919050565b6116b78161169c565b82525050565b60006020820190506116d260008301846116ae565b92915050565b6000819050919050565b6116eb816116d8565b82525050565b6116fa816114f2565b82525050565b60a08201600082015161171660008501826116e2565b50602082015161172960208501826116e2565b50604082015161173c60408501826116e2565b50606082015161174f60608501826116e2565b50608082015161176260808501826116f1565b50505050565b600060a08201905061177d6000830184611700565b92915050565b7f4e487b7100000000000000000000000000000000000000000000000000000000600052601160045260246000fd5b60006117bd826116d8565b91506117c8836116d8565b9250817fffffffffffffffffffffffffffffffffffffffffffffffffffffffffffffffff048311821515161561180157611800611783565b5b828202905092915050565b600082825260208201905092915050565b7f5061696420696e76616c696420616d6f756e7400000000000000000000000000600082015250565b600061185360138361180c565b915061185e8261181d565b602082019050919050565b6000602082019050818103600083015261188281611846565b9050919050565b60006020828403121561189f5761189e61139f565b5b60006118ad848285016115d2565b91505092915050565b6118bf816116d8565b82525050565b60006020820190506118da60008301846118b6565b92915050565b7f416363657373436f6e74726f6c3a2063616e206f6e6c792072656e6f756e636560008201527f20726f6c657320666f722073656c660000000000000000000000000000000000602082015250565b600061193c602f8361180c565b9150611947826118e0565b604082019050919050565b6000602082019050818103600083015261196b8161192f565b9050919050565b600061ffff82169050919050565b600061198b82611972565b915061199683611972565b92508261ffff038211156119ad576119ac611783565b5b828201905092915050565b7f4e487b7100000000000000000000000000000000000000000000000000000000600052601260045260246000fd5b60006119f2826116d8565b91506119fd836116d8565b925082611a0d57611a0c6119b8565b5b828204905092915050565b6000611a23826116d8565b9150611a2e836116d8565b925082821015611a4157611a40611783565b5b828203905092915050565b6000611a57826116d8565b9150611a62836116d8565b9250827fffffffffffffffffffffffffffffffffffffffffffffffffffffffffffffffff03821115611a9757611a96611783565b5b828201905092915050565b611aab8161142e565b8114611ab657600080fd5b50565b600081359050611ac881611aa2565b92915050565b600060208284031215611ae457611ae361139f565b5b6000611af284828501611ab9565b91505092915050565b7f4e487b7100000000000000000000000000000000000000000000000000000000600052602160045260246000fd5b60028110611b3757600080fd5b50565b600081359050611b4981611b2a565b92915050565b600060208284031215611b6557611b6461139f565b5b6000611b7384828501611b3a565b91505092915050565b6000604082019050611b9160008301856118b6565b611b9e60208301846118b6565b9392505050565b600081519050611bb4816115bb565b92915050565b611bc3816116d8565b8114611bce57600080fd5b50565b600081519050611be081611bba565b92915050565b60008060408385031215611bfd57611bfc61139f565b5b6000611c0b85828601611ba5565b9250506020611c1c85828601611bd1565b9150509250929050565b6000611c318261168a565b9050919050565b611c4181611c26565b82525050565b6000608082019050611c5c6000830187611c38565b611c696020830186611504565b611c766040830185611504565b611c8360608301846118b6565b95945050505050565b6000611c978261168a565b9050919050565b611ca781611c8c565b82525050565b600082825260208201905092915050565b50565b6000611cce600083611cad565b9150611cd982611cbe565b600082019050919050565b600060c082019050611cf96000830188611c9e565b611d066020830187611504565b611d136040830186611504565b611d2060608301856118b6565b611d2d60808301846118b6565b81810360a0830152611d3e81611cc1565b90509695505050505050565b6000611d558261168a565b9050919050565b611d6581611d4a565b82525050565b6000608082019050611d806000830187611d5c565b611d8d6020830186611504565b611d9a6040830185611504565b611da760608301846118b6565b95945050505050565b600081905092915050565b7f416363657373436f6e74726f6c3a206163636f756e7420000000000000000000600082015250565b6000611df1601783611db0565b9150611dfc82611dbb565b601782019050919050565b600081519050919050565b60005b83811015611e30578082015181840152602081019050611e15565b83811115611e3f576000848401525b50505050565b6000611e5082611e07565b611e5a8185611db0565b9350611e6a818560208601611e12565b80840191505092915050565b7f206973206d697373696e6720726f6c6520000000000000000000000000000000600082015250565b6000611eac601183611db0565b9150611eb782611e76565b601182019050919050565b6000611ecd82611de4565b9150611ed98285611e45565b9150611ee482611e9f565b9150611ef08284611e45565b91508190509392505050565b6000601f19601f8301169050919050565b6000611f1882611e07565b611f22818561180c565b9350611f32818560208601611e12565b611f3b81611efc565b840191505092915050565b60006020820190508181036000830152611f608184611f0d565b905092915050565b7f4e487b7100000000000000000000000000000000000000000000000000000000600052604160045260246000fd5b7f4e487b7100000000000000000000000000000000000000000000000000000000600052603260045260246000fd5b6000611fd1826116d8565b915060008203611fe457611fe3611783565b5b600182039050919050565b7f537472696e67733a20686578206c656e67746820696e73756666696369656e74600082015250565b600061202560208361180c565b915061203082611fef565b602082019050919050565b6000602082019050818103600083015261205481612018565b905091905056fea2646970667358221220cc79d8db1a30b8e2fada6322b4cbd9baf683c97e5edc45b97d349c6d49d745fe64736f6c634300080e0033",
  "immutableReferences": {},
  "source": "// SPDX-License-Identifier: UNLICENSED\r\npragma solidity 0.8.14;\r\n\r\nimport \"@openzeppelin/contracts/access/AccessControl.sol\";\r\nimport \"@openzeppelin/contracts/interfaces/IERC2981.sol\";\r\nimport \"./interface/ITransferProxy.sol\";\r\n\r\ncontract Trade is AccessControl {\r\n    enum BuyingAssetType {\r\n        ERC1155,\r\n        ERC721\r\n    }\r\n\r\n    event OwnershipTransferred(\r\n        address indexed previousOwner,\r\n        address indexed newOwner\r\n    );\r\n    event SellerFee(uint8 sellerFee);\r\n    event BuyerFee(uint8 buyerFee);\r\n    event BuyAsset(\r\n        address indexed assetOwner,\r\n        uint256 indexed tokenId,\r\n        uint256 quantity,\r\n        address indexed buyer\r\n    );\r\n    event ExecuteBid(\r\n        address indexed assetOwner,\r\n        uint256 indexed tokenId,\r\n        uint256 quantity,\r\n        address indexed buyer\r\n    );\r\n    // buyer platformFee\r\n    uint8 private buyerFeePermille;\r\n    //seller platformFee\r\n    uint8 private sellerFeePermille;\r\n    ITransferProxy public transferProxy;\r\n    //contract owner\r\n    address public owner;\r\n\r\n    address public signer;\r\n\r\n    mapping(uint256 => bool) private usedNonce;\r\n\r\n    // Create a new role identifier for the minter role\r\n    bytes32 public constant ADMIN_ROLE = keccak256(\"ADMIN_ROLE\");\r\n\r\n    /** Fee Struct\r\n        @param platformFee  uint256 (buyerFee + sellerFee) value which is transferred to current contract owner.\r\n        @param assetFee  uint256  assetvalue which is transferred to current seller of the NFT.\r\n        @param royaltyFee  uint256 value, transferred to Minter of the NFT.\r\n        @param price  uint256 value, the combination of buyerFee and assetValue.\r\n        @param tokenCreator address value, it's store the creator of NFT.\r\n     */\r\n    struct Fee {\r\n        uint256 platformFee;\r\n        uint256 assetFee;\r\n        uint256 royaltyFee;\r\n        uint256 price;\r\n        address tokenCreator;\r\n    }\r\n\r\n\r\n    /** Order Params\r\n        @param seller address of user,who's selling the NFT.\r\n        @param buyer address of user, who's buying the NFT.\r\n        @param erc20Address address of the token, which is used as payment token(WETH/WBNB/WMATIC...)\r\n        @param nftAddress address of NFT contract where the NFT token is created/Minted.\r\n        @param nftType an enum value, if the type is ERC721/ERC1155 the enum value is 0/1.\r\n        @param uintprice the Price Each NFT it's not including the buyerFee.\r\n        @param amout the price of NFT(assetFee + buyerFee).\r\n        @param tokenId \r\n        @param qty number of quantity to be transfer.\r\n     */\r\n    struct Order {\r\n        address seller;\r\n        address buyer;\r\n        address erc20Address;\r\n        address nftAddress;\r\n        BuyingAssetType nftType;\r\n        uint256 unitPrice;\r\n        bool skipRoyalty;\r\n        uint256 amount;\r\n        uint256 tokenId;\r\n        string tokenURI;\r\n        uint256 supply;\r\n        uint96 royaltyFee;\r\n        uint256 qty;\r\n    }\r\n\r\n    constructor(\r\n        uint8 _buyerFee,\r\n        uint8 _sellerFee,\r\n        ITransferProxy _transferProxy\r\n    ) {\r\n        buyerFeePermille = _buyerFee;\r\n        sellerFeePermille = _sellerFee;\r\n        transferProxy = _transferProxy;\r\n        owner = msg.sender;\r\n\r\n    }\r\n\r\n    /**\r\n        returns the buyerservice Fee in multiply of 1000.\r\n     */\r\n\r\n    function buyerServiceFee() external view virtual returns (uint8) {\r\n        return buyerFeePermille;\r\n    }\r\n\r\n    /**\r\n        returns the sellerservice Fee in multiply of 1000.\r\n     */\r\n\r\n    function sellerServiceFee() external view virtual returns (uint8) {\r\n        return sellerFeePermille;\r\n    }\r\n\r\n    /**\r\n        excuting the NFT order.\r\n        @param order ordervalues(seller, buyer,...).\r\n    */\r\n\r\n    function buyAsset(Order calldata order)\r\n        external\r\n        returns (bool)\r\n    {\r\n\r\n        Fee memory fee = getFees(\r\n            order\r\n        );\r\n        require(\r\n            (fee.price <= order.unitPrice * order.qty),\r\n            \"Paid invalid amount\"\r\n        );\r\n        address buyer = msg.sender;\r\n        tradeAsset(order, fee, buyer, order.seller);\r\n        emit BuyAsset(order.seller, order.tokenId, order.qty, msg.sender);\r\n        return true;\r\n    }\r\n\r\n    function executeBid(Order calldata order)\r\n        external\r\n        returns (bool)\r\n    {\r\n        Fee memory fee = getFees(\r\n            order\r\n        );\r\n        address seller = msg.sender;\r\n        tradeAsset(order, fee, order.buyer, seller);\r\n        emit ExecuteBid(msg.sender, order.tokenId, order.qty, order.buyer);\r\n        return true;\r\n    }\r\n\r\n\r\n\r\n    function getFees(\r\n        Order calldata order\r\n    ) public view returns (Fee memory) {\r\n        address tokenCreator;\r\n        uint256 platformFee;\r\n        uint256 royaltyFee;\r\n        uint256 assetFee;\r\n        uint256 price = (order.amount * 1000) / (1000 + buyerFeePermille);\r\n        uint256 buyerFee = order.amount - price;\r\n        uint256 sellerFee = (price * sellerFeePermille) / 1000;\r\n        platformFee = buyerFee + sellerFee;\r\n        if(!order.skipRoyalty &&((order.nftType == BuyingAssetType.ERC721) || (order.nftType == BuyingAssetType.ERC1155))) {\r\n            (tokenCreator, royaltyFee) = IERC2981(order.nftAddress)\r\n                    .royaltyInfo(order.tokenId, price); \r\n        }\r\n        assetFee = price - royaltyFee - sellerFee;\r\n        return Fee(platformFee, assetFee, royaltyFee, price, tokenCreator);\r\n    }\r\n\r\n    /** \r\n        transfers the NFTs and tokens...\r\n        @param order ordervalues(seller, buyer,...).\r\n        @param fee Feevalues(platformFee, assetFee,...).\r\n    */\r\n\r\n    function tradeAsset(\r\n        Order calldata order,\r\n        Fee memory fee,\r\n        address buyer,\r\n        address seller\r\n    ) internal virtual {\r\n        if (order.nftType == BuyingAssetType.ERC721) {\r\n            transferProxy.erc721safeTransferFrom(\r\n                IERC721(order.nftAddress),\r\n                seller,\r\n                buyer,\r\n                order.tokenId\r\n            );\r\n        }\r\n        if (order.nftType == BuyingAssetType.ERC1155) {\r\n            transferProxy.erc1155safeTransferFrom(\r\n                IERC1155(order.nftAddress),\r\n                seller,\r\n                buyer,\r\n                order.tokenId,\r\n                order.qty,\r\n                \"\"\r\n            );\r\n        }\r\n\r\n        if (fee.platformFee > 0) {\r\n            transferProxy.erc20safeTransferFrom(\r\n                IERC20(order.erc20Address),\r\n                buyer,\r\n                owner,\r\n                fee.platformFee\r\n            );\r\n        }\r\n        if (fee.royaltyFee > 0 && (!order.skipRoyalty)) {\r\n            transferProxy.erc20safeTransferFrom(\r\n                IERC20(order.erc20Address),\r\n                buyer,\r\n                fee.tokenCreator,\r\n                fee.royaltyFee\r\n            );\r\n        }\r\n        transferProxy.erc20safeTransferFrom(\r\n            IERC20(order.erc20Address),\r\n            buyer,\r\n            seller,\r\n            fee.assetFee\r\n        );\r\n    }\r\n}\r\n",
  "sourcePath": "C:\\Users\\Yash\\Desktop\\Temporary\\Github\\marketplace\\src\\contracts\\trade.sol",
  "compiler": {
    "name": "solc",
    "version": "0.8.14+commit.80d49f37.Emscripten.clang"
  },
  "schemaVersion": "3.4.13",
  "updatedAt": "2023-05-22T02:18:15.628Z",
  "devdoc": {
    "kind": "dev",
    "methods": {
      "buyAsset((address,address,address,address,uint8,uint256,bool,uint256,uint256,string,uint256,uint96,uint256))": {
        "params": {
          "order": "ordervalues(seller, buyer,...)."
        }
      },
      "getRoleAdmin(bytes32)": {
        "details": "Returns the admin role that controls `role`. See {grantRole} and {revokeRole}. To change a role's admin, use {_setRoleAdmin}."
      },
      "grantRole(bytes32,address)": {
        "details": "Grants `role` to `account`. If `account` had not been already granted `role`, emits a {RoleGranted} event. Requirements: - the caller must have ``role``'s admin role. May emit a {RoleGranted} event."
      },
      "hasRole(bytes32,address)": {
        "details": "Returns `true` if `account` has been granted `role`."
      },
      "renounceRole(bytes32,address)": {
        "details": "Revokes `role` from the calling account. Roles are often managed via {grantRole} and {revokeRole}: this function's purpose is to provide a mechanism for accounts to lose their privileges if they are compromised (such as when a trusted device is misplaced). If the calling account had been revoked `role`, emits a {RoleRevoked} event. Requirements: - the caller must be `account`. May emit a {RoleRevoked} event."
      },
      "revokeRole(bytes32,address)": {
        "details": "Revokes `role` from `account`. If `account` had been granted `role`, emits a {RoleRevoked} event. Requirements: - the caller must have ``role``'s admin role. May emit a {RoleRevoked} event."
      },
      "supportsInterface(bytes4)": {
        "details": "See {IERC165-supportsInterface}."
      }
    },
    "version": 1
  },
  "userdoc": {
    "kind": "user",
    "methods": {
      "buyAsset((address,address,address,address,uint8,uint256,bool,uint256,uint256,string,uint256,uint96,uint256))": {
        "notice": "excuting the NFT order."
      },
      "buyerServiceFee()": {
        "notice": "returns the buyerservice Fee in multiply of 1000."
      },
      "sellerServiceFee()": {
        "notice": "returns the sellerservice Fee in multiply of 1000."
      }
    },
    "version": 1
  }
}