{
  "contractName": "Trade",
  "abi": [
    {
      "inputs": [
        {
          "internalType": "uint8",
          "name": "_buyerFee",
          "type": "uint8"
        },
        {
          "internalType": "uint8",
          "name": "_sellerFee",
          "type": "uint8"
        },
        {
          "internalType": "contract ITransferProxy",
          "name": "_transferProxy",
          "type": "address"
        }
      ],
      "stateMutability": "nonpayable",
      "type": "constructor"
    },
    {
      "anonymous": false,
      "inputs": [
        {
          "indexed": true,
          "internalType": "address",
          "name": "assetOwner",
          "type": "address"
        },
        {
          "indexed": true,
          "internalType": "uint256",
          "name": "tokenId",
          "type": "uint256"
        },
        {
          "indexed": false,
          "internalType": "uint256",
          "name": "quantity",
          "type": "uint256"
        },
        {
          "indexed": true,
          "internalType": "address",
          "name": "buyer",
          "type": "address"
        }
      ],
      "name": "BuyAsset",
      "type": "event"
    },
    {
      "anonymous": false,
      "inputs": [
        {
          "indexed": false,
          "internalType": "uint8",
          "name": "buyerFee",
          "type": "uint8"
        }
      ],
      "name": "BuyerFee",
      "type": "event"
    },
    {
      "anonymous": false,
      "inputs": [
        {
          "indexed": true,
          "internalType": "address",
          "name": "assetOwner",
          "type": "address"
        },
        {
          "indexed": true,
          "internalType": "uint256",
          "name": "tokenId",
          "type": "uint256"
        },
        {
          "indexed": false,
          "internalType": "uint256",
          "name": "quantity",
          "type": "uint256"
        },
        {
          "indexed": true,
          "internalType": "address",
          "name": "buyer",
          "type": "address"
        }
      ],
      "name": "ExecuteBid",
      "type": "event"
    },
    {
      "anonymous": false,
      "inputs": [
        {
          "indexed": true,
          "internalType": "address",
          "name": "previousOwner",
          "type": "address"
        },
        {
          "indexed": true,
          "internalType": "address",
          "name": "newOwner",
          "type": "address"
        }
      ],
      "name": "OwnershipTransferred",
      "type": "event"
    },
    {
      "anonymous": false,
      "inputs": [
        {
          "indexed": true,
          "internalType": "bytes32",
          "name": "role",
          "type": "bytes32"
        },
        {
          "indexed": true,
          "internalType": "bytes32",
          "name": "previousAdminRole",
          "type": "bytes32"
        },
        {
          "indexed": true,
          "internalType": "bytes32",
          "name": "newAdminRole",
          "type": "bytes32"
        }
      ],
      "name": "RoleAdminChanged",
      "type": "event"
    },
    {
      "anonymous": false,
      "inputs": [
        {
          "indexed": true,
          "internalType": "bytes32",
          "name": "role",
          "type": "bytes32"
        },
        {
          "indexed": true,
          "internalType": "address",
          "name": "account",
          "type": "address"
        },
        {
          "indexed": true,
          "internalType": "address",
          "name": "sender",
          "type": "address"
        }
      ],
      "name": "RoleGranted",
      "type": "event"
    },
    {
      "anonymous": false,
      "inputs": [
        {
          "indexed": true,
          "internalType": "bytes32",
          "name": "role",
          "type": "bytes32"
        },
        {
          "indexed": true,
          "internalType": "address",
          "name": "account",
          "type": "address"
        },
        {
          "indexed": true,
          "internalType": "address",
          "name": "sender",
          "type": "address"
        }
      ],
      "name": "RoleRevoked",
      "type": "event"
    },
    {
      "anonymous": false,
      "inputs": [
        {
          "indexed": false,
          "internalType": "uint8",
          "name": "sellerFee",
          "type": "uint8"
        }
      ],
      "name": "SellerFee",
      "type": "event"
    },
    {
      "inputs": [],
      "name": "DEFAULT_ADMIN_ROLE",
      "outputs": [
        {
          "internalType": "bytes32",
          "name": "",
          "type": "bytes32"
        }
      ],
      "stateMutability": "view",
      "type": "function"
    },
    {
      "inputs": [
        {
          "internalType": "bytes32",
          "name": "role",
          "type": "bytes32"
        }
      ],
      "name": "getRoleAdmin",
      "outputs": [
        {
          "internalType": "bytes32",
          "name": "",
          "type": "bytes32"
        }
      ],
      "stateMutability": "view",
      "type": "function"
    },
    {
      "inputs": [
        {
          "internalType": "bytes32",
          "name": "role",
          "type": "bytes32"
        },
        {
          "internalType": "address",
          "name": "account",
          "type": "address"
        }
      ],
      "name": "grantRole",
      "outputs": [],
      "stateMutability": "nonpayable",
      "type": "function"
    },
    {
      "inputs": [
        {
          "internalType": "bytes32",
          "name": "role",
          "type": "bytes32"
        },
        {
          "internalType": "address",
          "name": "account",
          "type": "address"
        }
      ],
      "name": "hasRole",
      "outputs": [
        {
          "internalType": "bool",
          "name": "",
          "type": "bool"
        }
      ],
      "stateMutability": "view",
      "type": "function"
    },
    {
      "inputs": [],
      "name": "owner",
      "outputs": [
        {
          "internalType": "address",
          "name": "",
          "type": "address"
        }
      ],
      "stateMutability": "view",
      "type": "function"
    },
    {
      "inputs": [
        {
          "internalType": "bytes32",
          "name": "role",
          "type": "bytes32"
        },
        {
          "internalType": "address",
          "name": "account",
          "type": "address"
        }
      ],
      "name": "renounceRole",
      "outputs": [],
      "stateMutability": "nonpayable",
      "type": "function"
    },
    {
      "inputs": [
        {
          "internalType": "bytes32",
          "name": "role",
          "type": "bytes32"
        },
        {
          "internalType": "address",
          "name": "account",
          "type": "address"
        }
      ],
      "name": "revokeRole",
      "outputs": [],
      "stateMutability": "nonpayable",
      "type": "function"
    },
    {
      "inputs": [],
      "name": "signer",
      "outputs": [
        {
          "internalType": "address",
          "name": "",
          "type": "address"
        }
      ],
      "stateMutability": "view",
      "type": "function"
    },
    {
      "inputs": [
        {
          "internalType": "bytes4",
          "name": "interfaceId",
          "type": "bytes4"
        }
      ],
      "name": "supportsInterface",
      "outputs": [
        {
          "internalType": "bool",
          "name": "",
          "type": "bool"
        }
      ],
      "stateMutability": "view",
      "type": "function"
    },
    {
      "inputs": [],
      "name": "transferProxy",
      "outputs": [
        {
          "internalType": "contract ITransferProxy",
          "name": "",
          "type": "address"
        }
      ],
      "stateMutability": "view",
      "type": "function"
    },
    {
      "inputs": [],
      "name": "buyerServiceFee",
      "outputs": [
        {
          "internalType": "uint8",
          "name": "",
          "type": "uint8"
        }
      ],
      "stateMutability": "view",
      "type": "function"
    },
    {
      "inputs": [],
      "name": "sellerServiceFee",
      "outputs": [
        {
          "internalType": "uint8",
          "name": "",
          "type": "uint8"
        }
      ],
      "stateMutability": "view",
      "type": "function"
    },
    {
      "inputs": [
        {
          "internalType": "uint8",
          "name": "_buyerFeePermille",
          "type": "uint8"
        }
      ],
      "name": "setBuyerServiceFee",
      "outputs": [],
      "stateMutability": "nonpayable",
      "type": "function"
    },
    {
      "inputs": [
        {
          "internalType": "uint8",
          "name": "_sellerFeePermille",
          "type": "uint8"
        }
      ],
      "name": "setSellerServiceFee",
      "outputs": [],
      "stateMutability": "nonpayable",
      "type": "function"
    },
    {
      "inputs": [
        {
          "internalType": "address",
          "name": "_signer",
          "type": "address"
        }
      ],
      "name": "setSigner",
      "outputs": [],
      "stateMutability": "nonpayable",
      "type": "function"
    },
    {
      "inputs": [
        {
          "internalType": "bytes32",
          "name": "orderHash",
          "type": "bytes32"
        }
      ],
      "name": "isOrderClosed",
      "outputs": [
        {
          "internalType": "bool",
          "name": "",
          "type": "bool"
        }
      ],
      "stateMutability": "view",
      "type": "function"
    },
    {
      "inputs": [
        {
          "components": [
            {
              "internalType": "address",
              "name": "seller",
              "type": "address"
            },
            {
              "internalType": "address",
              "name": "buyer",
              "type": "address"
            },
            {
              "internalType": "address",
              "name": "erc20Address",
              "type": "address"
            },
            {
              "internalType": "address",
              "name": "nftAddress",
              "type": "address"
            },
            {
              "internalType": "enum Trade.BuyingAssetType",
              "name": "nftType",
              "type": "uint8"
            },
            {
              "internalType": "uint256",
              "name": "unitPrice",
              "type": "uint256"
            },
            {
              "internalType": "uint256",
              "name": "nftOrderQuantity",
              "type": "uint256"
            },
            {
              "internalType": "bool",
              "name": "skipRoyalty",
              "type": "bool"
            },
            {
              "internalType": "uint256",
              "name": "startDate",
              "type": "uint256"
            },
            {
              "internalType": "uint256",
              "name": "endDate",
              "type": "uint256"
            },
            {
              "internalType": "uint256",
              "name": "tokenId",
              "type": "uint256"
            },
            {
              "internalType": "uint256",
              "name": "amount",
              "type": "uint256"
            },
            {
              "internalType": "uint256",
              "name": "qty",
              "type": "uint256"
            },
            {
              "internalType": "bytes",
              "name": "sellerOrdersignature",
              "type": "bytes"
            },
            {
              "internalType": "bytes",
              "name": "buyerOrdersignature",
              "type": "bytes"
            }
          ],
          "internalType": "struct Trade.Order",
          "name": "order",
          "type": "tuple"
        }
      ],
      "name": "cancelOrder",
      "outputs": [
        {
          "internalType": "bool",
          "name": "",
          "type": "bool"
        }
      ],
      "stateMutability": "nonpayable",
      "type": "function"
    },
    {
      "inputs": [
        {
          "components": [
            {
              "internalType": "address",
              "name": "seller",
              "type": "address"
            },
            {
              "internalType": "address",
              "name": "buyer",
              "type": "address"
            },
            {
              "internalType": "address",
              "name": "erc20Address",
              "type": "address"
            },
            {
              "internalType": "address",
              "name": "nftAddress",
              "type": "address"
            },
            {
              "internalType": "enum Trade.BuyingAssetType",
              "name": "nftType",
              "type": "uint8"
            },
            {
              "internalType": "uint256",
              "name": "unitPrice",
              "type": "uint256"
            },
            {
              "internalType": "uint256",
              "name": "nftOrderQuantity",
              "type": "uint256"
            },
            {
              "internalType": "bool",
              "name": "skipRoyalty",
              "type": "bool"
            },
            {
              "internalType": "uint256",
              "name": "startDate",
              "type": "uint256"
            },
            {
              "internalType": "uint256",
              "name": "endDate",
              "type": "uint256"
            },
            {
              "internalType": "uint256",
              "name": "tokenId",
              "type": "uint256"
            },
            {
              "internalType": "uint256",
              "name": "amount",
              "type": "uint256"
            },
            {
              "internalType": "uint256",
              "name": "qty",
              "type": "uint256"
            },
            {
              "internalType": "bytes",
              "name": "sellerOrdersignature",
              "type": "bytes"
            },
            {
              "internalType": "bytes",
              "name": "buyerOrdersignature",
              "type": "bytes"
            }
          ],
          "internalType": "struct Trade.Order",
          "name": "order",
          "type": "tuple"
        }
      ],
      "name": "buyAsset",
      "outputs": [
        {
          "internalType": "bool",
          "name": "",
          "type": "bool"
        }
      ],
      "stateMutability": "nonpayable",
      "type": "function"
    },
    {
      "inputs": [
        {
          "components": [
            {
              "internalType": "address",
              "name": "seller",
              "type": "address"
            },
            {
              "internalType": "address",
              "name": "buyer",
              "type": "address"
            },
            {
              "internalType": "address",
              "name": "erc20Address",
              "type": "address"
            },
            {
              "internalType": "address",
              "name": "nftAddress",
              "type": "address"
            },
            {
              "internalType": "enum Trade.BuyingAssetType",
              "name": "nftType",
              "type": "uint8"
            },
            {
              "internalType": "uint256",
              "name": "unitPrice",
              "type": "uint256"
            },
            {
              "internalType": "uint256",
              "name": "nftOrderQuantity",
              "type": "uint256"
            },
            {
              "internalType": "bool",
              "name": "skipRoyalty",
              "type": "bool"
            },
            {
              "internalType": "uint256",
              "name": "startDate",
              "type": "uint256"
            },
            {
              "internalType": "uint256",
              "name": "endDate",
              "type": "uint256"
            },
            {
              "internalType": "uint256",
              "name": "tokenId",
              "type": "uint256"
            },
            {
              "internalType": "uint256",
              "name": "amount",
              "type": "uint256"
            },
            {
              "internalType": "uint256",
              "name": "qty",
              "type": "uint256"
            },
            {
              "internalType": "bytes",
              "name": "sellerOrdersignature",
              "type": "bytes"
            },
            {
              "internalType": "bytes",
              "name": "buyerOrdersignature",
              "type": "bytes"
            }
          ],
          "internalType": "struct Trade.Order",
          "name": "order",
          "type": "tuple"
        }
      ],
      "name": "executeBid",
      "outputs": [
        {
          "internalType": "bool",
          "name": "",
          "type": "bool"
        }
      ],
      "stateMutability": "nonpayable",
      "type": "function"
    },
    {
      "inputs": [
        {
          "components": [
            {
              "internalType": "address",
              "name": "seller",
              "type": "address"
            },
            {
              "internalType": "address",
              "name": "buyer",
              "type": "address"
            },
            {
              "internalType": "address",
              "name": "erc20Address",
              "type": "address"
            },
            {
              "internalType": "address",
              "name": "nftAddress",
              "type": "address"
            },
            {
              "internalType": "enum Trade.BuyingAssetType",
              "name": "nftType",
              "type": "uint8"
            },
            {
              "internalType": "uint256",
              "name": "unitPrice",
              "type": "uint256"
            },
            {
              "internalType": "uint256",
              "name": "nftOrderQuantity",
              "type": "uint256"
            },
            {
              "internalType": "bool",
              "name": "skipRoyalty",
              "type": "bool"
            },
            {
              "internalType": "uint256",
              "name": "startDate",
              "type": "uint256"
            },
            {
              "internalType": "uint256",
              "name": "endDate",
              "type": "uint256"
            },
            {
              "internalType": "uint256",
              "name": "tokenId",
              "type": "uint256"
            },
            {
              "internalType": "uint256",
              "name": "amount",
              "type": "uint256"
            },
            {
              "internalType": "uint256",
              "name": "qty",
              "type": "uint256"
            },
            {
              "internalType": "bytes",
              "name": "sellerOrdersignature",
              "type": "bytes"
            },
            {
              "internalType": "bytes",
              "name": "buyerOrdersignature",
              "type": "bytes"
            }
          ],
          "internalType": "struct Trade.Order",
          "name": "order",
          "type": "tuple"
        }
      ],
      "name": "getFees",
      "outputs": [
        {
          "components": [
            {
              "internalType": "uint256",
              "name": "platformFee",
              "type": "uint256"
            },
            {
              "internalType": "uint256",
              "name": "assetFee",
              "type": "uint256"
            },
            {
              "internalType": "uint256",
              "name": "royaltyFee",
              "type": "uint256"
            },
            {
              "internalType": "uint256",
              "name": "price",
              "type": "uint256"
            },
            {
              "internalType": "address",
              "name": "tokenCreator",
              "type": "address"
            }
          ],
          "internalType": "struct Trade.Fee",
          "name": "",
          "type": "tuple"
        }
      ],
      "stateMutability": "view",
      "type": "function"
    },
    {
      "inputs": [
        {
          "components": [
            {
              "internalType": "address",
              "name": "seller",
              "type": "address"
            },
            {
              "internalType": "address",
              "name": "buyer",
              "type": "address"
            },
            {
              "internalType": "address",
              "name": "erc20Address",
              "type": "address"
            },
            {
              "internalType": "address",
              "name": "nftAddress",
              "type": "address"
            },
            {
              "internalType": "enum Trade.BuyingAssetType",
              "name": "nftType",
              "type": "uint8"
            },
            {
              "internalType": "uint256",
              "name": "unitPrice",
              "type": "uint256"
            },
            {
              "internalType": "uint256",
              "name": "nftOrderQuantity",
              "type": "uint256"
            },
            {
              "internalType": "bool",
              "name": "skipRoyalty",
              "type": "bool"
            },
            {
              "internalType": "uint256",
              "name": "startDate",
              "type": "uint256"
            },
            {
              "internalType": "uint256",
              "name": "endDate",
              "type": "uint256"
            },
            {
              "internalType": "uint256",
              "name": "tokenId",
              "type": "uint256"
            },
            {
              "internalType": "uint256",
              "name": "amount",
              "type": "uint256"
            },
            {
              "internalType": "uint256",
              "name": "qty",
              "type": "uint256"
            },
            {
              "internalType": "bytes",
              "name": "sellerOrdersignature",
              "type": "bytes"
            },
            {
              "internalType": "bytes",
              "name": "buyerOrdersignature",
              "type": "bytes"
            }
          ],
          "internalType": "struct Trade.Order",
          "name": "order",
          "type": "tuple"
        }
      ],
      "name": "deliverNFT",
      "outputs": [
        {
          "internalType": "bool",
          "name": "",
          "type": "bool"
        }
      ],
      "stateMutability": "nonpayable",
      "type": "function"
    },
    {
      "inputs": [
        {
          "components": [
            {
              "internalType": "address",
              "name": "seller",
              "type": "address"
            },
            {
              "internalType": "address",
              "name": "buyer",
              "type": "address"
            },
            {
              "internalType": "address",
              "name": "erc20Address",
              "type": "address"
            },
            {
              "internalType": "address",
              "name": "nftAddress",
              "type": "address"
            },
            {
              "internalType": "enum Trade.BuyingAssetType",
              "name": "nftType",
              "type": "uint8"
            },
            {
              "internalType": "uint256",
              "name": "unitPrice",
              "type": "uint256"
            },
            {
              "internalType": "uint256",
              "name": "nftOrderQuantity",
              "type": "uint256"
            },
            {
              "internalType": "bool",
              "name": "skipRoyalty",
              "type": "bool"
            },
            {
              "internalType": "uint256",
              "name": "startDate",
              "type": "uint256"
            },
            {
              "internalType": "uint256",
              "name": "endDate",
              "type": "uint256"
            },
            {
              "internalType": "uint256",
              "name": "tokenId",
              "type": "uint256"
            },
            {
              "internalType": "uint256",
              "name": "amount",
              "type": "uint256"
            },
            {
              "internalType": "uint256",
              "name": "qty",
              "type": "uint256"
            },
            {
              "internalType": "bytes",
              "name": "sellerOrdersignature",
              "type": "bytes"
            },
            {
              "internalType": "bytes",
              "name": "buyerOrdersignature",
              "type": "bytes"
            }
          ],
          "internalType": "struct Trade.Order",
          "name": "order",
          "type": "tuple"
        }
      ],
      "name": "getOrderSellerHash",
      "outputs": [
        {
          "internalType": "bytes32",
          "name": "",
          "type": "bytes32"
        }
      ],
      "stateMutability": "pure",
      "type": "function"
    },
    {
      "inputs": [
        {
          "components": [
            {
              "internalType": "address",
              "name": "seller",
              "type": "address"
            },
            {
              "internalType": "address",
              "name": "buyer",
              "type": "address"
            },
            {
              "internalType": "address",
              "name": "erc20Address",
              "type": "address"
            },
            {
              "internalType": "address",
              "name": "nftAddress",
              "type": "address"
            },
            {
              "internalType": "enum Trade.BuyingAssetType",
              "name": "nftType",
              "type": "uint8"
            },
            {
              "internalType": "uint256",
              "name": "unitPrice",
              "type": "uint256"
            },
            {
              "internalType": "uint256",
              "name": "nftOrderQuantity",
              "type": "uint256"
            },
            {
              "internalType": "bool",
              "name": "skipRoyalty",
              "type": "bool"
            },
            {
              "internalType": "uint256",
              "name": "startDate",
              "type": "uint256"
            },
            {
              "internalType": "uint256",
              "name": "endDate",
              "type": "uint256"
            },
            {
              "internalType": "uint256",
              "name": "tokenId",
              "type": "uint256"
            },
            {
              "internalType": "uint256",
              "name": "amount",
              "type": "uint256"
            },
            {
              "internalType": "uint256",
              "name": "qty",
              "type": "uint256"
            },
            {
              "internalType": "bytes",
              "name": "sellerOrdersignature",
              "type": "bytes"
            },
            {
              "internalType": "bytes",
              "name": "buyerOrdersignature",
              "type": "bytes"
            }
          ],
          "internalType": "struct Trade.Order",
          "name": "order",
          "type": "tuple"
        }
      ],
      "name": "getOrderBuyerHash",
      "outputs": [
        {
          "internalType": "bytes32",
          "name": "",
          "type": "bytes32"
        }
      ],
      "stateMutability": "pure",
      "type": "function"
    }
  ],
  "bytecode": "0x60806040523480156200001157600080fd5b50604051620049db380380620049db8339818101604052810190620000379190620001b3565b82600160006101000a81548160ff021916908360ff160217905550816001806101000a81548160ff021916908360ff16021790555080600160026101000a81548173ffffffffffffffffffffffffffffffffffffffff021916908373ffffffffffffffffffffffffffffffffffffffff16021790555033600260006101000a81548173ffffffffffffffffffffffffffffffffffffffff021916908373ffffffffffffffffffffffffffffffffffffffff1602179055505050506200020f565b600080fd5b600060ff82169050919050565b6200011481620000fc565b81146200012057600080fd5b50565b600081519050620001348162000109565b92915050565b600073ffffffffffffffffffffffffffffffffffffffff82169050919050565b600062000167826200013a565b9050919050565b60006200017b826200015a565b9050919050565b6200018d816200016e565b81146200019957600080fd5b50565b600081519050620001ad8162000182565b92915050565b600080600060608486031215620001cf57620001ce620000f7565b5b6000620001df8682870162000123565b9350506020620001f28682870162000123565b925050604062000205868287016200019c565b9150509250925092565b6147bc806200021f6000396000f3fe608060405234801561001057600080fd5b506004361061014d5760003560e01c80638162b6bd116100c3578063a217fddf1161007c578063a217fddf146103ec578063a3667c7b1461040a578063a96b446d14610426578063d547741f14610442578063dab56b481461045e578063f5c7c83d1461048e5761014d565b80638162b6bd146102f05780638da5cb5b146103205780638e1615ac1461033e57806391d148541461036e57806396c94acf1461039e5780639c66809d146103ce5761014d565b806336568abe1161011557806336568abe1461021c5780634cf4d2b71461023857806360085da6146102685780636c19e783146102865780636e667db3146102a257806377c1b664146102c05761014d565b806301ffc9a7146101525780630336585714610182578063238ac933146101b2578063248a9ca3146101d05780632f2ff15d14610200575b600080fd5b61016c60048036038101906101679190612d1c565b6104be565b6040516101799190612d64565b60405180910390f35b61019c60048036038101906101979190612da4565b610538565b6040516101a99190612e06565b60405180910390f35b6101ba6105eb565b6040516101c79190612e62565b60405180910390f35b6101ea60048036038101906101e59190612ea9565b610611565b6040516101f79190612e06565b60405180910390f35b61021a60048036038101906102159190612f02565b610630565b005b61023660048036038101906102319190612f02565b610651565b005b610252600480360381019061024d9190612da4565b6106d4565b60405161025f9190612fd2565b60405180910390f35b610270610911565b60405161027d9190613009565b60405180910390f35b6102a0600480360381019061029b9190613024565b610926565b005b6102aa610a8a565b6040516102b791906130b0565b60405180910390f35b6102da60048036038101906102d59190612da4565b610ab0565b6040516102e79190612e06565b60405180910390f35b61030a60048036038101906103059190612da4565b610b49565b6040516103179190612d64565b60405180910390f35b61032861104d565b6040516103359190612e62565b60405180910390f35b61035860048036038101906103539190612ea9565b611073565b6040516103659190612d64565b60405180910390f35b61038860048036038101906103839190612f02565b611118565b6040516103959190612d64565b60405180910390f35b6103b860048036038101906103b39190612da4565b611182565b6040516103c59190612d64565b60405180910390f35b6103d66113a8565b6040516103e39190613009565b60405180910390f35b6103f46113bf565b6040516104019190612e06565b60405180910390f35b610424600480360381019061041f91906130f7565b6113c6565b005b610440600480360381019061043b91906130f7565b6114c8565b005b61045c60048036038101906104579190612f02565b6115cd565b005b61047860048036038101906104739190612da4565b6115ee565b6040516104859190612d64565b60405180910390f35b6104a860048036038101906104a39190612da4565b611b78565b6040516104b59190612d64565b60405180910390f35b60007f7965db0b000000000000000000000000000000000000000000000000000000007bffffffffffffffffffffffffffffffffffffffffffffffffffffffff1916827bffffffffffffffffffffffffffffffffffffffffffffffffffffffff19161480610531575061053082611ec7565b5b9050919050565b600081600001602081019061054d9190613024565b8260400160208101906105609190613024565b8360600160208101906105739190613024565b8460800160208101906105869190613149565b8560a001358660c001358760e00160208101906105a391906131a2565b8861010001358961012001358a61014001356040516020016105ce9a999897969594939291906132ff565b604051602081830303815290604052805190602001209050919050565b600360009054906101000a900473ffffffffffffffffffffffffffffffffffffffff1681565b6000806000838152602001908152602001600020600101549050919050565b61063982610611565b61064281611f31565b61064c8383611f45565b505050565b610659612025565b73ffffffffffffffffffffffffffffffffffffffff168173ffffffffffffffffffffffffffffffffffffffff16146106c6576040517f08c379a00000000000000000000000000000000000000000000000000000000081526004016106bd90613436565b60405180910390fd5b6106d0828261202d565b5050565b6106dc612c75565b6000806000806000600160009054906101000a900460ff1660ff166103e86107049190613493565b61ffff166103e888610160013561071b91906134cb565b6107259190613554565b905060008188610160013561073a9190613585565b905060006103e860018054906101000a900460ff1660ff168461075d91906134cb565b6107679190613554565b9050808261077591906135b9565b95508860e001602081019061078a91906131a2565b15801561080d57506001808111156107a5576107a4613217565b5b8960800160208101906107b89190613149565b60018111156107ca576107c9613217565b5b148061080c5750600060018111156107e5576107e4613217565b5b8960800160208101906107f89190613149565b600181111561080a57610809613217565b5b145b5b156108ad578860600160208101906108259190613024565b73ffffffffffffffffffffffffffffffffffffffff16632a55205a8a6101400135856040518363ffffffff1660e01b815260040161086492919061361e565b6040805180830381865afa158015610880573d6000803e3d6000fd5b505050506040513d601f19601f820116820180604052508101906108a49190613688565b80965081985050505b8085846108ba9190613585565b6108c49190613585565b93506040518060a001604052808781526020018581526020018681526020018481526020018873ffffffffffffffffffffffffffffffffffffffff16815250975050505050505050919050565b600060018054906101000a900460ff16905090565b600260009054906101000a900473ffffffffffffffffffffffffffffffffffffffff1673ffffffffffffffffffffffffffffffffffffffff163373ffffffffffffffffffffffffffffffffffffffff16146109b6576040517f08c379a00000000000000000000000000000000000000000000000000000000081526004016109ad90613714565b60405180910390fd5b8073ffffffffffffffffffffffffffffffffffffffff16600360009054906101000a900473ffffffffffffffffffffffffffffffffffffffff1673ffffffffffffffffffffffffffffffffffffffff1603610a46576040517f08c379a0000000000000000000000000000000000000000000000000000000008152600401610a3d90613780565b60405180910390fd5b80600360006101000a81548173ffffffffffffffffffffffffffffffffffffffff021916908373ffffffffffffffffffffffffffffffffffffffff16021790555050565b600160029054906101000a900473ffffffffffffffffffffffffffffffffffffffff1681565b6000816020016020810190610ac59190613024565b826040016020810190610ad89190613024565b836060016020810190610aeb9190613024565b846080016020810190610afe9190613149565b8560a00135866101400135876101600135886101800135604051602001610b2c9897969594939291906137a0565b604051602081830303815290604052805190602001209050919050565b600081600073ffffffffffffffffffffffffffffffffffffffff16816000016020810190610b779190613024565b73ffffffffffffffffffffffffffffffffffffffff1603610bcd576040517f08c379a0000000000000000000000000000000000000000000000000000000008152600401610bc49061387e565b60405180910390fd5b600073ffffffffffffffffffffffffffffffffffffffff16816020016020810190610bf89190613024565b73ffffffffffffffffffffffffffffffffffffffff1603610c4e576040517f08c379a0000000000000000000000000000000000000000000000000000000008152600401610c45906138ea565b60405180910390fd5b600073ffffffffffffffffffffffffffffffffffffffff16816060016020810190610c799190613024565b73ffffffffffffffffffffffffffffffffffffffff1603610ccf576040517f08c379a0000000000000000000000000000000000000000000000000000000008152600401610cc690613956565b60405180910390fd5b428161010001351115610d17576040517f08c379a0000000000000000000000000000000000000000000000000000000008152600401610d0e906139c2565b60405180910390fd5b8061012001354210610d5e576040517f08c379a0000000000000000000000000000000000000000000000000000000008152600401610d5590613a2e565b60405180910390fd5b60008160a0013511610da5576040517f08c379a0000000000000000000000000000000000000000000000000000000008152600401610d9c90613a9a565b60405180910390fd5b600081610140013511610ded576040517f08c379a0000000000000000000000000000000000000000000000000000000008152600401610de490613b06565b60405180910390fd5b600081610160013511610e35576040517f08c379a0000000000000000000000000000000000000000000000000000000008152600401610e2c90613b72565b60405180910390fd5b600081610180013511610e7d576040517f08c379a0000000000000000000000000000000000000000000000000000000008152600401610e7490613bde565b60405180910390fd5b826020016020810190610e909190613024565b73ffffffffffffffffffffffffffffffffffffffff163373ffffffffffffffffffffffffffffffffffffffff1614610efd576040517f08c379a0000000000000000000000000000000000000000000000000000000008152600401610ef490613c70565b60405180910390fd5b6000610f08846106d4565b90508361018001358460a00135610f1f91906134cb565b81606001511115610f65576040517f08c379a0000000000000000000000000000000000000000000000000000000008152600401610f5c90613cdc565b60405180910390fd5b610f6e8461210e565b1561104157610fa38482866020016020810190610f8b9190613024565b876000016020810190610f9e9190613024565b612449565b836020016020810190610fb69190613024565b73ffffffffffffffffffffffffffffffffffffffff16846101400135856000016020810190610fe59190613024565b73ffffffffffffffffffffffffffffffffffffffff167fb10197cef009fd301a90b892d25451c22c3701eb18ee2df1250d31e514fff39487610180013560405161102f9190613cfc565b60405180910390a46001925050611047565b60009250505b50919050565b600260009054906101000a900473ffffffffffffffffffffffffffffffffffffffff1681565b60006002600381111561108957611088613217565b5b6004600084815260200190815260200160002060010160009054906101000a900460ff1660038111156110bf576110be613217565b5b148061111157506003808111156110d9576110d8613217565b5b6004600084815260200190815260200160002060010160009054906101000a900460ff16600381111561110f5761110e613217565b5b145b9050919050565b600080600084815260200190815260200160002060000160008373ffffffffffffffffffffffffffffffffffffffff1673ffffffffffffffffffffffffffffffffffffffff16815260200190815260200160002060009054906101000a900460ff16905092915050565b60008061118e83610538565b9050600061119b82612880565b90503373ffffffffffffffffffffffffffffffffffffffff168460000160208101906111c79190613024565b73ffffffffffffffffffffffffffffffffffffffff161461121d576040517f08c379a000000000000000000000000000000000000000000000000000000000815260040161121490613d63565b60405180910390fd5b61127a8185806101a001906112329190613d92565b8080601f016020809104026020016040519081016040528093929190818152602001838380828437600081840152601f19601f820116905080830192505050505050506128b0565b73ffffffffffffffffffffffffffffffffffffffff168460000160208101906112a39190613024565b73ffffffffffffffffffffffffffffffffffffffff16146112f9576040517f08c379a00000000000000000000000000000000000000000000000000000000081526004016112f090613e41565b60405180910390fd5b61130281611073565b15611342576040517f08c379a000000000000000000000000000000000000000000000000000000000815260040161133990613ead565b60405180910390fd5b6000600460008381526020019081526020016000206000018190555060036004600083815260200190815260200160002060010160006101000a81548160ff0219169083600381111561139857611397613217565b5b0217905550600192505050919050565b6000600160009054906101000a900460ff16905090565b6000801b81565b600260009054906101000a900473ffffffffffffffffffffffffffffffffffffffff1673ffffffffffffffffffffffffffffffffffffffff163373ffffffffffffffffffffffffffffffffffffffff1614611456576040517f08c379a000000000000000000000000000000000000000000000000000000000815260040161144d90613714565b60405180910390fd5b8060ff1660018054906101000a900460ff1660ff16036114ab576040517f08c379a00000000000000000000000000000000000000000000000000000000081526004016114a290613f19565b60405180910390fd5b806001806101000a81548160ff021916908360ff16021790555050565b600260009054906101000a900473ffffffffffffffffffffffffffffffffffffffff1673ffffffffffffffffffffffffffffffffffffffff163373ffffffffffffffffffffffffffffffffffffffff1614611558576040517f08c379a000000000000000000000000000000000000000000000000000000000815260040161154f90613714565b60405180910390fd5b8060ff16600160009054906101000a900460ff1660ff16036115af576040517f08c379a00000000000000000000000000000000000000000000000000000000081526004016115a690613f85565b60405180910390fd5b80600160006101000a81548160ff021916908360ff16021790555050565b6115d682610611565b6115df81611f31565b6115e9838361202d565b505050565b600081600073ffffffffffffffffffffffffffffffffffffffff1681600001602081019061161c9190613024565b73ffffffffffffffffffffffffffffffffffffffff1603611672576040517f08c379a00000000000000000000000000000000000000000000000000000000081526004016116699061387e565b60405180910390fd5b600073ffffffffffffffffffffffffffffffffffffffff1681602001602081019061169d9190613024565b73ffffffffffffffffffffffffffffffffffffffff16036116f3576040517f08c379a00000000000000000000000000000000000000000000000000000000081526004016116ea906138ea565b60405180910390fd5b600073ffffffffffffffffffffffffffffffffffffffff1681606001602081019061171e9190613024565b73ffffffffffffffffffffffffffffffffffffffff1603611774576040517f08c379a000000000000000000000000000000000000000000000000000000000815260040161176b90613956565b60405180910390fd5b4281610100013511156117bc576040517f08c379a00000000000000000000000000000000000000000000000000000000081526004016117b3906139c2565b60405180910390fd5b8061012001354210611803576040517f08c379a00000000000000000000000000000000000000000000000000000000081526004016117fa90613a2e565b60405180910390fd5b60008160a001351161184a576040517f08c379a000000000000000000000000000000000000000000000000000000000815260040161184190613a9a565b60405180910390fd5b600081610140013511611892576040517f08c379a000000000000000000000000000000000000000000000000000000000815260040161188990613b06565b60405180910390fd5b6000816101600135116118da576040517f08c379a00000000000000000000000000000000000000000000000000000000081526004016118d190613b72565b60405180910390fd5b600081610180013511611922576040517f08c379a000000000000000000000000000000000000000000000000000000000815260040161191990613bde565b60405180910390fd5b82600061192e82610ab0565b9050600061193b82612880565b905061199a8184806101c001906119529190613d92565b8080601f016020809104026020016040519081016040528093929190818152602001838380828437600081840152601f19601f820116905080830192505050505050506128b0565b73ffffffffffffffffffffffffffffffffffffffff168360200160208101906119c39190613024565b73ffffffffffffffffffffffffffffffffffffffff1614611a19576040517f08c379a0000000000000000000000000000000000000000000000000000000008152600401611a1090613ff1565b60405180910390fd5b856000016020810190611a2c9190613024565b73ffffffffffffffffffffffffffffffffffffffff163373ffffffffffffffffffffffffffffffffffffffff1614611a99576040517f08c379a0000000000000000000000000000000000000000000000000000000008152600401611a9090614083565b60405180910390fd5b6000611aa4876106d4565b9050611ad68782896020016020810190611abe9190613024565b8a6000016020810190611ad19190613024565b612449565b866020016020810190611ae99190613024565b73ffffffffffffffffffffffffffffffffffffffff16876101400135886000016020810190611b189190613024565b73ffffffffffffffffffffffffffffffffffffffff167fec34853c156da04e4792f1c735112ae54e5ed52bac58db5014b26746f306a3628a6101800135604051611b629190613cfc565b60405180910390a4600195505050505050919050565b6000600360009054906101000a900473ffffffffffffffffffffffffffffffffffffffff1673ffffffffffffffffffffffffffffffffffffffff163373ffffffffffffffffffffffffffffffffffffffff1614611c0a576040517f08c379a0000000000000000000000000000000000000000000000000000000008152600401611c0190614115565b60405180910390fd5b600180811115611c1d57611c1c613217565b5b826080016020810190611c309190613149565b6001811115611c4257611c41613217565b5b03611d1657600160029054906101000a900473ffffffffffffffffffffffffffffffffffffffff1673ffffffffffffffffffffffffffffffffffffffff1663f709b906836060016020810190611c989190613024565b846000016020810190611cab9190613024565b856020016020810190611cbe9190613024565b8661014001356040518563ffffffff1660e01b8152600401611ce39493929190614156565b600060405180830381600087803b158015611cfd57600080fd5b505af1158015611d11573d6000803e3d6000fd5b505050505b60006001811115611d2a57611d29613217565b5b826080016020810190611d3d9190613149565b6001811115611d4f57611d4e613217565b5b03611e2a57600160029054906101000a900473ffffffffffffffffffffffffffffffffffffffff1673ffffffffffffffffffffffffffffffffffffffff16639c1c2ee9836060016020810190611da59190613024565b846000016020810190611db89190613024565b856020016020810190611dcb9190613024565b8661014001358761018001356040518663ffffffff1660e01b8152600401611df79594939291906141f3565b600060405180830381600087803b158015611e1157600080fd5b505af1158015611e25573d6000803e3d6000fd5b505050505b816020016020810190611e3d9190613024565b73ffffffffffffffffffffffffffffffffffffffff16826101400135836000016020810190611e6c9190613024565b73ffffffffffffffffffffffffffffffffffffffff167fb10197cef009fd301a90b892d25451c22c3701eb18ee2df1250d31e514fff394856101800135604051611eb69190613cfc565b60405180910390a460019050919050565b60007f01ffc9a7000000000000000000000000000000000000000000000000000000007bffffffffffffffffffffffffffffffffffffffffffffffffffffffff1916827bffffffffffffffffffffffffffffffffffffffffffffffffffffffff1916149050919050565b611f4281611f3d612025565b61291f565b50565b611f4f8282611118565b61202157600160008084815260200190815260200160002060000160008373ffffffffffffffffffffffffffffffffffffffff1673ffffffffffffffffffffffffffffffffffffffff16815260200190815260200160002060006101000a81548160ff021916908315150217905550611fc6612025565b73ffffffffffffffffffffffffffffffffffffffff168173ffffffffffffffffffffffffffffffffffffffff16837f2f8788117e7eff1d82e926ec794901d17c78024a50270940304540a733656f0d60405160405180910390a45b5050565b600033905090565b6120378282611118565b1561210a57600080600084815260200190815260200160002060000160008373ffffffffffffffffffffffffffffffffffffffff1673ffffffffffffffffffffffffffffffffffffffff16815260200190815260200160002060006101000a81548160ff0219169083151502179055506120af612025565b73ffffffffffffffffffffffffffffffffffffffff168173ffffffffffffffffffffffffffffffffffffffff16837ff6391f5c32d9c69d2a47ea670b442974b53935d1edc7fd64eb21e047a839171b60405160405180910390a45b5050565b60008061211a83610538565b9050600061212782612880565b90506121868185806101a0019061213e9190613d92565b8080601f016020809104026020016040519081016040528093929190818152602001838380828437600081840152601f19601f820116905080830192505050505050506128b0565b73ffffffffffffffffffffffffffffffffffffffff168460000160208101906121af9190613024565b73ffffffffffffffffffffffffffffffffffffffff1614612205576040517f08c379a00000000000000000000000000000000000000000000000000000000081526004016121fc90613e41565b60405180910390fd5b61220e81611073565b1561224e576040517f08c379a0000000000000000000000000000000000000000000000000000000008152600401612245906142a5565b60405180910390fd5b6000600381111561226257612261613217565b5b6004600083815260200190815260200160002060010160009054906101000a900460ff16600381111561229857612297613217565b5b03612300578360c00135600460008381526020019081526020016000206000018190555060016004600083815260200190815260200160002060010160006101000a81548160ff021916908360038111156122f6576122f5613217565b5b021790555061243e565b6001600381111561231457612313613217565b5b6004600083815260200190815260200160002060010160009054906101000a900460ff16600381111561234a57612349613217565b5b0361243d57836101800135600460008381526020019081526020016000206000015410156123ad576040517f08c379a00000000000000000000000000000000000000000000000000000000081526004016123a490614311565b60405180910390fd5b600084610180013560046000848152602001908152602001600020600001546123d69190613585565b9050600081036124205760026004600084815260200190815260200160002060010160006101000a81548160ff0219169083600381111561241a57612419613217565b5b02179055505b806004600084815260200190815260200160002060000181905550505b5b600192505050919050565b60018081111561245c5761245b613217565b5b84608001602081019061246f9190613149565b600181111561248157612480613217565b5b0361253157600160029054906101000a900473ffffffffffffffffffffffffffffffffffffffff1673ffffffffffffffffffffffffffffffffffffffff1663f709b9068560600160208101906124d79190613024565b83858861014001356040518563ffffffff1660e01b81526004016124fe9493929190614156565b600060405180830381600087803b15801561251857600080fd5b505af115801561252c573d6000803e3d6000fd5b505050505b6000600181111561254557612544613217565b5b8460800160208101906125589190613149565b600181111561256a57612569613217565b5b0361262157600160029054906101000a900473ffffffffffffffffffffffffffffffffffffffff1673ffffffffffffffffffffffffffffffffffffffff16639c1c2ee98560600160208101906125c09190613024565b83858861014001358961018001356040518663ffffffff1660e01b81526004016125ee9594939291906141f3565b600060405180830381600087803b15801561260857600080fd5b505af115801561261c573d6000803e3d6000fd5b505050505b6000836000015111156126fa57600160029054906101000a900473ffffffffffffffffffffffffffffffffffffffff1673ffffffffffffffffffffffffffffffffffffffff1663776062c385604001602081019061267f9190613024565b84600260009054906101000a900473ffffffffffffffffffffffffffffffffffffffff1687600001516040518563ffffffff1660e01b81526004016126c79493929190614352565b600060405180830381600087803b1580156126e157600080fd5b505af11580156126f5573d6000803e3d6000fd5b505050505b6000836040015111801561271e57508360e001602081019061271c91906131a2565b155b156127d157600160029054906101000a900473ffffffffffffffffffffffffffffffffffffffff1673ffffffffffffffffffffffffffffffffffffffff1663776062c38560400160208101906127749190613024565b84866080015187604001516040518563ffffffff1660e01b815260040161279e9493929190614352565b600060405180830381600087803b1580156127b857600080fd5b505af11580156127cc573d6000803e3d6000fd5b505050505b600160029054906101000a900473ffffffffffffffffffffffffffffffffffffffff1673ffffffffffffffffffffffffffffffffffffffff1663776062c38560400160208101906128229190613024565b848487602001516040518563ffffffff1660e01b81526004016128489493929190614352565b600060405180830381600087803b15801561286257600080fd5b505af1158015612876573d6000803e3d6000fd5b5050505050505050565b600081604051602001612893919061440f565b604051602081830303815290604052805190602001209050919050565b6000806000806128bf856129a4565b925092509250600186828585604051600081526020016040526040516128e89493929190614435565b6020604051602081039080840390855afa15801561290a573d6000803e3d6000fd5b50505060206040510351935050505092915050565b6129298282611118565b6129a05761293681612a0c565b6129448360001c6020612a39565b604051602001612955929190614581565b6040516020818303038152906040526040517f08c379a00000000000000000000000000000000000000000000000000000000081526004016129979190614605565b60405180910390fd5b5050565b600080600060418451146129ed576040517f08c379a00000000000000000000000000000000000000000000000000000000081526004016129e490614673565b60405180910390fd5b6020840151925060408401519150606084015160001a90509193909250565b6060612a328273ffffffffffffffffffffffffffffffffffffffff16601460ff16612a39565b9050919050565b606060006002836002612a4c91906134cb565b612a5691906135b9565b67ffffffffffffffff811115612a6f57612a6e614693565b5b6040519080825280601f01601f191660200182016040528015612aa15781602001600182028036833780820191505090505b5090507f300000000000000000000000000000000000000000000000000000000000000081600081518110612ad957612ad86146c2565b5b60200101907effffffffffffffffffffffffffffffffffffffffffffffffffffffffffffff1916908160001a9053507f780000000000000000000000000000000000000000000000000000000000000081600181518110612b3d57612b3c6146c2565b5b60200101907effffffffffffffffffffffffffffffffffffffffffffffffffffffffffffff1916908160001a90535060006001846002612b7d91906134cb565b612b8791906135b9565b90505b6001811115612c27577f3031323334353637383961626364656600000000000000000000000000000000600f861660108110612bc957612bc86146c2565b5b1a60f81b828281518110612be057612bdf6146c2565b5b60200101907effffffffffffffffffffffffffffffffffffffffffffffffffffffffffffff1916908160001a905350600485901c945080612c20906146f1565b9050612b8a565b5060008414612c6b576040517f08c379a0000000000000000000000000000000000000000000000000000000008152600401612c6290614766565b60405180910390fd5b8091505092915050565b6040518060a0016040528060008152602001600081526020016000815260200160008152602001600073ffffffffffffffffffffffffffffffffffffffff1681525090565b600080fd5b600080fd5b60007fffffffff0000000000000000000000000000000000000000000000000000000082169050919050565b612cf981612cc4565b8114612d0457600080fd5b50565b600081359050612d1681612cf0565b92915050565b600060208284031215612d3257612d31612cba565b5b6000612d4084828501612d07565b91505092915050565b60008115159050919050565b612d5e81612d49565b82525050565b6000602082019050612d796000830184612d55565b92915050565b600080fd5b60006101e08284031215612d9b57612d9a612d7f565b5b81905092915050565b600060208284031215612dba57612db9612cba565b5b600082013567ffffffffffffffff811115612dd857612dd7612cbf565b5b612de484828501612d84565b91505092915050565b6000819050919050565b612e0081612ded565b82525050565b6000602082019050612e1b6000830184612df7565b92915050565b600073ffffffffffffffffffffffffffffffffffffffff82169050919050565b6000612e4c82612e21565b9050919050565b612e5c81612e41565b82525050565b6000602082019050612e776000830184612e53565b92915050565b612e8681612ded565b8114612e9157600080fd5b50565b600081359050612ea381612e7d565b92915050565b600060208284031215612ebf57612ebe612cba565b5b6000612ecd84828501612e94565b91505092915050565b612edf81612e41565b8114612eea57600080fd5b50565b600081359050612efc81612ed6565b92915050565b60008060408385031215612f1957612f18612cba565b5b6000612f2785828601612e94565b9250506020612f3885828601612eed565b9150509250929050565b6000819050919050565b612f5581612f42565b82525050565b612f6481612e41565b82525050565b60a082016000820151612f806000850182612f4c565b506020820151612f936020850182612f4c565b506040820151612fa66040850182612f4c565b506060820151612fb96060850182612f4c565b506080820151612fcc6080850182612f5b565b50505050565b600060a082019050612fe76000830184612f6a565b92915050565b600060ff82169050919050565b61300381612fed565b82525050565b600060208201905061301e6000830184612ffa565b92915050565b60006020828403121561303a57613039612cba565b5b600061304884828501612eed565b91505092915050565b6000819050919050565b600061307661307161306c84612e21565b613051565b612e21565b9050919050565b60006130888261305b565b9050919050565b600061309a8261307d565b9050919050565b6130aa8161308f565b82525050565b60006020820190506130c560008301846130a1565b92915050565b6130d481612fed565b81146130df57600080fd5b50565b6000813590506130f1816130cb565b92915050565b60006020828403121561310d5761310c612cba565b5b600061311b848285016130e2565b91505092915050565b6002811061313157600080fd5b50565b60008135905061314381613124565b92915050565b60006020828403121561315f5761315e612cba565b5b600061316d84828501613134565b91505092915050565b61317f81612d49565b811461318a57600080fd5b50565b60008135905061319c81613176565b92915050565b6000602082840312156131b8576131b7612cba565b5b60006131c68482850161318d565b91505092915050565b60008160601b9050919050565b60006131e7826131cf565b9050919050565b60006131f9826131dc565b9050919050565b61321161320c82612e41565b6131ee565b82525050565b7f4e487b7100000000000000000000000000000000000000000000000000000000600052602160045260246000fd5b6002811061325757613256613217565b5b50565b600081905061326882613246565b919050565b60006132788261325a565b9050919050565b60008160f81b9050919050565b60006132978261327f565b9050919050565b6132af6132aa8261326d565b61328c565b82525050565b6000819050919050565b6132d06132cb82612f42565b6132b5565b82525050565b60006132e18261328c565b9050919050565b6132f96132f482612d49565b6132d6565b82525050565b600061330b828d613200565b60148201915061331b828c613200565b60148201915061332b828b613200565b60148201915061333b828a61329e565b60018201915061334b82896132bf565b60208201915061335b82886132bf565b60208201915061336b82876132e8565b60018201915061337b82866132bf565b60208201915061338b82856132bf565b60208201915061339b82846132bf565b6020820191508190509b9a5050505050505050505050565b600082825260208201905092915050565b7f416363657373436f6e74726f6c3a2063616e206f6e6c792072656e6f756e636560008201527f20726f6c657320666f722073656c660000000000000000000000000000000000602082015250565b6000613420602f836133b3565b915061342b826133c4565b604082019050919050565b6000602082019050818103600083015261344f81613413565b9050919050565b600061ffff82169050919050565b7f4e487b7100000000000000000000000000000000000000000000000000000000600052601160045260246000fd5b600061349e82613456565b91506134a983613456565b92508261ffff038211156134c0576134bf613464565b5b828201905092915050565b60006134d682612f42565b91506134e183612f42565b9250817fffffffffffffffffffffffffffffffffffffffffffffffffffffffffffffffff048311821515161561351a57613519613464565b5b828202905092915050565b7f4e487b7100000000000000000000000000000000000000000000000000000000600052601260045260246000fd5b600061355f82612f42565b915061356a83612f42565b92508261357a57613579613525565b5b828204905092915050565b600061359082612f42565b915061359b83612f42565b9250828210156135ae576135ad613464565b5b828203905092915050565b60006135c482612f42565b91506135cf83612f42565b9250827fffffffffffffffffffffffffffffffffffffffffffffffffffffffffffffffff0382111561360457613603613464565b5b828201905092915050565b61361881612f42565b82525050565b6000604082019050613633600083018561360f565b613640602083018461360f565b9392505050565b60008151905061365681612ed6565b92915050565b61366581612f42565b811461367057600080fd5b50565b6000815190506136828161365c565b92915050565b6000806040838503121561369f5761369e612cba565b5b60006136ad85828601613647565b92505060206136be85828601613673565b9150509250929050565b7f4f6e6c79206f776e65722063616e20616c6c20746869732066756e6374696f6e600082015250565b60006136fe6020836133b3565b9150613709826136c8565b602082019050919050565b6000602082019050818103600083015261372d816136f1565b9050919050565b7f5369676e65722076616c75652069732073616d65000000000000000000000000600082015250565b600061376a6014836133b3565b915061377582613734565b602082019050919050565b600060208201905081810360008301526137998161375d565b9050919050565b60006137ac828b613200565b6014820191506137bc828a613200565b6014820191506137cc8289613200565b6014820191506137dc828861329e565b6001820191506137ec82876132bf565b6020820191506137fc82866132bf565b60208201915061380c82856132bf565b60208201915061381c82846132bf565b6020820191508190509998505050505050505050565b7f53656c6c65722063616e6e6f7420626520656d70747900000000000000000000600082015250565b60006138686016836133b3565b915061387382613832565b602082019050919050565b600060208201905081810360008301526138978161385b565b9050919050565b7f42757965722063616e6e6f7420626520656d7074790000000000000000000000600082015250565b60006138d46015836133b3565b91506138df8261389e565b602082019050919050565b60006020820190508181036000830152613903816138c7565b9050919050565b7f4e465420416464726573732063616e6e6f7420626520656d7074790000000000600082015250565b6000613940601b836133b3565b915061394b8261390a565b602082019050919050565b6000602082019050818103600083015261396f81613933565b9050919050565b7f41756374696f6e206973206e6f74207374617274656420796574000000000000600082015250565b60006139ac601a836133b3565b91506139b782613976565b602082019050919050565b600060208201905081810360008301526139db8161399f565b9050919050565b7f41756374696f6e20697320656e64656400000000000000000000000000000000600082015250565b6000613a186010836133b3565b9150613a23826139e2565b602082019050919050565b60006020820190508181036000830152613a4781613a0b565b9050919050565b7f556e69742070726963652063616e6e6f74206265207a65726f00000000000000600082015250565b6000613a846019836133b3565b9150613a8f82613a4e565b602082019050919050565b60006020820190508181036000830152613ab381613a77565b9050919050565b7f546f6b656e49642063616e6e6f74206265207a65726f00000000000000000000600082015250565b6000613af06016836133b3565b9150613afb82613aba565b602082019050919050565b60006020820190508181036000830152613b1f81613ae3565b9050919050565b7f416d6f756e742063616e6e6f74206265207a65726f0000000000000000000000600082015250565b6000613b5c6015836133b3565b9150613b6782613b26565b602082019050919050565b60006020820190508181036000830152613b8b81613b4f565b9050919050565b7f5175616e746974792063616e6e6f74206265207a65726f000000000000000000600082015250565b6000613bc86017836133b3565b9150613bd382613b92565b602082019050919050565b60006020820190508181036000830152613bf781613bbb565b9050919050565b7f4f6e6c79206f726465722062757965722063616e2063616c6c2074686973206d60008201527f6574686f64000000000000000000000000000000000000000000000000000000602082015250565b6000613c5a6025836133b3565b9150613c6582613bfe565b604082019050919050565b60006020820190508181036000830152613c8981613c4d565b9050919050565b7f5061696420696e76616c696420616d6f756e7400000000000000000000000000600082015250565b6000613cc66013836133b3565b9150613cd182613c90565b602082019050919050565b60006020820190508181036000830152613cf581613cb9565b9050919050565b6000602082019050613d11600083018461360f565b92915050565b7f43616c6c6572206973206e6f74206f726465722073656c6c6572000000000000600082015250565b6000613d4d601a836133b3565b9150613d5882613d17565b602082019050919050565b60006020820190508181036000830152613d7c81613d40565b9050919050565b600080fd5b600080fd5b600080fd5b60008083356001602003843603038112613daf57613dae613d83565b5b80840192508235915067ffffffffffffffff821115613dd157613dd0613d88565b5b602083019250600182023603831315613ded57613dec613d8d565b5b509250929050565b7f496e76616c6964206f726465722064657461696c730000000000000000000000600082015250565b6000613e2b6015836133b3565b9150613e3682613df5565b602082019050919050565b60006020820190508181036000830152613e5a81613e1e565b9050919050565b7f4f7264657220616c726561647920636f6d706c746564206f722063616e63656c600082015250565b6000613e976020836133b3565b9150613ea282613e61565b602082019050919050565b60006020820190508181036000830152613ec681613e8a565b9050919050565b7f53656c6c65724665655065726d696c6c652076616c75652069732073616d6500600082015250565b6000613f03601f836133b3565b9150613f0e82613ecd565b602082019050919050565b60006020820190508181036000830152613f3281613ef6565b9050919050565b7f42757965724665655065726d696c6c652076616c75652069732073616d650000600082015250565b6000613f6f601e836133b3565b9150613f7a82613f39565b602082019050919050565b60006020820190508181036000830152613f9e81613f62565b9050919050565b7f496e76616c6964206269642064657461696c7300000000000000000000000000600082015250565b6000613fdb6013836133b3565b9150613fe682613fa5565b602082019050919050565b6000602082019050818103600083015261400a81613fce565b9050919050565b7f4f6e6c79206f726465722073656c6c65722063616e2063616c6c20746869732060008201527f6d6574686f640000000000000000000000000000000000000000000000000000602082015250565b600061406d6026836133b3565b915061407882614011565b604082019050919050565b6000602082019050818103600083015261409c81614060565b9050919050565b7f4f6e6c79207369676e65722063616e20616c6c20746869732066756e6374696f60008201527f6e00000000000000000000000000000000000000000000000000000000000000602082015250565b60006140ff6021836133b3565b915061410a826140a3565b604082019050919050565b6000602082019050818103600083015261412e816140f2565b9050919050565b60006141408261307d565b9050919050565b61415081614135565b82525050565b600060808201905061416b6000830187614147565b6141786020830186612e53565b6141856040830185612e53565b614192606083018461360f565b95945050505050565b60006141a68261307d565b9050919050565b6141b68161419b565b82525050565b600082825260208201905092915050565b50565b60006141dd6000836141bc565b91506141e8826141cd565b600082019050919050565b600060c08201905061420860008301886141ad565b6142156020830187612e53565b6142226040830186612e53565b61422f606083018561360f565b61423c608083018461360f565b81810360a083015261424d816141d0565b90509695505050505050565b7f4f7264657220636c6f7365640000000000000000000000000000000000000000600082015250565b600061428f600c836133b3565b915061429a82614259565b602082019050919050565b600060208201905081810360008301526142be81614282565b9050919050565b7f4f72646572205175616e7469747920697320696e76616c696400000000000000600082015250565b60006142fb6019836133b3565b9150614306826142c5565b602082019050919050565b6000602082019050818103600083015261432a816142ee565b9050919050565b600061433c8261307d565b9050919050565b61434c81614331565b82525050565b60006080820190506143676000830187614343565b6143746020830186612e53565b6143816040830185612e53565b61438e606083018461360f565b95945050505050565b600081905092915050565b7f19457468657265756d205369676e6564204d6573736167653a0a333200000000600082015250565b60006143d8601c83614397565b91506143e3826143a2565b601c82019050919050565b6000819050919050565b61440961440482612ded565b6143ee565b82525050565b600061441a826143cb565b915061442682846143f8565b60208201915081905092915050565b600060808201905061444a6000830187612df7565b6144576020830186612ffa565b6144646040830185612df7565b6144716060830184612df7565b95945050505050565b7f416363657373436f6e74726f6c3a206163636f756e7420000000000000000000600082015250565b60006144b0601783614397565b91506144bb8261447a565b601782019050919050565b600081519050919050565b60005b838110156144ef5780820151818401526020810190506144d4565b838111156144fe576000848401525b50505050565b600061450f826144c6565b6145198185614397565b93506145298185602086016144d1565b80840191505092915050565b7f206973206d697373696e6720726f6c6520000000000000000000000000000000600082015250565b600061456b601183614397565b915061457682614535565b601182019050919050565b600061458c826144a3565b91506145988285614504565b91506145a38261455e565b91506145af8284614504565b91508190509392505050565b6000601f19601f8301169050919050565b60006145d7826144c6565b6145e181856133b3565b93506145f18185602086016144d1565b6145fa816145bb565b840191505092915050565b6000602082019050818103600083015261461f81846145cc565b905092915050565b7f696e76616c6964207369676e6174757265206c656e6774680000000000000000600082015250565b600061465d6018836133b3565b915061466882614627565b602082019050919050565b6000602082019050818103600083015261468c81614650565b9050919050565b7f4e487b7100000000000000000000000000000000000000000000000000000000600052604160045260246000fd5b7f4e487b7100000000000000000000000000000000000000000000000000000000600052603260045260246000fd5b60006146fc82612f42565b91506000820361470f5761470e613464565b5b600182039050919050565b7f537472696e67733a20686578206c656e67746820696e73756666696369656e74600082015250565b60006147506020836133b3565b915061475b8261471a565b602082019050919050565b6000602082019050818103600083015261477f81614743565b905091905056fea2646970667358221220c1b0ccade56969801dbe482950c730bd625fb7ed7bbfc56a1d4783908934044c64736f6c634300080e0033",
  "immutableReferences": {},
  "source": "// SPDX-License-Identifier: UNLICENSED\r\npragma solidity 0.8.14;\r\n\r\nimport \"@openzeppelin/contracts/access/AccessControl.sol\";\r\nimport \"@openzeppelin/contracts/interfaces/IERC2981.sol\";\r\nimport \"./interface/ITransferProxy.sol\";\r\n\r\ncontract Trade is AccessControl {\r\n    enum BuyingAssetType {\r\n        ERC1155,\r\n        ERC721\r\n    }\r\n    enum Status {\r\n        NONE,\r\n        LIVE,\r\n        COMPLETED,\r\n        CANCEL\r\n    }\r\n\r\n    event OwnershipTransferred(\r\n        address indexed previousOwner,\r\n        address indexed newOwner\r\n    );\r\n    event SellerFee(uint8 sellerFee);\r\n    event BuyerFee(uint8 buyerFee);\r\n    event BuyAsset(\r\n        address indexed assetOwner,\r\n        uint256 indexed tokenId,\r\n        uint256 quantity,\r\n        address indexed buyer\r\n    );\r\n    event ExecuteBid(\r\n        address indexed assetOwner,\r\n        uint256 indexed tokenId,\r\n        uint256 quantity,\r\n        address indexed buyer\r\n    );\r\n    // buyer platformFee\r\n    uint8 private buyerFeePermille;\r\n    //seller platformFee\r\n    uint8 private sellerFeePermille;\r\n    ITransferProxy public transferProxy;\r\n    //contract owner\r\n    address public owner;\r\n\r\n    address public signer;\r\n\r\n    //// mapping(uint256 => bool) private usedNonce;\r\n\r\n    // Create a new role identifier for the minter role\r\n    //// bytes32 public constant ADMIN_ROLE = keccak256(\"ADMIN_ROLE\");\r\n\r\n    /** Fee Struct\r\n        @param platformFee  uint256 (buyerFee + sellerFee) value which is transferred to current contract owner.\r\n        @param assetFee  uint256  assetvalue which is transferred to current seller of the NFT.\r\n        @param royaltyFee  uint256 value, transferred to Minter of the NFT.\r\n        @param price  uint256 value, the combination of buyerFee and assetValue.\r\n        @param tokenCreator address value, it's store the creator of NFT.\r\n     */\r\n    struct Fee {\r\n        uint256 platformFee;\r\n        uint256 assetFee;\r\n        uint256 royaltyFee;\r\n        uint256 price;\r\n        address tokenCreator;\r\n    }\r\n\r\n    /** Order Params\r\n        @param seller address of user,who's selling the NFT.\r\n        @param buyer address of user, who's buying the NFT.\r\n        @param erc20Address address of the token, which is used as payment token(WETH/WBNB/WMATIC...)\r\n        @param nftAddress address of NFT contract where the NFT token is created/Minted.\r\n        @param nftType an enum value, if the type is ERC721/ERC1155 the enum value is 0/1.\r\n        @param uintprice the Price Each NFT it's not including the buyerFee.\r\n        @param nftOrderQuantity the max Quantity of NFT available for order.\r\n        @param skipRoyalty skip royalty part or not.\r\n        @param startDate the start Date of the order.\r\n        @param endDate the end Date of the order.\r\n        @param tokenId \r\n        @param amount the price of NFT(assetFee + buyerFee).\r\n        @param qty number of quantity to be transfer.\r\n        @param sellerOrdersignature order hash signed by seller.\r\n        @param buyerOrdersignature order hash signed by buyer.\r\n     */\r\n    struct Order {\r\n        address seller;\r\n        address buyer;\r\n        address erc20Address;\r\n        address nftAddress;\r\n        BuyingAssetType nftType;\r\n        uint256 unitPrice;\r\n        uint256 nftOrderQuantity;\r\n        bool skipRoyalty;\r\n        uint256 startDate;\r\n        uint256 endDate;\r\n        uint256 tokenId;\r\n        uint256 amount;\r\n        uint256 qty;\r\n        bytes sellerOrdersignature;\r\n        bytes buyerOrdersignature;\r\n    }\r\n\r\n    /** OrderStatus Params\r\n        @param maxAmount is the maximum nft currently available in auction.\r\n        @param status an enum value, if the type is NONE|LIVE|COMPLETED|CANCEL the enum value is 0|1|2|3.\r\n     */\r\n    struct OrderStatus {\r\n        uint256 maxAmount;\r\n        Status status;\r\n    }\r\n\r\n    // order Limit which hold closed and live order data\r\n    mapping(bytes32 => OrderStatus) orderLimit;\r\n\r\n    constructor(\r\n        uint8 _buyerFee,\r\n        uint8 _sellerFee,\r\n        ITransferProxy _transferProxy\r\n    ) {\r\n        buyerFeePermille = _buyerFee;\r\n        sellerFeePermille = _sellerFee;\r\n        transferProxy = _transferProxy;\r\n        owner = msg.sender;\r\n    }\r\n\r\n    modifier OnlyOwner(){\r\n        require(msg.sender==owner,\"Only owner can all this function\");\r\n        _;\r\n    }\r\n\r\n    modifier OnlySigner(){\r\n        require(msg.sender==signer,\"Only signer can all this function\");\r\n        _;\r\n    }\r\n\r\n    /**\r\n        checks the order is valid\r\n     */\r\n    modifier isvalidOrder(Order calldata order) {\r\n        require(order.seller != address(0), \"Seller cannot be empty\");\r\n        require(order.buyer != address(0), \"Buyer cannot be empty\");\r\n        require(order.nftAddress != address(0), \"NFT Address cannot be empty\");\r\n        require(\r\n            order.startDate <= block.timestamp,\r\n            \"Auction is not started yet\"\r\n        );\r\n        require(block.timestamp < order.endDate, \"Auction is ended\");\r\n        require(order.unitPrice > 0, \"Unit price cannot be zero\");\r\n        require(order.tokenId > 0, \"TokenId cannot be zero\");\r\n        require(order.amount > 0, \"Amount cannot be zero\");\r\n        require(order.qty > 0, \"Quantity cannot be zero\");\r\n        _;\r\n    }\r\n\r\n    /**\r\n        checks the order is valid\r\n     */\r\n    modifier isvalidOrderBid(Order calldata order) {\r\n        bytes32 buyerOrderhash = getOrderBuyerHash(order);\r\n        bytes32 buyerOrderhashMessage = prefixed(buyerOrderhash);\r\n\r\n        require(\r\n            order.buyer ==\r\n                recoverSigner(buyerOrderhashMessage, order.buyerOrdersignature),\r\n            \"Invalid bid details\"\r\n        );\r\n        _;\r\n    }\r\n\r\n    /**\r\n        returns the buyerservice Fee in multiply of 1000.\r\n     */\r\n    function buyerServiceFee() external view virtual returns (uint8) {\r\n        return buyerFeePermille;\r\n    }\r\n\r\n    /**\r\n        returns the sellerservice Fee in multiply of 1000.\r\n     */\r\n    function sellerServiceFee() external view virtual returns (uint8) {\r\n        return sellerFeePermille;\r\n    }\r\n\r\n    /**\r\n        returns the buyerservice Fee in multiply of 1000.\r\n     */\r\n\r\n    function setBuyerServiceFee(uint8 _buyerFeePermille) public OnlyOwner() {\r\n        require(buyerFeePermille!=_buyerFeePermille,\"BuyerFeePermille value is same\");\r\n        buyerFeePermille=_buyerFeePermille;\r\n    }\r\n\r\n    /**\r\n        returns the sellerservice Fee in multiply of 1000.\r\n     */\r\n\r\n    function setSellerServiceFee(uint8 _sellerFeePermille) public OnlyOwner() {\r\n        require(sellerFeePermille!=_sellerFeePermille,\"SellerFeePermille value is same\");\r\n        sellerFeePermille=_sellerFeePermille;\r\n    }\r\n    /**\r\n        set the signer in address.\r\n     */\r\n\r\n    function setSigner(address _signer) public OnlyOwner() {\r\n        require(signer!=_signer,\"Signer value is same\");\r\n        signer=_signer;\r\n    }\r\n\r\n    /**\r\n        returns the whether the order is already exists or not.\r\n     */\r\n    function isOrderClosed(bytes32 orderHash) public view returns (bool) {\r\n        return\r\n            orderLimit[orderHash].status == Status.COMPLETED ||\r\n            orderLimit[orderHash].status == Status.CANCEL;\r\n    }\r\n\r\n    /**\r\n        cancel Order.\r\n        @param order ordervalues(seller, buyer,...).\r\n        this will cancel the invalid use of sign order data\r\n    */\r\n    function cancelOrder(Order calldata order) public returns (bool) {\r\n        bytes32 sellerOrderhash = getOrderSellerHash(order);\r\n        bytes32 sellerOrderhashMessage = prefixed(sellerOrderhash);\r\n\r\n        require(order.seller == msg.sender, \"Caller is not order seller\");\r\n        require(\r\n            order.seller ==\r\n                recoverSigner(\r\n                    sellerOrderhashMessage,\r\n                    order.sellerOrdersignature\r\n                ),\r\n            \"Invalid order details\"\r\n        );\r\n        require(\r\n            !isOrderClosed(sellerOrderhashMessage),\r\n            \"Order already complted or cancel\"\r\n        );\r\n\r\n        // if order is new or live then set its status and max amount\r\n        orderLimit[sellerOrderhashMessage].maxAmount = 0;\r\n        orderLimit[sellerOrderhashMessage].status = Status.CANCEL;\r\n\r\n        return true;\r\n    }\r\n\r\n    /**\r\n        validate and Update Order Limit.\r\n        @param order ordervalues(seller, buyer,...).\r\n        this will validate and update the signature of order for seller\r\n    */\r\n    function validateandUpdateOrderForSeller(Order calldata order)\r\n        internal \r\n        returns (bool)\r\n    {\r\n        bytes32 sellerOrderhash = getOrderSellerHash(order);\r\n        bytes32 sellerOrderhashMessage = prefixed(sellerOrderhash);\r\n\r\n        require(\r\n            order.seller ==\r\n                recoverSigner(\r\n                    sellerOrderhashMessage,\r\n                    order.sellerOrdersignature\r\n                ),\r\n            \"Invalid order details\"\r\n        );\r\n        require(!isOrderClosed(sellerOrderhashMessage), \"Order closed\");\r\n\r\n        // if order is new then set its status and max amount\r\n        if (orderLimit[sellerOrderhashMessage].status == Status.NONE) {\r\n            orderLimit[sellerOrderhashMessage].maxAmount = order.nftOrderQuantity;\r\n            orderLimit[sellerOrderhashMessage].status = Status.LIVE;\r\n        } else if (orderLimit[sellerOrderhashMessage].status == Status.LIVE) {\r\n            require(\r\n                orderLimit[sellerOrderhashMessage].maxAmount >= order.qty,\r\n                \"Order Quantity is invalid\"\r\n            );\r\n            // if order is live then update max amount\r\n            uint256 _updatedMaxAmount = orderLimit[sellerOrderhashMessage]\r\n                .maxAmount - order.qty;\r\n            if (_updatedMaxAmount == 0) {\r\n                // if order max amount will be zero then set status to completed\r\n                orderLimit[sellerOrderhashMessage].status = Status.COMPLETED;\r\n            }\r\n            orderLimit[sellerOrderhashMessage].maxAmount = _updatedMaxAmount;\r\n        }\r\n\r\n        return true;\r\n    }\r\n\r\n    /**\r\n        excuting the NFT order.\r\n        @param order ordervalues(seller, buyer,...).\r\n    */\r\n    function buyAsset(Order calldata order)\r\n        external\r\n        isvalidOrder(order)\r\n        returns (bool)\r\n    {\r\n        require(msg.sender==order.buyer,\"Only order buyer can call this method\");\r\n        Fee memory fee = getFees(order);\r\n        require(\r\n            (fee.price <= order.unitPrice * order.qty),\r\n            \"Paid invalid amount\"\r\n\r\n        );\r\n        if (validateandUpdateOrderForSeller(order)) {\r\n            tradeAsset(order, fee, order.buyer, order.seller);\r\n            emit BuyAsset(order.seller, order.tokenId, order.qty, order.buyer);\r\n            return true;\r\n        }\r\n        return false;\r\n    }\r\n\r\n    function executeBid(Order calldata order)\r\n        external\r\n        isvalidOrder(order)\r\n        isvalidOrderBid(order)\r\n        returns (bool)\r\n    {\r\n        require(msg.sender==order.seller,\"Only order seller can call this method\");\r\n        Fee memory fee = getFees(order);\r\n        tradeAsset(order, fee, order.buyer, order.seller);\r\n        emit ExecuteBid(order.seller, order.tokenId, order.qty, order.buyer);\r\n        return true;\r\n    }\r\n\r\n    function getFees(Order calldata order) public view returns (Fee memory) {\r\n        address tokenCreator;\r\n        uint256 platformFee;\r\n        uint256 royaltyFee;\r\n        uint256 assetFee;\r\n        uint256 price = (order.amount * 1000) / (1000 + buyerFeePermille);\r\n        uint256 buyerFee = order.amount - price;\r\n        uint256 sellerFee = (price * sellerFeePermille) / 1000;\r\n        platformFee = buyerFee + sellerFee;\r\n        if (\r\n            !order.skipRoyalty &&\r\n            ((order.nftType == BuyingAssetType.ERC721) ||\r\n                (order.nftType == BuyingAssetType.ERC1155))\r\n        ) {\r\n            (tokenCreator, royaltyFee) = IERC2981(order.nftAddress).royaltyInfo(\r\n                order.tokenId,\r\n                price\r\n            );\r\n        }\r\n        assetFee = price - royaltyFee - sellerFee;\r\n        return Fee(platformFee, assetFee, royaltyFee, price, tokenCreator);\r\n    }\r\n\r\n    /** \r\n        transfers the NFTs and tokens...\r\n        @param order ordervalues(seller, buyer,...).\r\n        @param fee Feevalues(platformFee, assetFee,...).\r\n    */\r\n\r\n    function tradeAsset(\r\n        Order calldata order,\r\n        Fee memory fee,\r\n        address buyer,\r\n        address seller\r\n    ) internal virtual {\r\n        if (order.nftType == BuyingAssetType.ERC721) {\r\n            transferProxy.erc721safeTransferFrom(\r\n                IERC721(order.nftAddress),\r\n                seller,\r\n                buyer,\r\n                order.tokenId\r\n            );\r\n        }\r\n        if (order.nftType == BuyingAssetType.ERC1155) {\r\n            transferProxy.erc1155safeTransferFrom(\r\n                IERC1155(order.nftAddress),\r\n                seller,\r\n                buyer,\r\n                order.tokenId,\r\n                order.qty,\r\n                \"\"\r\n            );\r\n        }\r\n\r\n        if (fee.platformFee > 0) {\r\n            transferProxy.erc20safeTransferFrom(\r\n                IERC20(order.erc20Address),\r\n                buyer,\r\n                owner,\r\n                fee.platformFee\r\n            );\r\n        }\r\n        if (fee.royaltyFee > 0 && (!order.skipRoyalty)) {\r\n            transferProxy.erc20safeTransferFrom(\r\n                IERC20(order.erc20Address),\r\n                buyer,\r\n                fee.tokenCreator,\r\n                fee.royaltyFee\r\n            );\r\n        }\r\n        transferProxy.erc20safeTransferFrom(\r\n            IERC20(order.erc20Address),\r\n            buyer,\r\n            seller,\r\n            fee.assetFee\r\n        );\r\n    }\r\n\r\n    // moonpay\r\n    /** \r\n        transfers the NFTs by external wallets\r\n        @param order ordervalues(seller, buyer,...).\r\n    */\r\n    function deliverNFT(Order calldata order)\r\n        external\r\n        OnlySigner()\r\n        returns (bool)\r\n    {\r\n        if (order.nftType == BuyingAssetType.ERC721) {\r\n            transferProxy.erc721safeTransferFrom(\r\n                IERC721(order.nftAddress),\r\n                order.seller,\r\n                order.buyer,\r\n                order.tokenId\r\n            );\r\n        }\r\n        if (order.nftType == BuyingAssetType.ERC1155) {\r\n            transferProxy.erc1155safeTransferFrom(\r\n                IERC1155(order.nftAddress),\r\n                order.seller,\r\n                order.buyer,\r\n                order.tokenId,\r\n                order.qty,\r\n                \"\"\r\n            );\r\n        }\r\n\r\n        emit BuyAsset(order.seller, order.tokenId, order.qty, order.buyer);\r\n        return true;\r\n    }\r\n\r\n    // Signature validation part\r\n\r\n    /**\r\n        get Order Hash for seller.\r\n        @param order ordervalues(seller, buyer,...).\r\n    */\r\n    function getOrderSellerHash(Order calldata order)\r\n        public\r\n        pure\r\n        returns (bytes32)\r\n    {\r\n        return\r\n            keccak256(\r\n                abi.encodePacked(\r\n                    order.seller,\r\n                    order.erc20Address,\r\n                    order.nftAddress,\r\n                    order.nftType,\r\n                    order.unitPrice,\r\n                    order.nftOrderQuantity,\r\n                    order.skipRoyalty,\r\n                    order.startDate,\r\n                    order.endDate,\r\n                    order.tokenId\r\n                )\r\n            );\r\n    }\r\n\r\n    /**\r\n        get Order Hash for buyer.\r\n        @param order ordervalues(seller, buyer,...).\r\n    */\r\n    function getOrderBuyerHash(Order calldata order)\r\n        public\r\n        pure\r\n        returns (bytes32)\r\n    {\r\n        return\r\n            keccak256(\r\n                abi.encodePacked(\r\n                    order.buyer,\r\n                    order.erc20Address,\r\n                    order.nftAddress,\r\n                    order.nftType,\r\n                    order.unitPrice,\r\n                    order.tokenId,\r\n                    order.amount,\r\n                    order.qty\r\n                )\r\n            );\r\n    }\r\n\r\n    function prefixed(bytes32 _messageHash) internal pure returns (bytes32) {\r\n        return\r\n            keccak256(\r\n                abi.encodePacked(\r\n                    \"\\x19Ethereum Signed Message:\\n32\",\r\n                    _messageHash\r\n                )\r\n            );\r\n    }\r\n\r\n    function recoverSigner(bytes32 _signedMessageHash, bytes memory _signature)\r\n        internal\r\n        pure\r\n        returns (address)\r\n    {\r\n        (bytes32 r, bytes32 s, uint8 v) = splitSignature(_signature);\r\n\r\n        return ecrecover(_signedMessageHash, v, r, s);\r\n    }\r\n\r\n    function splitSignature(bytes memory sig)\r\n        internal\r\n        pure\r\n        returns (\r\n            bytes32 r,\r\n            bytes32 s,\r\n            uint8 v\r\n        )\r\n    {\r\n        require(sig.length == 65, \"invalid signature length\");\r\n\r\n        assembly {\r\n            /*\r\n            First 32 bytes stores the length of the signature\r\n\r\n            add(sig, 32) = pointer of sig + 32\r\n            effectively, skips first 32 bytes of signature\r\n\r\n            mload(p) loads next 32 bytes starting at the memory address p into memory\r\n            */\r\n\r\n            // first 32 bytes, after the length prefix\r\n            r := mload(add(sig, 32))\r\n            // second 32 bytes\r\n            s := mload(add(sig, 64))\r\n            // final byte (first byte of the next 32 bytes)\r\n            v := byte(0, mload(add(sig, 96)))\r\n        }\r\n\r\n        // implicitly return (r, s, v)\r\n    }\r\n}\r\n",
  "sourcePath": "C:\\Users\\Yash\\Desktop\\Temporary\\Github\\marketplace\\src\\contracts\\trade.sol",
  "compiler": {
    "name": "solc",
    "version": "0.8.14+commit.80d49f37.Emscripten.clang"
  },
  "schemaVersion": "3.4.13",
  "updatedAt": "2023-07-13T11:21:45.150Z",
  "devdoc": {
    "kind": "dev",
    "methods": {
      "buyAsset((address,address,address,address,uint8,uint256,uint256,bool,uint256,uint256,uint256,uint256,uint256,bytes,bytes))": {
        "params": {
          "order": "ordervalues(seller, buyer,...)."
        }
      },
      "cancelOrder((address,address,address,address,uint8,uint256,uint256,bool,uint256,uint256,uint256,uint256,uint256,bytes,bytes))": {
        "params": {
          "order": "ordervalues(seller, buyer,...). this will cancel the invalid use of sign order data"
        }
      },
      "deliverNFT((address,address,address,address,uint8,uint256,uint256,bool,uint256,uint256,uint256,uint256,uint256,bytes,bytes))": {
        "params": {
          "order": "ordervalues(seller, buyer,...)."
        }
      },
      "getOrderBuyerHash((address,address,address,address,uint8,uint256,uint256,bool,uint256,uint256,uint256,uint256,uint256,bytes,bytes))": {
        "params": {
          "order": "ordervalues(seller, buyer,...)."
        }
      },
      "getOrderSellerHash((address,address,address,address,uint8,uint256,uint256,bool,uint256,uint256,uint256,uint256,uint256,bytes,bytes))": {
        "params": {
          "order": "ordervalues(seller, buyer,...)."
        }
      },
      "getRoleAdmin(bytes32)": {
        "details": "Returns the admin role that controls `role`. See {grantRole} and {revokeRole}. To change a role's admin, use {_setRoleAdmin}."
      },
      "grantRole(bytes32,address)": {
        "details": "Grants `role` to `account`. If `account` had not been already granted `role`, emits a {RoleGranted} event. Requirements: - the caller must have ``role``'s admin role. May emit a {RoleGranted} event."
      },
      "hasRole(bytes32,address)": {
        "details": "Returns `true` if `account` has been granted `role`."
      },
      "renounceRole(bytes32,address)": {
        "details": "Revokes `role` from the calling account. Roles are often managed via {grantRole} and {revokeRole}: this function's purpose is to provide a mechanism for accounts to lose their privileges if they are compromised (such as when a trusted device is misplaced). If the calling account had been revoked `role`, emits a {RoleRevoked} event. Requirements: - the caller must be `account`. May emit a {RoleRevoked} event."
      },
      "revokeRole(bytes32,address)": {
        "details": "Revokes `role` from `account`. If `account` had been granted `role`, emits a {RoleRevoked} event. Requirements: - the caller must have ``role``'s admin role. May emit a {RoleRevoked} event."
      },
      "supportsInterface(bytes4)": {
        "details": "See {IERC165-supportsInterface}."
      }
    },
    "version": 1
  },
  "userdoc": {
    "kind": "user",
    "methods": {
      "buyAsset((address,address,address,address,uint8,uint256,uint256,bool,uint256,uint256,uint256,uint256,uint256,bytes,bytes))": {
        "notice": "excuting the NFT order."
      },
      "buyerServiceFee()": {
        "notice": "returns the buyerservice Fee in multiply of 1000."
      },
      "cancelOrder((address,address,address,address,uint8,uint256,uint256,bool,uint256,uint256,uint256,uint256,uint256,bytes,bytes))": {
        "notice": "cancel Order."
      },
      "deliverNFT((address,address,address,address,uint8,uint256,uint256,bool,uint256,uint256,uint256,uint256,uint256,bytes,bytes))": {
        "notice": "transfers the NFTs by external wallets"
      },
      "getOrderBuyerHash((address,address,address,address,uint8,uint256,uint256,bool,uint256,uint256,uint256,uint256,uint256,bytes,bytes))": {
        "notice": "get Order Hash for buyer."
      },
      "getOrderSellerHash((address,address,address,address,uint8,uint256,uint256,bool,uint256,uint256,uint256,uint256,uint256,bytes,bytes))": {
        "notice": "get Order Hash for seller."
      },
      "isOrderClosed(bytes32)": {
        "notice": "returns the whether the order is already exists or not."
      },
      "sellerServiceFee()": {
        "notice": "returns the sellerservice Fee in multiply of 1000."
      },
      "setBuyerServiceFee(uint8)": {
        "notice": "returns the buyerservice Fee in multiply of 1000."
      },
      "setSellerServiceFee(uint8)": {
        "notice": "returns the sellerservice Fee in multiply of 1000."
      },
      "setSigner(address)": {
        "notice": "set the signer in address."
      }
    },
    "version": 1
  }
}