{
  "contractName": "Trade",
  "abi": [
    {
      "inputs": [
        {
          "internalType": "uint8",
          "name": "_buyerFee",
          "type": "uint8"
        },
        {
          "internalType": "uint8",
          "name": "_sellerFee",
          "type": "uint8"
        },
        {
          "internalType": "contract ITransferProxy",
          "name": "_transferProxy",
          "type": "address"
        }
      ],
      "stateMutability": "nonpayable",
      "type": "constructor"
    },
    {
      "anonymous": false,
      "inputs": [
        {
          "indexed": true,
          "internalType": "address",
          "name": "assetOwner",
          "type": "address"
        },
        {
          "indexed": true,
          "internalType": "uint256",
          "name": "tokenId",
          "type": "uint256"
        },
        {
          "indexed": false,
          "internalType": "uint256",
          "name": "quantity",
          "type": "uint256"
        },
        {
          "indexed": true,
          "internalType": "address",
          "name": "buyer",
          "type": "address"
        }
      ],
      "name": "BuyAsset",
      "type": "event"
    },
    {
      "anonymous": false,
      "inputs": [
        {
          "indexed": false,
          "internalType": "uint8",
          "name": "buyerFee",
          "type": "uint8"
        }
      ],
      "name": "BuyerFee",
      "type": "event"
    },
    {
      "anonymous": false,
      "inputs": [
        {
          "indexed": true,
          "internalType": "address",
          "name": "assetOwner",
          "type": "address"
        },
        {
          "indexed": true,
          "internalType": "uint256",
          "name": "tokenId",
          "type": "uint256"
        },
        {
          "indexed": false,
          "internalType": "uint256",
          "name": "quantity",
          "type": "uint256"
        },
        {
          "indexed": true,
          "internalType": "address",
          "name": "buyer",
          "type": "address"
        }
      ],
      "name": "ExecuteBid",
      "type": "event"
    },
    {
      "anonymous": false,
      "inputs": [
        {
          "indexed": true,
          "internalType": "address",
          "name": "previousOwner",
          "type": "address"
        },
        {
          "indexed": true,
          "internalType": "address",
          "name": "newOwner",
          "type": "address"
        }
      ],
      "name": "OwnershipTransferred",
      "type": "event"
    },
    {
      "anonymous": false,
      "inputs": [
        {
          "indexed": true,
          "internalType": "bytes32",
          "name": "role",
          "type": "bytes32"
        },
        {
          "indexed": true,
          "internalType": "bytes32",
          "name": "previousAdminRole",
          "type": "bytes32"
        },
        {
          "indexed": true,
          "internalType": "bytes32",
          "name": "newAdminRole",
          "type": "bytes32"
        }
      ],
      "name": "RoleAdminChanged",
      "type": "event"
    },
    {
      "anonymous": false,
      "inputs": [
        {
          "indexed": true,
          "internalType": "bytes32",
          "name": "role",
          "type": "bytes32"
        },
        {
          "indexed": true,
          "internalType": "address",
          "name": "account",
          "type": "address"
        },
        {
          "indexed": true,
          "internalType": "address",
          "name": "sender",
          "type": "address"
        }
      ],
      "name": "RoleGranted",
      "type": "event"
    },
    {
      "anonymous": false,
      "inputs": [
        {
          "indexed": true,
          "internalType": "bytes32",
          "name": "role",
          "type": "bytes32"
        },
        {
          "indexed": true,
          "internalType": "address",
          "name": "account",
          "type": "address"
        },
        {
          "indexed": true,
          "internalType": "address",
          "name": "sender",
          "type": "address"
        }
      ],
      "name": "RoleRevoked",
      "type": "event"
    },
    {
      "anonymous": false,
      "inputs": [
        {
          "indexed": false,
          "internalType": "uint8",
          "name": "sellerFee",
          "type": "uint8"
        }
      ],
      "name": "SellerFee",
      "type": "event"
    },
    {
      "inputs": [],
      "name": "DEFAULT_ADMIN_ROLE",
      "outputs": [
        {
          "internalType": "bytes32",
          "name": "",
          "type": "bytes32"
        }
      ],
      "stateMutability": "view",
      "type": "function"
    },
    {
      "inputs": [
        {
          "internalType": "bytes32",
          "name": "role",
          "type": "bytes32"
        }
      ],
      "name": "getRoleAdmin",
      "outputs": [
        {
          "internalType": "bytes32",
          "name": "",
          "type": "bytes32"
        }
      ],
      "stateMutability": "view",
      "type": "function"
    },
    {
      "inputs": [
        {
          "internalType": "bytes32",
          "name": "role",
          "type": "bytes32"
        },
        {
          "internalType": "address",
          "name": "account",
          "type": "address"
        }
      ],
      "name": "grantRole",
      "outputs": [],
      "stateMutability": "nonpayable",
      "type": "function"
    },
    {
      "inputs": [
        {
          "internalType": "bytes32",
          "name": "role",
          "type": "bytes32"
        },
        {
          "internalType": "address",
          "name": "account",
          "type": "address"
        }
      ],
      "name": "hasRole",
      "outputs": [
        {
          "internalType": "bool",
          "name": "",
          "type": "bool"
        }
      ],
      "stateMutability": "view",
      "type": "function"
    },
    {
      "inputs": [],
      "name": "owner",
      "outputs": [
        {
          "internalType": "address",
          "name": "",
          "type": "address"
        }
      ],
      "stateMutability": "view",
      "type": "function"
    },
    {
      "inputs": [
        {
          "internalType": "bytes32",
          "name": "role",
          "type": "bytes32"
        },
        {
          "internalType": "address",
          "name": "account",
          "type": "address"
        }
      ],
      "name": "renounceRole",
      "outputs": [],
      "stateMutability": "nonpayable",
      "type": "function"
    },
    {
      "inputs": [
        {
          "internalType": "bytes32",
          "name": "role",
          "type": "bytes32"
        },
        {
          "internalType": "address",
          "name": "account",
          "type": "address"
        }
      ],
      "name": "revokeRole",
      "outputs": [],
      "stateMutability": "nonpayable",
      "type": "function"
    },
    {
      "inputs": [],
      "name": "signer",
      "outputs": [
        {
          "internalType": "address",
          "name": "",
          "type": "address"
        }
      ],
      "stateMutability": "view",
      "type": "function"
    },
    {
      "inputs": [
        {
          "internalType": "bytes4",
          "name": "interfaceId",
          "type": "bytes4"
        }
      ],
      "name": "supportsInterface",
      "outputs": [
        {
          "internalType": "bool",
          "name": "",
          "type": "bool"
        }
      ],
      "stateMutability": "view",
      "type": "function"
    },
    {
      "inputs": [],
      "name": "transferProxy",
      "outputs": [
        {
          "internalType": "contract ITransferProxy",
          "name": "",
          "type": "address"
        }
      ],
      "stateMutability": "view",
      "type": "function"
    },
    {
      "inputs": [],
      "name": "buyerServiceFee",
      "outputs": [
        {
          "internalType": "uint8",
          "name": "",
          "type": "uint8"
        }
      ],
      "stateMutability": "view",
      "type": "function"
    },
    {
      "inputs": [],
      "name": "sellerServiceFee",
      "outputs": [
        {
          "internalType": "uint8",
          "name": "",
          "type": "uint8"
        }
      ],
      "stateMutability": "view",
      "type": "function"
    },
    {
      "inputs": [
        {
          "internalType": "uint8",
          "name": "_buyerFeePermille",
          "type": "uint8"
        }
      ],
      "name": "setBuyerServiceFee",
      "outputs": [],
      "stateMutability": "nonpayable",
      "type": "function"
    },
    {
      "inputs": [
        {
          "internalType": "uint8",
          "name": "_sellerFeePermille",
          "type": "uint8"
        }
      ],
      "name": "setSellerServiceFee",
      "outputs": [],
      "stateMutability": "nonpayable",
      "type": "function"
    },
    {
      "inputs": [
        {
          "internalType": "address",
          "name": "_signer",
          "type": "address"
        }
      ],
      "name": "setSigner",
      "outputs": [],
      "stateMutability": "nonpayable",
      "type": "function"
    },
    {
      "inputs": [
        {
          "internalType": "bytes32",
          "name": "orderHash",
          "type": "bytes32"
        }
      ],
      "name": "isOrderClosed",
      "outputs": [
        {
          "internalType": "bool",
          "name": "",
          "type": "bool"
        }
      ],
      "stateMutability": "view",
      "type": "function"
    },
    {
      "inputs": [
        {
          "components": [
            {
              "internalType": "address",
              "name": "seller",
              "type": "address"
            },
            {
              "internalType": "address",
              "name": "buyer",
              "type": "address"
            },
            {
              "internalType": "address",
              "name": "erc20Address",
              "type": "address"
            },
            {
              "internalType": "address",
              "name": "nftAddress",
              "type": "address"
            },
            {
              "internalType": "enum Trade.BuyingAssetType",
              "name": "nftType",
              "type": "uint8"
            },
            {
              "internalType": "uint256",
              "name": "unitPrice",
              "type": "uint256"
            },
            {
              "internalType": "uint256",
              "name": "nftOrderQuantity",
              "type": "uint256"
            },
            {
              "internalType": "bool",
              "name": "skipRoyalty",
              "type": "bool"
            },
            {
              "internalType": "uint256",
              "name": "startDate",
              "type": "uint256"
            },
            {
              "internalType": "uint256",
              "name": "endDate",
              "type": "uint256"
            },
            {
              "internalType": "uint256",
              "name": "tokenId",
              "type": "uint256"
            },
            {
              "internalType": "uint256",
              "name": "amount",
              "type": "uint256"
            },
            {
              "internalType": "uint256",
              "name": "qty",
              "type": "uint256"
            },
            {
              "internalType": "bytes",
              "name": "sellerOrdersignature",
              "type": "bytes"
            },
            {
              "internalType": "bytes",
              "name": "buyerOrdersignature",
              "type": "bytes"
            }
          ],
          "internalType": "struct Trade.Order",
          "name": "order",
          "type": "tuple"
        }
      ],
      "name": "cancelOrder",
      "outputs": [
        {
          "internalType": "bool",
          "name": "",
          "type": "bool"
        }
      ],
      "stateMutability": "nonpayable",
      "type": "function"
    },
    {
      "inputs": [
        {
          "components": [
            {
              "internalType": "address",
              "name": "seller",
              "type": "address"
            },
            {
              "internalType": "address",
              "name": "buyer",
              "type": "address"
            },
            {
              "internalType": "address",
              "name": "erc20Address",
              "type": "address"
            },
            {
              "internalType": "address",
              "name": "nftAddress",
              "type": "address"
            },
            {
              "internalType": "enum Trade.BuyingAssetType",
              "name": "nftType",
              "type": "uint8"
            },
            {
              "internalType": "uint256",
              "name": "unitPrice",
              "type": "uint256"
            },
            {
              "internalType": "uint256",
              "name": "nftOrderQuantity",
              "type": "uint256"
            },
            {
              "internalType": "bool",
              "name": "skipRoyalty",
              "type": "bool"
            },
            {
              "internalType": "uint256",
              "name": "startDate",
              "type": "uint256"
            },
            {
              "internalType": "uint256",
              "name": "endDate",
              "type": "uint256"
            },
            {
              "internalType": "uint256",
              "name": "tokenId",
              "type": "uint256"
            },
            {
              "internalType": "uint256",
              "name": "amount",
              "type": "uint256"
            },
            {
              "internalType": "uint256",
              "name": "qty",
              "type": "uint256"
            },
            {
              "internalType": "bytes",
              "name": "sellerOrdersignature",
              "type": "bytes"
            },
            {
              "internalType": "bytes",
              "name": "buyerOrdersignature",
              "type": "bytes"
            }
          ],
          "internalType": "struct Trade.Order",
          "name": "order",
          "type": "tuple"
        }
      ],
      "name": "buyAsset",
      "outputs": [
        {
          "internalType": "bool",
          "name": "",
          "type": "bool"
        }
      ],
      "stateMutability": "nonpayable",
      "type": "function"
    },
    {
      "inputs": [
        {
          "components": [
            {
              "internalType": "address",
              "name": "seller",
              "type": "address"
            },
            {
              "internalType": "address",
              "name": "buyer",
              "type": "address"
            },
            {
              "internalType": "address",
              "name": "erc20Address",
              "type": "address"
            },
            {
              "internalType": "address",
              "name": "nftAddress",
              "type": "address"
            },
            {
              "internalType": "enum Trade.BuyingAssetType",
              "name": "nftType",
              "type": "uint8"
            },
            {
              "internalType": "uint256",
              "name": "unitPrice",
              "type": "uint256"
            },
            {
              "internalType": "uint256",
              "name": "nftOrderQuantity",
              "type": "uint256"
            },
            {
              "internalType": "bool",
              "name": "skipRoyalty",
              "type": "bool"
            },
            {
              "internalType": "uint256",
              "name": "startDate",
              "type": "uint256"
            },
            {
              "internalType": "uint256",
              "name": "endDate",
              "type": "uint256"
            },
            {
              "internalType": "uint256",
              "name": "tokenId",
              "type": "uint256"
            },
            {
              "internalType": "uint256",
              "name": "amount",
              "type": "uint256"
            },
            {
              "internalType": "uint256",
              "name": "qty",
              "type": "uint256"
            },
            {
              "internalType": "bytes",
              "name": "sellerOrdersignature",
              "type": "bytes"
            },
            {
              "internalType": "bytes",
              "name": "buyerOrdersignature",
              "type": "bytes"
            }
          ],
          "internalType": "struct Trade.Order",
          "name": "order",
          "type": "tuple"
        }
      ],
      "name": "executeBid",
      "outputs": [
        {
          "internalType": "bool",
          "name": "",
          "type": "bool"
        }
      ],
      "stateMutability": "nonpayable",
      "type": "function"
    },
    {
      "inputs": [
        {
          "components": [
            {
              "internalType": "address",
              "name": "seller",
              "type": "address"
            },
            {
              "internalType": "address",
              "name": "buyer",
              "type": "address"
            },
            {
              "internalType": "address",
              "name": "erc20Address",
              "type": "address"
            },
            {
              "internalType": "address",
              "name": "nftAddress",
              "type": "address"
            },
            {
              "internalType": "enum Trade.BuyingAssetType",
              "name": "nftType",
              "type": "uint8"
            },
            {
              "internalType": "uint256",
              "name": "unitPrice",
              "type": "uint256"
            },
            {
              "internalType": "uint256",
              "name": "nftOrderQuantity",
              "type": "uint256"
            },
            {
              "internalType": "bool",
              "name": "skipRoyalty",
              "type": "bool"
            },
            {
              "internalType": "uint256",
              "name": "startDate",
              "type": "uint256"
            },
            {
              "internalType": "uint256",
              "name": "endDate",
              "type": "uint256"
            },
            {
              "internalType": "uint256",
              "name": "tokenId",
              "type": "uint256"
            },
            {
              "internalType": "uint256",
              "name": "amount",
              "type": "uint256"
            },
            {
              "internalType": "uint256",
              "name": "qty",
              "type": "uint256"
            },
            {
              "internalType": "bytes",
              "name": "sellerOrdersignature",
              "type": "bytes"
            },
            {
              "internalType": "bytes",
              "name": "buyerOrdersignature",
              "type": "bytes"
            }
          ],
          "internalType": "struct Trade.Order",
          "name": "order",
          "type": "tuple"
        }
      ],
      "name": "getFees",
      "outputs": [
        {
          "components": [
            {
              "internalType": "uint256",
              "name": "platformFee",
              "type": "uint256"
            },
            {
              "internalType": "uint256",
              "name": "assetFee",
              "type": "uint256"
            },
            {
              "internalType": "uint256",
              "name": "royaltyFee",
              "type": "uint256"
            },
            {
              "internalType": "uint256",
              "name": "price",
              "type": "uint256"
            },
            {
              "internalType": "address",
              "name": "tokenCreator",
              "type": "address"
            }
          ],
          "internalType": "struct Trade.Fee",
          "name": "",
          "type": "tuple"
        }
      ],
      "stateMutability": "view",
      "type": "function"
    },
    {
      "inputs": [
        {
          "components": [
            {
              "internalType": "address",
              "name": "seller",
              "type": "address"
            },
            {
              "internalType": "address",
              "name": "buyer",
              "type": "address"
            },
            {
              "internalType": "address",
              "name": "erc20Address",
              "type": "address"
            },
            {
              "internalType": "address",
              "name": "nftAddress",
              "type": "address"
            },
            {
              "internalType": "enum Trade.BuyingAssetType",
              "name": "nftType",
              "type": "uint8"
            },
            {
              "internalType": "uint256",
              "name": "unitPrice",
              "type": "uint256"
            },
            {
              "internalType": "uint256",
              "name": "nftOrderQuantity",
              "type": "uint256"
            },
            {
              "internalType": "bool",
              "name": "skipRoyalty",
              "type": "bool"
            },
            {
              "internalType": "uint256",
              "name": "startDate",
              "type": "uint256"
            },
            {
              "internalType": "uint256",
              "name": "endDate",
              "type": "uint256"
            },
            {
              "internalType": "uint256",
              "name": "tokenId",
              "type": "uint256"
            },
            {
              "internalType": "uint256",
              "name": "amount",
              "type": "uint256"
            },
            {
              "internalType": "uint256",
              "name": "qty",
              "type": "uint256"
            },
            {
              "internalType": "bytes",
              "name": "sellerOrdersignature",
              "type": "bytes"
            },
            {
              "internalType": "bytes",
              "name": "buyerOrdersignature",
              "type": "bytes"
            }
          ],
          "internalType": "struct Trade.Order",
          "name": "order",
          "type": "tuple"
        }
      ],
      "name": "deliverNFT",
      "outputs": [
        {
          "internalType": "bool",
          "name": "",
          "type": "bool"
        }
      ],
      "stateMutability": "nonpayable",
      "type": "function"
    },
    {
      "inputs": [
        {
          "components": [
            {
              "internalType": "address",
              "name": "seller",
              "type": "address"
            },
            {
              "internalType": "address",
              "name": "buyer",
              "type": "address"
            },
            {
              "internalType": "address",
              "name": "erc20Address",
              "type": "address"
            },
            {
              "internalType": "address",
              "name": "nftAddress",
              "type": "address"
            },
            {
              "internalType": "enum Trade.BuyingAssetType",
              "name": "nftType",
              "type": "uint8"
            },
            {
              "internalType": "uint256",
              "name": "unitPrice",
              "type": "uint256"
            },
            {
              "internalType": "uint256",
              "name": "nftOrderQuantity",
              "type": "uint256"
            },
            {
              "internalType": "bool",
              "name": "skipRoyalty",
              "type": "bool"
            },
            {
              "internalType": "uint256",
              "name": "startDate",
              "type": "uint256"
            },
            {
              "internalType": "uint256",
              "name": "endDate",
              "type": "uint256"
            },
            {
              "internalType": "uint256",
              "name": "tokenId",
              "type": "uint256"
            },
            {
              "internalType": "uint256",
              "name": "amount",
              "type": "uint256"
            },
            {
              "internalType": "uint256",
              "name": "qty",
              "type": "uint256"
            },
            {
              "internalType": "bytes",
              "name": "sellerOrdersignature",
              "type": "bytes"
            },
            {
              "internalType": "bytes",
              "name": "buyerOrdersignature",
              "type": "bytes"
            }
          ],
          "internalType": "struct Trade.Order",
          "name": "order",
          "type": "tuple"
        }
      ],
      "name": "getOrderSellerHash",
      "outputs": [
        {
          "internalType": "bytes32",
          "name": "",
          "type": "bytes32"
        }
      ],
      "stateMutability": "pure",
      "type": "function"
    },
    {
      "inputs": [
        {
          "components": [
            {
              "internalType": "address",
              "name": "seller",
              "type": "address"
            },
            {
              "internalType": "address",
              "name": "buyer",
              "type": "address"
            },
            {
              "internalType": "address",
              "name": "erc20Address",
              "type": "address"
            },
            {
              "internalType": "address",
              "name": "nftAddress",
              "type": "address"
            },
            {
              "internalType": "enum Trade.BuyingAssetType",
              "name": "nftType",
              "type": "uint8"
            },
            {
              "internalType": "uint256",
              "name": "unitPrice",
              "type": "uint256"
            },
            {
              "internalType": "uint256",
              "name": "nftOrderQuantity",
              "type": "uint256"
            },
            {
              "internalType": "bool",
              "name": "skipRoyalty",
              "type": "bool"
            },
            {
              "internalType": "uint256",
              "name": "startDate",
              "type": "uint256"
            },
            {
              "internalType": "uint256",
              "name": "endDate",
              "type": "uint256"
            },
            {
              "internalType": "uint256",
              "name": "tokenId",
              "type": "uint256"
            },
            {
              "internalType": "uint256",
              "name": "amount",
              "type": "uint256"
            },
            {
              "internalType": "uint256",
              "name": "qty",
              "type": "uint256"
            },
            {
              "internalType": "bytes",
              "name": "sellerOrdersignature",
              "type": "bytes"
            },
            {
              "internalType": "bytes",
              "name": "buyerOrdersignature",
              "type": "bytes"
            }
          ],
          "internalType": "struct Trade.Order",
          "name": "order",
          "type": "tuple"
        }
      ],
      "name": "getOrderBuyerHash",
      "outputs": [
        {
          "internalType": "bytes32",
          "name": "",
          "type": "bytes32"
        }
      ],
      "stateMutability": "pure",
      "type": "function"
    }
  ],
  "bytecode": "0x60806040523480156200001157600080fd5b5060405162002a8e38038062002a8e8339810160408190526200003491620000a5565b600180546001600160a01b03909216620100000262010000600160b01b031960ff9485166101000261ffff1990941694909516939093179190911792909216179055600280546001600160a01b03191633179055620000ff565b805160ff81168114620000a057600080fd5b919050565b600080600060608486031215620000bb57600080fd5b620000c6846200008e565b9250620000d6602085016200008e565b60408501519092506001600160a01b0381168114620000f457600080fd5b809150509250925092565b61297f806200010f6000396000f3fe608060405234801561001057600080fd5b506004361061018d5760003560e01c80638162b6bd116100e3578063a217fddf1161008c578063d547741f11610066578063d547741f146103c8578063dab56b48146103db578063f5c7c83d146103ee57600080fd5b8063a217fddf1461039a578063a3667c7b146103a2578063a96b446d146103b557600080fd5b806391d14854116100bd57806391d148541461034557806396c94acf1461037c5780639c66809d1461038f57600080fd5b80638162b6bd1461030c5780638da5cb5b1461031f5780638e1615ac1461033257600080fd5b806336568abe116101455780636c19e7831161011f5780636c19e783146102cd5780636e667db3146102e057806377c1b664146102f957600080fd5b806336568abe1461023e5780634cf4d2b71461025157806360085da6146102af57600080fd5b8063238ac93311610176578063238ac933146101db578063248a9ca3146102065780632f2ff15d1461022957600080fd5b806301ffc9a71461019257806303365857146101ba575b600080fd5b6101a56101a03660046124a4565b610401565b60405190151581526020015b60405180910390f35b6101cd6101c83660046124ce565b61046a565b6040519081526020016101b1565b6003546101ee906001600160a01b031681565b6040516001600160a01b0390911681526020016101b1565b6101cd61021436600461250a565b60009081526020819052604090206001015490565b61023c610237366004612538565b61050c565b005b61023c61024c366004612538565b610536565b61026461025f3660046124ce565b6105c7565b6040516101b19190600060a082019050825182526020830151602083015260408301516040830152606083015160608301526001600160a01b03608084015116608083015292915050565b600154610100900460ff165b60405160ff90911681526020016101b1565b61023c6102db366004612568565b6107e7565b6001546101ee906201000090046001600160a01b031681565b6101cd6103073660046124ce565b6108d8565b6101a561031a3660046124ce565b610948565b6002546101ee906001600160a01b031681565b6101a561034036600461250a565b610e42565b6101a5610353366004612538565b6000918252602082815260408084206001600160a01b0393909316845291905290205460ff1690565b6101a561038a3660046124ce565b610ea2565b60015460ff166102bb565b6101cd600081565b61023c6103b0366004612585565b611057565b61023c6103c3366004612585565b611129565b61023c6103d6366004612538565b6111f0565b6101a56103e93660046124ce565b611215565b6101a56103fc3660046124ce565b611726565b60006001600160e01b031982167f7965db0b00000000000000000000000000000000000000000000000000000000148061046457507f01ffc9a7000000000000000000000000000000000000000000000000000000006001600160e01b03198316145b92915050565b60006104796020830183612568565b6104896060840160408501612568565b6104996080850160608601612568565b6104a960a08601608087016125a8565b60a086013560c08701356104c4610100890160e08a016125c9565b8861010001358961012001358a61014001356040516020016104ef9a99989796959493929190612626565b604051602081830303815290604052805190602001209050919050565b600082815260208190526040902060010154610527816119ff565b6105318383611a0c565b505050565b6001600160a01b03811633146105b95760405162461bcd60e51b815260206004820152602f60248201527f416363657373436f6e74726f6c3a2063616e206f6e6c792072656e6f756e636560448201527f20726f6c657320666f722073656c66000000000000000000000000000000000060648201526084015b60405180910390fd5b6105c38282611aaa565b5050565b6106026040518060a001604052806000815260200160008152602001600081526020016000815260200160006001600160a01b031681525090565b600154600090819081908190819061061f9060ff166103e86126ae565b61ffff166106346101608901356103e86126d4565b61063e91906126f3565b90506000610651826101608a0135612715565b6001549091506000906103e89061067090610100900460ff16856126d4565b61067a91906126f3565b9050610686818361272c565b95506106996101008a0160e08b016125c9565b1580156106f0575060016106b360a08b0160808c016125a8565b60018111156106c4576106c46125eb565b14806106f0575060006106dd60a08b0160808c016125a8565b60018111156106ee576106ee6125eb565b145b156107995761070560808a0160608b01612568565b6040517f2a55205a0000000000000000000000000000000000000000000000000000000081526101408b01356004820152602481018590526001600160a01b039190911690632a55205a906044016040805180830381865afa15801561076f573d6000803e3d6000fd5b505050506040513d601f19601f820116820180604052508101906107939190612744565b90975094505b806107a48685612715565b6107ae9190612715565b6040805160a081018252978852602088019190915286019490945250606084015250506001600160a01b03909116608082015292915050565b6002546001600160a01b031633146108415760405162461bcd60e51b815260206004820181905260248201527f4f6e6c79206f776e65722063616e20616c6c20746869732066756e6374696f6e60448201526064016105b0565b6003546001600160a01b0380831691160361089e5760405162461bcd60e51b815260206004820152601460248201527f5369676e65722076616c75652069732073616d6500000000000000000000000060448201526064016105b0565b600380547fffffffffffffffffffffffff0000000000000000000000000000000000000000166001600160a01b0392909216919091179055565b60006108ea6040830160208401612568565b6108fa6060840160408501612568565b61090a6080850160608601612568565b61091a60a08601608087016125a8565b8560a001358661014001358761016001358861018001356040516020016104ef989796959493929190612772565b600081816109596020830183612568565b6001600160a01b0316036109af5760405162461bcd60e51b815260206004820152601660248201527f53656c6c65722063616e6e6f7420626520656d7074790000000000000000000060448201526064016105b0565b60006109c16040830160208401612568565b6001600160a01b031603610a175760405162461bcd60e51b815260206004820152601560248201527f42757965722063616e6e6f7420626520656d707479000000000000000000000060448201526064016105b0565b6000610a296080830160608401612568565b6001600160a01b031603610a7f5760405162461bcd60e51b815260206004820152601b60248201527f4e465420416464726573732063616e6e6f7420626520656d707479000000000060448201526064016105b0565b428161010001351115610ad45760405162461bcd60e51b815260206004820152601a60248201527f41756374696f6e206973206e6f7420737461727465642079657400000000000060448201526064016105b0565b8061012001354210610b285760405162461bcd60e51b815260206004820152601060248201527f41756374696f6e20697320656e6465640000000000000000000000000000000060448201526064016105b0565b60008160a0013511610b7c5760405162461bcd60e51b815260206004820152601960248201527f556e69742070726963652063616e6e6f74206265207a65726f0000000000000060448201526064016105b0565b600081610140013511610bd15760405162461bcd60e51b815260206004820152601660248201527f546f6b656e49642063616e6e6f74206265207a65726f0000000000000000000060448201526064016105b0565b600081610160013511610c265760405162461bcd60e51b815260206004820152601560248201527f416d6f756e742063616e6e6f74206265207a65726f000000000000000000000060448201526064016105b0565b600081610180013511610c7b5760405162461bcd60e51b815260206004820152601760248201527f5175616e746974792063616e6e6f74206265207a65726f00000000000000000060448201526064016105b0565b610c8b6040840160208501612568565b6001600160a01b0316336001600160a01b031614610d115760405162461bcd60e51b815260206004820152602560248201527f4f6e6c79206f726465722062757965722063616e2063616c6c2074686973206d60448201527f6574686f6400000000000000000000000000000000000000000000000000000060648201526084016105b0565b6000610d1c846105c7565b9050610d3161018085013560a08601356126d4565b81606001511115610d845760405162461bcd60e51b815260206004820152601360248201527f5061696420696e76616c696420616d6f756e740000000000000000000000000060448201526064016105b0565b610d8d84611b29565b15610e3657610db98482610da76040830160208401612568565b610db46020890189612568565b611d5d565b610dc96040850160208601612568565b6001600160a01b0316610140850135610de56020870187612568565b6001600160a01b03167fb10197cef009fd301a90b892d25451c22c3701eb18ee2df1250d31e514fff394876101800135604051610e2491815260200190565b60405180910390a46001925050610e3c565b60009250505b50919050565b6000600260008381526004602052604090206001015460ff166003811115610e6c57610e6c6125eb565b14806104645750600360008381526004602052604090206001015460ff166003811115610e9b57610e9b6125eb565b1492915050565b600080610eae8361046a565b90506000610ebb82612109565b905033610ecb6020860186612568565b6001600160a01b031614610f215760405162461bcd60e51b815260206004820152601a60248201527f43616c6c6572206973206e6f74206f726465722073656c6c657200000000000060448201526064016105b0565b610f6d81610f336101a08701876127d4565b8080601f01602080910402602001604051908101604052809392919081815260200183838082843760009201919091525061214492505050565b6001600160a01b0316610f836020860186612568565b6001600160a01b031614610fd95760405162461bcd60e51b815260206004820152601560248201527f496e76616c6964206f726465722064657461696c73000000000000000000000060448201526064016105b0565b610fe281610e42565b1561102f5760405162461bcd60e51b815260206004820181905260248201527f4f7264657220616c726561647920636f6d706c746564206f722063616e63656c60448201526064016105b0565b60009081526004602052604081209081556001908101805460ff191660031790559392505050565b6002546001600160a01b031633146110b15760405162461bcd60e51b815260206004820181905260248201527f4f6e6c79206f776e65722063616e20616c6c20746869732066756e6374696f6e60448201526064016105b0565b60015460ff808316610100909204160361110d5760405162461bcd60e51b815260206004820152601f60248201527f53656c6c65724665655065726d696c6c652076616c75652069732073616d650060448201526064016105b0565b6001805460ff9092166101000261ff0019909216919091179055565b6002546001600160a01b031633146111835760405162461bcd60e51b815260206004820181905260248201527f4f6e6c79206f776e65722063616e20616c6c20746869732066756e6374696f6e60448201526064016105b0565b60015460ff8083169116036111da5760405162461bcd60e51b815260206004820152601e60248201527f42757965724665655065726d696c6c652076616c75652069732073616d65000060448201526064016105b0565b6001805460ff191660ff92909216919091179055565b60008281526020819052604090206001015461120b816119ff565b6105318383611aaa565b600081816112266020830183612568565b6001600160a01b03160361127c5760405162461bcd60e51b815260206004820152601660248201527f53656c6c65722063616e6e6f7420626520656d7074790000000000000000000060448201526064016105b0565b600061128e6040830160208401612568565b6001600160a01b0316036112e45760405162461bcd60e51b815260206004820152601560248201527f42757965722063616e6e6f7420626520656d707479000000000000000000000060448201526064016105b0565b60006112f66080830160608401612568565b6001600160a01b03160361134c5760405162461bcd60e51b815260206004820152601b60248201527f4e465420416464726573732063616e6e6f7420626520656d707479000000000060448201526064016105b0565b4281610100013511156113a15760405162461bcd60e51b815260206004820152601a60248201527f41756374696f6e206973206e6f7420737461727465642079657400000000000060448201526064016105b0565b80610120013542106113f55760405162461bcd60e51b815260206004820152601060248201527f41756374696f6e20697320656e6465640000000000000000000000000000000060448201526064016105b0565b60008160a00135116114495760405162461bcd60e51b815260206004820152601960248201527f556e69742070726963652063616e6e6f74206265207a65726f0000000000000060448201526064016105b0565b60008161014001351161149e5760405162461bcd60e51b815260206004820152601660248201527f546f6b656e49642063616e6e6f74206265207a65726f0000000000000000000060448201526064016105b0565b6000816101600135116114f35760405162461bcd60e51b815260206004820152601560248201527f416d6f756e742063616e6e6f74206265207a65726f000000000000000000000060448201526064016105b0565b6000816101800135116115485760405162461bcd60e51b815260206004820152601760248201527f5175616e746974792063616e6e6f74206265207a65726f00000000000000000060448201526064016105b0565b826000611554826108d8565b9050600061156182612109565b905061157581610f336101c08601866127d4565b6001600160a01b031661158e6040850160208601612568565b6001600160a01b0316146115e45760405162461bcd60e51b815260206004820152601360248201527f496e76616c6964206269642064657461696c730000000000000000000000000060448201526064016105b0565b6115f16020870187612568565b6001600160a01b0316336001600160a01b0316146116775760405162461bcd60e51b815260206004820152602660248201527f4f6e6c79206f726465722073656c6c65722063616e2063616c6c20746869732060448201527f6d6574686f64000000000000000000000000000000000000000000000000000060648201526084016105b0565b6000611682876105c7565b90506116a687826116996040830160208401612568565b610db460208c018c612568565b6116b66040880160208901612568565b6001600160a01b03166101408801356116d260208a018a612568565b6001600160a01b03167fec34853c156da04e4792f1c735112ae54e5ed52bac58db5014b26746f306a3628a610180013560405161171191815260200190565b60405180910390a45060019695505050505050565b6003546000906001600160a01b031633146117a95760405162461bcd60e51b815260206004820152602160248201527f4f6e6c79207369676e65722063616e20616c6c20746869732066756e6374696f60448201527f6e0000000000000000000000000000000000000000000000000000000000000060648201526084016105b0565b60016117bb60a08401608085016125a8565b60018111156117cc576117cc6125eb565b0361188a576001546201000090046001600160a01b031663f709b9066117f86080850160608601612568565b6118056020860186612568565b6118156040870160208801612568565b60405160e085901b6001600160e01b03191681526001600160a01b039384166004820152918316602483015290911660448201526101408501356064820152608401600060405180830381600087803b15801561187157600080fd5b505af1158015611885573d6000803e3d6000fd5b505050505b600061189c60a08401608085016125a8565b60018111156118ad576118ad6125eb565b03611984576001546201000090046001600160a01b0316639c1c2ee96118d96080850160608601612568565b6118e66020860186612568565b6118f66040870160208801612568565b60405160e085901b6001600160e01b03191681526001600160a01b039384166004820152918316602483015290911660448201526101408501356064820152610180850135608482015260c060a4820152600060c482015260e401600060405180830381600087803b15801561196b57600080fd5b505af115801561197f573d6000803e3d6000fd5b505050505b6119946040830160208401612568565b6001600160a01b03166101408301356119b06020850185612568565b6001600160a01b03167fb10197cef009fd301a90b892d25451c22c3701eb18ee2df1250d31e514fff3948561018001356040516119ef91815260200190565b60405180910390a4506001919050565b611a0981336121c3565b50565b6000828152602081815260408083206001600160a01b038516845290915290205460ff166105c3576000828152602081815260408083206001600160a01b03851684529091529020805460ff19166001179055611a663390565b6001600160a01b0316816001600160a01b0316837f2f8788117e7eff1d82e926ec794901d17c78024a50270940304540a733656f0d60405160405180910390a45050565b6000828152602081815260408083206001600160a01b038516845290915290205460ff16156105c3576000828152602081815260408083206001600160a01b0385168085529252808320805460ff1916905551339285917ff6391f5c32d9c69d2a47ea670b442974b53935d1edc7fd64eb21e047a839171b9190a45050565b600080611b358361046a565b90506000611b4282612109565b9050611b5681610f336101a08701876127d4565b6001600160a01b0316611b6c6020860186612568565b6001600160a01b031614611bc25760405162461bcd60e51b815260206004820152601560248201527f496e76616c6964206f726465722064657461696c73000000000000000000000060448201526064016105b0565b611bcb81610e42565b15611c185760405162461bcd60e51b815260206004820152600c60248201527f4f7264657220636c6f736564000000000000000000000000000000000000000060448201526064016105b0565b60008181526004602052604081206001015460ff166003811115611c3e57611c3e6125eb565b03611c6d57600081815260046020526040902060c085013581556001908101805460ff19169091179055611d53565b600160008281526004602052604090206001015460ff166003811115611c9557611c956125eb565b03611d53576000818152600460205260409020546101808501351115611cfd5760405162461bcd60e51b815260206004820152601960248201527f4f72646572205175616e7469747920697320696e76616c69640000000000000060448201526064016105b0565b600081815260046020526040812054611d1c9061018087013590612715565b905080600003611d43576000828152600460205260409020600101805460ff191660021790555b6000828152600460205260409020555b5060019392505050565b6001611d6f60a08601608087016125a8565b6001811115611d8057611d806125eb565b03611e21576001546201000090046001600160a01b031663f709b906611dac6080870160608801612568565b6040516001600160e01b031960e084901b1681526001600160a01b039182166004820152818516602482015290851660448201526101408701356064820152608401600060405180830381600087803b158015611e0857600080fd5b505af1158015611e1c573d6000803e3d6000fd5b505050505b6000611e3360a08601608087016125a8565b6001811115611e4457611e446125eb565b03611efe576001546201000090046001600160a01b0316639c1c2ee9611e706080870160608801612568565b6040516001600160e01b031960e084901b1681526001600160a01b039182166004820152818516602482015290851660448201526101408701356064820152610180870135608482015260c060a4820152600060c482015260e401600060405180830381600087803b158015611ee557600080fd5b505af1158015611ef9573d6000803e3d6000fd5b505050505b825115611fa1576001546201000090046001600160a01b031663776062c3611f2c6060870160408801612568565b600254865160405160e085901b6001600160e01b03191681526001600160a01b03938416600482015283881660248201529290911660448301526064820152608401600060405180830381600087803b158015611f8857600080fd5b505af1158015611f9c573d6000803e3d6000fd5b505050505b60008360400151118015611fc35750611fc1610100850160e086016125c9565b155b15612069576001546201000090046001600160a01b031663776062c3611fef6060870160408801612568565b608086015160408088015190516001600160e01b031960e086901b1681526001600160a01b03938416600482015283881660248201529290911660448301526064820152608401600060405180830381600087803b15801561205057600080fd5b505af1158015612064573d6000803e3d6000fd5b505050505b6001546201000090046001600160a01b031663776062c36120906060870160408801612568565b60208601516040516001600160e01b031960e085901b1681526001600160a01b039283166004820152828716602482015291851660448301526064820152608401600060405180830381600087803b1580156120eb57600080fd5b505af11580156120ff573d6000803e3d6000fd5b5050505050505050565b6040517f19457468657265756d205369676e6564204d6573736167653a0a3332000000006020820152603c8101829052600090605c016104ef565b60008060008061215385612236565b6040805160008152602081018083528b905260ff8316918101919091526060810184905260808101839052929550909350915060019060a0016020604051602081039080840390855afa1580156121ae573d6000803e3d6000fd5b5050604051601f190151979650505050505050565b6000828152602081815260408083206001600160a01b038516845290915290205460ff166105c3576121f4816122aa565b6121ff8360206122bc565b604051602001612210929190612852565b60408051601f198184030181529082905262461bcd60e51b82526105b0916004016128d3565b6000806000835160411461228c5760405162461bcd60e51b815260206004820152601860248201527f696e76616c6964207369676e6174757265206c656e677468000000000000000060448201526064016105b0565b50505060208101516040820151606090920151909260009190911a90565b60606104646001600160a01b03831660145b606060006122cb8360026126d4565b6122d690600261272c565b67ffffffffffffffff8111156122ee576122ee612906565b6040519080825280601f01601f191660200182016040528015612318576020820181803683370190505b5090507f30000000000000000000000000000000000000000000000000000000000000008160008151811061234f5761234f61291c565b60200101906001600160f81b031916908160001a9053507f78000000000000000000000000000000000000000000000000000000000000008160018151811061239a5761239a61291c565b60200101906001600160f81b031916908160001a90535060006123be8460026126d4565b6123c990600161272c565b90505b600181111561244e577f303132333435363738396162636465660000000000000000000000000000000085600f166010811061240a5761240a61291c565b1a60f81b8282815181106124205761242061291c565b60200101906001600160f81b031916908160001a90535060049490941c9361244781612932565b90506123cc565b50831561249d5760405162461bcd60e51b815260206004820181905260248201527f537472696e67733a20686578206c656e67746820696e73756666696369656e7460448201526064016105b0565b9392505050565b6000602082840312156124b657600080fd5b81356001600160e01b03198116811461249d57600080fd5b6000602082840312156124e057600080fd5b813567ffffffffffffffff8111156124f757600080fd5b82016101e0818503121561249d57600080fd5b60006020828403121561251c57600080fd5b5035919050565b6001600160a01b0381168114611a0957600080fd5b6000806040838503121561254b57600080fd5b82359150602083013561255d81612523565b809150509250929050565b60006020828403121561257a57600080fd5b813561249d81612523565b60006020828403121561259757600080fd5b813560ff8116811461249d57600080fd5b6000602082840312156125ba57600080fd5b81356002811061249d57600080fd5b6000602082840312156125db57600080fd5b8135801515811461249d57600080fd5b634e487b7160e01b600052602160045260246000fd5b6002811061261f57634e487b7160e01b600052602160045260246000fd5b60f81b9052565b60006bffffffffffffffffffffffff19808d60601b168352808c60601b166014840152808b60601b16602884015250612662603c83018a612601565b50603d810196909652605d86019490945291151560f81b607d850152607e840152609e83015260be82015260de01949350505050565b634e487b7160e01b600052601160045260246000fd5b600061ffff8083168185168083038211156126cb576126cb612698565b01949350505050565b60008160001904831182151516156126ee576126ee612698565b500290565b60008261271057634e487b7160e01b600052601260045260246000fd5b500490565b60008282101561272757612727612698565b500390565b6000821982111561273f5761273f612698565b500190565b6000806040838503121561275757600080fd5b825161276281612523565b6020939093015192949293505050565b60006bffffffffffffffffffffffff19808b60601b168352808a60601b166014840152808960601b166028840152506127ae603c830188612601565b50603d810194909452605d840192909252607d830152609d82015260bd01949350505050565b6000808335601e198436030181126127eb57600080fd5b83018035915067ffffffffffffffff82111561280657600080fd5b60200191503681900382131561281b57600080fd5b9250929050565b60005b8381101561283d578181015183820152602001612825565b8381111561284c576000848401525b50505050565b7f416363657373436f6e74726f6c3a206163636f756e742000000000000000000081526000835161288a816017850160208801612822565b7f206973206d697373696e6720726f6c652000000000000000000000000000000060179184019182015283516128c7816028840160208801612822565b01602801949350505050565b60208152600082518060208401526128f2816040850160208701612822565b601f01601f19169190910160400192915050565b634e487b7160e01b600052604160045260246000fd5b634e487b7160e01b600052603260045260246000fd5b60008161294157612941612698565b50600019019056fea26469706673582212209ce70a54756a92d1069fd2980819a1306263564c1bda6106b9f981aa48ee50b964736f6c634300080e0033",
  "immutableReferences": {},
  "source": "// SPDX-License-Identifier: UNLICENSED\r\npragma solidity 0.8.14;\r\n\r\nimport \"@openzeppelin/contracts/access/AccessControl.sol\";\r\nimport \"@openzeppelin/contracts/interfaces/IERC2981.sol\";\r\nimport \"./interface/ITransferProxy.sol\";\r\n\r\ncontract Trade is AccessControl {\r\n    enum BuyingAssetType {\r\n        ERC1155,\r\n        ERC721\r\n    }\r\n    enum Status {\r\n        NONE,\r\n        LIVE,\r\n        COMPLETED,\r\n        CANCEL\r\n    }\r\n\r\n    event OwnershipTransferred(\r\n        address indexed previousOwner,\r\n        address indexed newOwner\r\n    );\r\n    event SellerFee(uint8 sellerFee);\r\n    event BuyerFee(uint8 buyerFee);\r\n    event BuyAsset(\r\n        address indexed assetOwner,\r\n        uint256 indexed tokenId,\r\n        uint256 quantity,\r\n        address indexed buyer\r\n    );\r\n    event ExecuteBid(\r\n        address indexed assetOwner,\r\n        uint256 indexed tokenId,\r\n        uint256 quantity,\r\n        address indexed buyer\r\n    );\r\n    // buyer platformFee\r\n    uint8 private buyerFeePermille;\r\n    //seller platformFee\r\n    uint8 private sellerFeePermille;\r\n    ITransferProxy public transferProxy;\r\n    //contract owner\r\n    address public owner;\r\n\r\n    address public signer;\r\n\r\n    //// mapping(uint256 => bool) private usedNonce;\r\n\r\n    // Create a new role identifier for the minter role\r\n    //// bytes32 public constant ADMIN_ROLE = keccak256(\"ADMIN_ROLE\");\r\n\r\n    /** Fee Struct\r\n        @param platformFee  uint256 (buyerFee + sellerFee) value which is transferred to current contract owner.\r\n        @param assetFee  uint256  assetvalue which is transferred to current seller of the NFT.\r\n        @param royaltyFee  uint256 value, transferred to Minter of the NFT.\r\n        @param price  uint256 value, the combination of buyerFee and assetValue.\r\n        @param tokenCreator address value, it's store the creator of NFT.\r\n     */\r\n    struct Fee {\r\n        uint256 platformFee;\r\n        uint256 assetFee;\r\n        uint256 royaltyFee;\r\n        uint256 price;\r\n        address tokenCreator;\r\n    }\r\n\r\n    /** Order Params\r\n        @param seller address of user,who's selling the NFT.\r\n        @param buyer address of user, who's buying the NFT.\r\n        @param erc20Address address of the token, which is used as payment token(WETH/WBNB/WMATIC...)\r\n        @param nftAddress address of NFT contract where the NFT token is created/Minted.\r\n        @param nftType an enum value, if the type is ERC721/ERC1155 the enum value is 0/1.\r\n        @param uintprice the Price Each NFT it's not including the buyerFee.\r\n        @param nftOrderQuantity the max Quantity of NFT available for order.\r\n        @param skipRoyalty skip royalty part or not.\r\n        @param startDate the start Date of the order.\r\n        @param endDate the end Date of the order.\r\n        @param tokenId \r\n        @param amount the price of NFT(assetFee + buyerFee).\r\n        @param qty number of quantity to be transfer.\r\n        @param sellerOrdersignature order hash signed by seller.\r\n        @param buyerOrdersignature order hash signed by buyer.\r\n     */\r\n    struct Order {\r\n        address seller;\r\n        address buyer;\r\n        address erc20Address;\r\n        address nftAddress;\r\n        BuyingAssetType nftType;\r\n        uint256 unitPrice;\r\n        uint256 nftOrderQuantity;\r\n        bool skipRoyalty;\r\n        uint256 startDate;\r\n        uint256 endDate;\r\n        uint256 tokenId;\r\n        uint256 amount;\r\n        uint256 qty;\r\n        bytes sellerOrdersignature;\r\n        bytes buyerOrdersignature;\r\n    }\r\n\r\n    /** OrderStatus Params\r\n        @param maxAmount is the maximum nft currently available in auction.\r\n        @param status an enum value, if the type is NONE|LIVE|COMPLETED|CANCEL the enum value is 0|1|2|3.\r\n     */\r\n    struct OrderStatus {\r\n        uint256 maxAmount;\r\n        Status status;\r\n    }\r\n\r\n    // order Limit which hold closed and live order data\r\n    mapping(bytes32 => OrderStatus) orderLimit;\r\n\r\n    constructor(\r\n        uint8 _buyerFee,\r\n        uint8 _sellerFee,\r\n        ITransferProxy _transferProxy\r\n    ) {\r\n        buyerFeePermille = _buyerFee;\r\n        sellerFeePermille = _sellerFee;\r\n        transferProxy = _transferProxy;\r\n        owner = msg.sender;\r\n    }\r\n\r\n    modifier OnlyOwner(){\r\n        require(msg.sender==owner,\"Only owner can all this function\");\r\n        _;\r\n    }\r\n\r\n    modifier OnlySigner(){\r\n        require(msg.sender==signer,\"Only signer can all this function\");\r\n        _;\r\n    }\r\n\r\n    /**\r\n        checks the order is valid\r\n     */\r\n    modifier isvalidOrder(Order calldata order) {\r\n        require(order.seller != address(0), \"Seller cannot be empty\");\r\n        require(order.buyer != address(0), \"Buyer cannot be empty\");\r\n        require(order.nftAddress != address(0), \"NFT Address cannot be empty\");\r\n        require(\r\n            order.startDate <= block.timestamp,\r\n            \"Auction is not started yet\"\r\n        );\r\n        require(block.timestamp < order.endDate, \"Auction is ended\");\r\n        require(order.unitPrice > 0, \"Unit price cannot be zero\");\r\n        require(order.tokenId > 0, \"TokenId cannot be zero\");\r\n        require(order.amount > 0, \"Amount cannot be zero\");\r\n        require(order.qty > 0, \"Quantity cannot be zero\");\r\n        _;\r\n    }\r\n\r\n    /**\r\n        checks the order is valid\r\n     */\r\n    modifier isvalidOrderBid(Order calldata order) {\r\n        bytes32 buyerOrderhash = getOrderBuyerHash(order);\r\n        bytes32 buyerOrderhashMessage = prefixed(buyerOrderhash);\r\n\r\n        require(\r\n            order.buyer ==\r\n                recoverSigner(buyerOrderhashMessage, order.buyerOrdersignature),\r\n            \"Invalid bid details\"\r\n        );\r\n        _;\r\n    }\r\n\r\n    /**\r\n        returns the buyerservice Fee in multiply of 1000.\r\n     */\r\n    function buyerServiceFee() external view virtual returns (uint8) {\r\n        return buyerFeePermille;\r\n    }\r\n\r\n    /**\r\n        returns the sellerservice Fee in multiply of 1000.\r\n     */\r\n    function sellerServiceFee() external view virtual returns (uint8) {\r\n        return sellerFeePermille;\r\n    }\r\n\r\n    /**\r\n        returns the buyerservice Fee in multiply of 1000.\r\n     */\r\n\r\n    function setBuyerServiceFee(uint8 _buyerFeePermille) public OnlyOwner() {\r\n        require(buyerFeePermille!=_buyerFeePermille,\"BuyerFeePermille value is same\");\r\n        buyerFeePermille=_buyerFeePermille;\r\n    }\r\n\r\n    /**\r\n        returns the sellerservice Fee in multiply of 1000.\r\n     */\r\n\r\n    function setSellerServiceFee(uint8 _sellerFeePermille) public OnlyOwner() {\r\n        require(sellerFeePermille!=_sellerFeePermille,\"SellerFeePermille value is same\");\r\n        sellerFeePermille=_sellerFeePermille;\r\n    }\r\n    /**\r\n        set the signer in address.\r\n     */\r\n\r\n    function setSigner(address _signer) public OnlyOwner() {\r\n        require(signer!=_signer,\"Signer value is same\");\r\n        signer=_signer;\r\n    }\r\n\r\n    /**\r\n        returns the whether the order is already exists or not.\r\n     */\r\n    function isOrderClosed(bytes32 orderHash) public view returns (bool) {\r\n        return\r\n            orderLimit[orderHash].status == Status.COMPLETED ||\r\n            orderLimit[orderHash].status == Status.CANCEL;\r\n    }\r\n\r\n    /**\r\n        cancel Order.\r\n        @param order ordervalues(seller, buyer,...).\r\n        this will cancel the invalid use of sign order data\r\n    */\r\n    function cancelOrder(Order calldata order) public returns (bool) {\r\n        bytes32 sellerOrderhash = getOrderSellerHash(order);\r\n        bytes32 sellerOrderhashMessage = prefixed(sellerOrderhash);\r\n\r\n        require(order.seller == msg.sender, \"Caller is not order seller\");\r\n        require(\r\n            order.seller ==\r\n                recoverSigner(\r\n                    sellerOrderhashMessage,\r\n                    order.sellerOrdersignature\r\n                ),\r\n            \"Invalid order details\"\r\n        );\r\n        require(\r\n            !isOrderClosed(sellerOrderhashMessage),\r\n            \"Order already complted or cancel\"\r\n        );\r\n\r\n        // if order is new or live then set its status and max amount\r\n        orderLimit[sellerOrderhashMessage].maxAmount = 0;\r\n        orderLimit[sellerOrderhashMessage].status = Status.CANCEL;\r\n\r\n        return true;\r\n    }\r\n\r\n    /**\r\n        validate and Update Order Limit.\r\n        @param order ordervalues(seller, buyer,...).\r\n        this will validate and update the signature of order for seller\r\n    */\r\n    function validateandUpdateOrderForSeller(Order calldata order)\r\n        internal \r\n        returns (bool)\r\n    {\r\n        bytes32 sellerOrderhash = getOrderSellerHash(order);\r\n        bytes32 sellerOrderhashMessage = prefixed(sellerOrderhash);\r\n\r\n        require(\r\n            order.seller ==\r\n                recoverSigner(\r\n                    sellerOrderhashMessage,\r\n                    order.sellerOrdersignature\r\n                ),\r\n            \"Invalid order details\"\r\n        );\r\n        require(!isOrderClosed(sellerOrderhashMessage), \"Order closed\");\r\n\r\n        // if order is new then set its status and max amount\r\n        if (orderLimit[sellerOrderhashMessage].status == Status.NONE) {\r\n            orderLimit[sellerOrderhashMessage].maxAmount = order.nftOrderQuantity;\r\n            orderLimit[sellerOrderhashMessage].status = Status.LIVE;\r\n        } else if (orderLimit[sellerOrderhashMessage].status == Status.LIVE) {\r\n            require(\r\n                orderLimit[sellerOrderhashMessage].maxAmount >= order.qty,\r\n                \"Order Quantity is invalid\"\r\n            );\r\n            // if order is live then update max amount\r\n            uint256 _updatedMaxAmount = orderLimit[sellerOrderhashMessage]\r\n                .maxAmount - order.qty;\r\n            if (_updatedMaxAmount == 0) {\r\n                // if order max amount will be zero then set status to completed\r\n                orderLimit[sellerOrderhashMessage].status = Status.COMPLETED;\r\n            }\r\n            orderLimit[sellerOrderhashMessage].maxAmount = _updatedMaxAmount;\r\n        }\r\n\r\n        return true;\r\n    }\r\n\r\n    /**\r\n        excuting the NFT order.\r\n        @param order ordervalues(seller, buyer,...).\r\n    */\r\n    function buyAsset(Order calldata order)\r\n        external\r\n        isvalidOrder(order)\r\n        returns (bool)\r\n    {\r\n        require(msg.sender==order.buyer,\"Only order buyer can call this method\");\r\n        Fee memory fee = getFees(order);\r\n        require(\r\n            (fee.price <= order.unitPrice * order.qty),\r\n            \"Paid invalid amount\"\r\n\r\n        );\r\n        if (validateandUpdateOrderForSeller(order)) {\r\n            tradeAsset(order, fee, order.buyer, order.seller);\r\n            emit BuyAsset(order.seller, order.tokenId, order.qty, order.buyer);\r\n            return true;\r\n        }\r\n        return false;\r\n    }\r\n\r\n    function executeBid(Order calldata order)\r\n        external\r\n        isvalidOrder(order)\r\n        isvalidOrderBid(order)\r\n        returns (bool)\r\n    {\r\n        require(msg.sender==order.seller,\"Only order seller can call this method\");\r\n        Fee memory fee = getFees(order);\r\n        tradeAsset(order, fee, order.buyer, order.seller);\r\n        emit ExecuteBid(order.seller, order.tokenId, order.qty, order.buyer);\r\n        return true;\r\n    }\r\n\r\n    function getFees(Order calldata order) public view returns (Fee memory) {\r\n        address tokenCreator;\r\n        uint256 platformFee;\r\n        uint256 royaltyFee;\r\n        uint256 assetFee;\r\n        uint256 price = (order.amount * 1000) / (1000 + buyerFeePermille);\r\n        uint256 buyerFee = order.amount - price;\r\n        uint256 sellerFee = (price * sellerFeePermille) / 1000;\r\n        platformFee = buyerFee + sellerFee;\r\n        if (\r\n            !order.skipRoyalty &&\r\n            ((order.nftType == BuyingAssetType.ERC721) ||\r\n                (order.nftType == BuyingAssetType.ERC1155))\r\n        ) {\r\n            (tokenCreator, royaltyFee) = IERC2981(order.nftAddress).royaltyInfo(\r\n                order.tokenId,\r\n                price\r\n            );\r\n        }\r\n        assetFee = price - royaltyFee - sellerFee;\r\n        return Fee(platformFee, assetFee, royaltyFee, price, tokenCreator);\r\n    }\r\n\r\n    /** \r\n        transfers the NFTs and tokens...\r\n        @param order ordervalues(seller, buyer,...).\r\n        @param fee Feevalues(platformFee, assetFee,...).\r\n    */\r\n\r\n    function tradeAsset(\r\n        Order calldata order,\r\n        Fee memory fee,\r\n        address buyer,\r\n        address seller\r\n    ) internal virtual {\r\n        if (order.nftType == BuyingAssetType.ERC721) {\r\n            transferProxy.erc721safeTransferFrom(\r\n                IERC721(order.nftAddress),\r\n                seller,\r\n                buyer,\r\n                order.tokenId\r\n            );\r\n        }\r\n        if (order.nftType == BuyingAssetType.ERC1155) {\r\n            transferProxy.erc1155safeTransferFrom(\r\n                IERC1155(order.nftAddress),\r\n                seller,\r\n                buyer,\r\n                order.tokenId,\r\n                order.qty,\r\n                \"\"\r\n            );\r\n        }\r\n\r\n        if (fee.platformFee > 0) {\r\n            transferProxy.erc20safeTransferFrom(\r\n                IERC20(order.erc20Address),\r\n                buyer,\r\n                owner,\r\n                fee.platformFee\r\n            );\r\n        }\r\n        if (fee.royaltyFee > 0 && (!order.skipRoyalty)) {\r\n            transferProxy.erc20safeTransferFrom(\r\n                IERC20(order.erc20Address),\r\n                buyer,\r\n                fee.tokenCreator,\r\n                fee.royaltyFee\r\n            );\r\n        }\r\n        transferProxy.erc20safeTransferFrom(\r\n            IERC20(order.erc20Address),\r\n            buyer,\r\n            seller,\r\n            fee.assetFee\r\n        );\r\n    }\r\n\r\n    // moonpay\r\n    /** \r\n        transfers the NFTs by external wallets\r\n        @param order ordervalues(seller, buyer,...).\r\n    */\r\n    function deliverNFT(Order calldata order)\r\n        external\r\n        OnlySigner()\r\n        returns (bool)\r\n    {\r\n        if (order.nftType == BuyingAssetType.ERC721) {\r\n            transferProxy.erc721safeTransferFrom(\r\n                IERC721(order.nftAddress),\r\n                order.seller,\r\n                order.buyer,\r\n                order.tokenId\r\n            );\r\n        }\r\n        if (order.nftType == BuyingAssetType.ERC1155) {\r\n            transferProxy.erc1155safeTransferFrom(\r\n                IERC1155(order.nftAddress),\r\n                order.seller,\r\n                order.buyer,\r\n                order.tokenId,\r\n                order.qty,\r\n                \"\"\r\n            );\r\n        }\r\n\r\n        emit BuyAsset(order.seller, order.tokenId, order.qty, order.buyer);\r\n        return true;\r\n    }\r\n\r\n    // Signature validation part\r\n\r\n    /**\r\n        get Order Hash for seller.\r\n        @param order ordervalues(seller, buyer,...).\r\n    */\r\n    function getOrderSellerHash(Order calldata order)\r\n        public\r\n        pure\r\n        returns (bytes32)\r\n    {\r\n        return\r\n            keccak256(\r\n                abi.encodePacked(\r\n                    order.seller,\r\n                    order.erc20Address,\r\n                    order.nftAddress,\r\n                    order.nftType,\r\n                    order.unitPrice,\r\n                    order.nftOrderQuantity,\r\n                    order.skipRoyalty,\r\n                    order.startDate,\r\n                    order.endDate,\r\n                    order.tokenId\r\n                )\r\n            );\r\n    }\r\n\r\n    /**\r\n        get Order Hash for buyer.\r\n        @param order ordervalues(seller, buyer,...).\r\n    */\r\n    function getOrderBuyerHash(Order calldata order)\r\n        public\r\n        pure\r\n        returns (bytes32)\r\n    {\r\n        return\r\n            keccak256(\r\n                abi.encodePacked(\r\n                    order.buyer,\r\n                    order.erc20Address,\r\n                    order.nftAddress,\r\n                    order.nftType,\r\n                    order.unitPrice,\r\n                    order.tokenId,\r\n                    order.amount,\r\n                    order.qty\r\n                )\r\n            );\r\n    }\r\n\r\n    function prefixed(bytes32 _messageHash) internal pure returns (bytes32) {\r\n        return\r\n            keccak256(\r\n                abi.encodePacked(\r\n                    \"\\x19Ethereum Signed Message:\\n32\",\r\n                    _messageHash\r\n                )\r\n            );\r\n    }\r\n\r\n    function recoverSigner(bytes32 _signedMessageHash, bytes memory _signature)\r\n        internal\r\n        pure\r\n        returns (address)\r\n    {\r\n        (bytes32 r, bytes32 s, uint8 v) = splitSignature(_signature);\r\n\r\n        return ecrecover(_signedMessageHash, v, r, s);\r\n    }\r\n\r\n    function splitSignature(bytes memory sig)\r\n        internal\r\n        pure\r\n        returns (\r\n            bytes32 r,\r\n            bytes32 s,\r\n            uint8 v\r\n        )\r\n    {\r\n        require(sig.length == 65, \"invalid signature length\");\r\n\r\n        assembly {\r\n            /*\r\n            First 32 bytes stores the length of the signature\r\n\r\n            add(sig, 32) = pointer of sig + 32\r\n            effectively, skips first 32 bytes of signature\r\n\r\n            mload(p) loads next 32 bytes starting at the memory address p into memory\r\n            */\r\n\r\n            // first 32 bytes, after the length prefix\r\n            r := mload(add(sig, 32))\r\n            // second 32 bytes\r\n            s := mload(add(sig, 64))\r\n            // final byte (first byte of the next 32 bytes)\r\n            v := byte(0, mload(add(sig, 96)))\r\n        }\r\n\r\n        // implicitly return (r, s, v)\r\n    }\r\n}\r\n",
  "sourcePath": "Z:\\Github\\marketplace\\src\\contracts\\trade.sol",
  "compiler": {
    "name": "solc",
    "version": "0.8.14+commit.80d49f37.Emscripten.clang"
  },
  "schemaVersion": "3.4.16",
  "updatedAt": "2024-08-14T08:45:34.909Z",
  "devdoc": {
    "kind": "dev",
    "methods": {
      "buyAsset((address,address,address,address,uint8,uint256,uint256,bool,uint256,uint256,uint256,uint256,uint256,bytes,bytes))": {
        "params": {
          "order": "ordervalues(seller, buyer,...)."
        }
      },
      "cancelOrder((address,address,address,address,uint8,uint256,uint256,bool,uint256,uint256,uint256,uint256,uint256,bytes,bytes))": {
        "params": {
          "order": "ordervalues(seller, buyer,...). this will cancel the invalid use of sign order data"
        }
      },
      "deliverNFT((address,address,address,address,uint8,uint256,uint256,bool,uint256,uint256,uint256,uint256,uint256,bytes,bytes))": {
        "params": {
          "order": "ordervalues(seller, buyer,...)."
        }
      },
      "getOrderBuyerHash((address,address,address,address,uint8,uint256,uint256,bool,uint256,uint256,uint256,uint256,uint256,bytes,bytes))": {
        "params": {
          "order": "ordervalues(seller, buyer,...)."
        }
      },
      "getOrderSellerHash((address,address,address,address,uint8,uint256,uint256,bool,uint256,uint256,uint256,uint256,uint256,bytes,bytes))": {
        "params": {
          "order": "ordervalues(seller, buyer,...)."
        }
      },
      "getRoleAdmin(bytes32)": {
        "details": "Returns the admin role that controls `role`. See {grantRole} and {revokeRole}. To change a role's admin, use {_setRoleAdmin}."
      },
      "grantRole(bytes32,address)": {
        "details": "Grants `role` to `account`. If `account` had not been already granted `role`, emits a {RoleGranted} event. Requirements: - the caller must have ``role``'s admin role. May emit a {RoleGranted} event."
      },
      "hasRole(bytes32,address)": {
        "details": "Returns `true` if `account` has been granted `role`."
      },
      "renounceRole(bytes32,address)": {
        "details": "Revokes `role` from the calling account. Roles are often managed via {grantRole} and {revokeRole}: this function's purpose is to provide a mechanism for accounts to lose their privileges if they are compromised (such as when a trusted device is misplaced). If the calling account had been revoked `role`, emits a {RoleRevoked} event. Requirements: - the caller must be `account`. May emit a {RoleRevoked} event."
      },
      "revokeRole(bytes32,address)": {
        "details": "Revokes `role` from `account`. If `account` had been granted `role`, emits a {RoleRevoked} event. Requirements: - the caller must have ``role``'s admin role. May emit a {RoleRevoked} event."
      },
      "supportsInterface(bytes4)": {
        "details": "See {IERC165-supportsInterface}."
      }
    },
    "version": 1
  },
  "userdoc": {
    "kind": "user",
    "methods": {
      "buyAsset((address,address,address,address,uint8,uint256,uint256,bool,uint256,uint256,uint256,uint256,uint256,bytes,bytes))": {
        "notice": "excuting the NFT order."
      },
      "buyerServiceFee()": {
        "notice": "returns the buyerservice Fee in multiply of 1000."
      },
      "cancelOrder((address,address,address,address,uint8,uint256,uint256,bool,uint256,uint256,uint256,uint256,uint256,bytes,bytes))": {
        "notice": "cancel Order."
      },
      "deliverNFT((address,address,address,address,uint8,uint256,uint256,bool,uint256,uint256,uint256,uint256,uint256,bytes,bytes))": {
        "notice": "transfers the NFTs by external wallets"
      },
      "getOrderBuyerHash((address,address,address,address,uint8,uint256,uint256,bool,uint256,uint256,uint256,uint256,uint256,bytes,bytes))": {
        "notice": "get Order Hash for buyer."
      },
      "getOrderSellerHash((address,address,address,address,uint8,uint256,uint256,bool,uint256,uint256,uint256,uint256,uint256,bytes,bytes))": {
        "notice": "get Order Hash for seller."
      },
      "isOrderClosed(bytes32)": {
        "notice": "returns the whether the order is already exists or not."
      },
      "sellerServiceFee()": {
        "notice": "returns the sellerservice Fee in multiply of 1000."
      },
      "setBuyerServiceFee(uint8)": {
        "notice": "returns the buyerservice Fee in multiply of 1000."
      },
      "setSellerServiceFee(uint8)": {
        "notice": "returns the sellerservice Fee in multiply of 1000."
      },
      "setSigner(address)": {
        "notice": "set the signer in address."
      }
    },
    "version": 1
  }
}