{
  "contractName": "Trade",
  "abi": [
    {
      "inputs": [
        {
          "internalType": "uint8",
          "name": "_buyerFee",
          "type": "uint8"
        },
        {
          "internalType": "uint8",
          "name": "_sellerFee",
          "type": "uint8"
        },
        {
          "internalType": "contract ITransferProxy",
          "name": "_transferProxy",
          "type": "address"
        }
      ],
      "stateMutability": "nonpayable",
      "type": "constructor"
    },
    {
      "anonymous": false,
      "inputs": [
        {
          "indexed": true,
          "internalType": "address",
          "name": "assetOwner",
          "type": "address"
        },
        {
          "indexed": true,
          "internalType": "uint256",
          "name": "tokenId",
          "type": "uint256"
        },
        {
          "indexed": false,
          "internalType": "uint256",
          "name": "quantity",
          "type": "uint256"
        },
        {
          "indexed": true,
          "internalType": "address",
          "name": "buyer",
          "type": "address"
        }
      ],
      "name": "BuyAsset",
      "type": "event"
    },
    {
      "anonymous": false,
      "inputs": [
        {
          "indexed": false,
          "internalType": "uint8",
          "name": "buyerFee",
          "type": "uint8"
        }
      ],
      "name": "BuyerFee",
      "type": "event"
    },
    {
      "anonymous": false,
      "inputs": [
        {
          "indexed": true,
          "internalType": "address",
          "name": "assetOwner",
          "type": "address"
        },
        {
          "indexed": true,
          "internalType": "uint256",
          "name": "tokenId",
          "type": "uint256"
        },
        {
          "indexed": false,
          "internalType": "uint256",
          "name": "quantity",
          "type": "uint256"
        },
        {
          "indexed": true,
          "internalType": "address",
          "name": "buyer",
          "type": "address"
        }
      ],
      "name": "ExecuteBid",
      "type": "event"
    },
    {
      "anonymous": false,
      "inputs": [
        {
          "indexed": true,
          "internalType": "address",
          "name": "previousOwner",
          "type": "address"
        },
        {
          "indexed": true,
          "internalType": "address",
          "name": "newOwner",
          "type": "address"
        }
      ],
      "name": "OwnershipTransferred",
      "type": "event"
    },
    {
      "anonymous": false,
      "inputs": [
        {
          "indexed": true,
          "internalType": "bytes32",
          "name": "role",
          "type": "bytes32"
        },
        {
          "indexed": true,
          "internalType": "bytes32",
          "name": "previousAdminRole",
          "type": "bytes32"
        },
        {
          "indexed": true,
          "internalType": "bytes32",
          "name": "newAdminRole",
          "type": "bytes32"
        }
      ],
      "name": "RoleAdminChanged",
      "type": "event"
    },
    {
      "anonymous": false,
      "inputs": [
        {
          "indexed": true,
          "internalType": "bytes32",
          "name": "role",
          "type": "bytes32"
        },
        {
          "indexed": true,
          "internalType": "address",
          "name": "account",
          "type": "address"
        },
        {
          "indexed": true,
          "internalType": "address",
          "name": "sender",
          "type": "address"
        }
      ],
      "name": "RoleGranted",
      "type": "event"
    },
    {
      "anonymous": false,
      "inputs": [
        {
          "indexed": true,
          "internalType": "bytes32",
          "name": "role",
          "type": "bytes32"
        },
        {
          "indexed": true,
          "internalType": "address",
          "name": "account",
          "type": "address"
        },
        {
          "indexed": true,
          "internalType": "address",
          "name": "sender",
          "type": "address"
        }
      ],
      "name": "RoleRevoked",
      "type": "event"
    },
    {
      "anonymous": false,
      "inputs": [
        {
          "indexed": false,
          "internalType": "uint8",
          "name": "sellerFee",
          "type": "uint8"
        }
      ],
      "name": "SellerFee",
      "type": "event"
    },
    {
      "inputs": [],
      "name": "ADMIN_ROLE",
      "outputs": [
        {
          "internalType": "bytes32",
          "name": "",
          "type": "bytes32"
        }
      ],
      "stateMutability": "view",
      "type": "function"
    },
    {
      "inputs": [],
      "name": "DEFAULT_ADMIN_ROLE",
      "outputs": [
        {
          "internalType": "bytes32",
          "name": "",
          "type": "bytes32"
        }
      ],
      "stateMutability": "view",
      "type": "function"
    },
    {
      "inputs": [
        {
          "internalType": "bytes32",
          "name": "role",
          "type": "bytes32"
        }
      ],
      "name": "getRoleAdmin",
      "outputs": [
        {
          "internalType": "bytes32",
          "name": "",
          "type": "bytes32"
        }
      ],
      "stateMutability": "view",
      "type": "function"
    },
    {
      "inputs": [
        {
          "internalType": "bytes32",
          "name": "role",
          "type": "bytes32"
        },
        {
          "internalType": "address",
          "name": "account",
          "type": "address"
        }
      ],
      "name": "grantRole",
      "outputs": [],
      "stateMutability": "nonpayable",
      "type": "function"
    },
    {
      "inputs": [
        {
          "internalType": "bytes32",
          "name": "role",
          "type": "bytes32"
        },
        {
          "internalType": "address",
          "name": "account",
          "type": "address"
        }
      ],
      "name": "hasRole",
      "outputs": [
        {
          "internalType": "bool",
          "name": "",
          "type": "bool"
        }
      ],
      "stateMutability": "view",
      "type": "function"
    },
    {
      "inputs": [],
      "name": "owner",
      "outputs": [
        {
          "internalType": "address",
          "name": "",
          "type": "address"
        }
      ],
      "stateMutability": "view",
      "type": "function"
    },
    {
      "inputs": [
        {
          "internalType": "bytes32",
          "name": "role",
          "type": "bytes32"
        },
        {
          "internalType": "address",
          "name": "account",
          "type": "address"
        }
      ],
      "name": "renounceRole",
      "outputs": [],
      "stateMutability": "nonpayable",
      "type": "function"
    },
    {
      "inputs": [
        {
          "internalType": "bytes32",
          "name": "role",
          "type": "bytes32"
        },
        {
          "internalType": "address",
          "name": "account",
          "type": "address"
        }
      ],
      "name": "revokeRole",
      "outputs": [],
      "stateMutability": "nonpayable",
      "type": "function"
    },
    {
      "inputs": [],
      "name": "signer",
      "outputs": [
        {
          "internalType": "address",
          "name": "",
          "type": "address"
        }
      ],
      "stateMutability": "view",
      "type": "function"
    },
    {
      "inputs": [
        {
          "internalType": "bytes4",
          "name": "interfaceId",
          "type": "bytes4"
        }
      ],
      "name": "supportsInterface",
      "outputs": [
        {
          "internalType": "bool",
          "name": "",
          "type": "bool"
        }
      ],
      "stateMutability": "view",
      "type": "function"
    },
    {
      "inputs": [],
      "name": "transferProxy",
      "outputs": [
        {
          "internalType": "contract ITransferProxy",
          "name": "",
          "type": "address"
        }
      ],
      "stateMutability": "view",
      "type": "function"
    },
    {
      "inputs": [],
      "name": "buyerServiceFee",
      "outputs": [
        {
          "internalType": "uint8",
          "name": "",
          "type": "uint8"
        }
      ],
      "stateMutability": "view",
      "type": "function"
    },
    {
      "inputs": [],
      "name": "sellerServiceFee",
      "outputs": [
        {
          "internalType": "uint8",
          "name": "",
          "type": "uint8"
        }
      ],
      "stateMutability": "view",
      "type": "function"
    },
    {
      "inputs": [
        {
          "components": [
            {
              "internalType": "address",
              "name": "seller",
              "type": "address"
            },
            {
              "internalType": "address",
              "name": "buyer",
              "type": "address"
            },
            {
              "internalType": "address",
              "name": "erc20Address",
              "type": "address"
            },
            {
              "internalType": "address",
              "name": "nftAddress",
              "type": "address"
            },
            {
              "internalType": "enum Trade.BuyingAssetType",
              "name": "nftType",
              "type": "uint8"
            },
            {
              "internalType": "uint256",
              "name": "unitPrice",
              "type": "uint256"
            },
            {
              "internalType": "bool",
              "name": "skipRoyalty",
              "type": "bool"
            },
            {
              "internalType": "uint256",
              "name": "amount",
              "type": "uint256"
            },
            {
              "internalType": "uint256",
              "name": "tokenId",
              "type": "uint256"
            },
            {
              "internalType": "string",
              "name": "tokenURI",
              "type": "string"
            },
            {
              "internalType": "uint256",
              "name": "supply",
              "type": "uint256"
            },
            {
              "internalType": "uint96",
              "name": "royaltyFee",
              "type": "uint96"
            },
            {
              "internalType": "uint256",
              "name": "qty",
              "type": "uint256"
            }
          ],
          "internalType": "struct Trade.Order",
          "name": "order",
          "type": "tuple"
        }
      ],
      "name": "buyAsset",
      "outputs": [
        {
          "internalType": "bool",
          "name": "",
          "type": "bool"
        }
      ],
      "stateMutability": "nonpayable",
      "type": "function"
    },
    {
      "inputs": [
        {
          "components": [
            {
              "internalType": "address",
              "name": "seller",
              "type": "address"
            },
            {
              "internalType": "address",
              "name": "buyer",
              "type": "address"
            },
            {
              "internalType": "address",
              "name": "erc20Address",
              "type": "address"
            },
            {
              "internalType": "address",
              "name": "nftAddress",
              "type": "address"
            },
            {
              "internalType": "enum Trade.BuyingAssetType",
              "name": "nftType",
              "type": "uint8"
            },
            {
              "internalType": "uint256",
              "name": "unitPrice",
              "type": "uint256"
            },
            {
              "internalType": "bool",
              "name": "skipRoyalty",
              "type": "bool"
            },
            {
              "internalType": "uint256",
              "name": "amount",
              "type": "uint256"
            },
            {
              "internalType": "uint256",
              "name": "tokenId",
              "type": "uint256"
            },
            {
              "internalType": "string",
              "name": "tokenURI",
              "type": "string"
            },
            {
              "internalType": "uint256",
              "name": "supply",
              "type": "uint256"
            },
            {
              "internalType": "uint96",
              "name": "royaltyFee",
              "type": "uint96"
            },
            {
              "internalType": "uint256",
              "name": "qty",
              "type": "uint256"
            }
          ],
          "internalType": "struct Trade.Order",
          "name": "order",
          "type": "tuple"
        }
      ],
      "name": "executeBid",
      "outputs": [
        {
          "internalType": "bool",
          "name": "",
          "type": "bool"
        }
      ],
      "stateMutability": "nonpayable",
      "type": "function"
    },
    {
      "inputs": [
        {
          "components": [
            {
              "internalType": "address",
              "name": "seller",
              "type": "address"
            },
            {
              "internalType": "address",
              "name": "buyer",
              "type": "address"
            },
            {
              "internalType": "address",
              "name": "erc20Address",
              "type": "address"
            },
            {
              "internalType": "address",
              "name": "nftAddress",
              "type": "address"
            },
            {
              "internalType": "enum Trade.BuyingAssetType",
              "name": "nftType",
              "type": "uint8"
            },
            {
              "internalType": "uint256",
              "name": "unitPrice",
              "type": "uint256"
            },
            {
              "internalType": "bool",
              "name": "skipRoyalty",
              "type": "bool"
            },
            {
              "internalType": "uint256",
              "name": "amount",
              "type": "uint256"
            },
            {
              "internalType": "uint256",
              "name": "tokenId",
              "type": "uint256"
            },
            {
              "internalType": "string",
              "name": "tokenURI",
              "type": "string"
            },
            {
              "internalType": "uint256",
              "name": "supply",
              "type": "uint256"
            },
            {
              "internalType": "uint96",
              "name": "royaltyFee",
              "type": "uint96"
            },
            {
              "internalType": "uint256",
              "name": "qty",
              "type": "uint256"
            }
          ],
          "internalType": "struct Trade.Order",
          "name": "order",
          "type": "tuple"
        }
      ],
      "name": "getFees",
      "outputs": [
        {
          "components": [
            {
              "internalType": "uint256",
              "name": "platformFee",
              "type": "uint256"
            },
            {
              "internalType": "uint256",
              "name": "assetFee",
              "type": "uint256"
            },
            {
              "internalType": "uint256",
              "name": "royaltyFee",
              "type": "uint256"
            },
            {
              "internalType": "uint256",
              "name": "price",
              "type": "uint256"
            },
            {
              "internalType": "address",
              "name": "tokenCreator",
              "type": "address"
            }
          ],
          "internalType": "struct Trade.Fee",
          "name": "",
          "type": "tuple"
        }
      ],
      "stateMutability": "view",
      "type": "function"
    }
  ],
  "bytecode": "0x608060405234801561001057600080fd5b5060405161125f38038061125f83398101604081905261002f9161009e565b600180546001600160a01b03909216620100000262010000600160b01b031960ff9485166101000261ffff1990941694909516939093179190911792909216179055600280546001600160a01b031916331790556100f2565b805160ff8116811461009957600080fd5b919050565b6000806000606084860312156100b357600080fd5b6100bc84610088565b92506100ca60208501610088565b60408501519092506001600160a01b03811681146100e757600080fd5b809150509250925092565b61115e806101016000396000f3fe608060405234801561001057600080fd5b50600436106101005760003560e01c806375b238fc11610097578063a217fddf11610066578063a217fddf14610253578063d547741f1461025b578063e1ae09921461026e578063ef79066f1461028157600080fd5b806375b238fc146101fb5780638da5cb5b1461022257806391d14854146102355780639c66809d1461024857600080fd5b80632f2ff15d116100d35780632f2ff15d1461019c57806336568abe146101b157806360085da6146101c45780636e667db3146101e257600080fd5b806301ffc9a71461010557806317ce56e21461012d578063238ac93314610140578063248a9ca31461016b575b600080fd5b610118610113366004610dcf565b6102da565b60405190151581526020015b60405180910390f35b61011861013b366004610df9565b610311565b600354610153906001600160a01b031681565b6040516001600160a01b039091168152602001610124565b61018e610179366004610e35565b60009081526020819052604090206001015490565b604051908152602001610124565b6101af6101aa366004610e63565b6103fe565b005b6101af6101bf366004610e63565b610428565b600154610100900460ff165b60405160ff9091168152602001610124565b600154610153906201000090046001600160a01b031681565b61018e7fa49807205ce4d355092ef5a8a18f56e8913cf4a201fbe287825b095693c2177581565b600254610153906001600160a01b031681565b610118610243366004610e63565b6104a6565b60015460ff166101d0565b61018e600081565b6101af610269366004610e63565b6104cf565b61011861027c366004610df9565b6104f4565b61029461028f366004610df9565b61057d565b6040516101249190815181526020808301519082015260408083015190820152606080830151908201526080918201516001600160a01b03169181019190915260a00190565b60006001600160e01b03198216637965db0b60e01b148061030b57506301ffc9a760e01b6001600160e01b03198316145b92915050565b60008061031d8361057d565b905061033261018084013560a0850135610ea9565b816060015111156103805760405162461bcd60e51b815260206004820152601360248201527214185a59081a5b9d985b1a5908185b5bdd5b9d606a1b60448201526064015b60405180910390fd5b336103998483836103946020840184610ec8565b610781565b336101008501356103ad6020870187610ec8565b6001600160a01b03167fb10197cef009fd301a90b892d25451c22c3701eb18ee2df1250d31e514fff3948761018001356040516103ec91815260200190565b60405180910390a45060019392505050565b60008281526020819052604090206001015461041981610acb565b6104238383610ad8565b505050565b6001600160a01b03811633146104985760405162461bcd60e51b815260206004820152602f60248201527f416363657373436f6e74726f6c3a2063616e206f6e6c792072656e6f756e636560448201526e103937b632b9903337b91039b2b63360891b6064820152608401610377565b6104a28282610b5c565b5050565b6000918252602082815260408084206001600160a01b0393909316845291905290205460ff1690565b6000828152602081905260409020600101546104ea81610acb565b6104238383610b5c565b6000806105008361057d565b90503361051e84836105186040830160208401610ec8565b84610781565b61052e6040850160208601610ec8565b6001600160a01b0316846101000135336001600160a01b03167fec34853c156da04e4792f1c735112ae54e5ed52bac58db5014b26746f306a3628761018001356040516103ec91815260200190565b6105b86040518060a001604052806000815260200160008152602001600081526020016000815260200160006001600160a01b031681525090565b60015460009081908190819081906105d59060ff166103e8610ee5565b61ffff166105e960e08901356103e8610ea9565b6105f39190610f0b565b905060006106058260e08a0135610f2d565b6001549091506000906103e89061062490610100900460ff1685610ea9565b61062e9190610f0b565b905061063a8183610f44565b955061064c60e08a0160c08b01610f5c565b1580156106a35750600161066660a08b0160808c01610f94565b600181111561067757610677610f7e565b14806106a35750600061069060a08b0160808c01610f94565b60018111156106a1576106a1610f7e565b145b15610733576106b860808a0160608b01610ec8565b60405163152a902d60e11b81526101008b01356004820152602481018590526001600160a01b039190911690632a55205a906044016040805180830381865afa158015610709573d6000803e3d6000fd5b505050506040513d601f19601f8201168201806040525081019061072d9190610fb5565b90975094505b8061073e8685610f2d565b6107489190610f2d565b6040805160a081018252978852602088019190915286019490945250606084015250506001600160a01b03909116608082015292915050565b600161079360a0860160808701610f94565b60018111156107a4576107a4610f7e565b0361082a576001546201000090046001600160a01b031663f709b9066107d06080870160608801610ec8565b83858861010001356040518563ffffffff1660e01b81526004016107f79493929190610fe3565b600060405180830381600087803b15801561081157600080fd5b505af1158015610825573d6000803e3d6000fd5b505050505b600061083c60a0860160808701610f94565b600181111561084d5761084d610f7e565b03610907576001546201000090046001600160a01b0316639c1c2ee96108796080870160608801610ec8565b6040516001600160e01b031960e084901b1681526001600160a01b039182166004820152818516602482015290851660448201526101008701356064820152610180870135608482015260c060a4820152600060c482015260e401600060405180830381600087803b1580156108ee57600080fd5b505af1158015610902573d6000803e3d6000fd5b505050505b82511561099c576001546201000090046001600160a01b031663776062c36109356060870160408801610ec8565b60025486516040516001600160e01b031960e086901b168152610969939288926001600160a01b0390911691600401610fe3565b600060405180830381600087803b15801561098357600080fd5b505af1158015610997573d6000803e3d6000fd5b505050505b600083604001511180156109bd57506109bb60e0850160c08601610f5c565b155b15610a46576001546201000090046001600160a01b031663776062c36109e96060870160408801610ec8565b84866080015187604001516040518563ffffffff1660e01b8152600401610a139493929190610fe3565b600060405180830381600087803b158015610a2d57600080fd5b505af1158015610a41573d6000803e3d6000fd5b505050505b6001546201000090046001600160a01b031663776062c3610a6d6060870160408801610ec8565b848487602001516040518563ffffffff1660e01b8152600401610a939493929190610fe3565b600060405180830381600087803b158015610aad57600080fd5b505af1158015610ac1573d6000803e3d6000fd5b5050505050505050565b610ad58133610bc1565b50565b610ae282826104a6565b6104a2576000828152602081815260408083206001600160a01b03851684529091529020805460ff19166001179055610b183390565b6001600160a01b0316816001600160a01b0316837f2f8788117e7eff1d82e926ec794901d17c78024a50270940304540a733656f0d60405160405180910390a45050565b610b6682826104a6565b156104a2576000828152602081815260408083206001600160a01b0385168085529252808320805460ff1916905551339285917ff6391f5c32d9c69d2a47ea670b442974b53935d1edc7fd64eb21e047a839171b9190a45050565b610bcb82826104a6565b6104a257610bd881610c1a565b610be3836020610c2c565b604051602001610bf492919061103d565b60408051601f198184030181529082905262461bcd60e51b8252610377916004016110b2565b606061030b6001600160a01b03831660145b60606000610c3b836002610ea9565b610c46906002610f44565b67ffffffffffffffff811115610c5e57610c5e6110e5565b6040519080825280601f01601f191660200182016040528015610c88576020820181803683370190505b509050600360fc1b81600081518110610ca357610ca36110fb565b60200101906001600160f81b031916908160001a905350600f60fb1b81600181518110610cd257610cd26110fb565b60200101906001600160f81b031916908160001a9053506000610cf6846002610ea9565b610d01906001610f44565b90505b6001811115610d79576f181899199a1a9b1b9c1cb0b131b232b360811b85600f1660108110610d3557610d356110fb565b1a60f81b828281518110610d4b57610d4b6110fb565b60200101906001600160f81b031916908160001a90535060049490941c93610d7281611111565b9050610d04565b508315610dc85760405162461bcd60e51b815260206004820181905260248201527f537472696e67733a20686578206c656e67746820696e73756666696369656e746044820152606401610377565b9392505050565b600060208284031215610de157600080fd5b81356001600160e01b031981168114610dc857600080fd5b600060208284031215610e0b57600080fd5b813567ffffffffffffffff811115610e2257600080fd5b82016101a08185031215610dc857600080fd5b600060208284031215610e4757600080fd5b5035919050565b6001600160a01b0381168114610ad557600080fd5b60008060408385031215610e7657600080fd5b823591506020830135610e8881610e4e565b809150509250929050565b634e487b7160e01b600052601160045260246000fd5b6000816000190483118215151615610ec357610ec3610e93565b500290565b600060208284031215610eda57600080fd5b8135610dc881610e4e565b600061ffff808316818516808303821115610f0257610f02610e93565b01949350505050565b600082610f2857634e487b7160e01b600052601260045260246000fd5b500490565b600082821015610f3f57610f3f610e93565b500390565b60008219821115610f5757610f57610e93565b500190565b600060208284031215610f6e57600080fd5b81358015158114610dc857600080fd5b634e487b7160e01b600052602160045260246000fd5b600060208284031215610fa657600080fd5b813560028110610dc857600080fd5b60008060408385031215610fc857600080fd5b8251610fd381610e4e565b6020939093015192949293505050565b6001600160a01b039485168152928416602084015292166040820152606081019190915260800190565b60005b83811015611028578181015183820152602001611010565b83811115611037576000848401525b50505050565b7f416363657373436f6e74726f6c3a206163636f756e742000000000000000000081526000835161107581601785016020880161100d565b7001034b99036b4b9b9b4b733903937b6329607d1b60179184019182015283516110a681602884016020880161100d565b01602801949350505050565b60208152600082518060208401526110d181604085016020870161100d565b601f01601f19169190910160400192915050565b634e487b7160e01b600052604160045260246000fd5b634e487b7160e01b600052603260045260246000fd5b60008161112057611120610e93565b50600019019056fea26469706673582212205840be549b4e9d8d78bc1bffad2cbb1af738aeffc4e5d2356fc41e98150ea76b64736f6c634300080e0033",
  "immutableReferences": {},
  "source": "// SPDX-License-Identifier: UNLICENSED\r\npragma solidity 0.8.14;\r\n\r\nimport \"@openzeppelin/contracts/access/AccessControl.sol\";\r\nimport \"@openzeppelin/contracts/interfaces/IERC2981.sol\";\r\nimport \"./interface/ITransferProxy.sol\";\r\n\r\ncontract Trade is AccessControl {\r\n    enum BuyingAssetType {\r\n        ERC1155,\r\n        ERC721\r\n    }\r\n\r\n    event OwnershipTransferred(\r\n        address indexed previousOwner,\r\n        address indexed newOwner\r\n    );\r\n    event SellerFee(uint8 sellerFee);\r\n    event BuyerFee(uint8 buyerFee);\r\n    event BuyAsset(\r\n        address indexed assetOwner,\r\n        uint256 indexed tokenId,\r\n        uint256 quantity,\r\n        address indexed buyer\r\n    );\r\n    event ExecuteBid(\r\n        address indexed assetOwner,\r\n        uint256 indexed tokenId,\r\n        uint256 quantity,\r\n        address indexed buyer\r\n    );\r\n    // buyer platformFee\r\n    uint8 private buyerFeePermille;\r\n    //seller platformFee\r\n    uint8 private sellerFeePermille;\r\n    ITransferProxy public transferProxy;\r\n    //contract owner\r\n    address public owner;\r\n\r\n    address public signer;\r\n\r\n    mapping(uint256 => bool) private usedNonce;\r\n\r\n    // Create a new role identifier for the minter role\r\n    bytes32 public constant ADMIN_ROLE = keccak256(\"ADMIN_ROLE\");\r\n\r\n    /** Fee Struct\r\n        @param platformFee  uint256 (buyerFee + sellerFee) value which is transferred to current contract owner.\r\n        @param assetFee  uint256  assetvalue which is transferred to current seller of the NFT.\r\n        @param royaltyFee  uint256 value, transferred to Minter of the NFT.\r\n        @param price  uint256 value, the combination of buyerFee and assetValue.\r\n        @param tokenCreator address value, it's store the creator of NFT.\r\n     */\r\n    struct Fee {\r\n        uint256 platformFee;\r\n        uint256 assetFee;\r\n        uint256 royaltyFee;\r\n        uint256 price;\r\n        address tokenCreator;\r\n    }\r\n\r\n\r\n    /** Order Params\r\n        @param seller address of user,who's selling the NFT.\r\n        @param buyer address of user, who's buying the NFT.\r\n        @param erc20Address address of the token, which is used as payment token(WETH/WBNB/WMATIC...)\r\n        @param nftAddress address of NFT contract where the NFT token is created/Minted.\r\n        @param nftType an enum value, if the type is ERC721/ERC1155 the enum value is 0/1.\r\n        @param uintprice the Price Each NFT it's not including the buyerFee.\r\n        @param amout the price of NFT(assetFee + buyerFee).\r\n        @param tokenId \r\n        @param qty number of quantity to be transfer.\r\n     */\r\n    struct Order {\r\n        address seller;\r\n        address buyer;\r\n        address erc20Address;\r\n        address nftAddress;\r\n        BuyingAssetType nftType;\r\n        uint256 unitPrice;\r\n        bool skipRoyalty;\r\n        uint256 amount;\r\n        uint256 tokenId;\r\n        string tokenURI;\r\n        uint256 supply;\r\n        uint96 royaltyFee;\r\n        uint256 qty;\r\n    }\r\n\r\n    constructor(\r\n        uint8 _buyerFee,\r\n        uint8 _sellerFee,\r\n        ITransferProxy _transferProxy\r\n    ) {\r\n        buyerFeePermille = _buyerFee;\r\n        sellerFeePermille = _sellerFee;\r\n        transferProxy = _transferProxy;\r\n        owner = msg.sender;\r\n\r\n    }\r\n\r\n    /**\r\n        returns the buyerservice Fee in multiply of 1000.\r\n     */\r\n\r\n    function buyerServiceFee() external view virtual returns (uint8) {\r\n        return buyerFeePermille;\r\n    }\r\n\r\n    /**\r\n        returns the sellerservice Fee in multiply of 1000.\r\n     */\r\n\r\n    function sellerServiceFee() external view virtual returns (uint8) {\r\n        return sellerFeePermille;\r\n    }\r\n\r\n    /**\r\n        excuting the NFT order.\r\n        @param order ordervalues(seller, buyer,...).\r\n    */\r\n\r\n    function buyAsset(Order calldata order)\r\n        external\r\n        returns (bool)\r\n    {\r\n\r\n        Fee memory fee = getFees(\r\n            order\r\n        );\r\n        require(\r\n            (fee.price <= order.unitPrice * order.qty),\r\n            \"Paid invalid amount\"\r\n        );\r\n        address buyer = msg.sender;\r\n        tradeAsset(order, fee, buyer, order.seller);\r\n        emit BuyAsset(order.seller, order.tokenId, order.qty, msg.sender);\r\n        return true;\r\n    }\r\n\r\n    function executeBid(Order calldata order)\r\n        external\r\n        returns (bool)\r\n    {\r\n        Fee memory fee = getFees(\r\n            order\r\n        );\r\n        address seller = msg.sender;\r\n        tradeAsset(order, fee, order.buyer, seller);\r\n        emit ExecuteBid(msg.sender, order.tokenId, order.qty, order.buyer);\r\n        return true;\r\n    }\r\n\r\n\r\n\r\n    function getFees(\r\n        Order calldata order\r\n    ) public view returns (Fee memory) {\r\n        address tokenCreator;\r\n        uint256 platformFee;\r\n        uint256 royaltyFee;\r\n        uint256 assetFee;\r\n        uint256 price = (order.amount * 1000) / (1000 + buyerFeePermille);\r\n        uint256 buyerFee = order.amount - price;\r\n        uint256 sellerFee = (price * sellerFeePermille) / 1000;\r\n        platformFee = buyerFee + sellerFee;\r\n        if(!order.skipRoyalty &&((order.nftType == BuyingAssetType.ERC721) || (order.nftType == BuyingAssetType.ERC1155))) {\r\n            (tokenCreator, royaltyFee) = IERC2981(order.nftAddress)\r\n                    .royaltyInfo(order.tokenId, price); \r\n        }\r\n        assetFee = price - royaltyFee - sellerFee;\r\n        return Fee(platformFee, assetFee, royaltyFee, price, tokenCreator);\r\n    }\r\n\r\n    /** \r\n        transfers the NFTs and tokens...\r\n        @param order ordervalues(seller, buyer,...).\r\n        @param fee Feevalues(platformFee, assetFee,...).\r\n    */\r\n\r\n    function tradeAsset(\r\n        Order calldata order,\r\n        Fee memory fee,\r\n        address buyer,\r\n        address seller\r\n    ) internal virtual {\r\n        if (order.nftType == BuyingAssetType.ERC721) {\r\n            transferProxy.erc721safeTransferFrom(\r\n                IERC721(order.nftAddress),\r\n                seller,\r\n                buyer,\r\n                order.tokenId\r\n            );\r\n        }\r\n        if (order.nftType == BuyingAssetType.ERC1155) {\r\n            transferProxy.erc1155safeTransferFrom(\r\n                IERC1155(order.nftAddress),\r\n                seller,\r\n                buyer,\r\n                order.tokenId,\r\n                order.qty,\r\n                \"\"\r\n            );\r\n        }\r\n\r\n        if (fee.platformFee > 0) {\r\n            transferProxy.erc20safeTransferFrom(\r\n                IERC20(order.erc20Address),\r\n                buyer,\r\n                owner,\r\n                fee.platformFee\r\n            );\r\n        }\r\n        if (fee.royaltyFee > 0 && (!order.skipRoyalty)) {\r\n            transferProxy.erc20safeTransferFrom(\r\n                IERC20(order.erc20Address),\r\n                buyer,\r\n                fee.tokenCreator,\r\n                fee.royaltyFee\r\n            );\r\n        }\r\n        transferProxy.erc20safeTransferFrom(\r\n            IERC20(order.erc20Address),\r\n            buyer,\r\n            seller,\r\n            fee.assetFee\r\n        );\r\n    }\r\n}\r\n",
  "sourcePath": "C:\\Users\\Yash\\Desktop\\Temporary\\Github\\marketplace\\src\\contracts\\trade.sol",
  "compiler": {
    "name": "solc",
    "version": "0.8.14+commit.80d49f37.Emscripten.clang"
  },
  "schemaVersion": "3.4.13",
  "updatedAt": "2023-05-17T11:08:45.625Z",
  "devdoc": {
    "kind": "dev",
    "methods": {
      "buyAsset((address,address,address,address,uint8,uint256,bool,uint256,uint256,string,uint256,uint96,uint256))": {
        "params": {
          "order": "ordervalues(seller, buyer,...)."
        }
      },
      "getRoleAdmin(bytes32)": {
        "details": "Returns the admin role that controls `role`. See {grantRole} and {revokeRole}. To change a role's admin, use {_setRoleAdmin}."
      },
      "grantRole(bytes32,address)": {
        "details": "Grants `role` to `account`. If `account` had not been already granted `role`, emits a {RoleGranted} event. Requirements: - the caller must have ``role``'s admin role. May emit a {RoleGranted} event."
      },
      "hasRole(bytes32,address)": {
        "details": "Returns `true` if `account` has been granted `role`."
      },
      "renounceRole(bytes32,address)": {
        "details": "Revokes `role` from the calling account. Roles are often managed via {grantRole} and {revokeRole}: this function's purpose is to provide a mechanism for accounts to lose their privileges if they are compromised (such as when a trusted device is misplaced). If the calling account had been revoked `role`, emits a {RoleRevoked} event. Requirements: - the caller must be `account`. May emit a {RoleRevoked} event."
      },
      "revokeRole(bytes32,address)": {
        "details": "Revokes `role` from `account`. If `account` had been granted `role`, emits a {RoleRevoked} event. Requirements: - the caller must have ``role``'s admin role. May emit a {RoleRevoked} event."
      },
      "supportsInterface(bytes4)": {
        "details": "See {IERC165-supportsInterface}."
      }
    },
    "version": 1
  },
  "userdoc": {
    "kind": "user",
    "methods": {
      "buyAsset((address,address,address,address,uint8,uint256,bool,uint256,uint256,string,uint256,uint96,uint256))": {
        "notice": "excuting the NFT order."
      },
      "buyerServiceFee()": {
        "notice": "returns the buyerservice Fee in multiply of 1000."
      },
      "sellerServiceFee()": {
        "notice": "returns the sellerservice Fee in multiply of 1000."
      }
    },
    "version": 1
  }
}