{
  "contractName": "TransferProxy",
  "abi": [
    {
      "inputs": [],
      "stateMutability": "nonpayable",
      "type": "constructor"
    },
    {
      "anonymous": false,
      "inputs": [
        {
          "indexed": true,
          "internalType": "address",
          "name": "previousOwner",
          "type": "address"
        },
        {
          "indexed": true,
          "internalType": "address",
          "name": "newOwner",
          "type": "address"
        }
      ],
      "name": "OwnershipTransferred",
      "type": "event"
    },
    {
      "anonymous": false,
      "inputs": [
        {
          "indexed": true,
          "internalType": "bytes32",
          "name": "role",
          "type": "bytes32"
        },
        {
          "indexed": true,
          "internalType": "bytes32",
          "name": "previousAdminRole",
          "type": "bytes32"
        },
        {
          "indexed": true,
          "internalType": "bytes32",
          "name": "newAdminRole",
          "type": "bytes32"
        }
      ],
      "name": "RoleAdminChanged",
      "type": "event"
    },
    {
      "anonymous": false,
      "inputs": [
        {
          "indexed": true,
          "internalType": "bytes32",
          "name": "role",
          "type": "bytes32"
        },
        {
          "indexed": true,
          "internalType": "address",
          "name": "account",
          "type": "address"
        },
        {
          "indexed": true,
          "internalType": "address",
          "name": "sender",
          "type": "address"
        }
      ],
      "name": "RoleGranted",
      "type": "event"
    },
    {
      "anonymous": false,
      "inputs": [
        {
          "indexed": true,
          "internalType": "bytes32",
          "name": "role",
          "type": "bytes32"
        },
        {
          "indexed": true,
          "internalType": "address",
          "name": "account",
          "type": "address"
        },
        {
          "indexed": true,
          "internalType": "address",
          "name": "sender",
          "type": "address"
        }
      ],
      "name": "RoleRevoked",
      "type": "event"
    },
    {
      "anonymous": false,
      "inputs": [
        {
          "indexed": true,
          "internalType": "address",
          "name": "from",
          "type": "address"
        },
        {
          "indexed": true,
          "internalType": "address",
          "name": "to",
          "type": "address"
        }
      ],
      "name": "operatorChanged",
      "type": "event"
    },
    {
      "inputs": [],
      "name": "ADMIN_ROLE",
      "outputs": [
        {
          "internalType": "bytes32",
          "name": "",
          "type": "bytes32"
        }
      ],
      "stateMutability": "view",
      "type": "function"
    },
    {
      "inputs": [],
      "name": "DEFAULT_ADMIN_ROLE",
      "outputs": [
        {
          "internalType": "bytes32",
          "name": "",
          "type": "bytes32"
        }
      ],
      "stateMutability": "view",
      "type": "function"
    },
    {
      "inputs": [],
      "name": "OPERATOR_ROLE",
      "outputs": [
        {
          "internalType": "bytes32",
          "name": "",
          "type": "bytes32"
        }
      ],
      "stateMutability": "view",
      "type": "function"
    },
    {
      "inputs": [
        {
          "internalType": "bytes32",
          "name": "role",
          "type": "bytes32"
        }
      ],
      "name": "getRoleAdmin",
      "outputs": [
        {
          "internalType": "bytes32",
          "name": "",
          "type": "bytes32"
        }
      ],
      "stateMutability": "view",
      "type": "function"
    },
    {
      "inputs": [
        {
          "internalType": "bytes32",
          "name": "role",
          "type": "bytes32"
        },
        {
          "internalType": "address",
          "name": "account",
          "type": "address"
        }
      ],
      "name": "grantRole",
      "outputs": [],
      "stateMutability": "nonpayable",
      "type": "function"
    },
    {
      "inputs": [
        {
          "internalType": "bytes32",
          "name": "role",
          "type": "bytes32"
        },
        {
          "internalType": "address",
          "name": "account",
          "type": "address"
        }
      ],
      "name": "hasRole",
      "outputs": [
        {
          "internalType": "bool",
          "name": "",
          "type": "bool"
        }
      ],
      "stateMutability": "view",
      "type": "function"
    },
    {
      "inputs": [],
      "name": "operator",
      "outputs": [
        {
          "internalType": "address",
          "name": "",
          "type": "address"
        }
      ],
      "stateMutability": "view",
      "type": "function"
    },
    {
      "inputs": [],
      "name": "owner",
      "outputs": [
        {
          "internalType": "address",
          "name": "",
          "type": "address"
        }
      ],
      "stateMutability": "view",
      "type": "function"
    },
    {
      "inputs": [
        {
          "internalType": "bytes32",
          "name": "role",
          "type": "bytes32"
        },
        {
          "internalType": "address",
          "name": "account",
          "type": "address"
        }
      ],
      "name": "renounceRole",
      "outputs": [],
      "stateMutability": "nonpayable",
      "type": "function"
    },
    {
      "inputs": [
        {
          "internalType": "bytes32",
          "name": "role",
          "type": "bytes32"
        },
        {
          "internalType": "address",
          "name": "account",
          "type": "address"
        }
      ],
      "name": "revokeRole",
      "outputs": [],
      "stateMutability": "nonpayable",
      "type": "function"
    },
    {
      "inputs": [
        {
          "internalType": "bytes4",
          "name": "interfaceId",
          "type": "bytes4"
        }
      ],
      "name": "supportsInterface",
      "outputs": [
        {
          "internalType": "bool",
          "name": "",
          "type": "bool"
        }
      ],
      "stateMutability": "view",
      "type": "function"
    },
    {
      "inputs": [
        {
          "internalType": "address",
          "name": "_operator",
          "type": "address"
        }
      ],
      "name": "changeOperator",
      "outputs": [
        {
          "internalType": "bool",
          "name": "",
          "type": "bool"
        }
      ],
      "stateMutability": "nonpayable",
      "type": "function"
    },
    {
      "inputs": [
        {
          "internalType": "address",
          "name": "newOwner",
          "type": "address"
        }
      ],
      "name": "transferOwnership",
      "outputs": [
        {
          "internalType": "bool",
          "name": "",
          "type": "bool"
        }
      ],
      "stateMutability": "nonpayable",
      "type": "function"
    },
    {
      "inputs": [
        {
          "internalType": "contract IERC721",
          "name": "token",
          "type": "address"
        },
        {
          "internalType": "address",
          "name": "from",
          "type": "address"
        },
        {
          "internalType": "address",
          "name": "to",
          "type": "address"
        },
        {
          "internalType": "uint256",
          "name": "tokenId",
          "type": "uint256"
        }
      ],
      "name": "erc721safeTransferFrom",
      "outputs": [],
      "stateMutability": "nonpayable",
      "type": "function"
    },
    {
      "inputs": [
        {
          "internalType": "contract IERC1155",
          "name": "token",
          "type": "address"
        },
        {
          "internalType": "address",
          "name": "from",
          "type": "address"
        },
        {
          "internalType": "address",
          "name": "to",
          "type": "address"
        },
        {
          "internalType": "uint256",
          "name": "tokenId",
          "type": "uint256"
        },
        {
          "internalType": "uint256",
          "name": "value",
          "type": "uint256"
        },
        {
          "internalType": "bytes",
          "name": "data",
          "type": "bytes"
        }
      ],
      "name": "erc1155safeTransferFrom",
      "outputs": [],
      "stateMutability": "nonpayable",
      "type": "function"
    },
    {
      "inputs": [
        {
          "internalType": "contract ILazyMint",
          "name": "token",
          "type": "address"
        },
        {
          "internalType": "address",
          "name": "from",
          "type": "address"
        },
        {
          "internalType": "address",
          "name": "to",
          "type": "address"
        },
        {
          "internalType": "string",
          "name": "_tokenURI",
          "type": "string"
        },
        {
          "internalType": "uint96",
          "name": "_royaltyFee",
          "type": "uint96"
        },
        {
          "internalType": "uint256",
          "name": "supply",
          "type": "uint256"
        },
        {
          "internalType": "uint256",
          "name": "qty",
          "type": "uint256"
        }
      ],
      "name": "mintAndSafe1155Transfer",
      "outputs": [],
      "stateMutability": "nonpayable",
      "type": "function"
    },
    {
      "inputs": [
        {
          "internalType": "contract ILazyMint",
          "name": "token",
          "type": "address"
        },
        {
          "internalType": "address",
          "name": "from",
          "type": "address"
        },
        {
          "internalType": "address",
          "name": "to",
          "type": "address"
        },
        {
          "internalType": "string",
          "name": "_tokenURI",
          "type": "string"
        },
        {
          "internalType": "uint96",
          "name": "_royaltyFee",
          "type": "uint96"
        }
      ],
      "name": "mintAndSafe721Transfer",
      "outputs": [],
      "stateMutability": "nonpayable",
      "type": "function"
    },
    {
      "inputs": [
        {
          "internalType": "contract IERC20",
          "name": "token",
          "type": "address"
        },
        {
          "internalType": "address",
          "name": "from",
          "type": "address"
        },
        {
          "internalType": "address",
          "name": "to",
          "type": "address"
        },
        {
          "internalType": "uint256",
          "name": "value",
          "type": "uint256"
        }
      ],
      "name": "erc20safeTransferFrom",
      "outputs": [],
      "stateMutability": "nonpayable",
      "type": "function"
    }
  ],
  "bytecode": "0x60806040523480156200001157600080fd5b5033600160006101000a81548173ffffffffffffffffffffffffffffffffffffffff021916908373ffffffffffffffffffffffffffffffffffffffff160217905550620000857fa49807205ce4d355092ef5a8a18f56e8913cf4a201fbe287825b095693c2177533620000df60201b60201c565b620000d97f97667070c54ef182b0f5858b034beac1b6f3089aa2d3188bb1e8929f4fa9b929600260009054906101000a900473ffffffffffffffffffffffffffffffffffffffff16620000df60201b60201c565b62000258565b620000f18282620000f560201b60201c565b5050565b620001078282620001e660201b60201c565b620001e257600160008084815260200190815260200160002060000160008373ffffffffffffffffffffffffffffffffffffffff1673ffffffffffffffffffffffffffffffffffffffff16815260200190815260200160002060006101000a81548160ff021916908315150217905550620001876200025060201b60201c565b73ffffffffffffffffffffffffffffffffffffffff168173ffffffffffffffffffffffffffffffffffffffff16837f2f8788117e7eff1d82e926ec794901d17c78024a50270940304540a733656f0d60405160405180910390a45b5050565b600080600084815260200190815260200160002060000160008373ffffffffffffffffffffffffffffffffffffffff1673ffffffffffffffffffffffffffffffffffffffff16815260200190815260200160002060009054906101000a900460ff16905092915050565b600033905090565b6122cf80620002686000396000f3fe608060405234801561001057600080fd5b50600436106101165760003560e01c80638da5cb5b116100a2578063a217fddf11610071578063a217fddf146102dd578063d547741f146102fb578063f2fde38b14610317578063f5b541a614610347578063f709b9061461036557610116565b80638da5cb5b1461025757806391d148541461027557806395435360146102a55780639c1c2ee9146102c157610116565b806336568abe116100e957806336568abe146101c7578063412972ca146101e3578063570ca735146101ff57806375b238fc1461021d578063776062c31461023b57610116565b806301ffc9a71461011b57806306394c9b1461014b578063248a9ca31461017b5780632f2ff15d146101ab575b600080fd5b6101356004803603810190610130919061130f565b610381565b6040516101429190611357565b60405180910390f35b610165600480360381019061016091906113d0565b6103fb565b6040516101729190611357565b60405180910390f35b61019560048036038101906101909190611433565b6105f6565b6040516101a2919061146f565b60405180910390f35b6101c560048036038101906101c0919061148a565b610615565b005b6101e160048036038101906101dc919061148a565b610636565b005b6101fd60048036038101906101f891906116c8565b6106b9565b005b610207610774565b6040516102149190611795565b60405180910390f35b61022561079a565b604051610232919061146f565b60405180910390f35b610255600480360381019061025091906117ee565b6107be565b005b61025f6108ae565b60405161026c9190611795565b60405180910390f35b61028f600480360381019061028a919061148a565b6108d4565b60405161029c9190611357565b60405180910390f35b6102bf60048036038101906102ba9190611855565b61093e565b005b6102db60048036038101906102d6919061198a565b6109f3565b005b6102e5610a9c565b6040516102f2919061146f565b60405180910390f35b6103156004803603810190610310919061148a565b610aa3565b005b610331600480360381019061032c91906113d0565b610ac4565b60405161033e9190611357565b60405180910390f35b61034f610c9c565b60405161035c919061146f565b60405180910390f35b61037f600480360381019061037a9190611a77565b610cc0565b005b60007f7965db0b000000000000000000000000000000000000000000000000000000007bffffffffffffffffffffffffffffffffffffffffffffffffffffffff1916827bffffffffffffffffffffffffffffffffffffffffffffffffffffffff191614806103f457506103f382610d60565b5b9050919050565b60007fa49807205ce4d355092ef5a8a18f56e8913cf4a201fbe287825b095693c2177561042781610dca565b600073ffffffffffffffffffffffffffffffffffffffff168373ffffffffffffffffffffffffffffffffffffffff1603610496576040517f08c379a000000000000000000000000000000000000000000000000000000000815260040161048d90611b61565b60405180910390fd5b6104e27f97667070c54ef182b0f5858b034beac1b6f3089aa2d3188bb1e8929f4fa9b929600260009054906101000a900473ffffffffffffffffffffffffffffffffffffffff16610dde565b82600260006101000a81548173ffffffffffffffffffffffffffffffffffffffff021916908373ffffffffffffffffffffffffffffffffffffffff16021790555061056f7f97667070c54ef182b0f5858b034beac1b6f3089aa2d3188bb1e8929f4fa9b929600260009054906101000a900473ffffffffffffffffffffffffffffffffffffffff16610ebf565b600260009054906101000a900473ffffffffffffffffffffffffffffffffffffffff1673ffffffffffffffffffffffffffffffffffffffff16600073ffffffffffffffffffffffffffffffffffffffff167f1a377613c0f1788c756a416e15f930cf9e84c3a5e808fa2f00b5a18a91a7b86460405160405180910390a36001915050919050565b6000806000838152602001908152602001600020600101549050919050565b61061e826105f6565b61062781610dca565b6106318383610ecd565b505050565b61063e610fad565b73ffffffffffffffffffffffffffffffffffffffff168173ffffffffffffffffffffffffffffffffffffffff16146106ab576040517f08c379a00000000000000000000000000000000000000000000000000000000081526004016106a290611bf3565b60405180910390fd5b6106b58282610dde565b5050565b7f97667070c54ef182b0f5858b034beac1b6f3089aa2d3188bb1e8929f4fa9b9296106e381610dca565b8773ffffffffffffffffffffffffffffffffffffffff16636b7eb8ec8888888888886040518763ffffffff1660e01b815260040161072696959493929190611ca8565b6020604051808303816000875af1158015610745573d6000803e3d6000fd5b505050506040513d601f19601f820116820180604052508101906107699190611d25565b505050505050505050565b600260009054906101000a900473ffffffffffffffffffffffffffffffffffffffff1681565b7fa49807205ce4d355092ef5a8a18f56e8913cf4a201fbe287825b095693c2177581565b7f97667070c54ef182b0f5858b034beac1b6f3089aa2d3188bb1e8929f4fa9b9296107e881610dca565b8473ffffffffffffffffffffffffffffffffffffffff166323b872dd8585856040518463ffffffff1660e01b815260040161082593929190611d52565b6020604051808303816000875af1158015610844573d6000803e3d6000fd5b505050506040513d601f19601f820116820180604052508101906108689190611db5565b6108a7576040517f08c379a000000000000000000000000000000000000000000000000000000000815260040161089e90611e2e565b60405180910390fd5b5050505050565b600160009054906101000a900473ffffffffffffffffffffffffffffffffffffffff1681565b600080600084815260200190815260200160002060000160008373ffffffffffffffffffffffffffffffffffffffff1673ffffffffffffffffffffffffffffffffffffffff16815260200190815260200160002060009054906101000a900460ff16905092915050565b7f97667070c54ef182b0f5858b034beac1b6f3089aa2d3188bb1e8929f4fa9b92961096881610dca565b8573ffffffffffffffffffffffffffffffffffffffff1663394f54bf868686866040518563ffffffff1660e01b81526004016109a79493929190611e4e565b6020604051808303816000875af11580156109c6573d6000803e3d6000fd5b505050506040513d601f19601f820116820180604052508101906109ea9190611d25565b50505050505050565b7f97667070c54ef182b0f5858b034beac1b6f3089aa2d3188bb1e8929f4fa9b929610a1d81610dca565b8773ffffffffffffffffffffffffffffffffffffffff1663f242432a8888888888886040518763ffffffff1660e01b8152600401610a6096959493929190611ed8565b600060405180830381600087803b158015610a7a57600080fd5b505af1158015610a8e573d6000803e3d6000fd5b505050505050505050505050565b6000801b81565b610aac826105f6565b610ab581610dca565b610abf8383610dde565b505050565b60007fa49807205ce4d355092ef5a8a18f56e8913cf4a201fbe287825b095693c21775610af081610dca565b600073ffffffffffffffffffffffffffffffffffffffff168373ffffffffffffffffffffffffffffffffffffffff1603610b5f576040517f08c379a0000000000000000000000000000000000000000000000000000000008152600401610b5690611fa6565b60405180910390fd5b610bab7fa49807205ce4d355092ef5a8a18f56e8913cf4a201fbe287825b095693c21775600160009054906101000a900473ffffffffffffffffffffffffffffffffffffffff16610dde565b8273ffffffffffffffffffffffffffffffffffffffff16600160009054906101000a900473ffffffffffffffffffffffffffffffffffffffff1673ffffffffffffffffffffffffffffffffffffffff167f8be0079c531659141344cd1fd0a4f28419497f9722a3daafe3b4186f6b6457e060405160405180910390a382600160006101000a81548173ffffffffffffffffffffffffffffffffffffffff021916908373ffffffffffffffffffffffffffffffffffffffff160217905550610c927fa49807205ce4d355092ef5a8a18f56e8913cf4a201fbe287825b095693c2177584610ebf565b6001915050919050565b7f97667070c54ef182b0f5858b034beac1b6f3089aa2d3188bb1e8929f4fa9b92981565b7f97667070c54ef182b0f5858b034beac1b6f3089aa2d3188bb1e8929f4fa9b929610cea81610dca565b8473ffffffffffffffffffffffffffffffffffffffff166342842e0e8585856040518463ffffffff1660e01b8152600401610d2793929190611d52565b600060405180830381600087803b158015610d4157600080fd5b505af1158015610d55573d6000803e3d6000fd5b505050505050505050565b60007f01ffc9a7000000000000000000000000000000000000000000000000000000007bffffffffffffffffffffffffffffffffffffffffffffffffffffffff1916827bffffffffffffffffffffffffffffffffffffffffffffffffffffffff1916149050919050565b610ddb81610dd6610fad565b610fb5565b50565b610de882826108d4565b15610ebb57600080600084815260200190815260200160002060000160008373ffffffffffffffffffffffffffffffffffffffff1673ffffffffffffffffffffffffffffffffffffffff16815260200190815260200160002060006101000a81548160ff021916908315150217905550610e60610fad565b73ffffffffffffffffffffffffffffffffffffffff168173ffffffffffffffffffffffffffffffffffffffff16837ff6391f5c32d9c69d2a47ea670b442974b53935d1edc7fd64eb21e047a839171b60405160405180910390a45b5050565b610ec98282610ecd565b5050565b610ed782826108d4565b610fa957600160008084815260200190815260200160002060000160008373ffffffffffffffffffffffffffffffffffffffff1673ffffffffffffffffffffffffffffffffffffffff16815260200190815260200160002060006101000a81548160ff021916908315150217905550610f4e610fad565b73ffffffffffffffffffffffffffffffffffffffff168173ffffffffffffffffffffffffffffffffffffffff16837f2f8788117e7eff1d82e926ec794901d17c78024a50270940304540a733656f0d60405160405180910390a45b5050565b600033905090565b610fbf82826108d4565b61103657610fcc8161103a565b610fda8360001c6020611067565b604051602001610feb92919061209a565b6040516020818303038152906040526040517f08c379a000000000000000000000000000000000000000000000000000000000815260040161102d91906120d4565b60405180910390fd5b5050565b60606110608273ffffffffffffffffffffffffffffffffffffffff16601460ff16611067565b9050919050565b60606000600283600261107a9190612125565b611084919061217f565b67ffffffffffffffff81111561109d5761109c611523565b5b6040519080825280601f01601f1916602001820160405280156110cf5781602001600182028036833780820191505090505b5090507f300000000000000000000000000000000000000000000000000000000000000081600081518110611107576111066121d5565b5b60200101907effffffffffffffffffffffffffffffffffffffffffffffffffffffffffffff1916908160001a9053507f78000000000000000000000000000000000000000000000000000000000000008160018151811061116b5761116a6121d5565b5b60200101907effffffffffffffffffffffffffffffffffffffffffffffffffffffffffffff1916908160001a905350600060018460026111ab9190612125565b6111b5919061217f565b90505b6001811115611255577f3031323334353637383961626364656600000000000000000000000000000000600f8616601081106111f7576111f66121d5565b5b1a60f81b82828151811061120e5761120d6121d5565b5b60200101907effffffffffffffffffffffffffffffffffffffffffffffffffffffffffffff1916908160001a905350600485901c94508061124e90612204565b90506111b8565b5060008414611299576040517f08c379a000000000000000000000000000000000000000000000000000000000815260040161129090612279565b60405180910390fd5b8091505092915050565b6000604051905090565b600080fd5b600080fd5b60007fffffffff0000000000000000000000000000000000000000000000000000000082169050919050565b6112ec816112b7565b81146112f757600080fd5b50565b600081359050611309816112e3565b92915050565b600060208284031215611325576113246112ad565b5b6000611333848285016112fa565b91505092915050565b60008115159050919050565b6113518161133c565b82525050565b600060208201905061136c6000830184611348565b92915050565b600073ffffffffffffffffffffffffffffffffffffffff82169050919050565b600061139d82611372565b9050919050565b6113ad81611392565b81146113b857600080fd5b50565b6000813590506113ca816113a4565b92915050565b6000602082840312156113e6576113e56112ad565b5b60006113f4848285016113bb565b91505092915050565b6000819050919050565b611410816113fd565b811461141b57600080fd5b50565b60008135905061142d81611407565b92915050565b600060208284031215611449576114486112ad565b5b60006114578482850161141e565b91505092915050565b611469816113fd565b82525050565b60006020820190506114846000830184611460565b92915050565b600080604083850312156114a1576114a06112ad565b5b60006114af8582860161141e565b92505060206114c0858286016113bb565b9150509250929050565b60006114d582611392565b9050919050565b6114e5816114ca565b81146114f057600080fd5b50565b600081359050611502816114dc565b92915050565b600080fd5b600080fd5b6000601f19601f8301169050919050565b7f4e487b7100000000000000000000000000000000000000000000000000000000600052604160045260246000fd5b61155b82611512565b810181811067ffffffffffffffff8211171561157a57611579611523565b5b80604052505050565b600061158d6112a3565b90506115998282611552565b919050565b600067ffffffffffffffff8211156115b9576115b8611523565b5b6115c282611512565b9050602081019050919050565b82818337600083830152505050565b60006115f16115ec8461159e565b611583565b90508281526020810184848401111561160d5761160c61150d565b5b6116188482856115cf565b509392505050565b600082601f83011261163557611634611508565b5b81356116458482602086016115de565b91505092915050565b60006bffffffffffffffffffffffff82169050919050565b61166f8161164e565b811461167a57600080fd5b50565b60008135905061168c81611666565b92915050565b6000819050919050565b6116a581611692565b81146116b057600080fd5b50565b6000813590506116c28161169c565b92915050565b600080600080600080600060e0888a0312156116e7576116e66112ad565b5b60006116f58a828b016114f3565b97505060206117068a828b016113bb565b96505060406117178a828b016113bb565b955050606088013567ffffffffffffffff811115611738576117376112b2565b5b6117448a828b01611620565b94505060806117558a828b0161167d565b93505060a06117668a828b016116b3565b92505060c06117778a828b016116b3565b91505092959891949750929550565b61178f81611392565b82525050565b60006020820190506117aa6000830184611786565b92915050565b60006117bb82611392565b9050919050565b6117cb816117b0565b81146117d657600080fd5b50565b6000813590506117e8816117c2565b92915050565b60008060008060808587031215611808576118076112ad565b5b6000611816878288016117d9565b9450506020611827878288016113bb565b9350506040611838878288016113bb565b9250506060611849878288016116b3565b91505092959194509250565b600080600080600060a08688031215611871576118706112ad565b5b600061187f888289016114f3565b9550506020611890888289016113bb565b94505060406118a1888289016113bb565b935050606086013567ffffffffffffffff8111156118c2576118c16112b2565b5b6118ce88828901611620565b92505060806118df8882890161167d565b9150509295509295909350565b60006118f782611392565b9050919050565b611907816118ec565b811461191257600080fd5b50565b600081359050611924816118fe565b92915050565b600080fd5b600080fd5b60008083601f84011261194a57611949611508565b5b8235905067ffffffffffffffff8111156119675761196661192a565b5b6020830191508360018202830111156119835761198261192f565b5b9250929050565b600080600080600080600060c0888a0312156119a9576119a86112ad565b5b60006119b78a828b01611915565b97505060206119c88a828b016113bb565b96505060406119d98a828b016113bb565b95505060606119ea8a828b016116b3565b94505060806119fb8a828b016116b3565b93505060a088013567ffffffffffffffff811115611a1c57611a1b6112b2565b5b611a288a828b01611934565b925092505092959891949750929550565b6000611a4482611392565b9050919050565b611a5481611a39565b8114611a5f57600080fd5b50565b600081359050611a7181611a4b565b92915050565b60008060008060808587031215611a9157611a906112ad565b5b6000611a9f87828801611a62565b9450506020611ab0878288016113bb565b9350506040611ac1878288016113bb565b9250506060611ad2878288016116b3565b91505092959194509250565b600082825260208201905092915050565b7f4f70657261746f723a206e6577206f70657261746f7220697320746865207a6560008201527f726f206164647265737300000000000000000000000000000000000000000000602082015250565b6000611b4b602a83611ade565b9150611b5682611aef565b604082019050919050565b60006020820190508181036000830152611b7a81611b3e565b9050919050565b7f416363657373436f6e74726f6c3a2063616e206f6e6c792072656e6f756e636560008201527f20726f6c657320666f722073656c660000000000000000000000000000000000602082015250565b6000611bdd602f83611ade565b9150611be882611b81565b604082019050919050565b60006020820190508181036000830152611c0c81611bd0565b9050919050565b600081519050919050565b60005b83811015611c3c578082015181840152602081019050611c21565b83811115611c4b576000848401525b50505050565b6000611c5c82611c13565b611c668185611ade565b9350611c76818560208601611c1e565b611c7f81611512565b840191505092915050565b611c938161164e565b82525050565b611ca281611692565b82525050565b600060c082019050611cbd6000830189611786565b611cca6020830188611786565b8181036040830152611cdc8187611c51565b9050611ceb6060830186611c8a565b611cf86080830185611c99565b611d0560a0830184611c99565b979650505050505050565b600081519050611d1f8161169c565b92915050565b600060208284031215611d3b57611d3a6112ad565b5b6000611d4984828501611d10565b91505092915050565b6000606082019050611d676000830186611786565b611d746020830185611786565b611d816040830184611c99565b949350505050565b611d928161133c565b8114611d9d57600080fd5b50565b600081519050611daf81611d89565b92915050565b600060208284031215611dcb57611dca6112ad565b5b6000611dd984828501611da0565b91505092915050565b7f6661696c757265207768696c65207472616e7366657272696e67000000000000600082015250565b6000611e18601a83611ade565b9150611e2382611de2565b602082019050919050565b60006020820190508181036000830152611e4781611e0b565b9050919050565b6000608082019050611e636000830187611786565b611e706020830186611786565b8181036040830152611e828185611c51565b9050611e916060830184611c8a565b95945050505050565b600082825260208201905092915050565b6000611eb78385611e9a565b9350611ec48385846115cf565b611ecd83611512565b840190509392505050565b600060a082019050611eed6000830189611786565b611efa6020830188611786565b611f076040830187611c99565b611f146060830186611c99565b8181036080830152611f27818486611eab565b9050979650505050505050565b7f4f776e61626c653a206e6577206f776e657220697320746865207a65726f206160008201527f6464726573730000000000000000000000000000000000000000000000000000602082015250565b6000611f90602683611ade565b9150611f9b82611f34565b604082019050919050565b60006020820190508181036000830152611fbf81611f83565b9050919050565b600081905092915050565b7f416363657373436f6e74726f6c3a206163636f756e7420000000000000000000600082015250565b6000612007601783611fc6565b915061201282611fd1565b601782019050919050565b600061202882611c13565b6120328185611fc6565b9350612042818560208601611c1e565b80840191505092915050565b7f206973206d697373696e6720726f6c6520000000000000000000000000000000600082015250565b6000612084601183611fc6565b915061208f8261204e565b601182019050919050565b60006120a582611ffa565b91506120b1828561201d565b91506120bc82612077565b91506120c8828461201d565b91508190509392505050565b600060208201905081810360008301526120ee8184611c51565b905092915050565b7f4e487b7100000000000000000000000000000000000000000000000000000000600052601160045260246000fd5b600061213082611692565b915061213b83611692565b9250817fffffffffffffffffffffffffffffffffffffffffffffffffffffffffffffffff0483118215151615612174576121736120f6565b5b828202905092915050565b600061218a82611692565b915061219583611692565b9250827fffffffffffffffffffffffffffffffffffffffffffffffffffffffffffffffff038211156121ca576121c96120f6565b5b828201905092915050565b7f4e487b7100000000000000000000000000000000000000000000000000000000600052603260045260246000fd5b600061220f82611692565b915060008203612222576122216120f6565b5b600182039050919050565b7f537472696e67733a20686578206c656e67746820696e73756666696369656e74600082015250565b6000612263602083611ade565b915061226e8261222d565b602082019050919050565b6000602082019050818103600083015261229281612256565b905091905056fea2646970667358221220ed58da458db4a8faee925d70f088f051065c85c697a50d6cd1b2edc80255ab1d64736f6c634300080e0033",
  "immutableReferences": {},
  "source": "// SPDX-License-Identifier: UNLICENSED\r\npragma solidity 0.8.14;\r\n\r\nimport \"@openzeppelin/contracts/access/AccessControl.sol\";\r\nimport \"./interface/ITransferProxy.sol\";\r\n\r\ncontract TransferProxy is AccessControl, ITransferProxy {\r\n    event operatorChanged(address indexed from, address indexed to);\r\n    event OwnershipTransferred(\r\n        address indexed previousOwner,\r\n        address indexed newOwner\r\n    );\r\n\r\n    address public owner;\r\n    address public operator;\r\n    // Create a new role identifier for the minter role\r\n    bytes32 public constant ADMIN_ROLE = keccak256(\"ADMIN_ROLE\");\r\n    // Create a new role identifier for the minter role\r\n    bytes32 public constant OPERATOR_ROLE = keccak256(\"OPERATOR_ROLE\");\r\n\r\n    constructor() {\r\n        owner = msg.sender;\r\n        _setupRole(ADMIN_ROLE, msg.sender);\r\n        _setupRole(OPERATOR_ROLE, operator);\r\n    }\r\n\r\n    function changeOperator(address _operator)\r\n        external\r\n        onlyRole(ADMIN_ROLE)\r\n        returns (bool)\r\n    {\r\n        require(\r\n            _operator != address(0),\r\n            \"Operator: new operator is the zero address\"\r\n        );\r\n        _revokeRole(OPERATOR_ROLE, operator);\r\n        operator = _operator;\r\n        _setupRole(OPERATOR_ROLE, operator);\r\n        emit operatorChanged(address(0), operator);\r\n        return true;\r\n    }\r\n\r\n    /** change the Ownership from current owner to newOwner address\r\n        @param newOwner : newOwner address */\r\n\r\n    function transferOwnership(address newOwner)\r\n        external\r\n        onlyRole(ADMIN_ROLE)\r\n        returns (bool)\r\n    {\r\n        require(\r\n            newOwner != address(0),\r\n            \"Ownable: new owner is the zero address\"\r\n        );\r\n        _revokeRole(ADMIN_ROLE, owner);\r\n        emit OwnershipTransferred(owner, newOwner);\r\n        owner = newOwner;\r\n        _setupRole(ADMIN_ROLE, newOwner);\r\n        return true;\r\n    }\r\n\r\n    function erc721safeTransferFrom(\r\n        IERC721 token,\r\n        address from,\r\n        address to,\r\n        uint256 tokenId\r\n    ) external override onlyRole(OPERATOR_ROLE) {\r\n        token.safeTransferFrom(from, to, tokenId);\r\n    }\r\n\r\n    function erc1155safeTransferFrom(\r\n        IERC1155 token,\r\n        address from,\r\n        address to,\r\n        uint256 tokenId,\r\n        uint256 value,\r\n        bytes calldata data\r\n    ) external override onlyRole(OPERATOR_ROLE) {\r\n        token.safeTransferFrom(from, to, tokenId, value, data);\r\n    }\r\n\r\n    function mintAndSafe1155Transfer(\r\n        ILazyMint token,\r\n        address from,\r\n        address to,\r\n        string memory _tokenURI,\r\n        uint96 _royaltyFee,\r\n        uint256 supply,\r\n        uint256 qty\r\n    ) external override onlyRole(OPERATOR_ROLE)  {\r\n        token.mintAndTransfer(from, to, _tokenURI, _royaltyFee, supply, qty);\r\n    }\r\n\r\n    function mintAndSafe721Transfer(\r\n        ILazyMint token,\r\n        address from,\r\n        address to,\r\n        string memory _tokenURI,\r\n        uint96 _royaltyFee\r\n    ) external override onlyRole(OPERATOR_ROLE) {\r\n        token.mintAndTransfer(from, to, _tokenURI, _royaltyFee);\r\n    }\r\n\r\n    function erc20safeTransferFrom(\r\n        IERC20 token,\r\n        address from,\r\n        address to,\r\n        uint256 value\r\n    ) external override onlyRole(OPERATOR_ROLE) {\r\n        require(\r\n            token.transferFrom(from, to, value),\r\n            \"failure while transferring\"\r\n        );\r\n    }\r\n}\r\n",
  "sourcePath": "C:\\Users\\Yash\\Desktop\\Temporary\\Github\\marketplace\\src\\contracts\\TransferProxy.sol",
  "compiler": {
    "name": "solc",
    "version": "0.8.14+commit.80d49f37.Emscripten.clang"
  },
  "schemaVersion": "3.4.13",
  "updatedAt": "2023-07-24T11:18:43.192Z",
  "devdoc": {
    "kind": "dev",
    "methods": {
      "getRoleAdmin(bytes32)": {
        "details": "Returns the admin role that controls `role`. See {grantRole} and {revokeRole}. To change a role's admin, use {_setRoleAdmin}."
      },
      "grantRole(bytes32,address)": {
        "details": "Grants `role` to `account`. If `account` had not been already granted `role`, emits a {RoleGranted} event. Requirements: - the caller must have ``role``'s admin role. May emit a {RoleGranted} event."
      },
      "hasRole(bytes32,address)": {
        "details": "Returns `true` if `account` has been granted `role`."
      },
      "renounceRole(bytes32,address)": {
        "details": "Revokes `role` from the calling account. Roles are often managed via {grantRole} and {revokeRole}: this function's purpose is to provide a mechanism for accounts to lose their privileges if they are compromised (such as when a trusted device is misplaced). If the calling account had been revoked `role`, emits a {RoleRevoked} event. Requirements: - the caller must be `account`. May emit a {RoleRevoked} event."
      },
      "revokeRole(bytes32,address)": {
        "details": "Revokes `role` from `account`. If `account` had been granted `role`, emits a {RoleRevoked} event. Requirements: - the caller must have ``role``'s admin role. May emit a {RoleRevoked} event."
      },
      "supportsInterface(bytes4)": {
        "details": "See {IERC165-supportsInterface}."
      },
      "transferOwnership(address)": {
        "params": {
          "newOwner": ": newOwner address "
        }
      }
    },
    "version": 1
  },
  "userdoc": {
    "kind": "user",
    "methods": {
      "transferOwnership(address)": {
        "notice": "change the Ownership from current owner to newOwner address"
      }
    },
    "version": 1
  }
}