{
  "contractName": "TransferProxy",
  "abi": [
    {
      "inputs": [],
      "stateMutability": "nonpayable",
      "type": "constructor"
    },
    {
      "anonymous": false,
      "inputs": [
        {
          "indexed": true,
          "internalType": "address",
          "name": "previousOwner",
          "type": "address"
        },
        {
          "indexed": true,
          "internalType": "address",
          "name": "newOwner",
          "type": "address"
        }
      ],
      "name": "OwnershipTransferred",
      "type": "event"
    },
    {
      "anonymous": false,
      "inputs": [
        {
          "indexed": true,
          "internalType": "bytes32",
          "name": "role",
          "type": "bytes32"
        },
        {
          "indexed": true,
          "internalType": "bytes32",
          "name": "previousAdminRole",
          "type": "bytes32"
        },
        {
          "indexed": true,
          "internalType": "bytes32",
          "name": "newAdminRole",
          "type": "bytes32"
        }
      ],
      "name": "RoleAdminChanged",
      "type": "event"
    },
    {
      "anonymous": false,
      "inputs": [
        {
          "indexed": true,
          "internalType": "bytes32",
          "name": "role",
          "type": "bytes32"
        },
        {
          "indexed": true,
          "internalType": "address",
          "name": "account",
          "type": "address"
        },
        {
          "indexed": true,
          "internalType": "address",
          "name": "sender",
          "type": "address"
        }
      ],
      "name": "RoleGranted",
      "type": "event"
    },
    {
      "anonymous": false,
      "inputs": [
        {
          "indexed": true,
          "internalType": "bytes32",
          "name": "role",
          "type": "bytes32"
        },
        {
          "indexed": true,
          "internalType": "address",
          "name": "account",
          "type": "address"
        },
        {
          "indexed": true,
          "internalType": "address",
          "name": "sender",
          "type": "address"
        }
      ],
      "name": "RoleRevoked",
      "type": "event"
    },
    {
      "anonymous": false,
      "inputs": [
        {
          "indexed": true,
          "internalType": "address",
          "name": "from",
          "type": "address"
        },
        {
          "indexed": true,
          "internalType": "address",
          "name": "to",
          "type": "address"
        }
      ],
      "name": "operatorChanged",
      "type": "event"
    },
    {
      "inputs": [],
      "name": "ADMIN_ROLE",
      "outputs": [
        {
          "internalType": "bytes32",
          "name": "",
          "type": "bytes32"
        }
      ],
      "stateMutability": "view",
      "type": "function"
    },
    {
      "inputs": [],
      "name": "DEFAULT_ADMIN_ROLE",
      "outputs": [
        {
          "internalType": "bytes32",
          "name": "",
          "type": "bytes32"
        }
      ],
      "stateMutability": "view",
      "type": "function"
    },
    {
      "inputs": [],
      "name": "OPERATOR_ROLE",
      "outputs": [
        {
          "internalType": "bytes32",
          "name": "",
          "type": "bytes32"
        }
      ],
      "stateMutability": "view",
      "type": "function"
    },
    {
      "inputs": [
        {
          "internalType": "bytes32",
          "name": "role",
          "type": "bytes32"
        }
      ],
      "name": "getRoleAdmin",
      "outputs": [
        {
          "internalType": "bytes32",
          "name": "",
          "type": "bytes32"
        }
      ],
      "stateMutability": "view",
      "type": "function"
    },
    {
      "inputs": [
        {
          "internalType": "bytes32",
          "name": "role",
          "type": "bytes32"
        },
        {
          "internalType": "address",
          "name": "account",
          "type": "address"
        }
      ],
      "name": "grantRole",
      "outputs": [],
      "stateMutability": "nonpayable",
      "type": "function"
    },
    {
      "inputs": [
        {
          "internalType": "bytes32",
          "name": "role",
          "type": "bytes32"
        },
        {
          "internalType": "address",
          "name": "account",
          "type": "address"
        }
      ],
      "name": "hasRole",
      "outputs": [
        {
          "internalType": "bool",
          "name": "",
          "type": "bool"
        }
      ],
      "stateMutability": "view",
      "type": "function"
    },
    {
      "inputs": [],
      "name": "operator",
      "outputs": [
        {
          "internalType": "address",
          "name": "",
          "type": "address"
        }
      ],
      "stateMutability": "view",
      "type": "function"
    },
    {
      "inputs": [],
      "name": "owner",
      "outputs": [
        {
          "internalType": "address",
          "name": "",
          "type": "address"
        }
      ],
      "stateMutability": "view",
      "type": "function"
    },
    {
      "inputs": [
        {
          "internalType": "bytes32",
          "name": "role",
          "type": "bytes32"
        },
        {
          "internalType": "address",
          "name": "account",
          "type": "address"
        }
      ],
      "name": "renounceRole",
      "outputs": [],
      "stateMutability": "nonpayable",
      "type": "function"
    },
    {
      "inputs": [
        {
          "internalType": "bytes32",
          "name": "role",
          "type": "bytes32"
        },
        {
          "internalType": "address",
          "name": "account",
          "type": "address"
        }
      ],
      "name": "revokeRole",
      "outputs": [],
      "stateMutability": "nonpayable",
      "type": "function"
    },
    {
      "inputs": [
        {
          "internalType": "bytes4",
          "name": "interfaceId",
          "type": "bytes4"
        }
      ],
      "name": "supportsInterface",
      "outputs": [
        {
          "internalType": "bool",
          "name": "",
          "type": "bool"
        }
      ],
      "stateMutability": "view",
      "type": "function"
    },
    {
      "inputs": [
        {
          "internalType": "address",
          "name": "_operator",
          "type": "address"
        }
      ],
      "name": "changeOperator",
      "outputs": [
        {
          "internalType": "bool",
          "name": "",
          "type": "bool"
        }
      ],
      "stateMutability": "nonpayable",
      "type": "function"
    },
    {
      "inputs": [
        {
          "internalType": "address",
          "name": "newOwner",
          "type": "address"
        }
      ],
      "name": "transferOwnership",
      "outputs": [
        {
          "internalType": "bool",
          "name": "",
          "type": "bool"
        }
      ],
      "stateMutability": "nonpayable",
      "type": "function"
    },
    {
      "inputs": [
        {
          "internalType": "contract IERC721",
          "name": "token",
          "type": "address"
        },
        {
          "internalType": "address",
          "name": "from",
          "type": "address"
        },
        {
          "internalType": "address",
          "name": "to",
          "type": "address"
        },
        {
          "internalType": "uint256",
          "name": "tokenId",
          "type": "uint256"
        }
      ],
      "name": "erc721safeTransferFrom",
      "outputs": [],
      "stateMutability": "nonpayable",
      "type": "function"
    },
    {
      "inputs": [
        {
          "internalType": "contract IERC1155",
          "name": "token",
          "type": "address"
        },
        {
          "internalType": "address",
          "name": "from",
          "type": "address"
        },
        {
          "internalType": "address",
          "name": "to",
          "type": "address"
        },
        {
          "internalType": "uint256",
          "name": "tokenId",
          "type": "uint256"
        },
        {
          "internalType": "uint256",
          "name": "value",
          "type": "uint256"
        },
        {
          "internalType": "bytes",
          "name": "data",
          "type": "bytes"
        }
      ],
      "name": "erc1155safeTransferFrom",
      "outputs": [],
      "stateMutability": "nonpayable",
      "type": "function"
    },
    {
      "inputs": [
        {
          "internalType": "contract ILazyMint",
          "name": "token",
          "type": "address"
        },
        {
          "internalType": "address",
          "name": "from",
          "type": "address"
        },
        {
          "internalType": "address",
          "name": "to",
          "type": "address"
        },
        {
          "internalType": "string",
          "name": "_tokenURI",
          "type": "string"
        },
        {
          "internalType": "uint96",
          "name": "_royaltyFee",
          "type": "uint96"
        },
        {
          "internalType": "uint256",
          "name": "supply",
          "type": "uint256"
        },
        {
          "internalType": "uint256",
          "name": "qty",
          "type": "uint256"
        }
      ],
      "name": "mintAndSafe1155Transfer",
      "outputs": [],
      "stateMutability": "nonpayable",
      "type": "function"
    },
    {
      "inputs": [
        {
          "internalType": "contract ILazyMint",
          "name": "token",
          "type": "address"
        },
        {
          "internalType": "address",
          "name": "from",
          "type": "address"
        },
        {
          "internalType": "address",
          "name": "to",
          "type": "address"
        },
        {
          "internalType": "string",
          "name": "_tokenURI",
          "type": "string"
        },
        {
          "internalType": "uint96",
          "name": "_royaltyFee",
          "type": "uint96"
        }
      ],
      "name": "mintAndSafe721Transfer",
      "outputs": [],
      "stateMutability": "nonpayable",
      "type": "function"
    },
    {
      "inputs": [
        {
          "internalType": "contract IERC20",
          "name": "token",
          "type": "address"
        },
        {
          "internalType": "address",
          "name": "from",
          "type": "address"
        },
        {
          "internalType": "address",
          "name": "to",
          "type": "address"
        },
        {
          "internalType": "uint256",
          "name": "value",
          "type": "uint256"
        }
      ],
      "name": "erc20safeTransferFrom",
      "outputs": [],
      "stateMutability": "nonpayable",
      "type": "function"
    }
  ],
  "bytecode": "0x608060405234801561001057600080fd5b50600180546001600160a01b03191633908117909155610051907fa49807205ce4d355092ef5a8a18f56e8913cf4a201fbe287825b095693c217759061008d565b600254610088907f97667070c54ef182b0f5858b034beac1b6f3089aa2d3188bb1e8929f4fa9b929906001600160a01b031661008d565b610139565b610097828261009b565b5050565b6000828152602081815260408083206001600160a01b038516845290915290205460ff16610097576000828152602081815260408083206001600160a01b03851684529091529020805460ff191660011790556100f53390565b6001600160a01b0316816001600160a01b0316837f2f8788117e7eff1d82e926ec794901d17c78024a50270940304540a733656f0d60405160405180910390a45050565b6112e5806101486000396000f3fe608060405234801561001057600080fd5b50600436106101165760003560e01c80638da5cb5b116100a2578063a217fddf11610071578063a217fddf14610261578063d547741f14610269578063f2fde38b1461027c578063f5b541a61461028f578063f709b906146102a457600080fd5b80638da5cb5b1461021557806391d1485414610228578063954353601461023b5780639c1c2ee91461024e57600080fd5b806336568abe116100e957806336568abe1461019c578063412972ca146101af578063570ca735146101c257806375b238fc146101ed578063776062c31461020257600080fd5b806301ffc9a71461011b57806306394c9b14610143578063248a9ca3146101565780632f2ff15d14610187575b600080fd5b61012e610129366004610c4f565b6102b7565b60405190151581526020015b60405180910390f35b61012e610151366004610c8e565b6102ee565b610179610164366004610cab565b60009081526020819052604090206001015490565b60405190815260200161013a565b61019a610195366004610cc4565b610415565b005b61019a6101aa366004610cc4565b61043f565b61019a6101bd366004610db3565b6104bd565b6002546101d5906001600160a01b031681565b6040516001600160a01b03909116815260200161013a565b61017960008051602061129083398151915281565b61019a610210366004610e4c565b610559565b6001546101d5906001600160a01b031681565b61012e610236366004610cc4565b61063f565b61019a610249366004610e9d565b610668565b61019a61025c366004610f23565b6106fe565b610179600081565b61019a610277366004610cc4565b610788565b61012e61028a366004610c8e565b6107ad565b61017960008051602061127083398151915281565b61019a6102b2366004610e4c565b6108c7565b60006001600160e01b03198216637965db0b60e01b14806102e857506301ffc9a760e01b6001600160e01b03198316145b92915050565b600060008051602061129083398151915261030881610945565b6001600160a01b0383166103765760405162461bcd60e51b815260206004820152602a60248201527f4f70657261746f723a206e6577206f70657261746f7220697320746865207a65604482015269726f206164647265737360b01b60648201526084015b60405180910390fd5b60025461039b90600080516020611270833981519152906001600160a01b0316610952565b600280546001600160a01b0319166001600160a01b0385169081179091556103d290600080516020611270833981519152906109b7565b6002546040516001600160a01b03909116906000907f1a377613c0f1788c756a416e15f930cf9e84c3a5e808fa2f00b5a18a91a7b864908290a350600192915050565b60008281526020819052604090206001015461043081610945565b61043a83836109bd565b505050565b6001600160a01b03811633146104af5760405162461bcd60e51b815260206004820152602f60248201527f416363657373436f6e74726f6c3a2063616e206f6e6c792072656e6f756e636560448201526e103937b632b9903337b91039b2b63360891b606482015260840161036d565b6104b98282610952565b5050565b6000805160206112708339815191526104d581610945565b604051631adfae3b60e21b81526001600160a01b03891690636b7eb8ec9061050b908a908a908a908a908a908a9060040161103d565b6020604051808303816000875af115801561052a573d6000803e3d6000fd5b505050506040513d601f19601f8201168201806040525081019061054e9190611090565b505050505050505050565b60008051602061127083398151915261057181610945565b6040516323b872dd60e01b81526001600160a01b0385811660048301528481166024830152604482018490528616906323b872dd906064016020604051808303816000875af11580156105c8573d6000803e3d6000fd5b505050506040513d601f19601f820116820180604052508101906105ec91906110a9565b6106385760405162461bcd60e51b815260206004820152601a60248201527f6661696c757265207768696c65207472616e7366657272696e67000000000000604482015260640161036d565b5050505050565b6000918252602082815260408084206001600160a01b0393909316845291905290205460ff1690565b60008051602061127083398151915261068081610945565b60405163394f54bf60e01b81526001600160a01b0387169063394f54bf906106b29088908890889088906004016110cb565b6020604051808303816000875af11580156106d1573d6000803e3d6000fd5b505050506040513d601f19601f820116820180604052508101906106f59190611090565b50505050505050565b60008051602061127083398151915261071681610945565b604051637921219560e11b81526001600160a01b0389169063f242432a9061074c908a908a908a908a908a908a90600401611111565b600060405180830381600087803b15801561076657600080fd5b505af115801561077a573d6000803e3d6000fd5b505050505050505050505050565b6000828152602081905260409020600101546107a381610945565b61043a8383610952565b60006000805160206112908339815191526107c781610945565b6001600160a01b03831661082c5760405162461bcd60e51b815260206004820152602660248201527f4f776e61626c653a206e6577206f776e657220697320746865207a65726f206160448201526564647265737360d01b606482015260840161036d565b60015461085190600080516020611290833981519152906001600160a01b0316610952565b6001546040516001600160a01b038086169216907f8be0079c531659141344cd1fd0a4f28419497f9722a3daafe3b4186f6b6457e090600090a3600180546001600160a01b0319166001600160a01b0385161790556108be600080516020611290833981519152846109b7565b50600192915050565b6000805160206112708339815191526108df81610945565b604051632142170760e11b81526001600160a01b0385811660048301528481166024830152604482018490528616906342842e0e90606401600060405180830381600087803b15801561093157600080fd5b505af115801561054e573d6000803e3d6000fd5b61094f8133610a41565b50565b61095c828261063f565b156104b9576000828152602081815260408083206001600160a01b0385168085529252808320805460ff1916905551339285917ff6391f5c32d9c69d2a47ea670b442974b53935d1edc7fd64eb21e047a839171b9190a45050565b6104b982825b6109c7828261063f565b6104b9576000828152602081815260408083206001600160a01b03851684529091529020805460ff191660011790556109fd3390565b6001600160a01b0316816001600160a01b0316837f2f8788117e7eff1d82e926ec794901d17c78024a50270940304540a733656f0d60405160405180910390a45050565b610a4b828261063f565b6104b957610a5881610a9a565b610a63836020610aac565b604051602001610a7492919061116d565b60408051601f198184030181529082905262461bcd60e51b825261036d916004016111e2565b60606102e86001600160a01b03831660145b60606000610abb83600261120b565b610ac690600261122a565b67ffffffffffffffff811115610ade57610ade610cf4565b6040519080825280601f01601f191660200182016040528015610b08576020820181803683370190505b509050600360fc1b81600081518110610b2357610b23611242565b60200101906001600160f81b031916908160001a905350600f60fb1b81600181518110610b5257610b52611242565b60200101906001600160f81b031916908160001a9053506000610b7684600261120b565b610b8190600161122a565b90505b6001811115610bf9576f181899199a1a9b1b9c1cb0b131b232b360811b85600f1660108110610bb557610bb5611242565b1a60f81b828281518110610bcb57610bcb611242565b60200101906001600160f81b031916908160001a90535060049490941c93610bf281611258565b9050610b84565b508315610c485760405162461bcd60e51b815260206004820181905260248201527f537472696e67733a20686578206c656e67746820696e73756666696369656e74604482015260640161036d565b9392505050565b600060208284031215610c6157600080fd5b81356001600160e01b031981168114610c4857600080fd5b6001600160a01b038116811461094f57600080fd5b600060208284031215610ca057600080fd5b8135610c4881610c79565b600060208284031215610cbd57600080fd5b5035919050565b60008060408385031215610cd757600080fd5b823591506020830135610ce981610c79565b809150509250929050565b634e487b7160e01b600052604160045260246000fd5b600082601f830112610d1b57600080fd5b813567ffffffffffffffff80821115610d3657610d36610cf4565b604051601f8301601f19908116603f01168101908282118183101715610d5e57610d5e610cf4565b81604052838152866020858801011115610d7757600080fd5b836020870160208301376000602085830101528094505050505092915050565b80356001600160601b0381168114610dae57600080fd5b919050565b600080600080600080600060e0888a031215610dce57600080fd5b8735610dd981610c79565b96506020880135610de981610c79565b95506040880135610df981610c79565b9450606088013567ffffffffffffffff811115610e1557600080fd5b610e218a828b01610d0a565b945050610e3060808901610d97565b925060a0880135915060c0880135905092959891949750929550565b60008060008060808587031215610e6257600080fd5b8435610e6d81610c79565b93506020850135610e7d81610c79565b92506040850135610e8d81610c79565b9396929550929360600135925050565b600080600080600060a08688031215610eb557600080fd5b8535610ec081610c79565b94506020860135610ed081610c79565b93506040860135610ee081610c79565b9250606086013567ffffffffffffffff811115610efc57600080fd5b610f0888828901610d0a565b925050610f1760808701610d97565b90509295509295909350565b600080600080600080600060c0888a031215610f3e57600080fd5b8735610f4981610c79565b96506020880135610f5981610c79565b95506040880135610f6981610c79565b9450606088013593506080880135925060a088013567ffffffffffffffff80821115610f9457600080fd5b818a0191508a601f830112610fa857600080fd5b813581811115610fb757600080fd5b8b6020828501011115610fc957600080fd5b60208301945080935050505092959891949750929550565b60005b83811015610ffc578181015183820152602001610fe4565b8381111561100b576000848401525b50505050565b60008151808452611029816020860160208601610fe1565b601f01601f19169290920160200192915050565b6001600160a01b0387811682528616602082015260c06040820181905260009061106990830187611011565b6001600160601b0395909516606083015250608081019290925260a0909101529392505050565b6000602082840312156110a257600080fd5b5051919050565b6000602082840312156110bb57600080fd5b81518015158114610c4857600080fd5b6001600160a01b038581168252841660208201526080604082018190526000906110f790830185611011565b90506001600160601b038316606083015295945050505050565b6001600160a01b03878116825286166020820152604081018590526060810184905260a06080820181905281018290526000828460c0840137600060c0848401015260c0601f19601f8501168301019050979650505050505050565b7f416363657373436f6e74726f6c3a206163636f756e74200000000000000000008152600083516111a5816017850160208801610fe1565b7001034b99036b4b9b9b4b733903937b6329607d1b60179184019182015283516111d6816028840160208801610fe1565b01602801949350505050565b602081526000610c486020830184611011565b634e487b7160e01b600052601160045260246000fd5b6000816000190483118215151615611225576112256111f5565b500290565b6000821982111561123d5761123d6111f5565b500190565b634e487b7160e01b600052603260045260246000fd5b600081611267576112676111f5565b50600019019056fe97667070c54ef182b0f5858b034beac1b6f3089aa2d3188bb1e8929f4fa9b929a49807205ce4d355092ef5a8a18f56e8913cf4a201fbe287825b095693c21775a264697066735822122037dd4df4629d211c4663edd0d86d57c9fd8bf493d8b91298b14e5d1bb98a46fa64736f6c634300080e0033",
  "immutableReferences": {},
  "source": "// SPDX-License-Identifier: UNLICENSED\r\npragma solidity 0.8.14;\r\n\r\nimport \"@openzeppelin/contracts/access/AccessControl.sol\";\r\nimport \"./interface/ITransferProxy.sol\";\r\n\r\ncontract TransferProxy is AccessControl, ITransferProxy {\r\n    event operatorChanged(address indexed from, address indexed to);\r\n    event OwnershipTransferred(\r\n        address indexed previousOwner,\r\n        address indexed newOwner\r\n    );\r\n\r\n    address public owner;\r\n    address public operator;\r\n    // Create a new role identifier for the minter role\r\n    bytes32 public constant ADMIN_ROLE = keccak256(\"ADMIN_ROLE\");\r\n    // Create a new role identifier for the minter role\r\n    bytes32 public constant OPERATOR_ROLE = keccak256(\"OPERATOR_ROLE\");\r\n\r\n    constructor() {\r\n        owner = msg.sender;\r\n        _setupRole(ADMIN_ROLE, msg.sender);\r\n        _setupRole(OPERATOR_ROLE, operator);\r\n    }\r\n\r\n    function changeOperator(address _operator)\r\n        external\r\n        onlyRole(ADMIN_ROLE)\r\n        returns (bool)\r\n    {\r\n        require(\r\n            _operator != address(0),\r\n            \"Operator: new operator is the zero address\"\r\n        );\r\n        _revokeRole(OPERATOR_ROLE, operator);\r\n        operator = _operator;\r\n        _setupRole(OPERATOR_ROLE, operator);\r\n        emit operatorChanged(address(0), operator);\r\n        return true;\r\n    }\r\n\r\n    /** change the Ownership from current owner to newOwner address\r\n        @param newOwner : newOwner address */\r\n\r\n    function transferOwnership(address newOwner)\r\n        external\r\n        onlyRole(ADMIN_ROLE)\r\n        returns (bool)\r\n    {\r\n        require(\r\n            newOwner != address(0),\r\n            \"Ownable: new owner is the zero address\"\r\n        );\r\n        _revokeRole(ADMIN_ROLE, owner);\r\n        emit OwnershipTransferred(owner, newOwner);\r\n        owner = newOwner;\r\n        _setupRole(ADMIN_ROLE, newOwner);\r\n        return true;\r\n    }\r\n\r\n    function erc721safeTransferFrom(\r\n        IERC721 token,\r\n        address from,\r\n        address to,\r\n        uint256 tokenId\r\n    ) external override onlyRole(OPERATOR_ROLE) {\r\n        token.safeTransferFrom(from, to, tokenId);\r\n    }\r\n\r\n    function erc1155safeTransferFrom(\r\n        IERC1155 token,\r\n        address from,\r\n        address to,\r\n        uint256 tokenId,\r\n        uint256 value,\r\n        bytes calldata data\r\n    ) external override onlyRole(OPERATOR_ROLE) {\r\n        token.safeTransferFrom(from, to, tokenId, value, data);\r\n    }\r\n\r\n    function mintAndSafe1155Transfer(\r\n        ILazyMint token,\r\n        address from,\r\n        address to,\r\n        string memory _tokenURI,\r\n        uint96 _royaltyFee,\r\n        uint256 supply,\r\n        uint256 qty\r\n    ) external override onlyRole(OPERATOR_ROLE)  {\r\n        token.mintAndTransfer(from, to, _tokenURI, _royaltyFee, supply, qty);\r\n    }\r\n\r\n    function mintAndSafe721Transfer(\r\n        ILazyMint token,\r\n        address from,\r\n        address to,\r\n        string memory _tokenURI,\r\n        uint96 _royaltyFee\r\n    ) external override onlyRole(OPERATOR_ROLE) {\r\n        token.mintAndTransfer(from, to, _tokenURI, _royaltyFee);\r\n    }\r\n\r\n    function erc20safeTransferFrom(\r\n        IERC20 token,\r\n        address from,\r\n        address to,\r\n        uint256 value\r\n    ) external override onlyRole(OPERATOR_ROLE) {\r\n        require(\r\n            token.transferFrom(from, to, value),\r\n            \"failure while transferring\"\r\n        );\r\n    }\r\n}\r\n",
  "sourcePath": "C:\\Users\\Yash\\Desktop\\Temporary\\Github\\marketplace\\src\\contracts\\TransferProxy.sol",
  "compiler": {
    "name": "solc",
    "version": "0.8.14+commit.80d49f37.Emscripten.clang"
  },
  "schemaVersion": "3.4.13",
  "updatedAt": "2023-08-10T13:39:05.020Z",
  "devdoc": {
    "kind": "dev",
    "methods": {
      "getRoleAdmin(bytes32)": {
        "details": "Returns the admin role that controls `role`. See {grantRole} and {revokeRole}. To change a role's admin, use {_setRoleAdmin}."
      },
      "grantRole(bytes32,address)": {
        "details": "Grants `role` to `account`. If `account` had not been already granted `role`, emits a {RoleGranted} event. Requirements: - the caller must have ``role``'s admin role. May emit a {RoleGranted} event."
      },
      "hasRole(bytes32,address)": {
        "details": "Returns `true` if `account` has been granted `role`."
      },
      "renounceRole(bytes32,address)": {
        "details": "Revokes `role` from the calling account. Roles are often managed via {grantRole} and {revokeRole}: this function's purpose is to provide a mechanism for accounts to lose their privileges if they are compromised (such as when a trusted device is misplaced). If the calling account had been revoked `role`, emits a {RoleRevoked} event. Requirements: - the caller must be `account`. May emit a {RoleRevoked} event."
      },
      "revokeRole(bytes32,address)": {
        "details": "Revokes `role` from `account`. If `account` had been granted `role`, emits a {RoleRevoked} event. Requirements: - the caller must have ``role``'s admin role. May emit a {RoleRevoked} event."
      },
      "supportsInterface(bytes4)": {
        "details": "See {IERC165-supportsInterface}."
      },
      "transferOwnership(address)": {
        "params": {
          "newOwner": ": newOwner address "
        }
      }
    },
    "version": 1
  },
  "userdoc": {
    "kind": "user",
    "methods": {
      "transferOwnership(address)": {
        "notice": "change the Ownership from current owner to newOwner address"
      }
    },
    "version": 1
  }
}